:020000040000FA
:1000000020280820E1000000E5000000E7000000D3
:10001000E9000000EB000000ED000000000000001F
:10002000000000000000000000000000EF000000E1
:10003000F100000000000000F30000006BB40000BD
:10004000F70000009DCE0000C9CE0000F7000000C0
:10005000F7000000CFEC0000F7000000F700000000
:10006000F7000000F7000000F7000000F7000000B4
:10007000F7000000F7000000F7000000F7000000A4
:10008000F7000000F7000000F7000000F700000094
:10009000F7000000F700000009230000F70000004F
:1000A000F7000000A3EA0000F7000000F7000000DE
:1000B000E9010100F7000000F7000000F700000070
:1000C000F7000000F7000000F7000000DFF80CD098
:1000D00010F052F900480047E9B500002028082038
:1000E00005480047FEE7FEE7FEE7FEE7FEE7FEE71E
:1000F000FEE7FEE7FEE7FEE7CD000000FEE710B5F5
:1001000011F0EAFF12F076F812F068F811F0F6FF3D
:10011000AFF30080BDE8104012F032B810B512F015
:1001200043FE13F085FB12F097FEBDE8104013F07C
:100130000FB812F057BD12F01FBB09B10020704775
:1001400011F074B80020704770B5374A0020A2F152
:100150001401064601F10A030C5C54B11D5CAC426B
:1001600007D1145C2CB1641E14F0FF04145400D1A8
:100170000E540C5C1C54401CC0B20A28ECD370BD59
:1001800070B5294D0024143D641CE4B22E5D1EB1EF
:10019000864201D00A2CF7D3285523480C3040F86A
:1001A0002410283040F824203438035570BD1E4AEE
:1001B0000021143A491CC9B2535C834201D00A2978
:1001C000F8D3DBB2834210D117480C3050F82130FD
:1001D00016480360144B343353F821304360002039
:1001E0005054114A505401207047002070470E4A65
:1001F0000021143A491CC9B2535C834201D00A2938
:10020000F8D3DAB282420CD107480C3050F82120E2
:1002100006480260044A343252F82110416001203D
:100220007047002070470000DCE107204800001004
:100230000A4BDA6018705970704708490881704796
:100240000648B0F90810002907D0491E09B20181FB
:10025000002902D1084600F061BB704714C0072096
:1002600090F900308B4200DA027090F9003093422E
:1002700000DD0170704790F900308B4200DA0170A8
:1002800090F90010914200DD02707047B0F9003023
:100290008B4200DA0180B0F90010914200DD02804B
:1002A0007047B0F900308B4200DA0280B0F90030BC
:1002B000934200DD0180704703688B4201DB1946E1
:1002C00000E00160914200DD0260704701460020BD
:1002D00000E0401C0A5C002AFBD1704710B50022E8
:1002E00000E0521C835C8C5CA34201D1002BF8D14E
:1002F000D8B2E1B2401A10BD70477047FFFFFFFF50
:100300000020FB4A20211154401CC0B2C828FAD357
:1003100070470146F64A0020401CC0B2135C8B4275
:1003200001D0C828F8D3704710B50021F14C0A223B
:10033000B0FBF2F302FB13006054491CC9B218462B
:100340000529F5D310BDF0B5EB4B0121202719701D
:100350000521E84A002601E01C7844B1541814F83D
:10036000015C25B9814202D904F8017C05E05418EA
:1003700014F8015D303525701E70491E11F0FF0123
:10038000EAD1F0BDFEB52B23002802DA404200B2CC
:100390002D2300250A266C4690FBF6F706FB170076
:1003A00060556D1C6DB238B20A2DF5DB01260025B3
:1003B0000920202700E046B114F800C0BCF1000F6E
:1003C00003D1904201DD275405E0265C30362654E7
:1003D00000266D1CEDB2401E40B20028EBDA2D2B3A
:1003E00002D163556D1CEDB26AB168B205E0231805
:1003F00013F8013C2354401E40B29042F7DC2E20FB
:100400006D1CA054EDB20846FFF783FF0021B84AE7
:1004100004E0635C461A491C935549B2A942F8DBD3
:10042000FEBDFEB52B23002801DA40422D23002516
:100430000A266C46074690FBF6F006FB10776755D8
:100440006D1C6DB20A2DF5DB012600250920202741
:1004500000E046B114F800C0BCF1000F03D1904297
:1004600001DD275405E0265C3036265400266D1C3D
:10047000EDB2401E40B20028EBDA2D2B02D16355BD
:100480006D1CEDB26AB168B205E0231813F8013CA7
:100490002354401E40B29042F7DC2E206D1CA05425
:1004A000EDB20846FFF735FF0021914A04E0635C96
:1004B000461A491C935549B2A942F8DBFEBDFEB568
:1004C0002B26002801DA40422D2600240A276D46FB
:1004D000844690FBF7F007FB10CC05F804C0641CC1
:1004E00064B20A2CF4DB0127002009244FF0200C11
:1004F00000E04FB115F804E0BEF1000F04D19C42BA
:1005000002DD05F804C005E02F5D30372F550027C8
:10051000401CC0B2641E64B2002CEADA2D2E02D157
:100520002E54401CC0B26BB144B205E02E1916F82F
:10053000016C2E55641E64B29C42F7DC2E24401CD4
:10054000EC54C0B201EB810102EB8101CAB200217F
:10055000674B04E06C5C561A491C9C5549B28142B9
:10056000F8DBFEBD70B50D4616461C46FFF7DCFEF7
:10057000601CC0B2FFF7E7FE05EB850006EB8000CC
:10058000C1B25C4A5A4B0020A04201D2155C5D54B6
:1005900006D3155C202D03D04CB15E1806F8015C23
:1005A000491E401CC0B2C9B20528EDD370BD5D54D0
:1005B000F6E770B50446084615461E46FFF7A9FE45
:1005C0004B4B0146FF2804D106E01A54641C401C22
:1005D000C0B22278002AF8D148480078002804D018
:1005E000002E02D029445F20585470BD2DE9FF4FE2
:1005F0008146DDE90D048A469346FFF78AFE2022F4
:10060000DFF8F8803A490A234FF0640C012C09D135
:1006100098F8005035B10D18A5F10E05AA706A7052
:100620002A7020E099FBF3F603FB16970D1830377C
:10063000A5F10E05022CAF7096FBF3F703FB1766CE
:1006400006F130066E7099FBFCF606F1300605F8EF
:100650000E6B08D198F800602EB1A5F10A05AA70BA
:100660006A702A7021E09AFBF3F603FB16A70D18B7
:100670003037A5F10A05032CAF7096FBF3F703FBA7
:10068000176606F130066E709AFBFCF606F130062E
:10069000674605F80A6B08D198F800602EB1A5F1FD
:1006A0000605AA706A702A702AE09BFBF3F603FB2A
:1006B00016B70D183037A5F10605042CAF7096FB60
:1006C000F3F703FB176606F130066E709BFBFCF632
:1006D00006F13006674605F8066B11D198F8004020
:1006E00074B1A5F102050A546A702A70BDE8FF8F43
:1006F0004C020010C8030010CD030010820000104F
:10070000039C94FBF3F203FB124430340C5492FB31
:10071000F3F403FB14220844A0F1020030324270CB
:10072000039991FBF7F101F130010170DEE770B53B
:100730000D461446FFF7F8FD601CC0B2FFF703FE3C
:100740002846FFF7E6FDB44BB44A002124B95D5CAE
:10075000202D01D015540FE0A14201D25D5CF9E7D4
:1007600004D14FF02E0515545D5C02E05D5C202D38
:1007700002D0161806F8015C401E491CC9B2C0B26E
:100780000529E3D370BD17B501EB810002EB8000B2
:10079000C2B29DF80030A24803F00F0100EB131322
:1007A000445C9E498C54521ED2B21B788B549DF8E7
:1007B0000130521E03F00F04D2B2045D8C54521E5D
:1007C00000EB1313D2B21B788B549DF80230521EEB
:1007D00003F00F04D2B2045D8C54521E00EB1313CD
:1007E000D2B21B788B549DF80330521E03F00F04D5
:1007F000D2B2045D8C54521E00EB1310D2B20078BA
:1008000088541EBD01EB810102EB8101844A10B5C1
:1008100000F00F03C9B2D45C804B02EB10105C54A3
:10082000491EC9B20078585410BD01EB810102EB9A
:100830008101CBB27A4910B500F001028C5C774A95
:10084000D45444085B1E04F00100DBB2085CD054B1
:100850005B1ED8B2630803F001045B080C5D1454FE
:10086000401E03F00104C0B20C5D14545B08401E2E
:1008700003F00104C0B20C5D14545B08401E03F089
:100880000104C0B20C5D14545B08401E03F0010467
:10089000C0B20C5D1454401EC4B25808085C105518
:1008A00010BD30B55F4901235C4D91F9012091F9EC
:1008B000041000EB80048A4202D105F8243030BDD8
:1008C000564D4C1C00EB800005EB8000A24201D18C
:1008D000037530BD8C1CA24202D180F8283030BD97
:1008E000CC1CA24202D180F83C3030BD0C1DA2428B
:1008F00002D180F8503030BD4C1DA24202D180F8A8
:10090000643030BD8C1DA24202D180F8783030BDF9
:10091000C91D8A42FBD180F88C3030BD424B1A8809
:10092000521E104400B21880404A00EB800002447E
:100930003C48136803601279027142781144417097
:100940007047F0B5384D394FB5F9004004EB8406D7
:10095000641C2C80334C3E44256835602579357104
:10096000207061702271A370F0BDF0B505460E468F
:100970001746FFF7C5FC294C5FF00000401C15F836
:10098000011BC0B204F8011B1428F7D35FF000006C
:10099000401C16F8011BC0B204F8011B1428F7D341
:1009A0005FF00000401C17F8011BC0B204F8011BE7
:1009B0001428F7D35FF00000401C13F8011BC0B2ED
:1009C00004F8011B1428F7D3F0BD30B504460846DF
:1009D0001546FFF79EFCFF2809D0104A2178002910
:1009E00005D04319641C401CD154C0B2F6E730BD99
:1009F00010B5029CFFF7B9FF0A48C37882784178A6
:100A00006420FFF79EFF642094FBF0F0BDE81040E7
:100A1000C0B2FFF712BC0000C80300104C02001067
:100A20009247010004020010A2000010AAEB072068
:100A300010B5FF4C082200212088401C2080204651
:100A4000FFF72FFCFB48B4F9001000EB410142888E
:100A50000A84B0F84E00A1F86C0010BDF64A30B41C
:100A6000F649B2F90A4040F6AC53B1F900009C4295
:100A700003DCB2F914209A4203DD142804DA401C86
:100A800001E008B1401E0880142230BC0021EB4870
:100A9000FFF7FCBBF0B5E848E9494FF42F72B0F915
:100AA0000000B1F90010E74B484390FBF2F01880CA
:100AB000E14842F210732030B0F90000484390FB47
:100AC000F2F0E149E44A0880E149E048B1F9004028
:100AD000E0490088B1F90010001B484390FBF3F097
:100AE0001080001B484390FBF3F0DC49DE4C08808B
:100AF000DB480188DB48B0F9003071B900210846B5
:100B000008E000BF00EB800504EB0515401C2D6AD2
:100B1000C0B229449842F5DB1180B2F900000021EF
:100B2000002800DA1180002202EB820004EB0010A2
:100B3000C578192D1BD28579C67905EB0626066284
:100B4000067A477A06EB0726C661867AC77A06EBED
:100B500007268661067B466280F84E50857B80F8CA
:100B60003E50057C467C05EB0625856406E08161E8
:100B70000162C161416280F83E108164521CD2B2B0
:100B80000C2AD1D3B948BA49008858430880B948DB
:100B9000B949008858430880F0BDB848416821F43D
:100BA000402141F480214160416821F4403141F409
:100BB00080314160416821F4404141F4804141600D
:100BC000416C21F4402141F400214164416C21F445
:100BD000403141F400314164416C21F4404141F421
:100BE00000414164A648016821F0E06101600168AC
:100BF00041F400110160016821F480310160016855
:100C000021F47F4141F4807101608115C1609D48EC
:100C10008903016070472DE9F0419B4C6088218871
:100C2000401A00B201F02CFBA51D2880A088618825
:100C3000401A00B201F024FB6880A0882188401A85
:100C400000B201F01DFB4FF49672A880A4F11E01C2
:100C5000904201DAA0880AE0B5F90200904201DA78
:100C6000608804E0B5F90000904201DA208808822B
:100C70004C7800231CB37048B1F91020403005684F
:100C800015440560456815444560856815448560D0
:100C9000C5682A44C2600A8B521C12B20A83B2F59C
:100CA000805F00DB0B83B1F91820950535D19212D6
:100CB00050F822502D12CD8140F822302DE0734F94
:100CC000887891F803C007EBC012B1F910E042F840
:100CD0002CE05FEA8C7212D100252A4607EBC01681
:100CE00056F82270521CD2B23D44202AF8D36A1121
:100CF000514D25F8102005F1200222F810E0401C8B
:100D0000C0B28870102808D30CF1010C0CF0FF0061
:100D10008B70C870202800D3CB70641C0B7014F04B
:100D20000100574A487005D0106820F0FF00001DF0
:100D3000106034E0897808070028106820F0FF0070
:100D400002DB00F1010001E000F1020010605048F8
:100D5000036843F080530360036A43F080430362F7
:100D6000036E43F080630366CB07436908D043F00A
:100D7000805343618B07436B05D423F0804304E029
:100D800023F08053F5E743F0804343634907416F05
:100D900002D421F0806101E041F080614167106878
:100DA00040F080701060BDE8F08110B50021D020C7
:100DB0000CF043FE0021BDE81040D4200CF03DBEF5
:100DC0002DE9F05FDFF8CC80DFF8CCB0334D98F838
:100DD0000000334FDFF8CC90012600244FF4167A40
:100DE000012823D130480168491C91FBFAF20160C7
:100DF0000AFB121030B92D480078012802D1D0200A
:100E00000CF01BFED9F80010484609B1491E0160DC
:100E100008462749B1F90010084303D188F800407B
:100E2000FFF7C3FF2348008800B145E07AE00000E7
:100E3000C403001038E207202C6500104E0100109A
:100E40002AC007202A01001078C00720D6E007201A
:100E5000D203001084C007202C010010C60300102C
:100E600078010010C2000010D0E2072054010010E9
:100E700074010010560100107601001000C00240FD
:100E80000040034000E100E0280000102C5D00104D
:100E900000C009206F0000109A01001071000010BE
:100EA000A0010010FC010010F801001099000010D2
:100EB0006C01001098010010BBF8000090B3FF4BCC
:100EC0001888401C01B2FE481980027832B1012A0C
:100ED0000CD0022A14D0032A1BD023E0F94A2E702A
:100EE000B2F9002091421DDB06701AE031B12C707E
:100EF000B7F90020914215DB022108E02E70F7E7D8
:100F0000F14A2C70B2F9002091420BDB03210170F1
:100F100007E0A9B185F80060B7F90020914201DB34
:100F200004701C8098F80000022854D1E74801683A
:100F3000491C91FBFAF201600AFB121010B108E0A3
:100F40002C70E9E7E2480078012802D1D4200CF0A7
:100F500074FDD9F80010484609B1491E01600846E1
:100F6000DC49B1F90010084303D188F80040FFF7CD
:100F70001CFFD948008800282DD0BBF800000028AD
:100F800029D0CE480188491C0AB2CD4902800B788D
:100F900073B1012B14D0022B1FD0032B1BD12AB30A
:100FA00085F80060B7F900309A4214DB0C7011E04C
:100FB000C44B2E70B3F900309A420CDB0E7009E07E
:100FC00032B12C70B7F900309A4204DB02220BE0F8
:100FD0002E70F7E70480BDE8F09FBB4B2C70B3F98F
:100FE00000309A42F7DB03220A70F3E72C70D9E74E
:100FF00070B5BA480078032843D1B949B9480A689E
:10100000521C0A60B0F90050B748B0F900002B1824
:10101000B648B0F900001C18B548B0F90000261811
:101020000020964204DCB34E08603288521C3280A5
:101030000968B14E0122A94201DB327000E0307034
:10104000AE4D8B4203DC8C4201DD2A7000E028703B
:10105000AB490A88521C12B20A80B2F5167F10DB27
:101060000880A8490A88521C12B20A803C2A08DB70
:101070000880A5490A88521C12B20A80182A00DB8F
:10108000088070BD0121D0200CF0D7BC0121D420F4
:101090000CF0D3BC70B591480125002405708B4835
:1010A0009B490460994800680860FFF7EBFF994886
:1010B000C571047288480088002809D096480088C5
:1010C000002805D07D4804807D4804709348057051
:1010D00070BD824910B5022008707C4800248C49FC
:1010E00004608F4800680860FFF7D0FF894901203D
:1010F000C8710C7278490988002909D08649098885
:10110000002905D06D490C806D490C708349087029
:1011100010BD7249032008707047704900200870A4
:1011200070476E490020087070476C4900200870B5
:101130006B4908606F4908807149088071490880CF
:101140007149088070476549002008702DE62DE937
:10115000F04106464FF4FA75002728460CF076FB5E
:10116000B04202DB0020804629E005EB47000CF08E
:101170006DFBB04200DC3C460A373FB2C82FF4DDBD
:10118000C82C0FDA04F10A0709E000BF05EB4400A0
:101190000CF05CFBB04200DCA046641C24B2BC42F4
:1011A000F4DB0CE05FF0C80405EB44000CF04EFBF0
:1011B000B04200DCA046641C24B2CA2CF4DD4046D8
:1011C000F1E52DE9F04106464FF47A7500272846EF
:1011D0000CF03CFBB04202DB0020804629E005EB2E
:1011E00047000CF033FBB04200DC3C460A373FB20C
:1011F000C82FF4DDC82C0FDA04F10A0709E000BF9C
:1012000005EB44000CF022FBB04200DCA046641C5D
:1012100024B2BC42F4DB0CE05FF0C80405EB4400F0
:101220000CF014FBB04200DCA046641C24B2CA2CB3
:10123000F4DD4046B7E52DE9F05FDFF8E8903A4F7E
:101240003A4E99F800003A4C322542F2ED784FF0D0
:10125000000A40F2FE3B45282AD1307801286FD1A0
:101260002088401C00B22080404509DB86F800A0A1
:101270003049AC200CF0A7FB00210846FFF74EFBDD
:101280002D49A1F800B0B4F9001091FBF5F005FB71
:10129000101100EB80023A80312909D14FF4FA7124
:1012A00001EB4000254900B2B1F900100CF08BFBB6
:1012B00099F80000442843D1307842E098C00720D4
:1012C000720000109C0100109E010010F801001037
:1012D000990000106E010010980100106F000010BE
:1012E00000020010AA010010AC010010AE010010B5
:1012F000B0010010B60100109CC00720EC030010E4
:10130000E80300109AC00720EA030010EC01001067
:10131000FC0100100A0000109A010010710000107A
:10132000F0010010040200104001001070000010D5
:10133000A4000010CDABFFFF420100102A010010F5
:101340002BE0012829D12088401C00B22080404594
:1013500009DB86F800A0F849AE200CF034FB002130
:101360000846FFF7DBFAA7F800B0B4F90010F34B1A
:1013700091FBF5F005FB101100EB80021A8031297A
:101380000BD14FF47A7101EB4000ED4900B2B1F995
:101390000010BDE8F05F0CF016BB1CE62DE9F84F1D
:1013A000E848DFF8A4A3DFF8A483008830B3E84856
:1013B000008818B3E7489AF80030B0F90010E64802
:1013C000012B007807D0E54A022BB2F900200CD09F
:1013D000A8F8002003E0012801D018B124E0E0487B
:1013E000018021E0DF480188F9E7012801D018B128
:1013F0001AE0A8F8002017E0DB4812E0DB48B0F95B
:101400000000022858D0012858D0D9480188D44873
:101410000180D848B0F90000022851D0012851D0ED
:10142000D5480188A8F80010D448B0F90020D44865
:10143000B0F90010CA48FEF729FFD248B0F90020E1
:10144000D148B0F90010C148FEF720FFCF4E00256B
:101450004FF0010970790A2807D2401CC0B27071A0
:101460000A2802D3757186F80690C949C948CA4A44
:101470000B78CA4CCA4F302B26D02B2B79D0C949B8
:10148000AE4A332B76D0DFF820C3452B73D0442BE4
:1014900072D09AF80020AA49DFF810B3DFF810A341
:1014A000012A6AD0022A69D0032A68D00570002078
:1014B0004B46B7F90020C6E3BE48A7E7BE48A5E7FC
:1014C000BE48AEE7BE48ACE791F9011039B1012939
:1014D0001DD00570E562256384F828907BE240F218
:1014E000FE317181B18180F800900020B7F90020B1
:1014F0000AE000BF00EB800304EB0313401CD96239
:10150000196383F82850C0B29042F3DB63E211788C
:1015100011B1012915D05EE27581B58105700020F9
:101520004B46B7F9002009E000EB800104EB011104
:10153000401CCD620D6381F82830C0B29042F3DBCD
:10154000FEE340F2FE317181B18180F8009000200D
:10155000B7F900200AE000BF00EB800304EB03139F
:10156000401CD962196383F82850C0B29042F3DB63
:10157000E6E305E0B1E0C6E039E164E12CE2E6E251
:1015800091F9013013B1032B57D05DE040F2FE33E7
:101590007381B38180F80090E562256384F8289018
:1015A000E567C4F8805084F87890C4F8CC50C4F84B
:1015B000D05084F8C890C4F81C51C4F8205184F865
:1015C0001891C4F86C51C4F8705184F86891C4F84B
:1015D000BC514A46C4F8C05184F8B821C4F80C5232
:1015E000C4F8105284F80822C4F85C52C4F860525F
:1015F00084F85822C4F8AC52C4F8B05284F8A82237
:10160000C4F8FC52C4F8005384F8F822C4F84C53D0
:10161000C4F8505384F84823C4F89C53C4F8A0532A
:1016200084F8982391F9020000EB800004EB00108D
:10163000C362036380F8285082E3127812B1012A52
:10164000A4D07DE37581B581057004F12804484676
:101650006560A56084F800906565A56584F8509084
:10166000C4F8A450C4F8A85084F8A090C4F8F4506A
:10167000C4F8F85084F8F090C4F84451C4F84851C4
:1016800084F84091C4F89451C4F8985184F890912A
:10169000C4F8E451C4F8E85184F8E001C4F83452C5
:1016A000C4F8385284F83002C4F88452C4F888521E
:1016B00084F88002C4F8D452C4F8D85284F8D00216
:1016C000C4F82453C4F8285384F82003C4F874538E
:1016D000C4F8785384F8700332E30020B1F90010A5
:1016E000B2F90020B7F900300AE000BF00EB800734
:1016F00004EB0717401CC7E90B1287F82850C0B24B
:101700009842F3DB1CE39CF8000001284FF0000036
:1017100058D040F2FE31B7F9003009E000EB80020A
:1017200004EB0212401CD162116382F82850C0B24F
:101730009842F3DB04E30000CDABFFFF4201001051
:101740002C010010980100106F0000109001001093
:101750009A010010A201001071000010A6010010F3
:101760008E010010A4010010A801001092010010C9
:101770005C0100109401001062010010740100105F
:101780007601001050010010520100100A000010F4
:10179000040200107803001086000010D0E2072039
:1017A000C2000010400100107000001082C007202D
:1017B000D0030010600100105E01001066010010EF
:1017C00064010010B1F90010B2F90020B7F900303F
:1017D0000AE000BF00EB800704EB0717401CC7E9D5
:1017E0000B1287F82850C0B29842F3DBA8E29CF8AD
:1017F000000001284FF0000011D040F2FE31B7F98F
:10180000002009E000EB800304EB0313401CD962C5
:10181000196383F82850C0B29042F3DB90E2B1F92B
:101820000010B2F90020B7F9003009E000EB8007A2
:1018300004EB0717401CC7E90B1287F82850C0B209
:101840009842F3DB7CE2B279CAB3FF4A128842B114
:10185000FE4A12882AB1FE4A1278012A46D0032A8B
:1018600044D0B1F90020FB49B1F900108A4204DAF2
:10187000BAF8002002F1010204E005DDBAF8002008
:10188000A2F10102AAF80020A0F2FE3149420AB2F8
:10189000404201B2F048FEF7F9FC32225142EE48D4
:1018A000FEF7F4FCED48B0F90010ED48B0F9000087
:1018B000814205DABBF8001001F1010105E015E0F5
:1018C00005DDBBF80010A1F10101ABF80010A8F292
:1018D000FE30404202B2C8F1000001B2DE48FEF71D
:1018E000D5FC32225142DF48FEF7D0FCDC48DE490D
:1018F000B0F90000B1F90010C0EB4020400090FBAF
:10190000F1F00090D348D949B0F90000B1F90010C6
:10191000C0EB4020400090FBF1F08046AC200BF083
:1019200095FFA0F52B41CD3907D1CD48B0F9000086
:10193000FFF70DFC00EB80000090AE200BF086FF5F
:10194000A0F52B41CD3907D1C248B0F90000FFF70F
:1019500038FC00EB800080460020B7F9003038E00A
:10196000B949098841B1B949098829B1B849097803
:1019700001290ED003290CD000990AB2BBF900103E
:10198000521800EB800104EB0111CA620AD5CD6246
:101990000DE000EB800104EB0111CD620D6381F8D5
:1019A000289014E040F2FE37BA4200DDCF62BAF967
:1019B00000200FFA88F7BA180A6301D50D6304E016
:1019C00040F2FE37BA4200DD0F6381F82850401C18
:1019D000C0B29842C4DBB3E1A548B0F900000528C5
:1019E00002DD86F8089000E03572F571B07988B3B1
:1019F000307A78B39F48B1F90010B0F90000814205
:101A000004DABAF8001001F1010104E005DDBAF8CA
:101A10000010A1F10101AAF80010322251428E48B3
:101A2000FEF734FC9248B8F90010B0F90000884283
:101A300004DABBF8001001F1010104E005DDBBF898
:101A40000010A1F10101ABF800103222514285488B
:101A5000FEF71CFC88484FF46171B0F90000484360
:101A60008149B1F9001090FBF1F032308046AC2092
:101A70000BF0ECFEA0F52B41CD3907D17E48B0F933
:101A80000000FFF764FB00EB80008046794877494F
:101A9000B0F90000B1F90010C0EB4020400090FB0D
:101AA000F1F00090AE200BF0D1FEA0F52B41CD3926
:101AB00007D17048B0F90000FFF783FB00EB80000E
:101AC00000900020B7F9003038E05F49098841B143
:101AD0005E49098829B15E49097801290ED0032998
:101AE0000CD0BBF900100FFA88F2521800EB8001FD
:101AF00004EB0111CA620AD5CD620DE000EB800152
:101B000004EB0111CD620D6381F8289014E040F2DE
:101B1000FE37BA4200DDCF62009A17B2BAF9002050
:101B2000BA180A6301D50D6304E040F2FE37BA42E9
:101B300000DD0F6381F82850401CC0B29842C4DB1E
:101B40004E49A1F800804E49E06A0880F8E0B27979
:101B5000B2B34C4A12789ABB4B4AB1F90010B2F9B1
:101B6000002002EB8202B1EB420F04DABAF8002047
:101B700002F1010204E005DDBAF80020A2F1010241
:101B8000AAF80020A0F2FE3149420AB2404201B256
:101B90003148FEF77BFB322251422F48FEF776FB9D
:101BA0003A48B0F9000000EB80012C48B0F9000081
:101BB000B0EB410F05DABBF8001001F1010105E0BF
:101BC00015E005DDBBF80010A1F10101ABF8001034
:101BD000A8F2FE30404202B2C8F1000001B21E4835
:101BE000FEF754FB322251421E48FEF74FFB2748B6
:101BF00042F2EC71B0F9000048431B49B1F9001002
:101C000090FBF1F00090204842F2EC71B0F9000036
:101C100048431649B1F9001090FBF1F08046AC2022
:101C20000BF014FEA0F52B41CD390AD117480088DE
:101C300000EB8000400000B2FFF789FA00EB800063
:101C40000090AE2024E075E0980100109A01001089
:101C5000720000108E010010D00300102A01001045
:101C60006801001082C007205001001074010010AC
:101C700078C007206A01001090010010D8030010FE
:101C80008CC007209CC00720B4010010B2010010D6
:101C90000BF0DCFDA0F52B41CD390AD1CF480088EF
:101CA00000EB8000400000B2FFF78BFA00EB8000F1
:101CB00080460020B7F900202FE0C949097841B1DA
:101CC00000EB800104EB0111CD620D6381F82890D7
:101CD00021E00099BBF9003009B2CB1800EB80017C
:101CE00004EB0111CB6201D5CD6204E040F2FE3776
:101CF000BB4200DDCF62BAF900300FFA88F7FB185B
:101D00000B6301D50D6304E040F2FE37BB4200DDFA
:101D10000F6381F82850401CC0B29042CDDB0FE029
:101D200000EB800104EB0111401CCD620D6381F8D2
:101D30002830C0B29042F3DBAAF80050ABF8005054
:101D4000B571BDE8F88F00EB8001A64810B500EB37
:101D500001100178032972D190F83E108A07B0F97A
:101D600042200CD54FF496639A420DDA521C12B2FF
:101D7000A0F842209A4207DBA0F8423004E01AB1F2
:101D8000A2F10102A0F842200A07B0F944204FF066
:101D90000A034FF000040AD50A2A13DA521C12B2C1
:101DA000A0F844200A2A0DDBA0F844300AE0002AFB
:101DB00005DDA2F1010212B2A0F8442002E001DA2E
:101DC000A0F84440CA06B0F946200AD50A2A0DDA1E
:101DD000521C12B2A0F846200A2A07DBA0F84630AF
:101DE00004E01AB1521E12B2A0F84620427812073F
:101DF00001D004210FE07C4A127822B1C278142A63
:101E000001D9052107E0890601D5022103E0C17847
:101E1000142901D201218170C1780A2990F8281073
:101E200002D341F0800101E001F07F0180F8281029
:101E30006E49B1F90A20C262B1F90C10016310BDFC
:101E40002DE9F05F6A48DFF8B081DFF8B0B10178C2
:101E50006848DFF8ACA16B4DB0F900006A4E00276E
:101E60006A4C022911D0012925D0278068492868A9
:101E7000B1F90010884243DD66493068B1F90010BD
:101E800088423DDA2088401C3CE0DFF88C91B9F8AC
:101E90000010401A00B200F0F3F9C8F80000642105
:101EA0004843B9F90010DFF8748190FBF1F0286025
:101EB000BBF8001014E0DFF86891B9F80010401A80
:101EC00000B200F0DDF9C8F8000064214843B9F918
:101ED0000010DFF8508190FBF1F02860BBF8001093
:101EE000B8F80000081A00B200F0CAF96421CAF874
:101EF00000004843B8F9001090FBF1F03060B5E7FE
:101F00002088401E484D20800A21288800EB800050
:101F100001EB400002B200213C48FEF7B7F934481B
:101F2000007800B92780414841490068B1F9002094
:101F3000404990420ADBB5F90030B4F9006003EB88
:101F40008303B6EB430F01DD01230B70904208DBE6
:101F5000B5F90000B4F9002000EB8000B2EB400FAF
:101F600000DC0F703448026822F44062026033489B
:101F7000026842F020020260314A12782AB10978E0
:101F8000012A01D009B106E029B1416941F02001DF
:101F90004161BDE8F09F416921F02001F8E7264842
:101FA000016821F4407101602448016841F010018A
:101FB00001600F490978032903D02249097819B132
:101FC00007E02149097821B1416921F010014161FF
:101FD0007047416941F01001F9E70000B4010010B9
:101FE0009CC00720D0E207207AC007200A0000101A
:101FF0006F0000102A010010DC0300102C010010FB
:10200000E003001090C0072094C00720E6030010F2
:102010007E01001080010010620100106A010010B2
:10202000680100108E0100107C010010F801001002
:102030007A010010E403001000C0024000C0092033
:102040009A00001071000010EC0300102DE9E84E1A
:102050000746542659B1012904D0022904D0032986
:1020600004D004E0552602E0752600E04C268348A3
:10207000DFF8049207EB87034FF0000A00EB031030
:10208000012A01D0EAB3F3E031B1012908D00229D5
:102090000AD003290CD00FE0427842F001020AE096
:1020A000427842F0020206E0427842F0040202E086
:1020B000427842F00802427080F84F1053208DF8A9
:1020C00000008DF801708DF8026056468DF803A06F
:1020D000694620460BF0F3FC6946201D00960BF084
:1020E000EEFCB9F83C0009F120058DF80000287ECF
:1020F0008DF80100287B8DF802008DF80360694699
:1021000000E02FE004F108000BF0D9FC287A8DF8EC
:10211000000028798DF8010028788DF802008DF8EC
:102120000360694604F10C000BF0C9FC41258DF8F1
:1021300000508DF801508DF802508DF8035069461B
:1021400004F110000BF0BBFC8DF800508DF801502D
:102150008DF802508DF80350694604F114000BF01D
:10216000AEFC6BE031B1012908D0022913D003295C
:1021700015D007E0417821F0010102E0417821F01B
:102180000201417004F110004FEA000B9DF80000BD
:1021900053282CD107E0417821F00401F1E7417880
:1021A00021F00801EDE79DF80100B8421FD19DF82C
:1021B0000200B0421BD1694658460BF0C4FB9DF8A3
:1021C0000000412813D106E06D1EADB200E03F25AE
:1021D0004545DBD14CE09DF80100412807D19DF831
:1021E0000200412803D19DF80300412802D0002DB0
:1021F000EDD0E9E7B9F83C0009F120058DF80000C1
:10220000287E8DF80100287B8DF8020056468DF857
:1022100003A0694658460BF052FC287A8DF800005E
:1022200028798DF8010028788DF802008DF8036078
:10223000694604F114000BF042FC42258DF8005071
:102240008DF801508DF802508DF80350694604F165
:1022500018000BF034FC8DF800508DF801508DF80B
:1022600002508DF80350694604F11C000BF027FC66
:1022700000BFBDE8E88E000000400240D0E2072029
:10228000002801DA404200B2704710B540F2D47025
:102290000BF0DCFAF94C207040F2D6700BF0D6FA55
:1022A00060704FF4FB600BF0D1FAA07040F2DA706E
:1022B0000BF0CCFAE07040F2DC700BF0C7FA207241
:1022C00040F2DE700BF0C2FA60724FF4FC600BF06B
:1022D000BDFAA07240F2E2700BF0B8FAE0724FF46F
:1022E00001600BF0B3FA207140F612000BF0AEFA69
:1022F000607140F614000BF0A9FAA07140F61600C8
:102300000BF0A4FAE07110BDDD4810B5016821F0B2
:10231000E06101604168DC4AC1F30B13D94C1178CC
:1023200024F81130491CC9B21170032903D2016885
:1023300041F08071016010BD2DE9F041D34DD44EC4
:1023400001272888D34C401C00B228800A280DDBC6
:1023500006200BF07BFA48B93068C00706D1A07898
:1023600020B9012106200BF02EFBA770B5F9000063
:10237000B0F5967F0EDB06200BF068FA012809D134
:102380003068C00706D1A07820B9012106200BF0E3
:102390001AFBA770B4F93400B0F5B47F0AD3062055
:1023A0000BF054FA002805D0BDE8F04100210620CA
:1023B0000BF009BBBDE8F0812DE9FF41B5490025CF
:1023C0008031A1F15E04B1F9640000EB400202EB40
:1023D000C0000A2290FBF2F0E084E0850320208513
:1023E0002078401CC0B204F82209182802D384F8CF
:1023F000225001E00F2843D82120FDF7F8FE50B10C
:10240000A5480088222806D1A44894F8221090F903
:102410000200884232D094F82B00A14D98B994F86C
:10242000220000EB800105EB011202F12802117974
:10243000577A167A53798DE8CA0013784FF0ED0277
:1024400001460BF072FD94F822000F2816D200EB23
:10245000800005EB0010C1783C2905D2491CC9B2A7
:10246000C170032902D207E03C21C1700179032920
:1024700002D24179491C4171C1780171BDE8FF81E7
:10248000844B112893F82B3019D01228F6D1002B49
:10249000F4D1B1F96800814990FBF2F0AA39C0B2D9
:1024A0004B780C78891E4A78CDE90230CDE90024BA
:1024B0000B782922FF2108460BF037FDDEE7002BC1
:1024C000DCD1744850304178027808384378CDE93F
:1024D0000032CDE9021503786222EBE76F49002054
:1024E0004C390870487088704C31487070472DE93D
:1024F000F04F68484FF03C0E90F82C20803000F5EB
:10250000807700F1800BF968B0F93E4091FBFEF650
:1025100009B289463969B0F9405091FBFEF70FFACC
:1025200081F85C493FB2BA46CF78BBF90430BBF9B9
:10253000061036B28AB1012A3BD1B0F876C0ABF8AA
:102540001CC0B0F87E00ABF82000ABF81A40ABF826
:102550001E50BBF902207AB92DE0B0F87CC0ABF870
:102560001CC0B0F87000ABF82000ABF81A40ABF814
:102570001E50BBF9002012B14FF0FF3020E0474859
:10258000183800681AE000BF90FBFEF018E000BFAA
:10259000ABF816600AE000BFABF8169006E000BF8B
:1025A000ABF816A002E000BFABF81680394880F8FF
:1025B0003070BDE8F08F3948183840680029E3D101
:1025C000ABF81800134302D00029E5D0E0E700295A
:1025D000EAD0E5E7F0B50020324A01464FF4F47343
:1025E0001154401C00B29842FADBDFF8B0E0002042
:1025F0000EF1480E14277A21414300EB80039B0023
:1026000000EB80041BB207EB84051EE01EF80340BC
:102610005E2C21D0244E04EB440416F814C002F8BA
:1026200001C006EB4404491C66785654491CA67840
:102630005654491CE6785654491C26795654491C70
:1026400064795454491C5B1C1BB29D42DEDC401C67
:1026500000B20428CFDBF0BD4FF07E0C02F801C0C1
:10266000491C42245454491C5A265654491C565459
:10267000491C5454491C02F801C0E3E7E867001004
:1026800000400340280000100A000010F0E007207E
:10269000500000106C0000104800001004020010F0
:1026A000D0E2072080E70720144101002DE9F04F18
:1026B000FE48ADB0B0F956100091B0F85820114462
:1026C0000170017A491CC9B20172142908D3002192
:1026D0000172C279521CD2B2C271052A00D3C171F3
:1026E000F349F34BF24891F9045091F90110DFF8E6
:1026F000BCA34A1B983B0078B3F92E304FF00A0B6D
:102700009E460AF1800A02ACF0B3E94F0D2801F0B1
:102710001882212801F006833B466B2893F9043088
:1027200004EB8303994601F013833B465B789B1EC1
:102730005BB26C2801F038836E2801F0D7836A28D9
:1027400001F03C86692801F079863E4696F90280C0
:102750007678761E4FFA86FC672801F0CC863E46D6
:102760000F2801F030871028FBD0042801F054878F
:10277000CE4EDFF840E33E28B67E02F015826F2889
:1027800002F09682332800E043E002F0EB857028E7
:1027900002F02386712802F075865A2802F0AE8670
:1027A0005E2803F05D805F28FBD0612803F06B801A
:1027B000622803F0BA80632803F00C81122803F02A
:1027C0005D81432803F08E81B84F45283F7903F09F
:1027D000A381442803F0DF81B54F302803F05083F4
:1027E000722803F065834FF0090B2E2803F0B483A1
:1027F000412803F08C842C2803F093862B2803F0C7
:10280000C986582804F020816D2804F0468104F020
:102810008DB9A648C678032E2CD090F82C70A44809
:102820004078C01E40B28146A0488030002FB0F9E9
:10283000620000909D4800F5807390F80680B3F91F
:102840002CC04379C07E7ED0012F7DD0DFF85C8222
:10285000022F7AD0022E00F0518797A70297BCF181
:10286000000F00F08687BEF1000F00F0418798A7A7
:1028700000F07EBF9CA00290A1A00390A6A00490AF
:10288000ABA002AD0346059007CDFEF76EF8DFF86A
:102890002082A8F11808A8F18005D8F81400B5F92D
:1028A0003E10884203DA00222121A7A019E0B5F9E1
:1028B00040201144814203DD00222121A3A010E029
:1028C000B5F942201144814203DD00222121A0A05C
:1028D00007E0B5F944201144814204DD00222121A2
:1028E0009CA0FEF772F805F14605002268882B21AE
:1028F00080B2FDF71CFF28880022402180B2FDF73E
:1029000016FFBAF940005E4690FBF6F0574680B2DB
:1029100000222321FDF70BFFB7F93E00002290FBB8
:10292000F6F080B22421FDF702FFA8880022401CA7
:102930005E2180B2FDF7FBFED8F81400454690FBFF
:10294000F6F13C2002E013E0C7E2F9E391FBF0F27C
:1029500000FB121080B200227321FDF7E8FE6869C7
:102960004FF4167190FBF1F0002280B25421E8E39D
:10297000012E0FD078A00290BCF1000F4AD0BEF11A
:10298000000F01D074A044E0012B29D0002B41D1CD
:1029900077A03EE07CA70297BCF1000F3AD0BEF1D1
:1029A000000F05D0B8F1010F06D0B8F1030F03D026
:1029B000012B07D0D3B12DE0800701D578A028E006
:1029C00071A026E040B1012808D0022808D00328D1
:1029D00008D0042808D012E077A01AE07CA018E004
:1029E00081A016E086A014E08BA012E050B101286F
:1029F0000AD00228CCD0032808D0042808D0052803
:102A0000C0D007E08AA004E08FA002E094A000E01C
:102A100099A002903AA003909DA0DFF890800490C6
:102A2000012E01D1A0A004903BA00590A4A0069087
:102A3000A9A00790AEA00890B3A009901C48032A53
:102A400002DD80F8049002E0A94200DA01710099E9
:102A500055460F2906DDB2A3B7A2BDA1C2A0FDF75E
:102A600084FF0CE090F9046004EB8600001D0EC8A2
:102A700054F82600FDF779FF0020FDF712FF0C4EF9
:102A8000983EB08D08B1F08D20B900225E21BCA027
:102A9000FDF79BFFB6F922004FF47A77B84203DACC
:102AA00001222B2180B272E16CE100006C00001069
:102AB000040200104847010020C8F1F2EEF7EDE8EB
:102AC000EA20EDE0EFF02E205E2020200000000044
:102AD00020C8F1F2EEF7EDE8EA20EDE0EFF02E206D
:102AE0005E3E3E3E00000000202020C8D1CFDBD259
:102AF000C0CDC8C520D4C0C7C02021200000000020
:102B00002049F3202020202BC020556D6178202003
:102B100020204042000000002049202020202023C7
:102B2000C02055202020202020202442000000002A
:102B300020D6E8EAEB204E2020205E2020203054D2
:102B40003A30732000000000410000004200000005
:102B5000430000004400000020C8F1F2EEF7EDE869
:102B6000EA20F2EEEAE020205E20202000000000B3
:102B700020C8F1F2EEF7EDE8EA20F2EEEAE02020DC
:102B80005E3C3C3C0000000020C8F1F2EEF7EDE8AE
:102B9000EA20F2EEEAE020202020202000000000C1
:102BA00020C8F1F2EEF7EDE8EA20F2EEEAE02020AC
:102BB0005E203C3E0000000020C8F1F2EEF7EDE898
:102BC000EA20F2EEEAE020205E3E20200000000035
:102BD00020C8F1F2EEF7EDE8EA20F2EEEAE020207C
:102BE0005E3E3E200000000020C8F1F2EEF7EDE866
:102BF000EA20F2EEEAE020205E3E3E3E00000000C9
:102C000020C8F1F2EEF7EDE8EA20F2EEEAE020204B
:102C10005E203E3E0000000020C8F1F2EEF7EDE835
:102C2000EA20F2EEEAE020205E20203E00000000D4
:102C300020C8F1F2EEF7EDE8EA20F2EEEAE020201B
:102C40005E20203C0000000020C8F1F2EEF7EDE825
:102C5000EA20F2EEEAE020205E203C3C000000008A
:102C600020C8F1F2EEF7EDE8EA20F2EEEAE02020EB
:102C70005E3C3C200000000020C8F1F2EEF7EDE8D9
:102C8000EA20F2EEEAE020205E3C20200000000076
:102C900020C4EBE8F22DF1F2FC2E202030743A3003
:102CA000543A30730000000020202020202030748F
:102CB0003A30543A307320202020202000000000B9
:102CC0002055EC61782EE8F1F22EF2EEEAE02020B9
:102CD00020207BC20000000020C2FBF5EEE4202093
:102CE0002020202020202020202020200000000064
:102CF00020D3F1F2E0EDEEE2EAE8202020202020CF
:102D0000202020200000000020C2FBEFF0FFECE8B4
:102D1000F2E5EBE820202020202020200000000009
:102D200020E8EBE820EDE5F1EAEEEBFCEAEE20F43A
:102D3000E0E72E20000000002020CEF2F1F3F2F1B7
:102D4000F2E2F3E5F220EEE4EDE0202000000000E6
:102D5000202020202020F1E5F2E82121212120203F
:102D600020202020000000002020C0E2E0F0E8FF4A
:102D700020EFE8F2E0FEF9E5E92020200000000065
:102D80002000000090FBFBF080B200222B21FDF719
:102D9000CEFCB5F94000B84203DA0122232180B20B
:102DA00004E090FBFBF080B200222321FDF7BFFC82
:102DB000B5F93E00B84203DA0122242180B204E0D2
:102DC00090FBFBF080B200222421FDF7B0FCB5F9A6
:102DD0007C00B8420ADA01227B2180B2FDF7A7FC11
:102DE000B5F87C000122402180B20EE05F4690FBE6
:102DF000F7F080B200227B21FDF799FCB5F97C0049
:102E0000002290FBF7F080B24021FDF790FC47468E
:102E1000FBE3FF4D3C260022E86890FBF6F106FB41
:102E2000110080B27321FDF782FCE868002290FB5C
:102E3000F6F090FBF6F106FB110080B25421FDF78D
:102E400076FCE968F3E3F24D3C260022286990FB0A
:102E5000F6F106FB110080B27321FDF768FC2869CA
:102E6000002290FBF6F090FBF6F106FB110080B219
:102E70005421FDF75CFC2969FAE300223A21AFF204
:102E80000010FDF7A2FD00223A21AFF20C1007E07E
:102E9000308800F00ABE00BF6FF002027421DDA08E
:102EA000FDF793FDEFE3DA4D3C260022286890FB06
:102EB000F6F106FB110080B27321FDF738FC28689B
:102EC000002290FBF6F090FBF6F106FB110080B2B9
:102ED0005421FDF72CFC2968F0E3022E11D0AFF24B
:102EE00028400290BCF1000F4CD0BEF1000F02D080
:102EF000AFF23C4045E0012B29D0002B42D1C8A0C5
:102F00003FE0CDA70297BCF1000F3BD0BEF1000F10
:102F100005D0B8F1010F06D0B8F1030F03D0012B93
:102F200007D0DBB12EE0800701D5C9A029E0C2A0FF
:102F300027E040B1012808D0022808D0032809D092
:102F4000042809D013E0C8A01BE0CDA019E0AFF21F
:102F5000804016E0D0A014E0D5A012E050B10128C6
:102F60000AD00228CBD0032808D0042808D005288E
:102F7000BED007E0D4A004E0D9A002E0DEA000E0CB
:102F8000E3A00290E8A00390AFF2FC20DFF8B0834A
:102F90000490022E02D1AFF2F0200490E9A0059037
:102FA000EEA00690AFF2D0200790AFF2BC200890C0
:102FB000AFF2AC20099096481830032A02DD80F861
:102FC000049002E0A94200DA0171009955460F29E8
:102FD0000ADDAFF2B423AFF2A022AFF28C21AFF240
:102FE0007820FDF7C2FC0CE090F9046004EB860049
:102FF000001D0EC854F82600FDF7B7FC0020FDF7B1
:1030000050FC834E803EB08D08B1F08D28B900226F
:103010005E21AFF29420FDF7D8FCB6F924004FF4FE
:103020007A77B84203DA0122252180B204E090FBCE
:10303000FBF080B200222521FDF779FBB5F93E00B7
:10304000B84203DA0122262180B204E090FBFBF0B3
:1030500080B200222621FDF76AFBB5F94000B84294
:1030600003DA01222A2180B204E090FBFBF080B257
:1030700000222A21FDF75BFBB5F97E00B8420ADA8F
:1030800001227D2180B2FDF752FBB5F87E000122BE
:103090007D2180B20EE05F4690FBF7F080B2002207
:1030A0007D21FDF744FBB5F97E00002290FBF7F08F
:1030B00080B27D21FDF73BFB98F8030047460228CC
:1030C0001DD0708800287FF4E7AE514E3C250022C9
:1030D000706890FBF5F105FB110080B27321FDF7DC
:1030E00026FB7068002290FBF5F090FBF5F105FBE4
:1030F000110080B25421FDF71AFB7168DEE2B6F9C7
:103100000400B6F9021008437FF483AE404E3C251C
:103110000022306990FBF5F105FB110080B27321AC
:10312000FDF705FB3069002290FBF5F090FBF5F10F
:1031300005FB110080B25421FDF7F9FA316997E2DD
:1031400000E0C2E2012E10D0AFF2F4570297BCF1BA
:10315000000F45D0BEF1000F02D0AFF274573EE031
:10316000012BFAD0AFF2F85739E0AFF2E4570297EB
:10317000BCF1000F34D0012B01D0CBB130E040B115
:10318000012809D00228E8D0032808D0042809D053
:1031900017E0AFF2DC5722E0AFF2CC571FE0AFF2FE
:1031A000A0571CE0AFF2905719E0AFF2546716E059
:1031B00050B101280BD00228D4D003280AD004280B
:1031C0000BD00528F1D00BE0AFF29C5707E0AFF22F
:1031D000885704E0AFF2785701E0AFF264570297E6
:1031E000AFF2E4670397AFF258570497012E02D16C
:1031F000AFF24C570497AFF2E0670597022E05D067
:10320000AFF24C700690BCF1000FB3E0BFE00000DD
:10321000EC010010EDE5EFF0E5F0FBE2EDEE000073
:1032200020C8F1F2EEF7EDE8EA20EDE0EFF02E2015
:103230005E3C3C3C0000000020C8F1F2EEF7EDE8F7
:10324000EA20EDE0EFF02E202020202000000000FA
:1032500020C8F1F2EEF7EDE8EA20EDE0EFF02E20E5
:103260005E203C3E0000000020C8F1F2EEF7EDE8E1
:10327000EA20EDE0EFF02E205E3E2020000000006E
:1032800020C8F1F2EEF7EDE8EA20EDE0EFF02E20B5
:103290005E3E3E200000000020C8F1F2EEF7EDE8AF
:1032A000EA20EDE0EFF02E205E203E3E0000000020
:1032B00020C8F1F2EEF7EDE8EA20EDE0EFF02E2085
:1032C0005E20203E0000000020C8F1F2EEF7EDE89D
:1032D000EA20EDE0EFF02E205E20203C0000000010
:1032E00020C8F1F2EEF7EDE8EA20EDE0EFF02E2055
:1032F0005E203C3C0000000020C8F1F2EEF7EDE853
:10330000EA20EDE0EFF02E205E3C3C2000000000C3
:1033100020C8F1F2EEF7EDE8EA20EDE0EFF02E2024
:103320005E3C2020000000002055F32020202025B6
:103330004220496D6178202020207D41000000005E
:103340006C000010205520202020202642204920FB
:103350002020202020202A41000000002049EC618C
:10336000782EE8F1F22EEDE0EFF02E2020207D41C6
:103370000000000034D0BEF1000F02D0AFF6B00064
:1033800003E0012BFAD0AFF26810069028E0AFF20C
:1033900058170697BCF1000F1FD0012B01D043B383
:1033A0001BE040B1012809D002280BD003280CD023
:1033B00004280DD00FE0AFF2501001E0AFF2401042
:1033C00006900AE0AFF6F800FAE7AFF23410F7E73C
:1033D000AFF22410F4E7052823D098F8140018B3AE
:1033E000AFF2BC000790AFF258700890022E1DD0CB
:1033F0001FE050B101280BD002280CD003280DD0BB
:103400000428E8D1AFF2F800DAE7AFF24410D7E7CA
:10341000AFF23410D4E7AFF2F810D1E7AFF22810D2
:10342000CEE7AFF66C10CBE7FAA0AEE7AFF288704C
:103430000890AFF2F0000990AFF27C700A90AFF202
:10344000E4000B90AFF270700C90AFF25C700D90D6
:10345000AFF24C70DFF8D4830E90032A02DD88F8B7
:10346000049003E0A94201DA88F804100098554658
:103470000F280ADDAFF25873AFF24472AFF2307129
:10348000AFF21C70FDF771FA0CE098F9046004EBE0
:103490008600001D0EC854F82600FDF766FA0020CD
:1034A000FDF7FFF9E14E983EB08D08B1F08D28B9D7
:1034B00000225E21AFF23870FDF787FAB6F92200DC
:1034C0004FF47A77B84203DA01222B2180B204E06C
:1034D00090FBFBF080B200222B21FDF728F9B5F913
:1034E0004000B94648450ADA0122232180B2FDF79F
:1034F0001EF9B5F8400001222A2180B20EE05F4695
:1035000090FBF7F080B200222321FDF710F9B5F906
:103510004000002290FBF7F080B22A21FDF707F966
:10352000B6F924004F46B84203DA0122252180B2C1
:1035300004E090FBFBF080B200222521FDF7F7F8B4
:10354000B5F93E00B946484509DA0122262180B284
:10355000FDF7EDF8E88F0122242180B20EE05F46EE
:1035600090FBF7F080B200222621FDF7E0F8B5F9D4
:103570003E00002290FBF7F080B22421FDF7D7F83F
:10358000B5F97E0048450ADA01227D2180B2FDF7B7
:10359000CEF8B5F87E0001227D2180B20EE05F46B4
:1035A00090FBF7F080B200227D21FDF7C0F8B5F95D
:1035B0007E00002290FBF7F080B27D21FDF7B7F886
:1035C000B5F97C0048450ADA01227B2180B2FDF77B
:1035D000AEF8B5F87C000122402180B20EE05F46D3
:1035E00090FBF7F080B200227B21FDF7A0F8B5F93F
:1035F0007C00002290FBF7F080B24021FDF797F8A5
:1036000098F904008A4F02280CDCF87801287FF42E
:103610003FACB6F90400B6F9001008433FF413AC10
:10362000FFF7F7BBF878022802D070882AE21FE083
:10363000B6F90400B6F902100843EFD07B4E3C25E2
:10364000183E0022F06890FBF5F105FB110080B2F6
:103650007321FDF76CF8F068002290FBF5F090FB09
:10366000F5F105FB110080B25421FDF760F8F16817
:103670004FF4616091FBF0F080B200227421FDF7FD
:1036800056F8B87D59E222E0684D3C26183D0022EC
:10369000686890FBF6F106FB110080B27321FDF71C
:1036A00046F86868002290FBF6F090FBF6F106FB06
:1036B000110080B25421FDF73AF869684FF4616057
:1036C00091FBF0F080B200227421FDF730F85848E9
:1036D000C078012806D0554A0021983A0228D184A2
:1036E00003F02482514900209839088503F01EBA5E
:1036F000012B3FF4BCA8AFF2D84739E0AFF2C8477E
:103700000297BCF1000F34D0012B01D0CBB130E0D7
:1037100040B1012809D00228EBD0032808D00428A2
:1037200009D017E0AFF2C04722E0AFF2AC471FE08C
:10373000AFF29C471CE0AFF2884719E0AFF688472C
:1037400016E050B101280BD00228D4D003280AD0AB
:1037500004280BD00528F1D00BE0AFF2944707E026
:10376000AFF2844704E0AFF2704701E0AFF2604788
:103770000297AFF24C470397AFF6EC270497022E5F
:1037800002D1AFF6DC270497AFF248470597012E28
:1037900010D0AFF63C400690BCF1000F56D0BEF101
:1037A000000F02D0AFF6C0304FE0012BFAD0AFF6D9
:1037B00040404AE0AFF630470697BCF1000F45D0D5
:1037C000012B01D0CBB141E040B1012809D0022842
:1037D000E8D0032808D0042809D017E0AFF6284025
:1037E00033E0AFF6144030E0AFF6EC302DE0AFF64A
:1037F000D8302AE0AFF6A04027E0D8B101281CD08D
:103800000228D4D003281BD004281CD00528F1D0CE
:103810001CE000002020202020202020202020202C
:103820002020202020202020000000000402001082
:103830006C000010AFF6084007E0AFF6F43004E08B
:10384000AFF6E43001E0AFF6D0300690AFF650505E
:103850000790AFF6C4300890012E02D1AFF6B83011
:103860000890AFF64C500990AFF6AC300A90AFF22A
:1038700014500B90AFF6A0300C90AFF68C300D903A
:10388000AFF67C300E90032AFF4802DD80F80490EA
:1038900002E0A94200DA0171009855460F280ADDBE
:1038A000AFF68433AFF67032AFF65C31AFF6483026
:1038B000FDF75BF80DE0F44890F9046004EB860036
:1038C000001D0EC854F82600FDF74FF80020FCF745
:1038D000E8FFED4E983EB08D08B1F08D28B900227A
:1038E0005E21AFF66430FDF770F8B6F922004FF4B0
:1038F0007A77B84203DA01222B2180B204E090FBF0
:10390000FBF080B200222B21FCF711FFB5F940003B
:10391000B94648450ADA0122232180B2FCF707FFA5
:10392000B5F8400001222A2180B20EE05F4690FBEC
:10393000F7F080B200222321FCF7F9FEB5F9400030
:10394000002290FBF7F080B22A21FCF7F0FEB0468F
:10395000B6F924004E46B04203DA0122252180B296
:1039600004E090FBFBF080B200222521FCF7DFFE93
:10397000B5F94000B0420ADA0122232180B2FCF7F7
:10398000D6FEB5F8400001222A2180B20EE05F4643
:1039900090FBF7F080B200222321FCF7C8FEB5F9B6
:1039A0004000002290FBF7F080B22A21FCF7BFFE16
:1039B000B5F93E00B04209DA0122262180B2FCF7B7
:1039C000B6FEE88F0122242180B20EE05F4690FB14
:1039D000F7F080B200222621FCF7A9FEB5F93E00DF
:1039E000002290FBF7F080B22421FCF7A0FEB5F98D
:1039F0007C00B0420ADA01227B2180B2FCF797FEFC
:103A0000B5F87C000122402180B20EE05F4690FBB9
:103A1000F7F080B200227B21FCF789FEB5F97C002B
:103A2000002290FBF7F080B24021FCF780FEB5F950
:103A30007E00B0420ADA01227D2180B2FCF777FED7
:103A4000B5F87E0001227D2180B20EE05E4690FB3B
:103A5000F6F080B200227D21FCF769FEB5F97E0008
:103A6000002290FBF6F080B27D21FCF760FE8648D4
:103A700090F90400022812DC844FF878022806D05E
:103A8000B8F8020000283FF4FFADFFF705BAB8F917
:103A90000410B8F9020001433FF438ABC0E57B4E97
:103AA000F078012805D0B8F8000000283FF4FBA901
:103AB000EBE7B8F90410B8F90000734F0143A7F120
:103AC000180718D0F8683C2590FBF5F105FB1100AC
:103AD00080B200227321FCF72AFEF868002290FBD6
:103AE000F5F090FBF5F105FB110080B25421FCF7D5
:103AF0001EFEF96817E038693C2590FBF5F105FBDF
:103B0000110080B200227321FCF711FE38690022F7
:103B100090FBF5F090FBF5F105FB110080B254210C
:103B2000FCF705FE39694FF4616091FBF0F080B25B
:103B300000227421FCF7FBFDB07D00287FF49DA9D5
:103B4000C5E50098514E801E814202D1AFF67863E0
:103B500000E04FA34EA24EA153A0FCF706FF97F939
:103B600001000023401C80B21A460121FCF7FAFC38
:103B700097F901000023801C80B21A460221FCF74D
:103B8000F1FC97F901004E4D00EB800005EB0010B1
:103B900001238069062280B21946FCF7E3FC97F9FD
:103BA0000100012300EB800005EB00100622806E6F
:103BB000022180B2FCF7D6FC97F90100012300EB4B
:103BC000800005EB00100B22006A194680B2FCF75A
:103BD000C9FC97F90100012300EB800005EB001000
:103BE0000B22006F022180B2FCF7BCFC97F90100A8
:103BF000002300EB800005EB00100F22406A01213A
:103C000080B2FCF7AFFC97F90100002300EB8000C5
:103C100005EB00100F22406F022180B2FCF7A2FCDE
:103C200097F90200132200EB800005EB0010012140
:103C300090F83E00FCF7E6FD97F90200132200EB36
:103C4000800005EB0010022190F88E00FCF7DAFDF1
:103C5000B6F9561097F90100891E88425DDAC01C3A
:103C6000002380B21A460321FCF77CFC97F901007F
:103C7000012300EB800005EB00100622D0F8B8000D
:103C8000032180B21EE00000040200106C0000104E
:103C900020202020202E202020202E202020202008
:103CA00020202020000000004E202020552CC22083
:103CB00020492C41202074B0432020200000000027
:103CC000D0E20720FCF74EFC97F90100012300EB3E
:103CD000800005EB00100B22D0F8C000032180B259
:103CE000FCF740FC97F90100002300EB800005EB96
:103CF00000100F22D0F8C400032180B2FCF732FC80
:103D000097F90200132200EB800005EB001003215D
:103D100090F8DE00FCF776FDE8E4CF48012180F85A
:103D20003C10E3E4CD4BCEA2D3A1D9A0FCF71DFEFD
:103D3000C94801210A4680F83C10BAF83E005B21D0
:103D4000554680B2FCF7F3FC01225D2102F0ACB8CD
:103D5000D5A00290DAA00390DF4804909B6854F845
:103D60002510DEA0D9F80420FCF7FFFD0120FCF7A8
:103D700098FD0AF15A054FF00002E8884FF0210142
:103D800000EB800080B2FCF7D2FC288800222321BF
:103D900080B2FCF7CCFC2888002200EB80002D309C
:103DA00080B2402102F0C0BEAB4EE03EBEF1000F3B
:103DB00001D0D0A000E0D5A00290DAA00390DFA04F
:103DC0000490E4A00590E9A00690EEA00790F3A06F
:103DD0000890F8A00990C0480A90022A01DD3B71C2
:103DE00002E0A94200DA397197F9040004EB80017E
:103DF000D1E9012354F82010F4A0FCF7B6FD01200E
:103E0000FCF74FFDB6F930003C2590FBF5F105FBC2
:103E1000110080B200225B21FCF789FCB6F930006A
:103E2000002290FBF5F090FBF5F105FB110080B24C
:103E30007D21FCF77CFCB6F930004FF4616790FB04
:103E4000F7F080B200227B21FCF771FCB6F932005A
:103E5000002290FBF5F105FB110080B25D21FCF71B
:103E600066FCB6F93200002290FBF5F090FBF5F10C
:103E700005FB110080B22921FCF759FCB6F932008C
:103E8000002290FBF7F080B22821FCF750FCB6F935
:103E90003400002290FBF5F105FB110080B23E21B9
:103EA000FCF745FCB6F93400002290FBF5F090FBDE
:103EB000F5F105FB110080B23C21FCF738FCF08ED7
:103EC0000122212180B2FCF732FC308F01224021F7
:103ED00080B2FCF72CFC708F0122232180B2FCF70A
:103EE00026FC0122B08F242180B25BE7BDA00290A6
:103EF000C2A00390C7A00490CCA00590D1A00690CA
:103F0000D6A00790DBA00890E0A00990E5A00A9059
:103F1000EAA00B90EFA00C90F4A00D90F9A00E90E9
:103F2000FE486D49B0F95E0004EB80004160AFF2DD
:103F30001C718160AFF2247109F10409C160B9E814
:103F40000E000298FCF711FD97F9010097F9041093
:103F5000421A022A01DD801E01E0884200DA38712F
:103F60000120FCF79EFCEE4D2878012868D06FF008
:103F700003022121EBA000BFFCF727FD6878012890
:103F80005FD06FF003024021E6A000BFFCF71DFDEB
:103F9000A878012856D06FF003022321E1A000BFCA
:103FA000FCF713FDE87801284DD06FF003022421BF
:103FB000DCA000BFFCF709FD2879012844D06FF090
:103FC00003022521D7A000BFFCF7FFFC6879012878
:103FD0003BD06FF003025E21D2A000BFFCF7F5FCDE
:103FE000A879012832D06FF003022621CDA000BFAE
:103FF000FCF7EBFCE879012829D06FF003022A21B5
:10400000C8A000BFFCF7E1FC287A012820D06FF09F
:1040100003022821C3A000BFFCF7D7FC687A01285F
:1040200017D06FF003022921BEA000BFFCF7CDFC22
:10403000A87A01280ED06FF003022B21B9A075E1F8
:1040400080E184E188E18CE190E194E198E19CE1F8
:10405000A0E1A4E1A8E100004C0200105D470100CE
:104060002049EDE0E3F0203D20202020205DC0200D
:1040700020202020000000002055EDE0E3F0203D4E
:1040800020202020205BC2202020202000000000D3
:10409000202020202020CDC0C3D0D3C7CAC02020DC
:1040A00020202020000000002046E2E5EDF22EF264
:1040B000E5EAF3F92E202020202021250000000031
:1040C0002046E2E5EDF22E6D61782E20282020407A
:1040D0002529202300000000D82C000020202020CB
:1040E00020C2C5CDD2C8CBDFD2CED0202020202008
:1040F0000000000020C2EAEBFEF7E5ED20202020C2
:1041000020202020202020200000000020C2FBEAE8
:10411000EBFEF7E5ED20202020202020202020208D
:10412000000000002054EFF0FFEC2E202020202083
:10413000307B3A307D3A305B0000000020D2EEE167
:10414000F02E20202020202030283A30293A305DDF
:104150000000000020D2EFE5F0E5EAEB2E20202061
:10416000202020303C3A303E000000002049F1F28F
:104170002EEFF02E2020202020202020202021C0E3
:10418000000000002049F1F22EEEE1F02E20202068
:1041900020202020202040C0000000002055F1F207
:1041A0002EEFF02E2020202020202020202023422F
:1041B000000000002055F1F22EEEE1F02E2020202C
:1041C0002020202020202442000000002020202049
:1041D00020C0C2D2CED0C5C2C5D0D1202020202040
:1041E000000000002020C0C2D2CECCC0D2DB20CD47
:1041F000C0C3D0D3C7CECA200000000020C0E2F266
:10420000EEECE0F220B931202020202020202120D7
:104210000000000020C0E2F2EEECE0F220B9322013
:1042200020202020202040200000000020C0E2F2BA
:10423000EEECE0F220B933202020202020202320A3
:104240000000000020C0E2F2EEECE0F220B93420E1
:1042500020202020202024200000000020C0E2F2A6
:10426000EEECE0F220B9352020202020202025206F
:104270000000000020C0E2F2EEECE0F220B93620AF
:104280002020202020205E200000000020C0E2F23C
:10429000EEECE0F220B9372020202020202026203C
:1042A0000000000020C0E2F2EEECE0F220B938207D
:1042B0002020202020202A200000000020C0E2F240
:1042C000EEECE0F220B93920202020202020282008
:1042D0000000000020C0E2F2EEECE0F220B9313044
:1042E00020202020202029200000000020C0E2F211
:1042F000EEECE0F220B931312020202020202B20CC
:104300000000000020C0E2F2EEECE0F220B9313211
:104310002020202020203D20000000006C00001004
:104320009EEB0720C2DBCACB2E000000FCF74DFB42
:10433000E87A01283DD06FF003023D21AFF21C0066
:1043400001F0CDBB6FF002022121CBA014E66FF08B
:1043500002024021C8A019E66FF002022321C6A084
:104360001EE66FF002022421C3A023E66FF00202D2
:104370002521C1A028E66FF002025E21BEA02DE635
:104380006FF002022621BCA032E66FF002022A2161
:10439000B9A037E66FF002022821B7A03CE66FF023
:1043A00002022921B4A041E66FF002022B21B2A043
:1043B00045E66FF002023D21AFA0C1E7B0A0029038
:1043C000B5A00390BAA00490BFA00590C4A0069029
:1043D000C9480790AFF6C4300890AFF6C83009F16D
:1043E00004090990B9E80E000298FCF7BEFA97F9A3
:1043F000010097F90410421A022A01DD801E01E033
:10440000884200DA38710120FCF74BFA0AF15805AE
:10441000002223212888FCF78AF9B84800222421A9
:104420004088FCF784F9B5480222AE382521C06FD8
:10443000FBF7F7FF00225E21E88855E590A0029087
:10444000AFA00390B4A00490B9A00590BEA00690C0
:10445000C3A00790C8A008909BA00990A0A00A90B4
:10446000A5480B90AFF654400C90AFF6584009F1B8
:1044700004090D90B9E80E000298FCF776FA97F956
:10448000010097F90410421A022A01DD801E01E0A2
:10449000884200DA38710120FCF703FA974D0022B8
:1044A000AD1D21212888FCF742F9688800224021AF
:1044B000FCF73DF9A88800222321FCF738F9AD1D4F
:1044C000002228882621FCF732F968880022292159
:1044D000FCF72DF9A88800222821FCF728F9A5F17E
:1044E000BA0003222521C06FFBF79BFF00225E214B
:1044F000BAF85E00F8E4A64810F80800552812D073
:10450000A4A00290A9A00390AEA00490B3A005902F
:10451000B8A00690BDA00790C2480890012A04DD0B
:1045200087F804C004E0C0A0EBE7A94200DA3971C3
:1045300097F9040004EB800154F820204B68C0A1D7
:10454000C5A0FCF712FA0220FCF7ABF997F90200BC
:104550000022401C80B25E21FCF7E9F8674997F918
:1045600002004E39002231F810002121FCF7DFF85B
:10457000624997F902004A39002231F91000A9492D
:10458000493901EB80004021FCF71FFA5B4997F99C
:1045900002004639002231F810002321FCF7C7F849
:1045A000564997F902004239002231F810002421BF
:1045B000FCF7BDF8514997F902003E39002231F865
:1045C0001000252191E4974BA9A0153B1A461146EE
:1045D000FCF7CBF9494D0023623D082295F9000014
:1045E000012180B2FBF7BEFF95F90100002380B2E4
:1045F00009220121FBF7B6FF95F90200002380B2E2
:104600000A220121FBF7AEFF96F9012005F1C40053
:10461000A421115402F08ABA9BA00290A0A003909A
:10462000A5A00490AAA00590AFA00690A8A007900E
:10463000B3A00890B8A00990BDA00A90C2A00B90AA
:10464000C7A00C90CCA00D90D0A00E90D4A00F903D
:10465000D9A01090DEA01190E3A01290E8A01390D2
:10466000EDA01490F2A01590F7A016902248179094
:10467000FBA0189000E20000C2CACB2E0000000090
:104680002020DDCBC5CAD2D0CED1CDC0C1C6C5CDCC
:10469000C8C520200000000020C2E2EEE420202057
:1046A0002020202023C220202020202000000000E5
:1046B00020CFDDD1202020202020202024C2202037
:1046C00020202020000000002050F1F3ECEC2E20F0
:1046D00020202020202025EAC2F22AF70000000036
:1046E0002050F2E5EAF3F92E2020202020205EC29F
:1046F000F220202000000000D82C00001A02001038
:1047000020C2E2EEE420F42E412020202021C2200D
:10471000202020200000000020C2E2EEE420F42E41
:10472000422020202040C220202020200000000025
:1047300020C2E2EEE420F42E432020202023C220D9
:10474000202020200000000020CFDDD12020F42EEA
:10475000412020202026C220202020200000000010
:1047600020CFDDD12020F42E422020202029C2207D
:10477000202020200000000020CFDDD12020F42EBA
:10478000432020202028C2202020202000000000DC
:10479000CC00001020C2FBE2E5E4E5EDE020302192
:1047A0002F4020202F3023200000000020CDEEECF1
:1047B000E8ED2EE5ECEA2E202020202024412AF7E7
:1047C0000000000020CDE0F0E0E1EEF2EAE0202081
:1047D0002020202025F72E200000000020CAEEED2A
:1047E000F2F0EEEBFC20E5ECEAEEF1F2E82020201E
:1047F0000000000020C2FBF0E0E2EDE8E2E0FEF99C
:10480000E8E920E7E0F0FFE40000000020D0E0E766
:10481000F0FFE4FB2020202020202020202020204A
:10482000000000005D47010020C2E2E5E4E5EDE0A4
:10483000202030212F4020202F3023200000000096
:104840002020202020C1C0D2C0D0C5DF204E5E2055
:10485000202020200000000020C1C0D2C0D0C5C947
:10486000CDDBC920C6D3D0CDC0CB202000000000B6
:104870002020C2E2E5E4E8F2E52020EFE0F0EEEBF4
:10488000FC2020200000000020C8F1F2EEF7EDE847
:10489000EAEEE2202020202020202021000000003D
:1048A00020CCE0EAF1E8ECE0EBFCEDE0FF20E4EB0B
:1048B000E8F22D200000000020F1F2FC20EFF0EEE5
:1048C000F6E5F1F1E02020305B3A305D00000000B9
:1048D00020CEF2EEE1F0E0E6E5EDE8E520E2F0E5FD
:1048E000ECE5EDE80000000020EFF0EEF6E5F1F178
:1048F000E020202020202020202020400000000058
:1049000020EDE020EFF3EBFCF2E52020202020203A
:10491000202020230000000020C8E7ECE5F0E5EDB2
:10492000E8E520F2EEEAE020202020200000000050
:1049300020EDE0E3F0F3E7EAE8202020202020202B
:10494000202020240000000020D0E5E6E8EC20E351
:10495000EBE0E2EDEEE3EE20ECE5EDFE0000000022
:104960002020202020202020202020202020202047
:10497000202020250000000020D4E8EAF1E8F0EE35
:10498000E2E0EDEDFBE5202020202000202020208B
:10499000202020202020EDE0F1F2F0EEE9EAE8000E
:1049A00020D0E5EBE520E8EDE4E8EAE0F6E8E820F1
:1049B000202020200000000020F2EEEAEEEEE3F0DE
:1049C000E0EDE8F7E5EDE8FF202020200000000002
:1049D00020D0E5F1F2E0F0F220202020202020205D
:1049E0002020205E000000002045746865726E651E
:1049F00074202020202020202020202000000000E3
:104A0000204D4F444255532041445245535320209A
:104A10002020203C00000000204D4F4442555320F0
:104A200042415544524154452020202000000000BE
:104A30002020202020202020202020202020202076
:104A400020203E300000000020C0E2F2EEF0E5E25F
:104A5000E5F0F12020202020202020200000000070
:104A600020CAE0EBE8E1F0EEE2EAE020202020209E
:104A70002020202000000000DEA01990E3481A90BA
:104A80001B90022A01DD337102E0A94200DA317184
:104A900097F9040004EB8001D1E9012354F82010B8
:104AA000DBA0FBF762FF0120FBF7FBFEDE4D0022DF
:104AB0002121B5F8560080B2FBF739FE05F5C07626
:104AC0003C20B16891FBF0F191FBF0F200FB121079
:104AD00080B200225D21FBF72AFEB1684FF46160CD
:104AE00091FBF0F080B200225B21FBF720FE803EBC
:104AF0006FF00607B08818B1BA1C4021CBA002E0C5
:104B00003A464021CBA0FBF760FFF0886FF003022C
:104B10004FF0230108B1CAA000E0CBA0FBF755FF7E
:104B2000B08920B16FF002022421C9A002E03A4608
:104B30002421C9A0FBF749FF95F82C0010B30128E8
:104B400025D06FF0100202284FF0250124D0C5A017
:104B5000FBF73BFF95F82D0001281FD06FF00302F3
:104B60005E21AFF6400000BFFBF72FFFBAF83A0016
:104B700000223C21554680B2FBF7D9FD00223E21A0
:104B8000A88F5AE46FF00B022521BBA0E0E76FF07D
:104B900011022521BCA0DBE7C0A0D9E76FF002021B
:104BA0005E21AFF22C50DFE79F4D687A401CC0B207
:104BB00068720F2807D30020761CF1B26872A976BC
:104BC000032900D3A876BA48CDE9020EA87E20B109
:104BD000012804D0022818D003E0B6A000E0BBA052
:104BE00004907246BFA0049B0299FBF7BEFE97F9A2
:104BF000010060B101280FD0022812D0032815D07F
:104C0000042818D005281BD01EE0BCA0E8E7C14945
:104C10005E2081F82A0017E0BE495E2081F82D0051
:104C200012E0BC485E2180F830100DE0B9495E20EA
:104C300081F8330008E0B7495E2081F8360003E0D0
:104C4000B4495E2081F83A00B34E30784FF000024C
:104C50004FF02601FBF76BFD307900225E21FBF758
:104C600066FD307A00222521FBF761FD307B0022B2
:104C70003C21FBF75CFD307E8D4900225E3901EB63
:104C800080003E21FBF7A1FEB08B00227B21FBF7C9
:104C90004EFDA87D002801F049873A20FBF739FB3B
:104CA0009C4D20262E543A20FBF733FB2E54B1E4C2
:104CB0007F485D4D5E3840F61807D0E91D12C06F81
:104CC0002A91CDE92B2095A002909AA003909FA055
:104CD0000490A4A00590A9A00690AEA00790B3A050
:104CE0000890B8A00990BDA00A90C2A00B90C7A0E0
:104CF0000C90CCA00D90D1A00E90D6A00F90DBA070
:104D00001090E0A01190E5A01290EAA01390EFA0FF
:104D10001490F4A01590F9A01690FE481790B5F8DD
:104D2000720018B1384608F091FD20B1F94803909F
:104D3000364804900590774E483E96F9010096F962
:104D40000410884201DA307104E0411A022901DDC1
:104D5000801EF8E796F9040004EB8001D1E90123F5
:104D600054F82010ECA0FBF700FE0120FBF799FDA2
:104D7000B5F8720050B1384608F068FD012805D03A
:104D80006FF002022121AFF2107004E06FF0030215
:104D90002121AFF67020FBF718FEB5F8740028B19A
:104DA0006FF002024021AFF2307004E06FF00302B6
:104DB0004021AFF69020FBF708FE717823200229EE
:104DC00015D00021CDE90001B5F97C30B5F97A2084
:104DD000B5F97810B5F97600FBF708FC7178242056
:104DE000042905D05FF00001CDE90001A0E1D0E188
:104DF000D3E1000020D2E5F1F220D8C8CC20202059
:104E00002020202020202020000000001438000056
:104E10002020202020D3D1D2C0CDCEC2CAC820208D
:104E200020202020000000006C000010EFF0FFECBC
:104E3000EEE50000EEE1F0E0F2EDEEE5000000004E
:104E4000F7F73AECEC000000ECEC3AF1F10000006E
:104E5000F8F3EDF200000000F1F3ECEC49E1EFF1C2
:104E600000000000E8F1F22EEDE0EFF02E2DE8F169
:104E7000F22EF2EEEAE00000E8F1F2EEF7EDE8EAF9
:104E800020F2EEEAE0000000E8F1F2EEF7EDE8EAE9
:104E900020EDE0EFF0FFE6E5EDE8FF00E8F1F22EAF
:104EA000F2EEEAE02DE8F1F22EEDE0EFF02E000058
:104EB0007247010020202020203C3E202D20E2FBD4
:104EC000E1EEF02020202020000000002020205EC5
:104ED00076202D20F3F1F2E0EDEEE2EAE020202052
:104EE0000000000020D3D1D2C0CDCEC2CAC0202045
:104EF000C2D0C5CCC5CDC820000000002020202095
:104F000020A420202D20E2FBF5EEE420202020200C
:104F1000000000004C020010204002402045746850
:104F200065726E6574202020202020202020212002
:104F3000000000002044484350EAEBE8E5EDF22091
:104F4000202020202020402000000000204950E0A8
:104F5000E4F0E5F120202020202020202020202027
:104F60000000000020203030302E3030302E303025
:104F7000302E3030232020200000000020CCE0F133
:104F8000EAE020EFEEE4F1E5F2E820202020202006
:104F90000000000020203030302E3030302E3030F5
:104FA000302E3030242020200000000020D8EBFEDE
:104FB000E72020202020202020202020202020202A
:104FC0000000000020203030302E3030302E3030C5
:104FD000302E3030292020200000000020CFEEF0BD
:104FE000F22EF7F2E5EDE8FF202020202020205BC4
:104FF0000000000020CFEEF0F22EE7E0EFE8F1E84D
:10500000202020202020205D0000000020436F6D24
:105010006D756E697479203C20202020202020208E
:105020000000000020C0E4F0E5F1E0F220E4EBFF36
:105030002054524150204E310000000020203030DA
:10504000302E3030302E3030302E303025202020A1
:105050000000000020C0E4F0E5F1E0F220E4EBFF06
:105060002054524150204E320000000020203030A9
:10507000302E3030302E3030302E30305E20202038
:105080000000000020C0E4F0E5F1E0F220E4EBFFD6
:105090002054524150204E33000000002020303078
:1050A000302E3030302E3030302E30302620202040
:1050B0000000000020C0E4F0E5F1E0F220E4EBFFA6
:1050C0002054524150204E34000000002020303047
:1050D000302E3030302E3030302E30302A2020200C
:1050E0000000000020C0E4F0E5F1E0F220E4EBFF76
:1050F0002054524150204E35000000002020303016
:10510000302E3030302E3030302E303028202020DD
:1051100000000000D82C000020D3D1D2C0CDCEC2D8
:10512000CAC82045746865726E657420000000006E
:10513000BAF90430BAF90220BAF90010B5F97E00C4
:10514000FBF754FA7178292006292AD05FF0000174
:10515000CDE90001BAF93830BAF93620BAF934107D
:10516000BAF93200FBF742FABAF82E0000225B21AE
:10517000554680B2FBF7DBFA288E00225D2180B213
:10518000FBF7D5FAB5F906006FF00D07FF280CD034
:1051900014E0B178491CC9B214E6B178491CC9B20F
:1051A00022E6B178491CC9B2D2E72989FF2905D185
:1051B0006989FF2902D1A989FF2914D07278252194
:1051C0000B2A16D05FF00002CDE90012B5F90C30C1
:1051D000B5F90A20B5F90810FBF708FAB5F90E0081
:1051E000FF280AD012E03A462521FCA0FBF7EDFB90
:1051F000F4E7B278521CD2B2E6E7298AFF2905D13A
:10520000698AFF2902D1A98AFF2914D071780D2952
:1052100017D000225E21CDE9001200BFB5F914308D
:10522000B5F91220B5F91010FBF7E0F9B5F9160041
:10523000FF280DD015E03A465E21E8A0FBF7C5FB3C
:10524000F4E7B178491CC9B25E22CDE90021E5E757
:10525000298BFF2905D1698BFF2902D1A98BFF2951
:1052600013D0727826210F2A15D00022CDE9001222
:10527000B5F91C30B5F91A20B5F91810FBF7B6F9D5
:10528000B5F91E00FF280AD012E03A462621D3A025
:10529000FBF79BFBF4E7B278521CD2B2E6E7298C0D
:1052A000FF2905D1698CFF2902D1A98CFF2914D0CF
:1052B00072782A21112A16D05FF00002CDE900127F
:1052C000B5F92430B5F92220B5F92010FBF78EF995
:1052D000B5F92600FF280AD012E03A462A21BFA0DD
:1052E000FBF773FBF4E7B278521CD2B2E6E7298DE4
:1052F000FF2905D1698DFF2902D1A98DFF2925D06C
:1053000072782821132A27D05FF00002CDE900121D
:10531000B5F92C30B5F92A20B5F92810FBF766F954
:10532000B34A00202AA9135C0B54401CC0B20928C0
:10533000F9D300208DF8B1007078B2780A280FD028
:1053400000233C212AA8FBF734F9B0E43A4628218F
:10535000A2A0FBF73AFBE3E7B278521CD2B2D5E742
:105360000123EEE7A3A00290A8A00390ADA00490B3
:10537000B248059000F63C3006900790A94201DA49
:10538000397102E0022A00DD3B7197F9041004EB49
:105390008100D0E9012354F82110A9A0FBF7E5FA18
:1053A0000120FBF77EFABAF83E0001225B210AF1E8
:1053B0003E0580B2FBF7BBF9688801225D2180B20F
:1053C000FBF7B5F9E88A0022282180B2FBF7AFF994
:1053D00000222921288BFEF787BD9FA00290A4A060
:1053E0000390A9A00490AEA00590B3A006909348A6
:1053F000079000F63C3008900990A94201DA397113
:1054000003E0012A01DD87F804C097F9040004EBEA
:10541000800154F820204B68ADA1AFF20C60FBF77F
:10542000A4FA0220FBF73DFAAF4890F82E0030B105
:105430006FF00502012807D0022808D00BE06FF0BA
:1054400002022121A94804E02121A9A001E0212193
:10545000AAA0FBF7BAFAAC4D00224021E88980B23D
:10546000FBF765F9288A0022232180B2FBF75FF958
:10547000688A00223C2180B2FBF759F900223E21C4
:10548000A88AA8E7A1A00290A6A00390ABA00490D0
:10549000B0A005906948069000F63C30089009904D
:1054A000A94201DA397103E0012A01DD87F804C05D
:1054B00097F9040004EB800154F820204B68ABA15D
:1054C000B0A0FBF752FA0220FBF7EBF90AF17205E4
:1054D0000122E888212180B2FBF729F928890122DD
:1054E000402180B2FBF723F928880122232180B2D2
:1054F000FBF71DF90122242168886CE7A7A0029020
:10550000ACA00390B1A00490B6A0059076484B4E95
:10551000A942B0F95C0044F8206004EB800006F674
:105520003C3646608660C66001DA397102E0022AC4
:1055300000DD3B7197F9041004EB8100D0E90123F1
:1055400054F82110AFF23870E5E2397102E0022A16
:1055500000DD3B7197F9040004EB8001D1E90123E0
:1055600054F82010A5A0FBF700FA0120FBF799F9E9
:1055700097F902000022401C80B22121FBF7D7F8E6
:10558000614897F9021054304FF00002405C4FF030
:105590004001012801D09FA000E0A0A0FBF715FA70
:1055A000594897F90210C0304FF0000230F811004E
:1055B0004FF0230178B19BA0FBF707FA524897F907
:1055C0000210D0306FF0010230F811004FF05D0191
:1055D00010B196A02FE153E12CE100002020202003
:1055E000EDE5E0EAF2E8E2E5ED2020202000000011
:1055F0000200001020553D202020205BC2202049C1
:105600003D202020205DC0200000000020D8C8CC14
:1056100020EDE0EFF0FFE62E3D2020202020282086
:105620000000000020D8C8CC20F2EEEAE03D2020A7
:10563000202020202020292000000000D82C00005D
:10564000202020202020D2C5D1D220D8C8CC202094
:10565000202020200000000020D1E8E3EDE0EB2036
:1056600020202020202020202020212000000000B9
:105670002054E7E0E42EE2EAEB2E20202020202038
:1056800040F1E5EA000000002054E7E0E42EF1F0EC
:10569000E0E12E202020202023F1E5EA0000000098
:1056A0002064552020202020202020202020202081
:1056B0003C252020000000002064492020202020DC
:1056C00020202020202020203E2520200000000037
:1056D000D0C5CBC520D2CECACECEC3D0C0CDC8D7C0
:1056E000C5CDC8DF000000006C000010244300009E
:1056F000C2CACB2E28CDC72900000000C2CACB2EBB
:1057000028CDD029000000006C0100102055322067
:1057100020202020202020202021C22020202020E6
:1057200000000000205533202020202020202020B1
:105730002040C22020202020000000002049320903
:105740002020202020202020202341202020202035
:1057500000000000204933092020202020202020A4
:105760002024412020202020000000002020202094
:1057700020CDC0D1D2D0CEC9CAC820202020202020
:1057800000000000202020D4C8CAD1C8D0CEC2C09A
:10579000CDCDDBC5202020200000000020D1F3F576
:1057A000EEE920EAEEEDF2E0EAF220B93120202025
:1057B0000000000020D1F3F5EEE920EAEEEDF2E082
:1057C000EAF220B9322020200000000020D1F3F5B9
:1057D000EEE920EAEEEDF2E0EAF220B933202020F3
:1057E0000000000020D1F3F5EEE920EAEEEDF2E052
:1057F000EAF220B934202020000000002020D1D37C
:10580000D5CEC920CACECDD2C0CAD2204E212020AA
:1058100000000000F0E0E7EEECEA2E00E7E0ECEA42
:10582000EDF3F200EDE5E7E0ECEA2E00E2FBEAEB57
:105830002E000000EDA0FBF7C8F897F90210ED4824
:1058400030F811000EE100BF6FF001022821E7A03F
:1058500045E100BF6FF001022821AFF230003EE1C8
:10586000E5A00290EAA00390EFA00490F4A00590B8
:10587000F9A00690FE480790A942BFF668AE64E61C
:10588000AFF2680098E6DCA00290E1A00390E6A0E9
:105890000490F8A00590F0A00690F5480790A94262
:1058A00001DA397102E0022A00DD3B7197F9040048
:1058B00004EB8001D1E9012354F82010F3A0FBF799
:1058C00054F80120FAF7EDFFCA484FF0000284387F
:1058D0004FF04001407801281AD0AFF2C80000BF55
:1058E000FBF773F8C3484FF0000218384FF023015C
:1058F000408880B1AFF2D400FBF767F8BD486FF085
:10590000010210384FF05B01408838B1B7A007E0C2
:10591000AFF2F800E4E7AFF2FC00EDE7AFF2F4001D
:10592000FBF753F8B348408850E0B3A00290B8A00A
:105930000390BDA00490CFA00590C7A00690CC48CE
:105940000790A94201DA397102E0022A00DD3B71B9
:1059500097F9041004EB8100D0E9012354F82110D9
:10596000D0A0FBF702F80120FAF79BFFA1484FF007
:10597000000284384FF04001807801281AD0AFF23D
:105980006C1000BFFBF721F89A484FF0000218385E
:105990004FF02301808880B1AFF27810FBF715F843
:1059A00094486FF0010210384FF05B01808838B1E5
:1059B0008EA007E0AFF29C10E4E7AFF2A010EDE795
:1059C000AFF29810FBF701F88A48808800283FF46E
:1059D00041AF39E788A002908DA0039092A0049077
:1059E000A4A005909CA00690A1480790A94201DAC6
:1059F000397102E0022A00DD3B7197F9040004EBE3
:105A00008001D1E9012354F82010ACA0FAF7ADFFD2
:105A10000120FAF746FF77484FF0000284384FF034
:105A20004001C078012821D0AFF21820FAF7CDFF4D
:105A300070484FF0000218384FF02301C088C0B101
:105A4000AFF22020FAF7C1FF6A486FF00102103868
:105A50004FF05B01C08878B1AFF23020FAF7B5FFA4
:105A60006448C08800287FF4F5AEEDE6AFF254201C
:105A7000DCE7AFF25820E5E75CA0EFE795A00290E5
:105A80009AA003909FA00490A4A00590A9A00690BE
:105A9000AE48079000F63C300890022A01DD3B71C9
:105AA00002E0A94200DA397197F9040004EB8001A1
:105AB000D1E9012354F82010A5A0FAF756FF0120E0
:105AC000FAF7EFFE4B48D838808D20B16FF0020214
:105AD0002121A5A003E06FF001022121A4A0FAF783
