:020000040000FA
:10000000306C0010E1000000E5000000E700000097
:10001000E9000000EB000000ED000000000000001F
:10002000000000000000000000000000EF000000E1
:10003000F100000000000000F30000007DC6000099
:10004000F7000000BDE20000E9E20000F700000058
:10005000F700000047000100F7000000F700000073
:10006000F7000000F7000000F7000000F7000000B4
:10007000F7000000F7000000F7000000F7000000A4
:10008000F7000000F7000000F7000000F700000094
:10009000F7000000F7000000A1280000F7000000B2
:1000A000F70000001BFE0000F7000000F700000052
:1000B00031270100F7000000F7000000F700000002
:1000C000F7000000F7000000F7000000DFF80CD098
:1000D00012F016FC00480047F7C70000306C001013
:1000E00005480047FEE7FEE7FEE7FEE7FEE7FEE71E
:1000F000FEE7FEE7FEE7FEE7CD000000FEE710B5F5
:1001000014F0B2FA14F03EFB14F030FB14F0BEFA17
:10011000AFF30080BDE8104014F0FABA10B515F046
:100120000BF915F04DFE15F05FF9BDE8104015F024
:10013000D7BA15F01FB814F0E7BD09B10020704719
:1001400013F03CBB0020704770B5374A0020A2F185
:100150001401064601F10A030C5C54B11D5CAC426B
:1001600007D1145C2CB1641E14F0FF04145400D1A8
:100170000E540C5C1C54401CC0B20A28ECD370BD59
:1001800070B5294D0024143D641CE4B22E5D1EB1EF
:10019000864201D00A2CF7D3285523480C3040F86A
:1001A0002410283040F824203438035570BD1E4AEE
:1001B0000021143A491CC9B2535C834201D00A2978
:1001C000F8D3DBB2834210D117480C3050F82130FD
:1001D00016480360144B343353F821304360002039
:1001E0005054114A505401207047002070470E4A65
:1001F0000021143A491CC9B2535C834201D00A2938
:10020000F8D3DAB282420CD107480C3050F82120E2
:1002100006480260044A343252F82110416001203D
:10022000704700207047000080F0072048C007207A
:100230000A4BDA6018705970704708490881704796
:100240000648B0F90810002907D0491E09B20181FB
:10025000002902D1084600F01BBB704750C00720A0
:1002600090F900308B4200DA027090F9003093422E
:1002700000DD0170704790F900308B4200DA0170A8
:1002800090F90010914200DD02707047B0F9003023
:100290008B4200DA0180B0F90010914200DD02804B
:1002A0007047B0F900308B4200DA0280B0F90030BC
:1002B000934200DD0180704703688B4201DB1946E1
:1002C00000E00160914200DD02607047064A054B84
:1002D00091785854491CC8B29070202801D1002050
:1002E000907070471A0108209AE407200146002008
:1002F00000E0401C0A5C002AFBD17047FFFFFFFFB3
:10030000002801DA404200B270470020FF4A202155
:100310001154401CC0B2C828FAD370470146FB4AAA
:100320000020401CC0B2135C8B4201D0C828F8D317
:10033000704710B50021F64C0A2200BFB0FBF2F363
:1003400002FB13006054491CC9B218460529F5D3B5
:1003500010BDF0B5EF4B0121202719700521EC4AA3
:10036000002601E01C7844B1541814F8015C25B94A
:10037000814202D904F8017C05E0541814F8015DAB
:10038000303525701E70491E11F0FF01EAD1F0BD15
:10039000FEB52B23002801DA40422D2300250A2632
:1003A0006C46074690FBF6F006FB107767556D1C10
:1003B0006DB20A2DF5DB012600250920202700E07B
:1003C00046B114F800C0BCF1000F03D1904201DD2A
:1003D000275405E0265C3036265400266D1CEDB20D
:1003E000401E40B20028EBDA2D2B02D163556D1C64
:1003F000EDB26AB168B205E0231813F8013C23544A
:10040000401E40B29042F7DC2E206D1CA054EDB28D
:100410000846FFF783FF0021BC4A04E0635C461AEC
:10042000491C935549B2A942F8DBFEBDFEB52B2607
:10043000002801DA40422D2600240A276D46844612
:1004400090FBF7F007FB10CC05F804C0641C64B205
:100450000A2CF4DB0127002009244FF0200C00E0D7
:100460004FB115F804E0BEF1000F04D19C4202DD4B
:1004700005F804C005E02F5D30372F550027401CDC
:10048000C0B2641E64B2002CEADA2D2E02D12E54C2
:10049000401CC0B26BB144B205E02E1916F8016CD5
:1004A0002E55641E64B29C42F7DC2E24401CEC5492
:1004B000C0B201EB810102EB8101CAB20021934B72
:1004C00004E06C5C561A491C9C5549B28142F8DB29
:1004D000FEBD70B50D4616461C46FFF72AFF601C90
:1004E000C0B2FFF736FF05EB850006EB8000C1B216
:1004F000874A864B0020A04201D2155C5D5406D38A
:10050000155C202D03D04CB15E1806F8015C491E25
:10051000401CC0B2C9B20528EDD370BD5D54F6E7EA
:1005200070B50446084615461E46FFF7F7FE774BA2
:100530000146FF2804D106E01A54641C401CC0B2D6
:100540002278002AF8D174480078002804D0002EC0
:1005500002D029445F20585470BD2DE9FF4F8146D9
:10056000DDE90D048A469346FFF7D8FE2022DFF826
:10057000A88166490A234FF0640C012C09D198F830
:10058000005035B10D18A5F10E05AA706A702A70D9
:1005900020E099FBF3F603FB16970D183037A5F111
:1005A0000E05022CAF7096FBF3F703FB176606F1FE
:1005B00030066E7099FBFCF606F1300605F80E6BFE
:1005C00008D198F800602EB1A5F10A05AA706A70EA
:1005D0002A7021E09AFBF3F603FB16A70D183037BB
:1005E000A5F10A05032CAF7096FBF3F703FB176622
:1005F00006F130066E709AFBFCF606F1300667468F
:1006000005F80A6B08D198F800602EB1A5F106052F
:10061000AA706A702A7022E09BFBF3F603FB16B700
:100620000D183037A5F10605042CAF7096FBF3F7D3
:1006300003FB176606F130066E709BFBFCF606F1B5
:100640003006674605F8066B09D198F8004034B1CA
:10065000A5F102050A546A702A70BDE8FF8F039C59
:1006600094FBF3F203FB124430340C5492FBF3F48A
:1006700003FB14220844A0F10200303242700399B7
:1006800091FBF7F101F130010170E6E770B50D461D
:100690001446FFF74EFE601CC0B2FFF75AFE284614
:1006A000FFF73CFE1A4B194A002124B95D5C202D4E
:1006B00001D015540FE0A14201D25D5CF9E704D1ED
:1006C0004FF02E0515545D5C02E05D5C202D02D0DC
:1006D000161806F8015C401E491CC9B2C0B20529B3
:1006E000E3D370BD17B501EB810002EB8000C2B20D
:1006F0009DF80030094803F00F0100EB1313445C30
:1007000002498C54521ED2B21B7809E092C20720D3
:100710000AC407206600001096C00720226D010061
:100720008B549DF80130521E03F00F04D2B2045DC9
:100730008C54521E00EB1313D2B21B788B549DF8CD
:100740000230521E03F00F04D2B2045D8C54521ECC
:1007500000EB1313D2B21B788B549DF80330521E5A
:1007600003F00F04D2B2045D8C54521E00EB131040
:10077000D2B2007888541EBD01EB810102EB8101E9
:10078000824A10B500F00F03C9B2D45C804B02EB73
:1007900010105C54491EC9B20078585410BD01EBCA
:1007A000810102EB8101CBB2784910B500F0010262
:1007B0008C5C774AD45444085B1E04F00100DBB221
:1007C000085CD0545B1ED8B2630803F001045B08D8
:1007D0000C5D1454401E03F00104C0B20C5D1454AF
:1007E0005B08401E03F00104C0B20C5D14545B08AA
:1007F000401E03F00104C0B20C5D14545B08401E9F
:1008000003F00104C0B20C5D1454401EC4B2580879
:10081000085C105510BD30B55E4901235C4D91F95F
:10082000012091F9041000EB80048A4202D105F8FE
:10083000243030BD564D4C1C00EB800005EB800091
:10084000A24201D1037530BD8C1CA24202D180F8B6
:10085000283030BDCC1CA24202D180F83C3030BDE3
:100860000C1DA24202D180F8503030BD4C1DA24276
:1008700002D180F8643030BD8C1DA24202D180F8D4
:10088000783030BDC91D8A42FBD180F88C3030BD34
:10089000414B1A88521E104400B218803F4A00EBA8
:1008A000800002443B481368036012790271427869
:1008B000114441707047F0B5374D384FB5F90040DD
:1008C00004EB8406641C2C80324C3E442568356061
:1008D00025793571207061702271A370F0BDF0B57B
:1008E00005460E461746FFF710FD294C5FF0000045
:1008F000401C15F8011BC0B204F8011B1428F7D3E3
:100900005FF00000401C16F8011BC0B204F8011B88
:100910001428F7D35FF00000401C17F8011BC0B289
:1009200004F8011B1428F7D35FF00000401C13F8F3
:10093000011BC0B204F8011B1428F7D3F0BD30B579
:10094000044608461546FFF7E9FCFF2809D0104A7F
:100950002178002905D04319641C401CD154C0B231
:10096000F6E730BD10B5029CFFF7B9FF0948C37820
:10097000827841786420FFF79EFF642094FBF0F0BA
:10098000BDE81040C0B2FFF758BC0000226D010066
:1009900092C2072050C20720B8C00720705800102C
:1009A000FF4A30B4FF49B2F90A4040F6AC53B1F9FE
:1009B00000009C4203DCB2F914209A4203DD1428A3
:1009C00004DA401C01E008B1401E0880142230BC4B
:1009D0000021F448FFF75ABCF0B5F148F2494FF452
:1009E000FA72B0F90000B1F90010F04B484390FBE7
:1009F000F2F01880EA4841F288332030B0F9000064
:100A0000484390FBF2F0EA49ED4A0880EA49E94898
:100A1000B1F90040E9490088B1F90010001B4843D2
:100A200090FBF3F01080001B484390FBF3F0E54986
:100A3000E74B0880E4480188E448B0F9004081B9F8
:100A4000002108460AE000BFC0EBC00505EB4505E4
:100A500003EB8505401C2D6AC0B22944A042F3DB9C
:100A60001180B2F900000021002800DA1180002274
:100A7000C2EBC20000EB400003EB8000C578192DEB
:100A80001BD28579C67905EB06260662067A477A77
:100A900006EB0726C661867AC77A06EB07268661CB
:100AA000067B466280F84E50857B80F83E50057C80
:100AB000467C05EB0625856406E081610162C16123
:100AC000416280F83E108164521CD2B2202ACFD3FA
:100AD000C048C149008860430880C048C0490088B8
:100AE00060430880F0BDBF48416821F4402141F4D3
:100AF00080214160416821F4403141F480314160FE
:100B0000416821F4404141F480414160416C21F44D
:100B1000402141F400214164416C21F4403141F411
:100B200000314164416C21F4404141F40041416491
:100B3000AD48016821F0E0610160016841F40011F5
:100B40000160016821F480310160016821F47F4176
:100B500041F4807101608115C160A448890301607E
:100B600070472DE9F041A24C60882188401A00B2FC
:100B700001F052FEA51D2880A0886188401A00B2AD
:100B800001F04AFE6880A0882188401A00B201F076
:100B900043FE4FF49672A880A4F12C01904201DA32
:100BA000A0880AE0B5F90200904201DA608804E00A
:100BB000B5F90000904201DA2088C8824C78002301
:100BC0001CB37748B1F9162040300568154405601C
:100BD000456815444560856815448560C5682A44A4
:100BE000C260CA8B521C12B2CA83B2F5805F00DBAE
:100BF000CB83B1F91E20950535D1921250F82250C1
:100C00002D128D8240F822302DE07A4F887891F8AD
:100C100003C007EBC012B1F916E042F82CE05FEA1E
:100C20008C7212D100252A4607EBC01656F82270A6
:100C3000521CD2B23D44202AF8D36A11584D25F8EF
:100C4000102005F1200222F810E0401CC0B288708C
:100C5000102808D30CF1010C0CF0FF008B70C87049
:100C6000202800D3CB70641C0B7014F001005E4A86
:100C7000487005D0106820F0FF00001D106034E0BF
:100C8000897808070028106820F0FF0002DB00F1D7
:100C9000010001E000F1020010605748036843F0D2
:100CA00080530360036A43F080430362036E43F0A2
:100CB00080630366CB07436908D043F080534361E8
:100CC0008B07436B05D423F0804304E023F080536B
:100CD000F5E743F0804343634907416F02D421F0B5
:100CE000806101E041F080614167106840F08070F0
:100CF0001060BDE8F0812DE9F04F4049B1F90000E6
:100D000018B1A0F101000880F0E00A2008803C49F9
:100D10000023DFF8F0B0DFF8F0800B7064208BF870
:100D2000000088F8000029481A46B0F90040284819
:100D30000EE000BFC2EBC20505EB450500EB8505E3
:100D4000ED78142D02D20D786D1C0D70521CD2B2AC
:100D5000A242EFDB09788A4602297ED324492C3946
:100D6000897A002979D0294A41F28831DFF8A0C078
:100D70001160284DCCF8003000212B605DE000BFF1
:100D8000C1EBC10606EB460600EB8606B778012FDD
:100D900051D1366ADCF80070B146BE4240DD3BE01E
:100DA0000CF007207AC10720C0C3072052C10720DA
:100DB000640000102A1800106C00001018C40720EE
:100DC00054C1072008C40720A4C10720D8C00720A9
:100DD000DCF0072080C10720A0C1072082C10720C6
:100DE000A2C1072000C002400040034000E100E033
:100DF00036C007200CE8072000C0092010000010B2
:100E00003CC40720B2C00720B3C0072048C2072057
:100E100044C2072038C40720CCF8009088F800109E
:100E20001768B94503DAC2F800908BF800102F68F4
:100E300009EB07062E60491CC9B2A142A0DB2E684F
:100E400096FBFAF5F84E35601668012506B915606F
:100E5000DCF80060DFF8D4C300E031E064271268FA
:100E60007E4396FBF2F2F24ECCF80020A02A00DD81
:100E70003570782A01DA337038E03278012A35D1BA
:100E8000EC4A1678EEB1137098F80020A24209DA05
:100E9000C2EBC20202EB420200EB820232F8503F88
:100EA0005B1E1380C1EBC10101EB410100EB81002E
:100EB0006FF03102B0F95010914211DAA0F85020D1
:100EC00014E015709BF80020A242EBDAC2EBC202DC
:100ED00002EB420200EB820232F8503F5B1CE0E77B
:100EE000322903DD4FF03201A0F8501000BFBDE8F9
:100EF000F08F10B50021D0200DF05DFF0021BDE87E
:100F00001040D4200DF057BF70B5CB4CCB48002516
:100F1000217851B3CA49098839B3CA4A0168B2F97C
:100F2000002011440160B1F5616F1FDBC64EA1F5D1
:100F30006161016031684FF49E70491C31600DF0B1
:100F40003AFFC2493068B1F9001088420EDB2570C3
:100F5000FFF7CFFF00231A4601217820FFF7ABFCF3
:100F6000BDE870400020FFF768B9056070BD70B53E
:100F7000B14CB74AB74825780021F5B3B64B1B886A
:100F8000DBB3B64EB0F90030B6F90060B34202DA16
:100F90005B1C038070BD0020012D02D0022D02D009
:100FA00004E0AF4800E0AF48B0F90000AE4BB3F941
:100FB00000305843642390FBF3F0AC4B00B2188030
:100FC000A04BB3F90030834216DA1088401C00B2FF
:100FD0001080A74AB2F900209042DBDB2170FFF7B6
:100FE00088FF00231A4602217820FFF764FCBDE841
:100FF00070400020FFF721B900E001E0118070BDD2
:101000000180F9E72DE9F05FDFF82C82DFF864B2A8
:10101000994D98F80000994FDFF86492012600245A
:101020004FF4167A012861D196480168491C91FB5A
:10103000FAF201600AFB121030B9934800780128D7
:1010400002D1D0200DF0B7FED9F80010484609B102
:10105000491E016008468D49B1F9001008430CD1C2
:1010600088F80040FFF745FF00231A46194678200C
:10107000FFF721FC0020FFF7E0F885480088A8B3BF
:10108000BBF8000090B3834B1888401C01B2824823
:101090001980027832B1012A0CD0022A14D0032A16
:1010A0001BD023E07D4A2E70B2F9002091421DDB57
:1010B00006701AE031B12C70B7F90020914215DBAF
:1010C000022108E02E70F7E7754A2C70B2F9002073
:1010D00091420BDB0321017007E0A9B185F80060A4
:1010E000B7F90020914201DB04701C8098F80000E1
:1010F00002285CD163480168491C91FBFAF2016047
:101100000AFB121010B108E02C70E9E75E48007885
:10111000012802D1D4200DF04EFED9F80010484627
:1011200009B1491E016008465E49B1F90010084343
:101130000CD188F80040FFF7DCFE00231A46194660
:101140007820FFF7B8FB0020FFF777F850480088B9
:1011500000282CD0BBF80000002828D04D4801887A
:10116000491C0AB24C4902800B786BB1012B13D099
:10117000022B1ED0032B1AD122B32E70B7F90030E8
:101180009A4214DB0C7011E0444B2E70B3F900301E
:101190009A420CDB0E7009E032B12C70B7F90030C6
:1011A0009A4204DB02220BE02E70F7E70480BDE8D0
:1011B000F09F3B4B2C70B3F900309A42F7DB0322CF
:1011C0000A70F3E72C70D9E770B51B480078032844
:1011D00029D1354935480A68521C0A60B0F90050D7
:1011E0003348B0F900002B183248B0F900001C1841
:1011F0003148B0F9000026180020964204DC2F4E3A
:1012000008603288521C328009682D4E0122A942A2
:1012100001DB327000E030702A4D8B4254DC8C428E
:1012200052DD2A7051E069E0900000104CC20720A6
:10123000B1C007209400001083C007208800001070
:1012400044C1072054C107203CC2072046C10720E3
:1012500032C407208C00001048C107204EC107206F
:10126000C6C1072096C107204AC1072034C4072001
:1012700050C10720D2C1072085C00720D8C1072050
:1012800034C2072030C20720ADC0072098C1072014
:10129000D0C107202CC4072086C00720D4C1072056
:1012A000D6C107209AC1072038C20720E2C1072013
:1012B000E4C10720E6C10720E8C10720EEC10720EE
:1012C00030C40720840000102870FF490A88521C8F
:1012D00012B20A80B2F5167F10DB0880FB490A883B
:1012E000521C12B20A803C2A08DB0880F8490A889E
:1012F000521C12B20A80182A00DB088070BD01213E
:10130000D0200DF058BD0121D4200DF054BD70B592
:10131000F048012500240570EF48F1490460EF48CA
:1013200000680860FFF7EBFFEE48057244728472B4
:10133000ED48008840B1ED48008828B1EC480480B1
:10134000EC480470EC480570EC4821460460EC4819
:101350000460BDE870404FF49E700DF02CBDDD4977
:1013600010B502200870DC480024DD490460E5481F
:1013700000680860FFF7C7FFDA4801210172447274
:101380008472D948008840B1D848008828B1D8482C
:101390000480D8480470D8480170D84821460460B9
:1013A000D7480460BDE810404FF49E700DF003BDB7
:1013B000C849032008707047C6490020087070476C
:1013C000C449002008707047C24900200870CE4907
:1013D0000860CE490880BC490880BC490880BC49E7
:1013E00008807047BB490020087082E52DE9F04174
:1013F000002406464FF4FA75A046274628460DF00D
:10140000E3FBB04229DA00BF05EB47000DF0DCFB3F
:10141000B04200DC3C460A373FB2C82FF4DDC82C8E
:101420000EDA04F10A0708E005EB44000DF0CCFBEE
:10143000B04200DCA046641C24B2BC42F4DB0CE0E9
:101440005FF0C80405EB44000DF0BEFBB04200DCC9
:10145000A046641C24B2CA2CF4DD404649E42DE9C0
:10146000F041002406464FF47A75A04627462846E8
:101470000DF0AAFBB04228DA05EB47000DF0A4FB03
:10148000B04200DC3C460A373FB2C82FF4DDC82C1E
:101490000EDA04F10A0708E005EB44000DF094FBB6
:1014A000B04200DCA046641C24B2BC42F4DB0CE079
:1014B0005FF0C80405EB44000DF086FBB04200DC91
:1014C000A046641C24B2CA2CF4DD404611E42DE988
:1014D000F05FDFF83C928F4F8F4E99F800008F4CF1
:1014E000322542F2ED784FF0000A40F2FE3B4528EB
:1014F0002AD13078012858D12088401C00B22080A1
:10150000404509DB86F800A08549AC200DF019FCA8
:1015100000210846FFF7BCF98249A1F800B0B4F9F0
:10152000001091FBF5F005FB101100EB80023A80F2
:10153000312909D14FF4FA7101EB40007A4900B228
:10154000B1F900100DF0FDFB99F8000044282CD1F2
:101550003078012829D12088401C00B220804045E5
:1015600009DB86F800A06E49AE200DF0EAFB0021F1
:101570000846FFF78DF9A7F800B0B4F90010694BE1
:1015800091FBF5F005FB101100EB80021A80312968
:101590000BD14FF47A7101EB4000644900B2B1F90C
:1015A0000010BDE8F05F0DF0CCBB00E62DE9FC5F5C
:1015B0004D48DFF82091008830B34C48008818B3BC
:1015C0005B4899F80030B0F900104B48012B0078C7
:1015D00007D0584A022BB2F900200CD0564802809E
:1015E00003E0012801D010B124E05448DEE0544863
:1015F000524900881DE0012801D018B11AE04E4878
:10160000028017E04F48CFE04F48B0F900000228B1
:1016100055D0012854D04D480188484801804C4895
:10162000B0F9000002284CD001284BD0494842496B
:10163000008808804848B0F900204848B0F90010F8
:101640003E48FEF723FE4648B0F900204548B0F971
:1016500000103948FEF71AFE224F0126002578793E
:101660000A2810D2401CC0B278710A280BD37D71B1
:10167000BE71F879052806D2401CC0B2F871052861
:1016800001D3FD71FE7222493748384A0B78384C35
:10169000DFF8E08040F2FE3A302B14D02B2B6DD0D7
:1016A0001C49204A332B6AD0DFF86CC0452B67D029
:1016B000442B66D099F80010DFF8BC9062E06EE031
:1016C0006FE070E074E075E0800000102EC4072029
:1016D0008200001083C0072030C2072024C20720E8
:1016E00034C207200AC00720D0C10720D2C107207A
:1016F0002CC4072086C0072085C007208800001062
:101700003CC2072028C2072038C20720EEC10720AC
:1017100050C2072068C1072084C00720BAC0072034
:10172000CDABFFFF6AC1072052C1072054C107207B
:10173000DAC10720DEC10720C8C10720C6C10720C3
:10174000DCC10720E0C10720CAC1072088C10720EB
:10175000CCC107208EC10720A0C10720A2C107204D
:101760007CC107207EC107200E0000109AC0072010
:10177000DCF00720D8C0072016C4072075E025E15B
:101780003BE16AE1DFF810B4012974D0022973D07B
:10179000032972D005700020B8F90020F1E3FF485A
:1017A0003AE7FF4838E7FF480188FF48018041E7F2
:1017B000FE483CE791F9011039B101291FD00570AD
:1017C000E562256384F8286065E2A7F810A0A7F811
:1017D00012A0067051460020B8F900200CE000BFAE
:1017E000C0EBC00303EB430304EB8303401CD9624B
:1017F000196383F82850C0B29042F1DB4BE21178B4
:1018000011B1012917D046E23D827D82057000208A
:10181000B8F900200CE000BFC0EBC00101EB4101B2
:1018200004EB8101401CCD620D6381F82860C0B2D9
:101830009042F1DB2FE2A7F810A0A7F812A00670E3
:1018400051460020B8F900200CE000BFC0EBC003F7
:1018500003EB430304EB8303401CD962196383F851
:101860002850C0B29042F1DBFEE391F901302BB178
:10187000032B5DD063E020E10EE2FAE2A7F810A0AE
:10188000A7F812A004F1280406706560A560267010
:10189000A565E56584F85460C4F8AC50C4F8B05050
:1018A00084F8A860C4F80051C4F8045184F8FC60BE
:1018B000C4F85451C4F8585184F85061C4F8A85180
:1018C000C4F8AC5184F8A461C4F8FC51C4F80052C7
:1018D00084F8F861C4F85052C4F8545284F84C6249
:1018E000C4F8A452C4F8A85284F8A062C4F8F8520C
:1018F000C4F8FC5284F8F462C4F84C53C4F8505352
:1019000084F84863C4F8A053C4F8A45384F89C63D3
:1019100091F90200A4F12804C0EBC00000EB4000E4
:1019200004EB80005246C262026380F828509BE3B9
:10193000127812B1012AA1D096E33D827D8204F192
:10194000280405706560A5602670A565E56584F8C6
:101950005460C4F8AC50C4F8B05084F8A860C4F81F
:101960000051C4F8045184F8FC60C4F85451C4F820
:10197000585184F85061C4F8A851C4F8AC5184F8A7
:10198000A461C4F8FC51C4F8005284F8F861C4F8AA
:101990005052C4F8545284F84C62C4F8A452C4F8AB
:1019A000A85284F8A062C4F8F852C4F8FC5284F833
:1019B000F462C4F84C53C4F8505384F84863C4F834
:1019C000A053C4F8A45384F89C634DE30020B1F9FC
:1019D0000010B2F90020B8F900300BE0C0EBC006EF
:1019E00006EB460604EB8606401CC6E90B1286F899
:1019F0002850C0B29842F1DB36E39CF80000012881
:101A00004FF0000013D05146B8F900200CE000BFA1
:101A1000C0EBC00303EB430304EB8303401CD96218
:101A2000196383F82850C0B29042F1DB1CE3B1F98E
:101A30000010B2F90020B8F900300BE0C0EBC0068E
:101A400006EB460604EB8606401CC6E90B1286F838
:101A50002850C0B29842F1DB06E39CF80000012850
:101A60004FF0000013D05146B8F900300CE000BF31
:101A7000C0EBC00202EB420204EB8202401CD162C6
:101A8000116382F82850C0B29842F1DBECE2B1F960
:101A90000010B2F90020B8F900300BE0C0EBC0062E
:101AA00006EB460604EB8606401CC6E90B1286F8D8
:101AB0002850C0B29842F1DBD6E23D48B0F90010A0
:101AC00051B13C4803688B4206DA3B48B0F900202C
:101AD0005A4392FBF1F10180B87988B33748008806
:101AE00040B13748008828B136480078012834D002
:101AF000032832D03448B0F900102F48B0F9000064
:101B0000814204DABBF8001001F1010104E005DDB7
:101B1000BBF80010A1F10101ABF8001032225142D4
:101B20001D48FEF7B3FB2948B0F900102848B0F96A
:101B30000000814205DAB9F8001001F1010105E069
:101B40000BE005DDB9F80010A1F10101A9F80010C2
:101B5000322251421F48FEF799FB1D481E49B0F939
:101B60000000B1F90010C0EB4020400090FBF1F004
:101B7000009011481949B0F90000B1F90010C0EB0C
:101B80004020400090FBF1F08246AC200DF01CF8A4
:101B9000A0F52B41CD3923E06A0000108CC107204D
:101BA0008AC1072092C10720C8C1072090C1072021
:101BB0003EC1072030C20720C6C10720D0C1072080
:101BC000D2C1072086C0072054C1072052C1072078
:101BD00094C1072016C407207CC10720A0C107209C
:101BE00007D1F848B0F90000FFF700FC00EB8000D7
:101BF0000090AE200CF0E8FFA0F52B41CD3907D1C5
:101C0000F148B0F90000FFF72AFC00EB80008246A3
:101C10000020B8F900C03CE0EC49098841B1EC492A
:101C2000098829B1EB490978012910D003290ED080
:101C300000990AB2B9F900105218C0EBC00101EBCB
:101C4000410104EB8101CA620CD5CD620FE0C0EB0B
:101C5000C00101EB410104EB8101CD620D6381F80C
:101C6000286014E040F2FE339A4200DDCB62BBF9FB
:101C700000200FFA8AF39A180A6301D50D6304E075
:101C800040F2FE339A4200DD0B6381F82850401C7D
:101C9000C0B26045C0DBE7E1DFF83CC3BCF900102F
:101CA000052901DD7E7200E07D72CC486423B0F925
:101CB000002092FBF3F30093002B01DC012300933F
:101CC000881A00B2FEF71CFB009909B2884201DABB
:101CD000BE7200E0BD723D72B87A80B1F87AB8B3D6
:101CE000BD48FD72B0F90010BC48B0F90000814257
:101CF0002ADB2FDC32E000BFA9F800102EE0B87913
:101D000030B3787A20B3B648B0F90010B548B0F9CE
:101D10000000814204DABBF8001001F1010104E087
:101D200005DDBBF80010A1F10101ABF80010322273
:101D30005142AD48FEF7AAFAA748B0F90010A748EB
:101D4000B0F90000814204DAB9F80010491CD3E769
:101D500009E003DDB9F80010491ECDE732225142F7
:101D6000A248FEF793FA9D484FF46171B0F9000064
:101D700048439F49B1F9001090FBF1F032300090D8
:101D8000AC200CF021FFA0F52B41CD3907D19348B1
:101D9000B0F90000FFF72AFB00EB800000909148AB
:101DA0009449B0F90000B1F90010C0EB40204000A8
:101DB00090FBF1F08246AE200CF006FFA0F52B411F
:101DC000CD3907D18748B0F90000FFF748FB00EB99
:101DD00080008246B8F900000021804640E07B4840
:101DE000008840B17A48008828B17A4800780128F4
:101DF00014D0032812D0C1EBC100009A00EB4000C0
:101E000004EB80000FFA82FCB9F90020B0F95030E1
:101E100062449A18C2620CD5C5620FE0C1EBC100E2
:101E200000EB400004EB8000C562056380F8286089
:101E300014E040F2FE339A4200DDC362BBF9002099
:101E40000FFA8AF39A18026301D5056304E040F2A1
:101E5000FE339A4200DD036380F82850491CC9B262
:101E60004145BCDB6449009808806449E06A088009
:101E7000FAE0B87998B36248007880BB6148B0F95D
:101E8000000000EB80015648B0F90000B0EB410FB4
:101E900004DABBF8001001F1010104E005DDBBF834
:101EA0000010A1F10101ABF80010524629464E483E
:101EB000FEF7ECF9322251424B48FEF7E7F952485F
:101EC000B0F9000000EB80015048B0F90000B0EB21
:101ED000410F05DAB9F8001001F1010105E010E049
:101EE00005DDB9F80010A1F10101A9F80010524672
:101EF00029463D48FEF7CAF9322251423B48FEF7D7
:101F0000C5F9414842F2EC71B0F900004843384944
:101F1000B1F9001090FBF1F000903A4842F2EC71F8
:101F2000B0F9000048433349B1F9001090FBF1F0DB
:101F30000190AC200CF048FEA0F52B41CD390AD120
:101F40003148008800EB8000400000B2FFF74EFAF5
:101F500000EB80000090AE200CF036FEA0F52B4187
:101F6000CD390AD12748008800EB8000400000B23C
:101F7000FFF775FA00EB800001900020B8F900101F
:101F80005DE06BE01E4A127852B1C0EBC00202EB7A
:101F9000420204EB8202D562156382F828604CE0AD
:101FA000009A13B2B9F900209A18C0EBC00303EBF2
:101FB000430304EB830CCCF82C2029D5CCF82C500F
:101FC0002AE0000094C10720C6C10720D0C1072025
:101FD000D2C1072086C0072064000010C8C10720B6
:101FE00054C1072096C107206A00001016C40720BC
:101FF0007CC10720A0C107207200001020C4072068
:1020000030C40720ECC10720EAC1072052C10720D5
:10201000524501DDCCF82CA0019A13B2BBF9002087
:102020009A18CCF8302002D5CCF8305003E0524555
:1020300001DDCCF830A08CF82850401CC0B288429A
:10204000A0DB11E0C0EBC00101EB410104EB810119
:10205000401CCD620D6381F82860C0B29042F1DB74
:10206000ABF80050A9F80050BD71BDE8FC9F10B559
:10207000C0EBC00000EB4001FF4810F82120032A0C
:1020800074D100EB810090F83E108A07B0F942202D
:102090000CD54FF496639A420DDA521C12B2A0F896
:1020A00042209A4207DBA0F8423004E01AB1A2F1C4
:1020B0000102A0F842200A07B0F944204FF00A03B9
:1020C0004FF000040AD50A2A13DA521C12B2A0F803
:1020D00044200A2A0DDBA0F844300AE0002A05DD7E
:1020E000A2F1010212B2A0F8442002E001DAA0F845
:1020F0004440CA06B0F946200AD50A2A0DDA521C15
:1021000012B2A0F846200A2A07DBA0F8463004E005
:102110001AB1521E12B2A0F846204278120701D01E
:1021200004210FE0D54A127822B1C278142A01D9CD
:10213000052107E0890601D5022103E0C1781429B1
:1021400001D201218170C1780A2990F8281002D3A8
:1021500041F0800101E001F07F0180F82810C849BA
:10216000B1F91020C262B1F91210016310BD2DE95E
:10217000F047C448C44EC24C0078002510B3B6F9ED
:10218000000000EB8001B4F92400B0EB410F01DA4C
:10219000401CA084BD48DFF8F88247F2305AB0F9FD
:1021A000000000EB8001B8F90000B0EB410F0BDD3F
:1021B000E08C5246401CE084B14800212630FEF7F6
:1021C00065F802E0A584E5E7E584DFF8C892012719
:1021D000B9F9000000EB8001B4F92600B0EB410F23
:1021E0000ADBB6F90010B4F9242001EB8101B2EB4F
:1021F000410F01DB277301E000B92573A648B0F950
:10220000000000EB8001B8F90000B0EB410F09DAE3
:10221000208D5246401C2085994800212830FEF729
:1022200035F800E02585B9F9000000EB8001B4F92C
:102230002800B0EB410F0ADBB6F90010B4F92420F6
:1022400001EB8101B2EB410F01DB677302E030B1BA
:10225000607B28B1207B18B1A773BDE8F087657358
:10226000A573FAE72DE9F05F8648DFF83082DFF8E2
:1022700030B201788648DFF82CA28B4DB0F900000F
:102280008A4E00278A4C022911D0012925D02780A7
:1022900088492868B1F90010884243DD86493068D2
:1022A000B1F9001088423DDA2088401C3CE0DFF89C
:1022B0000C92B9F80010401A00B200F0ADFAC8F85C
:1022C000000064214843B9F90010DFF8F48190FB65
:1022D000F1F02860BBF8001014E0DFF8E891B9F8DD
:1022E0000010401A00B200F097FAC8F8000064210C
:1022F0004843B9F90010DFF8D08190FBF1F0286075
:10230000BBF80010B8F80000081A00B200F084FA18
:102310006421CAF800004843B8F9001090FBF1F0BE
:102320003060B5E72088401E684D20800A2128884B
:1023300000EB800001EB400002B200215C48FDF799
:10234000A5FF5048007800B9278061486149624A7A
:102350000068B1F9001088420ADBB5F90030B4F921
:10236000006003EB8303B6EB430F01DD0123137021
:10237000884208DBB5F90000B4F9001000EB8000DA
:10238000B1EB400F00DC1770BDE8F09F2DE9F04F76
:102390003C48554BDFF844E190F800C05048B3F991
:1023A0000060524B0078BEF9004082464D48002143
:1023B000B3F9003000788346474805783048877B7A
:1023C00090F80D80007B81462D482A30012214B3FD
:1023D000012C08D0022C11D0032C17D0042C1DD0B6
:1023E000052C27D032E0BCF1030F03D0BBF1000F66
:1023F00011D02AE0BAF1000F7CD126E016B1012EEF
:1024000002D023E00DB375E02DB11EE013B1012B16
:1024100002D01BE0CFB16DE05FB316E013B1012B2A
:1024200004D013E0B8F1000F0FD063E0B8F1000F53
:1024300060D00AE013B1012B04D007E0B9F1000F1E
:1024400003D057E0B9F1000F54D00270BEF902403A
:1024500084B1012C53D0022C5DD0032C64D0042C09
:102460006BD0052C49D133B1012B46D1B9F1000F06
:102470003EE03FE040E06BE0DCF007200FC40720C7
:102480000AC0072083C00720AEC10720B8C10720BB
:1024900052C10720B0C10720B6C107207400001048
:1024A00054C107207800001024C4072028C4072046
:1024B0007E000010B2C10720B4C107208EC10720E2
:1024C00096C1072094C10720C6C10720ACC10720D0
:1024D00030C20720AAC107207C00001040C207209C
:1024E0008400001085C00720A6C10720A8C10720CE
:1024F0000BD101E00170A9E74170BDE8F08FBCF19C
:10250000030F04D0BBF1000FF6D04270F5E7BAF12B
:10251000000FF1D1F9E726B1012EEED1002DF4D153
:10252000EAE7002DF1D0E7E723B1012BE5D1002F39
:10253000EBD1E1E7002FE8D0DEE72BB1012BDCD1B6
:10254000B8F1000FE1D1D7E7B8F1000FDDD0D3E744
:10255000B9F1000FD9D0CFE71349086820F4404003
:1025600008601248026842F080020260104A137844
:10257000012B436912D043F0800343610B6823F4BD
:1025800040630B60016841F020010160517801292E
:10259000416906D041F020014161704723F080037A
:1025A000EBE721F02001F7E700C0024000C009205E
:1025B00034C007202DE9F84F074600208046054625
:1025C0000446542659B1012904D0022904D0032914
:1025D00004D004E0552602E0752600E04C268D4824
:1025E000C7EBC703DFF8289203EB43034FF0000A61
:1025F00000EB8300012A02D0002A7ED003E131B132
:10260000012908D002290AD003290CD00FE0427812
:1026100042F001020AE0427842F0020206E042780B
:1026200042F0040202E0427842F00802427080F870
:102630004F1053208DF800008DF801708DF8026066
:1026400055468DF803A0694628460CF0F6FB69460E
:10265000042000950CF0F1FBB9F83C0009F12004CE
:102660008DF80000207E8DF80100207B8DF802009F
:102670008DF8035069464FF008000CF0DEFB207A1D
:102680008DF8000020798DF8010020788DF8020087
:102690008DF8035069460C200CF0CFFB41248DF8D7
:1026A00000408DF801408DF802408DF803406946E6
:1026B00010200CF0C2FB8DF800408DF801408DF821
:1026C00002408DF80340694614200CF0B6FB8DF8EB
:1026D00000408DF801408DF802408DF803406946B6
:1026E00018200CF0AAFB8DF800408DF801408DF801
:1026F00002408DF80340694600E001E01C2080E0C4
:1027000031B1012908D0022913D0032915D007E0DF
:10271000417821F0010102E0417821F0020141708D
:1027200005F110004FEA000B9DF80000532818D166
:1027300007E0417821F00401F1E7417821F0080138
:10274000EDE79DF80100B8420BD19DF80200B042C0
:1027500007D1694658460CF0B4FA9DF800004128AC
:1027600005D0F4B3641EA4B24445DDD14BE09DF81E
:1027700001004128F5D19DF802004128F1D19DF8D2
:1027800003004128EDD1B9F83C0009F120048DF88F
:102790000000207E8DF80100207B8DF80200564657
:1027A0008DF803A0694658460CF047FB207A8DF857
:1027B000000020798DF8010020788DF802008DF856
:1027C0000360694605F114000CF037FB42248DF8D4
:1027D00000408DF801408DF802408DF803406946B5
:1027E00000E013E005F118000CF027FB8DF8004025
:1027F0008DF801408DF802408DF80340694605F1DF
:102800001C000CF01AFB00BFBDE8F88F3F248BE7DB
:1028100000400240DCF00720002801DA404200B20C
:10282000704710B540F2D4700CF0CEF9FF4C207018
:1028300040F2D6700CF0C8F960704FF4FB600CF0F9
:10284000C3F9A07040F2DA700CF0BEF9E07040F20B
:10285000DC700CF0B9F9207240F2DE700CF0B4F9C3
:1028600060724FF4FC600CF0AFF9A07240F2E270BD
:102870000CF0AAF9E0724FF401600CF0A5F9207198
:1028800040F612000CF0A0F9607140F614000CF054
:102890009BF9A07140F616000CF096F9E07110BD9E
:1028A000E34810B5016821F0E06101604168E24A47
:1028B000C1F30B13DF4C117824F81130491CC9B255
:1028C0001170032903D2016841F08071016010BDCD
:1028D0002DE9FF41D94C0022208D20860320608500
:1028E0002078401CC0B204F82209232802D384F8BF
:1028F000222001E0202847D82120FDF778FC50B1A4
:10290000CF480088222806D1CE4894F8221090F9AA
:102910000200884236D094F82B00CB4DA8B994F829
:102920002200C0EBC00101EB410105EB810202F185
:1029300028021179577A167A53798DE8CA001378EC
:102940004FF0ED0201460CF0AEFC94F82200202876
:1029500018D2C0EBC00000EB400005EB8000C1784E
:102960003C2905D2491CC9B2C170032902D207E033
:102970003C21C1700179032902D24179491C41717E
:10298000C1780171BDE8FF81AC492239212891F855
:102990002B101CD02228F5D10029F3D1A9480A21F7
:1029A000D038B0F9000090FBF1F0A649C0B2CA39A6
:1029B0004A780B78891E4C7800940390CDE9013257
:1029C0000B782922FF2108460CF06DFCDAE700297C
:1029D000D8D19A4830304178037808384478039247
:1029E0000094CDE9013103786222EBE7954900209C
:1029F00060390870487088706031487070472DE900
:102A0000F04FDFF838E24FF03C0BAEF1220E0EF142
:102A1000800101F1800AB1F95230B1F9544001F559
:102A200080719EF82C000E6B496B96FBFBF591FBB9
:102A3000FBF70FFA81F87146BAF91C2091F803C030
:102A40003FB2BAF91E102DB236B2B946B0B1012864
:102A50003CD10AF10E00BAF80E704786BAF816702B
:102A6000C786AAF83E308486BAF91A7050467FB3FA
:102A70004FF6FF705346AAF83C0018E00AF1080030
:102A8000BAF814700787BAF808708787AAF83E303A
:102A90004487BAF918705046002FE9D103466948B7
:102AA000A0F15000406A18E090FBFBF017E03A43B9
:102AB00017D009B15D8707E05E8705E0A3F83A907B
:102AC00002E000BFA3F83A808EF82FC0BDE8F08F77
:102AD000FFE703465B485038806A0029E4D19887B5
:102AE000E5E70029EED0E9E7F0B50020574A0146B6
:102AF0004FF4F4731154401C00B29842FADBDFF833
:102B000044E100200EF1420E14277A21414300EBEC
:102B100080039B0000EB80041BB207EB84051EE0E2
:102B20001EF803405E2C21D0494E04EB440416F8F5
:102B300014C002F801C006EB4404491C66785654E0
:102B4000491CA6785654491CE6785654491C2679E7
:102B50005654491C64795454491C5B1C1BB29D4259
:102B6000DEDC401C00B20428CFDBF0BD4FF07E0C51
:102B700002F801C0491C42245454491C5A26565498
:102B8000491C5654491C5454491C02F801C0E3E73F
:102B90002DE9F04F2F49ADB00020087027482238AA
:102BA000B0F9588080F80080017A491CC9B20172DE
:102BB000142908D300210172C279521CD2B2C27109
:102BC000052A00D3C1711F491E4B1E4891F90450BC
:102BD00091F90110DFF86CA04A1BD03B0078B3F9E3
:102BE00052304FF00A0B9E46AAF1500A02AC98B33D
:102BF000DFF850900D2801F02F82212801F09D83ED
:102C00004B466B2893F9043004EB830601F0AA834A
:102C10004B465B789B1E5BB26C2801F0CC836E2820
:102C200001F06D846A2801F0D18616E0F06300108F
:102C30000040034036C007200AC00720A2C007207A
:102C400048C0072050C20720DCF007205CFB0720AB
:102C5000A4660100060000106FE0692801F0F48608
:102C60004E4696F902C07678761E77B2672801F054
:102C700048874E460F2801F0AE871028FBD0042865
:102C800001F0D287AAF5C0764FF05E09B67E3F28E4
:102C9000B64602F0C4820AF150066F2802F045835E
:102CA000B146352802F00087332802F033877428B4
:102CB00003F00B80752803F05680712803F09F8085
:102CC000702803F0A180722803F0D8805A2803F0FE
:102CD0001081583E5E2803F090815F28FBD0612868
:102CE00003F07783622803F0CC83632803F0248405
:102CF0004FF0030C122803F07A84432803F0AE84CB
:102D0000A6F5BC764528367903F0C484442803F040
:102D1000FF84302803F04685732803F065862C284D
:102D200003F0B6862B2804F00581582804F027828A
:102D30006D2804F04F8204F097BADC48C678032E61
:102D400030D090F82C7000F5E870D84B4078803384
:102D5000C01E40B20090B3F97A000190D348B3F995
:102D6000443000F5807C994690F806804379BCF9A0
:102D700050C0C07E002F7ED0012F7DD0DFF82C8385
:102D8000022F7AD0022E00F02B87C9A70297BCF140
:102D9000000F00F06087BEF1000F00F01B87CAA78C
:102DA00000F058BFCEA00290D3A00390D8A004900A
:102DB000DDA002AD0346059007CDFDF790FDE04D87
:102DC000DAF83800B5F96210884203DA00222121CE
:102DD000DCA019E0B5F964201144814203DD002232
:102DE0002121D9A010E0B5F966201144814203DD0C
:102DF00000222121D5A007E0B5F9682011448142C5
:102E000004DD00222121D2A0FDF799FD05F16A051C
:102E1000002268882B2180B2FDF738FC2888002228
:102E2000402180B2FDF732FCA04F5E468037002281
:102E3000B7F95400232190FBF6F080B2FDF726FC91
:102E4000B7F95200002290FBF6F080B22421FDF782
:102E50001DFCA8880022401C5E2180B2FDF716FCF4
:102E6000DAF83800554690FBF6F23C2092FBF0F180
:102E700000FB112002E00FE0B1E2C1E380B20022CA
:102E80007321FDF703FCA86B4FF4167190FBF1F072
:102E9000002280B25421F5E3012E0FD0ADA00290A4
:102EA000BCF1000F4AD0BEF1000F01D0A9A044E050
:102EB000012B29D0002B41D1ACA03EE0B1A7029755
:102EC000BCF1000F3AD0BEF1000F05D0B8F1010FF0
:102ED00006D0B8F1030F03D0012B07D0D3B12DE0FA
:102EE000800701D5ADA028E0A6A026E040B10128CA
:102EF00008D0022808D0032808D0042808D012E0FF
:102F0000ACA01AE0B1A018E0B6A016E0BBA014E097
:102F1000C0A012E050B101280AD00228CCD003286A
:102F200008D0042808D00528C0D007E0BFA004E0DE
:102F3000C4A002E0C9A000E0CEA002906EA0039061
:102F4000D2A0DFF868810490012E06D1D5A00490AC
:102F5000B9F1000F01D0D9A004906DA00590DDA0BB
:102F60000690E2A00790E7A00890ECA009907448B2
:102F7000D030032A01DD009901E0A94200DA017195
:102F80004A4F019980370F2906DDEAA3EFA2F5A188
:102F9000FAA0FDF7A4FC0CE090F9045004EB8500C6
:102FA000001D0EC854F82500FDF799FC0020FDF720
:102FB00032FC634DB5F8500010B1B5F8520020B99D
:102FC00000225E21F3A0FDF7BAFCB5F946004FF4EC
:102FD0007A76B04203DA01222B2180B204E090FB22
:102FE000FBF080B200222B21FDF750FBB7F9540013
:102FF000B04203DA0122232180B204E090FBFBF00F
:1030000080B200222321FDF741FBB7F95200B04204
:1030100003DA0122242180B204E090FBFBF080B2AD
:1030200000222421FDF732FBB5F91400B04209DA81
:1030300001227B2180B2FDF729FBA88A01224021D1
:1030400080B20EE05E4690FBF6F080B200227B215B
:10305000FDF71CFBB5F91400002290FBF6F080B2DE
:103060004021FDF713FB464671E300BFB5F91C0094
:10307000B5F91810B2E2DAF830003C2790FBF7F10E
:1030800007FB1100554680B200227321FDF7FEFABE
:10309000286B002290FBF7F090FBF7F107FB110083
:1030A00080B25421FDF7F2FA296BFDE380C00720BE
:1030B00020C8F1F2EEF7EDE8EA20EDE0EFF02E2087
:1030C0005E2020200000000020C8F1F2EEF7EDE8BD
:1030D000EA20EDE0EFF02E205E3E3E3E00000000D4
:1030E000202020C8D1CFDBD2C0CDC8C520D4C0C7D6
:1030F000C0202120000000002049F3202020202BA8
:10310000C020556D61782020202040420000000042
:103110002049202020202023C020552020202020AE
:10312000202024420000000020D6E8EAEB204E20B8
:1031300020205E20202030543A3073200000000010
:1031400080C1072041000000420000004300000051
:103150004400000020C8F1F2EEF7EDE8EA20F2EEBC
:10316000EAE020205E2020200000000020C8F1F2CC
:10317000EEF7EDE8EA20F2EEEAE020205E3C3C3C8F
:103180000000000020C8F1F2EEF7EDE8EA20F2EED0
:10319000EAE02020202020200000000020C8F1F2DA
:1031A000EEF7EDE8EA20F2EEEAE020205E203C3E79
:1031B0000000000020C8F1F2EEF7EDE8EA20F2EEA0
:1031C000EAE020205E3E20200000000020C8F1F24E
:1031D000EEF7EDE8EA20F2EEEAE020205E3E3E2047
:1031E0000000000020C8F1F2EEF7EDE8EA20F2EE70
:1031F000EAE020205E3E3E3E0000000020C8F1F2E2
:10320000EEF7EDE8EA20F2EEEAE020205E203E3E16
:103210000000000020C8F1F2EEF7EDE8EA20F2EE3F
:10322000EAE020205E20203E0000000020C8F1F2ED
:10323000EEF7EDE8EA20F2EEEAE020205E20203C06
:103240000000000020C8F1F2EEF7EDE8EA20F2EE0F
:10325000EAE020205E203C3C0000000020C8F1F2A3
:10326000EEF7EDE8EA20F2EEEAE020205E3C3C20BA
:103270000000000020C8F1F2EEF7EDE8EA20F2EEDF
:10328000EAE020205E3C20200000000020C4EBE8A3
:10329000F22DF1F2FC2E202030743A30543A307383
:1032A0000000000020202020202030743A30543AC2
:1032B0003073202020202020000000002030743AAD
:1032C00030543A307320202020202071C02AF7206B
:1032D000000000002055EC61782EE8F1F22EF2EEAD
:1032E000EAE0202020207BC20000000020C2FBF585
:1032F000EEE420202020202020202020202020203C
:103300000000000020D3F1F2E0EDEEE2EAE8202038
:1033100020202020202020200000000020C2FBEFE1
:10332000F0FFECE8F2E5EBE8202020202020202030
:103330000000000020E8EBE820EDE5F1EAEEEBFC10
:10334000EAEE20F4E0E72E20000000002020CEF27C
:10335000F1F3F2F1F2E2F3E5F220EEE4EDE0202009
:1033600000000000202020202020F1E5F2E82121AB
:103370002121202020202020000000002020C0E269
:10338000E0F0E8FF20EFE8F2E0FEF9E5E920202098
:103390000000000020000000DAF834003C2790FB19
:1033A000F7F107FB1100554680B200227321FDF7AB
:1033B0006DF9686B002290FBF7F090FBF7F107FBCB
:1033C000110080B25421FDF761F9696BC0E3288BCD
:1033D00000287DD195E300BFFDF7B1FAC4E3022ECA
:1033E00011D0AFF234300290BCF1000F4CD0BEF1DE
:1033F000000F02D0AFF2483045E0012B29D0002B5E
:1034000042D1D3A03FE0D8A70297BCF1000F3BD038
:10341000BEF1000F05D0B8F1010F06D0B8F1030FCF
:1034200003D0012B07D0DBB12EE0800701D5D4A05B
:1034300029E0CDA027E040B1012808D0022808D01B
:10344000032809D0042809D013E0D3A01BE0D8A09A
:1034500019E0AFF28C3016E0DBA014E0E0A012E03F
:1034600050B101280AD00228CBD0032808D0042864
:1034700008D00528BED007E0DFA004E0E4A002E009
:10348000E9A000E0EEA00290F3A00390AFF20420C8
:10349000DFF8DC830490022E08D1AFF2F81004901C
:1034A000B9F1000F02D0AFF2EC100490F1A005903A
:1034B000F6A00690AFF2CC100790AFF2B8100890CB
:1034C000AFF2A8100990F748032A02DD009902E044
:1034D00007E1A94200DA0171E54F019980370F2910
:1034E0000ADDAFF2B013AFF29C12AFF28811AFF267
:1034F0007410FDF7F4F90CE090F9045004EB85002A
:10350000001D0EC854F82500FDF7E9F90020FDF76D
:1035100082F9E44DD03DB5F8500010B1B5F8520035
:1035200028B900225E21AFF29410FDF708FAB5F930
:1035300048004FF47A76B04203DA0122252180B2A6
:1035400004E090FBFBF080B200222521FDF79EF8FD
:10355000B7F95200B04203DA0122262180B204E01A
:1035600090FBFBF080B200222621FDF78FF8B7F91F
:103570005400B04203DA0122232180B204E090FB20
:10358000FBF080B200222321FDF780F8B5F9160088
:10359000B04209DA01227D2180B2FDF777F8E88A8E
:1035A00001227D2180B20EE05E4690FBF6F080B2F3
:1035B00000227D21FDF76AF8B5F91600002290FB84
:1035C000F6F080B27D21FDF761F898F803004646D9
:1035D000022807D1B5F91C00B5F91A1008433FF4C9
:1035E000DBAE48E5688B00287BD1D8E24FF4616000
:1035F00091FBF0F080B200227421FDF747F8B3E2AE
:10360000012E10D0AFF2B4470297BCF1000F46D0A4
:10361000BEF1000F02D0AFF234473FE0012BFAD0E9
:10362000AFF2B8473AE0AFF2A4470297BCF1000FFF
:1036300035D0012B01D0CBB131E040B1012809D008
:103640000228E8D0032808D0042809D017E0AFF2F8
:103650009C4723E0AFF28C4720E0AFF260471DE0CB
:10366000AFF250471AE0AFF2145717E058B10128F3
:103670000CD00228D4D003280BD004280CD0052865
:10368000F1D00CE075E2AFF25C4707E0AFF24C47D7
:1036900004E0AFF2384701E0AFF228470297AFF2FB
:1036A000A8570397AFF21C470497012E08D1AFF239
:1036B0000C470497B9F1000F02D0AFF2004704970E
:1036C000AFF2B4570597022E11D0AFF21C600690EE
:1036D000BCF1000F2FD0BEF1000F03D0AFF2186085
:1036E00003E009E2012BF9D019A0069023E01EA700
:1036F0000697BCF1000F1BD0012B01D01BB317E0C4
:1037000040B1012808D0022809D003280AD0042893
:103710000AD00BE020A000E025A0069008E0AFF260
:103720005860FAE728A0F8E72DA0F6E705280CD0A6
:1037300098F8140040B148A00790AFF2B04008904C
:10374000022E03D0D8E0B0E0CBE0C7E0CBE0C2E18E
:1037500020C8F1F2EEF7EDE8EA20EDE0EFF02E20E0
:103760005E3C3C3C0000000020C8F1F2EEF7EDE8C2
:10377000EA20EDE0EFF02E202020202000000000C5
:1037800020C8F1F2EEF7EDE8EA20EDE0EFF02E20B0
:103790005E203C3E0000000020C8F1F2EEF7EDE8AC
:1037A000EA20EDE0EFF02E205E3E20200000000039
:1037B00020C8F1F2EEF7EDE8EA20EDE0EFF02E2080
:1037C0005E3E3E200000000020C8F1F2EEF7EDE87A
:1037D000EA20EDE0EFF02E205E203E3E00000000EB
:1037E00020C8F1F2EEF7EDE8EA20EDE0EFF02E2050
:1037F0005E20203E0000000020C8F1F2EEF7EDE868
:10380000EA20EDE0EFF02E205E20203C00000000DA
:1038100020C8F1F2EEF7EDE8EA20EDE0EFF02E201F
:103820005E203C3C0000000020C8F1F2EEF7EDE81D
:10383000EA20EDE0EFF02E205E3C3C20000000008E
:1038400020C8F1F2EEF7EDE8EA20EDE0EFF02E20EF
:103850005E3C2020000000002055F3202020202581
:103860004220496D6178202020207D410000000029
:1038700080C00720205520202020202642204920DB
:103880002020202020202341000000002049EC615E
:10389000782EE8F1F22EEDE0EFF02E2020207D4191
:1038A0000000000050C2072052E158B101280CD09E
:1038B00002280DD003280ED004287FF42AAFAFF2DF
:1038C00080002AE7AFF2D00027E7AFF2BC0024E780
:1038D000AFF2841021E7AFF2B0001EE7AFF6300080
:1038E0001BE7FAA001E7AFF244600890B9F1000FBE
:1038F00002D0AFF238600890AFF288000990AFF2C2
:103900002C600A90AFF27C000B90AFF220600C901C
:10391000AFF210600D90AFF2FC50DFF8C8830E904C
:10392000032A01DD009901E0A94201DA88F80410B8
:103930000198ED4E0F280ADDAFF20863AFF2F452A2
:10394000AFF2E051AFF2CC50FCF7C9FF0CE098F9B0
:10395000045004EB8500001D0EC854F82500FCF748
:10396000BEFF0020FCF757FFDF4D8035B5F8500053
:1039700010B1B5F8520028B900225E21AFF2EC5028
:10398000FCF7DDFFB5F946004FF47A77B84203DA69
:1039900001222B2180B204E090FBFBF080B20022D8
:1039A0002B21FCF773FEB6F95400B94648450ADAF4
:1039B0000122232180B2FCF769FEB6F854000122EF
:1039C000232180B20EE05F4690FBF7F080B2002228
:1039D0002321FCF75BFEB6F95400002290FBF7F0C0
:1039E00080B22321FCF752FEB5F948004F46B84299
:1039F00003DA0122252180B204E090FBFBF080B2C3
:103A000000222521FCF742FEB6F95200B94648458E
:103A10000ADA0122262180B2FCF738FEB6F85200FD
:103A20000122242180B20EE05F4690FBF7F080B2C5
:103A300000222621FCF72AFEB6F95200002290FB54
:103A4000F7F080B22421FCF721FEB5F916004E46AE
:103A5000B04209DA01227D2180B2FCF717FEE88A24
:103A600001227D2180B20EE05F4690FBF7F080B22C
:103A700000227D21FCF70AFEB5F91600002290FB1A
:103A8000F7F080B27D21FCF701FEB5F91400B042D9
:103A900009DA01227B2180B2FCF7F8FDA88A012215
:103AA000402180B20EE05E4690FBF6F080B200222C
:103AB0007B21FCF7EBFDB5F91400002290FBF6F03A
:103AC00080B24021FCF7E2FD98F90400864E0228FE
:103AD000A6F1800630DCF07801287FF478ACFFF79F
:103AE000C5BA00223A21AFF25470FCF728FF002239
:103AF0003A21AFF260706FE46FF0020274217BA094
:103B00006AE4DAF824003C2690FBF6F106FB11008B
:103B1000554680B200227321FCF7B8FD686A002286
:103B200090FBF6F090FBF6F106FB110080B25421F9
:103B3000FCF7ACFD696A59E5F07802287FF452ADD4
:103B4000B5F91C00B5F91A1008437FF44AAD68E2D4
:103B50004FF4616091FBF0F080B200227421FCF719
:103B600095FDB07D0028BCD1DAF83C00012271211E
:103B700080B2FCF78BFD5C488038C078012807D004
:103B8000594A002180320228A2F84A1003F06C83BF
:103B9000554900208031A1F84C0003F065BBDAF8EC
:103BA00028003C2690FBF6F106FB1100554680B23A
:103BB00000227321FCF76AFDA86A002290FBF6F050
:103BC00090FBF6F106FB110080B25421FCF75EFD7C
:103BD000A96A0BE5012B3FF4E2A8AFF28C4739E06C
:103BE000AFF27C470297BCF1000F34D0012B01D01B
:103BF000CBB130E040B1012809D00228EBD0032836
:103C000008D0042809D017E0AFF2744722E0AFF2E1
:103C100060471FE0AFF250471CE0AFF23C4719E0AD
:103C2000AFF6743716E050B101280BD00228D4D07B
:103C300003280AD004280BD00528F1D00BE0AFF2FE
:103C4000484707E0AFF2384704E0AFF2244701E00D
:103C5000AFF214470297AFF200470397AFF6D417BD
:103C60000497022E08D1AFF6C4170497B9F1000FDC
:103C700002D0AFF6B8170497AFF208470597012EA8
:103C800010D0AFF630300690BCF1000F5CD0BEF122
:103C9000000F02D0AFF6B42055E0012BFAD0AFF6FA
:103CA000343050E0AFF624370697BCF1000F4BD00C
:103CB000012B01D07BB347E0F0B101281FD00228CF
:103CC000E8D003281ED004281FD02EE0202020207A
:103CD00020202020202020202020202020202020E4
:103CE0000000000050C2072000C10720EDE5EFF002
:103CF000E5F0FBE2EDEE0000AFF6483023E0AFF672
:103D0000343020E0AFF60C301DE0AFF6F8201AE0BA
:103D1000AFF6C03017E0FFE750B101280BD0022802
:103D2000BDD003280AD004280BD00528F0D00BE022
:103D3000AFF6083007E0AFF6F42004E0AFF6E42079
:103D400001E0AFF6D0200690AFF654400790AFF6F2
:103D5000C4200890012E08D1AFF6B8200890B9F120
:103D6000000F02D0AFF6AC200890AFF65C4009908F
:103D7000AFF6A0200A90AFF2EC400B90AFF6942083
:103D80000C90AFF680200D90AFF67020DFF80C8419
:103D90000E90032A01DD009901E0A94201DA88F8BA
:103DA00004100198FE4E0F280ADDAFF67823AFF617
:103DB0006422AFF65021AFF63C20FCF790FD0CE0FA
:103DC00098F9045004EB8500001D0EC854F8250036
:103DD000FCF785FD0020FCF71EFDF14D8035B5F8A0
:103DE000500010B1B5F8520028B900225E21AFF69C
:103DF0005C20FCF7A4FDB5F946004FF47A77B84291
:103E000003DA01222B2180B204E090FBFBF080B2A8
:103E100000222B21FCF73AFCB6F95400B94648457C
:103E20000ADA0122232180B2FCF730FCB6F85400F4
:103E30000122232180B20EE05F4690FBF7F080B2B2
:103E400000222321FCF722FCB6F95400002290FB4B
:103E5000F7F080B22321FCF719FCB5F948004F4672
:103E6000B84203DA0122252180B204E090FBFBF086
:103E700080B200222521FCF709FCB6F95400B946AE
:103E800048450ADA0122232180B2FCF7FFFBB6F88D
:103E900054000122232180B20EE05F4690FBF7F030
:103EA00080B200222321FCF7F1FBB6F95400002276
:103EB00090FBF7F080B22321FCF7E8FBB6F9520043
:103EC00048450ADA0122262180B2FCF7DFFBB6F86A
:103ED00052000122242180B20EE05F4690FBF7F0F1
:103EE00080B200222621FCF7D1FBB6F95200002255
:103EF00090FBF7F080B22421FCF7C8FBB5F9140061
:103F00004E46B04209DA01227B2180B2FCF7BEFBAB
:103F1000A88A0122402180B20EE05F4690FBF7F0B4
:103F200080B200227B21FCF7B1FBB5F9140000221E
:103F300090FBF7F080B24021FCF7A8FBB5F9160022
:103F4000B04209DA01227D2180B2FCF79FFBE88AAA
:103F500001227D2180B20EE05E4690FBF6F080B239
:103F600000227D21FCF792FBB5F91600002290FBA0
:103F7000F6F080B27D21FCF789FB894E98F90400A8
:103F8000A6F180060228F07842DC02281ED0688B59
:103F900000287FF4B1ADDAF828003C2590FBF5F15C
:103FA00005FB1100564680B200227321FCF76EFB20
:103FB000B06A002290FBF5F090FBF5F105FB1100D3
:103FC00080B25421FCF762FBB16AB4E5B5F91C007C
:103FD000B5F91A1008433FF4DFA9DAF830003C25A0
:103FE00090FBF5F105FB1100574680B200227321CA
:103FF000FCF74CFB386B002290FBF5F090FBF5F1E1
:1040000005FB110080B25421FCF740FB396B9FE5A2
:1040100001287FF4DCA9B5F91C00B5F91810084394
:10402000DBD1DAF834003C2590FBF5F105FB1100FB
:10403000574680B200227321FCF728FB786B0022E0
:1040400090FBF5F090FBF5F105FB110080B25421D7
:10405000FCF71CFB796B7BE5514842F21076803807
:10406000B8F1010F07D0A8F102080746414539DB36
:10407000AFF6885337E0AFF2AC33AFF6905249A1B8
:104080004EA0FCF72CFC002301211A460846FCF741
:1040900020FA504DA869B04202DA80B2012303E051
:1040A00090FBFBF080B2002306220121FCF711FAFD
:1040B000286A012380B20B221946FCF70AFA686AC3
:1040C000002380B20F220121FCF703FA95F83E008D
:1040D00013220121FCF750FB30490120423181F8C5
:1040E00028005AE52FA32FA22EA134A0FCF7F7FB3E
:1040F00099F901004FF00003062800F1010080B299
:104100000ADB01221146FCF7E4F999F901000023CA
:10411000801C80B2012209E000220121FCF7D9F9BC
:1041200099F90100801C002380B21A460221FCF795
:10413000D0F999F90100274DC0EBC00000EB400019
:1041400005EB80008069B04202DA80B2012303E00F
:1041500090FBFBF080B2002306220121FCF7B9F9A5
:1041600099F90100C0EBC00000EB400005EB8000B6
:10417000C06EB04202DA80B2012303E090FBFBF094
:1041800080B2002306220221FCF7A3F999F901006D
:10419000C0EBC00000EB40001EE0000050C2072052
:1041A00000C1072020202020202E202020202E208B
:1041B0002020202020202020000000004E20202051
:1041C000552CC22020492C41202074B043202020AF
:1041D00000000000DCF0072005EB80000123006AEE
:1041E0000B2280B21946FCF774F999F901000123FA
:1041F000C0EBC00000EB400005EB80000B22406FDD
:10420000022180B2FCF765F999F901000023C0EBA7
:10421000C00000EB400005EB80000F22406A012146
:1042200080B2FCF756F999F901000023C0EBC000F9
:1042300000EB400005EB80000F22806F022180B26E
:10424000FCF747F999F902001322C0EBC00000EB1C
:10425000400005EB8000012190F83E00FCF78CFA4D
:1042600099F902001322C0EBC00000EB400005EBFF
:104270008000022190F89200FCF77EFAB7F95810FE
:1042800099F90100891E884252DA062800F10300DC
:1042900080B24FF0000301DB012200E00022032185
:1042A000FCF717F999F90100C0EBC00000EB4000E2
:1042B00005EB8000D0F8C000B04202DA80B20123E2
:1042C00003E090FBFBF080B2002306220321FCF701
:1042D00000F999F901000123C0EBC00000EB400098
:1042E00005EB80000B22D0F8C800032180B2FCF758
:1042F000F0F899F901000023C0EBC00000EB40008A
:1043000005EB80000F22D0F8CC00032180B2FCF72F
:10431000E0F899F902001322C0EBC00000EB400066
:1043200005EB8000032190F8E600FCF725FA34E461
:10433000D249012081F83C002FE4D14BD1A2D7A172
:10434000DCA0FCF7CCFACD490120E04D81F83C001F
:10435000024628885B2180B2FCF798F901225D2192
:1043600002F033BADAA00290DFA00390E448049090
:10437000D6E9012354F82510E2A0FCF7B0FA012099
:10438000FCF749FAD14D002222352121A88800EB03
:10439000800080B2FCF77AF928880022232180B2BD
:1043A000FCF774F92888002200EB80002D3080B2E1
:1043B000402102F057BFC54E2E36BEF1000F01D08E
:1043C000D6A000E0DBA00290E0A00390E5A004905E
:1043D000EAA00590EFA00690F4A00790F9A008903D
:1043E000FEA00990C6480A90022A02DD89F804302E
:1043F00003E0A94201DA89F8041099F9041004EBEA
:104400008100D0E9012354F82110FAA0FCF767FAE3
:104410000120FCF700FA36F9540F3C2590FBF5F12A
:1044200005FB110080B200225B21FCF72FF9B6F9E1
:104430000000002290FBF5F090FBF5F105FB110068
:1044400080B27D21FCF722F9B6F900004FF46167D4
:1044500090FBF7F080B200227B21FCF717F9B6F948
:104460000200002290FBF5F105FB110080B25D21F6
:10447000FCF70CF9B6F90200002290FBF5F090FB76
:10448000F5F105FB110080B22921FCF7FFF8B6F920
:104490000200002290FBF7F080B22821FCF7F6F82A
:1044A000B6F90400002290FBF5F105FB110080B283
:1044B0003E21FCF7EBF8B6F90400002290FBF5F082
:1044C00090FBF5F105FB110080B23C21FCF7DEF812
:1044D000F0880122212180B2FCF7D8F8308901222E
:1044E000402180B2FCF7D2F870890122232180B2EA
:1044F000FCF7CCF80122B089242180B259E7C3A08F
:104500000290C8A00390CDA00490D2A00590D7A09F
:104510000690DCA00790E1A00890E6A00990EBA02F
:104520000A90F0A00B90F5A00C90FAA00D90FFA0BF
:104530000E9066487249D238B0F95E0004EB8000F4
:104540004160AFF678018160AFF68001361DC16031
:104550000ECE0298FCF7C3F999F9010099F90410FD
:10456000421A022A01DD801E01E0884201DA89F840
:1045700004000120FCF74FF9F24D2878012871D092
:104580006FF003022121F0A0FCF7D9F96878012827
:1045900069D06FF003024021EBA000BFFCF7CFF918
:1045A000A878012860D06FF003022321E6A000BFA5
:1045B000FCF7C5F9E878012857D06FF003022421F1
:1045C000E1A000BFFCF7BBF9287901284ED06FF0BD
:1045D00003022521DCA000BFFCF7B1F968790128AE
:1045E00045D06FF003025E21D7A000BFFCF7A7F90A
:1045F000A87901283CD06FF003022621D2A000BF89
:10460000FCF79DF9E879012833D06FF003022A21E5
:10461000CDA000BFFCF793F9287A01282AD06FF0CB
:1046200003022821C8A000BFFCF789F9687A012895
:1046300021D06FF003022921C3A000BFFCF77FF94E
:10464000A87A012818D06FF003022B21BEA000BF6A
:10465000FCF775F9E87A01280FD06FF003023D21CD
:10466000B9A075E176E17AE17EE182E186E18AE155
:104670008EE192E196E19AE19EE1A2E192C20720E9
:10468000ED6C01002049EDE0E3F0203D20202020EA
:10469000205DC02020202020000000002055EDE0FB
:1046A000E3F0203D20202020205BC220202020207D
:1046B00000000000202020202020CDC0C3D0D3C780
:1046C000CAC02020202020200000000052C1072066
:1046D0002046E2E5EDF22EF2E5EAF3F92E20202065
:1046E00020202125000000002046E2E5EDF22E6D9D
:1046F00061782E202820204025292023000000005A
:10470000EC3200002020202020C2C5CDD2C8CBDF53
:10471000D2CED020202020200000000020C2EAEBD2
:10472000FEF7E5ED20202020202020202020202042
:104730000000000020C2FBEAEBFEF7E5ED202020A0
:104740002020202020202020000000002054EFF016
:10475000FFEC2E2020202020307B3A307D3A305B49
:104760000000000020D2EEE1F02E202020202020AA
:1047700030283A30293A305D0000000020D2EFE5C1
:10478000F0E5EAEB2E202020202020303C3A303E7D
:10479000000000002049F1F22EEFF02E2020202012
:1047A00020202020202021C0000000002049F1F21C
:1047B0002EEEE1F02E20202020202020202040C0BE
:1047C000000000002055F1F22EEFF02E20202020D6
:1047D0002020202020202342000000002055F1F25C
:1047E0002EEEE1F02E202020202020202020244228
:1047F000000000002020202020C0C2D2CED0C5C2A0
:10480000C5D0D12020202020000000002020C0C2E0
:10481000D2CECCC0D2DB20CDC0C3D0D3C7CECA202D
:104820000000000020C0E2F2EEECE0F220B93120FE
:1048300020202020202021200000000020C0E2F2C3
:10484000EEECE0F220B93220202020202020402071
:104850000000000020C0E2F2EEECE0F220B93320CC
:1048600020202020202023200000000020C0E2F291
:10487000EEECE0F220B9342020202020202024205B
:104880000000000020C0E2F2EEECE0F220B935209A
:1048900020202020202025200000000020C0E2F25F
:1048A000EEECE0F220B936202020202020205E20EF
:1048B0000000000020C0E2F2EEECE0F220B9372068
:1048C00020202020202026200000000020C0E2F22E
:1048D000EEECE0F220B938202020202020202A20F1
:1048E0000000000020C0E2F2EEECE0F220B9392036
:1048F00020202020202028200000000020C0E2F2FC
:10490000EEECE0F220B931302020202020202920B8
:104910000000000020C0E2F2EEECE0F220B93131FC
:104920002020202020202B200000000020C0E2F2C8
:10493000EEECE0F220B931322020202020203D2072
:10494000000000007AFF0720C2DBCACB2E00000067
:1049500001F081BE6FF002022121CAA014E66FF0BF
:1049600002024021C7A019E66FF002022321C5A070
:104970001EE66FF002022421C2A023E66FF00202BD
:104980002521C0A028E66FF002025E21BDA02DE621
:104990006FF002022621BBA032E66FF002022A214C
:1049A000B8A037E66FF002022821B6A03CE66FF00F
:1049B00002022921B3A041E66FF002022B21B1A02F
:1049C00046E66FF002023D21AEA0C1E7AFA0029023
:1049D000B4A00390B9A00490BEA00590C3A0069017
:1049E000C8480790AFF61C500890AFF62050361D0F
:1049F00009900ECE0298FBF772FF99F9010099F920
:104A00000410421A022A01DD801E01E0884201DA08
:104A100089F804000120FBF7FEFEBB4D0022232194
:104A20002888FBF733FE05F1EE00002240882421A0
:104A3000FBF72CFE02222521DAF82000FBF7A8FC68
:104A400000225E21A88858E590A00290AFA00390B4
:104A5000B4A00490B9A00590BEA00690C3A0079092
:104A6000C8A008909BA00990A0A00A90A5480B9010
:104A7000AFF6A8500C90AFF6AC50361D0D900ECE90
:104A80000298FBF72CFF99F9010099F90410421ADA
:104A9000022A01DD801E01E0884201DA89F8040063
:104AA0000120FBF7B8FE984D0022F435212128881B
:104AB000FBF7ECFD688800224021FBF7E7FDA888A2
:104AC00000222321FBF7E2FDAD1D002228882621CC
:104AD000FBF7DCFD688800222921FBF7D7FDA888B9
:104AE00000222821FBF7D2FD03222521DAF820003D
:104AF000FBF74EFCA5F5B67000225E21B0F87600FB
:104B0000FBE48148923810F80C00552812D0A3A07D
:104B10000290A8A00390ADA00490B2A00590B7A009
:104B20000690BCA00790C1480890012A04DD89F8CE
:104B3000047005E0BEA0EBE7A94201DA89F8041091
:104B400099F9040004EB800154F820204B68BEA1C1
:104B5000C3A0FBF7C4FE0220FBF75DFE99F902003B
:104B60000022401C80B25E21FBF790FD664999F956
:104B700002009231002231F810002121FBF786FD5E
:104B8000614999F902009631002231F91010A748C5
:104B9000493800EB81004021FBF7D1FE5A4999F9D1
:104BA00002009A31002231F810002321FBF76EFD3C
:104BB000554999F902009E31002231F81000242154
:104BC000FBF764FD504899F90210A230002230F83A
:104BD0001100252192E4954BA7A0153B1A461146DA
:104BE000FBF77DFE484D00237E35082295F9000035
:104BF000012180B2FBF76DFC95F90100002380B222
:104C000009220121FBF765FC95F90200002380B21F
:104C10000A220121FBF75DFC96F9012005F1D20083
:104C2000A421115402F020BB99A002909EA00390F1
:104C3000A3A00490A8A00590ADA00690A6A0079000
:104C4000B1A00890B6A00990BBA00A90C0A00B909C
:104C5000C5A00C90CAA00D90CFA00E90D4A00F902C
:104C6000D9A01090DEA01190E3A01290E8A01390BC
:104C7000EDA01490F2A01590F7A01690FCA017904C
:104C800002E20000C2CACB2E000000002020DDCBD3
:104C9000C5CAD2D0CED1CDC0C1C6C5CDC8C52020D1
:104CA0000000000020C2E2EEE4202020202020208E
:104CB00023C22020202020200000000020CFDDD1B2
:104CC000202020202020202024C22020202020203E
:104CD000000000002050F1F3ECEC2E2020202020DA
:104CE000202025EAC2F22AF7000000002050F2E559
:104CF000EAF3F92E2020202020205EC2F22020207E
:104D000000000000EC32000072C1072020C2E2EE79
:104D1000E420F42E412020202021C2202020202029
:104D20000000000020C2E2EEE420F42E4220202009
:104D30002040C220202020200000000020C2E2EEFF
:104D4000E420F42E432020202023C22020202020F5
:104D50000000000020CFDDD12020F42E41202020B3
:104D60002026C220202020200000000020CFDDD1FE
:104D70002020F42E422020202029C2202020202084
:104D80000000000020CFDDD12020F42E4320202081
:104D90002028C220202020200000000020C2FBE2AA
:104DA000E5E4E5EDE02030212F4020202F302320C6
:104DB0000000000020CDEEECE8ED2EE5ECEA2E2020
:104DC0002020202024412AF70000000020CDE0F020
:104DD000E0E1EEF2EAE020202020202025F72E203E
:104DE0000000000020CAEEEDF2F0EEEBFC20E5EC56
:104DF000EAEEF1F2E82020200000000020C2FBF0E3
:104E0000E0E2EDE8E2E0FEF9E8E920E7E0F0FFE4C7
:104E10000000000020D0E0E7F0FFE4FB202020208D
:104E2000202020202020202000000000ED6C010028
:104E300020C2E2E5E4E5EDE0202030212F402020F3
:104E40002F302320000000002020202020C1C0D2CD
:104E5000C0D0C5DF204E5E202020202000000000B2
:104E600020C1C0D2C0D0C5C9CDDBC920C6D3D0CDEA
:104E7000C0CB2020000000002020C2E2E5E4E8F2E0
:104E8000E52020EFE0F0EEEBFC2020200000000009
:104E900020C8F1F2EEF7EDE8EAEEE2202020202033
:104EA000202020210000000020CCE0EAF1E8ECE026
:104EB000EBFCEDE0FF20E4EBE8F22D200000000029
:104EC00020F1F2FC20EFF0EEF6E5F1F1E0202030E9
:104ED0005B3A305D0000000020CEF2EEE1F0E0E64B
:104EE000E5EDE8E520E2F0E5ECE5EDE800000000A6
:104EF00020EFF0EEF6E5F1F1E02020202020202048
:104F0000202020400000000020EDE020EFF3EBFC2B
:104F1000F2E5202020202020202020230000000077
:104F200020C8E7ECE5F0E5EDE8E520F2EEEAE02068
:104F3000202020200000000020EDE0E3F0F3E7EA6D
:104F4000E820202020202020202020240000000015
:104F500020D0E5E6E8EC20E3EBE0E2EDEEE3EE2046
:104F6000ECE5EDFE00000000202020202020202085
:104F700020202020202020202020202500000000AC
:104F800020D4E8EAF1E8F0EEE2E0EDEDFBE52020E8
:104F90002020202000000000202020202020202091
:104FA000202020EDE0F1F2F0EEE9EAE80000000058
:104FB00020D0E5EBE52020202020202020202020EC
:104FC000202020200000000020F2EEEAEEEEE3F0C8
:104FD000E0EDE8F7E5EDE8FF2020202000000000EC
:104FE00020D0E5EBE520EAEEEDF2F0EEEBFF20203D
:104FF000202020200000000020EDE0EFF0FFE6E59B
:10500000EDE8FF20202020202020202000000000AC
:1050100020D0E5F1F2E0F0F2202020202020202016
:105020002020205E000000002045746865726E65D7
:10503000742020202020202020202020000000009C
:10504000204D4F4442555320414452455353202054
:105050002020203C00000000204D4F4442555320AA
:105060004241554452415445202020200000000078
:105070002020202020202020202020202020202030
:1050800020203E3000000000BEA01890C3A0199060
:10509000C8A01A90CDA01B90D2A01C90D7A01D90A4
:1050A000DCA01E90E1A01F90DAA02090E5A0219046
:1050B000EAA02290EF482390EFA02490F4A025903E
:1050C000F94826902790022A01DD337102E0A942B7
:1050D00000DA317199F9040004EB8001D1E9012370
:1050E00054F82010F1A0FBF7FAFB0120FBF793FB2B
:1050F000F44D00222121B5F8580080B2FBF7C6FA22
:10510000DAF82C103C2091FBF0F191FBF0F200FB5F
:105110001210564680B200225D21FBF7B7FAF16A01
:105120004FF4616091FBF0F080B200225B21FBF74D
:10513000ADFA05F580766FF00607B08B18B1BA1C92
:105140004021E1A002E03A464021E1A0FBF7F7FB55
:10515000F08B6FF003024FF0230108B1DFA000E0F5
:10516000E0A0FBF7ECFBB08C20B16FF00202242131
:10517000DEA002E03A462421DEA0FBF7E0FB95F832
:105180002C00A0B3012838D06FF0100202284FF095
:10519000250137D0DAA000BFFBF7D1FB95F82D0031
:1051A000012831D06FF003025E21AFF6640000BF2A
:1051B000FBF7C5FBC34E002280363C21708F80B2C6
:1051C000FBF764FAB08F00223E2180B2FBF75EFA53
:1051D000B6F93E004FF000024FF02801D0B180B286
:1051E000FBF754FA01222B21B5F84A002BE4FFE724
:1051F0006FF00B022521C7A0CEE76FF01102252129
:10520000C8A0C9E7CCA0C7E76FF002025E21AFF2E9
:105210008C50CDE7AFF6D000FBF791FBE2E7A94D4C
:10522000687A401CC0B268720F2807D30020711C36
:10523000C9B26872A976032900D3A876C348029040
:105240002A380390A87E20B1012804D0022818D063
:1052500003E0BFA000E0C4A0049002AEC8A00ECE40
:10526000FBF73DFBCC4890F9010060B101280FD05D
:10527000022812D0032815D0042818D005281BD0E6
:105280001EE0C6A0E8E7C449423181F82A9017E041
:10529000C149423181F82D9012E0BF48423080F878
:1052A00030900DE0BC49423181F8339008E0BA49B2
:1052B000423181F8369003E0B749423181F83A90A3
:1052C000BC4E30784FF000024FF02601FBF7DEF9BC
:1052D000307900225E21FBF7D9F9307A00222521AE
:1052E000FBF7D4F9307B00223C21FBF7CFF9317E6C
:1052F000964800225E3800EB81003E21FBF71FFB41
:10530000B08B00227B21FBF7C1F9A87D002801F0BA
:10531000AB873A20FBF702F89F4D202642352E54EA
:105320003A20FAF7FBFF2E547CE4884A2AAB163267
:1053300007CA07C3A0A00290A5A00390AAA004904A
:10534000AFA00590B4A00690B9A00790BEA00890A9
:10535000C3A00990C8A00A90CDA00B90D2A00C9039
:10536000D7A00D90DCA00E90E1A00F90E6A01090C9
:10537000EBA01190F0A01290F5A01390FAA0149059
:10538000FFA009E220C0E2F2EEF0E5E2E5F0F12054
:1053900020202020202020200000000020CFEBE053
:1053A000E2EDEEE520EDE0F0E0F1F2E0EDE8E52001
:1053B0000000000020F2EEEAE02020202020202043
:1053C00020202028F1E5EA2E0000000020D3EFF095
:1053D000E0E2EBE5EDE8E520F1F3F5E8EC20202054
:1053E0000000000020EAEEEDF2E0EAF2EEEC202010
:1053F00020202020202020200000000020CDE0F1EF
:10540000F2F0EEE9EAE020F0E5EBE52020202020B4
:105410000000000020C2FBEAEBFEF7E5EDE8E52026
:10542000EFEE2020202020200000000020F1F7E5F2
:10543000F2F7E8EAF320E0ECEFE5F0F7E0F1EEE276
:105440000000000020F1EDE8E6E5EDE8FE20F2EED8
:10545000EAE0202020202020000000002055E0E28B
:10546000E0F020202020202020202020202B42207F
:1054700000000000EC32000020CAE0EBE8E1F0EEB2
:10548000E2EAE02020202020202020200000000050
:1054900020D2E5F1F220D8C8CC20202020202020E6
:1054A0002020202000000000CC3C000020202020F4
:1054B00020D3D1D2C0CDCEC2CAC8202020202020E7
:1054C0000000000080C00720EFF0FFECEEE50000D8
:1054D000EEE1F0E0F2EDEEE500000000F7F73AEC67
:1054E000EC000000ECEC3AF1F1000000F8F3EDF212
:1054F00000000000F1F3ECEC49E1EFF100000000E6
:10550000E8F1F22EEDE0EFF02E2DE8F1F22EF2EEC2
:10551000EAE00000E8F1F2EEF7EDE8EA20F2EEEA68
:10552000E0000000E8F1F2EEF7EDE8EA20EDE0EF50
:10553000F0FFE6E5EDE8FF00E8F1F22EF2EEEAE03A
:105540002DE8F1F22EEDE0EFF02E0000026D0100EB
:1055500020202020203C3E202D20E2FBE1EEF02008
:1055600020202020000000002020205E76202D201A
:10557000F3F1F2E0EDEEE2EAE0202020000000008E
:1055800020D3D1D2C0CDCEC2CAC02020C2D0C5CC7B
:10559000C5CDC8200000000050C2072020202020D8
:1055A00020A420202D20E2FBF5EEE4202020202066
:1055B00000000000204002402045746865726E655E
:1055C0007420202020202020202021200000000006
:1055D0002044484350EAEBE8E5EDF220202020206B
:1055E0002020402000000000204950E0E4F0E5F1D8
:1055F000202020202020202020202020000000002B
:1056000020203030302E3030302E3030302E3030C0
:10561000232020200000000020CCE0F1EAE020EF71
:10562000EEE4F1E5F2E82020202020200000000038
:1056300020203030302E3030302E3030302E303090
:10564000242020200000000020D8EBFEE7202020AE
:1056500020202020202020202020202000000000CA
:1056600020203030302E3030302E3030302E303060
:10567000292020200000000020CFEEF0F22EF7F2CB
:10568000E5EDE8FF202020202020205B0000000026
:1056900020CFEEF0F22EE7E0EFE8F1E82020202026
:1056A0002020205D0000000020436F6D6D756E6945
:1056B0007479203C202020202020202000000000A1
:1056C00020C0E4F0E5F1E0F220E4EBFF2054524189
:1056D00050204E310000000020203030302E30307D
:1056E000302E3030302E30302520202000000000B9
:1056F00020C0E4F0E5F1E0F220E4EBFF2054524159
:1057000050204E320000000020203030302E30304B
:10571000302E3030302E30305E202020000000004F
:1057200020C0E4F0E5F1E0F220E4EBFF2054524128
:1057300050204E330000000020203030302E30301A
:10574000302E3030302E3030262020200000000057
:1057500020C0E4F0E5F1E0F220E4EBFF20545241F8
:1057600050204E340000000020203030302E3030E9
:10577000302E3030302E30302A2020200000000023
:1057800020C0E4F0E5F1E0F220E4EBFF20545241C8
:1057900050204E35000000001590FAA01690FF48EA
:1057A000FF4D179040F61807B5F8720018B138464B
:1057B00009F00AFA28B1F948039000F51E60049038
:1057C000059096F9010096F90410884201DA3071CB
:1057D00004E0411A022901DD801EF8E796F9040071
:1057E00004EB8001D1E9012354F82010EDA0FBF770
:1057F00076F80120FBF70FF8B5F8720050B1384683
:1058000009F0E2F9012805D06FF002022121AFF67C
:105810008C3004E06FF003022121AFF6D460FBF777
:105820008EF8B5F8740028B16FF002024021AFF68F
:10583000AC3004E06FF003024021AFF6F460FBF7F8
:105840007EF871782320022949D00021CDE900019A
:10585000B5F97C30B5F97A20B5F97810B5F976004C
:10586000FAF77BFE7178242004293CD05FF0000118
:10587000CDE90001CA488030B0F90430B0F9022007
:10588000B0F90010B5F97E00FAF767FE71782920AB
:1058900006292CD05FF00001CDE90001C04880301E
:1058A000B0F93830B0F93620B0F93410B0F9320020
:1058B000FAF753FEBA4D002280355B21E88D80B2A5
:1058C000FAF7E4FE288E00225D2180B2FAF7DEFEB0
:1058D000B5F906006FF00D07FF280CD014E0B17881
:1058E000491CC9B2B2E7B178491CC9B2C0E7B17866
:1058F000491CC9B2D0E72989FF2905D16989FF2947
:1059000002D1A989FF2914D0727825210B2A16D03B
:105910005FF00002CDE90012B5F90C30B5F90A20AC
:10592000B5F90810FAF719FEB5F90E00FF280AD0EC
:1059300012E03A462521A1A0FBF701F8F4E7B2787E
:10594000521CD2B2E6E7298AFF2905D1698AFF29CC
:1059500002D1A98AFF2912D071780D2915D0002112
:10596000CDE90091B5F91430B5F91220B5F9101050
:10597000FAF7F3FDB5F91600FF280AD012E03A460F
:105980005E218EA0FAF7DBFFF4E7B178491CC9B2BB
:10599000E6E7298BFF2905D1698BFF2902D1A98B65
:1059A000FF2914D0727826210F2A16D05FF000024A
:1059B000CDE90012B5F91C30B5F91A20B5F9181067
:1059C000FAF7CBFDB5F91E00FF280AD012E03A46DF
:1059D00026217AA0FAF7B3FFF4E7B278521CD2B2CC
:1059E000E6E7298CFF2905D1698CFF2902D1A98C12
:1059F000FF2914D072782A21112A16D05FF00002F4
:105A0000CDE90012B5F92430B5F92220B5F92010FE
:105A1000FAF7A3FDB5F92600FF280AD012E03A46AE
:105A20002A2166A0FAF78BFFF4E7B278521CD2B2B3
:105A3000E6E7298DFF2905D1698DFF2902D1A98DBE
:105A4000FF2925D072782821132A27D05FF0000281
:105A5000CDE90012B5F92C30B5F92A20B5F9281096
:105A6000FAF77BFD5A4900202AAA0B5C1354401C0C
:105A7000C0B20928F9D300208DF8B1007078B2784F
:105A80000A280FD000233C212AA8FAF749FD4BE44D
:105A90003A46282149A0FAF752FFE3E7B278521CB0
:105AA000D2B2D5E70123EEE73D4E8036B6F840008E
:105AB00001280ED047A002904CA0039037480490D4
:105AC00000F51E60059006904846A94203DA017170
:105AD00004E04CA0EFE7012A00DD077199F904000A
