:020000040000FA
:10000000B8300820E1000000E5000000E700000033
:10001000E9000000EB000000ED000000000000001F
:10002000000000000000000000000000EF000000E1
:10003000F100000000000000F30000003DC50000DA
:10004000F7000000B1E10000DDE10000F700000072
:10005000F70000003BFF0000F7000000F700000081
:10006000F7000000F7000000F7000000F7000000B4
:10007000F7000000F7000000F7000000F7000000A4
:10008000F7000000F7000000F7000000F700000094
:10009000F7000000F700000081280000F7000000D2
:1000A000F70000000FFD0000F7000000F70000005F
:1000B000BD300100F7000000F7000000F70000006D
:1000C000F7000000F7000000F7000000DFF80CD098
:1000D00013F0DCF800480047B1C60000B830082033
:1000E00005480047FEE7FEE7FEE7FEE7FEE7FEE71E
:1000F000FEE7FEE7FEE7FEE7CD000000FEE710B5F5
:1001000014F078FF15F004F814F0F6FF14F084FFF3
:10011000AFF30080BDE8104014F0C0BF10B515F07B
:10012000D1FD16F013FB15F025FEBDE8104015F0CB
:100130009DBF15F0E5BC15F0ADBA09B100207047C0
:1001400014F002B80020704770B5374A0020A2F1C1
:100150001401064601F10A030C5C54B11D5CAC426B
:1001600007D1145C2CB1641E14F0FF04145400D1A8
:100170000E540C5C1C54401CC0B20A28ECD370BD59
:1001800070B5294D0024143D641CE4B22E5D1EB1EF
:10019000864201D00A2CF7D3285523480C3040F86A
:1001A0002410283040F824203438035570BD1E4AEE
:1001B0000021143A491CC9B2535C834201D00A2978
:1001C000F8D3DBB2834210D117480C3050F82130FD
:1001D00016480360144B343353F821304360002039
:1001E0005054114A505401207047002070470E4A65
:1001F0000021143A491CC9B2535C834201D00A2938
:10020000F8D3DAB282420CD107480C3050F82120E2
:1002100006480260044A343252F82110416001203D
:10022000704700207047000068E3072008C00720DF
:100230000A4BDA6018705970704708490881704796
:100240000648B0F90810002907D0491E09B20181FB
:10025000002902D1084600F01BBB70475000001077
:1002600090F900308B4200DA027090F9003093422E
:1002700000DD0170704790F900308B4200DA0170A8
:1002800090F90010914200DD02707047B0F9003023
:100290008B4200DA0180B0F90010914200DD02804B
:1002A0007047B0F900308B4200DA0280B0F90030BC
:1002B000934200DD0180704703688B4201DB1946E1
:1002C00000E00160914200DD02607047064A054B84
:1002D00091785854491CC8B29070202801D1002050
:1002E00090707047CEFD0720F8E0072001460020FF
:1002F00000E0401C0A5C002AFBD17047FFFFFFFFB3
:10030000002801DA404200B270470020FF4A202155
:100310001154401CC0B2C828FAD370470146FB4AAA
:100320000020401CC0B2135C8B4201D0C828F8D317
:10033000704710B50021F64C0A2200BFB0FBF2F363
:1003400002FB13006054491CC9B218460529F5D3B5
:1003500010BDF0B5EF4B0121202719700521EC4AA3
:10036000002601E01C7844B1541814F8015C25B94A
:10037000814202D904F8017C05E0541814F8015DAB
:10038000303525701E70491E11F0FF01EAD1F0BD15
:10039000FEB52B23002801DA40422D2300250A2632
:1003A0006C46074690FBF6F006FB107767556D1C10
:1003B0006DB20A2DF5DB012600250920202700E07B
:1003C00046B114F800C0BCF1000F03D1904201DD2A
:1003D000275405E0265C3036265400266D1CEDB20D
:1003E000401E40B20028EBDA2D2B02D163556D1C64
:1003F000EDB26AB168B205E0231813F8013C23544A
:10040000401E40B29042F7DC2E206D1CA054EDB28D
:100410000846FFF783FF0021BC4A04E0635C461AEC
:10042000491C935549B2A942F8DBFEBDFEB52B2607
:10043000002801DA40422D2600240A276D46844612
:1004400090FBF7F007FB10CC05F804C0641C64B205
:100450000A2CF4DB0127002009244FF0200C00E0D7
:100460004FB115F804E0BEF1000F04D19C4202DD4B
:1004700005F804C005E02F5D30372F550027401CDC
:10048000C0B2641E64B2002CEADA2D2E02D12E54C2
:10049000401CC0B26BB144B205E02E1916F8016CD5
:1004A0002E55641E64B29C42F7DC2E24401CEC5492
:1004B000C0B201EB810102EB8101CAB20021934B72
:1004C00004E06C5C561A491C9C5549B28142F8DB29
:1004D000FEBD70B50D4616461C46FFF72AFF601C90
:1004E000C0B2FFF736FF05EB850006EB8000C1B216
:1004F000874A864B0020A04201D2155C5D5406D38A
:10050000155C202D03D04CB15E1806F8015C491E25
:10051000401CC0B2C9B20528EDD370BD5D54F6E7EA
:1005200070B50446084615461E46FFF7F7FE774BA2
:100530000146FF2804D106E01A54641C401CC0B2D6
:100540002278002AF8D174480078002804D0002EC0
:1005500002D029445F20585470BD2DE9FF4F8146D9
:10056000DDE90D048A469346FFF7D8FE2022DFF826
:10057000A88166490A234FF0640C012C09D198F830
:10058000005035B10D18A5F10E05AA706A702A70D9
:1005900020E099FBF3F603FB16970D183037A5F111
:1005A0000E05022CAF7096FBF3F703FB176606F1FE
:1005B00030066E7099FBFCF606F1300605F80E6BFE
:1005C00008D198F800602EB1A5F10A05AA706A70EA
:1005D0002A7021E09AFBF3F603FB16A70D183037BB
:1005E000A5F10A05032CAF7096FBF3F703FB176622
:1005F00006F130066E709AFBFCF606F1300667468F
:1006000005F80A6B08D198F800602EB1A5F106052F
:10061000AA706A702A7022E09BFBF3F603FB16B700
:100620000D183037A5F10605042CAF7096FBF3F7D3
:1006300003FB176606F130066E709BFBFCF606F1B5
:100640003006674605F8066B09D198F8004034B1CA
:10065000A5F102050A546A702A70BDE8FF8F039C59
:1006600094FBF3F203FB124430340C5492FBF3F48A
:1006700003FB14220844A0F10200303242700399B7
:1006800091FBF7F101F130010170E6E770B50D461D
:100690001446FFF74EFE601CC0B2FFF75AFE284614
:1006A000FFF73CFE1A4B194A002124B95D5C202D4E
:1006B00001D015540FE0A14201D25D5CF9E704D1ED
:1006C0004FF02E0515545D5C02E05D5C202D02D0DC
:1006D000161806F8015C401E491CC9B2C0B20529B3
:1006E000E3D370BD17B501EB810002EB8000C2B20D
:1006F0009DF80030094803F00F0100EB1313445C30
:1007000002498C54521ED2B21B7809E06A020010D2
:10071000DE030010E30300107A000010AE76010043
:100720008B549DF80130521E03F00F04D2B2045DC9
:100730008C54521E00EB1313D2B21B788B549DF8CD
:100740000230521E03F00F04D2B2045D8C54521ECC
:1007500000EB1313D2B21B788B549DF80330521E5A
:1007600003F00F04D2B2045D8C54521E00EB131040
:10077000D2B2007888541EBD01EB810102EB8101E9
:10078000824A10B500F00F03C9B2D45C804B02EB73
:1007900010105C54491EC9B20078585410BD01EBCA
:1007A000810102EB8101CBB2784910B500F0010262
:1007B0008C5C774AD45444085B1E04F00100DBB221
:1007C000085CD0545B1ED8B2630803F001045B08D8
:1007D0000C5D1454401E03F00104C0B20C5D1454AF
:1007E0005B08401E03F00104C0B20C5D14545B08AA
:1007F000401E03F00104C0B20C5D14545B08401E9F
:1008000003F00104C0B20C5D1454401EC4B2580879
:10081000085C105510BD30B55E4901235C4D91F95F
:10082000012091F9041000EB80048A4202D105F8FE
:10083000243030BD564D4C1C00EB800005EB800091
:10084000A24201D1037530BD8C1CA24202D180F8B6
:10085000283030BDCC1CA24202D180F83C3030BDE3
:100860000C1DA24202D180F8503030BD4C1DA24276
:1008700002D180F8643030BD8C1DA24202D180F8D4
:10088000783030BDC91D8A42FBD180F88C3030BD34
:10089000414B1A88521E104400B218803F4A00EBA8
:1008A000800002443B481368036012790271427869
:1008B000114441707047F0B5374D384FB5F90040DD
:1008C00004EB8406641C2C80324C3E442568356061
:1008D00025793571207061702271A370F0BDF0B57B
:1008E00005460E461746FFF710FD294C5FF0000045
:1008F000401C15F8011BC0B204F8011B1428F7D3E3
:100900005FF00000401C16F8011BC0B204F8011B88
:100910001428F7D35FF00000401C17F8011BC0B289
:1009200004F8011B1428F7D35FF00000401C13F8F3
:10093000011BC0B204F8011B1428F7D3F0BD30B579
:10094000044608461546FFF7E9FCFF2809D0104A7F
:100950002178002905D04319641C401CD154C0B231
:10096000F6E730BD10B5029CFFF7B9FF0948C37820
:10097000827841786420FFF79EFF642094FBF0F0BA
:10098000BDE81040C0B2FFF758BC0000AE760100D1
:100990006A020010280200109A000010FC6D00107E
:1009A000F0B5FF48FF494FF4FA72B0F90000B1F911
:1009B0000010FD4B484390FBF2F01880F84841F2DC
:1009C00088332030B0F90000484390FBF2F0F7493B
:1009D000FA4A0880F749F648B1F90040F64900881C
:1009E000B1F90010001B484390FBF3F01080001B8E
:1009F000484390FBF3F0F249F44B0880F14801883A
:100A0000F148B0F9004081B9002108460AE000BF72
:100A1000C0EBC00505EB450503EB8505401C2D6AC1
:100A2000C0B22944A042F3DB1180B2F900000021DA
:100A3000002800DA11800022C2EBC20000EB400067
:100A400003EB8000C578192D1BD28579C67905EB9B
:100A500006260662067A477A06EB0726C661867A7C
:100A6000C77A06EB07268661067B466280F84E5001
:100A7000857B80F83E50057C467C05EB0625856429
:100A800006E081610162C161416280F83E108164CB
:100A9000521CD2B2202ACFD3CD48CE490088604321
:100AA0000880CD48CD49008860430880F0BDCC481F
:100AB000416821F4402141F480214160416821F4E2
:100AC000403141F480314160416821F4404141F4BA
:100AD00080414160416C21F4402141F40021416496
:100AE000416C21F4403141F400314164416C21F406
:100AF000404141F400414164BA48016821F0E0619D
:100B00000160016841F400110160016821F4803145
:100B10000160016821F47F4141F480710160811519
:100B2000C160B1488903016070472DE9F041AF4CC5
:100B300060882188401A00B201F05EFEA51D288061
:100B4000A0886188401A00B201F056FE6880A08833
:100B50002188401A00B201F04FFE4FF49672A8802F
:100B6000A4F12C01904201DAA0880AE0B5F9020054
:100B7000904201DA608804E0B5F90000904201DAA1
:100B80002088C8824C7800231CB38548B1F9162010
:100B90004030056815440560456815444560856822
:100BA00015448560C5682A44C260CA8B521C12B2C3
:100BB000CA83B2F5805F00DBCB83B1F91E209505B7
:100BC00035D1921250F822502D128D8240F82230E9
:100BD0002DE0874F887891F803C007EBC012B1F978
:100BE00016E042F82CE05FEA8C7212D100252A460A
:100BF00007EBC01656F82270521CD2B23D44202A90
:100C0000F8D36A11664D25F8102005F1200222F86C
:100C100010E0401CC0B28870102808D30CF1010C01
:100C20000CF0FF008B70C870202800D3CB70641CC0
:100C30000B7014F001006B4A487005D0106820F06A
:100C4000FF00001D106034E0897808070028106854
:100C500020F0FF0002DB00F1010001E000F10200E2
:100C600010606448036843F080530360036A43F0F4
:100C700080430362036E43F080630366CB074369DE
:100C800008D043F0805343618B07436B05D423F0B6
:100C9000804304E023F08053F5E743F0804343634F
:100CA0004907416F02D421F0806101E041F0806189
:100CB0004167106840F080701060BDE8F0812DE958
:100CC000F04F4D49B1F9000018B1A0F101000880C2
:100CD000EFE00A20088049490023DFF824B1DFF85B
:100CE00024810B7064208BF8000088F800003648DF
:100CF0001A46B0F9004035480EE000BFC2EBC2050D
:100D000005EB450500EB8505ED78142D02D20D7835
:100D10006D1C0D70521CD2B2A242EFDB09788A46DC
:100D2000022979D331492C39897A002974D0364A7D
:100D300041F28831DFF8D4C01160354DCCF8003075
:100D400000212B6020E000BFC1EBC10606EB460688
:100D500000EB8606B778012F14D1366ADCF80070F4
:100D6000B146BE4203DDCCF8009088F80010176849
:100D7000B94503DAC2F800908BF800102F6809EB30
:100D800007062E60491CC9B2A142DDDB2E6896FB26
:100D9000FAF5204E35601668012506B915603CE06D
:100DA0009C6D001032C0072036010010DC030010DB
:100DB0002A240010EA0300108CC00720380100101C
:100DC00080C0072088010010BA000010C4E307208B
:100DD00064010010840100106601001086010010FB
:100DE00000C002400040034000E100E03C00001071
:100DF0009C65001000C00920980300101804001022
:100E0000B9C007201904001010040010ACC007205E
:100E1000B0C007201404001035E0DCF8006064273F
:100E200012687E4396FBF2F2DFF8F8C3FE4EA02A6A
:100E3000CCF8002000DD3570782A01DA337038E014
:100E40003278012A35D1F94A1678EEB1137098F844
:100E50000020A24209DAC2EBC20202EB420200EB1E
:100E6000820232F8503F5B1E1380C1EBC10101EBDF
:100E7000410100EB81006FF03102B0F95010914256
:100E800011DAA0F8502014E015709BF80020A2425F
:100E9000EBDAC2EBC20202EB420200EB820232F852
:100EA000503F5B1CE0E7322903DD4FF03201A0F830
:100EB000501000BFBDE8F08F10B50021D0200DF01C
:100EC000F4FE0021BDE81040D4200DF0EEBE70B558
:100ED000D74CD8480025217851B3D749098839B370
:100EE000D64A0168B2F9002011440160B1F5616F82
:100EF0001FDBD34EA1F56161016031684FF49E7034
:100F0000491C31600DF0D1FECE493068B1F90010B6
:100F100088420EDB2570FFF7CFFF00231A46012120
:100F20007820FFF7C8FCBDE870400020FFF785B9C6
:100F3000056070BD70B5BE4CC34AC4482578002119
:100F4000F5B3C34B1B88DBB3C24EB0F90030B6F922
:100F50000060B34202DA5B1C038070BD0020012DEB
:100F600002D0022D02D004E0BB4800E0BB48B0F93B
:100F70000000BB4BB3F900305843642390FBF3F0FF
:100F8000B84B00B21880AD4BB3F90030834216DA8B
:100F90001088401C00B21080B34AB2F90020904281
:100FA000DBDB2170FFF788FF00231A46022178203F
:100FB000FFF781FCBDE870400020FFF73EB900E07C
:100FC00001E0118070BD0180F9E72DE9F05FDFF8E5
:100FD0006082DFF898B2A64D98F80000A54FDFF8C0
:100FE0009892012600244FF4167A012862D1A34872
:100FF0000168491C91FBFAF201600AFB121030B93A
:101000009F480078012802D1D0200DF04EFED9F87B
:101010000010484609B1491E016008469949B1F9D6
:10102000001008430CD188F80040FFF745FF00236B
:101030001A4619467820FFF73EFC0020FFF7FDF81E
:1010400091480088B0B3BBF8000098B38F4B188864
:10105000401C01B28E481980027832B1012A0CD0AE
:10106000022A15D0032A1CD024E08A4A2E70B2F935
:10107000002091421EDB06701BE039B185F800406C
:10108000B7F90020914215DB022108E02E70F7E746
:10109000814A2C70B2F9002091420BDB03210170D0
:1010A00007E0A9B185F80060B7F90020914201DBA3
:1010B00004701C8098F8000002285CD16F48016819
:1010C000491C91FBFAF201600AFB121010B108E012
:1010D0002C70E9E76A480078012802D1D4200DF08D
:1010E000E4FDD9F80010484609B1491E01600846E0
:1010F0006A49B1F9001008430CD188F80040FFF7A5
:10110000DBFE00231A4619467820FFF7D4FB0020A7
:10111000FFF793F85C48008800282CD0BBF800004B
:10112000002828D059480188491C0AB25849028031
:101130000B786BB1012B13D0022B1ED0032B1AD1CD
:1011400022B32E70B7F900309A4214DB0C7011E014
:10115000504B2E70B3F900309A420CDB0E7009E050
:1011600032B12C70B7F900309A4204DB02220BE056
:101170002E70F7E70480BDE8F09F474B2C70B3F961
:1011800000309A42F7DB03220A70F3E72C70D9E7AC
:1011900070B527480078032843D1414941480A687F
:1011A000521C0A60B0F900503F48B0F900002B18FB
:1011B0003E48B0F900001C183D48B0F90000261860
:1011C0000020964204DC3B4E08603288521C32807C
:1011D0000968394E0122A94201DB327000E030700B
:1011E000364D8B4203DC8C4201DD2A7000E0287012
:1011F00033490A88521C12B20A80B2F5167F10DBFE
:10120000088030490A88521C12B20A803C2A08DB46
:1012100008802D490A88521C12B20A80182A00DB65
:10122000088070BDB4C00720B8C00720BAC007202E
:10123000670000100804001026010010380100109B
:101240002002001028010010A6C007200C04001086
:101250002A01001030010010AA0100107A010010CC
:101260002C010010A8C0072032010010B6010010A8
:1012700069000010BC0100101802001014020010D8
:10128000910000107C010010B4010010A0C00720E4
:101290006A000010B8010010BA0100107E010010B1
:1012A0001C020010C6010010C8010010CA01001085
:1012B000CC010010D2010010A4C0072004040010CB
:1012C00000040010A2C00720020400100121D02059
:1012D0000DF0EBBC0121D4200DF0E7BC70B5F8484F
:1012E000012500240570F748F8490460F6480068B5
:1012F0000860FFF7EBFFF648057244728472F54808
:10130000008840B1F448008828B1F4480480F448CB
:101310000470F4480570F44821460460F348046002
:10132000BDE870404FF49E700DF0BFBCE44910B5AD
:1013300002200870E3480024E4490460EC48006897
:101340000860FFF7C7FFE24801210172447284720E
:10135000E048008840B1E048008828B1DF480480B8
:10136000DF480470DF480170DF4821460460DF4831
:101370000460BDE810404FF49E700DF096BCD0495B
:10138000032008707047CE49002008707047CC4990
:10139000002008707047D748B0F9001011B1491EFD
:1013A00001807047D44900200880D44908807047E4
:1013B000C34900200870D2490860D2490880D24948
:1013C0000880D2490880D24908807047BC49002073
:1013D000087071E52DE9F041002406464FF4FA75D6
:1013E000A046274628460DF069FBB04229DA00BF27
:1013F00005EB47000DF062FBB04200DC3C460A37CB
:101400003FB2C82FF4DDC82C0EDA04F10A0708E059
:1014100005EB44000DF052FBB04200DCA046641C1A
:1014200024B2BC42F4DB0CE05FF0C80405EB4400DE
:101430000DF044FBB04200DCA046641C24B2CA2C70
:10144000F4DD404639E42DE9F041002406464FF42E
:101450007A75A046274628460DF030FBB04228DAC0
:1014600005EB47000DF02AFBB04200DC3C460A3792
:101470003FB2C82FF4DDC82C0EDA04F10A0708E0E9
:1014800005EB44000DF01AFBB04200DCA046641CE2
:1014900024B2BC42F4DB0CE05FF0C80405EB44006E
:1014A0000DF00CFBB04200DCA046641C24B2CA2C38
:1014B000F4DD4046C6E72DE9F05FDFF85892964F1D
:1014C000964E99F80000964C322542F2ED784FF096
:1014D000000A40F2FE3B45282AD13078012858D135
:1014E0002088401C00B22080404509DB86F800A01F
:1014F0008C49AC200DF09FFB00210846FFF7C8F98E
:101500008949A1F800B0B4F9001091FBF5F005FB92
:10151000101100EB80023A80312909D14FF4FA71A1
:1015200001EB4000814900B2B1F900100DF083FBDE
:1015300099F8000044282CD13078012829D120883E
:10154000401C00B22080404509DB86F800A07549A8
:10155000AE200DF070FB00210846FFF799F9A7F8BF
:1015600000B0B4F90010704B91FBF5F005FB1011C1
:1015700000EB80021A8031290BD14FF47A7101EB14
:1015800040006B4900B2B1F90010BDE8F05F0DF00A
:1015900052BBF0E52DE9FC5F4E48DFF8249100884E
:1015A00038B34D48008820B3624899F80030B0F94C
:1015B00000204C48012B007807D05F49022BB1F97D
:1015C00000100DD05D48018003E0012801D018B162
:1015D00025E05B48028022E05A48594900881DE016
:1015E000012801D018B11AE05448018017E056488C
:1015F000D1E05648B0F9000002285DD001285CD047
:10160000534801884E4801805248B0F90000022832
:1016100054D0012853D050484849008808804F488A
:101620000021B0F900204648FEF730FE4C4800216A
:10163000B0F900204148FEF729FE254F012600257C
:1016400078790A2810D2401CC0B278710A280BD3CE
:101650007D71BE71F879052806D2401CC0B2F871C0
:10166000052801D3FD71FE722A493E483E4A0B7897
:101670003E4CDFF8FC8040F2FE3A302B7ED02B2B24
:101680007DD02549284A332B7AD0DFF890C0452BEE
:1016900077D0442B76D099F80010DFF8D890DFF897
:1016A000D8B001296FD002296ED003296DD0057002
:1016B0000020B8F90020FEE368E069E06AE06CE031
:1016C0006700001014020010080200101802001039
:1016D00010000010B4010010B6010010A0C00720D7
:1016E0006A000010690000100804001020020010B9
:1016F0000C020010BCC00720F003001092C00720AD
:101700001C020010D201001000040010A2C007202B
:1017100002040010280200104C01001068000010A4
:101720009C000010CDABFFFF4E01001036010010F1
:1017300038010010BE010010C2010010AC01001001
:10174000AA010010C0010010C4010010AE01001079
:101750006C010010B0010010720100108401001033
:1017600060010010960300107E000010C4E3072003
:10177000BA0000108AC00720E80300100FE068E0FC
:1017800015E12CE15BE18AE176E262E3FF4838E7AC
:10179000FF4836E7FF48018826E7FF483CE791F914
:1017A000011039B101291ED00570E562256384F866
:1017B000286060E2A7F810A0A7F812A006705146B2
:1017C0000020B8F900200BE0C0EBC00303EB43039B
:1017D00004EB8303401CD962196383F82850C0B21C
:1017E0009042F1DB47E2117811B1012917D042E2B2
:1017F0003D827D8205700020B8F900200CE000BF1A
:10180000C0EBC00101EB410104EB8101401CCD6242
:101810000D6381F82860C0B29042F1DB2BE2A7F89B
:1018200010A0A7F812A0067051460020B8F90020B9
:101830000CE000BFC0EBC00303EB430304EB8303E6
:10184000401CD962196383F82850C0B29042F1DB82
:10185000FAE391F9013013B1032B5AD060E0A7F8F5
:1018600010A0A7F812A004F1280406706560A56016
:101870002670A565E56584F85460C4F8AC50C4F8DA
:10188000B05084F8A860C4F80051C4F8045184F83A
:10189000FC60C4F85451C4F8585184F85061C4F83D
:1018A000A851C4F8AC5184F8A461C4F8FC51C4F840
:1018B000005284F8F861C4F85052C4F8545284F8C5
:1018C0004C62C4F8A452C4F8A85284F8A062C4F8C8
:1018D000F852C4F8FC5284F8F462C4F84C53C4F8CB
:1018E000505384F84863C4F8A053C4F8A45384F850
:1018F0009C6391F90200A4F12804C0EBC00000EB46
:10190000400004EB80005246C262026380F8285017
:101910009AE3127812B1012AA1D095E33D827D822B
:1019200004F1280405706560A5602670A565E5656D
:1019300084F85460C4F8AC50C4F8B05084F8A8607F
:10194000C4F80051C4F8045184F8FC60C4F8545140
:10195000C4F8585184F85061C4F8A851C4F8AC5187
:1019600084F8A461C4F8FC51C4F8005284F8F8610A
:10197000C4F85052C4F8545284F84C62C4F8A452CB
:10198000C4F8A85284F8A062C4F8F852C4F8FC5213
:1019900084F8F462C4F84C53C4F8505384F8486394
:1019A000C4F8A053C4F8A45384F89C634CE300200B
:1019B000B1F90010B2F90020B8F900300CE000BF16
:1019C000C0EBC00606EB460604EB8606401CC6E9E3
:1019D0000B1286F82850C0B29842F1DB34E39CF831
:1019E000000001284FF0000013D05146B8F9002044
:1019F0000CE000BFC0EBC00303EB430304EB830325
:101A0000401CD962196383F82850C0B29042F1DBC0
:101A10001AE3B1F90010B2F90020B8F900300BE078
:101A2000C0EBC00606EB460604EB8606401CC6E982
:101A30000B1286F82850C0B29842F1DB04E39CF800
:101A4000000001284FF0000013D05146B8F90030D3
:101A50000CE000BFC0EBC00202EB420204EB8202CA
:101A6000401CD162116382F82850C0B29842F1DB69
:101A7000EAE2B1F90010B2F90020B8F900300BE049
:101A8000C0EBC00606EB460604EB8606401CC6E922
:101A90000B1286F82850C0B29842F1DBD4E23F48DE
:101AA000B0F9000050B13E490B68834206DA3D4967
:101AB000B1F900205A4392FBF0F00880B87988B35E
:101AC0003948008840B13948008828B13848007842
:101AD000012834D0032832D03648B0F900103148FC
:101AE000B0F90000814204DABBF8001001F10101F5
:101AF00004E005DDBBF80010A1F10101ABF8001016
:101B0000322251422C48FEF7C1FB2C48B0F900109C
:101B10002B48B0F90000814205DAB9F8001001F154
:101B2000010105E00BE005DDB9F80010A1F10101AC
:101B3000A9F80010322251422248FEF7A7FB2048A4
:101B40002149B0F90000B1F90010C0EB402040007D
:101B500090FBF1F0009013481C49B0F90000B1F976
:101B60000010C0EB4020400090FBF1F08246AC201A
:101B70000CF0A4FFA0F52B41CD392AD11048B0F9C3
:101B80000000FFF727FC00EB800021E0700100104F
:101B90006E01001076010010740100102001001089
:101BA00014020010AA010010B4010010B6010010C8
:101BB0006A00001038010010E80300103601001020
:101BC000780100108AC00720600100108401001015
:101BD0000090AE200CF072FFA0F52B41CD3907D15B
:101BE000F848B0F90000FFF72EFC00EB80008246B9
:101BF0000020B8F900C03CE0F349098841B1F3493D
:101C0000098829B1F2490978012910D003290ED099
:101C100000990AB2B9F900105218C0EBC00101EBEB
:101C2000410104EB8101CA620CD5CD620FE0C0EB2B
:101C3000C00101EB410104EB8101CD620D6381F82C
:101C4000286014E040F2FE339A4200DDCB62BBF91B
:101C500000200FFA8AF39A180A6301D50D6304E095
:101C600040F2FE339A4200DD0B6381F82850401C9D
:101C7000C0B26045C0DBE7E1DFF858C3BCF9001033
:101C8000052901DD7E7200E07D72D3486423B0F93E
:101C9000002092FBF3F30093002B01DC012300935F
:101CA000881A00B2FEF72CFB009909B2884201DACB
:101CB000BE7200E0BD723D72B87A80B1F87AB8B3F6
:101CC000C448FD72B0F90010C348B0F90000814269
:101CD0002ADB2FDC32E000BFA9F800102EE0B87933
:101CE00030B3787A20B3BD48B0F90010BC48B0F9E1
:101CF0000000814204DABBF8001001F1010104E0A8
:101D000005DDBBF80010A1F10101ABF80010322293
:101D10005142B448FEF7BAFAAE48B0F90010AE48E6
:101D2000B0F90000814204DAB9F80010491CD3E789
:101D300009E003DDB9F80010491ECDE73222514217
:101D4000A948FEF7A3FAA4484FF46171B0F9000066
:101D50004843A649B1F9001090FBF1F032300090F1
:101D6000AC200CF0ABFEA0F52B41CD3907D19A4841
:101D7000B0F90000FFF72EFB00EB800000909848C0
:101D80009B49B0F90000B1F90010C0EB40204000C1
:101D900090FBF1F08246AE200CF090FEA0F52B41B6
:101DA000CD3907D18E48B0F90000FFF74CFB00EBAE
:101DB00080008246B8F900000021804640E0824859
:101DC000008840B18148008828B181480078012806
:101DD00014D0032812D0C1EBC100009A00EB4000E0
:101DE00004EB80000FFA82FCB9F90020B0F9503002
:101DF00062449A18C2620CD5C5620FE0C1EBC10003
:101E000000EB400004EB8000C562056380F82860A9
:101E100014E040F2FE339A4200DDC362BBF90020B9
:101E20000FFA8AF39A18026301D5056304E040F2C1
:101E3000FE339A4200DD036380F82850491CC9B282
:101E40004145BCDB6B49009808806B49E06A08801B
:101E5000FAE0B87980B36948007868BB6848B0F99F
:101E6000000000EB80015D48B0F90000B0EB410FCD
:101E700004DABBF8001001F1010104E005DDBBF854
:101E80000010A1F10101ABF8001052462946554857
:101E9000FEF7FCF9322251425248FEF7F7F9594851
:101EA000B0F9000000EB80015748B0F90000B0EB3A
:101EB000410F07DA01E0C1E015E0B9F8001001F1C7
:101EC000010104E005DDB9F80010A1F10101A9F854
:101ED0000010524629464348FEF7D8F932225142B3
:101EE0004148FEF7D3F9474842F2EC71B0F90000DF
:101EF00048433E49B1F9001090FBF1F00090404892
:101F000042F2EC71B0F9000048433949B1F90010D0
:101F100090FBF1F00190AC200CF0D0FDA0F52B412E
:101F2000CD390AD13748008800EB8000400000B26C
:101F3000FFF750FA00EB80000090AE200CF0BEFDE1
:101F4000A0F52B41CD390AD12D48008800EB800047
:101F5000400000B2FFF777FA00EB8000019000200C
:101F6000B8F900105AE0254A127852B1C0EBC0020D
:101F700002EB420204EB8202D562156382F828600C
:101F80004AE0009A13B2B9F900209A18C0EBC003D6
:101F900003EB430304EB830CCCF82C2002D5CCF8E4
:101FA0002C5003E0524501DDCCF82CA0019A13B26D
:101FB000BBF900209A18CCF8302027D5CCF8305047
:101FC00028E00000AA010010B4010010B6010010C2
:101FD0006A000010DC030010AC0100103801001092
:101FE0007A010010E80300108AC007206001001089
:101FF00084010010F203001096C00720A4C007203F
:10200000D0010010CE01001036010010524501DD54
:10201000CCF830A08CF82850401CC0B28842A2DB1B
:1020200012E000BFC0EBC00101EB410104EB8101F4
:10203000401CCD620D6381F82860C0B29042F1DB94
:10204000ABF80050A9F80050BD71BDE8FC9F10B579
:10205000C0EBC00000EB4001FF4810F82120032A2C
:1020600074D100EB810090F83E108A07B0F942204D
:102070000CD54FF496639A420DDA521C12B2A0F8B6
:1020800042209A4207DBA0F8423004E01AB1A2F1E4
:102090000102A0F842200A07B0F944204FF00A03D9
:1020A0004FF000040AD50A2A13DA521C12B2A0F823
:1020B00044200A2A0DDBA0F844300AE0002A05DD9E
:1020C000A2F1010212B2A0F8442002E001DAA0F865
:1020D0004440CA06B0F946200AD50A2A0DDA521C35
:1020E00012B2A0F846200A2A07DBA0F8463004E026
:1020F0001AB1521E12B2A0F846204278120701D03F
:1021000004210FE0D54A127822B1C278142A01D9ED
:10211000052107E0890601D5022103E0C1781429D1
:1021200001D201218170C1780A2990F8281002D3C8
:1021300041F0800101E001F07F0180F82810C849DA
:10214000B1F91020C262B1F91210016310BD2DE97E
:10215000F047C448C44EC24C0078002510B3B6F90D
:10216000000000EB8001B4F92400B0EB410F01DA6C
:10217000401CA084BD48DFF8F88247F2305AB0F91D
:10218000000000EB8001B8F90000B0EB410F0BDD5F
:10219000E08C5246401CE084B14800212630FEF716
:1021A00075F802E0A584E5E7E584DFF8C892012729
:1021B000B9F9000000EB8001B4F92600B0EB410F43
:1021C0000ADBB6F90010B4F9242001EB8101B2EB6F
:1021D000410F01DB277301E000B92573A648B0F970
:1021E000000000EB8001B8F90000B0EB410F09DA04
:1021F000208D5246401C2085994800212830FEF74A
:1022000045F800E02585B9F9000000EB8001B4F93C
:102210002800B0EB410F0ADBB6F90010B4F9242016
:1022200001EB8101B2EB410F01DB677302E030B1DA
:10223000607B28B1207B18B1A773BDE8F087657378
:10224000A573FAE72DE9F05F8648DFF83082DFF802
:1022500030B201788648DFF82CA28B4DB0F900002F
:102260008A4E00278A4C022911D0012925D02780C7
:1022700088492868B1F90010884243DD86493068F2
:10228000B1F9001088423DDA2088401C3CE0DFF8BC
:102290000C92B9F80010401A00B200F0ADFAC8F87C
:1022A000000064214843B9F90010DFF8F48190FB85
:1022B000F1F02860BBF8001014E0DFF8E891B9F8FD
:1022C0000010401A00B200F097FAC8F8000064212C
:1022D0004843B9F90010DFF8D08190FBF1F0286095
:1022E000BBF80010B8F80000081A00B200F084FA39
:1022F0006421CAF800004843B8F9001090FBF1F0DF
:102300003060B5E72088401E684D20800A2128886B
:1023100000EB800001EB400002B200215C48FDF7B9
:10232000B5FF5048007800B9278061486149624A8A
:102330000068B1F9001088420ADBB5F90030B4F941
:10234000006003EB8303B6EB430F01DD0123137041
:10235000884208DBB5F90000B4F9001000EB8000FA
:10236000B1EB400F00DC1770BDE8F09F2DE9F04F96
:102370003C48554BDFF844E190F800C05048B3F9B1
:102380000060524B0078BEF9004082464D48002163
:10239000B3F9003000788346474805783048877B9A
:1023A00090F80D80007B81462D482A30012214B31D
:1023B000012C08D0022C11D0032C17D0042C1DD0D6
:1023C000052C27D032E0BCF1030F03D0BBF1000F86
:1023D00011D02AE0BAF1000F7CD126E016B1012E0F
:1023E00002D023E00DB375E02DB11EE013B1012B37
:1023F00002D01BE0CFB16DE05FB316E013B1012B4B
:1024000004D013E0B8F1000F0FD063E0B8F1000F73
:1024100060D00AE013B1012B04D007E0B9F1000F3E
:1024200003D057E0B9F1000F54D00270BEF902405A
:1024300084B1012C53D0022C5DD0032C64D0042C29
:102440006BD0052C49D133B1012B46D1B9F1000F26
:102450003EE03FE040E06BE0C4E3072082C007209D
:102460001000001067000010920100109C01001085
:1024700036010010940100109A010010F4030010BE
:1024800038010010F803001098C007209CC00720F6
:10249000FE03001096010010980100107201001058
:1024A0007A01001078010010AA01001090010010BC
:1024B000140200108E010010FC0300102402001012
:1024C00004040010690000108A0100108C01001043
:1024D0000BD101E00170A9E74170BDE8F08FBCF1BC
:1024E000030F04D0BBF1000FF6D04270F5E7BAF14C
:1024F000000FF1D1F9E726B1012EEED1002DF4D174
:10250000EAE7002DF1D0E7E723B1012BE5D1002F59
:10251000EBD1E1E7002FE8D0DEE72BB1012BDCD1D6
:10252000B8F1000FE1D1D7E7B8F1000FDDD0D3E764
:10253000B9F1000FD9D0CFE71349086820F4404023
:1025400008601248026842F080020260104A137864
:10255000012B436912D043F0800343610B6823F4DD
:1025600040630B60016841F020010160517801294E
:10257000416906D041F020014161704723F080039A
:10258000EBE721F02001F7E700C0024000C009207E
:102590003A0000102DE9F84F074600208046054616
:1025A0000446542659B1012904D0022904D0032934
:1025B00004D004E0552602E0752600E04C268D4844
:1025C000C7EBC703DFF8289203EB43034FF0000A81
:1025D00000EB8300012A02D0002A7ED003E131B152
:1025E000012908D002290AD003290CD00FE0427833
:1025F00042F001020AE0427842F0020206E042782C
:1026000042F0040202E0427842F00802427080F890
:102610004F1053208DF800008DF801708DF8026086
:1026200055468DF803A0694628460CF080FB6946A4
:10263000042000950CF07BFBB9F83C0009F1200464
:102640008DF80000207E8DF80100207B8DF80200BF
:102650008DF8035069464FF008000CF068FB207AB3
:102660008DF8000020798DF8010020788DF80200A7
:102670008DF8035069460C200CF059FB41248DF86D
:1026800000408DF801408DF802408DF80340694606
:1026900010200CF04CFB8DF800408DF801408DF8B7
:1026A00002408DF80340694614200CF040FB8DF881
:1026B00000408DF801408DF802408DF803406946D6
:1026C00018200CF034FB8DF800408DF801408DF897
:1026D00002408DF80340694600E001E01C2080E0E4
:1026E00031B1012908D0022913D0032915D007E000
:1026F000417821F0010102E0417821F002014170AE
:1027000005F110004FEA000B9DF80000532818D186
:1027100007E0417821F00401F1E7417821F0080158
:10272000EDE79DF80100B8420BD19DF80200B042E0
:1027300007D1694658460CF03EFA9DF80000412842
:1027400005D0F4B3641EA4B24445DDD14BE09DF83E
:1027500001004128F5D19DF802004128F1D19DF8F2
:1027600003004128EDD1B9F83C0009F120048DF8AF
:102770000000207E8DF80100207B8DF80200564677
:102780008DF803A0694658460CF0D1FA207A8DF8EE
:10279000000020798DF8010020788DF802008DF876
:1027A0000360694605F114000CF0C1FA42248DF86B
:1027B00000408DF801408DF802408DF803406946D5
:1027C00000E013E005F118000CF0B1FA8DF80040BC
:1027D0008DF801408DF802408DF80340694605F1FF
:1027E0001C000CF0A4FA00BFBDE8F88F3F248BE773
:1027F00000400240C4E30720002801DA404200B252
:10280000704710B540F2D4700CF058F9FF4C2070AE
:1028100040F2D6700CF052F960704FF4FB600CF08F
:102820004DF9A07040F2DA700CF048F9E07040F217
:10283000DC700CF043F9207240F2DE700CF03EF9CF
:1028400060724FF4FC600CF039F9A07240F2E27053
:102850000CF034F9E0724FF401600CF02FF92071A4
:1028600040F612000CF02AF9607140F614000CF0EA
:1028700025F9A07140F616000CF020F9E07110BDAA
:10288000E34810B5016821F0E06101604168E24A67
:10289000C1F30B13DF4C117824F81130491CC9B275
:1028A0001170032903D2016841F08071016010BDED
:1028B0002DE9FF41D94C0022E08CE08503202085E2
:1028C0002078401CC0B204F82209232802D384F8DF
:1028D000222001E0202847D82120FDF788FC50B1B4
:1028E000CF480088222806D1CE4894F8221090F9CB
:1028F0000200884236D094F82B00CB4DA8B994F84A
:102900002200C0EBC00101EB410105EB810202F1A5
:1029100028021179577A167A53798DE8CA0013780C
:102920004FF0ED0201460CF038FC94F8220020280C
:1029300018D2C0EBC00000EB400005EB8000C1786E
:102940003C2905D2491CC9B2C170032902D207E053
:102950003C21C1700179032902D24179491C41719E
:10296000C1780171BDE8FF81AC492239212891F875
:102970002B101CD02228F5D10029F3D1A9480A2117
:10298000C438B0F9000090FBF1F0A649C0B2BE39DE
:102990004A780B78891E4C7800940390CDE9013277
:1029A0000B782922FF2108460CF0F7FBDAE7002913
:1029B000D8D19A482E304178037808384478039269
:1029C0000094CDE9013103786222EBE795490020BC
:1029D00054390870487088705431487070472DE938
:1029E000F04FDFF838E24FF03C0BAEF1220E0EF163
:1029F000800101F1800AB1F95230B1F9544001F57A
:102A000080719EF82C000E6B496B96FBFBF591FBD9
:102A1000FBF70FFA81F87146BAF91C2091F803C050
:102A20003FB2BAF91E102DB236B2B946B0B1012884
:102A30003CD10AF10E00BAF80E704786BAF816704B
:102A4000C786AAF83E308486BAF91A7050467FB31A
:102A50004FF6FF705346AAF83C0018E00AF1080050
:102A6000BAF814700787BAF808708787AAF83E305A
:102A70004487BAF918705046002FE9D103466948D7
:102A8000A0F14400406A18E090FBFBF017E03A43E5
:102A900017D009B15D8707E05E8705E0A3F83A909B
:102AA00002E000BFA3F83A808EF82FC0BDE8F08F97
:102AB000FFE703465B484438806A0029E4D19887E1
:102AC000E5E70029EED0E9E7F0B50020574A0146D6
:102AD0004FF4F4731154401C00B29842FADBDFF853
:102AE00044E100200EF1420E14277A21414300EB0D
:102AF00080039B0000EB80041BB207EB84051EE003
:102B00001EF803405E2C21D0494E04EB440416F815
:102B100014C002F801C006EB4404491C6678565400
:102B2000491CA6785654491CE6785654491C267907
:102B30005654491C64795454491C5B1C1BB29D4279
:102B4000DEDC401C00B20428CFDBF0BD4FF07E0C71
:102B500002F801C0491C42245454491C5A265654B8
:102B6000491C5654491C5454491C02F801C0E3E75F
:102B70002DE9F04F2F49ADB00020087027482238CA
:102B8000B0F9568080F80080017A491CC9B2017200
:102B9000142908D300210172C279521CD2B2C27129
:102BA000052A00D3C1711F491E4B1E4891F90450DC
:102BB00091F90110DFF86C904A1BC43B0078B3F91F
:102BC00052304FF03C0B9E46A9F144094FF00A0ADF
:102BD00002ACD0B1134F0D2801F00F82212801F073
:102BE0007D833B466B2893F9043004EB830601F0A8
:102BF0008A833B465B789B1E5BB26C2801F0AC83FA
:102C00006E2801F04B846A2816E087E07C280820B3
:102C1000004003403C00001010000010860000102F
:102C200008C0072028020010C4E3072044EE072054
:102C3000307001004800001001F09686692801F00C
:102C4000D0863E46BE4696F902C07678761E77B2AA
:102C50006728764601F021870F2801F08687102823
:102C6000FBD0042801F0AA87DFF800E44FF05E09EA
:102C7000FF4E3F28B67EB34602F09B82FD4E6F2882
:102C800002F01D83B146352802F0D886332802F0C1
:102C90000A87742802F0E287752803F02C807128D7
:102CA00003F07580702803F07780722803F0AE80FF
:102CB0005A2803F0E6804C3E5E2803F068815F28C6
:102CC000FBD0612803F04D83622803F0A2836328C0
:102CD00003F0FA834FF0030C122803F050844328CA
:102CE00003F08484E24E4528367903F09B8444281F
:102CF00003F0D684302803F01D85732803F03C864A
:102D00002C2803F08D862B2804F0DC80582804F052
:102D1000FE816D2804F0268204F06EBAD448C6788D
:102D2000032E2FD090F82C70D248D14B40788033AE
:102D3000C01E40B20090B3F97A000190CC48B3F9BC
:102D4000423000F5807C90F80680BCF950C02A9390
:102D50004379C07E002F7DD0012F7CD0DFF8108317
:102D6000022F79D0022E00F07387C3A70297BCF11F
:102D7000000F00F0A887BEF1000F00F06387C4A722
:102D800000F0A0BFC8A00290CDA00390D2A00490F4
:102D9000D7A002AD0346059007CDFDF7A0FDB54DC8
:102DA000D9F83800C43D4E46B5F96210884203DABE
:102DB00000222121D4A019E0B5F9642011448142F8
:102DC00003DD00222121D1A010E0B5F966201144D5
:102DD000814203DD00222121CDA007E0B5F9682062
:102DE0001144814204DD00222121CAA0FDF7A7FD84
:102DF00005F16A05002268882B2180B2FDF746FCA8
:102E000028880022402180B2FDF740FCDFF8608274
:102E1000574608F180080022B8F95400232190FB9E
:102E2000F7F080B2FDF732FCB8F95200002290FBB7
:102E3000F7F080B22421FDF729FCA8880022401C6D
:102E40005E2180B2FDF722FCB06B90FBF7F191FBA5
:102E5000FBF202E011E0BAE2E2E30BFB121080B2F7
:102E600000227321FDF712FCB06B4FF4167190FB3A
:102E7000F1F0002280B25421EFE3012E0FD0A6A082
:102E80000290BCF1000F4AD0BEF1000F01D0A2A009
:102E900044E0012B29D0002B41D1A5A03EE0AAA7F8
:102EA0000297BCF1000F3AD0BEF1000F05D0B8F187
:102EB000010F06D0B8F1030F03D0012B07D0D3B117
:102EC0002DE0800701D5A6A028E09FA026E040B114
:102ED000012808D0022808D0032808D0042808D0E8
:102EE00012E0A5A01AE0AAA018E0AFA016E0B4A0D6
:102EF00014E0B9A012E050B101280AD00228CCD0C9
:102F0000032808D0042808D00528C0D007E0B8A0BE
:102F100004E0BDA002E0C2A000E0C7A0029068A04B
:102F20000390CBA0DFF848810490012E05D1CEA0FC
:102F300004902A9808B1D2A0049067A00590D6A06A
:102F40000690DBA00790E0A00890E5A00990494812
:102F5000032A01DD009901E0A94200DA0171444F22
:102F6000019980370F2906DDE3A3E9A2EEA1F4A0C1
:102F7000FDF7B5FC0CE090F9045004EB8500001D52
:102F80000EC854F82500FDF7AAFC0020FDF743FC0D
:102F9000384DC43DB5F8500010B1B5F8520020B915
:102FA00000225E21ECA0FDF7CAFCB5F946004FF403
:102FB0007A76B04203DA01222B2180B204E090FB42
:102FC000FAF080B200222B21FDF760FBB7F9540024
:102FD000B04203DA0122232180B204E090FBFAF030
:102FE00080B200222321FDF751FBB7F95200B04215
:102FF00003DA0122242180B204E090FBFAF080B2CF
:1030000000222421FDF742FBB5F91400B04209DA91
:1030100001227B2180B2FDF739FBA88A01224021E1
:1030200080B20EE0564690FBF6F080B200227B2183
:10303000FDF72CFBB5F91400002290FBF6F080B2EE
:103040004021FDF723FB98F80300464601280AD1EA
:10305000B5F91C00B5F91810084305D04D465F4678
:10306000D9F830007AE1ABE18FE10000647601002D
:10307000640000102802001020C8F1F2EEF7EDE81D
:10308000EA20EDE0EFF02E205E202020000000007E
:1030900020C8F1F2EEF7EDE8EA20EDE0EFF02E20A7
:1030A0005E3E3E3E00000000202020C8D1CFDBD293
:1030B000C0CDC8C520D4C0C7C0202120000000005A
:1030C0002049F3202020202BC020556D617820203E
:1030D0002020404200000000204920202020202302
:1030E000C020552020202020202024420000000065
:1030F00020D6E8EAEB204E2020205E20202030540D
:103100003A3073200000000041000000420000003F
:10311000430000004400000020C8F1F2EEF7EDE8A3
:10312000EA20F2EEEAE020205E20202000000000ED
:1031300020C8F1F2EEF7EDE8EA20F2EEEAE0202016
:103140005E3C3C3C0000000020C8F1F2EEF7EDE8E8
:10315000EA20F2EEEAE020202020202000000000FB
:1031600020C8F1F2EEF7EDE8EA20F2EEEAE02020E6
:103170005E203C3E0000000020C8F1F2EEF7EDE8D2
:10318000EA20F2EEEAE020205E3E2020000000006F
:1031900020C8F1F2EEF7EDE8EA20F2EEEAE02020B6
:1031A0005E3E3E200000000020C8F1F2EEF7EDE8A0
:1031B000EA20F2EEEAE020205E3E3E3E0000000003
:1031C00020C8F1F2EEF7EDE8EA20F2EEEAE0202086
:1031D0005E203E3E0000000020C8F1F2EEF7EDE870
:1031E000EA20F2EEEAE020205E20203E000000000F
:1031F00020C8F1F2EEF7EDE8EA20F2EEEAE0202056
:103200005E20203C0000000020C8F1F2EEF7EDE85F
:10321000EA20F2EEEAE020205E203C3C00000000C4
:1032200020C8F1F2EEF7EDE8EA20F2EEEAE0202025
:103230005E3C3C200000000020C8F1F2EEF7EDE813
:10324000EA20F2EEEAE020205E3C202000000000B0
:1032500020C4EBE8F22DF1F2FC2E202030743A303D
:10326000543A3073000000002020202020203074C9
:103270003A30543A307320202020202000000000F3
:103280002030743A30543A307320202020202071AE
:10329000C02AF720000000002055EC61782EE8F1EC
:1032A000F22EF2EEEAE0202020207BC20000000097
:1032B00020C2FBF5EEE4202020202020202020202A
:1032C000202020200000000020D3F1F2E0EDEEE20B
:1032D000EAE82020202020202020202000000000DC
:1032E00020C2FBEFF0FFECE8F2E5EBE82020202025
:1032F000202020200000000020E8EBE820EDE5F190
:10330000EAEEEBFCEAEE20F4E0E72E2000000000FD
:103310002020CEF2F1F3F2F1F2E2F3E5F220EEE456
:10332000EDE0202000000000202020202020F1E5FA
:10333000F2E821212121202020202020000000006F
:103340002020C0E2E0F0E8FF20EFE8F2E0FEF9E53F
:10335000E9202020000000002000000090FBF7F191
:103360000BFB110080B200227321FDF78FF9286B4F
:10337000002290FBF7F090FBF7F107FB110080B201
:103380005421FDF783F9296BF1E3D9F834005D4648
:1033900090FBF5F10BFB11004F4680B20022732128
:1033A000FDF774F9786B002290FBF5F090FBF5F1D6
:1033B00005FB110080B25421FDF768F9796BFDE33C
:1033C000288B00287BD1B7E3FDF7B9FAFEE3022E84
:1033D00011D0AFF25C300290BCF1000F4CD0BEF1C6
:1033E000000F02D0AFF2703045E0012B29D0002B46
:1033F00042D1D4A03FE0D9A70297BCF1000F3BD047
:10340000BEF1000F05D0B8F1010F06D0B8F1030FDF
:1034100003D0012B07D0DBB12EE0800701D5D5A06A
:1034200029E0CEA027E040B1012808D0022808D02A
:10343000032809D0042809D013E0D4A01BE0D9A0A8
:1034400019E0AFF2B43016E0DCA014E0E1A012E025
:1034500050B101280AD00228CBD0032808D0042874
:1034600008D00528BED007E0E0A004E0E5A002E017
:10347000EAA000E0EFA00290F4A00390AFF23020A9
:10348000DFF8E0830490022E07D1AFF224200490ED
:103490002A9810B1AFF218200490F3A00590F8A07C
:1034A0000690AFF2F4100790AFF2E4100890AFF27C
:1034B000D0100990F848032A02DD009902E0A0E04C
:1034C000A94200DA0171E74E019980360F290ADD21
:1034D000AFF2DC13AFF2C812AFF2B411AFF2A0102A
:1034E000FDF7FDF90CE090F9045004EB8500001D98
:1034F0000EC854F82500FDF7F2F90020FDF78BF90E
:10350000E54DC43DB5F8500010B1B5F8520028B9EA
:1035100000225E21AFF2C010FDF711FAB5F94800A4
:103520004FF47A77B84203DA0122252180B204E011
:1035300090FBFAF080B200222521FDF7A7F8B6F93A
:103540005200B84203DA0122262180B204E090FB47
:10355000FAF080B200222621FDF798F8B6F954005F
:10356000B84203DA0122232180B204E090FBFAF092
:1035700080B200222321FDF789F8B5F91600B84280
:1035800009DA01227D2180B2FDF780F8E88A012264
:103590007D2180B20EE0564690FBF6F080B200220C
:1035A0007D21FDF773F8B5F91600002290FBF6F0C7
:1035B00080B27D21FDF76AF84646EFE3B5F91C00BD
:1035C000B5F91A10A8E2D9F834005F4690FBF7F17C
:1035D0000BFB11004D4680B200227321FDF756F817
:1035E000686B002290FBF7F090FBF7F107FB1100EE
:1035F00080B25421FDF74AF8696BDFE2688B00283E
:103600007CD06FF002027421A4A0DDE64FF461606B
:1036100091FBF0F080B200227421FDF737F8DBE275
:10362000012E10D0AFF210570297BCF1000F46D018
:10363000BEF1000F02D0AFF290473FE0012BFAD06D
:10364000AFF214573AE0AFF200570297BCF1000F07
:1036500035D0012B02D0D3B131E0C2E240B1012814
:1036600009D00228E7D0032808D0042809D017E0A1
:10367000AFF2FC4722E0AFF2E8471FE0AFF2C047ED
:103680001CE0AFF2AC4719E0AFF2745716E050B14E
:1036900001280BD00228D3D003280AD004280BD04D
:1036A0000528F1D00BE0AFF2B84707E0AFF2A8472A
:1036B00004E0AFF2944701E0AFF284470297AFF223
:1036C00000670397AFF278470497012E07D1AFF256
:1036D000684704972A9F17B1AFF25C470497AFF28F
:1036E00008670597022E12D0AFF274600690BCF105
:1036F000000F0BD0BEF1000F04D000E087E2AFF264
:10370000706002E0012BF8D00EA00690DEE013A757
:103710000697BCF1000F02D0012B01D063B1D2E0BB
:1037200040B1012809D0022808D0032807D0042876
:1037300006D0C6E015A0B9E0D1E0B5E0B8E0BAE047
:10374000BCE0000020C8F1F2EEF7EDE8EA20EDE081
:10375000EFF02E205E3C3C3C0000000020C8F1F25F
:10376000EEF7EDE8EA20EDE0EFF02E20202020201B
:103770000000000020C8F1F2EEF7EDE8EA20EDE0ED
:10378000EFF02E205E203C3E0000000020C8F1F249
:10379000EEF7EDE8EA20EDE0EFF02E205E3E20208F
:1037A0000000000020C8F1F2EEF7EDE8EA20EDE0BD
:1037B000EFF02E205E3E3E200000000020C8F1F217
:1037C000EEF7EDE8EA20EDE0EFF02E205E203E3E41
:1037D0000000000020C8F1F2EEF7EDE8EA20EDE08D
:1037E000EFF02E205E20203E0000000020C8F1F205
:1037F000EEF7EDE8EA20EDE0EFF02E205E20203C31
:103800000000000020C8F1F2EEF7EDE8EA20EDE05C
:10381000EFF02E205E203C3C0000000020C8F1F2BA
:10382000EEF7EDE8EA20EDE0EFF02E205E3C3C20E4
:103830000000000020C8F1F2EEF7EDE8EA20EDE02C
:10384000EFF02E205E3C2020000000002055F320E9
:10385000202020254220496D6178202020207D41B4
:1038600000000000640000102055202020202026A9
:103870004220492020202020202023410000000059
:103880002049EC61782EE8F1F22EEDE0EFF02E20E9
:1038900020207D410000000028020010EDE5EFF03F
:1038A000E5F0FBE2EDEE0000AFF2081006900AE052
:1038B000AFF62400FAE7AFF2FC00F7E7AFF2EC0056
:1038C000F4E7052823D098F8140018B3AFF2840069
:1038D0000790AFF284600890022E1DD024E050B112
:1038E00001280BD002280CD003280DD00428E8D1E1
:1038F000AFF2C000DAE7AFF20C10D7E7AFF2FC008E
:10390000D4E7AFF2C010D1E7AFF2F000CEE7AFF6E8
:103910009800CBE7FCA0F8E6AFF2B46008902A98D4
:1039200010B1AFF2A4600890AFF2C4000990AFF2FA
:1039300098600A90AFF2B8000B90AFF28C600C90D8
:10394000AFF27C600D90AFF26860DFF8D4830E9028
:10395000032A01DD009901E0A94201DA88F8041088
:103960000198F04E0F280ADDAFF27463AFF2606287
:10397000AFF24C61AFF23860FCF7B1FF0CE098F9A0
:10398000045004EB8500001D0EC854F82500FCF718
:10399000A6FF0020FCF73FFFE24D8035B5F8500050
:1039A00010B1B5F8520028B900225E21AFF258607C
:1039B000FCF7C5FFB5F946004FF47A77B84203DA51
:1039C00001222B2180B204E090FBFAF080B20022A9
:1039D0002B21FCF75BFEB6F95400B0F57A7F0ADACA
:1039E0000122232180B2FCF751FEB6F854000122D7
:1039F000232180B20EE0574690FBF7F080B2002200
:103A00002321FCF743FEB6F95400002290FBF7F0A7
:103A100080B22321FCF73AFEB5F948004FF47A77DB
:103A2000B84203DA0122252180B204E090FBFAF0CB
:103A300080B200222521FCF729FEB6F95200B0F52C
:103A40007A7F0ADA0122262180B2FCF71FFEB6F83F
:103A500052000122242180B20EE0574690FBF7F07D
:103A600080B200222621FCF711FEB6F95200002296
:103A700090FBF7F080B22421FCF708FEB5F91600A0
:103A80004FF47A76B04209DA01227D2180B2FCF748
:103A9000FDFDE88A01227D2180B20EE0574690FBB1
:103AA000F7F080B200227D21FCF7F0FDB5F9160099
:103AB000002290FBF7F080B27D21FCF7E7FDB5F91D
:103AC0001400B04209DA01227B2180B2FCF7DEFD4E
:103AD000A88A0122402180B20EE0564690FBF6F003
:103AE00080B200227B21FCF7D1FDB5F91400002241
:103AF00090FBF6F080B24021FCF7C8FD98F9040075
:103B0000022835DC874E803EF07801287FF458ACDF
:103B1000B5F91C00B5F9181008433FF454ADFFF790
:103B20009DBA00223A21AFF2D070FCF708FF0022C4
:103B30003A21AFF2DC7047E4D9F824005E4690FBEE
:103B4000F6F10BFB11004D4680B200227321FCF709
:103B50009DFD686A002290FBF6F090FBF6F106FBF3
:103B6000110080B25421FCF791FD696A4EE525E011
:103B70006C4E803EF07802287FF440ADB5F91C0011
:103B8000B5F91A100843C8D0D9F830005D4690FB4B
:103B9000F5F10BFB11004F4680B200227321FCF7B8
:103BA00075FD386B002290FBF5F090FBF5F105FBFD
:103BB000110080B25421FCF769FD396B4FF461604C
:103BC00091FBF0F0002280B2742100E004E0FCF7E9
:103BD0005DFDB07D0028A4D1D9F83C0001227121FF
:103BE00080B2FCF753FD4F488038C078012807D0D9
:103BF0004C4A002180320228A2F84A1003F0FC82CD
:103C0000484900208031A1F84C0003F0F5BAD9F8FA
:103C100028005E4690FBF6F10BFB11004D4680B28A
:103C200000227321FCF732FDA86A002290FBF6F017
:103C300090FBF6F106FB110080B25421FCF726FD43
:103C4000A96AE3E4012B3FF49AA8AFF2085739E0E0
:103C5000AFF2F8470297BCF1000F34D0012B01D02E
:103C6000CBB130E040B1012809D00228EBD00328C5
:103C700008D0042809D017E0AFF2F04722E0AFF2F5
:103C8000DC471FE0AFF2CC471CE0AFF2B84719E0C9
:103C9000AFF61C4716E050B101280BD00228D4D053
:103CA00003280AD004280BD00528F1D00BE0AFF28E
:103CB000C44707E0AFF2B44704E0AFF2A04701E029
:103CC000AFF290470297AFF27C470397AFF6802799
:103CD0000497022E07D1AFF6702704972A9F17B1D9
:103CE000AFF664270497AFF280470597012E20D0E6
:103CF000AFF6DC300690BCF1000F56D0BEF1000FDD
:103D000012D0AFF65C304FE0202020202020202071
:103D10002020202020202020202020200000000023
:103D200028020010E4000010012BEAD0AFF600409A
:103D30003AE0AFF6EC370697BCF1000F35D0012B17
:103D400001D0CBB131E040B1012809D00228D8D050
:103D5000032808D0042809D017E0AFF6E43023E0A8
:103D6000AFF6D43020E0AFF6A8301DE0AFF69830C3
:103D70001AE0AFF65C4017E050B101280BD00228E2
:103D8000D4D003280BD004280CD00528F1D00CE0A7
:103D9000AFF6A43008E0AFF6903005E027E1AFF6CB
:103DA000803001E0AFF670300690AFF6EC4007903F
:103DB000AFF664300890012E07D1AFF6543008906A
:103DC0002A9810B1AFF648300890AFF6F440099049
:103DD000AFF63C300A90AFF258500B90AFF630304F
:103DE0000C90AFF61C300D90AFF60C30DFF80C8461
:103DF0000E90032A01DD009901E0A94201DA88F85A
:103E000004100198FE4E0F280ADDAFF61433AFF60A
:103E10000032AFF6EC21AFF6D820FCF760FD0CE0E5
:103E200098F9045004EB8500001D0EC854F82500D5
:103E3000FCF755FD0020FCF7EEFCF14D8035B5F8A0
:103E4000500010B1B5F8520028B900225E21AFF63B
:103E5000F820FCF774FDB5F946004FF47A77B842C4
:103E600003DA01222B2180B204E090FBFAF080B249
:103E700000222B21FCF70AFCB6F95400B0F57A7F3A
:103E80000ADA0122232180B2FCF700FCB6F85400C4
:103E90000122232180B20EE0574690FBF7F080B25A
:103EA00000222321FCF7F2FBB6F95400002290FB1C
:103EB000F7F080B22321FCF7E9FBB5F948004FF495
:103EC0007A77B84203DA0122252180B204E090FB20
:103ED000FAF080B200222521FCF7D8FBB6F9540095
:103EE000B0F57A7F0ADA0122232180B2FCF7CEFBFB
:103EF000B6F854000122232180B20EE0574690FB11
:103F0000F7F080B200222321FCF7C0FBB6F9540081
:103F1000002290FBF7F080B22321FCF7B7FBB6F943
:103F20005200B0F57A7F0ADA0122262180B2FCF72E
:103F3000ADFBB6F852000122242180B20EE05746B4
:103F400090FBF7F080B200222621FCF79FFBB6F928
:103F50005200002290FBF7F080B22421FCF796FB80
:103F6000B5F914004FF47A76B04209DA01227B21C8
:103F700080B2FCF78BFBA88A0122402180B20EE0C0
:103F8000574690FBF7F080B200227B21FCF77EFBC6
:103F9000B5F91400002290FBF7F080B24021FCF745
:103FA00075FBB5F91600B04209DA01227D2180B215
:103FB000FCF76CFBE88A01227D2180B20EE05646B8
:103FC00090FBF6F080B200227D21FCF75FFBB5F993
:103FD0001600002290FBF6F080B27D21FCF756FB24
:103FE00098F9040002283FF78DAD854E803EF078A9
:103FF00002287FF403ABFFF7E1BA814842F2107662
:104000008038B8F1010F07D0A8F102088146414578
:1040100039DBAFF6645337E0AFF21433AFF67052CA
:1040200078A17EA0FCF75BFC002301211A4608461C
:10403000FCF74FFA7F4DA869B04202DA80B2012343
:1040400003E090FBFAF080B2002306220121FCF786
:1040500040FA286A012380B20B221946FCF739FA8C
:10406000686A002380B20F220121FCF732FA95F82A
:104070003E0013220121FCF77FFB60490120423101
:1040800081F82800C1E55FA35EA25EA163A0FCF7F2
:1040900026FC97F901004FF00003062800F101000B
:1040A00080B20ADB01221146FCF713FA97F90100EE
:1040B0000023801C80B2012209E000220121FCF7CC
:1040C00008FA97F90100801C002380B21A460221E9
:1040D000FCF7FFF997F90100564DC0EBC00000EB6B
:1040E000400005EB80008069B04202DA80B2012313
:1040F00003E090FBFAF080B2002306220121FCF7D6
:10410000E8F997F90100C0EBC00000EB400005EBB7
:104110008000C06EB04202DA80B2012303E090FB5F
:10412000FAF080B2002306220221FCF7D2F997F9B7
:1041300001000123C0EBC00000EB400005EB800054
:104140000B22006A194680B2FCF7C3F997F9010007
:104150000123C0EBC00000EB400005EB80000B2208
:10416000406F022180B2FCF7B4F997F901000023F7
:10417000C0EBC00000EB400005EB80000F22406A5E
:10418000012180B2FCF7A5F997F901000023C0EBEB
:10419000C00000EB400005EB80000F22806F022181
:1041A00080B2FCF796F997F902001322C0EBC00029
:1041B00000EB400005EB8000012190F83E00FCF789
:1041C000DBFA97F902001322C0EBC00000EB4000BD
:1041D00005EB8000022190F89200FCF7CDFAB9F9C6
:1041E000561097F90100891E884272DA062800F1FC
:1041F000030080B24FF0000320DB1DE02802001016
:10420000E400001020202020202E202020202E201E
:104210002020202020202020000000004E202020F0
:10422000552CC22020492C41202074B0432020204E
:1042300000000000C4E30720012200E00022032167
:10424000FCF747F997F90100C0EBC00000EB400014
:1042500005EB8000D0F8C000B04202DA80B2012342
:1042600003E090FBFAF080B2002306220321FCF762
:1042700030F997F901000123C0EBC00000EB4000CA
:1042800005EB80000B22D0F8C800032180B2FCF7B8
:1042900020F997F901000023C0EBC00000EB4000BB
:1042A00005EB80000F22D0F8CC00032180B2FCF790
:1042B00010F997F902001322C0EBC00000EB400098
:1042C00005EB8000032190F8E600FCF755FA9CE42A
:1042D000FFE7D249012081F83C0096E4D04BD1A2FF
:1042E000D6A1DCA0FCF7FBFACC490120DF4D81F818
:1042F0003C00024628885B2180B2FCF7C7F9012206
:104300005D2102F02ABADAA00290DFA00390E4480F
:104310000490D6E9012354F82510E2A0FCF7DFFA57
:104320000120FCF778FAD14D002222352121A888FE
:1043300000EB800080B2FCF7A9F928880022232135
:1043400080B2FCF7A3F92888002200EB80002D3012
:1043500080B2402102F04EBFC44E2E36BEF1000F97
:1043600001D0D6A000E0DBA00290E0A00390E5A081
:104370000490EAA00590EFA00690F4A00790F9A0A1
:104380000890FEA00990C6480A90022A01DD3B7100
:1043900002E0A94200DA397197F9041004EB8100B8
:1043A000D0E9012354F82110FAA0FCF798FA012073
:1043B000FCF731FA36F9540F5D4690FBF5F10BFB33
:1043C000110080B200225B21FCF760F9B6F9000011
:1043D000002290FBF5F090FBF5F105FB110080B297
:1043E0007D21FCF753F9B6F900004FF4616790FBAB
:1043F000F7F080B200227B21FCF748F9B6F9020001
:10440000002290FBF5F105FB110080B25D21FCF765
:104410003DF9B6F90200002290FBF5F090FBF5F1B2
:1044200005FB110080B22921FCF730F9B6F9020032
:10443000002290FBF7F080B22821FCF727F9B6F9AB
:104440000400002290FBF5F105FB110080B23E2133
:10445000FCF71CF9B6F90400002290FBF5F090FB84
:10446000F5F105FB110080B23C21FCF70FF9F08853
:104470000122212180B2FCF709F930890122402173
:1044800080B2FCF703F970890122232180B2FCF786
:10449000FDF80122B089242180B25BE7C3A002901D
:1044A000C8A00390CDA00490D2A00590D7A00690FC
:1044B000DCA00790E1A00890E6A00990EBA00A908C
:1044C000F0A00B90F5A00C90FAA00D90FFA00E901C
:1044D00066487349D238B0F95C0004EB8000416053
:1044E000AFF2DC718160AFF2E071361DC1600ECEBB
:1044F0000298FCF7F4F997F9010097F90410421AB1
:10450000022A01DD801E01E0884200DA38710120B4
:10451000FCF781F9F34D2878012872D06FF003027F
:104520002121F1A0FCF70BFA687801286AD06FF01E
:1045300003024021ECA000BFFCF701FAA878012893
:1045400061D06FF003022321E7A000BFFCF7F7F969
:10455000E878012858D06FF003022421E2A000BFC0
:10456000FCF7EDF9287901284FD06FF003022521DF
:10457000DDA000BFFCF7E3F96879012846D06FF0B1
:1045800003025E21D8A000BFFCF7D9F9A879012861
:104590003DD06FF003022621D3A000BFFCF7CFF976
:1045A000E879012834D06FF003022A21CEA000BFA1
:1045B000FCF7C5F9287A01282BD06FF003022821D7
:1045C000C9A000BFFCF7BBF9687A012822D06FF0C0
:1045D00003022921C4A000BFFCF7B1F9A87A012881
:1045E00019D06FF003022B21BFA000BFFCF7A7F981
:1045F000E87A012810D06FF003023D21BAA001F043
:10460000F2BF75E179E17DE181E185E189E18DE14B
:1046100091E195E199E19DE1A1E100006A020010BC
:10462000797601002049EDE0E3F0203D20202020B4
:10463000205DC02020202020000000002055EDE05B
:10464000E3F0203D20202020205BC22020202020DD
:1046500000000000202020202020CDC0C3D0D3C7E0
:10466000CAC02020202020200000000036010010B9
:104670002046E2E5EDF22EF2E5EAF3F92E202020C5
:1046800020202125000000002046E2E5EDF22E6DFD
:1046900061782E20282020402529202300000000BA
:1046A000B03200002020202020C2C5CDD2C8CBDFF0
:1046B000D2CED020202020200000000020C2EAEB33
:1046C000FEF7E5ED202020202020202020202020A3
:1046D0000000000020C2FBEAEBFEF7E5ED20202001
:1046E0002020202020202020000000002054EFF077
:1046F000FFEC2E2020202020307B3A307D3A305BAA
:104700000000000020D2EEE1F02E2020202020200A
:1047100030283A30293A305D0000000020D2EFE521
:10472000F0E5EAEB2E202020202020303C3A303EDD
:10473000000000002049F1F22EEFF02E2020202072
:1047400020202020202021C0000000002049F1F27C
:104750002EEEE1F02E20202020202020202040C01E
:10476000000000002055F1F22EEFF02E2020202036
:104770002020202020202342000000002055F1F2BC
:104780002EEEE1F02E202020202020202020244288
:10479000000000002020202020C0C2D2CED0C5C200
:1047A000C5D0D12020202020000000002020C0C241
:1047B000D2CECCC0D2DB20CDC0C3D0D3C7CECA208E
:1047C0000000000020C0E2F2EEECE0F220B931205F
:1047D00020202020202021200000000020C0E2F224
:1047E000EEECE0F220B932202020202020204020D2
:1047F0000000000020C0E2F2EEECE0F220B933202D
:1048000020202020202023200000000020C0E2F2F1
:10481000EEECE0F220B934202020202020202420BB
:104820000000000020C0E2F2EEECE0F220B93520FA
:1048300020202020202025200000000020C0E2F2BF
:10484000EEECE0F220B936202020202020205E204F
:104850000000000020C0E2F2EEECE0F220B93720C8
:1048600020202020202026200000000020C0E2F28E
:10487000EEECE0F220B938202020202020202A2051
:104880000000000020C0E2F2EEECE0F220B9392096
:1048900020202020202028200000000020C0E2F25C
:1048A000EEECE0F220B93130202020202020292019
:1048B0000000000020C0E2F2EEECE0F220B931315D
:1048C0002020202020202B200000000020C0E2F229
:1048D000EEECE0F220B931322020202020203D20D3
:1048E0000000000062F20720C2DBCACB2E000000ED
:1048F0006FF002022121C8A014E66FF002024021ED
:10490000C5A019E66FF002022321C3A01EE66FF0D6
:1049100002022421C0A023E66FF002022521BEA0DE
:1049200028E66FF002025E21BBA02DE66FF00202C6
:104930002621B9A032E66FF002022A21B6A037E69E
:104940006FF002022821B4A03CE66FF00202292198
:10495000B1A041E66FF002022B21AFA046E66FF056
:1049600002023D21ACA04AE6ADA00290B2A00390A5
:10497000B7A00490BCA00590C1A00690C6480790BF
:10498000AFF67C400890AFF68040361D09900ECE01
:104990000298FBF7A4FF97F9010097F90410421A57
:1049A000022A01DD801E01E0884200DA3871012010
:1049B000FBF731FFB94D002223212888FBF766FE63
:1049C00005F1E200002240882421FBF75FFE02226D
:1049D0002521D9F82000FBF7DBFC00225E21A88806
:1049E0005AE58FA00290AEA00390B3A00490B8A0A7
:1049F0000590BDA00690C2A00790C7A008909AA0FD
:104A000009909FA00A90A4480B90AFF604500C9018
:104A1000AFF60C50361D0D900ECE0298FBF75FFFDF
:104A200097F9010097F90410421A022A01DD801E4D
:104A300001E0884200DA38710120FBF7ECFE974D67
:104A40000022E83521212888FBF720FE6888002213
:104A50004021FBF71BFEA88800222321FBF716FE4E
:104A6000AD1D002228882621FBF710FE6888002251
:104A70002921FBF70BFEA88800222821FBF706FE60
:104A800003222521D9F82000FBF782FCA5F5B070A0
:104A900000225E21B0F87600FEE48048943810F8D9
:104AA0000C00552811D0A2A00290A7A00390ACA0A2
:104AB0000490B1A00590B6A00690BBA00790C04896
:104AC0000890012A03DD377104E0BEA0ECE7A9429B
:104AD00000DA317196F9040004EB800154F82020CB
:104AE0004B68BEA1C3A0FBF7FAFE0220FBF793FEC2
:104AF00096F902000022401C80B25E21FBF7C6FD41
:104B0000664996F902009231002231F81000212105
:104B1000FBF7BCFD614996F902009631002231F99C
:104B20001010A748493800EB81004021FBF707FF30
:104B30005A4996F902009A31002231F810002321D7
:104B4000FBF7A4FD554996F902009E31002231F889
:104B500010002421FBF79AFD504996F90200A2317A
:104B6000002231F81000252197E4954BA7A0153BB2
:104B70001A461146FBF7B3FE484D00237E35082246
:104B800095F90000012180B2FBF7A3FC95F9010023
:104B9000002380B209220121FBF79BFC95F902005A
:104BA000002380B20A220121FBF793FC96F9012031
:104BB00005F1C600A421115402F01EBB99A0029079
:104BC0009EA00390A3A00490A8A00590ADA006907D
:104BD000A6A00790B1A00890B6A00990BBA00A902B
:104BE000C0A00B90C5A00C90CAA00D90CFA00E90B5
:104BF000D4A00F90D9A01090DEA01190E3A0129045
:104C0000E8A01390EDA01490F2A01590F7A01690D4
:104C1000FCA0179002E20000C2CACB2E00000000E8
:104C20002020DDCBC5CAD2D0CED1CDC0C1C6C5CD26
:104C3000C8C520200000000020C2E2EEE4202020B1
:104C40002020202023C2202020202020000000003F
:104C500020CFDDD1202020202020202024C2202091
:104C600020202020000000002050F1F3ECEC2E204A
:104C700020202020202025EAC2F22AF70000000090
:104C80002050F2E5EAF3F92E2020202020205EC2F9
:104C9000F220202000000000B03200005601001079
:104CA00020C2E2EEE420F42E412020202021C22068
:104CB000202020200000000020C2E2EEE420F42E9C
:104CC000422020202040C220202020200000000080
:104CD00020C2E2EEE420F42E432020202023C22034
:104CE000202020200000000020CFDDD12020F42E45
:104CF000412020202026C22020202020000000006B
:104D000020CFDDD12020F42E422020202029C220D7
:104D1000202020200000000020CFDDD12020F42E14
:104D2000432020202028C220202020200000000036
:104D300020C2FBE2E5E4E5EDE02030212F40202019
:104D40002F3023200000000020CDEEECE8ED2EE512
:104D5000ECEA2E202020202024412AF70000000029
:104D600020CDE0F0E0E1EEF2EAE02020202020205B
:104D700025F72E200000000020CAEEEDF2F0EEEB49
:104D8000FC20E5ECEAEEF1F2E82020200000000033
:104D900020C2FBF0E0E2EDE8E2E0FEF9E8E920E71E
:104DA000E0F0FFE40000000020D0E0E7F0FFE4FBCB
:104DB0002020202020202020202020200000000073
:104DC0007976010020C2E2E5E4E5EDE02020302123
:104DD0002F4020202F302320000000002020202002
:104DE00020C1C0D2C0D0C5DF204E5E2020202020B0
:104DF0000000000020C1C0D2C0D0C5C9CDDBC92091
:104E0000C6D3D0CDC0CB2020000000002020C2E2BD
:104E1000E5E4E8F2E52020EFE0F0EEEBFC202020D6
:104E20000000000020C8F1F2EEF7EDE8EAEEE22023
:104E300020202020202020210000000020CCE0EABB
:104E4000F1E8ECE0EBFCEDE0FF20E4EBE8F22D20F4
:104E50000000000020F1F2FC20EFF0EEF6E5F1F1A9
:104E6000E02020305B3A305D0000000020CEF2EE02
:104E7000E1F0E0E6E5EDE8E520E2F0E5ECE5EDE87F
:104E80000000000020EFF0EEF6E5F1F1E020202038
:104E900020202020202020400000000020EDE020E5
:104EA000EFF3EBFCF2E5202020202020202020231F
:104EB0000000000020C8E7ECE5F0E5EDE8E520F2B1
:104EC000EEEAE020202020200000000020EDE0E3BA
:104ED000F0F3E7EAE82020202020202020202024D2
:104EE0000000000020D0E5E6E8EC20E3EBE0E2ED96
:104EF000EEE3EE20ECE5EDFE000000002020202097
:104F0000202020202020202020202020202020259C
:104F10000000000020D4E8EAF1E8F0EEE2E0EDED78
:104F2000FBE5202020202020000000002020202061
:104F300020202020202020EDE0F1F2F0EEE9EAE848
:104F40000000000020D0E5EBE520202020202020DC
:104F500020202020202020200000000020F2EEEA67
:104F6000EEEEE3F0E0EDE8F7E5EDE8FF20202020AD
:104F70000000000020D0E5EBE520EAEEEDF2F0EED7
:104F8000EBFF2020202020200000000020EDE0EF9B
:104F9000F0FFE6E5EDE8FF20202020202020202063
:104FA0000000000020D0E5F1F2E0F0F22020202007
:104FB000202020202020205E000000002045746872
:104FC00065726E6574202020202020202020202063
:104FD00000000000204D4F444255532041445245AB
:104FE000535320202020203C00000000204D4F443F
:104FF00042555320424155445241544520202020DF
:105000000000000020202020202020202020202020
:105010002020202020203E3000000000BEA018905C
:10502000C3A01990C8A01A90CDA01B90D2A01C902C
:10503000D7A01D90DCA01E90E1A01F90DAA02090C8
:10504000E5A02190EAA02290EF482390EFA02490C1
:10505000F4A02590F94826902790022A01DD3371AB
:1050600002E0A94200DA31719EF9041004EB8100DC
:10507000D0E9012354F82110F1A0FBF730FC012006
:10508000FBF7C9FBF44D00222121B5F8560080B290
:10509000FBF7FCFAD9F82C10584691FBF0F191FB84
:1050A000FBF20BFB12104E4680B200225D21FBF793
:1050B000EDFAF16A4FF4616091FBF0F080B20022EA
:1050C0005B21FBF7E3FA05F580766FF00607B08BFE
:1050D00018B1BA1C4021E1A002E03A464021E1A00B
:1050E000FBF72DFCF08B6FF003024FF0230108B1AA
:1050F000DFA000E0E0A0FBF722FCB08C20B16FF055
:1051000002022421DEA002E03A462421DEA0FBF7C1
:1051100016FC95F82C00A0B3012838D06FF01002CF
:1051200002284FF0250137D0DAA000BFFBF707FCBB
:1051300095F82D00012831D06FF003025E21AFF603
:10514000580000BFFBF7FBFBC34E002280363C211A
:10515000308F80B2FBF79AFA708F00223E2180B226
:10516000FBF794FAB6F93C004FF000024FF028012B
:10517000D0B180B2FBF78AFA01222B21B5F84800A2
:105180002EE4FFE76FF00B022521C7A0CEE76FF0FA
:1051900011022521C8A0C9E7CCA0C7E76FF0020221
:1051A0005E21AFF28C50CDE7AFF6C400FBF7C7FB32
:1051B000E2E7A94D687A401CC0B268720F2807D395
:1051C0000020711CC9B26872A976032900D3A876A1
:1051D000C348CDE9020EA87E20B1012804D00228E0
:1051E00019D003E0BFA000E0C4A004907246C9A09B
:1051F000049B0299FBF773FBCC4890F9010060B166
:1052000001280FD0022812D0032815D0042818D066
:1052100005281BD01EE0C6A0E7E7C449423181F84B
:105220002A9017E0C149423181F82D9012E0BF4920
:10523000423181F830900DE0BC49423181F8339021
:1052400008E0BA49423181F8369003E0B74942316B
:1052500081F83A90BC4E30784FF000024FF02601B2
:10526000FBF714FA307900225E21FBF70FFA307A4F
:1052700000222521FBF70AFA307B00223C21FBF7B4
:1052800005FA317E964800225E3800EB81003E210F
:10529000FBF755FBB08B00227B21FBF7F7F9A87DCC
:1052A000002801F0A9873A20FBF738F89F4D202607
:1052B00042352E543A20FBF731F82E547CE4884ACC
:1052C0002AAB163207CA07C3A0A00290A5A003907C
:1052D000AAA00490AFA00590B4A00690B9A0079032
:1052E000BEA00890C3A00990C8A00A90CDA00B90C2
:1052F000D2A00C90D7A00D90DCA00E90E1A00F9052
:10530000E6A01090EBA01190F0A01290F5A01390E1
:10531000FAA01490FFA009E220C0E2F2EEF0E5E26C
:10532000E5F0F12020202020202020200000000097
:1053300020CFEBE0E2EDEEE520EDE0F0E0F1F2E091
:10534000EDE8E5200000000020F2EEEAE020202059
:105350002020202020202028F1E5EA2E0000000057
:1053600020D3EFF0E0E2EBE5EDE8E520F1F3F5E83E
:10537000EC2020200000000020EAEEEDF2E0EAF24E
:10538000EEEC202020202020202020200000000003
:1053900020CDE0F1F2F0EEE9EAE020F0E5EBE520E7
:1053A000202020200000000020C2FBEAEBFEF7E5F1
:1053B000EDE8E520EFEE2020202020200000000076
:1053C00020F1F7E5F2F7E8EAF320E0ECEFE5F0F79B
:1053D000E0F1EEE20000000020F1EDE8E6E5EDE8A6
:1053E000FE20F2EEEAE02020202020200000000035
:1053F0002055E0E2E0F02020202020202020202066
:10540000202B422000000000B032000020CAE0EB58
:10541000E8E1F0EEE2EAE020202020202020202019
:105420000000000020D2E5F1F220D8C8CC202020D6
:10543000202020202020202000000000083D000027
:105440002020202020D3D1D2C0CDCEC2CAC8202057
:10545000202020200000000064000010EFF0FFEC8E
:10546000EEE50000EEE1F0E0F2EDEEE50000000018
:10547000F7F73AECEC000000ECEC3AF1F100000038
:10548000F8F3EDF200000000F1F3ECEC49E1EFF18C
:1054900000000000E8F1F22EEDE0EFF02E2DE8F133
:1054A000F22EF2EEEAE00000E8F1F2EEF7EDE8EAC3
:1054B00020F2EEEAE0000000E8F1F2EEF7EDE8EAB3
:1054C00020EDE0EFF0FFE6E5EDE8FF00E8F1F22E79
:1054D000F2EEEAE02DE8F1F22EEDE0EFF02E000022
:1054E0008E76010020202020203C3E202D20E2FB53
:1054F000E1EEF02020202020000000002020205E8F
:1055000076202D20F3F1F2E0EDEEE2EAE02020201B
:105510000000000020D3D1D2C0CDCEC2CAC020200E
:10552000C2D0C5CCC5CDC8200000000028020010A4
:105530002020202020A420202D20E2FBF5EEE420D6
:1055400020202020000000002040024020457468F8
:1055500065726E65742020202020202020202120CC
:10556000000000002044484350EAEBE8E5EDF2205B
:10557000202020202020402000000000204950E072
:10558000E4F0E5F1202020202020202020202020F1
:105590000000000020203030302E3030302E3030EF
:1055A000302E3030232020200000000020CCE0F1FD
:1055B000EAE020EFEEE4F1E5F2E8202020202020D0
:1055C0000000000020203030302E3030302E3030BF
:1055D000302E3030242020200000000020D8EBFEA8
:1055E000E7202020202020202020202020202020F4
:1055F0000000000020203030302E3030302E30308F
:10560000302E3030292020200000000020CFEEF086
:10561000F22EF7F2E5EDE8FF202020202020205B8D
:105620000000000020CFEEF0F22EE7E0EFE8F1E816
:10563000202020202020205D0000000020436F6DEE
:105640006D756E697479203C202020202020202058
:105650000000000020C0E4F0E5F1E0F220E4EBFF00
:105660002054524150204E310000000020203030A4
:10567000302E3030302E3030302E3030252020206B
:105680000000000020C0E4F0E5F1E0F220E4EBFFD0
:105690002054524150204E32000000002020303073
:1056A000302E3030302E3030302E30305E20202002
:1056B0000000000020C0E4F0E5F1E0F220E4EBFFA0
:1056C0002054524150204E33000000002020303042
:1056D000302E3030302E3030302E3030262020200A
:1056E0000000000020C0E4F0E5F1E0F220E4EBFF70
:1056F0002054524150204E34000000002020303011
:10570000302E3030302E3030302E30302A202020D5
:105710000000000020C0E4F0E5F1E0F220E4EBFF3F
:105720002054524150204E35000000001590FAA040
:105730001690FF48FF4D179040F61807B5F8700017
:1057400018B1384609F0BAF928B1F948039000F6C3
:1057500058200490059096F9010096F904108842AB
:1057600001DA307104E0411A022901DD801EF8E7F8
:1057700096F9040004EB8001D1E9012354F82010CC
:10578000EDA0FBF7ACF80120FBF745F8B5F8700089
:1057900050B1384609F092F9012805D06FF00202A5
:1057A0002121AFF68C3004E06FF003022121AFF627
:1057B000C860FBF7C4F8B5F8720028B16FF00202B8
:1057C0004021AFF6AC3004E06FF003024021AFF6A9
:1057D000E860FBF7B4F871782320022949D0002152
:1057E000CDE90001B5F97A30B5F97820B5F9761030
:1057F000B5F97400FAF7B1FE7178242004293CD081
:105800005FF00001CDE90001CA48B5F97E10803093
:10581000B0F90230B0F90020B5F97C00FAF79DFE2E
:105820007178292006292CD05FF00001CDE9000114
:10583000C0488030B0F93630B0F93420B0F93210B9
:10584000B0F93000FAF789FEBA4D002280355B21AD
:10585000A88D80B2FAF71AFFE88D00225D2180B290
:10586000FAF714FFB5F904006FF00D07FF280CD00C
:1058700014E0B178491CC9B2B2E7B178491CC9B289
:10588000C0E7B178491CC9B2D0E7E988FF2905D142
:105890002989FF2902D16989FF2914D0727825212D
:1058A0000B2A16D05FF00002CDE90012B5F90A30DC
:1058B000B5F90820B5F90610FAF74FFEB5F90C0056
:1058C000FF280AD012E03A462521A1A0FBF737F8BD
:1058D000F4E7B278521CD2B2E6E7E989FF2905D194
:1058E000298AFF2902D1698AFF2912D071780D29EE
:1058F00015D00021CDE90091B5F91230B5F910208D
:10590000B5F90E10FAF729FEB5F91400FF280AD0F0
:1059100012E03A465E218EA0FBF711F8F4E7B17869
:10592000491CC9B2E6E7E98AFF2905D1298BFF297D
:1059300002D1698BFF2914D0727826210F2A16D044
:105940005FF00002CDE90012B5F91A30B5F9182060
:10595000B5F91610FAF701FEB5F91C00FF280AD0B8
:1059600012E03A4626217AA0FAF7E9FFF4E7B27886
:10597000521CD2B2E6E7E98BFF2905D1298CFF2919
:1059800002D1698CFF2914D072782A21112A16D0ED
:105990005FF00002CDE90012B5F92230B5F9202000
:1059A000B5F91E10FAF7D9FDB5F92400FF280AD081
:1059B00012E03A462A2166A0FAF7C1FFF4E7B2786E
:1059C000521CD2B2E6E7E98CFF2905D1298DFF29C7
:1059D00002D1698DFF2925D072782821132A27D07A
:1059E0005FF00002CDE90012B5F92A30B5F92820A0
:1059F000B5F92610FAF7B1FD5A4900202AAA0B5C26
:105A00001354401CC0B20928F9D300208DF8B1000E
:105A10007078B2780A280FD000233C212AA8FAF720
:105A20007FFD4BE43A46282149A0FAF788FFE3E7D7
:105A3000B278521CD2B2D5E70123EEE73D4E803654
:105A4000F08F01280ED048A002904DA00390384856
:105A5000049000F65820059006904846A94203DAC3
:105A6000017104E04CA0EFE7012A00DD077199F90C
:105A7000040004EB800154F820204B684CA152A094
:105A8000FAF72DFF0220FAF7C6FEB6F8400001280B
:105A900004D06FF00402212151A071E26FF00202E4
:105AA000212152A0F9E753A0029058A003905DA0D5
:105AB00004901F48059000F6582006900790A942D0
:105AC00002DA89F8041003E0022A01DD89F80430C3
:105AD00096F9040004EB8001D1E9012354F8201069
