:020000040000FA
:1000000020280820E1000000E5000000E7000000D3
:10001000E9000000EB000000ED000000000000001F
:10002000000000000000000000000000EF000000E1
:10003000F100000000000000F3000000EBB500003C
:10004000F700000015D0000041D00000F7000000CC
:10005000F700000047EE0000F7000000F700000086
:10006000F7000000F7000000F7000000F7000000B4
:10007000F7000000F7000000F7000000F7000000A4
:10008000F7000000F7000000F7000000F700000094
:10009000F7000000F700000031230000F700000027
:1000A000F70000001BEC0000F7000000F700000064
:1000B00061030100F7000000F7000000F7000000F6
:1000C000F7000000F7000000F7000000DFF80CD098
:1000D00010F00EFA0048004769B7000020280820F9
:1000E00005480047FEE7FEE7FEE7FEE7FEE7FEE71E
:1000F000FEE7FEE7FEE7FEE7CD000000FEE710B5F5
:1001000012F0A6F812F032F912F024F912F0B2F857
:10011000AFF30080BDE8104012F0EEB810B512F059
:10012000FFFE13F041FC12F053FFBDE8104013F046
:10013000CBB812F013BE12F0DBBB09B10020704740
:1001400011F030B90020704770B5374A0020A2F195
:100150001401064601F10A030C5C54B11D5CAC426B
:1001600007D1145C2CB1641E14F0FF04145400D1A8
:100170000E540C5C1C54401CC0B20A28ECD370BD59
:1001800070B5294D0024143D641CE4B22E5D1EB1EF
:10019000864201D00A2CF7D3285523480C3040F86A
:1001A0002410283040F824203438035570BD1E4AEE
:1001B0000021143A491CC9B2535C834201D00A2978
:1001C000F8D3DBB2834210D117480C3050F82130FD
:1001D00016480360144B343353F821304360002039
:1001E0005054114A505401207047002070470E4A65
:1001F0000021143A491CC9B2535C834201D00A2938
:10020000F8D3DAB282420CD107480C3050F82120E2
:1002100006480260044A343252F82110416001203D
:100220007047002070470000DCE107204800001004
:100230000A4BDA6018705970704708490881704796
:100240000648B0F90810002907D0491E09B20181FB
:10025000002902D1084600F061BB704714C0072096
:1002600090F900308B4200DA027090F9003093422E
:1002700000DD0170704790F900308B4200DA0170A8
:1002800090F90010914200DD02707047B0F9003023
:100290008B4200DA0180B0F90010914200DD02804B
:1002A0007047B0F900308B4200DA0280B0F90030BC
:1002B000934200DD0180704703688B4201DB1946E1
:1002C00000E00160914200DD0260704701460020BD
:1002D00000E0401C0A5C002AFBD1704710B50022E8
:1002E00000E0521C835C8C5CA34201D1002BF8D14E
:1002F000D8B2E1B2401A10BD70477047FFFFFFFF50
:100300000020FB4A20211154401CC0B2C828FAD357
:1003100070470146F64A0020401CC0B2135C8B4275
:1003200001D0C828F8D3704710B50021F14C0A223B
:10033000B0FBF2F302FB13006054491CC9B218462B
:100340000529F5D310BDF0B5EB4B0121202719701D
:100350000521E84A002601E01C7844B1541814F83D
:10036000015C25B9814202D904F8017C05E05418EA
:1003700014F8015D303525701E70491E11F0FF0123
:10038000EAD1F0BDFEB52B23002802DA404200B2CC
:100390002D2300250A266C4690FBF6F706FB170076
:1003A00060556D1C6DB238B20A2DF5DB01260025B3
:1003B0000920202700E046B114F800C0BCF1000F6E
:1003C00003D1904201DD275405E0265C30362654E7
:1003D00000266D1CEDB2401E40B20028EBDA2D2B3A
:1003E00002D163556D1CEDB26AB168B205E0231805
:1003F00013F8013C2354401E40B29042F7DC2E20FB
:100400006D1CA054EDB20846FFF783FF0021B84AE7
:1004100004E0635C461A491C935549B2A942F8DBD3
:10042000FEBDFEB52B23002801DA40422D23002516
:100430000A266C46074690FBF6F006FB10776755D8
:100440006D1C6DB20A2DF5DB012600250920202741
:1004500000E046B114F800C0BCF1000F03D1904297
:1004600001DD275405E0265C3036265400266D1C3D
:10047000EDB2401E40B20028EBDA2D2B02D16355BD
:100480006D1CEDB26AB168B205E0231813F8013CA7
:100490002354401E40B29042F7DC2E206D1CA05425
:1004A000EDB20846FFF735FF0021914A04E0635C96
:1004B000461A491C935549B2A942F8DBFEBDFEB568
:1004C0002B26002801DA40422D2600240A276D46FB
:1004D000844690FBF7F007FB10CC05F804C0641CC1
:1004E00064B20A2CF4DB0127002009244FF0200C11
:1004F00000E04FB115F804E0BEF1000F04D19C42BA
:1005000002DD05F804C005E02F5D30372F550027C8
:10051000401CC0B2641E64B2002CEADA2D2E02D157
:100520002E54401CC0B26BB144B205E02E1916F82F
:10053000016C2E55641E64B29C42F7DC2E24401CD4
:10054000EC54C0B201EB810102EB8101CAB200217F
:10055000674B04E06C5C561A491C9C5549B28142B9
:10056000F8DBFEBD70B50D4616461C46FFF7DCFEF7
:10057000601CC0B2FFF7E7FE05EB850006EB8000CC
:10058000C1B25C4A5A4B0020A04201D2155C5D54B6
:1005900006D3155C202D03D04CB15E1806F8015C23
:1005A000491E401CC0B2C9B20528EDD370BD5D54D0
:1005B000F6E770B50446084615461E46FFF7A9FE45
:1005C0004B4B0146FF2804D106E01A54641C401C22
:1005D000C0B22278002AF8D148480078002804D018
:1005E000002E02D029445F20585470BD2DE9FF4FE2
:1005F0008146DDE90D048A469346FFF78AFE2022F4
:10060000DFF8F8803A490A234FF0640C012C09D135
:1006100098F8005035B10D18A5F10E05AA706A7052
:100620002A7020E099FBF3F603FB16970D1830377C
:10063000A5F10E05022CAF7096FBF3F703FB1766CE
:1006400006F130066E7099FBFCF606F1300605F8EF
:100650000E6B08D198F800602EB1A5F10A05AA70BA
:100660006A702A7021E09AFBF3F603FB16A70D18B7
:100670003037A5F10A05032CAF7096FBF3F703FBA7
:10068000176606F130066E709AFBFCF606F130062E
:10069000674605F80A6B08D198F800602EB1A5F1FD
:1006A0000605AA706A702A702AE09BFBF3F603FB2A
:1006B00016B70D183037A5F10605042CAF7096FB60
:1006C000F3F703FB176606F130066E709BFBFCF632
:1006D00006F13006674605F8066B11D198F8004020
:1006E00074B1A5F102050A546A702A70BDE8FF8F43
:1006F0004C020010C8030010CD030010820000104F
:10070000039C94FBF3F203FB124430340C5492FB31
:10071000F3F403FB14220844A0F1020030324270CB
:10072000039991FBF7F101F130010170DEE770B53B
:100730000D461446FFF7F8FD601CC0B2FFF703FE3C
:100740002846FFF7E6FDB44BB44A002124B95D5CAE
:10075000202D01D015540FE0A14201D25D5CF9E7D4
:1007600004D14FF02E0515545D5C02E05D5C202D38
:1007700002D0161806F8015C401E491CC9B2C0B26E
:100780000529E3D370BD17B501EB810002EB8000B2
:10079000C2B29DF80030A24803F00F0100EB131322
:1007A000445C9E498C54521ED2B21B788B549DF8E7
:1007B0000130521E03F00F04D2B2045D8C54521E5D
:1007C00000EB1313D2B21B788B549DF80230521EEB
:1007D00003F00F04D2B2045D8C54521E00EB1313CD
:1007E000D2B21B788B549DF80330521E03F00F04D5
:1007F000D2B2045D8C54521E00EB1310D2B20078BA
:1008000088541EBD01EB810102EB8101844A10B5C1
:1008100000F00F03C9B2D45C804B02EB10105C54A3
:10082000491EC9B20078585410BD01EB810102EB9A
:100830008101CBB27A4910B500F001028C5C774A95
:10084000D45444085B1E04F00100DBB2085CD054B1
:100850005B1ED8B2630803F001045B080C5D1454FE
:10086000401E03F00104C0B20C5D14545B08401E2E
:1008700003F00104C0B20C5D14545B08401E03F089
:100880000104C0B20C5D14545B08401E03F0010467
:10089000C0B20C5D1454401EC4B25808085C105518
:1008A00010BD30B55F4901235C4D91F9012091F9EC
:1008B000041000EB80048A4202D105F8243030BDD8
:1008C000564D4C1C00EB800005EB8000A24201D18C
:1008D000037530BD8C1CA24202D180F8283030BD97
:1008E000CC1CA24202D180F83C3030BD0C1DA2428B
:1008F00002D180F8503030BD4C1DA24202D180F8A8
:10090000643030BD8C1DA24202D180F8783030BDF9
:10091000C91D8A42FBD180F88C3030BD424B1A8809
:10092000521E104400B21880404A00EB800002447E
:100930003C48136803601279027142781144417097
:100940007047F0B5384D394FB5F9004004EB8406D7
:10095000641C2C80334C3E44256835602579357104
:10096000207061702271A370F0BDF0B505460E468F
:100970001746FFF7C5FC294C5FF00000401C15F836
:10098000011BC0B204F8011B1428F7D35FF000006C
:10099000401C16F8011BC0B204F8011B1428F7D341
:1009A0005FF00000401C17F8011BC0B204F8011BE7
:1009B0001428F7D35FF00000401C13F8011BC0B2ED
:1009C00004F8011B1428F7D3F0BD30B504460846DF
:1009D0001546FFF79EFCFF2809D0104A2178002910
:1009E00005D04319641C401CD154C0B2F6E730BD99
:1009F00010B5029CFFF7B9FF0A48C37882784178A6
:100A00006420FFF79EFF642094FBF0F0BDE81040E7
:100A1000C0B2FFF712BC0000C80300104C02001067
:100A20000A49010004020010A2000010AAEB0720EE
:100A300010B5FF4C082200212088401C2080204651
:100A4000FFF72FFCFB48B4F9001000EB410142888E
:100A50000A84B0F84E00A1F86C0010BDF64A30B41C
:100A6000F649B2F90A4040F6AC53B1F900009C4295
:100A700003DCB2F914209A4203DD142804DA401C86
:100A800001E008B1401E0880142230BC0021EB4870
:100A9000FFF7FCBBF0B5E848E9494FF42F72B0F915
:100AA0000000B1F90010E74B484390FBF2F01880CA
:100AB000E14842F210732030B0F90000484390FB47
:100AC000F2F0E149E44A0880E149E048B1F9004028
:100AD000E0490088B1F90010001B484390FBF3F097
:100AE0001080001B484390FBF3F0DC49DE4C08808B
:100AF000DB480188DB48B0F9003071B900210846B5
:100B000008E000BF00EB800504EB0515401C2D6AD2
:100B1000C0B229449842F5DB1180B2F900000021EF
:100B2000002800DA1180002202EB820004EB0010A2
:100B3000C578192D1BD28579C67905EB0626066284
:100B4000067A477A06EB0726C661867AC77A06EBED
:100B500007268661067B466280F84E50857B80F8CA
:100B60003E50057C467C05EB0625856406E08161E8
:100B70000162C161416280F83E108164521CD2B2B0
:100B80000C2AD1D3B948BA49008858430880B948DB
:100B9000B949008858430880F0BDB848416821F43D
:100BA000402141F480214160416821F4403141F409
:100BB00080314160416821F4404141F4804141600D
:100BC000416C21F4402141F400214164416C21F445
:100BD000403141F400314164416C21F4404141F421
:100BE00000414164A648016821F0E06101600168AC
:100BF00041F400110160016821F480310160016855
:100C000021F47F4141F4807101608115C1609D48EC
:100C10008903016070472DE9F0419B4C6088218871
:100C2000401A00B201F040FBA51D2880A088618811
:100C3000401A00B201F038FB6880A0882188401A71
:100C400000B201F031FB4FF49672A880A4F11E01AE
:100C5000904201DAA0880AE0B5F90200904201DA78
:100C6000608804E0B5F90000904201DA208808822B
:100C70004C7800231CB37048B1F91020403005684F
:100C800015440560456815444560856815448560D0
:100C9000C5682A44C2600A8B521C12B20A83B2F59C
:100CA000805F00DB0B83B1F91820950535D19212D6
:100CB00050F822502D12CD8140F822302DE0734F94
:100CC000887891F803C007EBC012B1F910E042F840
:100CD0002CE05FEA8C7212D100252A4607EBC01681
:100CE00056F82270521CD2B23D44202AF8D36A1121
:100CF000514D25F8102005F1200222F810E0401C8B
:100D0000C0B28870102808D30CF1010C0CF0FF0061
:100D10008B70C870202800D3CB70641C0B7014F04B
:100D20000100574A487005D0106820F0FF00001DF0
:100D3000106034E0897808070028106820F0FF0070
:100D400002DB00F1010001E000F1020010605048F8
:100D5000036843F080530360036A43F080430362F7
:100D6000036E43F080630366CB07436908D043F00A
:100D7000805343618B07436B05D423F0804304E029
:100D800023F08053F5E743F0804343634907416F05
:100D900002D421F0806101E041F080614167106878
:100DA00040F080701060BDE8F08110B50021D020C7
:100DB0000CF0FFFE0021BDE81040D4200CF0F9BE7D
:100DC0002DE9F05FDFF8CC80DFF8CCB0334D98F838
:100DD0000000334FDFF8CC90012600244FF4167A40
:100DE000012823D130480168491C91FBFAF20160C7
:100DF0000AFB121030B92D480078012802D1D0200A
:100E00000CF0D7FED9F80010484609B1491E016020
:100E100008462749B1F90010084303D188F800407B
:100E2000FFF7C3FF2348008800B145E07AE00000E7
:100E3000C403001038E207202C6500104E0100109A
:100E40002AC007202A01001078C00720D6E007201A
:100E5000D203001084C007202C010010C60300102C
:100E600078010010C2000010D0E2072054010010E9
:100E700074010010560100107601001000C00240FD
:100E80000040034000E100E0280000102C5D00104D
:100E900000C009206F0000109A01001071000010BE
:100EA000A0010010FC010010F801001099000010D2
:100EB0006C01001098010010BBF8000090B3FF4BCC
:100EC0001888401C01B2FE481980027832B1012A0C
:100ED0000CD0022A14D0032A1BD023E0F94A2E702A
:100EE000B2F9002091421DDB06701AE031B12C707E
:100EF000B7F90020914215DB022108E02E70F7E7D8
:100F0000F14A2C70B2F9002091420BDB03210170F1
:100F100007E0A9B185F80060B7F90020914201DB34
:100F200004701C8098F80000022854D1E74801683A
:100F3000491C91FBFAF201600AFB121010B108E0A3
:100F40002C70E9E7E2480078012802D1D4200CF0A7
:100F500030FED9F80010484609B1491E0160084624
:100F6000DC49B1F90010084303D188F80040FFF7CD
:100F70001CFFD948008800282DD0BBF800000028AD
:100F800029D0CE480188491C0AB2CD4902800B788D
:100F900073B1012B14D0022B1FD0032B1BD12AB30A
:100FA00085F80060B7F900309A4214DB0C7011E04C
:100FB000C44B2E70B3F900309A420CDB0E7009E07E
:100FC00032B12C70B7F900309A4204DB02220BE0F8
:100FD0002E70F7E70480BDE8F09FBB4B2C70B3F98F
:100FE00000309A42F7DB03220A70F3E72C70D9E74E
:100FF00070B5BA480078032843D1B949B9480A689E
:10100000521C0A60B0F90050B748B0F900002B1824
:10101000B648B0F900001C18B548B0F90000261811
:101020000020964204DCB34E08603288521C3280A5
:101030000968B14E0122A94201DB327000E0307034
:10104000AE4D8B4203DC8C4201DD2A7000E028703B
:10105000AB490A88521C12B20A80B2F5167F10DB27
:101060000880A8490A88521C12B20A803C2A08DB70
:101070000880A5490A88521C12B20A80182A00DB8F
:10108000088070BD0121D0200CF093BD0121D42037
:101090000CF08FBD70B591480125002405708B4878
:1010A0009B490460994800680860FFF7EBFF994886
:1010B000C571047288480088002809D096480088C5
:1010C000002805D07D4804807D4804709348057051
:1010D00070BD824910B5022008707C4800248C49FC
:1010E00004608F4800680860FFF7D0FF894901203D
:1010F000C8710C7278490988002909D08649098885
:10110000002905D06D490C806D490C708349087029
:1011100010BD7249032008707047704900200870A4
:1011200070476E490020087070476C4900200870B5
:101130006B4908606F4908807149088071490880CF
:101140007149088070476549002008702DE62DE937
:10115000F04106464FF4FA75002728460CF032FCA1
:10116000B04202DB0020804629E005EB47000CF08E
:1011700029FCB04200DC3C460A373FB2C82FF4DD00
:10118000C82C0FDA04F10A0709E000BF05EB4400A0
:101190000CF018FCB04200DCA046641C24B2BC4237
:1011A000F4DB0CE05FF0C80405EB44000CF00AFC33
:1011B000B04200DCA046641C24B2CA2CF4DD4046D8
:1011C000F1E52DE9F04106464FF47A7500272846EF
:1011D0000CF0F8FBB04202DB0020804629E005EB72
:1011E00047000CF0EFFBB04200DC3C460A373FB250
:1011F000C82FF4DDC82C0FDA04F10A0709E000BF9C
:1012000005EB44000CF0DEFBB04200DCA046641CA1
:1012100024B2BC42F4DB0CE05FF0C80405EB4400F0
:101220000CF0D0FBB04200DCA046641C24B2CA2CF7
:10123000F4DD4046B7E52DE9F05FDFF8E8903A4F7E
:101240003A4E99F800003A4C322542F2ED784FF0D0
:10125000000A40F2FE3B45282AD1307801286FD1A0
:101260002088401C00B22080404509DB86F800A0A1
:101270003049AC200CF063FC00210846FFF74EFB20
:101280002D49A1F800B0B4F9001091FBF5F005FB71
:10129000101100EB80023A80312909D14FF4FA7124
:1012A00001EB4000254900B2B1F900100CF047FCF9
:1012B00099F80000442843D1307842E098C00720D4
:1012C000720000109C0100109E010010F801001037
:1012D000990000106E010010980100106F000010BE
:1012E00000020010AA010010AC010010AE010010B5
:1012F000B0010010B60100109CC00720EC030010E4
:10130000E80300109AC00720EA030010EC01001067
:10131000FC0100100A0000109A010010710000107A
:10132000F0010010040200104001001070000010D5
:10133000A4000010CDABFFFF420100102A010010F5
:101340002BE0012829D12088401C00B22080404594
:1013500009DB86F800A0FA49AE200CF0F0FB002172
:101360000846FFF7DBFAA7F800B0B4F90010F54B18
:1013700091FBF5F005FB101100EB80021A8031297A
:101380000BD14FF47A7101EB4000EF4900B2B1F993
:101390000010BDE8F05F0CF0D2BB1CE62DE9F05F59
:1013A000EA48DFF8AC93DFF8AC83008830B3EA4852
:1013B000008818B3E94899F80030B0F90010E848FF
:1013C000012B007807D0E74A022BB2F900200CD09D
:1013D000A8F8002003E0012801D018B124E0E24879
:1013E000018021E0E1480188F9E7012801D018B126
:1013F0001AE0A8F8002017E0DD4812E0DD48B0F957
:101400000000022857D0012857D0DB480188D64871
:101410000180DA48B0F90000022850D0012850D0ED
:10142000D7480188A8F80010D648B0F90020D6485F
:10143000B0F90010CC48FEF729FFD448B0F90020DD
:10144000D348B0F90010C348FEF720FFD14E002565
:101450004FF0010A70790A2807D2401CC0B270719F
:101460000A2802D3757186F806A0CB49CB48CC4A2E
:101470000B78CC4CCC4F302B25D02B2B7ED0CB49AE
:10148000B04A332B74D0DFF828C3452B71D0442BDE
:1014900070D099F80010DFF8B092DFF818B3012986
:1014A00069D0022968D0032967D00570002053460F
:1014B000B7F90020E8E3C048A8E7C048A6E7C0485D
:1014C000AFE7C048ADE791F9011039B101291CD04F
:1014D0000570E562256384F828A089E240F2FE31B8
:1014E0007181B18180F800A00020B7F9002009E0E7
:1014F00000EB800304EB0313401CD962196383F8EB
:101500002850C0B29042F3DB72E2117811B1012988
:1015100015D06DE27581B581057000205346B7F98D
:10152000002009E000EB800104EB0111401CCD62BA
:101530000D6381F82830C0B29042F3DB58E240F2EC
:10154000FE317181B18180F800A00020B7F9002040
:101550000AE000BF00EB800304EB0313401CD962D8
:10156000196383F82850C0B29042F3DBFAE305E038
:10157000B1E0C6E035E160E13BE2F6E291F901302D
:1015800013B1032B57D05DE040F2FE337381B3817A
:1015900080F800A0E562256384F828A0E567C4F818
:1015A000805084F878A0C4F8CC50C4F8D05084F8A7
:1015B000C8A0C4F81C51C4F8205184F818A1C4F87C
:1015C0006C51C4F8705184F868A1C4F8BC515246FB
:1015D000C4F8C05184F8B821C4F80C52C4F81052B1
:1015E00084F80822C4F85C52C4F8605284F8582287
:1015F000C4F8AC52C4F8B05284F8A822C4F8FC5223
:10160000C4F8005384F8F822C4F84C53C4F850537B
:1016100084F84823C4F89C53C4F8A05384F8982352
:1016200091F9020000EB800004EB0010C362036339
:1016300080F8285096E3127812B1012AA4D091E3E1
:101640007581B581057004F1280450466560A56078
:1016500084F800A06565A56584F850A0C4F8A4507E
:10166000C4F8A85084F8A0A0C4F8F450C4F8F85006
:1016700084F8F0A0C4F84451C4F8485184F840A15B
:10168000C4F89451C4F8985184F890A1C4F8E45176
:10169000C4F8E85184F8E001C4F83452C4F8385270
:1016A00084F83002C4F88452C4F8885284F8800266
:1016B000C4F8D452C4F8D85284F8D002C4F82453E1
:1016C000C4F8285384F82003C4F87453C4F878533A
:1016D00084F8700346E30020B1F90010B2F900204D
:1016E000B7F900300AE000BF00EB800704EB0717F2
:1016F000401CC7E90B1287F82850C0B29842F3DBB0
:1017000030E39CF8000001284FF0000011D040F2B7
:10171000FE31B7F9002009E000EB800304EB03136E
:10172000401CD962196383F82850C0B29042F3DBA1
:1017300018E3B1F90010B2F90020B7F900304DE01C
:10174000CDABFFFF420100102C01001098010010EA
:101750006F000010900100109A010010A20100100B
:1017600071000010A60100108E010010A4010010ED
:10177000A8010010920100105C01001094010010FB
:101780006201001074010010760100105001001079
:10179000520100100A00001004020010780300102B
:1017A00086000010D0E20720C200001040010010A7
:1017B0007000001082C00720600100105E01001060
:1017C000660100106401001000EB800704EB0717AE
:1017D000401CC7E90B1287F82850C0B29842F3DBCF
:1017E000C0E29CF8000001284FF0000011D040F248
:1017F000FE31B7F9003009E000EB800204EB021281
:10180000401CD162116382F82850C0B29842F3DBC9
:10181000A8E2B1F90010B2F90020B7F9003009E0F0
:1018200000EB800704EB0717401CC7E90B1287F891
:101830002850C0B29842F3DB94E2B179F1B3FF498A
:10184000B1F900205AB1FE49DFF8F8C30B88DCF883
:1018500000C003FB0CF31BB293FBF2F20A80FA49BF
:10186000098841B1F949098829B1F949097801295B
:1018700048D0032946D0F249B9F90020B1F9001047
:101880008A4204DAF3490A8802F1010204E004DD25
:10189000F0490A88A2F101020A80A0F2FE31494211
:1018A0000AB2404201B2EB48FEF7F0FC6FF031099A
:1018B00032224946E748FEF7E9FC00E022E0E6482C
:1018C000B0F90010E548B0F90000814204DABBF835
:1018D000001001F1010104E005DDBBF80010A1F1E9
:1018E0000101ABF80010A8F2FE30404202B2C8F18C
:1018F000000001B2D748FEF7C9FC32224946D84859
:10190000FEF7C4FCD548D749B0F90000B1F9001082
:10191000C0EB4020400090FBF1F08146C848D2491E
:10192000B0F90000B1F90010C0EB4020400090FB7E
:10193000F1F08046AC200CF045F8A0F52B41CD39F4
:1019400007D1C648B0F90000FFF701FC00EB8000AA
:101950008146AE200CF036F8A0F52B41CD3907D1E9
:10196000B748B0F90000FFF72CFC00EB8000804680
:101970000020B7F9003039E0B349098841B1B349D3
:10198000098829B1B249097801290ED003290CD060
:10199000BBF900100FFA89F2521800EB800104EB3A
:1019A0000111CA620AD5CD620DE000EB800104EBA3
:1019B0000111CD620D6381F828A015E040F2FE37D9
:1019C000BA4200DDCF62A34A0FFA88F7B2F90020CD
:1019D000BA180A6301D50D6304E040F2FE37BA423B
:1019E00000DD0F6381F82850401CC0B29842C3DB71
:1019F000B8E19E48B0F90000052802DD86F808A08D
:101A000000E03572F571B07990B3307A80B39848C0
:101A1000B9F90010B0F90000814204DA8D4801885C
:101A200001F1010104E004DD8A480188A1F101010E
:101A300001806FF03109322249468648FEF726FCC4
:101A40008A48B8F90010B0F90000884204DABBF8FF
:101A5000001001F1010104E005DDBBF80010A1F167
:101A60000101ABF80010322249467D48FEF70EFC1A
:101A7000B8F900004FF4617148437A49C146B1F9A1
:101A8000001090FBF1F032308046AC200BF09AFF52
:101A9000A0F52B41CD3906D1B9F90000FFF757FB6E
:101AA00000EB8000804672486F49B0F90000B1F940
:101AB0000010C0EB4020400090FBF1F08146AE20CA
:101AC0000BF080FFA0F52B41CD3907D16848B0F964
:101AD0000000FFF776FB00EB800081460020B7F99D
:101AE000003039E05849098841B15849098829B17D
:101AF0005749097801290ED003290CD0BBF90010F1
:101B00000FFA88F2521800EB800104EB0111CA624F
:101B10000AD5CD620DE000EB800104EB0111CD622E
:101B20000D6381F828A015E040F2FE37BA4200DDCF
:101B3000CF62484A0FFA89F7B2F90020BA180A634F
:101B400001D50D6304E040F2FE37BA4200DD0F63B9
:101B500081F82850401CC0B29842C3DB4549A1F827
:101B600000804549E06A0880FCE0B179B9B3434997
:101B70000978A1BB4249B9F90020B1F9001001EB85
:101B80008101B2EB410F04DA32490A8802F1010205
:101B900004E004DD2F490A88A2F101020A80A0F2C4
:101BA000FE3149420AB2404201B22A48FEF76EFBBA
:101BB0006FF03109322249462648FEF767FB31486B
:101BC000B0F9000000EB80012348B0F90000B0EB51
:101BD000410F05DABBF8001001F1010105E015E045
:101BE00005DDBBF80010A1F10101ABF80010A8F26F
:101BF000FE30404202B2C8F1000001B21548FEF7C3
:101C000045FB322249461648FEF740FB1D4842F28A
:101C1000EC71B0F9000048431249B1F9001090FB93
:101C2000F1F08146164842F2EC71B0F900004843E9
:101C30000D49B1F9001090FBF1F026E028010010E9
:101C40008E010010F8010010980100109A01001098
:101C500072000010D00300102A010010680100106B
:101C600082C00720500100107401001078C00720C6
:101C70006A010010D80300108CC007209CC0072008
:101C8000B4010010B201001066E08046AC200BF0F9
:101C900099FEA0F52B41CD390AD1D848008800EB38
:101CA0008000400000B2FFF752FA00EB800081464E
:101CB000AE200BF087FEA0F52B41CD390AD1D048DC
:101CC000008800EB8000400000B2FFF77AFA00EBDA
:101CD000800080460020B7F9002030E0C94909782B
:101CE00041B100EB800104EB0111CD620D6381F87D
:101CF00028A022E0BBF900100FFA89F35B1800EB73
:101D0000800104EB0111CB6201D5CD6204E040F209
:101D1000FE37BB4200DDCF62BB4B0FFA88F7B3F949
:101D20000030FB180B6301D50D6304E040F2FE3771
:101D3000BB4200DD0F6381F82850401CC0B29042C6
:101D4000CCDB0FE000EB800104EB0111401CCD6205
:101D50000D6381F82830C0B29042F3DBAA480580B9
:101D6000ABF80050B571BDE8F09F00EB8001A748CB
:101D700010B500EB01100178032972D190F83E10E4
:101D80008A07B0F942200CD54FF496639A420DDAD7
:101D9000521C12B2A0F842209A4207DBA0F842304F
:101DA00004E01AB1A2F10102A0F842200A07B0F93A
:101DB00044204FF00A034FF000040AD50A2A13DA30
:101DC000521C12B2A0F844200A2A0DDBA0F84430BD
:101DD0000AE0002A05DDA2F1010212B2A0F84420B7
:101DE00002E001DAA0F84440CA06B0F946200AD55C
:101DF0000A2A0DDA521C12B2A0F846200A2A07DB82
:101E0000A0F8463004E01AB1521E12B2A0F84620E3
:101E10004278120701D004210FE07D4A127822B1E6
:101E2000C278142A01D9052107E0890601D50221CB
:101E300003E0C178142901D201218170C1780A29F7
:101E400090F8281002D341F0800101E001F07F01F9
:101E500080F828106F49B1F90A20C262B1F90C105C
:101E6000016310BD2DE9F05F6B48DFF8B481DFF846
:101E7000B4B101786948DFF8B0A16C4DB0F9000049
:101E80006B4E00276B4C022911D0012925D02780E9
:101E900069492868B1F90010884243DD6749306814
:101EA000B1F9001088423DDA2088401C3CE0DFF8A0
:101EB0009091B9F80010401A00B200F0F5F9C8F896
:101EC000000064214843B9F90010DFF8788190FBE5
:101ED000F1F02860BBF8001014E0DFF86C91B9F85D
:101EE0000010401A00B200F0DFF9C8F800006421C9
:101EF0004843B9F90010DFF8548190FBF1F02860F5
:101F0000BBF80010B8F80000081A00B200F0CCF9D5
:101F10006421CAF800004843B8F9001090FBF1F0C2
:101F20003060B5E72088401E494D20800A2128886E
:101F300000EB800001EB400002B200213D48FEF7BB
:101F4000A5F93548007800B9278042484249006821
:101F5000B1F90020414990420ADBB5F90030B4F9EB
:101F6000006003EB8303B6EB430F01DD01230B702D
:101F7000904208DBB5F90000B4F9002000EB8000C6
:101F8000B2EB400F00DC0F703548026822F440626B
:101F900002603448026842F020020260324A12783D
:101FA0002AB10978012A01D009B105E021B14169BE
:101FB00041F020014161D6E6416921F02001F9E7B5
:101FC0002748016821F4407101602648016841F00A
:101FD0001001016010490978032903D023490978C9
:101FE00019B107E02249097821B1416921F01001B6
:101FF00041617047416941F01001F9E7B2010010F9
:10200000B40100109CC00720D0030010D0E20720CC
:102010007AC007200A0000106F0000102A0100108B
:10202000DC0300102C010010E003001090C007201A
:1020300094C00720E60300107E010010800100100C
:10204000620100106A010010680100108E0100108A
:102050007C010010F80100107A010010E403001068
:1020600000C0024000C009209A000010710000105A
:10207000EC0300102DE9E84E0746542659B101291A
:1020800004D0022904D0032904D004E0552602E03C
:10209000752600E04C268348DFF8049207EB87039F
:1020A0004FF0000A00EB0310012A01D0EAB3F3E07D
:1020B00031B1012908D002290AD003290CD00FE040
:1020C000427842F001020AE0427842F0020206E061
:1020D000427842F0040202E0427842F00802427084
:1020E00080F84F1053208DF800008DF801708DF8A6
:1020F000026056468DF803A0694620460BF09BFD12
:102100006946201D00960BF096FDB9F83C0009F1D8
:1021100020058DF80000287E8DF80100287B8DF8C1
:1021200002008DF80360694600E02FE004F108002A
:102130000BF081FD287A8DF8000028798DF80100D8
:1021400028788DF802008DF80360694604F10C00D0
:102150000BF071FD41258DF800508DF801508DF880
:1021600002508DF80350694604F110000BF063FD36
:102170008DF800508DF801508DF802508DF8035005
:10218000694604F114000BF056FD6BE031B10129F2
:1021900008D0022913D0032915D007E0417821F097
:1021A000010102E0417821F00201417004F11000C8
:1021B0004FEA000B9DF8000053282CD107E041782E
:1021C00021F00401F1E7417821F00801EDE79DF8E5
:1021D0000100B8421FD19DF80200B0421BD16946F0
:1021E00058460BF06CFC9DF80000412813D106E026
:1021F0006D1EADB200E03F254545DBD14CE09DF8BA
:102200000100412807D19DF80200412803D19DF823
:102210000300412802D0002DEDD0E9E7B9F83C00D9
:1022200009F120058DF80000287E8DF80100287B3B
:102230008DF8020056468DF803A0694658460BF00B
:10224000FAFC287A8DF8000028798DF801002878AA
:102250008DF802008DF80360694604F114000BF05C
:10226000EAFC42258DF800508DF801508DF802509F
:102270008DF80350694604F118000BF0DCFC8DF872
:1022800000508DF801508DF802508DF803506946CA
:1022900004F11C000BF0CFFC00BFBDE8E88E00008D
:1022A00000400240D0E20720002801DA404200B29C
:1022B000704710B540F2D4700BF084FBF94C2070DD
:1022C00040F2D6700BF07EFB60704FF4FB600BF0B9
:1022D00079FBA07040F2DA700BF074FBE07040F212
:1022E000DC700BF06FFB207240F2DE700BF06AFBCB
:1022F00060724FF4FC600BF065FBA07240F2E2707C
:102300000BF060FBE0724FF401600BF05BFB20719F
:1023100040F612000BF056FB607140F614000BF013
:1023200051FBA07140F616000BF04CFBE07110BDA4
:10233000DD4810B5016821F0E06101604168DC4AC8
:10234000C1F30B13D94C117824F81130491CC9B2D0
:102350001170032903D2016841F08071016010BD42
:102360002DE9F041D34DD44E01272888D34C401C91
:1023700000B228800A280DDB06200BF023FB48B9A9
:102380003068C00706D1A07820B9012106200BF0E3
:10239000D6FBA770B5F90000B0F5967F0EDB0620DE
:1023A0000BF010FB012809D13068C00706D1A078D6
:1023B00020B9012106200BF0C2FBA770B4F934004C
:1023C000B0F5B47F0AD306200BF0FCFA002805D044
:1023D000BDE8F041002106200BF0B1BBBDE8F08163
:1023E0002DE9FF41B54900258031A1F15E04B1F925
:1023F000640000EB400202EBC0000A2290FBF2F006
:10240000E084E085032020852078401CC0B204F8D9
:102410002209182802D384F8225001E00F2843D85B
:102420002120FDF7E4FE50B1A5480088222806D1FE
:10243000A44894F8221090F90200884232D094F80F
:102440002B00A14D98B994F8220000EB800105EB18
:10245000011202F128021179577A167A53798DE820
:10246000CA0013784FF0ED0201460BF01AFE94F803
:1024700022000F2816D200EB800005EB0010C17877
:102480003C2905D2491CC9B2C170032902D207E018
:102490003C21C1700179032902D24179491C417163
:1024A000C1780171BDE8FF81844B112893F82B306E
:1024B00019D01228F6D1002BF4D1B1F96800814966
:1024C00090FBF2F0AA39C0B24B780C78891E4A789A
:1024D000CDE90230CDE900240B782922FF210846FE
:1024E0000BF0DFFDDEE7002BDCD174485030417883
:1024F000027808384378CDE90032CDE90215037837
:102500006222EBE76F4900204C39087048708870F0
:102510004C31487070472DE9F04F68484FF03C0E41
:1025200090F82C20803000F5807700F1800BF9685E
:10253000B0F93E4091FBFEF609B289463969B0F91F
:10254000405091FBFEF70FFA81F85C493FB2BA4662
:10255000CF78BBF90430BBF9061036B28AB1012A34
:102560003BD1B0F876C0ABF81CC0B0F87E00ABF839
:102570002000ABF81A40ABF81E50BBF902207AB924
:102580002DE0B0F87CC0ABF81CC0B0F87000ABF820
:102590002000ABF81A40ABF81E50BBF9002012B176
:1025A0004FF0FF3020E04748183800681AE000BFBD
:1025B00090FBFEF018E000BFABF816600AE000BF29
:1025C000ABF8169006E000BFABF816A002E000BF23
:1025D000ABF81680394880F83070BDE8F08F394884
:1025E000183840680029E3D1ABF81800134302D033
:1025F0000029E5D0E0E70029EAD0E5E7F0B50020C2
:10260000324A01464FF4F4731154401C00B2984210
:10261000FADBDFF8B0E000200EF1480E14277A2133
:10262000414300EB80039B0000EB80041BB207EBEF
:1026300084051EE01EF803405E2C21D0244E04EBDE
:10264000440416F814C002F801C006EB4404491C07
:1026500066785654491CA6785654491CE678565458
:10266000491C26795654491C64795454491C5B1CF6
:102670001BB29D42DEDC401C00B20428CFDBF0BD63
:102680004FF07E0C02F801C0491C42245454491CEE
:102690005A265654491C5654491C5454491C02F895
:1026A00001C0E3E7E8670010004003402800001085
:1026B0000A000010F0E00720500000106C0000102D
:1026C0004800001004020010D0E2072080E7072035
:1026D0008C4201002DE9F04FFC48ADB0B0F9561026
:1026E00000910170017A491CC9B20172142908D302
:1026F00000210172C279521CD2B2C271052A00D3E4
:10270000C171F349F24BF24891F9045091F901106B
:10271000DFF8B8A34A1B983B0078B3F92E304FF08E
:102720000A0B9E460AF1800A02ACE8B3E84F0D2876
:1027300001F04182212801F02E833B466B2893F95A
:10274000043004EB8303994601F03B833B465B78FE
:102750009B1E5BB26C2801F060836E2801F0FF8342
:102760006A2801F06186692801F09E863E4696F946
:1027700002807678761E4FFA86FC672801F0F18693
:102780000F2801F056871028FBD0042801F07A8723
:10279000CE4EDFF840E33E28B67E02F04F826F282F
:1027A00002F0D082332800E044E002F03A8670283C
:1027B00002F07286712802F0C4865A2802F0FD8663
:1027C0005E2802F021875F2803F0D280612803F0A1
:1027D0000D81622803F05F81632803F0B581122820
:1027E00003F00A82432803F03B82B84F45283F7923
:1027F00003F05082442803F08C82B54F302803F058
:10280000C183722803F0D6834FF0090B2E2803F002
:102810002484412803F0FB842C2803F007872B280D
:1028200003F03D87582804F0A0816D2804F0C6818C
:1028300004F00DBAA548C678032E2CD090F82C7061
:10284000A3484078C01E40B28146A0488030002F87
:10285000B0F9620000909D4800F5807390F8068002
:10286000B3F92CC04379C07E7ED0012F7DD0DFF834
:102870005C82022F7AD0022E00F0948796A70297EE
:10288000BCF1000F00F0C987BEF1000F00F0848793
:1028900097A700F0C1BF9CA00290A1A00390A6A0A2
:1028A0000490ABA002AD0346059007CDFEF75DF89E
:1028B000DFF81C82A8F11808A8F18005D8F81400E8
:1028C000B5F93E10884203DA00222121A6A019E0C2
:1028D000B5F940201144814203DD00222121A3A04B
:1028E00010E0B5F942201144814203DD002221218C
:1028F0009FA007E0B5F944201144814204DD002285
:1029000021219CA0FEF761F805F1460500226888A8
:102910002B2180B2FDF70BFF28880022402180B2D6
:10292000FDF705FFBAF940005F4690FBF7F0564609
:1029300080B200222321FDF7FAFEB6F93E00002204
:1029400090FBF7F080B22421FDF7F1FEA888002269
:10295000401C5E2180B2FDF7EAFED8F8140045461F
:1029600090FBF7F13C2002E013E0CEE2FDE391FBA7
:10297000F0F200FB121080B200227321FDF7D7FEA7
:1029800068694FF4167190FBF1F0002280B2542177
:10299000ECE3012E0FD078A00290BCF1000F4AD0DA
:1029A000BEF1000F01D074A044E0012B29D0002B10
:1029B00041D177A03EE07CA70297BCF1000F3AD04E
:1029C000BEF1000F05D0B8F1010F06D0B8F1030F2A
:1029D00003D0012B07D0D3B12DE0800701D578A01B
:1029E00028E071A026E040B1012808D0022808D0D4
:1029F000032808D0042808D012E077A01AE07CA0B1
:102A000018E081A016E086A014E08BA012E050B17F
:102A100001280AD00228CCD0032808D0042808D0E6
:102A20000528C0D007E08AA004E08FA002E094A0AF
:102A300000E099A002903AA003909DA0DFF88C805E
:102A40000490012E01D1A0A004903BA00590A4A069
:102A50000690A9A00790AEA00890B3A009901C48CA
:102A6000032A02DD80F8049002E0A94200DA017135
:102A7000009955460F2906DDB1A3B7A2BCA1C2A09B
:102A8000FDF773FF0CE090F9046004EB8600001D75
:102A90000EC854F82600FDF768FF0020FDF701FF7F
:102AA0000B4E983EB08D08B1F08D20B900225E210A
:102AB000BBA0FDF78AFFB6F922004FF47A77B8423F
:102AC00003DA01222B2180B271E16BE16C0000106E
:102AD00004020010C048010020C8F1F2EEF7EDE852
:102AE000EA20EDE0EFF02E205E2020200000000024
:102AF00020C8F1F2EEF7EDE8EA20EDE0EFF02E204D
:102B00005E3E3E3E00000000202020C8D1CFDBD238
:102B1000C0CDC8C520D4C0C7C020212000000000FF
:102B20002049F3202020202BC020556D61782020E3
:102B300020204042000000002049202020202023A7
:102B4000C02055202020202020202442000000000A
:102B500020D6E8EAEB204E2020205E2020203054B2
:102B60003A307320000000004100000042000000E5
:102B7000430000004400000020C8F1F2EEF7EDE849
:102B8000EA20F2EEEAE020205E2020200000000093
:102B900020C8F1F2EEF7EDE8EA20F2EEEAE02020BC
:102BA0005E3C3C3C0000000020C8F1F2EEF7EDE88E
:102BB000EA20F2EEEAE020202020202000000000A1
:102BC00020C8F1F2EEF7EDE8EA20F2EEEAE020208C
:102BD0005E203C3E0000000020C8F1F2EEF7EDE878
:102BE000EA20F2EEEAE020205E3E20200000000015
:102BF00020C8F1F2EEF7EDE8EA20F2EEEAE020205C
:102C00005E3E3E200000000020C8F1F2EEF7EDE845
:102C1000EA20F2EEEAE020205E3E3E3E00000000A8
:102C200020C8F1F2EEF7EDE8EA20F2EEEAE020202B
:102C30005E203E3E0000000020C8F1F2EEF7EDE815
:102C4000EA20F2EEEAE020205E20203E00000000B4
:102C500020C8F1F2EEF7EDE8EA20F2EEEAE02020FB
:102C60005E20203C0000000020C8F1F2EEF7EDE805
:102C7000EA20F2EEEAE020205E203C3C000000006A
:102C800020C8F1F2EEF7EDE8EA20F2EEEAE02020CB
:102C90005E3C3C200000000020C8F1F2EEF7EDE8B9
:102CA000EA20F2EEEAE020205E3C20200000000056
:102CB00020C4EBE8F22DF1F2FC2E202030743A30E3
:102CC000543A30730000000020202020202030746F
:102CD0003A30543A30732020202020200000000099
:102CE0002055EC61782EE8F1F22EF2EEEAE0202099
:102CF00020207BC20000000020C2FBF5EEE4202073
:102D00002020202020202020202020200000000043
:102D100020D3F1F2E0EDEEE2EAE8202020202020AE
:102D2000202020200000000020C2FBEFF0FFECE894
:102D3000F2E5EBE8202020202020202000000000E9
:102D400020E8EBE820EDE5F1EAEEEBFCEAEE20F41A
:102D5000E0E72E20000000002020CEF2F1F3F2F197
:102D6000F2E2F3E5F220EEE4EDE0202000000000C6
:102D7000202020202020F1E5F2E82121212120201F
:102D800020202020000000002020C0E2E0F0E8FF2A
:102D900020EFE8F2E0FEF9E5E92020200000000045
:102DA0002000000090FBFBF080B200222B21FDF7F9
:102DB000BEFCB5F94000B84203DA0122232180B2FB
:102DC00004E090FBFBF080B200222321FDF7AFFC72
:102DD000B5F93E00B84203DA0122242180B204E0B2
:102DE00090FBFBF080B200222421FDF7A0FCB5F996
:102DF0007C00B8420ADA01227B2180B2FDF797FC01
:102E0000B5F87C000122402180B20EE05F4690FBC5
:102E1000F7F080B200227B21FDF789FCB5F97C0038
:102E2000002290FBF7F080B24021FDF780FC98F87B
:102E300003004746012802D0308800F0B0BEB6F942
:102E40000400B6F90010FBE3F94D3C260022E868C7
:102E500090FBF6F106FB110080B27321FDF767FCD1
:102E6000E868002290FBF6F090FBF6F106FB1100FB
:102E700080B25421FDF75BFCE968FEE3EC4D3C2693
:102E80000022286990FBF6F106FB110080B2732145
:102E9000FDF74DFC2869002290FBF6F090FBF6F15F
:102EA00006FB110080B25421FDF741FC2969E4E7DB
:102EB00000223A21AFF21810FDF787FD00223A21D7
:102EC000AFF2241004E000BF6FF002027421D9A019
:102ED000FDF77BFDEFE3D64D3C260022286890FBF2
:102EE000F6F106FB110080B27321FDF720FC286883
:102EF000002290FBF6F090FBF6F106FB110080B289
:102F00005421FDF714FC2968D4E3022E11D0AFF24E
:102F100038400290BCF1000F4CD0BEF1000F02D03F
:102F2000AFF24C4045E0012B29D0002B42D1C4A088
:102F30003FE0C9A70297BCF1000F3BD0BEF1000FE4
:102F400005D0B8F1010F06D0B8F1030F03D0012B63
:102F500007D0DBB12EE0800701D5C5A029E0BEA0D7
:102F600027E040B1012808D0022808D0032809D062
:102F7000042809D013E0C4A01BE0C9A019E0AFF2F7
:102F8000904016E0CCA014E0D1A012E050B101288E
:102F90000AD00228CBD0032808D0042808D005285E
:102FA000BED007E0D0A004E0D5A002E0DAA000E0A7
:102FB000DFA00290E4A00390AFF20C30DFF8A08312
:102FC0000490022E02D1AFF200300490E5A00590EB
:102FD000EAA00690AFF2E0200790AFF2CC20089074
:102FE000AFF2BC20099092481830032A02DD80F825
:102FF000049002E0A94200DA0171009955460F29B8
:103000000ADDAFF2C423AFF2B022AFF29C21AFF2DF
:103010008820FDF7AAFC0CE090F9046004EB860020
:10302000001D0EC854F82600FDF79FFC0020FDF798
:1030300038FC7F4E803EB08D08B1F08D28B900225B
:103040005E21AFF2A420FDF7C0FCB6F924004FF4D6
:103050007A77B84203DA0122252180B204E090FB9E
:10306000FBF080B200222521FDF761FBB5F93E009F
:10307000B84203DA0122262180B204E090FBFBF083
:1030800080B200222621FDF752FBB5F94000B8427C
:1030900003DA01222A2180B204E090FBFBF080B227
:1030A00000222A21FDF743FBB5F97E00B8420ADA77
:1030B00001227D2180B2FDF73AFBB5F87E000122A6
:1030C0007D2180B20EE05F4690FBF7F080B20022D7
:1030D0007D21FDF72CFBB5F97E00002290FBF7F077
:1030E00080B27D21FDF723FB98F8030045460228B6
:1030F00001D07088F1E3B6F90400B6F90210084374
:1031000019D04B4F3C260022F86890FBF6F106FBE5
:10311000110080B27321FDF70AFBF868002290FBD2
:10312000F6F090FBF6F106FB110080B25421FDF79A
:10313000FEFAF968FEE33E4E3C270022306990FB20
:10314000F7F107FB110080B27321FDF7F0FA306947
:10315000002290FBF7F090FBF7F107FB110080B223
:103160005421FDF7E4FA3169E4E71AE0F9E2304E60
:103170003C250022706890FBF5F105FB110080B240
:103180007321FDF7D4FA7068002290FBF5F090FBF4
:10319000F5F105FB110080B25421FDF7C8FA716802
:1031A000D8E2012E10D0AFF230670297BCF1000FC9
:1031B00013D0BEF1000F02D0AFF2B457F5E0012BEF
:1031C000FAD0AFF23467F0E0AFF224670297BCF1B7
:1031D000000F02D0012B01D0CBB1E7E040B10128B4
:1031E00009D00228E8D0032808D0042809D017E025
:1031F000AFF21C67D9E0AFF20867D6E0AFF2E05754
:10320000D3E0AFF2CC57D0E0AFF29467CDE050B14D
:10321000012809D00228D4D0032806D0042805D0DC
:103220000528F1D0C2E0B5E0B7E0B9E0BBE00000AE
:10323000EC010010EDE5EFF0E5F0FBE2EDEE000053
:1032400020C8F1F2EEF7EDE8EA20EDE0EFF02E20F5
:103250005E3C3C3C0000000020C8F1F2EEF7EDE8D7
:10326000EA20EDE0EFF02E202020202000000000DA
:1032700020C8F1F2EEF7EDE8EA20EDE0EFF02E20C5
:103280005E203C3E0000000020C8F1F2EEF7EDE8C1
:10329000EA20EDE0EFF02E205E3E2020000000004E
:1032A00020C8F1F2EEF7EDE8EA20EDE0EFF02E2095
:1032B0005E3E3E200000000020C8F1F2EEF7EDE88F
:1032C000EA20EDE0EFF02E205E203E3E0000000000
:1032D00020C8F1F2EEF7EDE8EA20EDE0EFF02E2065
:1032E0005E20203E0000000020C8F1F2EEF7EDE87D
:1032F000EA20EDE0EFF02E205E20203C00000000F0
:1033000020C8F1F2EEF7EDE8EA20EDE0EFF02E2034
:103310005E203C3C0000000020C8F1F2EEF7EDE832
:10332000EA20EDE0EFF02E205E3C3C2000000000A3
:1033300020C8F1F2EEF7EDE8EA20EDE0EFF02E2004
:103340005E3C2020000000002055F3202020202596
:103350004220496D6178202020207D41000000003E
:103360006C000010205520202020202642204920DB
:103370002020202020202A41000000002049EC616C
:10338000782EE8F1F22EEDE0EFF02E2020207D41A6
:1033900000000000AFF2487707E0AFF2347704E0B6
:1033A000AFF2247701E0AFF210770297AFF6900703
:1033B0000397AFF204770497012E02D1AFF2F867BA
:1033C0000497AFF68C070597022E11D0AFF6F800E0
:1033D0000690BCF1000F34D0BEF1000F02D0AFF662
:1033E000F00003E0012BFAD0AFF2AC10069028E019
:1033F000AFF29C170697BCF1000F1FD0012B01D034
:1034000043B31BE040B1012809D002280BD00328A8
:103410000CD004280DD00FE0AFF2941001E0AFF211
:10342000801006900AE0AFF63810FAE7AFF2781095
:10343000F7E7AFF26410F4E7052823D098F81400FA
:1034400018B3AFF2FC000790AFF29C700890022E08
:103450001DD01FE050B101280BD002280CD003284A
:103460000DD00428E8D1AFF23810DAE7AFF28810B7
:10347000D7E7AFF27410D4E7AFF23C20D1E7AFF258
:103480006810CEE7AFF6B010CBE7F9A0AEE7AFF229
:10349000C8700890AFF234100990AFF2BC700A9077
:1034A000AFF228100B90AFF2B0700C90AFF2A0709A
:1034B0000D90AFF28C70DFF8D0830E90032A02DDFE
:1034C00088F8049003E0A94201DA88F80410009813
:1034D00055460F280ADDAFF29873AFF28472AFF24F
:1034E0007071AFF25C70FDF740FA0CE098F904607F
:1034F00004EB8600001D0EC854F82600FDF735FACF
:103500000020FDF7CEF9E04E983EB08D08B1F08D69
:1035100028B900225E21AFF27870FDF756FAB6F9AD
:1035200022004FF47A77B84203DA01222B2180B2CD
:1035300004E090FBFBF080B200222B21FDF7F7F8AE
:10354000B5F94000B94648450ADA0122232180B284
:10355000FDF7EDF8B5F8400001222A2180B20EE017
:103560005F4690FBF7F080B200222321FDF7DFF8E1
:10357000B5F94000002290FBF7F080B22A21FDF758
:10358000D6F8B6F924004F46B84203DA01222521C5
:1035900080B204E090FBFBF080B200222521FDF711
:1035A000C6F8B5F93E00B946484509DA0122262198
:1035B00080B2FDF7BCF8E88F0122242180B20EE032
:1035C0005F4690FBF7F080B200222621FDF7AFF8AE
:1035D000B5F93E00002290FBF7F080B22421FDF700
:1035E000A6F8B5F97E0048450ADA01227D2180B2AD
:1035F000FDF79DF8B5F87E0001227D2180B20EE036
:103600005F4690FBF7F080B200227D21FDF78FF836
:10361000B5F97E00002290FBF7F080B27D21FDF726
:1036200086F8B5F97C0048450BDA01227B2180B28F
:10363000FDF77DF8B5F87C000122402180B20FE053
:10364000A6E05F4690FBF7F080B200227B21FDF7F9
:103650006EF8B5F97C00002290FBF7F080B24021B3
:10366000FDF765F898F90400884F0228F87852DCD5
:10367000012821D03088002800E03EE07FF424AC0F
:1036800007F5C0763C253068002290FBF5F105FB7C
:10369000110080B27321FDF74AF83068002290FBD8
:1036A000F5F090FBF5F105FB110080B25421FDF718
:1036B0003EF831684EE056E0B6F90400B6F9001065
:1036C00008433FF4DBAB704E3C25183E0022F06807
:1036D00090FBF5F105FB110080B27321FDF727F88F
:1036E000F068002290FBF5F090FBF5F105FB11006E
:1036F00080B25421FDF71BF8F1684FF4616091FB33
:10370000F0F080B200227421FDF711F8B87D002896
:103710007FF4CEAB27E0022836D070880028ADD1E8
:10372000594D3C26183D0022686890FBF6F106FBD7
:10373000110080B27321FCF7FAFF6868002290FB49
:10374000F6F090FBF6F106FB110080B25421FCF775
:10375000EEFF69684FF4616091FBF0F080B20022E7
:103760007421FCF7E4FF4948C078012806D0464A96
:103770000021983A0228D18403F06982424900204E
:103780009839088503F063BAB6F90400B6F9021057
:10379000084396D0FFF758BB012B3FF479A8AFF24E
:1037A000605739E0AFF250570297BCF1000F34D0A8
:1037B000012B01D0CBB130E040B1012809D0022863
:1037C000EBD0032808D0042809D017E0AFF24857FF
:1037D00022E0AFF234571FE0AFF224571CE0AFF203
:1037E000105719E0AFF6105716E050B101280BD072
:1037F0000228D4D003280AD004280BD00528F1D001
:103800000BE0AFF21C5707E0AFF20C5704E0AFF249
:10381000F84701E0AFF2E8470297AFF2D4470397C9
:10382000AFF674370497022E02D1AFF664370497CF
:10383000AFF2D0470597012E10D0AFF6C4400690E6
:10384000BCF1000F56D0BEF1000F02D0AFF64840D9
:103850004FE0012BFAD0AFF6C8404AE0AFF6B847C8
:103860000697BCF1000F45D0012B11D04BB341E0BE
:103870002020202020202020202020202020202048
:103880002020202000000000040200106C00001026
:1038900040B1012809D00228D8D0032808D0042834
:1038A00009D017E0AFF6D04023E0AFF6BC4020E0EF
:1038B000AFF694401DE0AFF680401AE0AFF64850F6
:1038C00017E058B101280CD00228C4D003280BD02F
:1038D00004280CD00528F1D00CE029E1AFF6904087
:1038E00007E0AFF67C4004E0AFF66C4001E0AFF6D5
:1038F00058400690AFF6D8500790AFF64C4008906D
:10390000012E02D1AFF640400890AFF6D450099096
:10391000AFF634400A90AFF29C500B90AFF62840BF
:103920000C90AFF614400D90AFF604400E90032AB1
:10393000FF4800E022E102DD80F8049002E0A942A5
:1039400000DA0171009855460F280ADDAFF61043E2
:10395000AFF6FC32AFF6E831AFF6D430FDF705F83C
:103960000DE0F34890F9046004EB8600001D0EC8DA
:1039700054F82600FCF7F9FF0020FCF792FFEC4E0C
:10398000983EB08D08B1F08D28B900225E21AFF6C7
:10399000F030FDF71AF8B6F922004FF47A77B84202
:1039A00003DA01222B2180B204E090FBFBF080B20D
:1039B00000222B21FCF7BBFEB5F94000B946484573
:1039C0000ADA0122232180B2FCF7B1FEB5F84000EB
:1039D00001222A2180B20EE05F4690FBF7F080B210
:1039E00000222321FCF7A3FEB5F94000002290FB42
:1039F000F7F080B22A21FCF79AFEB046B6F924000F
:103A00004E46B04203DA0122252180B204E090FB49
:103A1000FBF080B200222521FCF789FEB5F94000B9
:103A2000B0420ADA0122232180B2FCF780FEB5F809
:103A3000400001222A2180B20EE05F4690FBF7F0A1
:103A400080B200222321FCF772FEB5F9400000226B
:103A500090FBF7F080B22A21FCF769FEB5F93E0031
:103A6000B04209DA0122262180B2FCF760FEE88F1D
:103A70000122242180B20EE05F4690FBF7F080B275
:103A800000222621FCF753FEB5F93E00002290FBF0
:103A9000F7F080B22421FCF74AFEB5F97C00B04271
:103AA0000ADA01227B2180B2FCF741FEB5F87C00E6
:103AB0000122402180B20EE05F4690FBF7F080B219
:103AC00000227B21FCF733FEB5F97C00002290FB3D
:103AD000F7F080B24021FCF72AFEB5F97E00B04233
:103AE0000ADA01227D2180B2FCF721FEB5F87E00C2
:103AF00001227D2180B20EE05E4690FBF6F080B29E
:103B000000227D21FCF713FEB5F97E00002290FB18
:103B1000F6F080B27D21FCF70AFE854890F904009A
:103B2000022836DC834DE878022806D0B8F8020077
:103B300000283FF41CABFFF7C7B9B8F90410B8F977
:103B4000020001433FF4F7AA794E3C27183E0022B9
:103B5000F06890FBF7F107FB110080B27321FCF7CE
:103B6000E6FDF068002290FBF7F090FBF7F107FB11
:103B7000110080B25421FCF7DAFDF1684FF4616066
:103B800091FBF0F080B200227421FCF7D0FDA87DFB
:103B9000BDE5684FF878012805D0B8F80000002886
:103BA0003FF499A9C7E7B8F90410B8F90000014338
:103BB0003FF464A9EEE500985E4E801E814202D17A
:103BC000AFF6CC6300E05CA35BA25BA160A0FCF756
:103BD000CCFE97F901000023401C80B21A46012157
:103BE000FCF7C0FC97F901000023801C80B21A4644
:103BF0000221FCF7B7FC97F901005B4D00EB800058
:103C000005EB001001238069062280B21946FCF7FB
:103C1000A9FC97F90100012300EB800005EB0010DF
:103C20000622806E022180B2FCF79CFC97F901000D
:103C3000012300EB800005EB00100B22006A1946FF
:103C400080B2FCF78FFC97F90100012300EB8000A4
:103C500005EB00100B22006F022180B2FCF782FC02
:103C600097F90100002300EB800005EB00100F2204
:103C7000406A012180B2FCF775FC97F9010000232E
:103C800000EB800005EB00100F22406F022180B294
:103C9000FCF768FC97F90200132200EB800005EBAB
:103CA0000010012190F83E00FCF7ACFD97F90200EE
:103CB000132200EB800005EB0010022190F88E002B
:103CC000FCF7A0FDB6F9561097F90100891E88424D
:103CD0005CDAC01C002380B21A460321FCF742FCC8
:103CE00097F90100012300EB800005EB001006228C
:103CF000D0F8B800032180B2FCF734FC97F901003A
:103D0000012300EB800005EB00100B22D0F8C0006F
:103D1000032180B2FCF726FC97F90100002300EB99
:103D2000800005EB00100F22D0F8C40080B21DE027
:103D3000040200106C00001020202020202E2020E3
:103D400020202E20202020202020202000000000E5
:103D50004E202020552CC22020492C41202074B018
:103D60004320202000000000D0E207200321FCF7C0
:103D7000F9FB97F90200132200EB800005EB00101D
:103D8000032190F8DE00FCF73DFDFBE4D048012163
:103D900080F83C10F6E4CF4BCFA2D5A1DAA0FCF717
:103DA000E4FDCB4801210A4680F83C10BAF83E00F9
:103DB0005B21554680B2FCF7BAFC01225D2102F07E
:103DC000F5B8D7A00290DCA00390E14804909B686E
:103DD00054F82510DFA0D9F80420FCF7C6FD012017
:103DE000FCF75FFD0AF15A054FF00002E8884FF03A
:103DF000210100EB800080B2FCF799FC28880022AA
:103E0000232180B2FCF793FC2888002200EB80007D
:103E10002D3080B2402102F018BFAD4EE03EBEF121
:103E2000000F01D0D1A000E0D6A00290DBA003904B
:103E3000E0A00490E5A00590EAA00690EFA007900E
:103E4000F4A00890F9A00990C1480A90022A01DD67
:103E50003B7102E0A94200DA397197F9041004EBD2
:103E60008100D0E9012354F82110F6A0FCF77DFD74
:103E70000120FCF716FDB6F930003C2590FBF5F16A
:103E800005FB110080B200225B21FCF750FCB6F963
:103E90003000002290FBF5F090FBF5F105FB1100DE
:103EA00080B27D21FCF743FCB6F930004FF4616726
:103EB00090FBF7F080B200227B21FCF738FCB6F9CA
:103EC0003200002290FBF5F105FB110080B25D216C
:103ED000FCF72DFCB6F93200002290FBF5F090FBC8
:103EE000F5F105FB110080B22921FCF720FCB6F9A1
:103EF0003200002290FBF7F080B22821FCF717FC7B
:103F0000B6F93400002290FBF5F105FB110080B2F8
:103F10003E21FCF70CFCB6F93400002290FBF5F0D2
:103F200090FBF5F105FB110080B23C21FCF7FFFB93
:103F3000F08E0122212180B2FCF7F9FB308F0122A3
:103F4000402180B2FCF7F3FB708F0122232180B265
:103F5000FCF7EDFB0122B08F242180B25BE7BFA00C
:103F60000290C4A00390C9A00490CEA00590D3A055
:103F70000690D8A00790DDA00890E2A00990E7A0E5
:103F80000A90ECA00B90F1A00C90F6A00D90FBA075
:103F90006F490E90FF48B0F95C0004EB800041606F
:103FA000AFF234718160AFF2387109F10409C16078
:103FB000B9E80E000298FCF7D8FC97F9010097F9D0
:103FC0000410421A022A01DD801E01E0884200DA54
:103FD00038710120FCF765FCEF4D287801286CD082
:103FE0006FF003022121EDA0FCF7EFFC68780128B7
:103FF00064D06FF003024021E8A000BFFCF7E5FCAD
:10400000A87801285BD06FF003022321E3A000BF52
:10401000FCF7DBFCE878012852D06FF00302242182
:10402000DEA000BFFCF7D1FC2879012849D06FF051
:1040300003022521D9A000BFFCF7C7FC687901283D
:1040400040D06FF003025E21D4A000BFFCF7BDFC9E
:10405000A879012837D06FF003022621CFA000BF36
:10406000FCF7B3FCE87901282ED06FF003022A2177
:10407000CAA000BFFCF7A9FC287A012825D06FF060
:1040800003022821C5A000BFFCF79FFC687A012825
:104090001CD06FF003022921C0A000BFFCF795FCE3
:1040A000A87A012813D06FF003022B21BBA000BF18
:1040B000FCF78BFCE87A012874E178E17CE180E18F
:1040C00084E188E18CE190E194E198E19CE1A0E158
:1040D0004C020010D54801002049EDE0E3F0203DFE
:1040E00020202020205DC020202020200000000073
:1040F0002055EDE0E3F0203D20202020205BC22071
:104100002020202000000000202020202020CDC0E2
:10411000C3D0D3C7CAC02020202020200000000028
:104120002046E2E5EDF22EF2E5EAF3F92E2020201A
:1041300020202125000000002046E2E5EDF22E6D52
:1041400061782E202820204025292023000000000F
:10415000F82C00002020202020C2C5CDD2C8CBDF03
:10416000D2CED020202020200000000020C2EAEB88
:10417000FEF7E5ED202020202020202020202020F8
:104180000000000020C2FBEAEBFEF7E5ED20202056
:104190002020202020202020000000002054EFF0CC
:1041A000FFEC2E2020202020307B3A307D3A305BFF
:1041B0000000000020D2EEE1F02E20202020202060
:1041C00030283A30293A305D0000000020D2EFE577
:1041D000F0E5EAEB2E202020202020303C3A303E33
:1041E000000000002049F1F22EEFF02E20202020C8
:1041F00020202020202021C0000000002049F1F2D2
:104200002EEEE1F02E20202020202020202040C073
:10421000000000002055F1F22EEFF02E202020208B
:104220002020202020202342000000002055F1F211
:104230002EEEE1F02E2020202020202020202442DD
:10424000000000002020202020C0C2D2CED0C5C255
:10425000C5D0D12020202020000000002020C0C296
:10426000D2CECCC0D2DB20CDC0C3D0D3C7CECA20E3
:104270000000000020C0E2F2EEECE0F220B93120B4
:1042800020202020202021200000000020C0E2F279
:10429000EEECE0F220B93220202020202020402027
:1042A0000000000020C0E2F2EEECE0F220B9332082
:1042B00020202020202023200000000020C0E2F247
:1042C000EEECE0F220B93420202020202020242011
:1042D0000000000020C0E2F2EEECE0F220B9352050
:1042E00020202020202025200000000020C0E2F215
:1042F000EEECE0F220B936202020202020205E20A5
:104300000000000020C0E2F2EEECE0F220B937201D
:1043100020202020202026200000000020C0E2F2E3
:10432000EEECE0F220B938202020202020202A20A6
:104330000000000020C0E2F2EEECE0F220B93920EB
:1043400020202020202028200000000020C0E2F2B1
:10435000EEECE0F220B9313020202020202029206E
:104360000000000020C0E2F2EEECE0F220B93131B2
:104370002020202020202B200000000020C0E2F27E
:10438000EEECE0F220B931322020202020203D2028
:10439000000000006C0000109EEB0720C2DBCACBBF
:1043A0002E0000003AD06FF003023D21EFE36FF0E2
:1043B00002022121CAA017E66FF002024021C8A024
:1043C0001CE66FF002022321C5A021E66FF0020275
:1043D0002421C3A026E66FF002022521C0A02BE60F
:1043E0006FF002025E21BEA030E66FF002022621CD
:1043F000BBA035E66FF002022A21B9A03AE66FF0C1
:1044000002022821B6A03FE66FF002022921B4A0E3
:1044100044E66FF002022B21B1A049E66FF00202E0
:104420003D21AFA001F019BCAFA00290B4A0039051
:10443000B9A00490BEA00590C3A00690C8480790FC
:10444000AFF6D4300890AFF6D83009F104090990DE
:10445000B9E80E000298FCF788FA97F9010097F97D
:104460000410421A022A01DD801E01E0884200DAAF
:1044700038710120FCF715FA0AF1580500222321B2
:104480002888FCF754F9B748002224214088FCF71B
:104490004EF9B4480222AE382521C06FFBF7C1FFA8
:1044A00000225E21E88858E58FA00290AEA003901C
:1044B000B3A00490B8A00590BDA00690C2A007903C
:1044C000C7A008909AA009909FA00A90A4480B90BA
:1044D000AFF664400C90AFF6684009F104090D9006
:1044E000B9E80E000298FCF740FA97F9010097F935
:1044F0000410421A022A01DD801E01E0884200DA1F
:1045000038710120FCF7CDF9964D0022AD1D212117
:104510002888FCF70CF9688800224021FCF707F98D
:10452000A88800222321FCF702F9AD1D002228886B
:104530002621FCF7FCF8688800222921FCF7F7F80F
:10454000A88800222821FCF7F2F8A5F1BA0003227E
:104550002521C06FFBF765FF00225E21BAF85E00DF
:10456000FBE4A54810F80800552812D0A3A002903B
:10457000A8A00390ADA00490B2A00590B7A00690AB
:10458000BCA00790C1480890012A04DD87F804C048
:1045900004E0BFA0EBE7A94200DA397197F9040003
:1045A00004EB800154F820204B68BFA1C4A0FCF7A5
:1045B000DCF90220FCF775F997F902000022401C93
:1045C00080B25E21FCF7B3F8664997F902004E39D4
:1045D000002231F810002121FCF7A9F8614997F970
:1045E00002004A39002231F91000A849493901EB8B
:1045F00080004021FCF7E9F95A4997F90200463951
:10460000002231F810002321FCF791F8554997F961
:1046100002004239002231F810002421FCF787F80B
:10462000504997F902003E39002231F81000252147
:1046300094E4964BA8A0153B1A461146FCF795F951
:10464000484D0023623D082295F90000012180B207
:10465000FBF788FF95F90100002380B209220121B0
:10466000FBF780FF95F90200002380B20A220121A6
:10467000FBF778FF97F9012005F1C400A42111543C
:1046800002F0E5BA9AA002909FA00390A4A0049023
:10469000A9A00590AEA00690A7A00790B2A0089090
:1046A000B7A00990BCA00A90C1A00B90C6A00C9026
:1046B000CBA00D90CFA00E90D3A00F90D8A01090BB
:1046C000DDA01190E2A01290E7A01390ECA014904E
:1046D000F1A01590F6A01690FBA0179000E2000044
:1046E000C2CACB2E000000002020DDCBC5CAD2D02C
:1046F000CED1CDC0C1C6C5CDC8C5202000000000A8
:1047000020C2E2EEE42020202020202023C220200E
:10471000202020200000000020CFDDD120202020FC
:104720002020202024C22020202020200000000063
:104730002050F1F3ECEC2E2020202020202025EA30
:10474000C2F22AF7000000002050F2E5EAF3F92E49
:104750002020202020205EC2F22020200000000027
:10476000F82C00001A02001020C2E2EEE420F42E21
:10477000412020202021C2202020202000000000F5
:1047800020C2E2EEE420F42E422020202040C2206D
:10479000202020200000000020C2E2EEE420F42EC1
:1047A000432020202023C2202020202000000000C1
:1047B00020CFDDD12020F42E412020202026C22031
:1047C000202020200000000020CFDDD12020F42E6A
:1047D000422020202029C22020202020000000008C
:1047E00020CFDDD12020F42E432020202028C220FD
:1047F0002020202000000000CA00001020C2FBE2A0
:10480000E5E4E5EDE02030212F4020202F3023206B
:104810000000000020CDEEECE8ED2EE5ECEA2E20C5
:104820002020202024412AF70000000020CDE0F0C5
:10483000E0E1EEF2EAE020202020202025F72E20E3
:104840000000000020CAEEEDF2F0EEEBFC20E5ECFB
:10485000EAEEF1F2E82020200000000020C2FBF088
:10486000E0E2EDE8E2E0FEF9E8E920E7E0F0FFE46D
:104870000000000020D0E0E7F0FFE4FB2020202033
:10488000202020202020202000000000D54801000A
:1048900020C2E2E5E4E5EDE0202030212F40202099
:1048A0002F302320000000002020202020C1C0D273
:1048B000C0D0C5DF204E5E20202020200000000058
:1048C00020C1C0D2C0D0C5C9CDDBC920C6D3D0CD90
:1048D000C0CB2020000000002020C2E2E5E4E8F286
:1048E000E52020EFE0F0EEEBFC20202000000000AF
:1048F00020C8F1F2EEF7EDE8EAEEE22020202020D9
:10490000202020210000000020CCE0EAF1E8ECE0CB
:10491000EBFCEDE0FF20E4EBE8F22D2000000000CE
:1049200020F1F2FC20EFF0EEF6E5F1F1E02020308E
:104930005B3A305D0000000020CEF2EEE1F0E0E6F0
:10494000E5EDE8E520E2F0E5ECE5EDE8000000004B
:1049500020EFF0EEF6E5F1F1E020202020202020ED
:10496000202020400000000020EDE020EFF3EBFCD1
:10497000F2E520202020202020202023000000001D
:1049800020C8E7ECE5F0E5EDE8E520F2EEEAE0200E
:10499000202020200000000020EDE0E3F0F3E7EA13
:1049A000E8202020202020202020202400000000BB
:1049B00020D0E5E6E8EC20E3EBE0E2EDEEE3EE20EC
:1049C000ECE5EDFE0000000020202020202020202B
:1049D0002020202020202020202020250000000052
:1049E00020D4E8EAF1E8F0EEE2E0EDEDFBE520208E
:1049F0002020200020202020202020202020EDE04A
:104A0000F1F2F0EEE9EAE80020D0E5EBE520E8ED90
:104A1000E4E8EAE0F6E8E82020202020000000009A
:104A200020F2EEEAEEEEE3F0E0EDE8F7E5EDE8FF88
:104A3000202020200000000020D0E5F1F2E0F0F27C
:104A400020202020202020202020205E00000000A8
:104A50002045746865726E65742020202020202017
:104A60002020202000000000204D4F4442555320BC
:104A700041445245535320202020203C0000000098
:104A8000204D4F44425553204241554452415445D4
:104A90002020202000000000202020202020202096
:104AA000202020202020202020203E300000000058
:104AB00020C0E2F2EEF0E5E2E5F0F1202020202037
:104AC000202020200000000020CFEBE0E2EDEEE50A
:104AD00020EDE0F0E0F1F2E0EDE8E520000000007C
:104AE000DFA01890E4481990E4A01A90E9A01B9068
:104AF000EE481C901D90022A01DD3B7102E0A942A4
:104B000000DA397197F9040004EB8001D1E901233F
:104B100054F82010E6A0FBF728FF0120FBF7C1FEA8
:104B2000E94E00222121B6F8560080B2FBF7FFFDC6
:104B300006F5C0753C20A96891FBF0F191FBF0F2FD
:104B400000FB121080B200225D21FBF7F0FDA96886
:104B50004FF4616091FBF0F080B200225B21FBF723
:104B6000E6FD803D6FF00607A88818B1BA1C402109
:104B7000D6A002E03A464021D6A0FBF726FFE888FF
:104B80006FF003024FF0230110B1D5A001E052E015
:104B9000D5A0FBF71AFFA88920B16FF002022421EB
:104BA000D3A002E03A462421D3A0FBF70EFF96F8EB
:104BB0002C0058B301282ED06FF0100202284FF0BD
:104BC00025012DD0CFA000BFFBF7FFFE96F82D00EA
:104BD000012827D06FF003025E21AFF6400000BF2E
:104BE000FBF7F3FEBAF8380000223C21554680B2AC
:104BF000FBF79DFD688F00223E2180B2FBF797FDF9
:104C0000B5F93C00A0B1002228214CE46FF00B0262
:104C10002521C1A0D8E76FF011022521C2A0D3E75A
:104C2000C6A0D1E76FF002025E21AFF24C50D7E789
:104C30006FF002022821AFF69C00EFE3A24D687AE4
:104C4000401CC0B268720F2807D30020761CF1B256
:104C50006872A976032900D3A876BD48CDE9020E73
:104C6000A87E20B1012804D0022818D003E0B9A002
:104C700000E0BEA004907246C2A0049B0299FBF71C
:104C800074FE97F9010060B101280FD0022812D0FC
:104C9000032815D0042818D005281BD01EE0BFA07B
:104CA000E8E7C4495E2081F82A0017E0C1495E2088
:104CB00081F82D0012E0BF495E2081F830000DE040
:104CC000BC495E2081F8330008E0BA495E2081F8D3
:104CD000360003E0B7495E2081F83A00B64E3078DE
:104CE0004FF000024FF02601FBF721FD3079002242
:104CF0005E21FBF71CFD307A00222521FBF717FD12
:104D0000307B00223C21FBF712FD307E90490022CF
:104D10005E3901EB80003E21FBF757FEB08B00228D
:104D20007B21FBF704FDA87D002801F090873A2045
:104D3000FBF7EFFA9F4D20262E543A20FBF7E9FAB5
:104D40002E549DE4824A2AAB16325F4D07CA07C330
:104D50009AA002909FA00390A4A00490A9A00590FF
:104D6000AEA00690B3A00790B8A00890BDA009908F
:104D7000C2A00A90C7A00B90CCA00C90D1A00D901F
:104D8000D6A00E90DBA00F90E0A01090E5A01190AF
:104D9000EAA01290EFA01390F4A01490F9A015903F
:104DA000FEA0169034481790B5F8700040F618072A
:104DB00018B1384608F006FE20B12F4803903B4852
:104DC000049005907B4E483E96F9010096F9041038
:104DD000884201DA307104E0411A022901DD801EA7
:104DE000F8E796F9040004EB8001D1E9012354F8B7
:104DF0002010F0A0FBF7B9FD0120FBF752FDB5F83C
:104E0000700050B1384608F0DDFD012805D06FF084
:104E100002022121AFF2387004E06FF00302212179
:104E2000AFF68820FBF7D1FDB5F8720028B16FF01E
:104E300002024021AFF2587004E06FF003024021FB
:104E4000AFF6A820FBF7C1FD71782320022906D018
:104E50005FF00001CDE90001B5F97A30B6E1F6E185
:104E600020F2EEEAE0202020202020202020202810
:104E7000F1E5EA2E00000000F82C000020CAE0EB6B
:104E8000E8E1F0EEE2EAE0202020202020202020AF
:104E90000000000020D2E5F1F220D8C8CC2020206C
:104EA000202020202020202000000000703800005A
:104EB0002020202020D3D1D2C0CDCEC2CAC82020ED
:104EC00020202020000000006C000010EFF0FFEC1C
:104ED000EEE50000EEE1F0E0F2EDEEE500000000AE
:104EE000F7F73AECEC000000ECEC3AF1F1000000CE
:104EF000F8F3EDF200000000F1F3ECEC49E1EFF122
:104F000000000000E8F1F22EEDE0EFF02E2DE8F1C8
:104F1000F22EF2EEEAE00000E8F1F2EEF7EDE8EA58
:104F200020F2EEEAE0000000E8F1F2EEF7EDE8EA48
:104F300020EDE0EFF0FFE6E5EDE8FF00E8F1F22E0E
:104F4000F2EEEAE02DE8F1F22EEDE0EFF02E0000B7
:104F5000EA48010020202020203C3E202D20E2FBBA
:104F6000E1EEF02020202020000000002020205E24
:104F700076202D20F3F1F2E0EDEEE2EAE0202020B1
:104F80000000000020D3D1D2C0CDCEC2CAC02020A4
:104F9000C2D0C5CCC5CDC8200000000020202020F4
:104FA00020A420202D20E2FBF5EEE420202020206C
:104FB000000000004C0200102040024020457468B0
:104FC00065726E6574202020202020202020212062
:104FD000000000002044484350EAEBE8E5EDF220F1
:104FE000202020202020402000000000204950E008
:104FF000E4F0E5F120202020202020202020202087
:105000000000000020203030302E3030302E303084
:10501000302E3030232020200000000020CCE0F192
:10502000EAE020EFEEE4F1E5F2E820202020202065
:105030000000000020203030302E3030302E303054
:10504000302E3030242020200000000020D8EBFE3D
:10505000E720202020202020202020202020202089
:105060000000000020203030302E3030302E303024
:10507000302E3030292020200000000020CFEEF01C
:10508000F22EF7F2E5EDE8FF202020202020205B23
:105090000000000020CFEEF0F22EE7E0EFE8F1E8AC
:1050A000202020202020205D0000000020436F6D84
:1050B0006D756E697479203C2020202020202020EE
:1050C0000000000020C0E4F0E5F1E0F220E4EBFF96
:1050D0002054524150204E3100000000202030303A
:1050E000302E3030302E3030302E30302520202001
:1050F0000000000020C0E4F0E5F1E0F220E4EBFF66
:105100002054524150204E32000000002020303008
:10511000302E3030302E3030302E30305E20202097
:105120000000000020C0E4F0E5F1E0F220E4EBFF35
:105130002054524150204E330000000020203030D7
:10514000302E3030302E3030302E3030262020209F
:105150000000000020C0E4F0E5F1E0F220E4EBFF05
:105160002054524150204E340000000020203030A6
:10517000302E3030302E3030302E30302A2020206B
:105180000000000020C0E4F0E5F1E0F220E4EBFFD5
:105190002054524150204E35000000002020303075
:1051A000302E3030302E3030302E3030282020203D
:1051B0000000000020D3D1D2C0CDCEC2CAC8204545
:1051C000746865726E65742000000000B5F978207F
:1051D000B5F97610B5F97400FBF708FA7178242058
:1051E000042938D05FF00001CDE90001BAF902309E
:1051F000BAF90020B5F97E10B5F97C00FBF7F6F995
:105200007178292006292AD05FF00001CDE900013C
:10521000BAF93630BAF93420BAF93210BAF9300096
:10522000FBF7E4F9BAF82C0000225B21554680B266
:10523000FBF77DFAE88D00225D2180B2FBF777FA5B
:10524000B5F904006FF00D07FF280CD014E0B17819
:10525000491CC9B2FEE5B178491CC9B2C4E7B178AE
:10526000491CC9B2D2E7E988FF2905D12989FF295C
:1052700002D16989FF2914D0727825210B2A16D012
:105280005FF00002CDE90012B5F90A30B5F9082047
:10529000B5F90610FBF7AAF9B5F90C00FF280AD0FA
:1052A00012E03A462521F8A0FBF78FFBF4E7B2782D
:1052B000521CD2B2E6E7E989FF2905D1298AFF29E4
:1052C00002D1698AFF2914D071780D2917D00022E4
:1052D0005E21CDE9001200BFB5F91230B5F91020FA
:1052E000B5F90E10FBF782F9B5F91400FF280DD0BF
:1052F00015E03A465E21E4A0FBF767FBF4E7B178DE
:10530000491CC9B25E22CDE90021E5E7E98AFF29FF
:1053100005D1298BFF2902D1698BFF2913D072781F
:1053200026210F2A15D00022CDE90012B5F91A3036
:10533000B5F91820B5F91610FBF758F9B5F91C00A6
:10534000FF280AD012E03A462621CFA0FBF73DFB0A
:10535000F4E7B278521CD2B2E6E7E98BFF2905D117
:10536000298CFF2902D1698CFF2914D072782A2157
:10537000112A16D05FF00002CDE90012B5F92230F3
:10538000B5F92020B5F91E10FBF730F9B5F9240066
:10539000FF280AD012E03A462A21BBA0FBF715FBF2
:1053A000F4E7B278521CD2B2E6E7E98CFF2905D1C6
:1053B000298DFF2902D1698DFF2925D072782821F6
:1053C000132A27D05FF00002CDE90012B5F92A3088
:1053D000B5F92820B5F92610FBF708F9AF4A0020E7
:1053E0002AA9135C0B54401CC0B20928F9D3002031
:1053F0008DF8B1007078B2780A2810D000233C21D3
:105400002AA8FBF7D6F89CE43A4628219EA0FBF791
:10541000DCFAE3E7B278521CD2B2D5E7A0E201236E
:10542000EDE79FA00290A4A00390A9A00490AE482D
:10543000059000F6783006900790A94201DA39719C
:1054400002E0022A00DD3B7197F9041004EB8100B1
:10545000D0E9012354F82110A4A0FBF786FA01201B
:10546000FBF71FFABAF83E0001225B210AF13E0564
:1054700080B2FBF75CF9688801225D2180B2FBF7FE
:1054800056F9E88A0022282180B2FBF750F9002261
:105490002921288BFEF761BD9AA002909FA003905E
:1054A000A4A00490A9A00590AEA006908E480790F5
:1054B00000F6783008900990A94201DA397103E0CA
:1054C000012A01DD87F804C097F9040004EB80018C
:1054D00054F820204B68A9A1AFF22C60FBF745FAE5
:1054E0000220FBF7DEF9AB4890F82E0030B16FF0E8
:1054F0000502012807D0022808D00BE06FF0020255
:105500002121A54804E02121A4A001E02121A6A099
:10551000FBF75BFAA74D00224021E88980B2FBF738
:1055200006F9288A0022232180B2FBF700F9688A55
:1055300000223C2180B2FBF7FAF800223E21A88A23
:10554000A8E79DA00290A2A00390A7A00490ACA001
:1055500005906548069000F6783008900990A942B9
:1055600001DA397103E0012A01DD87F804C097F9F7
:10557000040004EB800154F820204B68A6A1ACA0E5
:10558000FBF7F3F90220FBF78CF90AF1720501220F
:10559000E888212180B2FBF7CAF82889012240213E
:1055A00080B2FBF7C4F828880122232180B2FBF7E0
:1055B000BEF80122242168886CE7A3A00290A8A06D
:1055C0000390ADA00490B2A005907248464EA94247
:1055D000B0F95A0044F8206004EB800006F67836F3
:1055E00046608660C66001DA397102E0022A00DD99
:1055F0003B7197F9041004EB8100D0E9012354F8C2
:105600002110AFF2547044E3A7A00290ACA0039025
:10561000B1A00490B6A00590BBA00690C04807902A
:10562000A94201DA397102E0022A00DD3B7197F9E3
:10563000040004EB8001D1E9012354F82010B7E104
:10564000B8A000E0B9A0FBF7C0F95A4897F90210DA
:10565000C0304FF0000230F811004FF0230180B14C
:10566000B4A000BFFBF7B1F9524897F90210D0304F
:105670006FF0010230F811004FF05D0110B1AFA0E2
:1056800061E1B0E15EE1000020202020EDE5E0EAEC
:10569000F2E8E2E5ED2020202000000002000010EA
:1056A00020553D202020205BC22020493D20202085
:1056B000205DC0200000000020D8C8CC20EDE0EF25
:1056C000F0FFE62E3D2020202020282000000000B2
:1056D00020D8C8CC20F2EEEAE03D20202020202077
:1056E0002020292000000000F82C0000202020208D
:1056F0002020D2C5D1D220D8C8CC202020202020E4
:105700000000000020D1E8E3EDE0EB202020202085
:105710002020202020202120000000002054E7E04D
:10572000E42EE2EAEB2E20202020202040F1E5EAC2
:10573000000000002054E7E0E42EF1F0E0E12E202C
:105740002020202023F1E5EA0000000020645520FD
:105750002020202020202020202020203C25202028
:10576000000000002064492020202020202020204C
:10577000202020203E25202000000000D0C5CBC5E1
:1057800020D2CECACECEC3D0C0CDC8D7C5CDC8DFFB
:10579000000000006C0000109C430000C2CACB2E29
:1057A00028CDC72900000000C2CACB2E28CDD029A1
:1057B000000000006C010010205532202020202025
:1057C000202020202021C2202020202000000000B6
:1057D0002055332020202020202020202040C220BF
:1057E0002020202000000000204932092020202015
:1057F0002020202020234120202020200000000005
:10580000204933092020202020202020202441204E
:1058100020202020000000002020202020CDC0D10A
:10582000D2D0CEC9CAC820202020202000000000ED
:10583000202020D4C8CAD1C8D0CEC2C0CDCDDBC5AF
:10584000202020200000000020D1F3F5EEE920EA1E
:10585000EEEDF2E0EAF220B9312020200000000055
:1058600020D1F3F5EEE920EAEEEDF2E0EAF220B91C
:10587000322020200000000020D1F3F5EEE920EADC
:10588000EEEDF2E0EAF220B9332020200000000023
:1058900020D1F3F5EEE920EAEEEDF2E0EAF220B9EC
:1058A000342020200000000020F1EEF1F2EEFFEDA8
:1058B000E8E5202D204020202020202000000000AE
:1058C00020E0E2E0F0E8E9EDEEE5202020202020D5
:1058D000202020200000000020F1EEF1F2EEFFED8C
:1058E000E8E5202D2023202020202020000000009B
:1058F00020C7E2F3EA2020202020202020202020A2
:10590000205D20200000000020C4E8F1EFEBE5E975
:1059100020202020202020202028202000000000FF
:10592000D5480100E7E0ECEAEDF3F200F0E0E7EE45
:10593000ECEA2E00EDE5E7E0ECEA2E00E2FBEAEB14
:105940002E000000F8A0FBF740F897F90210F84885
:1059500030F8110044E100BF6FF001022821F2A0ED
:105960007BE100BF6FF001022821AFF2300074E14B
:10597000AFF2CC000290AFF2B8000390AFF2A800F3
:105980000490AFF294000590AFF284000690E948CD
:105990000790A94201DA397102E0022A00DD3B7169
:1059A00097F9041004EB8100D0E9012354F8211089
:1059B000E1A0FAF7DAFF0120FAF773FF97F9020086
:1059C0000022401C80B22121FAF7B1FED84897F995
:1059D000021084384FF00002405C4FF04001012873
:1059E0007FF430AE2CE6AFF2C4003BE6AFF24810D5
:1059F0000290AFF234100390AFF224100490D4A0C0
:105A00000590AFF2FC000690CA480790A94201DA5F
:105A1000397102E0022A00DD3B7197F9040004EBC2
:105A20008001D1E9012354F82010CFA0FAF79DFF9F
:105A30000120FAF736FFBE484FF0000284384FF0DD
:105A400040014078012819D0AFF22010FAF7BDFFCD
:105A5000B7484FF0000218384FF02301408880B15A
:105A6000AFF23010FAF7B1FFB1486FF00102103811
:105A70004FF05B01408838B1ABA007E0AFF25C109B
:105A8000E4E7AFF26010EDE7AFF25010FAF79DFFD8
:105A9000A748408854E0AFF2F0100290AFF2E01057
:105AA0000390AFF2CC100490A9A00590AFF2A8101B
:105AB0000690A0480790A94201DA397102E0022A53
:105AC00000DD3B7197F9041004EB8100D0E901235C
:105AD00054F82110AAA0FAF748FF0120FAF7E1FED6
