:020000040000FA
:10000000D8310820E1000000E5000000E700000012
:10001000E9000000EB000000ED000000000000001F
:10002000000000000000000000000000EF000000E1
:10003000F100000000000000F3000000E3E0000019
:10004000F7000000BF010100EB010100F700000014
:10005000F700000007290100F7000000F70000008A
:10006000F7000000F7000000F7000000F7000000B4
:10007000F7000000F7000000F7000000F7000000A4
:10008000F7000000F7000000F7000000F700000094
:10009000F7000000F7000000C9320000F700000080
:1000A000F700000011260100F7000000F700000033
:1000B000B5690100F7000000F7000000F70000003C
:1000C000F7000000F7000000F7000000DFF80CD098
:1000D00016F046FD0048004771E20000D8310820C4
:1000E00005480047FEE7FEE7FEE7FEE7FEE7FEE71E
:1000F000FEE7FEE7FEE7FEE7CD000000FEE710B5F5
:1001000018F0F6FB18F082FC18F074FC18F002FCF2
:10011000AFF30080BDE8104018F03EBC10B519F0F8
:100120004FFA1AF0BFF819F0A3FABDE8104019F021
:100130001BBC19F063B918F02BBF09B10020704740
:1001400017F080BC0020704770B5374A0020A2F13C
:100150001401064601F10A030C5C54B11D5CAC426B
:1001600007D1145C2CB1641E14F0FF04145400D1A8
:100170000E540C5C1C54401CC0B20A28ECD370BD59
:1001800070B5294D0024143D641CE4B22E5D1EB1EF
:10019000864201D00A2CF7D3285523480C3040F86A
:1001A0002410283040F824203438035570BD1E4AEE
:1001B0000021143A491CC9B2535C834201D00A2978
:1001C000F8D3DBB2834210D117480C3050F82130FD
:1001D00016480360144B343353F821304360002039
:1001E0005054114A505401207047002070470E4A65
:1001F0000021143A491CC9B2535C834201D00A2938
:10020000F8D3DAB282420CD107480C3050F82120E2
:1002100006480260044A343252F82110416001203D
:100220007047002070470000386E00100C0000106E
:100230001E4BDA601870597070471C48C16800295D
:100240000DD0491EC1600AD1194902780A7042785E
:100250004A700A710021C17001714171817170474A
:10026000124A1161907070471048016900290BD043
:10027000491E016108D10E4A817811700021517028
:10028000C1700171417181717047084908817047DF
:100290000648B0F90810002907D0491E09B20181AB
:1002A000002902D1084600F0DBBB704754C007208C
:1002B000F801001040EA01039B0703D009E008C9D8
:1002C000121F08C0042AFAD203E011F8013B00F81B
:1002D000013B521EF9D270470146002000E0401C4D
:1002E0000A5C002AFBD1704700487047FCB8010047
:1002F000084400EB104080B270477047FFFFFFFFDB
:10030000002801DA404200B270470020FD4A202157
:100310001154401CC0B2C828FAD370470146F94AAC
:100320000020401CC0B2135C8B4201D0C828F8D317
:10033000704710B50021F44C0A2200BFB0FBF2F365
:1003400002FB13006054491CC9B218460529F5D3B5
:1003500010BDF0B5ED4B0121202719700521EA4AA7
:10036000002601E01C7844B1541814F8015C25B94A
:10037000814202D904F8017C05E0541814F8015DAB
:10038000303525701E70491E11F0FF01EAD1F0BD15
:1003900070B50D461446002802DAC043401C00B276
:1003A000FFF7C7FF601CC0B2FFF7D3FF2846FFF777
:1003B000B5FFFF2819D0D44AD24B0021A14201D267
:1003C000555C13E004D14FF02E051D54555C03E03D
:1003D000555C202D03D04CB11E1806F8015C401E60
:1003E000491CC9B2C0B20529E8D370BD1D54F6E757
:1003F000F0B50D461446002801DA404200B2FFF77E
:1004000098FF601CC0B2FFF7A4FF2846FFF786FFE5
:10041000BD4ABC4B002164B9555C202D09D056184B
:100420007678202E03D12D261F1807F8016C1D5455
:100430000FE0A14201D2555CF9E704D14FF02E053F
:100440001D54555C02E0555C202D02D01E1806F8A4
:10045000015C401E491CC9B2C0B20529DBD3F0BD06
:10046000FEB52B23002802DA404200B22D230025DE
:100470000A266C4690FBF6F706FB170060556D1CCC
:100480006DB238B20A2DF5DB0126002509202027A0
:1004900000E046B114F800C0BCF1000F03D1904257
:1004A00001DD275405E0265C3036265400266D1CFD
:1004B000EDB2401E40B20028EBDA2D2B02D163557D
:1004C0006D1CEDB26AB168B205E0231813F8013C67
:1004D0002354401E40B29042F7DC2E206D1CA054E5
:1004E000EDB20846FFF71AFF0021864A04E0635C7C
:1004F000461A491C935549B2A942F8DBFEBDFEB528
:100500002B23002801DA40422D2300250A266C46C1
:10051000074690FBF6F006FB107767556D1C6DB231
:100520000A2DF5DB012600250920202700E046B131
:1005300014F800C0BCF1000F03D1904201DD275434
:1005400005E0265C3036265400266D1CEDB2401EB8
:1005500040B20028EBDA2D2B02D163556D1CEDB2B1
:100560006AB168B205E0231813F8013C2354401E19
:1005700040B29042F7DC2E206D1CA054EDB208462C
:10058000FFF7CCFE00215F4A04E0635C461A491C79
:10059000935549B2A942F8DBFEBDFEB52B260028D3
:1005A00001DA40422D2600240A276D46844690FB3E
:1005B000F7F007FB10CC05F804C0641C64B20A2CE9
:1005C000F4DB0127002009244FF0200C00E04FB19C
:1005D00015F804E0BEF1000F04D19C4202DD05F8DD
:1005E00004C005E02F5D30372F550027401CC0B2F6
:1005F000641E64B2002CEADA2D2E02D12E54401C67
:10060000C0B26BB144B205E02E1916F8016C2E553C
:10061000641E64B29C42F7DC2E24401CEC54C0B231
:1006200001EB810102EB8101CAB20021354B04E0EC
:100630006C5C561A491C9C5549B28142F8DBFEBDE0
:1006400070B50D4616461C46FFF773FE601CC0B21F
:10065000FFF77FFE05EB850006EB8000C1B22A4A5A
:10066000284B0020A04201D2155C5D5406D3155CD6
:10067000202D03D04CB15E1806F8015C491E401CC9
:10068000C0B2C9B20528EDD370BD5D54F6E770471E
:1006900070B50446084615461E46FFF73FFE194B47
:1006A0000146FF2804D106E01A54641C401CC0B265
:1006B0002278002AF8D116480078002804D0002EAD
:1006C00002D029445F20585470BD2DE9FF4F814668
:1006D000DDE90D048A469346FFF720FE2022DFF86D
:1006E000308008490A234FF0640C012C12D198F88D
:1006F00000507DB10D18A5F10E05AA706A702A7020
:1007000029E000003A020010BEC00720B603001026
:100710004600001099FBF3F603FB16970D183037CF
:10072000A5F10E05022CAF7096FBF3F703FB1766DD
:1007300006F130066E7099FBFCF606F1300605F8FE
:100740000E6B08D198F800602EB1A5F10A05AA70C9
:100750006A702A7021E09AFBF3F603FB16A70D18C6
:100760003037A5F10A05032CAF7096FBF3F703FBB6
:10077000176606F130066E709AFBFCF606F130063D
:10078000674605F80A6B08D198F800602EB1A5F10C
:100790000605AA706A702A7022E09BFBF3F603FB41
:1007A00016B70D183037A5F10605042CAF7096FB6F
:1007B000F3F703FB176606F130066E709BFBFCF641
:1007C00006F13006674605F8066B09D198F8004037
:1007D00034B1A5F102050A546A702A70BDE8FF8F92
:1007E000039C94FBF3F203FB124430340C5492FB51
:1007F000F3F403FB14220844A0F1020030324270EB
:10080000039991FBF7F101F130010170E6E770B552
:100810000D461446FFF78DFD601CC0B2FFF799FD31
:100820002846FFF77BFDFF4BFF4A002124B95D5CA2
:10083000202D01D015540FE0A14201D25D5CF9E7F3
:1008400004D14FF02E0515545D5C02E05D5C202D57
:1008500002D0161806F8015C401E491CC9B2C0B28D
:100860000529E3D370BD17B501EB810002EB8000D1
:10087000C2B29DF80030ED4803F00F0100EB1313F6
:10088000445CE9498C54521ED2B21B788B549DF8BB
:100890000130521E03F00F04D2B2045D8C54521E7C
:1008A00000EB1313D2B21B788B549DF80230521E0A
:1008B00003F00F04D2B2045D8C54521E00EB1313EC
:1008C000D2B21B788B549DF80330521E03F00F04F4
:1008D000D2B2045D8C54521E00EB1310D2B20078D9
:1008E00088541EBD10B504460846FFF717FDCF49D2
:1008F00004F00F028B5CCC4A01EB14111354401E20
:10090000C0B20978115410BD01EB810102EB8101E5
:10091000C64A10B500F00F03C9B2D45CC24B02EB5B
:1009200010105C54491EC9B20078585410BD01EB38
:10093000810102EB8101CBB2BC4910B500F00F027E
:100940008C5CB94AD45404095B1E04F00F00DBB27E
:10095000085CD0545B1ED8B2230903F00F040C5D71
:100960001454401E1B09C0B2C95C115410BD01EBE8
:10097000810102EB8101CBB2AC4910B500F001025C
:100980008C5CA94AD45444085B1E04F00100DBB21D
:10099000085CD0545B1ED8B2630803F001045B0806
:1009A0000C5D1454401E03F00104C0B20C5D1454DD
:1009B0005B08401E03F00104C0B20C5D14545B08D8
:1009C000401E03F00104C0B20C5D14545B08401ECD
:1009D00003F00104C0B20C5D1454401EC4B25808A8
:1009E000085C105510BD30B5914901238E4D91F929
:1009F000012091F9041000EB80048A4202D105F82D
:100A0000243030BD884D4C1C00EB800005EB80008D
:100A1000A24201D1037530BD8C1CA24202D180F8E4
:100A2000283030BDCC1CA24202D180F83C3030BD11
:100A30000C1DA24202D180F8503030BD4C1DA242A4
:100A400002D180F8643030BD8C1DA24202D180F802
:100A5000783030BDC91D8A42FBD180F88C3030BD62
:100A6000744B1A88521E104400B21880724A00EB70
:100A7000800002446E481368036012790271427864
:100A8000114441707047F0B56A4D6B4FB5F90040A5
:100A900004EB8406641C2C80654C3E44256835605C
:100AA00025793571207061702271A370F0BDF0B5A9
:100AB00005460E461746FFF728FC5B4C5FF000002A
:100AC000401C15F8011BC0B204F8011B1428F7D311
:100AD0005FF00000401C16F8011BC0B204F8011BB7
:100AE0001428F7D35FF00000401C17F8011BC0B2B8
:100AF00004F8011B1428F7D35FF00000401C13F822
:100B0000011BC0B204F8011B1428F7D3F0BD30B5A7
:100B1000044608461546FFF701FCFF2809D0424A63
:100B20002178002905D04319641C401CD154C0B25F
:100B3000F6E730BD10B5029CFFF7B9FF3C48C3781B
:100B4000827841786520FFF79EFF642094FBF0F0E7
:100B5000BDE81040C0B2FFF798BB801801D508442B
:100B600002E0884200DB401AC0B270472DE9FE4324
:100B70000D46440102A9204610F02BF9694604F104
:100B8000080010F026F901A904F10C0010F021F979
:100B90002846FFF7C3FB244C20254FF0300C25548A
:100BA000401CC0B2212704F800C0401CC0B24FF066
:100BB00040082754401CC0B2232104F80080401C88
:100BC000C0B200222554401CC0B22554401CC0B203
:100BD00004F800C0401CC0B22154401CC6B29DF8AD
:100BE00002002121FFF713FE9DF8000000222321BF
:100BF000FFF70DFE9DF80100401E0C2802D30120D6
:100C00008DF801009DF801000C49002201EB8000E5
:100C10004021FFF77CFFA555761CF0B204F800C018
:100C2000401C0DE0BEC007203A0200100EB20100C9
:100C3000F801001066000010A6F3072090B1010033
:100C4000C0B23A212754401CC0B200222154401C9B
:100C5000C0B2212104F800C0401CC0B204F80080DA
:100C6000401CC6B29DF80400FFF7D1FD9DF80500B9
:100C700000224021FFF7CBFDA555BDE8FE83000013
:100C8000FE486FF03B010088C0EB001001EB8000D4
:100C9000FB49C8847047FA4940F2F960888470477C
:100CA00010B5F74CA08C401C00B2A084B0F5E16FE9
:100CB00002DB0020A08410BDB0F5DF6F11D90F2337
:100CC00001226421D220FFF75BFA0F230022D821F2
:100CD000D720FFF755FA0F230022D821DC20FFF799
:100CE0004FFAB4F92400A0F5E0610739E3D1E548F3
:100CF000E54A018812689142DDD0B0F90010BDE8E4
:100D00001040142010F016B9E04A30B4E049B2F9AE
:100D10000A4040F6AC53B1F900009C4203DCB2F942
:100D200014209A4203DD142804DA401C01E008B1C3
:100D3000401E0880142230BC0021D54802F08AB839
:100D4000F0B5D248D3494FF4FA72B0F90000B1F9C6
:100D50000010D14B484390FBF2F01880CB4841F291
:100D600088332030D04DB0F90000484390FBF2F0BA
:100D7000CA49CC4A0880C449C2480C68C84900889E
:100D8000B1F90010001B484390FBF3F01080001BEA
:100D9000484390FBF3F02880C448C64B0188C44800
:100DA000B0F9004071B90020014607E001EB4106AF
:100DB00003EB4616491C366AC9B23044A142F5DB42
:100DC00010802880B2F900000021002800DA11808C
:100DD0005FF0000202EB420003EB4010C578192DD2
:100DE0001BD28579C67905EB06260662067A477A14
:100DF00006EB0726C661867AC77A06EB0726866168
:100E0000067B466280F84E50857B80F83E50057C1C
:100E1000467C05EB0625856406E081610162C161BF
:100E2000416280F83E108164521CD2B2202AD1D394
:100E3000A148A249008860430880A148A1490088D0
:100E400060430880F0BDA048416821F4402141F48E
:100E500080214160416821F4403141F4803141609A
:100E6000416821F4404141F480414160416C21F4EA
:100E7000402141F400214164416C21F4403141F4AE
:100E800000314164416C21F4404141F4004141642E
:100E90008E48016821F0E0610160016841F40011B1
:100EA0000160016821F480310160016821F47F4113
:100EB00041F4807101608115C1608548890301603A
:100EC0007047F0B5714D6E488249B5F9147040F61F
:100ED000AC5690F90F2000230C684FF0010CB7427C
:100EE00007DA142A02DA02F1010204E004DDC37316
:100EF0000DE062B1521EC27390F90F20132A04DB79
:100F000080F811C024F0010204E0022A03DC4374DB
:100F100044F001020A605A4AB5F90A4092F91020D9
:100F2000B44207DA142A02DA02F1010204E004DD15
:100F300003740EE06AB1521E027490F91020132A55
:100F400005DB80F812C0086820F0020005E0022AE4
:100F500004DC8374086840F002000860F0BD2DE9ED
:100F6000F041474C363460882188401A00B202F0C4
:100F700067F9A51D2880A0886188401A00B202F098
:100F80005FF96880A0882188401A00B202F058F901
:100F90004FF496723A49A880904201DAA0880AE09C
:100FA000B5F90200904201DA608804E0B5F900006A
:100FB000904201DA208848834C7800231CB33348E0
:100FC000B1F91A204030056815440560456815449C
:100FD0004560856815448560C5682A44C2604A8CAE
:100FE000521C12B24A84B2F5805F00DB4B84B1F927
:100FF0002220950535D1921250F822502D120D83E2
:1010000040F822302DE0344F887891F803C007EB88
:10101000C012B1F91AE042F82CE05FEA8C7212D1EA
:1010200000252A4607EBC01656F82270521CD2B291
:101030003D44202AF8D36A11144D25F8102005F1FB
:10104000200222F810E0401CC0B28870102808D39B
:101050000CF1010C0CF0FF008B70C870202800D33D
:10106000CB70641C0B7014F00100184A487035D026
:10107000106820F0FF00001D106064E07C03001089
:101080000EC00720AAE10720CCC00720C46D0010C5
:101090002E0100106E03001008010010BCC00720D4
:1010A000D0C007200A010010B40300105A0100103C
:1010B000860000107CE30720340100105601001068
:1010C000360100105801001000C0024000400340EB
:1010D00000E100E0B8010010C4650010897808073D
:1010E0000028106820F0FF0002DB00F1010001E0A1
:1010F00000F102001060FF48036843F08053036072
:10110000036A43F080430362036E43F08063036627
:10111000CB07436908D043F0805343618B07436B8F
:1011200005D423F0804304E023F08053F5E743F037
:10113000804343634907416F02D421F0806101E09D
:1011400041F080614167106840F080701060BDE838
:10115000F0812DE9F04FE848B0F9001019B1A1F184
:1011600001010180A5E00A210180E4490023DFF8A4
:1011700090B3DFF890830B7064208BF8000088F840
:101180000000E1481A46B0F90040E0480CE000BF1A
:1011900002EB420500EB4515ED78142D02D20D78D7
:1011A0006D1C0D70521CD2B2A242F1DB09788A4646
:1011B00002297ED3D649897A00297AD0D54A41F2CC
:1011C0008831DFF854C31160D44DCCF800300021D1
:1011D0002B601DE001EB410600EB4616B778012FAE
:1011E00014D1366ADCF80070B146BE4203DDCCF89B
:1011F000009088F800101768B94503DAC2F800902B
:101200008BF800102F6809EB07062E60491CC9B245
:10121000A142DFDB2E6896FBFAF5C14E35601668F9
:10122000012506B91560DCF80060642712687E436A
:1012300096FBF2F2DFF8ECC2BB4EA02ACCF80020FD
:1012400000DD3570782A01DA337032E03278012A15
:101250002FD1B64A1678CEB1137098F80020A2426A
:1012600007DA02EB420200EB421232F8503F5B1EFB
:10127000138001EB410100EB41106FF03102B0F936
:10128000501091420FDAA0F8502012E015709BF830
:101290000020A242EDDA02EB420200EB421232F8E9
:1012A000503F5B1CE4E7322903DD4FF03201A0F828
:1012B000501000BFBDE8F08F2DE9F041944C36345A
:1012C00060882188401A00B201F0BAFFA51D28806D
:1012D000A0886188401A00B201F0B2FF6880A0883F
:1012E0002188401A00B201F0ABFF4FF49672884992
:1012F000A880904201DAA0880AE0B5F90200904285
:1013000001DA608804E0B5F90000904201DA208833
:1013100048834E780020F6B30C79854A8CB1B1F938
:101320001A30156805EBA3051560556805EBA30594
:101330005560956805EBA3059560D56805EBA3039B
:10134000D360B1F91A30642B0EDACB8B4FF4FA6507
:101350005B1C1BB2CB83AB4208DBCD8310605060BB
:101360009060D060088353E0C88351E0052B4FD1D3
:10137000A4B18B8B5B1C1BB28B83B3F5007F00DBAE
:101380008883B1F91C305D0608D1DB1152F8235077
:101390002D120D8300E00FE042F82300B1F9202068
:1013A000962A01DD04B108711F3A272A30D20A7942
:1013B00072BB01220A712BE05E4F8A7891F803C05C
:1013C00007EBC214B1F91A3044F82C305FEA8C7381
:1013D00010D10024234607EBC21500BF55F8237037
:1013E0005B1CDBB23C44102BF8D32311504C403C27
:1013F00024F81230521CD2B28A70102A08D30CF191
:10140000010C0CF0FF028870CA70102A00D3C8705B
:101410000870761C16F00100474A487005D0106825
:1014200020F0FF00001D106032E0897808070028D6
:10143000106820F0FF0001DB401C00E0801C106001
:101440002C48036843F080530360036A43F08043F1
:101450000362036E43F080630366CB07436908D0E1
:1014600043F0805343618B07436B05D423F08043E3
:1014700004E023F08053F5E743F0804343634907DA
:10148000416F02D421F0806101E041F08061416749
:10149000106840F08070106059E610B50021D0202F
:1014A0000FF08BFD0021BDE81040D4200FF085BD6A
:1014B00070B5224C224800252178D1B121490988F4
:1014C000B9B1214A0168B2F9002011440160B1F5B7
:1014D000616F51DB1D4EA1F561610160316840F61D
:1014E0001C40491C31600FF068FD1949B1F900102A
:1014F00030E040E000C009206AC00720F00300107F
:10150000FDC00720F1030010860000107CE30720D7
:101510000EC00720E8030010F0C00720F4C0072029
:10152000EC030010F8C00720FCC00720FEC0072015
:10153000046E0010C465001000400340330000102A
:10154000E0030010F20000100A010010F401001086
:10155000F4000010306888420EDB2570FFF79DFF15
:1015600000231A4601217A20FFF78DFABDE870406A
:101570000020FEF78ABE056070BD70B5F74CF84AD2
:10158000F84825780021F5B3F74B1B88DBB3F74EFD
:10159000B0F90030B6F90060B34202DA5B1C038098
:1015A00070BD0020012D02D0022D02D004E0F048D1
:1015B00000E0F048B0F90000EF4BB3F900305843B9
:1015C000642390FBF3F0ED4B00B21880EC4BB3F9C1
:1015D0000030834216DA1088401C00B21080E94ABD
:1015E000B2F900209042DBDB2170FFF756FF0023A9
:1015F0001A4602217A20FFF746FABDE87040002023
:10160000FEF743BE00E001E0118070BD0180F9E704
:101610002DE9F05FDFF84483DFF86CB3DB4D98F819
:101620000000DFF86CA30126DA4F00244FF416798E
:10163000012862D1D8480168491C91FBF9F2016088
:1016400009FB121030B9D5480078012802D1D0200A
:101650000FF0B3FCDAF80010504609B1491E0160E2
:101660000846CF49B1F9001008430CD188F8004072
:10167000FFF713FF00231A4619467A20FFF703FAF3
:101680000020FEF702FEC748008888B3BBF80000C0
:1016900070B3C54B1888401C01B2C4481980027849
:1016A00032B1012A0BD0022A14D0032A1AD024E026
:1016B000BF4A2E70128891421FDB06701CE0B7F9FA
:1016C0000020914201DA2E7000E02C7015DB4FF003
:1016D000020105E0B74A2C70128891420DDB03210C
:1016E000017009E0B7F90020914202DA2C7001E0A4
:1016F00003E02E7001DB04701C8098F800000228C3
:1017000057D1A5480168491C91FBF9F2016009FB1A
:10171000121030B9A1480078012802D1D4200FF06E
:101720004CFCDAF80010504609B1491E0160084629
:10173000A149B1F9001008430CD188F80040FFF727
:10174000ACFE00231A4619467A20FFF79CF90020C8
:10175000FEF79BFD9348008800282AD0BBF80000C4
:10176000002826D090480188491C0AB28F4902807F
:101770000B785BB1012B10D0022B1CD0032B18D19E
:10178000B7F900309A421EDA2C701DE0884B2E709B
:101790001B889A420DDB0E700AE0B7F900309A42BE
:1017A00001DA2E7000E02C7003DB4FF0020208E03B
:1017B0000480BDE8F09F7F4B2C701B889A42F8DBB9
:1017C00003220A70F4E72E70F3DB0C70F0E770B5BB
:1017D00062480078032843D1784979480A68521C46
:1017E0000A60B0F900507748B0F900002B1876482D
:1017F000B0F900001C187548B0F900002618002048
:10180000964204DC724E08603288521C32800968AD
:10181000704E0122A94201DB327000E030706E4D43
:101820008B4203DC8C4201DD2A7000E028706B499A
:101830000A88521C12B20A80B2F5167F10DB0880AB
:1018400067490A88521C12B20A803C2A08DB0880C9
:1018500064490A88521C12B20A80182A00DB0880E8
:1018600070BD0121D0200FF0A8BB0121D4200FF0C2
:10187000A4BB70B55C48008802280AD15B48018887
:101880005B48B0F9000011B1012829D001E0401CEB
:1018900026D032480125002405703F483C490460A9
:1018A000544800680860FFF7DCFF53480572447233
:1018B00084723C48008840B13348008828B13A48D7
:1018C00004803A480470314805704C482146046051
:1018D0004B480460BDE8704040F61C400FF06DBB03
:1018E00070BD414810B5008802280AD13F480188E0
:1018F0003F48B0F9000011B101282AD001E0401C96
:1019000027D016490220002408702348204904608B
:101910003C4800680860FFF7A8FF374801210172C2
:10192000447284721F48008840B11748008828B16B
:101930001D4804801D480470144801702F4821463A
:1019400004602F480460BDE8104040F61C400FF0D2
:1019500034BB10BD014903200870704733000010EC
:10196000EAC00720E4030010F6000010FC0000109D
:101970007C0100104A010010F8000010ECC00720A4
:101980000A010010FE000010880100103500001050
:10199000EC0100108E010010E80100105C00001046
:1019A0004C01001086010010E4C007203600001032
:1019B0008A0100108C0100104E010010F00100108F
:1019C0009A0100109C0100109E010010A00100105F
:1019D000A6010010E8C00720DC030010D8030010A7
:1019E000E6C00720DA030010EE000010F00000103F
:1019F00022010010E00100100EC00720E0030010DB
:101A0000F4010010E4010010FC4900200870704748
:101A1000FA49002008707047F948B0F9001011B178
:101A2000491E01807047F74900200880F649088068
:101A30007047F24900200870F4490860F4490880B2
:101A4000F4490880F4490880F44908807047EB495C
:101A50000020087021E52DE9F041002406464FF4EE
:101A6000FA75A046274628460FF036F9B04228DA24
:101A700005EB47000FF030F9B04200DC3C460A3776
:101A80003FB2C82FF4DDC82C0EDA04F10A0708E0D3
:101A900005EB44000FF020F9B04200DCA046641CC6
:101AA00024B2BC42F4DB0CE05FF0C80405EB440058
:101AB0000FF012F9B04200DCA046641C24B2CA2C1C
:101AC000F4DD4046E8E42DE9F041002406464FF4F9
:101AD0007A75A046274628460FF0FEF8B04228DA6D
:101AE00005EB47000FF0F8F8B04200DC3C460A373F
:101AF0003FB2C82FF4DDC82C0EDA04F10A0708E063
:101B000005EB44000FF0E8F8B04200DCA046641C8E
:101B100024B2BC42F4DB0CE05FF0C80405EB4400E7
:101B20000FF0DAF8B04200DCA046641C24B2CA2CE4
:101B3000F4DD4046B0E42DE9F05FDFF8E492B94F00
:101B4000B94E99F80000B94C322542F2ED784FF0C9
:101B5000000A40F2FE3B46282AD13078012858D1AD
:101B60002088401C00B22080404509DB86F800A098
:101B7000AF49AC200FF0DEF900210846FEF770FFF8
:101B8000AC49A1F800B0B4F9001091FBF5F005FBE9
:101B9000101100EB80023A80312909D14FF4FA711B
:101BA00001EB4000A44900B2B1F900100FF0C2F9F6
:101BB00099F8000045282CD13078012829D12088B7
:101BC000401C00B22080404509DB86F800A09849FF
:101BD000AE200FF0AFF900210846FEF741FFA7F84D
:101BE00000B0B4F90010934B91FBF5F005FB101118
:101BF00000EB80021A8031290BD14FF47A7101EB8E
:101C000040008E4900B2B1F90010BDE8F05F0FF05E
:101C100091B9CEE52DE9FC5F8948DFF8E0A10088A5
:101C200028B38848008810B387489AF80030B0F984
:101C300000108648012B007807D0854A022BB2F9A4
:101C400000200BD08348028003E0012801D010B1AE
:101C500023E0814820E081480188FAE7012801D08B
:101C600018B11AE07B48028017E07D4812E07D48F9
:101C7000B0F90000022868D0012868D07A480188AD
:101C8000754801807948B0F90000022861D0012828
:101C900061D0774801886F48018076480021B0F90B
:101CA00000206D4801F0D6F873480021B0F90020FB
:101CB000684801F0CFF8714E00254FF001097079A6
:101CC0000A2812D2401CC0B270710A280DD3757157
:101CD00086F80690F1794846052906D2491CC9B212
:101CE000F171052901D3F571F0724D48644B6549D6
:101CF00090F800C0644C654F40F2FE38BCF1310FE3
:101D00002BD0BCF12B0F71D0BCF12C0F6ED0454AFB
:101D10004849BCF1340F6AD04348BCF1460F67D044
:101D2000BCF1450F65D09AF80000DFF864A1DFF838
:101D300064B101285ED002285DD003285CD01D70FC
:101D400000204B46B7F90010FCE3534897E753488F
:101D500095E753489EE753489CE790F9010038B156
:101D600001281ED01D70E562256384F828900BE2DF
:101D7000A6F81480A6F8168083F80090404600214B
:101D8000B7F900200AE000BF01EB410304EB431365
:101D9000491CD862186383F82850C9B29142F3DB1A
:101DA000F2E1087810B1012815D0EDE1B582F58295
:101DB0001D7000204B46B7F9001009E000EB40020F
:101DC00004EB4212401CD562156382F82830C0B281
:101DD0008842F3DBD8E1A6F81480A6F8168083F8D1
:101DE000009040460021B7F9002067E069E076E105
:101DF0008BE1B4E1DDE1A2E28FE3000033000010EB
:101E000000C10720C8030010D6C00720F001001051
:101E1000A6010010D8030010E6C00720DA03001066
:101E2000F80100101C0100103400001068000010C0
:101E3000CDABFFFF1E010010080100100A010010C9
:101E4000860100108801001090010010350000107C
:101E5000940100107E0100107C010010920100101E
:101E600096010010800100103C010010820100105A
:101E70004201001056010010300100100EC0072072
:101E8000660300104A0000107CE307208600001063
:101E9000C2030010C8C00720400100103E0100101E
:101EA000460100104401001001EB410304EB431311
:101EB000491CD862186383F82850C9B29142F3DBF9
:101EC00062E190F9012022B1032A02D0062A59D0FA
:101ED0005FE0A6F81480A6F8168004F1280483F8C1
:101EE00000906560A56084F800906566A56684F83A
:101EF0006090C4F8C450C4F8C85084F8C090C4F8C6
:101F00002451C4F8285184F82091C4F884514946DA
:101F1000C4F8885184F88011C4F8E451C4F8E85139
:101F200084F8E011C4F84452C4F8485284F84012CE
:101F3000C4F8A452C4F8A85284F8A012C4F80453F8
:101F4000C4F8085384F80013C4F86453C4F8685301
:101F500084F86013C4F8C453C4F8C85384F8C01399
:101F6000C4F82454C4F8285484F8201490F90200CA
:101F7000A4F1280400EB400004EB40104246C2628A
:101F80000263A9E0097811B101294DD0BEE3B58201
:101F9000F58204F128041D706560A56084F8009046
:101FA0006566A56684F86090C4F8C450C4F8C8504B
:101FB00084F8C090C4F82451C4F8285184F82091C2
:101FC000C4F88451C4F8885184F88091C4F8E4516D
:101FD000C4F8E85184F8E091C4F844524846C4F883
:101FE000485284F84002C4F8A452C4F8A85284F8B5
:101FF000A002C4F80453C4F8085384F80003C4F8DA
:102000006453C4F8685384F86003C4F8C453C4F834
:10201000C85384F8C003C4F82454C4F8285484F87E
:102020002004A4F1280471E3A6F81480A6F8168011
:1020300004F1280483F800906560A56084F800909E
:102040006566A56684F86090C4F8C450C4F8C850AA
:1020500084F8C090C4F82451C4F8285184F8209121
:10206000C4F884514A46C4F8885184F88021C4F8E1
:10207000E451C4F8E85184F8E021C4F84452C4F8AB
:10208000485284F84022C4F8A452C4F8A85284F8F4
:10209000A022C4F80453C4F8085384F80023C4F8F9
:1020A0006453C4F8685384F86023C4F8C453C4F874
:1020B000C85384F8C023C4F82454C4F8285484F8BE
:1020C000202490F90200A4F1280400EB400004EB66
:1020D00040104146C162016380F8285016E3B1F90F
:1020E00000C00020B2F90020B7F900100AE000BFDC
:1020F00000EB400304EB4313401CC3E90B2C83F8B3
:102100002850C0B28842F3DB00E3007801284FF08A
:10211000000010D04146B7F9002009E000EB400371
:1021200004EB4313401CD962196383F82850C0B2F2
:102130009042F3DBEAE2B1F900C0B2F90020B7F94E
:10214000001009E000EB400304EB4313401CC3E91B
:102150000B2C83F82850C0B28842F3DBD6E200781B
:1021600001284FF0000010D04146B7F9002009E0E7
:1021700000EB400304EB4313401CD962196383F85E
:102180002850C0B29042F3DBC0E2B1F900C0B2F90E
:102190000020B7F9001009E000EB400304EB431303
:1021A000401CC3E90B2C83F82850C0B28842F3DBF3
:1021B000ACE2F648B0F9000050B1F5490B68834233
:1021C00006DAF449B1F900205A4392FBF0F0088096
:1021D000B07988B3F048008840B1F048008828B151
:1021E000EF480078012834D0032832D0ED48B0F908
:1021F0000010E848B0F90000814204DABBF8001092
:1022000001F1010104E005DDBBF80010A1F10101BD
:10221000ABF8001032225142E34800F01BFEE348C5
:10222000B0F90010E248B0F90000814205DABAF8CE
:10223000001001F1010105E00BE005DDBAF8001026
:10224000A1F10101AAF8001032225142D94800F050
:1022500001FED748D849B0F90000B1F90010C0EB31
:102260004020400090FBF1F00090CA48D349B0F9FB
:102270000000B1F90010C0EB4020400090FBF1F0ED
:102280008046AC200EF028FDA0F52B41CD3907D1BA
:10229000C748B0F90000FFF7DEFB00EB80000090BC
:1022A000AE200EF019FDA0F52B41CD3907D1B9486C
:1022B000B0F90000FFF707FC00EB8000804600202B
:1022C000B7F900C038E0B449098841B1B349098879
:1022D00029B1B349097801290ED003290CD00099FE
:1022E0000AB2BAF90010521800EB400104EB411198
:1022F000CA620AD5CD620DE000EB400104EB41114A
:10230000CD620D6381F8289014E040F2FE339A42CA
:1023100000DDCB62BBF900200FFA88F39A180A633C
:1023200001D50D6304E040F2FE339A4200DD0B63F9
:1023300081F82850401CC0B26045C4DBE6E1A04BE8
:10234000B3F90000052802DD86F8099000E07572F7
:10235000DFF870C26422BCF9001091FBF2F2009227
:10236000002A01DC01220092401A00B2FDF7C8FFEA
:10237000009909B2884202DA86F80A9000E0B57244
:102380003572B07A78B1F07AB0B38D48F572B0F9A1
:1023900000108C48B0F90000814229DB2EDC31E0CE
:1023A000AAF800102EE0B07930B3707A20B37D48DF
:1023B000B0F900108448B0F90000814204DABBF89B
:1023C000001001F1010104E005DDBBF80010A1F1EE
:1023D0000101ABF8001032225142734800F03AFD7F
:1023E0007748B0F900107748B0F90000814204DA6C
:1023F000BAF80010491CD3E709E003DDBAF8001071
:10240000491ECDE7322251426A4800F023FD6D4853
:102410004FF46171B0F9000048436749B1F9001009
:1024200090FBF1F032300090AC200EF055FCA0F59E
:102430002B41CD3907D16348B0F90000FFF70BFB02
:1024400000EB80000090DFF880815C49B8F9000063
:10245000B1F90010C0EB4020400090FBF1F001907A
:10246000AE200EF039FCA0F52B41CD3906D1B8F9DC
:102470000000FFF728FB00EB800001900020B7F977
:10248000008041E04449098841B14449098829B1A3
:1024900043490978012913D0032911D000EB4001E9
:1024A00004EB411C0099BCF950200BB2BAF90010A2
:1024B00019445118CCF82C100BD5CCF82C500EE048
:1024C00000EB400104EB4111CD620D6381F82890CF
:1024D00018E040F2FE32914201DDCCF82C20019947
:1024E0000AB2BBF900105118CCF8301002D5CCF864
:1024F000305005E040F2FE32914201DDCCF8302050
:102500008CF82850401CC0B24045BBDB2F490098D6
:1025100008802F49E06A0880F8E0B079A0B32D4820
:10252000007888BB2C48B0F9000000EB80011D4802
:10253000B0F90000B0EB410F05DABBF8001001F173
:10254000010105E0DCE005DDBBF80010A1F10101AF
:10255000ABF8001042462946134800F07BFC3222BB
:102560005142114800F076FC1C48B0F9000000EB25
:1025700080010E48B0F90000B0EB410F30DABAF834
:10258000001001F1010130E03BE00000EC00001020
:10259000E80100107C010010860100108801001085
:1025A000360000100A010010C8C007200801001002
:1025B00048010010C2030010300100105601001045
:1025C000BCC007207E0100104A010010CA030010A1
:1025D000DAC00720E8C00720A4010010A201001003
:1025E00005DDBAF80010A1F10101AAF80010424679
:1025F0002946FF4800F02EFC32225142FD4800F0EF
:1026000029FCFD4842F2EC71B0F900004843FB4957
:10261000B1F9001090FBF1F00090F94842F2EC7132
:10262000B0F900004843F749B1F9001090FBF1F010
:102630000190AC200EF050FBA0F52B41CD390AD112
:10264000ED48008800EB8000400000B2FFF703FA7D
:1026500000EB80000090AE200EF03EFBA0F52B4179
:10266000CD390AD1E648008800EB8000400000B276
:10267000FFF729FA00EB800001900020B7F9001065
:1026800031E0E14A127842B100EB400204EB421221
:10269000D562156382F8289023E0009A13B2BAF944
:1026A00000209A1800EB400304EB431CCCF82C20CC
:1026B00002D5CCF82C5003E0424501DDCCF82C804B
:1026C000019A13B2BBF900209A18CCF8302002D539
:1026D000CCF8305003E0424501DDCCF830808CF876
:1026E0002850401CC0B28842CBDB0FE000EB400218
:1026F00004EB4212401CD562156382F82830C0B248
:102700008842F3DBABF80050AAF80050BF49B1F99A
:102710000000D8B1401E00B20880BD4ABD4908B9CA
:1027200015800D80B1F900C00020B2F90020B7F982
:10273000001009E000EB400304EB4313401CC3E925
:102740000B2C83F82850C0B28842F3DB00204A46A5
:10275000B7F900300EE000BF00EB400104EB41117F
:102760004F7817F08F0F03D0CD620D6381F82820CA
:10277000401CC0B29842EFDBB571BDE8FC9F00EB96
:102780004001A54810B500EB4110017803297ED126
:1027900090F83E204FF00A019307B0F942300DD572
:1027A0000A2B16DA5B1C1BB2A0F842300A2B10DB96
:1027B000A0F84210437843F0010309E04BB1A3F1C4
:1027C00001031BB2A0F842301BB9437823F0010388
:1027D00043701307B0F944304FF000040DD50A2BB5
:1027E0001BDA5B1C1BB2A0F844300A2B15DBA0F8E7
:1027F0004410437843F002030AE0002B0ADDA3F102
:1028000001031BB2A0F844303BB9437823F0020324
:10281000437002E001DAA0F84440D3060FD5B0F9C6
:1028200046300A2B17DA5B1C1BB2A0F846300A2B85
:1028300011DBA0F84610417841F004010AE0B0F93C
:10284000461041B1491E09B2A0F8461019B94178A5
:1028500021F00401417071490B78012B01D0022B4A
:1028600034D16F49098861B36E49022BB1F9001068
:1028700002D16D49B1F900106C4BB3F900306433EB
:102880005943642391FBF3F109B2694B00E04EE038
:10289000198083698B4290F8521013DD654BB3F9B0
:1028A000003003EB8303B1EB430F0FDA491CC9B2CD
:1028B00080F85210B1EB430F08DB417841F0800102
:1028C000417003E011B1491E80F85210417811F0B7
:1028D0008F0F01D004220FE0574B1B7823B1C37830
:1028E000142B01D9052207E0920601D5022203E04C
:1028F000C278142A01D201228270C2780A2A90F882
:10290000282006D342F0800280F8282041F00801F8
:1029100005E002F07F0280F8282021F008014170D4
:102920004649B1F91420C262B1F91610016310BD15
:102930004349444A01200870107048705070704735
:102940002DE9F0473548404E3C4C0078002510B347
:10295000B6F9000000EB8001B4F92800B0EB410F9C
:1029600001DA401C20853948DFF8E48047F2305A0C
:10297000B0F9000000EB8001B8F90000B0EB410FA6
:102980000BDD608D5246401C60852C4800212A30AA
:1029900000F060FA02E02585E5E76585DFF8B49090
:1029A0000127B9F9000000EB8001B4F92A00B0EB6F
:1029B000410F0ADBB6F90010B4F9282001EB8101C0
:1029C000B2EB410F01DB277301E000B92573224808
:1029D000B0F9000000EB8001B8F90000B0EB410F46
:1029E00040DAA08D5246401CA0850021134835E0F6
:1029F000C8C00720C2030010A2010010300100105F
:102A0000A401001056010010E8C0072004C10720EF
:102A100002C10720F60300107CE3072033000010FA
:102A200000010010480100107E010010020100109A
:102A3000F403001004010010C3C007200EC00720DB
:102A4000C4C00720BC030010640100106E01001018
:102A500008010010660100106C0100102C3000F01D
:102A6000F9F900E0A585B9F9000000EB8001B4F99F
:102A70002C00B0EB410F0ADBB6F90010B4F92820A6
:102A800001EB8101B2EB410F01DB677302E030B172
:102A9000607B28B1207B18B1A773BDE8F087657310
:102AA000A573FAE72DE9F05FC648DFF82083DFF869
:102AB00020B30178C448DFF81CA3C74DB0F900006B
:102AC000C64E0027C64C022911D0012925D02780E7
:102AD000C4492868B1F90010884243DDC249306812
:102AE000B1F9001088423DDA2088401C3CE0DFF854
:102AF000FC92B9F80010401A00B200F0A1FBC8F82F
:102B0000000064214843B9F90010DFF8E48290FB2B
:102B1000F1F02860BBF8001014E0DFF8D892B9F8A3
:102B20000010401A00B200F08BFBC8F800006421CE
:102B30004843B9F90010DFF8C08290FBF1F028603B
:102B4000BBF80010B8F80000081A00B200F078FBDB
:102B50006421CAF800004843B8F9001090FBF1F076
:102B60003060B5E72088401EA44D20800A212888C7
:102B700000EB800001EB400002B20021984800F019
:102B800069F99048007800B927809D489D499E4A80
:102B90000068B1F9001088420ADBB5F90030B4F9D9
:102BA000006003EB8303B6EB430F01DD01231370D9
:102BB000884208DBB5F90000B4F9001000EB800092
:102BC000B1EB400F00DC1770BDE8F09F8F48016843
:102BD00021F4407101608E48016841F010010160EC
:102BE00078490978032903D08A49097819B107E09F
:102BF0008949097821B1416921F01001416170478B
:102C0000416941F01001F9E72DE9F04F6D48DFF817
:102C10000CE2834B90F800C07F48B3F90060814B11
:102C20000078BEF9004082467A480122B3F90030AC
:102C300000780021834674480578AEF13200877B26
:102C400090F80D80007B8146AEF1040024B3012C86
:102C50000AD0022C13D0032C19D0042C1FD0052C21
:102C600029D0062C33D039E0BCF1030F03D0BBF1DF
:102C7000000F32D02FE0BAF1000F2ED12BE016B1A9
:102C8000012E02D02AE00DB327E02DB123E013B1CD
:102C9000012B02D022E0CFB11FE0F7B11BE013B14E
:102CA000012B04D01AE0B8F1000F14D015E0B8F1F0
:102CB000000F12D00FE013B1012B04D00EE0B9F1D8
:102CC000000F08D009E0B9F1000F06D003E0534C23
:102CD000A41E24780CB1027000E00170BEF902401D
:102CE0007CB1012C10D0022C1AD0032C21D0042C42
:102CF00028D0052C31D0062C04D1484B9B1E5B7884
:102D000043B94170BDE8F08FBCF1030F04D0BBF1B3
:102D1000000FF6D04270F5E7BAF1000FF1D1F9E7F4
:102D200026B1012EEED1002DF4D1EAE7002DF1D02D
:102D3000E7E723B1012BE5D1002FEBD1E1E7002F2D
:102D4000E8D0DEE72BB1012BDCD1B8F1000FE1D1E7
:102D5000D7E7B8F1000FDDD0D3E72BB1012BD1D1EC
:102D6000B9F1000FD6D1CCE7B9F1000FD2D0C8E746
:102D70002649086820F4404008602548026842F06F
:102D800080020260254A121F1378012B436912D07A
:102D900043F0800343610B6823F440630B600168D8
:102DA00041F02001016051780129416906D041F0CC
:102DB00020014161704723F08003EBE721F02001FF
:102DC000F7E700003300001008010010CC030010EA
:102DD0000A010010D0030010DCC00720E0C007206B
:102DE000D6030010680100106A01001042010010B3
:102DF0004A010010480100107C010010620100101F
:102E0000E801001060010010D403001000C002406F
:102E100000C0092035000010DC03001040C007206E
:102E20005C0100105E01001090F900308B4200DA66
:102E3000027090F90030934200DD0170704790F904
:102E400000308B4200DA017090F90010914200DDF1
:102E500002707047B0F900308B4200DA0180B0F99F
:102E60000010914200DD02807047B0F900308B42C3
:102E700000DA0280B0F90030934200DD0180704733
:102E800003888B4200D201800188914200D90280E0
:102E9000704703688B4201DB194600E001609142F4
:102EA00000DD0260704703688B4200DA026003684D
:102EB000934200DD0160704770B5D8480278D84869
:102EC000016812B141F0010101E021F0010101604E
:102ED0000021D44C5FF0010301EB410204EB4212EC
:102EE000527832B1CD1C03FA05F2056895431543BB
:102EF00004E0CA1C056803FA02F29543491CC9B2F2
:102F000005600C29E8D32946C54D00221435AC5C78
:102F100034B102F10F0603FA06F4A143214304E0A1
:102F200002F10F0403FA04F4A143521CD2B2062AA0
:102F3000EDD3BD4D00220160AC5C012C2FD002F11D
:102F4000190403FA04F4A143521CD2B2042AF3D3A5
:102F50000160836821EA0302C26044681443B34AF3
:102F60004460158815B124F00074446054881CB185
:102F7000446824F08064446094881CB1446824F060
:102F800000644460D2881AB1426822F080524260E4
:102F90008B43DA43A64B02611B883BB109E002F187
:102FA000190603FA06F4A1432143CDE762F00102BA
:102FB0000261036942681A40C0E9012170BD2DE930
:102FC000F84F07460020804605460446542659B16E
:102FD000012904D0022904D0032904D004E0552695
:102FE00002E0752600E04C268E48DFF8489207EB99
:102FF00047034FF0000A00EB4310012A02D0002AD9
:103000007ED002E131B1012908D002290AD003297A
:103010000CD00FE0427842F001020AE0427842F020
:10302000020206E0427842F0040202E0427842F0F6
:103030000802427080F84F1053208DF800008DF880
:1030400001708DF8026055468DF803A06946284648
:103050000DF0F5FF6946042000950DF0F0FFB9F87A
:103060003C0009F120048DF80000207E8DF801005D
:10307000207B8DF802008DF8035069464FF0080060
:103080000DF0DDFF207A8DF8000020798DF8010029
:1030900020788DF802008DF8035069460C200DF061
:1030A000CEFF41248DF800408DF801408DF802409C
:1030B0008DF80340694610200DF0C1FF8DF80040E7
:1030C0008DF801408DF802408DF8034069461420C8
:1030D0000DF0B5FF8DF800408DF801408DF80240ED
:1030E0008DF80340694618200DF0A9FF8DF80040C7
:1030F0008DF801408DF802408DF80340694600E0EC
:1031000001E01C207FE031B1012908D0022912D052
:10311000032914D007E0417821F0010102E0417851
:1031200021F00201417005F1100083469DF8000076
:10313000532818D107E0417821F00401F2E74178E3
:1031400021F00801EEE79DF80100B8420BD19DF88F
:103150000200B04207D1694658460DF03AFE9DF88C
:103160000000412805D0F4B3641EA4B24445DDD16B
:103170004BE09DF801004128F5D19DF8020041285F
:10318000F1D19DF803004128EDD1B9F83C0009F1D7
:1031900020048DF80000207E8DF80100207B8DF842
:1031A000020056468DF803A0694658460DF047FFC9
:1031B000207A8DF8000020798DF8010020788DF8B4
:1031C00002008DF80360694605F114000DF037FF29
:1031D00042248DF800408DF801408DF802408DF8B2
:1031E0000340694600E013E005F118000DF027FFE9
:1031F0008DF800408DF801408DF802408DF80340B5
:10320000694605F11C000DF01AFF00BFBDE8F88FFC
:103210003F248BE77047704770477047C3C0072053
:10322000140000107CE30720B40100102A020010F3
:1032300072030010004002401120FF4908727047DD
:10324000002801DA404200B2704710B540F2D47055
:103250000DF042FDF94C207040F2D6700DF03CFDAF
:1032600060704FF4FB600DF037FDA07040F2DA7033
:103270000DF032FDE07040F2DC700DF02DFD20729B
:1032800040F2DE700DF028FD60724FF4FC600DF02E
:1032900023FDA07240F2E2700DF01EFDE0724FF4CB
:1032A00001600DF019FD207140F612000DF014FDC3
:1032B000607140F614000DF00FFDA07140F616008D
:1032C0000DF00AFDE07110BDDD4810B5016821F078
:1032D000E06101604168DC4AC1F30B13D94C1178FD
:1032E00024F81130491CC9B21170032903D20168B6
:1032F00041F08071016010BD2DE9F041D34DD44EF5
:1033000001272888D34C401C00B2288003280DDBFD
:1033100006200DF0E1FC48B93068C00706D1A0785E
:1033200020B9012106200DF005FEA770B5F90000B7
:10333000B0F5967F0EDB06200DF0CEFC012809D1FA
:103340003068C00706D1A07820B9012106200DF011
:10335000F1FDA770B4F9340014280ADB06200DF043
:10336000BBFC002805D0BDE8F041002106200DF08F
:10337000E1BDBDE8F0812DE9FF41B64C00252234C6
:10338000E08CE085032020852078401CC0B204F842
:103390002209232802D384F8225001E020285AD899
:1033A0002120FCF724FFAC4948B1AC480088222812
:1033B00005D191F9020094F82220904249D094F866
:1033C0002A00DFF89C8248BB0878ED227C2813D1C4
:1033D00094F82200A8F120010B5C5B1CDBB20B54BB
:1033E000032B01D30D5407E0012B02D0022B02D096
:1033F00002E0EB2200E0EC2294F8220000EB400314
:1034000008EB431303F1280319795F7A1E7A5D797B
:103410008DE8E2001B7801460EF0C8FA94F822000D
:10342000202816D200EB400108EB4110C1783C295E
:1034300005D2491CC9B2C170032902D207E03C2160
:10344000C1700179032902D24179491C4171C178C7
:103450000171BDE8FF817F49212891F82A101CD015
:103460002228F6D10029F4D17B480A21C838B0F9C6
:10347000040090FBF1F07849C0B2BE394A780B786D
:10348000891E4C7800940390CDE901320B782922F3
:10349000FF2108460EF08AFADBE70029D9D16D48F2
:1034A00050304178027808384378CDE90032CDE9D0
:1034B000021503786222EBE7674900205039087053
:1034C000487088705031487070472DE9F04FDFF830
:1034D00084E14FF03C0B0EF1800101F1800AB1F95B
:1034E0005830B1F95A4001F580719EF82B008E6B6F
:1034F000C96B96FBFBF591FBFBF70FFA81F8714660
:10350000BAF9222091F803C03FB2BAF924102DB2C3
:1035100036B2B946B0B101283ED10AF11200BAF86C
:1035200012708786BAF81A7007874386C486BAF97C
:103530001E70504697B300BF4FF6FF705346AAF86F
:10354000420018E00AF10C00BAF818704787BAF880
:103550000C70C78703878487BAF91C705046002F08
:10356000EAD103463C48A0F14800006B1BE000BFD5
:1035700090FBFBF019E03A431AD011B1A3F8405088
:1035800008E0A3F8406005E0A3F8409002E000BF27
:10359000A3F840808EF82EC0BDE8F08FFFE7034609
:1035A0002D484838406B0029E2D1A3F84200E2E7F9
:1035B0000029EDD0E8E7F0B500202A4A01464FF493
:1035C000F4731154401C00B29842FADBDFF888E033
:1035D00000200EF1420E14277A21414300EB8003B4
:1035E0009B0000EB80041BB207EB84051FE000BFCB
:1035F0001EF803405E2C3CD01B4E04EB440416F82E
:1036000014C002F801C006EB4404491C6678565405
:10361000491CA6785654491CE6785654491C26790C
:103620005654491C64795454491C5B1C1BB29D427E
:10363000DEDC401C00B219E0004002409471001032
:103640000040034044C007200EC007209023001014
:103650001400001030000010F80100100C000010E1
:103660007CE307207CEF072090AB01000428B3DB4C
:10367000F0BD4FF07E0C02F801C0491C42245454A6
:10368000491C5A265654491C5654491C5454491C2A
:1036900002F801C0C8E72DE9F04FFB4AD5B005217B
:1036A000127800200DF1A80E1AB9F8A02A90012076
:1036B0000621FC4A127842B9FBA34EF8203000F1F3
:1036C000010001F10101C0B2C9B2FD4A53781B06E5
:1036D0000ED5FCA44EF8204000F10100C0B2FFA4BA
:1036E0004EF8204000F1010001F10201C0B2C9B260
:1036F00092F861301B060ED5FEA44EF8204000F172
:103700000100C0B2F5A44EF8204000F1010001F123
:103710000201C0B2C9B292F8C1301B060ED5FBA49B
:103720004EF8204000F10100C0B2ECA44EF8204059
:1037300000F1010001F10201C0B2C9B292F82131D9
:103740001B060ED5F7A44EF8204000F10100C0B2D0
:10375000E2A44EF8204000F1010001F10201C0B2E4
:10376000C9B292F881311B060ED5F4A44EF8204060
:1037700000F10100C0B2D9A44EF8204000F10100D0
:1037800001F10201C0B2C9B292F8E1311B060ED5B7
:10379000F0A44EF8204000F10100C0B2CFA44EF8D2
:1037A000204000F1010001F10201C0B2C9B292F85B
:1037B00041321B060ED5EDA44EF8204000F1010069
:1037C000C0B2C6A44EF8204000F1010001F1020190
:1037D000C0B2C9B292F8A1321B060ED5E9A44EF8C8
:1037E000204000F10100C0B2BCA44EF8204000F11E
:1037F000010001F10201C0B2C9B292F801331B0607
:103800000ED5E6A44EF8204000F10100C0B2B3A4EA
:103810004EF8204000F1010001F10201C0B2C9B22E
:1038200092F861331B060ED5E2A44EF8204000F159
:103830000100C0B2A9A44EF8204000F1010001F13E
:103840000201C0B2C9B292F8C1331B060ED5DFA483
:103850004EF8204000F10100C0B2A0A44EF8204074
:1038600000F1010001F10201C0B2C9B292F82134A5
:103870001B060ED5DBA44EF8204000F10100C0B2BB
:1038800096A44EF8204000F1010001F10201C0B2FF
:10389000C9B292F881341B060ED5D8A44EF8204048
:1038A00000F10100C0B28DA44EF8204000F10100EB
:1038B00001F10201C0B2C9B292F8E1341B060ED583
:1038C000D4A44EF8204000F10100C0B283A44EF809
:1038D000204000F1010001F10201C0B2C9B292F82A
:1038E00041351B060ED5D1A44EF8204000F1010051
:1038F000C0B27AA44EF8204000F1010001F10201AB
:10390000C0B2C9B292F8A1351B060ED5CDA44EF8AF
:10391000204000F10100C0B270A44EF8204000F138
:10392000010001F10201C0B2C9B292F801361B06D2
:103930000ED5CAA44EF8204000F10100C0B267A421
:103940004EF8204000F1010001F10201C0B2C9B2FD
:1039500092F861361B060ED5C6A44EF8204000F141
:103960000100C0B25DA44EF8204000F1010001F159
:103970000201C0B2C9B292F8C1361B060ED5C3A46B
:103980004EF8204000F10100C0B254A44EF820408F
:1039900000F1010001F10201C0B2C9B2484A92F837
:1039A0002127120609D5BFA34EF82030401CC0B213
:1039B0004AA3891C4EF82030C9B2C048B0F956203D
:1039C00000920270027A521CD2B20272142A08D3F8
:1039D00000220272C3795B1CDBB2C3718B4200D33D
:1039E000C271B748DFF8D8B202AC0178C838ABF181
:1039F000480BB0F95880C830ABF5807A90F9045084
:103A000090F90100421BE9B3AC4BAD4FB3F956300E
:103A10009B1E7D2901F05F830D2901F099837C298C
:103A200001F02185212901F068853B46B94693F9CB
:103A300004306C2904EB830601F075853B465B7806
:103A40009B1E5BB26D2901F099856F2901F02E86CE
:103A50006B2902F0BB806A2902F0F6803E4696F997
:103A600002707678761E4FFA86FC682902F047814C
:103A70004E460F2902F0AB811029FBD0042902F039
:103A8000CF811FE180E100001FC0072020CEF2F1AE
:103A9000F3F2F1F2E2F3E5F220F4E0E7E020422075
:103AA0000000000020C0072020CEF2F1F3F2F1F276
:103AB000E2F3E5F220F4E0E7E0204320000000001C
:103AC0007CE3072020C1CFD1204E3120E7E0E1EB9D
:103AD000EEEAE8F0EEE2E0ED000000002020EFEE7C
:103AE00020EFF0E5E2FBF8E5EDE8FE2055E2FBF51E
:103AF0000000000020C1CFD1204E3220E7E0E1EBF2
:103B0000EEEAE8F0EEE2E0ED0000000020C1CFD1E7
:103B1000204E3320E7E0E1EBEEEAE8F0EEE2E0ED04
:103B20000000000020C1CFD1204E3420E7E0E1EBBF
:103B3000EEEAE8F0EEE2E0ED0000000020C1CFD1B7
:103B4000204E3520E7E0E1EBEEEAE8F0EEE2E0EDD2
:103B50000000000020C1CFD1204E3620E7E0E1EB8D
:103B6000EEEAE8F0EEE2E0ED0000000020C1CFD187
:103B7000204E3720E7E0E1EBEEEAE8F0EEE2E0EDA0
:103B80000000000020C1CFD1204E3820E7E0E1EB5B
:103B9000EEEAE8F0EEE2E0ED0000000020C1CFD157
:103BA000204E3920E7E0E1EBEEEAE8F0EEE2E0ED6E
:103BB0000000000020C1CFD1204E313020E7E0E1ED
:103BC000EBEEEAE8F0EEE2E0ED00000020C1CFD13C
:103BD000204E313120E7E0E1EBEEEAE8F0EEE2E002
:103BE000ED00000020C1CFD1204E313220E7E0E1CE
:103BF000EBEEEAE8F0EEE2E0ED00000020C1CFD10C
:103C0000204E313320E7E0E1EBEEEAE8F0EEE2E0CF
:103C1000ED00000020C1CFD1204E313420E7E0E19B
:103C2000EBEEEAE8F0EEE2E0ED00000020C1CFD1DB
:103C3000204E313520E7E0E1EBEEEAE8F0EEE2E09D
:103C4000ED00000020C1CFD1204E313620E7E0E169
:103C5000EBEEEAE8F0EEE2E0ED00000020C1CFD1AB
:103C6000204E313720E7E0E1EBEEEAE8F0EEE2E06B
:103C7000ED00000020C1CFD1204E313820E7E0E137
:103C8000EBEEEAE8F0EEE2E0ED00000020C1CFD17B
:103C9000204E313920E7E0E1EBEEEAE8F0EEE2E039
:103CA000ED00000020C1CFD1204E323020E7E0E10E
:103CB000EBEEEAE8F0EEE2E0ED000000300000108C
:103CC000F8010010AAF18006DFF8F093B67E4FF0FD
:103CD0005E08402902F0A983702902F02C840AF5BD
:103CE000A478362903F02D80342903F073807529D8
:103CF00003F0AB80762903F0F680722903F03F8150
:103D0000712903F04181732903F078815B2903F065
:103D100095835F465F2903F019846029FBD06229EF
:103D200003F02684632903F07084642903F0BC84C3
:103D30004FF0030E122903F00885442903F0428551
:103D4000A7F5C07746293F7903F09086452903F00F
:103D5000CB864746312903F01087742903F0228768
:103D60002D2903F06F870F234FF009082B2904F04A
:103D7000CA812C2904F0C682592904F092846E2944
:103D800004F0B98404F000BDCD49C97889460329FF
:103D900030D0CB49CA4B91F82B7001F5E4718033D8
:103DA0004978C91E49B20091B3F97E100191C44906
:103DB000B3F9423001F5807691F806C0B6F9566045
:103DC00052934B79C97E002F7ED0012F7DD0DFF832
:103DD000F0C2022F7AD0B9F1020F00F07187B9A7B3
:103DE0000297002E00F0A987012B00F08187BBA766
:103DF00000F0A2BFBFA00290C4A00390C9A004908D
:103E0000CEA002AD0346059007CDFCF750FED14D84
:103E1000DBF84000B5F96A10884203DA002221215C
:103E2000CDA019E0B5F96C201144814203DD0022D8
:103E30002121CAA010E0B5F96E201144814203DDB2
:103E400000222121C6A007E0B5F97020114481426B
:103E500004DD00222121C3A0FCF759FE05F1720503
:103E6000002268882B2180B2FCF7D1FC2888002230
:103E7000402180B2FCF7CBFCBAF95A000A2690FB2D
:103E8000F6F0574680B200222321FCF7C0FCB7F9B8
:103E90005800002290FBF6F080B22421FCF7B7FC1A
:103EA000A8880022401C5E2180B2FCF7B0FCDBF841
:103EB00040005D4690FBF6F13C2091FBF0F200FBE8
:103EC000121080B2002202E00EE0EAE2FEE373216B
:103ED000FCF79DFC286C4FF4167190FBF1F000226A
:103EE00080B2542100F0BCBEB9F1010F09D09EA1EF
:103EF0000291002E46D0012B28D0002B42D1A0A148
:103F00003FE0A5A70297002E3CD0B8F1000F05D0E6
:103F1000BCF1010F06D0BCF1030F03D0012B07D079
:103F2000E3B12FE0890701D5A1A12AE09AA128E0F9
:103F300041B1012908D0022908D0032908D0042959
:103F400008D014E0A0A11CE0A5A11AE0AAA118E0E5
:103F5000AFA116E0B4A114E083A112E051B1012990
:103F60000AD00229CBD0032908D0042908D005297A
:103F7000F2D007E0B2A104E0B7A102E0BCA100E0EA
:103F8000C1A1029161A10391C5A14D4E0491B9F166
:103F9000010F05D1C8A10491529909B1CCA1049196
:103FA00060A10591D0A10691D5A10791DAA1089150
:103FB000DFA10991E4A10A91E9A10B91EEA10C9175
:103FC0006449C831032A01DD009801E0A84200DA03
:103FD0000871019857460F2806DDEDA3F2A2F8A15B
:103FE000FDA0FCF764FD1AE0F079052808D291F9EC
:103FF000045004EB8500001D0EC854F8250009E0AC
:1040000091F904100EEB800004EB8101091D50F8BA
:10401000140C0EC9FCF74BFD0020FCF7E4FC4D4DE1
:10402000B5F8560010B1B5F8580020B900225E214D
:10403000EFA0FCF76CFDB5F94C004FF47A784045E1
:1040400003DA01222B2180B205E00A2190FBF1F076
:1040500080B200222B21FCF7DAFBB7F95A00404569
:1040600003DA0122232180B205E00A2190FBF1F05E
:1040700080B200222321FCF7CAFBB7F9580047465B
:10408000B84203DA0122242180B205E00A2190FB24
:10409000F1F080B200222421FCF7B9FBB5F9180039
:1040A000B84209DA01227B2180B2FCF7B0FB288BF1
:1040B0000122402180B2ACE19CE10000C4B10100CA
:1040C0003000001020C8F1F2EEF7EDE8EA20EDE054
:1040D000EFF02E205E2020200000000020C8F1F22A
:1040E000EEF7EDE8EA20EDE0EFF02E205E3C3C3C00
:1040F00000000000202020C8D1CFDBD2C0CDC8C531
:1041000020D4C0C7C0202120000000002049F32097
:104110002020202BC020556D617820202020404297
:10412000000000002049202020202023C02055200E
:1041300020202020202024420000000020D6E8EA91
:10414000EB204E2020205E20202030543A30732077
:10415000000000003001001041000000420000009B
:10416000430000004400000020C8F1F2EEF7EDE843
:10417000EA20F2EEEAE020205E202020000000008D
:1041800020C8F1F2EEF7EDE8EA20F2EEEAE02020B6
:104190005E3C3C3C0000000020C8F1F2EEF7EDE888
:1041A000EA20F2EEEAE0202020202020000000009B
:1041B00020C8F1F2EEF7EDE8EA20F2EEEAE0202086
:1041C0005E203C3E0000000020C8F1F2EEF7EDE872
:1041D000EA20F2EEEAE020205E3E2020000000000F
:1041E00020C8F1F2EEF7EDE8EA20F2EEEAE0202056
:1041F0005E3E3E200000000020C8F1F2EEF7EDE840
:10420000EA20F2EEEAE020205E3E3E3E00000000A2
:1042100020C8F1F2EEF7EDE8EA20F2EEEAE0202025
:104220005E203E3E0000000020C8F1F2EEF7EDE80F
:10423000EA20F2EEEAE020205E20203E00000000AE
:1042400020C8F1F2EEF7EDE8EA20F2EEEAE02020F5
:104250005E20203C0000000020C8F1F2EEF7EDE8FF
:10426000EA20F2EEEAE020205E203C3C0000000064
:1042700020C8F1F2EEF7EDE8EA20F2EEEAE02020C5
:104280005E3C3C200000000020C8F1F2EEF7EDE8B3
:10429000EA20F2EEEAE020205E3C20200000000050
:1042A00020C4EBE8F22DF1F2FC2E202030743A30DD
:1042B000543A307300000000202020202020307469
:1042C0003A30543A30732020202020200000000093
:1042D0002030743A30543A3073202020202020714E
:1042E000C02AF720000000002055EC61782EE8F18C
:1042F000F22EF2EEEAE0202020207BC20000000037
:1043000020C0E2E0F0E8E82020202020202020202B
:10431000202020200000000020C2FBF5EEE4202039
:10432000202020202020202020202020000000000D
:1043300020D3F1F2E0EDEEE2EAE820202020202078
:10434000202020200000000020C2FBEFF0FFECE85E
:10435000F2E5EBE8202020202020202000000000B3
:1043600020C2E5F0F1E8FF20CFCE20D3CAD3202031
:10437000202020200000000020C2E5F0F1E8FF200E
:10438000CFCE20C1CFD1202020202020000000004F
:1043900020E8EBE820EDE5F1EAEEEBFCEAEE20F4B4
:1043A000E0E72E20000000002020CEF2F1F3F2F131
:1043B000F2E2F3E5F220EEE4EDE020200000000060
:1043C000202020202020F1E5F2E8212121212020B9
:1043D00020202020000000002020C0E2E0F0E8FFC4
:1043E00020EFE8F2E0FEF9E5E920202000000000DF
:1043F000200000000A2790FBF7F080B200227B210A
:10440000FCF705FAB5F91800002290FBF7F080B22E
:104410004021FCF7FCF9F078012803D0A88B002894
:104420006FD1EEE3B5F92200B5F91C104AE1DBF8D3
:1044300038003C2790FBF7F107FB11005D4680B286
:1044400000227321FCF7E3F9A86B002290FBF7F040
:1044500090FBF7F107FB110080B25421FCF7D7F96C
:10446000A96BEBE3DBF83C003C2790FBF7F107FB83
:1044700011005D4680B200227321FCF7C8F9E86B99
:10448000002290FBF7F090FBF7F107FB110080B2E0
:104490005421FCF7BCF9E96BD0E300BFFCF737FB14
:1044A000D8E3B9F1020F0AD0AFF2E8310291002E41
:1044B00048D0012B28D083BBAFF2E03141E0DAA72E
:1044C000029756B3B8F1000F05D0BCF1010F06D02A
:1044D000BCF1030F03D0012B07D0FBB132E08907F9
:1044E00001D5D7A12DE0D0A12BE041B1012909D000
:1044F000022909D0032909D0042909D017E0D6A13F
:104500001FE0E7E0DAA11CE0DFA11AE0E4A118E077
:10451000E9A116E0AFF2544113E013E051B10129D3
:104520000AD00229C8D0032908D0042908D00529B7
:10453000F0D007E0E6A104E0EBA102E0F0A100E08A
:10454000F5A10291FAA10391AFF2AC21FE4E0491C4
:10455000B9F1020F07D1AFF2A0210491529911B124
:10456000AFF294210491F9A10591FEA10691AFF259
:1045700070210791AFF260210891AFF24C210991AF
:10458000AFF23C210A91AFF228210B91AFF2182132
:104590000C91FA49032A01DD009801E0A84200DAF3
:1045A0000871019857460F280ADDAFF21C23AFF2BD
:1045B0000822AFF2F411AFF2E010FCF778FA1AE03B
:1045C000F079052808D291F9045004EB8500001D0C
:1045D0000EC854F8250009E091F904100EEB800094
:1045E00004EB8101091D50F8140C0EC9FCF75FFAA9
:1045F0000020FCF7F8F9E14DC83DB5F8560010B1C0
:10460000B5F8580028B900225E21AFF21C20FCF753
:104610007EFAB5F94E004FF47A78404503DA01226C
:10462000252180B205E00A2190FBF1F080B2002242
:104630002521FCF7ECF8B7F95800404503DA0122D0
:10464000262180B205E00A2190FBF1F080B2002221
:104650002621FCF7DCF8B7F95A004746B84203DADE
:104660000122232180B205E00A2190FBF1F080B203
:1046700000222321FCF7CBF8B5F91A00B84209DA79
:1046800001227D2180B2FCF7C2F8688B01227D21D6
:1046900080B20EE00A2790FBF7F080B200227D2165
:1046A000FCF7B5F8B5F91A00002290FBF7F080B2DC
:1046B0007D21FCF7ACF8F078022808D1B5F922008A
:1046C000B5F91E1008433FF4CDAEB0E612E0E88B1A
:1046D000002878D06FF002027421A9A0DEE600BFA6
:1046E0004FF4616091FBF0F080B200227421FCF77E
:1046F0008EF8AFE2B9F1010F08D0AFF294570297EC
:104700009EB3012B1AD0AFF288573AE0AFF2785738
:10471000029756B3012B01D0E3B133E041B1012937
:1047200009D002290AD003290BD004290CD01AE0A1
:10473000AFF26C5725E0AFF2585722E0AFF248577E
:104740001FE0AFF234571CE0AFF2245719E0AFF28C
:10475000E85716E051B101290BD00229D3D0032923
:104760000AD004290BD00529F1D00BE0AFF2305765
:1047700007E0AFF21C5704E0AFF20C5701E0AFF2D4
:10478000F8470297AFF27C670397AFF2EC470497C4
:10479000B9F1010F07D1AFF2E0470497529F17B16B
:1047A000AFF2D4470497AFF284670597B9F1020FCF
:1047B0000CD0AFF2F06106914EB3012B04D0AFF2F2
:1047C000E461069123E060E22FA1FAE716A70697BD
:1047D000D6B1012B01D01BB316E041B1012908D09D
:1047E000022909D0032909D0042909D00AE01AA115
:1047F00000E01FA1069107E023A1FBE728A1F9E74C
:104800002DA1F7E705290DD09CF8141049B148A156
:104810000791AFF274510891B9F1020F03D0DBE0B8
:10482000B4E0CFE0CBE0CFE020C8F1F2EEF7EDE866
:10483000EA20EDE0EFF02E202020202000000000F4
:1048400020C8F1F2EEF7EDE8EA20EDE0EFF02E20DF
:104850005E203C3E0000000020C8F1F2EEF7EDE8DB
:10486000EA20EDE0EFF02E205E3E20200000000068
:1048700020C8F1F2EEF7EDE8EA20EDE0EFF02E20AF
:104880005E3E3E200000000020C8F1F2EEF7EDE8A9
:10489000EA20EDE0EFF02E205E3E3E3E00000000FC
:1048A00020C8F1F2EEF7EDE8EA20EDE0EFF02E207F
:1048B0005E203E3E0000000020C8F1F2EEF7EDE879
:1048C000EA20EDE0EFF02E205E20203E0000000008
:1048D00020C8F1F2EEF7EDE8EA20EDE0EFF02E204F
:1048E0005E20203C0000000020C8F1F2EEF7EDE869
:1048F000EA20EDE0EFF02E205E203C3C00000000BE
:1049000020C8F1F2EEF7EDE8EA20EDE0EFF02E201E
:104910005E3C3C200000000020C8F1F2EEF7EDE81C
:10492000EA20EDE0EFF02E205E3C202000000000A9
:104930002055F320202020254220496D6178202039
:1049400020207D4100000000300000102055202074
:1049500020202026422049202020202020202341E2
:10496000000000002049EC61782EE8F1F22EEDE025
:10497000EFF02E2020207D4100000000F801001003
:10498000EDE5EFF0E5F0FBE2EDEE000059B10129B5
:104990000CD002290DD003290ED004297FF426AFB4
:1049A000AFF28C0126E7AFF2D80123E7AFF2C801DE
:1049B00020E7AFF6D8011DE7AFF2BC011AE7AFF66A
:1049C000FC0117E7F9A1FCE6AFF2147108915299C6
:1049D00011B1AFF204710891AFF290010991AFF2F9
:1049E000F8610A91AFF284010B91AFF2EC610C9186
:1049F000AFF2DC610D91AFF2C8610E91AFF2B86118
:104A00000F91AFF2A4611091AFF29461DFF8B4831B
:104A10001191032A03DD009988F8041003E0A842ED
:104A200001DA88F80400019856460F280ADDAFF233
:104A3000A063AFF28C62AFF27861AFF26460FCF712
:104A400036F81BE0E048C579052D08D298F90450E6
:104A500004EB8500001D0EC854F8250009E098F904
:104A6000040004EB8000001D0EC80EEB850050F81A
:104A7000140CFCF71CF80020FBF7B5FFD14DC83D26
:104A8000B5F8560010B1B5F8580028B900225E21DB
:104A9000AFF2A460FCF73BF8B5F94C004FF47A771D
:104AA000B84203DA01222B2180B205E00A2190FBF3
:104AB000F1F080B200222B21FBF7A9FEB6F95A00D3
:104AC000B94648450ADA0122232180B2FBF79FFE4E
:104AD000B6F85A000122232180B20EE00A2790FB8B
:104AE000F7F080B200222321FBF791FEB6F95A00BD
:104AF000002290FBF7F080B22321FBF788FEB5F986
:104B00004E004F46B84203DA0122252180B205E06B
:104B10000A2190FBF1F080B200222521FBF777FEFD
:104B2000B6F95800B94648450ADA0122262180B272
:104B3000FBF76DFEB6F858000122242180B20EE08A
:104B40000A2790FBF7F080B200222621FBF75FFED8
:104B5000B6F95800002290FBF7F080B22421FBF751
:104B600056FEB5F91A004E46B04209DA01227D21FF
:104B700080B2FBF74CFE688B01227D2180B20EE0F3
:104B80000A2790FBF7F080B200227D21FBF73FFE61
:104B9000B5F91A00002290FBF7F080B27D21FBF7F7
:104BA00036FEB5F91800B04209DA01227B2180B245
:104BB000FBF72DFE288B0122402180B20EE00A2651
:104BC00090FBF6F080B200227B21FBF720FEB5F9C6
:104BD0001800002290FBF6F080B24021FBF717FE90
:104BE00098F90400022827DC774E14E400223A21C9
:104BF000AFF60400FBF78BFF00223A21AFF610005E
:104C00004CE4DBF830003C2690FBF6F106FB11008B
:104C10005D4680B200227321FBF7F9FD286B00226C
:104C200090FBF6F090FBF6F106FB110080B25421E8
:104C3000FBF7EDFD296B53E5634E3CE54FF46160F6
:104C400091FBF0F080B200227421FBF7E0FDB07D13
:104C50000028CBD1DBF84400012271211FFA80F03B
:104C6000FBF7D5FD5848C078012807D0554A0021E8
:104C7000C83A0228A2F8501003F086855149002056
:104C8000C839A1F8520003F07FBDDBF834003C26A0
:104C900090FBF6F106FB11005D4680B20022732105
:104CA000FBF7B5FD686B002290FBF6F090FBF6F188
:104CB00006FB110080B25421FBF7A9FD696B0FE5DB
:104CC000AFF29C4702975EB3012B01D0E3B134E011
:104CD00041B1012909D002290AD003290BD00429A6
:104CE0000CD01BE0AFF2904726E0AFF27C4723E008
:104CF000AFF26C4720E0AFF258471DE0AFF24847F3
:104D00001AE0AFF6404717E059B101290CD002294B
:104D10003FF46DA803290AD004290BD00529F0D04F
:104D20000BE0AFF2544707E0AFF2444704E0AFF2C4
:104D3000304701E0AFF220470297AFF20C470397EC
:104D4000AFF6A4270497B9F1020F07D1AFF6982761
:104D50000497529F17B1AFF688270497AFF2144714
:104D60000597B9F1010F08D0AFF604410691E6B1FD
:104D7000012B2BD0AFF6F8314BE0AFF6E4370697B6
:104D80009EB1012B01D06BB344E041B1012909D0A0
:104D900002291BD003291CD004291DD02BE0AFF61B
:104DA000D83136E0AFF6C83133E033E020202020A0
:104DB00020202020202020202020202020202020F3
:104DC00000000000F801001030000010AFF6D831EC
:104DD0001FE0AFF6C4311CE0AFF6B43119E0AFF616
:104DE000784116E051B101290BD00229C2D0032924
:104DF0000AD004290BD00529F1D00BE0AFF6C03161
:104E000007E0AFF6AC3104E0AFF69C3101E0AFF65D
:104E100088310691AFF60C510791AFF67C310891BD
:104E2000B9F1010F07D1AFF670310891529911B164
:104E3000AFF664310891AFF614510991AFF65831CD
:104E40000A91AFF2E0410B91AFF64C310C91AFF605
:104E500038310D91AFF628310E91AFF614310F9124
:104E6000AFF604311091AFF6F021DFF830841191E4
:104E7000032A03DD009988F8041003E0A84201DA50
:104E800088F80400019856460F280ADDAFF6003373
:104E9000AFF6EC22AFF6D821AFF6C420FBF707FE41
:104EA0001BE0FF48C579052D08D298F9045004EBA2
:104EB0008500001D0EC854F8250009E098F904008B
:104EC00004EB8000001D0EC80EEB850050F8140C9A
:104ED000FBF7EDFD0020FBF786FDF04DC83DB5F872
:104EE000560010B1B5F8580028B900225E21AFF67F
:104EF0000030FBF70CFEB5F94C004FF47A77B8425E
:104F000003DA01222B2180B205E00A2190FBF1F0A7
:104F100080B200222B21FBF77AFCB6F95A00B94681
:104F200048450ADA0122232180B2FBF770FCB6F86B
:104F30005A000122232180B20EE00A2790FBF7F0ED
:104F400080B200222321FBF762FCB6F95A0000224E
:104F500090FBF7F080B22321FBF759FCB5F94E0026
:104F60004F46B84203DA0122252180B205E00A212A
:104F700090FBF1F080B200222521FBF748FCB6F946
:104F80005A00B94648450ADA0122232180B2FBF7CC
:104F90003EFCB6F85A000122232180B20EE00A2717
:104FA00090FBF7F080B200222321FBF730FCB6F92A
:104FB0005A00002290FBF7F080B22321FBF727FC78
:104FC000B6F9580048450ADA0122262180B2FBF7DB
:104FD0001EFCB6F858000122242180B20EE00A27F8
:104FE00090FBF7F080B200222621FBF710FCB6F907
:104FF0005800002290FBF7F080B22421FBF707FC59
:10500000B5F918004E46B04209DA01227B2180B280
:10501000FBF7FDFB288B0122402180B20EE00A271E
:1050200090FBF7F080B200227B21FBF7F0FBB5F993
:105030001800002290FBF7F080B24021FBF7E7FB5D
:10504000B5F91A00B04209DA01227D2180B2FBF7DE
:10505000DEFB688B01227D2180B20EE00A2690FBE8
:10506000F6F080B200227D21FBF7D1FBB5F91A00E2
:10507000002290FBF6F080B27D21FBF7C8FB98F987
:10508000040002283FF7B0AD854EF07802287FF487
:105090001EABB5F92200B5F91E1008433FF4E2A992
:1050A000DBF838003C2590FBF5F105FB11005F466D
:1050B00080B200227321FBF7AAFBB86B002290FBA1
:1050C000F5F090FBF5F105FB110080B25421FBF7E0
:1050D0009EFBB96BB2E50098012806D0022801D0EA
:1050E0009D4207DBAFF6D05305E0AFF24033AFF699
:1050F000D85201E06BA371A276A17CA0FBF7D7FC8C
:1051000097F904000022401C80B22121FBF77FFBAD
:1051100097F904000022801C80B24021FBF777FB46
:1051200097F904000022C01C80B22321FBF76FFB1B
:1051300097F9010097F90410421A022A01DD801E36
:1051400001E0884200DA38710120FBF74CFC9AE557
:10515000009A534942F21076012A05D088469842B7
:105160003ADBAFF64C6338E0AFF2C033AFF65862CB
:1051700064A16AA0FBF79BFC002301211A460846A4
:10518000FBF75EFA6B4DA869B04202DA80B20123E8
:1051900004E00A2190FBF1F080B2002306220121F5
:1051A000FBF74EFA286A012380B20B221946FBF75F
:1051B00047FA686A002380B20F220121FBF740FA08
:1051C00095F83E0013220121FBF79EFB3349012095
:1051D000423181F8280056E54AA34AA249A14FA0CE
:1051E000FBF765FC97F901004FF00003062800F17A
:1051F000010080B20ADB01221146FBF721FA97F980
:1052000001000023801C80B2012209E0002201215C
:10521000FBF716FA97F90100801C002380B21A46AA
:105220000221FBF70DFA97F90100424D00EB400017
:1052300005EB40108069B04202DA80B2012304E03D
:105240000A2190FBF1F080B2002306220121FBF736
:10525000F7F997F9010000EB400005EB4010806F73
:10526000B04202DA80B2012304E00A2190FBF1F09F
:1052700080B2002306220221FBF7E2F997F9010030
:10528000012300EB400005EB40100B22006A194699
:1052900080B2FBF7D5F997F901004DE0F801001055
:1052A0003000001020C1CFD123202020202020203A
:1052B00020202020202020200000000020C1CFD16D
:1052C00040202020202020202020202020202020BE
:1052D0000000000020C1CFD121202020202020204C
:1052E000202020202020202000000000202020203E
:1052F000C2C5D0D1C8DF20CFCE20C1CFD120202041
:105300000000000020202020202E202020202E2001
:105310002020202020202020000000004E202020DF
:10532000552CC22020492C41202074B0432020203D
:10533000000000007CE3072000EB400005EB40107C
:105340000123D0F880000B2280B20221FBF778F90C
:1053500097F90100002300EB400005EB40100F22FD
:10536000406A012180B2FBF76BF997F90100002335
:1053700000EB400005EB40100F22D0F88400022122
:1053800080B2FBF75DF997F90200132200EB4000B1
:1053900005EB4010012190F83E00FBF7B5FA97F9B4
:1053A0000200132200EB400005EB4010022190F8B0
:1053B0009E00FBF7A9FAB8F9561097F90100891E6B
:1053C00088424BDA062800F1030080B24FF0000358
:1053D00001DB012200E000220321FBF731F997F9FC
:1053E000010000EB400005EB4010D0F8D800B042BF
:1053F00002DA80B2012304E00A2190FBF1F080B2CE
:10540000002306220321FBF71BF997F90100012372
:1054100000EB400005EB40100B22D0F8E000032128
:1054200080B2FBF70DF997F90100002300EB400073
:1054300005EB40100F22D0F8E400032180B2FBF707
:10544000FFF897F90200132200EB400005EB401033
:10545000032190F8FE00FBF757FA14E4D749012026
:1054600081F83C000FE4AFF2BC63D5A2DAA1E0A062
:10547000FBF71DFB97F902000022401C80B221219E
:10548000FBF7C5F997F90200DF4D00EB400005EB93
:1054900040100023B0F854000C220221FBF7D0F892
:1054A00097F90200002300EB400005EB40100F22AB
:1054B000B0F856000221FBF7C3F897F90200002369
:1054C00000EB400005EB40101222B0F8580002211A
:1054D000FBF7B6F897F9020000EB400005EB40102F
:1054E000B0F95E100091B0F95C30B0F95A20B348C1
:1054F000C6A11D3011F0F8FB29E6C74BC7A2CDA10C
:10550000D2A0FBF7D4FAAD4901200AF1580581F881
:105510003C00024628885B2180B2FBF778F9012223
:105520005D2102F03DBBCFA00290D4A00390D948EA
:105530000490D6E9012354F82510D7A0FBF7B7FA59
:105540000120FBF750FA0AF178054FF00002A88815
:105550004FF0210100EB800080B2FBF758F928885A
:105560000022232180B2FBF752F92888002200EBA9
:1055700080002D3080B2402103F004B9CC4EB8F148
:10558000000F01D0CBA100E0D0A10291D5A10391E1
:10559000DAA10491DFA10591E4A10691E9A10791A7
:1055A000EEA10891F3A10991BA490A91022A02DDFC
:1055B00089F8043003E0A84201DA89F8040097F979
:1055C000041004EB8100D0E9012354F82110EFA06E
:1055D000FBF76DFA0120FBF706FA36F85A0F3C2567
:1055E000B0FBF5F105FB110000225B21FBF70FF981
:1055F00030880022B0FBF5F0B0FBF5F105FB11009F
:105600007D21FBF704F930884FF46167B0FBF7F0B8
:1056100000227B21FBF7FBF870880022B0FBF5F13C
:1056200005FB11005D21FBF7F2F870880022B0FB4A
:10563000F5F0B0FBF5F105FB11002921FBF7E7F8C8
:1056400070880022B0FBF7F02821FBF7E0F8B6F9EC
:105650000400002290FBF5F105FB110080B23E2111
:10566000FBF7D5F8B6F90400002290FBF5F090FBAB
:10567000F5F105FB110080B23C21FBF7C8F8F0887A
:105680000122212180B2FBF7C2F83089012240219A
:1056900080B2FBF7BCF870890122232180B2FBF7AE
:1056A000B6F80122B089242180B265E7BDA002903E
:1056B000C2A00390C7A00490CCA00590D1A00690F2
:1056C000D6A00790DBA00890E0A00990E5A00A9082
:1056D000EAA00B90EFA00C90F4A00D90F9A00E9012
:1056E000FE486C49B0F95C0004EB80004160AFF605
:1056F00044118160AFF64C11361DC1600ECE029888
:10570000FBF7D5F999F9010099F90410421A022A18
:1057100001DD801E01E0884201DA89F804000120E1
:10572000FBF761F9EE4D287801283FD06FF00302B6
:105730002121ECA0FBF7EBF96878012837D06FF056
:1057400003024021E7A000BFFBF7E1F9A878012898
:105750002ED06FF003022321E2A000BFFBF7D7F9A0
:10576000E878012825D06FF003022421DDA000BFD6
:10577000FBF7CDF9287901281CD06FF00302252111
:10578000D8A000BFFBF7C3F96879012813D06FF0E8
:1057900003025E21D3A000BFFBF7B9F9A879012865
:1057A0000AD06FF003022621CEA09FE1D2E1D6E11C
:1057B000DAE1DEE1E2E1E6E1EAE100003A020010CE
:1057C00020D1E1EEF0EAE02020303030302E3030D1
:1057D0002E3030200000000020C2E5F0F1E8FF206C
:1057E0002020202020202020202020200000000039
:1057F000202020202020CFCE20C1CFD1204E21201C
:1058000020202020000000007CE3072025642E25B6
:10581000642E256400000000D9B101002049EDE0AC
:10582000E3F0203D20202020205DC02020202020EB
:10583000000000002055EDE0E3F0203D2020202076
:10584000205BC220202020200000000020202020FB
:105850002020CDC0C3D0D3C7CAC020202020202004
:10586000000000002046E2E5EDF22EF2E5EAF3F951
:105870002E20202020202125000000002046E2E5E7
:10588000EDF22E6D61782E2028202040252920233E
:1058900000000000184300002020202020C2C5CDB9
:1058A000D2C8CBDFD2CED0202020202000000000A4
:1058B0003001001020C2EAEBFEF7E5ED20202020A9
:1058C00020202020202020200000000020C2FBEA11
:1058D000EBFEF7E5ED2020202020202020202020B6
:1058E000000000002054EFF0FFEC2E2020202020AC
:1058F000307B3A307D3A305B0000000020D2EEE190
:10590000F02E20202020202030283A30293A305D07
:105910000000000020D2EFE5F0E5EAEB2E20202089
:10592000202020303C3A303E000000002049F1F2B7
:105930002EEFF02E2020202020202020202021C00B
:10594000000000002049F1F22EEEE1F02E20202090
:1059500020202020202040C0000000002055F1F22F
:105960002EEFF02E20202020202020202020234257
:10597000000000002055F1F22EEEE1F02E20202054
:105980002020202020202442000000002020202071
:1059900020C0C2D2CED0C5C2C5D0D1202020202068
:1059A000000000002020C0C2D2CECCC0D2DB20CD6F
:1059B000C0C3D0D3C7CECA200000000020C0E2F28E
:1059C000EEECE0F220B93120202020202020212000
:1059D0000000000020C0E2F2EEECE0F220B932203C
:1059E00020202020202040200000000020C0E2F2E3
:1059F000EEECE0F220B933202020202020202320CC
:105A00000000000020C0E2F2EEECE0F220B9342009
:105A100020202020202024200000000020C0E2F2CE
:105A2000EEECE0F220B93520202020202020252097
:105A30000000000020C0E2F2EEECE0F220B93620D7
:105A40002020202020205E200000000020C0E2F264
:105A5000EEECE0F220B93720202020202020262064
:105A60000000000020C0E2F2EEECE0F220B93820A5
:105A70002020202020202A200000000020C0E2F268
:105A8000EEECE0F220B93920202020202020282030
:105A90000000000020C0E2F2EEECE0F220B931306C
:105AA00020202020202029200000000020C0E2F239
:105AB000EEECE0F220B931312020202020202B20F4
:105AC0000000000020C0E2F2EEECE0F220B931323A
:105AD0002020202020203D20000000003000001069
