:020000040000FA
:1000000018310820E1000000E5000000E7000000D2
:10001000E9000000EB000000ED000000000000001F
:10002000000000000000000000000000EF000000E1
:10003000F100000000000000F30000002FD50000D8
:10004000F7000000D5F2000001F30000F700000007
:10005000F7000000730F0100F7000000F700000038
:10006000F7000000F7000000F7000000F7000000B4
:10007000F7000000F7000000F7000000F7000000A4
:10008000F7000000F7000000F7000000F700000094
:10009000F7000000F70000005D2C0000F7000000F2
:1000A000F70000004B0D0100F7000000F700000012
:1000B0004D520100F7000000F7000000F7000000BB
:1000C000F7000000F7000000F7000000DFF80CD098
:1000D00015F09AF900480047A3D60000183108200F
:1000E00005480047FEE7FEE7FEE7FEE7FEE7FEE71E
:1000F000FEE7FEE7FEE7FEE7CD000000FEE710B5F5
:1001000017F036F817F0C2F817F0B4F817F042F805
:10011000AFF30080BDE8104017F07EB810B517F0BF
:100120008FFE18F0D1FB17F0E3FEBDE8104018F089
:100130005BB817F0A3BD17F06BBB09B10020704787
:1001400016F0C0B800207047002801DA404200B223
:100150007047000070B5374A0020A2F1140106462E
:1001600001F10A030C5C54B11D5CAC4207D1145C74
:100170002CB1641E14F0FF04145400D10E540C5C16
:100180001C54401CC0B20A28ECD370BD70B5294D78
:100190000024143D641CE4B22E5D1EB1864201D0E1
:1001A0000A2CF7D3285523480C3040F82410283067
:1001B00040F824203438035570BD1E4A0021143AFB
:1001C000491CC9B2535C834201D00A29F8D3DBB27F
:1001D000834210D117480C3050F821301648036084
:1001E000144B343353F82130436000205054114AEB
:1001F000505401207047002070470E4A0021143AE5
:10020000491CC9B2535C834201D00A29F8D3DAB23F
:1002100082420CD107480C3050F821200648026079
:10022000044A343252F82110416001207047002006
:1002300070470000006E0010180000100A4BDA60D2
:100240001870597070470849088170470648B0F91E
:100250000810002907D0491E09B20181002902D1E6
:10026000084600F05BBB70472000001090F900309A
:100270008B4200DA027090F90030934200DD017089
:10028000704790F900308B4200DA017090F900104D
:10029000914200DD02707047B0F900308B4200DA05
:1002A0000180B0F90010914200DD02807047B0F982
:1002B00000308B4200DA0280B0F90030934200DD5A
:1002C0000180704703688B4201DB194600E0016042
:1002D000914200DD0260704740EA01039B0703D0B2
:1002E00009E008C9121F08C0042AFAD203E011F875
:1002F000013B00F8013B521EF9D27047FFFFFFFFA0
:100300000020FB4A20211154401CC0B2C828FAD357
:1003100070470146F64A0020401CC0B2135C8B4275
:1003200001D0C828F8D3704710B50021F14C0A223B
:10033000B0FBF2F302FB13006054491CC9B218462B
:100340000529F5D310BDF0B5EB4B0121202719701D
:100350000521E84A002601E01C7844B1541814F83D
:10036000015C25B9814202D904F8017C05E05418EA
:1003700014F8015D303525701E70491E11F0FF0123
:10038000EAD1F0BDFEB52B23002802DA404200B2CC
:100390002D2300250A266C4690FBF6F706FB170076
:1003A00060556D1C6DB238B20A2DF5DB01260025B3
:1003B0000920202700E046B114F800C0BCF1000F6E
:1003C00003D1904201DD275405E0265C30362654E7
:1003D00000266D1CEDB2401E40B20028EBDA2D2B3A
:1003E00002D163556D1CEDB26AB168B205E0231805
:1003F00013F8013C2354401E40B29042F7DC2E20FB
:100400006D1CA054EDB20846FFF783FF0021B84AE7
:1004100004E0635C461A491C935549B2A942F8DBD3
:10042000FEBDFEB52B23002801DA40422D23002516
:100430000A266C46074690FBF6F006FB10776755D8
:100440006D1C6DB20A2DF5DB012600250920202741
:1004500000E046B114F800C0BCF1000F03D1904297
:1004600001DD275405E0265C3036265400266D1C3D
:10047000EDB2401E40B20028EBDA2D2B02D16355BD
:100480006D1CEDB26AB168B205E0231813F8013CA7
:100490002354401E40B29042F7DC2E206D1CA05425
:1004A000EDB20846FFF735FF0021914A04E0635C96
:1004B000461A491C935549B2A942F8DBFEBDFEB568
:1004C0002B26002801DA40422D2600240A276D46FB
:1004D000844690FBF7F007FB10CC05F804C0641CC1
:1004E00064B20A2CF4DB0127002009244FF0200C11
:1004F00000E04FB115F804E0BEF1000F04D19C42BA
:1005000002DD05F804C005E02F5D30372F550027C8
:10051000401CC0B2641E64B2002CEADA2D2E02D157
:100520002E54401CC0B26BB144B205E02E1916F82F
:10053000016C2E55641E64B29C42F7DC2E24401CD4
:10054000EC54C0B201EB810102EB8101CAB200217F
:10055000674B04E06C5C561A491C9C5549B28142B9
:10056000F8DBFEBD70B50D4616461C46FFF7DCFEF7
:10057000601CC0B2FFF7E7FE05EB850006EB8000CC
:10058000C1B25C4A5A4B0020A04201D2155C5D54B6
:1005900006D3155C202D03D04CB15E1806F8015C23
:1005A000491E401CC0B2C9B20528EDD370BD5D54D0
:1005B000F6E770B50446084615461E46FFF7A9FE45
:1005C0004B4B0146FF2804D106E01A54641C401C22
:1005D000C0B22278002AF8D148480078002804D018
:1005E000002E02D029445F20585470BD2DE9FF4FE2
:1005F0008146DDE90D048A469346FFF78AFE2022F4
:10060000DFF8F8803A490A234FF0640C012C09D135
:1006100098F8005035B10D18A5F10E05AA706A7052
:100620002A7020E099FBF3F603FB16970D1830377C
:10063000A5F10E05022CAF7096FBF3F703FB1766CE
:1006400006F130066E7099FBFCF606F1300605F8EF
:100650000E6B08D198F800602EB1A5F10A05AA70BA
:100660006A702A7021E09AFBF3F603FB16A70D18B7
:100670003037A5F10A05032CAF7096FBF3F703FBA7
:10068000176606F130066E709AFBFCF606F130062E
:10069000674605F80A6B08D198F800602EB1A5F1FD
:1006A0000605AA706A702A702AE09BFBF3F603FB2A
:1006B00016B70D183037A5F10605042CAF7096FB60
:1006C000F3F703FB176606F130066E709BFBFCF632
:1006D00006F13006674605F8066B11D198F8004020
:1006E00074B1A5F102050A546A702A70BDE8FF8F43
:1006F00042020010B8030010BCC007204A000010DE
:10070000039C94FBF3F203FB124430340C5492FB31
:10071000F3F403FB14220844A0F1020030324270CB
:10072000039991FBF7F101F130010170DEE770B53B
:100730000D461446FFF7F8FD601CC0B2FFF703FE3C
:100740002846FFF7E6FDB44BB44A002124B95D5CAE
:10075000202D01D015540FE0A14201D25D5CF9E7D4
:1007600004D14FF02E0515545D5C02E05D5C202D38
:1007700002D0161806F8015C401E491CC9B2C0B26E
:100780000529E3D370BD17B501EB810002EB8000B2
:10079000C2B29DF80030A24803F00F0100EB131322
:1007A000445C9E498C54521ED2B21B788B549DF8E7
:1007B0000130521E03F00F04D2B2045D8C54521E5D
:1007C00000EB1313D2B21B788B549DF80230521EEB
:1007D00003F00F04D2B2045D8C54521E00EB1313CD
:1007E000D2B21B788B549DF80330521E03F00F04D5
:1007F000D2B2045D8C54521E00EB1310D2B20078BA
:1008000088541EBD01EB810102EB8101844A10B5C1
:1008100000F00F03C9B2D45C804B02EB10105C54A3
:10082000491EC9B20078585410BD01EB810102EB9A
:100830008101CBB27A4910B500F001028C5C774A95
:10084000D45444085B1E04F00100DBB2085CD054B1
:100850005B1ED8B2630803F001045B080C5D1454FE
:10086000401E03F00104C0B20C5D14545B08401E2E
:1008700003F00104C0B20C5D14545B08401E03F089
:100880000104C0B20C5D14545B08401E03F0010467
:10089000C0B20C5D1454401EC4B25808085C105518
:1008A00010BD30B55F4901235C4D91F9012091F9EC
:1008B000041000EB80048A4202D105F8243030BDD8
:1008C000564D4C1C00EB800005EB8000A24201D18C
:1008D000037530BD8C1CA24202D180F8283030BD97
:1008E000CC1CA24202D180F83C3030BD0C1DA2428B
:1008F00002D180F8503030BD4C1DA24202D180F8A8
:10090000643030BD8C1DA24202D180F8783030BDF9
:10091000C91D8A42FBD180F88C3030BD424B1A8809
:10092000521E104400B21880404A00EB800002447E
:100930003C48136803601279027142781144417097
:100940007047F0B5384D394FB5F9004004EB8406D7
:10095000641C2C80334C3E44256835602579357104
:10096000207061702271A370F0BDF0B505460E468F
:100970001746FFF7C5FC294C5FF00000401C15F836
:10098000011BC0B204F8011B1428F7D35FF000006C
:10099000401C16F8011BC0B204F8011B1428F7D341
:1009A0005FF00000401C17F8011BC0B204F8011BE7
:1009B0001428F7D35FF00000401C13F8011BC0B2ED
:1009C00004F8011B1428F7D3F0BD30B504460846DF
:1009D0001546FFF79EFCFF2809D0104A2178002910
:1009E00005D04319641C401CD154C0B2F6E730BD99
:1009F00010B5029CFFF7B9FF0A48C37882784178A6
:100A00006520FFF79EFF642094FBF0F0BDE81040E6
:100A1000C0B2FFF718BC0000B8030010420200107B
:100A20002A980100000200106A0000105C6E00109D
:100A3000FC4A30B4FC49B2F90A4040F6AC53B1F973
:100A400000009C4203DCB2F914209A4203DD142812
:100A500004DA401C01E008B1401E0880142230BCBA
:100A60000021F148FFF718BCF0B5EE48EF494FF40C
:100A7000FA72B0F90000B1F90010ED4B484390FB59
:100A8000F2F01880E74841F288332030EE4DB0F99B
:100A90000000484390FBF2F0E649EA4A0880E74943
:100AA000E5480C68E6490088B1F90010001B48438E
:100AB00090FBF3F01080001B484390FBF3F028807C
:100AC000E248E44B0188E248B0F9004081B90020D7
:100AD000014609E0C1EBC10606EB460603EB8606BC
:100AE000491C366AC9B23044A142F3DB1080288029
:100AF000B2F900000021002800DA11805FF0000246
:100B0000C2EBC20000EB400003EB8000C578192D5A
:100B10001BD28579C67905EB06260662067A477AE6
:100B200006EB0726C661867AC77A06EB072686613A
:100B3000067B466280F84E50857B80F83E50057CEF
:100B4000467C05EB0625856406E081610162C16192
:100B5000416280F83E108164521CD2B2202ACFD369
:100B6000BD48BE49008860430880BD48BD49008833
:100B700060430880F0BDBC48416821F4402141F445
:100B800080214160416821F4403141F4803141606D
:100B9000416821F4404141F480414160416C21F4BD
:100BA000402141F400214164416C21F4403141F481
:100BB00000314164416C21F4404141F40041416401
:100BC000AA48016821F0E0610160016841F4001168
:100BD0000160016821F480310160016821F47F41E6
:100BE00041F4807101608115C160A14889030160F1
:100BF0007047F0B58B4D9F489F49B5F9147040F68A
:100C0000AC5690F90F2000230C684FF0010CB7424E
:100C100007DA142A02DA02F1010204E004DDC373E8
:100C20000DE062B1521EC27390F90F20132A04DB4B
:100C300080F811C024F0010204E0022A03DC4374AE
:100C400044F001020A608B4AB5F90A4092F910207B
:100C5000B44207DA142A02DA02F1010204E004DDE8
:100C600003740EE06AB1521E027490F91020132A28
:100C700005DB80F812C0086820F0020005E0022AB7
:100C800004DC8374086840F002000860F0BD2DE9C0
:100C9000F041784C363460882188401A00B201F067
:100CA00099FFA51D2880A0886188401A00B201F034
:100CB00091FF6880A0882188401A00B201F08AFF65
:100CC0004FF496726B49A880904201DAA0880AE03E
:100CD000B5F90200904201DA608804E0B5F900003D
:100CE000904201DA208848834C7800231CB34D4899
:100CF000B1F91A204030056815440560456815446F
:100D00004560856815448560C5682A44C2604A8C80
:100D1000521C12B24A84B2F5805F00DB4B84B1F9F9
:100D20002220950535D1921250F822502D120D83B4
:100D300040F822302DE0514F887891F803C007EB3E
:100D4000C012B1F91AE042F82CE05FEA8C7212D1BD
:100D500000252A4607EBC01656F82270521CD2B264
:100D60003D44202AF8D36A112E4D25F8102005F1B4
:100D7000200222F810E0401CC0B28870102808D36E
:100D80000CF1010C0CF0FF008B70C870202800D310
:100D9000CB70641C0B7014F00100344A487005D00D
:100DA000106820F0FF00001D106034E0897808070B
:100DB0000028106820F0FF0002DB00F1010001E0D4
:100DC00000F1020010602E48036843F08053036076
:100DD000036A43F080430362036E43F0806303665B
:100DE000CB07436908D043F0805343618B07436BC3
:100DF00005D423F0804304E023F08053F5E743F06B
:100E0000804343634907416F02D421F0806101E0D0
:100E100041F080614167106840F080701060BDE86B
:100E2000F08100008C6D0010340100106EC00720AE
:100E30000C010010B60300108A230010C4C0072064
:100E4000C80300100E010010BAC007205E01001098
:100E50008A00001084E307203A0100105A010010B4
:100E60003C0100105C01001000C002400040034043
:100E700000E100E000C00720BC0100108C650010FC
:100E800000C009202DE9F04FFF49B1F9000018B169
:100E9000A0F101000880AEE00A200880FB49002391
:100EA000DFF8ECB3DFF8EC830B7064208BF8000004
:100EB00088F80000F8481A46B0F90040F7480DE0FD
:100EC000C2EBC20505EB450500EB8505ED78142D59
:100ED00002D20D786D1C0D70521CD2B2A242EFDB13
:100EE00009788A4602294CD3ED49897A002948D0ED
:100EF000EC4A41F28831DFF8B0C31160EB4DCCF819
:100F0000003000212B601FE0C1EBC10606EB460656
:100F100000EB8606B778012F14D1366ADCF8007032
:100F2000B146BE4203DDCCF8009088F80010176887
:100F3000B94503DAC2F800908BF800102F6809EB6E
:100F400007062E60491CC9B2A142DDDB2E6896FB64
:100F5000FAF5D74E35601668012506B91560DCF83C
:100F60000060642712687E4396FBF2F2DFF844C308
:100F7000D14EA02ACCF8002000DD3570782A01DAA5
:100F8000337038E03278012A35D1CC4A1678EEB188
:100F9000137098F80020A24209DAC2EBC20202EBF9
:100FA000420200EB820232F8503F5B1E1380C1EB1D
:100FB000C10101EB410100EB81006FF03102B0F99A
:100FC0005010914211DAA0F8502014E015709BF8EF
:100FD0000020A242EBDAC2EBC20202EB420200EBBB
:100FE000820232F8503F5B1CE0E7322903DD4FF00C
:100FF0003201A0F8501000BFBDE8F08F10B50021FD
:10100000D0200EF0E4FE0021BDE81040D4200EF008
:10101000DEBE70B5AA4CAB480025217851B3AA4971
:10102000098839B3A94A0168B2F900201144016066
:10103000B1F5616F1FDBA64EA1F5616101603168FA
:1010400040F61C40491C31600EF0C1FEA1493068D9
:10105000B1F9001088420EDB2570FFF7CFFF0023A7
:101060001A4601217A20FFF76CFCBDE87040002091
:10107000FFF7E9B8056070BD70B5914C964A974886
:1010800025780021F5B3964B1B88DBB3954EB0F95C
:101090000030B6F90060B34202DA5B1C038070BD19
:1010A0000020012D02D0022D02D004E08E4800E085
:1010B0008E48B0F900008E4BB3F9003058436423DA
:1010C00090FBF3F08B4B00B21880804BB3F90030EB
:1010D000834216DA1088401C00B21080864AB2F9AA
:1010E00000209042DBDB2170FFF788FF00231A46C7
:1010F00002217A20FFF725FCBDE870400020FFF7B1
:10110000A2B800E001E0118070BD0180F9E72DE98F
:10111000F05FDFF8AC81DFF8E4B1794D98F80000BA
:10112000784FDFF8E491012600244FF4167A012865
:1011300062D176480168491C91FBFAF201600AFB12
:10114000121030B972480078012802D1D0200EF078
:101150003EFED9F80010484609B1491E0160084614
:101160006C49B1F9001008430CD188F80040FFF732
:1011700045FF00231A4619467A20FFF7E2FB0020BC
:10118000FFF761F864480088B0B3BBF8000098B37B
:10119000624B1888401C01B261481980027832B154
:1011A000012A0CD0022A15D0032A1CD024E05D4A63
:1011B0002E70B2F9002091421EDB06701BE039B19F
:1011C00085F80040B7F90020914215DB022108E0C4
:1011D0002E70F7E7544A2C70B2F9002091420BDBD5
:1011E0000321017007E0A9B185F80060B7F900207C
:1011F000914201DB04701C8098F80000022842D163
:1012000042480168491C91FBFAF201600AFB121086
:1012100010B108E02C70E9E73D480078012802D1C0
:10122000D4200EF0D4FDD9F80010484609B1491E6B
:10123000016008463D49B1F9001008430CD188F817
:101240000040FFF7DBFE00231A4619467A20FFF71D
:1012500078FB0020FEF7F7FF2F480088002812D007
:10126000BBF8000000280ED02C480188491C0AB2A7
:101270002B4902800B782BB1012B6BD0022B77D03E
:10128000032B55E05EE071E070030010F0C0072012
:10129000F5030010F1C007208A00001084E3072046
:1012A00000C00720EC030010E4C00720E8C00720BE
:1012B000F0030010ECC00720F4030010F603001048
:1012C00037000010E4030010F60000100E010010BB
:1012D000FC010010F8000010E8030010E2C0072035
:1012E000FA000010000100108001001050010010F1
:1012F000FC000010EA030010020100108C01001035
:101300003900001092010010F4010010F0010010EB
:1013100061000010520100108A010010DC0300106F
:101320003A0000108E0100109001001054010010CE
:101330001CD132B385F80060B7F900309A4215DB52
:101340000C7012E0FF4B2E70B3F900309A420DDBA7
:101350000E700AE03AB12C70B7F900309A4205DB02
:1013600002220CE004E02E70F6E70480BDE8F09F56
:10137000F54B2C70B3F900309A42F7DB03220A7068
:10138000F3E72C70D8E770B5F0480078032843D114
:10139000EF49F0480A68521C0A60B0F90050EE4864
:1013A000B0F900002B18ED48B0F900001C18EC480B
:1013B000B0F9000026180020964204DCE94E0860CF
:1013C0003288521C32800968E74E0122A94201DBB3
:1013D000327000E03070E54D8B4203DC8C4201DD61
:1013E0002A7000E02870E2490A88521C12B20A8072
:1013F000B2F5167F10DB0880DE490A88521C12B253
:101400000A803C2A08DB0880DB490A88521C12B299
:101410000A80182A00DB088070BD0121D0200EF060
:10142000D6BC0121D4200EF0D2BC70B5D3480088C0
:1014300002280AD1D2480188D248B0F9000011B17F
:10144000012829D001E0401C26D0C04801250024F5
:101450000570CD48CE490460CC4800680860FFF7AD
:10146000DCFFCC48057244728472CB48008840B1DE
:10147000CA48008828B1CA480480CA480470CA48CB
:101480000570CA4821460460C9480460BDE8704040
:1014900040F61C400EF09BBC70BDB84810B50088EB
:1014A00002280AD1B6480188B648B0F9000011B147
:1014B00001282AD001E0401C27D0A44902200024A2
:1014C0000870B148B2490460BA4800680860FFF784
:1014D000A8FFB0480121017244728472AE480088AE
:1014E00040B1AE48008828B1AD480480AD480470D2
:1014F000AD480170AD4821460460AD480460BDE8C8
:10150000104040F61C400EF062BC10BD8F49032015
:10151000087070478D490020087070478B49002083
:1015200008707047A448B0F9001011B1491E01803D
:101530007047A24900200880A1490880704783496C
:101540000020087082490860864908808849088020
:10155000884908808849088070477C4900200870C5
:101560004CE52DE9F041002406464FF4FA75A046FB
:10157000274628460EF034FBB04228DA05EB470038
:101580000EF02EFBB04200DC3C460A373FB2C82FBB
:10159000F4DDC82C0EDA04F10A0708E005EB44007C
:1015A0000EF01EFBB04200DCA046641C24B2BC421C
:1015B000F4DB0CE05FF0C80405EB44000EF010FB18
:1015C000B04200DCA046641C24B2CA2CF4DD4046C4
:1015D00025E42DE9F041002406464FF47A75A04633
:1015E000274628460EF0FCFAB04228DA05EB470001
:1015F0000EF0F6FAB04200DC3C460A373FB2C82F84
:10160000F4DDC82C0EDA04F10A0708E005EB44000B
:101610000EF0E6FAB04200DCA046641C24B2BC42E4
:10162000F4DB0CE05FF0C80405EB44000EF0D8FAE0
:10163000B04200DCA046641C24B2CA2CF4DD404653
:10164000C6E72DE9F05FDFF87C915F4F5F4E99F8B8
:1016500000005F4C322542F2ED784FF0000A40F274
:10166000FE3B46282AD13078012858D12088401CDA
:1016700000B22080404509DB86F800A05549AC2027
:101680000EF06BFB00210846FFF748F95249A1F81C
:1016900000B0B4F9001091FBF5F005FB101100EB60
:1016A00080023A80312909D14FF4FA7101EB4000F0
:1016B0004A4900B2B1F900100EF04FFB99F8000052
:1016C00045282CD13078012829D12088401C00B22F
:1016D0002080404509DB86F800A03E49AE200EF090
:1016E0003CFB00210846FFF719F9A7F800B0B4F950
:1016F0000010394B91FBF5F005FB101100EB800257
:101700001A8031290BD14FF47A7101EB4000344932
:1017100000B2B1F90010BDE8F05F0EF01EBB25E687
:101720002DE9FC5F1C48DFF824A0008848B11B4865
:10173000008830B12B489AF80030B0F900101A48F0
:1017400052E06EE08E010010900100103700001092
:10175000F80100109E010010A0010010A20100106D
:10176000A4010010AA010010E0030010E0C007204F
:10177000DCC00720DE030010DEC00720F2000010EE
:10178000F400001028010010F0010010E401001026
:10179000F401001000C007208A0100108C01001025
:1017A000DC0300103A00001039000010E4030010C0
:1017B000FC010010E8010010F8030010CCC0072065
:1017C000CE030010000200102201001038000010AB
:1017D0006C000010CDABFFFF240100100C010010C5
:1017E0000E010010940100100078012B07D0FF4A71
:1017F000022BB2F900200BD0FD48028003E0012843
:1018000001D010B123E0FB4820E0FB480188FAE753
:10181000012801D018B11AE0F548028017E0F74816
:1018200012E0F748B0F90000022868D0012868D01B
:10183000F4480188EF480180F348B0F9000002281D
:1018400061D0012861D0F1480188E9480180F04861
:101850000021B0F90020E748FEF71EFDED48002109
:10186000B0F90020E248FEF717FDEB4E00254FF0DF
:10187000010970790A2812D2401CC0B270710A287E
:101880000DD3757186F80690F1794846052906D280
:10189000491CC9B2F171052901D3F571F072DF4815
:1018A000DF4BE04990F800C0DF4CE04F40F2FE38DB
:1018B000BCF1310F2BD0BCF12B0F75D0BCF12C0F2C
:1018C00072D0DB4ADB49BCF1340F6ED0DA48BCF190
:1018D000460F6BD0BCF1450F69D09AF80000DFF8D5
:1018E0005CA3DFF85CB3012871D0022870D0032814
:1018F0006FD01D7000204B46B7F90010F8E3D148B7
:1019000097E7D14895E7D1489EE7D1489CE790F901
:10191000010038B1012820D01D70E562256384F8EC
:10192000289011E2A6F81480A6F8168083F800909B
:1019300040460021B7F900200CE000BFC1EBC10315
:1019400003EB430304EB8303491CD862186383F859
:101950002850C9B29142F1DBF6E1087810B10128B4
:1019600017D0F1E1B582F5821D7000204B46B7F922
:1019700000100BE0C0EBC00202EB420204EB82025B
:10198000401CD562156382F82830C0B28842F1DB72
:10199000DAE1A6F81480A6F8168083F80090404695
:1019A0000021B7F900200FE014E05AE171E19EE157
:1019B000C1EBC10303EB430304EB8303491CD8626F
:1019C000186383F82850C9B29142F1DBBCE1BCE155
:1019D00087E278E390F9012022B1032A02D0062A97
:1019E0005BD061E0A6F81480A6F8168004F1280404
:1019F00083F800906560A56084F80090A565E565B2
:101A000084F85490C4F8AC50C4F8B05084F8A8904E
:101A1000C4F80051C4F8045184F8FC90C4F854513F
:101A20004A46C4F8585184F85021C4F8A851C4F863
:101A3000AC5184F8A421C4F8FC51C4F8005284F8D5
:101A4000F821C4F85052C4F8545284F84C22C4F817
:101A5000A452C4F8A85284F8A022C4F8F852C4F8DA
:101A6000FC5284F8F422C4F84C53C4F8505384F860
:101A70004823C4F8A053C4F8A45384F89C2390F9D5
:101A80000200A4F12804C0EBC00000EB400004EB0E
:101A900080004146C1620163E0E0097811B101298B
:101AA0004DD051E1B582F58204F128041D706560C6
:101AB000A56084F80090A565E56584F85490C4F8A5
:101AC000AC50C4F8B05084F8A890C4F80051C4F8E1
:101AD000045184F8FC90C4F85451C4F8585184F867
:101AE0005091C4F8A851C4F8AC5184F8A491C4F83A
:101AF000FC514846C4F8005284F8F801C4F850522A
:101B0000C4F8545284F84C02C4F8A452C4F8A85241
:101B100084F8A002C4F8F852C4F8FC5284F8F40225
:101B2000C4F84C53C4F8505384F84803C4F8A05385
:101B3000C4F8A45384F89C03A4F12804C2E3A6F8D3
:101B40001480A6F8168004F1280483F800906560DC
:101B5000A56084F80090A565E56584F85490C4F804
:101B6000AC50C4F8B05084F8A890C4F80051C4F840
:101B7000045184F8FC90C4F854514946C4F85851B3
:101B800084F85011C4F8A851C4F8AC5184F8A411D9
:101B9000C4F8FC51C4F8005284F8F811C4F850524B
:101BA000C4F8545284F84C12C4F8A452C4F8A85291
:101BB00084F8A012C4F8F852C4F8FC5284F8F41265
:101BC000C4F84C53C4F8505384F84813C4F8A053D5
:101BD000C4F8A45384F89C1390F902004246C0EB69
:101BE000C000A4F1280400EB400033E0980100108D
:101BF0008201001080010010960100109A0100106F
:101C000084010010420100108601001048010010FC
:101C10005A0100103601001000C007200002001019
:101C200066C007204E00001084E307208A000010E1
:101C3000220100102401001038000010C0C007204D
:101C4000C603001046010010440100104C010010B2
:101C50004A01001004EB8000C262026380F8285041
:101C600030E3B1F900C00020B2F90020B7F900104C
:101C70000CE000BFC0EBC00303EB430304EB8303A2
:101C8000401CC3E90B2C83F82850C0B28842F1DB1A
:101C900018E3007801284FF0000012D04146B7F950
:101CA00000200BE0C0EBC00303EB430304EB830312
:101CB000401CD962196383F82850C0B29042F1DB0E
:101CC00000E3B1F900C0B2F90020B7F900100BE051
:101CD000C0EBC00303EB430304EB8303401CC3E9E5
:101CE0000B2C83F82850C0B28842F1DBEAE200787E
:101CF00001284FF0000012D04146B7F900200BE058
:101D0000C0EBC00303EB430304EB8303401CD96225
:101D1000196383F82850C0B29042F1DBD2E2B1F9E6
:101D200000C0B2F90020B7F900100BE0C0EBC0030F
:101D300003EB430304EB8303401CC3E90B2C83F840
:101D40002850C0B28842F1DBBCE2FB48B0F9001079
:101D500051B1FA4803688B4206DAF94AB2F9000039
:101D6000584390FBF1F01080B07998B3F5480088A3
:101D700040B1F548008828B1F4480078012836D0F1
:101D8000032834D0F248B0F90010ED48B0F9000053
:101D9000814206DABBF8001001F10101ABF8001036
:101DA00006E005DDBBF80000A0F10100ABF8000083
:101DB00032225142E748FEF76FFAE748B0F90010C7
:101DC000E648B0F90000814205DABAF8001001F1E6
:101DD000010105E00BE005DDBAF80010A1F10101F9
:101DE000AAF8001032225142DD48FEF755FADB48CE
:101DF000DC49B0F90000B1F90010C0EB4020400010
:101E000090FBF1F00090CE48D749B0F90000B1F94D
:101E10000010C0EB4020400090FBF1F08046AC2069
:101E20000DF0DEFEA0F52B41CD3907D1CB48B0F93E
:101E30000000FFF796FB00EB80000090AE200DF055
:101E4000CFFEA0F52B41CD3907D1BD48B0F9000038
:101E5000FFF7BFFB00EB800080460020B7F900C011
:101E60003CE0B849098841B1B749098829B1B74967
:101E70000978012910D003290ED000990AB2BAF9C5
:101E800000105218C0EBC00101EB410104EB8101CD
:101E9000CA620CD5CD620FE0C0EBC00101EB41017D
:101EA00004EB8101CD620D6381F8289014E040F2CB
:101EB000FE339A4200DDCB62BBF900200FFA88F3B3
:101EC0009A180A6301D50D6304E040F2FE339A428A
:101ED00000DD0B6381F82850401CC0B26045C0DBB8
:101EE000F0E1A24BB3F90000052802DD86F8099065
:101EF00000E07572DFF878C26422BCF9001091FB33
:101F0000F2F20092002A01DC01220092401A00B293
:101F1000FEF71AF9009909B2884202DA86F80A90A7
:101F200000E0B5723572B07A78B1F07AB0B38F480C
:101F3000F572B0F900108E48B0F90000814229DB3B
:101F40002EDC31E0AAF800102EE0B07930B3707AC0
:101F500020B37F48B0F900108648B0F900008142F4
:101F600004DABBF8001001F1010104E005DDBBF863
:101F70000010A1F10101ABF8001032225142754866
:101F8000FEF78AF97948B0F900107948B0F90000F5
:101F9000814204DABAF80010491CD3E709E003DDF6
:101FA000BAF80010491ECDE7322251426C48FEF7C4
:101FB00073F96F484FF46171B0F900004843694903
:101FC000B1F9001090FBF1F032300090AC200DF030
:101FD00007FEA0F52B41CD3907D16548B0F90000C7
:101FE000FFF7BFFA00EB80000090DFF888815E49C0
:101FF000B8F90000B1F90010C0EB4020400090FBA0
:10200000F1F00190AE200DF0EBFDA0F52B41CD39A4
:1020100006D1B8F90000FFF7DCFA00EB8000019070
:102020000020B7F9008045E04649098841B146499A
:10203000098829B145490978012915D0032913D008
:10204000C0EBC00101EB410104EB810C0099BCF92C
:1020500050200BB2BAF9001019445118CCF82C10CA
:102060000DD5CCF82C5010E0C0EBC00101EB4101C4
:1020700004EB8101CD620D6381F8289018E040F2F5
:10208000FE32914201DDCCF82C2001990AB2BBF955
:1020900000105118CCF8301002D5CCF8305005E0C3
:1020A00040F2FE32914201DDCCF830208CF828500D
:1020B000401CC0B24045B7DB2F49009808802F492B
:1020C000E06A0880FEE0B079A0B32D48007888BBB4
:1020D0002C48B0F9000000EB80011D48B0F9000069
:1020E000B0EB410F05DABBF8001001F1010105E08A
:1020F000E2E005DDBBF80010A1F10101ABF8001032
:10210000424629461348FEF7C7F832225142114889
:10211000FEF7C2F81C48B0F9000000EB80010E4841
:10212000B0F90000B0EB410F30DABAF8001001F15D
:10213000010130E03BE00000F0000010F001001071
:10214000800100108A0100108C0100103A0000107C
:102150000E010010C60300100C0100104E0100100B
:10216000C0C00720360100105A010010B60300104D
:102170008201001050010010CEC00720D2030010D1
:10218000E0030010A8010010A601001005DDBAF858
:102190000010A1F10101AAF8001042462946FE48AC
:1021A000FEF77AF832225142FC48FEF775F8FC48F7
:1021B00042F2EC71B0F900004843FA49B1F900105D
:1021C00090FBF1F00090F84842F2EC71B0F9000099
:1021D0004843F649B1F9001090FBF1F00190AC20B2
:1021E0000DF0FEFCA0F52B41CD390AD1EC4800885A
:1021F00000EB8000400000B2FFF7B3F900EB800075
:102200000090AE200DF0ECFCA0F52B41CD390AD1A9
:10221000E548008800EB8000400000B2FFF7D9F9E4
:1022200000EB800001900020B7F9001035E0E04A93
:10223000127852B1C0EBC00202EB420204EB820200
:10224000D562156382F8289025E0009A13B2BAF996
:1022500000209A18C0EBC00303EB430304EB830C8C
:10226000CCF82C2002D5CCF82C5003E0424501DDFF
:10227000CCF82C80019A13B2BBF900209A18CCF844
:10228000302002D5CCF8305003E0424501DDCCF8D7
:1022900030808CF82850401CC0B28842C7DB11E067
:1022A000C0EBC00202EB420204EB8202401CD5628A
:1022B000156382F82830C0B28842F1DBABF80050D9
:1022C000AAF80050BB49B1F90000E8B1401E00B2C5
:1022D0000880B94AB94908B915800D80B1F900C024
:1022E0000020B2F90020B7F900100BE0C0EBC003EA
:1022F00003EB430304EB8303401CC3E90B2C83F87B
:102300002850C0B28842F1DB00204B46B7F90010DC
:1023100010E000BFC0EBC00202EB420204EB8202FD
:10232000577817F08F0F03D0D562156382F82830E5
:10233000401CC0B28842EDDBB571BDE8FC9FC0EB2C
:10234000C0009F4910B500EB400011F82020032A7F
:102350007DD101EB800090F83E108A07B0F9422051
:102360000CD54FF496639A420DDA521C12B2A0F8C3
:1023700042209A4207DBA0F8423004E01AB1A2F1F1
:102380000102A0F842200A07B0F944204FF00A03E6
:102390004FF000040AD50A2A13DA521C12B2A0F830
:1023A00044200A2A0DDBA0F844300AE0002A05DDAB
:1023B000A2F1010212B2A0F8442002E001DAA0F872
:1023C0004440CA06B0F946200AD50A2A0DDA521C42
:1023D00012B2A0F846200A2A07DBA0F8463004E033
:1023E0001AB1521E12B2A0F84620764A1378012B79
:1023F00001D0022B35D1744A12884AB3734A022B9A
:10240000B2F9002002D1724AB2F90020714BB3F93F
:10241000003064335A43642392FBF3F26E4B12B2E2
:102420001A808369934290F8522016DD6B4BB3F902
:10243000003003EB8303B2EB430F12DA521CD2B22B
:1024400080F85220B2EB430F0BDB427801E032E020
:1024500007E042F08002427003E012B1521E80F8A1
:102460005220427812F08F0F01D004210FE05C4A15
:10247000127822B1C278142A01D9052107E0890611
:1024800001D5022103E0C178142901D20121817014
:10249000C1780A2990F8281002D341F0800101E0A8
:1024A00001F07F0180F828104E49B1F91420C26272
:1024B000B1F91610016310BD2DE9F04741484A4EAD
:1024C000484C0078002510B3B6F9000000EB8001FD
:1024D000B4F92800B0EB410F01DA401C20854348D5
:1024E000DFF80C8147F2305AB0F9000000EB8001B0
:1024F000B8F90000B0EB410F0BDD608D5246401C77
:102500006085384800212A30FDF7C6FE02E02585A7
:10251000E5E76585DFF8DC900127B9F9000000EBFD
:102520008001B4F92A00B0EB410F0ADBB6F90010C4
:10253000B4F9282001EB8101B2EB410F01DB2773D5
:1025400001E000B925732C48B0F9000000EB8001D0
:10255000B8F90000B0EB410F09DAA08D5246401CDB
:10256000A085204800212C30FDF796FE00E0A585CF
:10257000B9F9000000EB8001B4F92C00B0EB410F79
:102580003CDBB6F90010B4F9282001EB8101B2EB75
:10259000410F33DB677334E0C6030010C0C007206F
:1025A000A601001036010010A80100105A01001009
:1025B000E0030010FC030010FA030010F6C007202F
:1025C00084E3072037000010040100104E010010C2
:1025D0008201001006010010F4C00720080100105D
:1025E000BD03001000C00720680100107201001038
:1025F0000C0100106A0100107001001030B1607B06
:1026000028B1207B18B1A773BDE8F0876573A57367
:10261000FAE72DE9F05FBD48DFF8F882DFF8F8B29D
:102620000178BB48DFF8F4A2BD4DB0F90000BD4E03
:102630000027BD4C022911D0012925D02780BB4994
:102640002868B1F90010884243DDB9493068B1F912
:10265000001088423DDA2088401C3CE0DFF8D4922C
:10266000B9F80010401A00B200F0B4FAC8F800003F
:1026700064214843B9F90010DFF8BC8290FBF1F007
:102680002860BBF8001014E0DFF8B092B9F8001031
:10269000401A00B200F09EFAC8F8000064214843D6
:1026A000B9F90010DFF8988290FBF1F02860BBF8D0
:1026B0000010B8F80000081A00B200F08BFA64218C
:1026C000CAF800004843B8F9001090FBF1F0306000
:1026D000B5E72088401E9B4D20800A21288800EB0A
:1026E000800001EB400002B200218F48FDF7D4FDCD
:1026F0008648007800B9278093489449944A006836
:10270000B1F9001088420ADBB5F90030B4F9006075
:1027100003EB8303B6EB430F01DD01231370884203
:1027200008DBB5F90000B4F9001000EB8000B1EB54
:10273000400F00DC1770BDE8F09F2DE9F84F854889
:10274000874B0122B0F900407048007883468248E8
:10275000007886468148007800907D48B3F9007083
:10276000804B06787B48B3F900303238817B90F893
:102770000D8090F80CC030308946007800218246E8
:102780007448001F2CB3012C0AD0022C12D0032C49
:1027900018D0042C22D0052C2CD0062C36D03BE0AF
:1027A000BBF1030F02D0009D9DB132E0BEF1000FDE
:1027B00031D12EE017B1012F02D02DE02EB32AE047
:1027C0003EB126E013B1012B04D025E0B9F1000F92
:1027D0001FD020E0B9F1000F1DD01AE013B1012B7A
:1027E00004D019E0B8F1000F13D014E0B8F1000FD5
:1027F00011D00EE013B1012B04D00DE0BCF1000F9D
:1028000007D008E0BCF1000F05D002E0BAF1000FDC
:1028100001D0027000E001704E4DB5F902508DB14B
:10282000012D11D0022D1BD0032D22D0042D2BD031
:10283000052D34D0062C03D1BAF1000F3AD0027026
:10284000BDE8F88F4170FBE7BBF1030F04D0009B9C
:10285000002BF7D04270F3E7BEF1000FF2D1F9E799
:1028600027B1012FECD1002EF4D1EBE7002EF1D0EF
:10287000E8E72BB1012BE3D1B9F1000FEAD1E1E791
:10288000B9F1000FE6D0DDE72BB1012BD8D1B8F1BB
:10289000000FDFD1D6E7B8F1000FDBD0D2E72BB1C4
:1028A000012BCDD1BCF1000FD4D1CBE7BCF1000F8F
:1028B000D0D0C7E70170C3E72B49086820F4407007
:1028C00008602A48026842F010020260214A121F82
:1028D0001378012B436912D043F0100343610B6856
:1028E00023F440630B60016841F0200101605178DE
:1028F0000129416906D041F020014161704723F070
:102900001003EBE721F02001F7E70000370000108B
:102910000C010010D40300100E010010D8030010A9
:10292000D0C00720D4C00720DAC007206C010010F7
:102930006E01001048010010500100104E010010FF
:102940008001001066010010F00100106401001009
:10295000D8C0072032C00720E0C00720390000108F
:10296000600100106201001000C0024000C0092098
:102970002DE9F84F074600208046054604465426B8
:1029800059B1012904D0022904D0032904D004E05C
:10299000552602E0752600E04C268D48C7EBC7039C
:1029A000DFF8289203EB43034FF0000A00EB8300AB
:1029B000012A02D0002A7ED003E131B1012908D0DA
:1029C00002290AD003290CD00FE0427842F001021C
:1029D0000AE0427842F0020206E0427842F0040245
:1029E00002E0427842F00802427080F84F10532013
:1029F0008DF800008DF801708DF8026055468DF855
:102A000003A0694628460DF024FA69460420009583
:102A10000DF01FFAB9F83C0009F120048DF8000010
:102A2000207E8DF80100207B8DF802008DF8035088
:102A300069464FF008000DF00CFA207A8DF800007E
:102A400020798DF8010020788DF802008DF8035070
:102A500069460C200DF0FDF941248DF800408DF8F9
:102A600001408DF802408DF80340694610200DF0BA
:102A7000F0F98DF800408DF801408DF802408DF896
:102A80000340694614200DF0E4F98DF800408DF8FC
:102A900001408DF802408DF80340694618200DF082
:102AA000D8F98DF800408DF801408DF802408DF87E
:102AB0000340694600E001E01C2080E031B10129BB
:102AC00008D0022913D0032915D007E0417821F05E
:102AD000010102E0417821F00201417005F110008E
:102AE0004FEA000B9DF80000532818D107E0417809
:102AF00021F00401F1E7417821F00801EDE79DF8AC
:102B00000100B8420BD19DF80200B04207D16946DE
:102B100058460DF0E2F89DF80000412805D0F4B3C6
:102B2000641EA4B24445DDD14BE09DF8010041286C
:102B3000F5D19DF802004128F1D19DF8030041280C
:102B4000EDD1B9F83C0009F120048DF80000207E99
:102B50008DF80100207B8DF8020056468DF803A009
:102B6000694658460DF075F9207A8DF800002079F5
:102B70008DF8010020788DF802008DF80360694619
:102B800005F114000DF065F942248DF800408DF830
:102B900001408DF802408DF80340694600E013E0E3
:102BA00005F118000DF055F98DF800408DF8014041
:102BB0008DF802408DF80340694605F11C000DF0C8
:102BC00048F900BFBDE8F88F3F248BE70040024082
:102BD00084E30720002801DA404200B2704710B5B4
:102BE00040F2D4700CF0FCFFFF4C207040F2D67025
:102BF0000CF0F6FF60704FF4FB600CF0F1FFA0707A
:102C000040F2DA700CF0ECFFE07040F2DC700CF097
:102C1000E7FF207240F2DE700CF0E2FF60724FF4CA
:102C2000FC600CF0DDFFA07240F2E2700CF0D8FF07
:102C3000E0724FF401600CF0D3FF207140F61200F7
:102C40000CF0CEFF607140F614000CF0C9FFA071CB
:102C500040F616000CF0C4FFE07110BDE34810B55B
:102C6000016821F0E06101604168E24AC1F30B13A1
:102C7000DF4C117824F81130491CC9B211700329B6
:102C800003D2016841F08071016010BD2DE9FF4160
:102C9000D94C0022E08CE085032020852078401C60
:102CA000C0B204F82209232802D384F8222001E0CC
:102CB000202847D82120FDF7A0FA50B1CF4800883E
:102CC000222806D1CE4894F8221090F902008842BA
:102CD00036D094F82B00CB4DA8B994F82200C0EB65
:102CE000C00101EB410105EB810202F128021179DB
:102CF000577A167A53798DE8CA0013784FF0ED02AF
:102D0000014610F0A7FC94F82200202818D2C0EB4E
:102D1000C00000EB400005EB8000C1783C2905D2E3
:102D2000491CC9B2C170032902D207E03C21C1701D
:102D30000179032902D24179491C4171C17801719D
:102D4000BDE8FF81AC492239212891F82B101CD015
:102D50002228F5D10029F3D1A9480A21CC38B0F9AD
:102D6000060090FBF1F0A649C0B2C0394A780B7852
:102D7000891E4C7800940390CDE901320B7829220A
:102D8000FF21084610F066FCDAE70029D8D19A48FE
:102D90002E30417803780838447803920094CDE9C6
:102DA000013103786222EBE795490020543908701D
:102DB000487088705431487070472DE9F04FDFF843
:102DC00038E24FF03C0BAEF1220E0EF1800101F122
:102DD000800AB1F95830B1F95A4001F580719EF876
:102DE0002C00CE6B096C96FBFBF591FBFBF70FFA01
:102DF00081F87146BAF9222091F803C03FB2BAF9BE
:102E000024102DB236B2B946B0B101283ED10AF134
:102E10001400BAF814704786BAF81C70C786038687
:102E20008486BAF92070504697B300BF4FF6FF7002
:102E30005346AAF8420018E00AF10E00BAF81A70D8
:102E40000787BAF80E708787C3864487BAF91E7061
:102E50005046002FEAD103466948A0F14C00006BB0
:102E60001BE000BF90FBFBF019E03A431AD011B110
:102E7000A3F8405008E0A3F8406005E0A3F84090B4
:102E800002E000BFA3F840808EF82FC0BDE8F08FAD
:102E9000FFE703465A484C38406B0029E2D1A3F8BB
:102EA0004200E2E70029EDD0E8E7F0B50020564AFD
:102EB00001464FF4F4731154401C00B29842FADBFF
:102EC000DFF83CE100200EF1420E14277A21414345
:102ED00000EB80039B0000EB80041BB207EB840532
:102EE0001FE000BF1EF803405E2C21D0474E04EBCC
:102EF000440416F814C002F801C006EB4404491C4F
:102F000066785654491CA6785654491CE67856549F
:102F1000491C26795654491C64795454491C5B1C3D
:102F20001BB29D42DEDC401C00B20428CEDBF0BDAB
:102F30004FF07E0C02F801C0491C42245454491C35
:102F40005A265654491C5654491C5454491C02F8DC
:102F500001C0E3E72DE9F04F2D4AD5B005211278E5
:102F600000200DF1A80A1AB92AA02A9001200621F2
:102F70002E4A127842B92EA34AF8203000F10100FF
:102F800001F10101C0B2C9B21E4A53781B060ED529
:102F90002DA44AF8204000F10100C0B230A44AF844
:102FA000204000F1010001F10201C0B2C9B292F863
:102FB00055301B060ED530A44AF8204000F1010020
:102FC000C0B227A44AF8204000F1010001F102013B
:102FD000C0B2C9B292F8A9301B0670D52CA44AF829
:102FE000204000F101005FE0DC28082000400340A1
:102FF00036C0072000C0072056000010180000103F
:103000000002001084E3072004EE0720AC910100C9
:1030100011C0072020CEF2F1F3F2F1F2E2F3E5F273
:1030200020F4E0E7E02042200000000012C007206A
:1030300020CEF2F1F3F2F1F2E2F3E5F220F4E0E770
:10304000E02043200000000020C1CFD1204E3120DD
:10305000E7E0E1EBEEEAE8F0EEE2E0ED0000000090
:103060002020EFEE20EFF0E5E2FBF8E5EDE8FE20B2
:1030700055E2FBF50000000020C1CFD1204E3220E8
:10308000E7E0E1EBEEEAE8F0EEE2E0ED0000000060
:1030900020C1CFD1204E3320E7E0E1EBEEEAE8F0AB
:1030A000EEE2E0ED00000000C0B2AFF24C044AF8DE
:1030B000204000F1010001F10201C0B2C9B292F852
:1030C000FD301B060FD5FFA44AF8204000F1010097
:1030D000C0B2AFF274044AF8204000F1010001F1DF
:1030E0000201C0B2C9B292F851311B060FD5FBA440
:1030F0004AF8204000F10100C0B2AFF29C044AF847
:10310000204000F1010001F10201C0B2C9B292F801
:10311000A5311B060FD5F7A44AF8204000F10100A5
:10312000C0B2AFF2C4044AF8204000F1010001F13E
:103130000201C0B2C9B292F8F9311B060FD5F3A44F
:103140004AF8204000F10100C0B2AFF2EC044AF8A6
:10315000204000F1010001F10201C0B2C9B292F8B1
:103160004D321B060FD5EFA44AF8204000F10100B4
:10317000C0B2AFF214144AF8204000F1010001F18E
:103180000201C0B2C9B292F8A1321B060FD5EBA45E
:103190004AF8204000F10100C0B2AFF23C144AF8F6
:1031A000204000F1010001F10201C0B2C9B292F861
:1031B000F5321B060FD5E7A44AF8204000F10100C4
:1031C000C0B2AFF264144AF8204000F1010001F1EE
:1031D0000201C0B2C9B292F849331B060FD5E3A46D
:1031E0004AF8204000F10100C0B2AFF28C144AF856
:1031F000204000F1010001F10201C0B2C9B292F811
:103200009D331B060FD5DFA44AF8204000F10100D2
:10321000C0B2AFF2B4144AF8204000F1010001F14D
:103220000201C0B2C9B292F8F1331B060FD5DBA47C
:103230004AF8204000F10100C0B2AFF2DC144AF8B5
:10324000204000F1010001F10201C0B2C9B292F8C0
:1032500045341B060FD5D7A44AF8204000F10100E1
:10326000C0B2AFF204244AF8204000F1010001F19D
:103270000201C0B2C9B292F899341B060FD5D3A48B
:103280004AF8204000F10100C0B2AFF22C244AF805
:10329000204000F1010001F10201C0B2C9B292F870
:1032A000ED341B060FD5CFA44AF8204000F10100F1
:1032B000C0B2AFF254244AF8204000F1010001F1FD
:1032C0000201C0B2C9B292F841351B060FD5CBA49A
:1032D0004AF8204000F10100C0B2AFF27C244AF865
:1032E000204000F1010001F10201C0B2C9B292F820
:1032F00095351B060FD5C7A44AF8204000F1010000
:10330000C0B2AFF2A4244AF8204000F1010001F15C
:103310000201C0B2C9B292F8E9351B060FD5C3A4A9
:103320004AF8204000F10100C0B2AFF2CC244AF8C4
:10333000204000F1010001F10201C0B2C9B2C14A4E
:1033400092F83D2612060AD5BFA34AF82030401C49
:10335000C0B2AFF2F423891C4AF82030C9B2C04889
:10336000B0F9568080F80080027A521CD2B2027204
:10337000142A08D300220272C3795B1CDBB2C3712A
:103380008B4200D3C271B748DFF8D4B202AC0178E7
:10339000CC380BF1800BB0F95890CC3090F9045038
:1033A00090F90100421BE9B3DFF8B8A20D2901F042
:1033B0002983212901F09A8453466C2993F904301A
:1033C00004EB830601F0A88453465B789B1E5BB236
:1033D0006D2901F0CC846F2901F06C856B2901F017
:1033E000D1876A2902F00D80564696F902707678E8
:1033F000761E4FFA86FC682902F05F8056460F2938
:1034000002F0C3801029FBD0042902F0E780944E1B
:10341000DFF854A24FF05E09B67E402902F0E78340
:10342000702900E02FE102F06884DFF83892362935
:1034300003F06780342903F0AD80752903F0E5803F
:10344000762903F03081722903F07981712903F024
:103450007B814F46732903F0B1815B2903F0CC8354
:10346000A9F14C095F2903F04B846029FBD0622944
:1034700003F05884632903F0A084642903F0EC84EA
:103480004FF0030E122903F03685442903F06F85AF
:10349000B946734F46293F7903F0BB86452903F0AF
:1034A000F5864F46312903F03A87742903F04C879B
:1034B0002D2903F0998709234FF00F084FF00C09CD
:1034C0002B29D3E020C1CFD1204E3420E7E0E1EB1F
:1034D000EEEAE8F0EEE2E0ED0000000020C1CFD11E
:1034E000204E3520E7E0E1EBEEEAE8F0EEE2E0ED39
:1034F0000000000020C1CFD1204E3620E7E0E1EBF4
:10350000EEEAE8F0EEE2E0ED0000000020C1CFD1ED
:10351000204E3720E7E0E1EBEEEAE8F0EEE2E0ED06
:103520000000000020C1CFD1204E3820E7E0E1EBC1
:10353000EEEAE8F0EEE2E0ED0000000020C1CFD1BD
:10354000204E3920E7E0E1EBEEEAE8F0EEE2E0EDD4
:103550000000000020C1CFD1204E313020E7E0E153
:10356000EBEEEAE8F0EEE2E0ED00000020C1CFD1A2
:10357000204E313120E7E0E1EBEEEAE8F0EEE2E068
:10358000ED00000020C1CFD1204E313220E7E0E134
:10359000EBEEEAE8F0EEE2E0ED00000020C1CFD172
:1035A000204E313320E7E0E1EBEEEAE8F0EEE2E036
:1035B000ED00000020C1CFD1204E313420E7E0E102
:1035C000EBEEEAE8F0EEE2E0ED00000020C1CFD142
:1035D000204E313520E7E0E1EBEEEAE8F0EEE2E004
:1035E000ED00000020C1CFD1204E313620E7E0E1D0
:1035F000EBEEEAE8F0EEE2E0ED00000020C1CFD112
:10360000204E313720E7E0E1EBEEEAE8F0EEE2E0D1
:10361000ED00000020C1CFD1204E313820E7E0E19D
:10362000EBEEEAE8F0EEE2E0ED00000020C1CFD1E1
:10363000204E313920E7E0E1EBEEEAE8F0EEE2E09F
:10364000ED00000084E3072020C1CFD1204E3230AE
:1036500020E7E0E1EBEEEAE8F0EEE2E0ED0000006A
:103660003400001000020010E097010004F01D81FA
:103670002C2904F02482592904F0FA836E2904F0DD
:10368000218404F068BCD549C978884603292ED026
:10369000D249D34B91F82C7001F5E6714978C91ED7
:1036A00049B20091B3F900100191B3F95660803B23
:1036B000CA49B3F94230002F9E4691F806C04B79B3
:1036C000C97E7ED0012F7DD0DFF810C3022F7AD0C3
:1036D000B8F1020F00F08487C2A70297002E00F015
:1036E000BC87012B00F09487C4A700F0B5BFC9A028
:1036F0000290CEA00390D3A00490D8A002AD0346C0
:10370000059007CDFDF731F9DFF8D482B44D08F10B
:103710008008B5F96A10D8F84400884203DA00221C
:103720002121D4A019E0B5F96C201144814203DDB8
:1037300000222121D0A010E0B5F96E201144814271
:1037400003DD00222121CDA007E0B5F9702011444E
:10375000814204DD00222121C9A0FDF736F905F1DF
:103760007205002268882B2180B2FCF7E0FF2888D0
:103770000022402180B2FCF7DAFFBBF95A000A268A
:1037800090FBF6F05F4680B200222321FCF7CFFFCA
:10379000B7F95800002290FBF6F080B22421FCF724
:1037A000C6FFA8880022401C5E2180B2FCF7BFFF44
:1037B000D8F84400454690FBF6F13C2091FBF0F22E
:1037C00002E011E0DBE2FDE300FB121080B2002218
:1037D0007321FCF7ACFF686C4FF4167190FBF1F0AD
:1037E000002280B25421EEE3B8F1010F09D0A5A167
:1037F0000291002E46D0012B28D0002B42D1A7A148
:103800003FE0ACA70297002E3CD0B9F1000F05D0E5
:10381000BCF1010F06D0BCF1030F03D0012B07D080
:10382000E3B12FE0890701D5A8A12AE0A1A128E0F2
:1038300041B1012908D0022908D0032908D0042960
:1038400008D014E0A7A11CE0ACA11AE0B1A118E0D7
:10385000B6A116E0BBA114E08AA112E051B1012982
:103860000AD00229CBD0032908D0042908D0052981
:10387000F2D007E0B9A104E0BEA102E0C3A100E0DC
:10388000C8A1029169A10391CCA1544E0491B8F151
:10389000010F06D1CFA10491BEF1000F01D0D3A139
:1038A000049168A10591D7A10691DCA10791E1A13E
:1038B0000891E6A10991EBA10A91F0A10B91484969
:1038C000CC31032A01DD009801E0A84200DA08713A
:1038D0000198434D0F2806DDEEA3F4A2F9A1FFA045
:1038E000FDF743F81AE0F079052808D291F90400B1
:1038F00004EB8001091D54F820000EC909E091F97C
:1039000004100AEB800004EB8101091D50F8140C2F
:103910000EC9FDF72AF80020FCF7C3FFB5F85600E2
:1039200010B1B5F8580020B900225E21F1A0FDF7D2
:103930004CF8B5F94C004FF47A78404503DA01228F
:103940002B2180B205E00A2190FBF1F080B2002229
:103950002B21FCF7ECFEBBF95A005F46404503DA29
:103960000122232180B205E00A2190FBF1F080B210
:1039700000222321FCF7DBFEB7F958004746B84286
:1039800003DA0122242180B205E00A2190FBF1F044
:1039900080B200222421FCF7CAFEB5F91A00B84211
:1039A00009DA01227B2180B2FCF7C1FE688B01227B
:1039B000402180B20EE00A2790FBF7F080B200228F
:1039C0007B21FCF7B4FEB5F91A00002290FBF7F05A
:1039D00080B24021FCF7ABFEF0788DE1340000109E
:1039E0003401001020C8F1F2EEF7EDE8EA20EDE036
:1039F000EFF02E205E2020200000000020C8F1F211
:103A0000EEF7EDE8EA20EDE0EFF02E205E3C3C3CE6
:103A100000000000202020C8D1CFDBD2C0CDC8C517
:103A200020D4C0C7C0202120000000002049F3207E
:103A30002020202BC020556D61782020202040427E
:103A4000000000002049202020202023C0205520F5
:103A500020202020202024420000000020D6E8EA78
:103A6000EB204E2020205E20202030543A3073205E
:103A70000000000041000000420000004300000080
:103A80004400000020C8F1F2EEF7EDE8EA20F2EE83
:103A9000EAE020205E2020200000000020C8F1F293
:103AA000EEF7EDE8EA20F2EEEAE020205E3C3C3C56
:103AB0000000000020C8F1F2EEF7EDE8EA20F2EE97
:103AC000EAE02020202020200000000020C8F1F2A1
:103AD000EEF7EDE8EA20F2EEEAE020205E203C3E40
:103AE0000000000020C8F1F2EEF7EDE8EA20F2EE67
:103AF000EAE020205E3E20200000000020C8F1F215
:103B0000EEF7EDE8EA20F2EEEAE020205E3E3E200D
:103B10000000000020C8F1F2EEF7EDE8EA20F2EE36
:103B2000EAE020205E3E3E3E0000000020C8F1F2A8
:103B3000EEF7EDE8EA20F2EEEAE020205E203E3EDD
:103B40000000000020C8F1F2EEF7EDE8EA20F2EE06
:103B5000EAE020205E20203E0000000020C8F1F2B4
:103B6000EEF7EDE8EA20F2EEEAE020205E20203CCD
:103B70000000000020C8F1F2EEF7EDE8EA20F2EED6
:103B8000EAE020205E203C3C0000000020C8F1F26A
:103B9000EEF7EDE8EA20F2EEEAE020205E3C3C2081
:103BA0000000000020C8F1F2EEF7EDE8EA20F2EEA6
:103BB000EAE020205E3C20200000000020C4EBE86A
:103BC000F22DF1F2FC2E202030743A30543A30734A
:103BD0000000000020202020202030743A30543A89
:103BE0003073202020202020000000002030743A74
:103BF00030543A307320202020202071C02AF72032
:103C0000000000002055EC61782EE8F1F22EF2EE73
:103C1000EAE0202020207BC20000000020C0E2E07B
:103C2000F0E8E82020202020202020202020202034
:103C30000000000020C2FBF5EEE420202020202020
:103C400020202020202020200000000020D3F1F29E
:103C5000E0EDEEE2EAE820202020202020202020B5
:103C60000000000020C2FBEFF0FFECE8F2E5EBE81B
:103C700020202020202020200000000020C2E5F08D
:103C8000F1E8FF20CFCE202020202020202020205F
:103C90000000000020E8EBE820EDE5F1EAEEEBFCA7
:103CA000EAEE20F4E0E72E20000000002020CEF213
:103CB000F1F3F2F1F2E2F3E5F220EEE4EDE02020A0
:103CC00000000000202020202020F1E5F2E8212142
:103CD0002121202020202020000000002020C0E200
:103CE000E0F0E8FF20EFE8F2E0FEF9E5E92020202F
:103CF0000000000020000000012803D0E88B00280D
:103D000070D1FDE3B5F92200B5F91E10F9E3FD4DC0
:103D10003C270022E86B90FBF7F107FB110080B213
:103D20007321FCF704FDE86B002290FBF7F090FB99
:103D3000F7F107FB110080B25421FCF7F8FCE96BA6
:103D40004CE1F04D3C270022286C90FBF7F107FB7B
:103D5000110080B27321FCF7EAFC286C002290FB72
:103D6000F7F090FBF7F107FB110080B25421FCF74C
:103D7000DEFC296C32E100BFFCF727FE51E1B8F10F
:103D8000020F0BD0AFF2A4310291002E48D0012BCC
:103D900029D0002B44D1AFF29C3140E0DAA7029742
:103DA000AEB3B9F1000F05D0BCF1010F06D0BCF1E4
:103DB000030F03D0012B07D0F3B131E0890701D500
:103DC000D7A12CE0D0A12AE041B1012908D00229D5
:103DD00009D0032909D0042909D016E0D6A11EE094
:103DE000DBA11CE08CE1E0A119E0E5A117E0EAA16C
:103DF00015E0AFF2104112E051B101290AD00229B9
:103E0000C9D0032908D0042908D00529F1D007E03A
:103E1000E7A104E0ECA102E0F1A100E0F6A102912B
:103E2000FBA10391AFF26C21FF4E0491B8F1020F98
:103E300008D1AFF260210491BEF1000F02D0AFF2C1
:103E400054210491F9A10591FEA10691AFF234210C
:103E50000791AFF220210891AFF210210991AFF242
:103E6000FC110A91AFF2EC110B91A6494C31032AD7
:103E700001DD009801E0A84200DA0871A14D019827
:103E8000803D0F280ADDAFF2F413AFF2E012AFF27B
:103E9000CC11AFF2B810FCF768FD1AE0F0790528F4
:103EA00008D291F9047004EB8700001D0EC854F885
:103EB000270009E091F904100AEB800004EB81016E
:103EC000091D50F8140C0EC9FCF74FFD0020FCF73B
:103ED000E8FCB5F8560010B1B5F8580028B9002232
:103EE0005E21AFF2F010FCF770FDB5F94E004FF413
:103EF0007A78404503DA0122252180B205E00A21C3
:103F000090FBF1F080B200222521FCF710FCBBF9F8
:103F100058005F46404503DA0122262180B205E0C1
:103F20000A2190FBF1F080B200222621FCF7FFFB72
:103F3000B7F95A004746B84203DA0122232180B27A
:103F400005E00A2190FBF1F080B200222321FCF76A
:103F5000EEFBB5F91C00B84209DA01227D2180B2DE
:103F6000FCF7E5FBA88B01227D2180B20EE00A2739
:103F700090FBF7F080B200227D21FCF7D8FBB5F969
:103F80001C00002290FBF7F080B27D21FCF7CFFBF4
:103F9000F078022838D1B5F92200B5F9201008438D
:103FA0007FF4B5AE574F3C250022386C90FBF5F1FD
:103FB00005FB110080B27321FCF7B9FB386C90FB54
:103FC000F5F001E047E031E090FBF5F105FB110071
:103FD00080B200225421FCF7AAFB396C4FF46160D7
:103FE00091FBF0F080B200227421FCF7A0FBB07DC1
:103FF000B8B100223A21AFF20430FCF7E6FC00220F
:104000003A21AFF21030B7E6288C002878D1CCE204
:104010004FF4616091FBF0F080B200227421FCF754
:1040200086FB384801227121806C80B2FCF77FFB4F
:104030007D48C078012807D0324A0021803A022802
:10404000A2F8501003F087872E4800218038A0F88E
:10405000521003F080BFB8F1010F08D0AFF2DC5767
:1040600002979EB3012B1AD0AFF2D0573AE0AFF2CD
:10407000BC57029756B3012B01D0E3B133E041B1F5
:10408000012909D002290AD003290BD004290CD018
:104090001AE0AFF2B05725E0AFF2A05722E0AFF23E
:1040A0008C571FE0AFF27C571CE0AFF2685719E065
:1040B000AFF2306716E051B101290BD00229D3D0FD
:1040C00003290AD004290BD00529F1D00BE0AFF267
:1040D000745707E0AFF2645704E0AFF2505701E0C5
:1040E000AFF240570297AFF2BC670397AFF2345775
:1040F0000497B8F1010F04D1AFF228570497ADE04F
:1041000028E2B1E0B401001020C8F1F2EEF7EDE8CA
:10411000EA20EDE0EFF02E2020202020000000001B
:1041200020C8F1F2EEF7EDE8EA20EDE0EFF02E2006
:104130005E203C3E0000000020C8F1F2EEF7EDE802
:10414000EA20EDE0EFF02E205E3E2020000000008F
:1041500020C8F1F2EEF7EDE8EA20EDE0EFF02E20D6
:104160005E3E3E200000000020C8F1F2EEF7EDE8D0
:10417000EA20EDE0EFF02E205E3E3E3E0000000023
:1041800020C8F1F2EEF7EDE8EA20EDE0EFF02E20A6
:104190005E203E3E0000000020C8F1F2EEF7EDE8A0
:1041A000EA20EDE0EFF02E205E20203E000000002F
:1041B00020C8F1F2EEF7EDE8EA20EDE0EFF02E2076
:1041C0005E20203C0000000020C8F1F2EEF7EDE890
:1041D000EA20EDE0EFF02E205E203C3C00000000E5
:1041E00020C8F1F2EEF7EDE8EA20EDE0EFF02E2046
:1041F0005E3C3C200000000020C8F1F2EEF7EDE844
:10420000EA20EDE0EFF02E205E3C202000000000D0
:104210002055F320202020254220496D6178202060
:1042200020207D4100000000340000102055202097
:104230002020202642204920202020202020234109
:10424000000000002049EC61782EE8F1F22EEDE04C
:10425000EFF02E2020207D4100000000BEF1000F75
:1042600002D0AFF278670497AFF628070597B8F148
:10427000020F0CD0AFF6940106917EB3012B03D050
:10428000AFF68801069129E0AFF22411FAE7AFF208
:1042900088170697FEB1012B01D053B31BE041B143
:1042A000012909D002290BD003290CD004290DD0F3
:1042B0000FE0AFF27C1101E0AFF26C1106910AE061
:1042C000AFF25C11FAE7AFF24811F7E7AFF238113D
:1042D000F4E7052925D09CF8141029B3AFF2D001DA
:1042E0000791AFF22871E1460891B8F1020F1DD095
:1042F00025E051B101290BD002290CD003290DD0A2
:104300000429E6D1AFF21011D8E7AFF25C11D5E77E
:10431000AFF24C11D2E7AFF61C11CFE7AFF240116C
:10432000CCE7AFF64011C9E7F8A1ABE7AFF25C719B
:104330000891BEF1000F02D0AFF250710891AFF2B8
:1043400014110991AFF244710A91AFF208110B9167
:10435000AFF238710C91AFF224710D91AFF214717C
:104360000E91AFF200710F91AFF2F061DFF8B483FC
:104370001091032A03DD009988F8041003E0A84295
:1043800001DA88F80400E74D0198CC3D0F280ADDDA
:10439000AFF20073AFF2EC62AFF2D861AFF2C4607B
:1043A000FCF7E3FA1BE09CF80760052E08D298F9A9
:1043B000046004EB8600001D0EC854F8260009E0D6
:1043C00098F9040004EB8000001D0EC80AEB86007B
:1043D00050F8140CFCF7C9FA0020FCF762FAB5F8A3
:1043E000560010B1B5F8580028B900225E21AFF28E
:1043F000FC60FCF7EAFAB5F94C004FF47A77B84262
:1044000003DA01222B2180B205E00A2190FBF1F0B2
:1044100080B200222B21FCF78AF9BBF95A00BA4678
:104420005E4650450ADA0122232180B2FCF77FF96B
:10443000B6F85A000122232180B20EE00A2790FB31
:10444000F7F080B200222321FCF771F9B6F95A0087
:10445000002290FBF7F080B22321FCF768F9B5F950
:104460004E005746B84203DA0122252180B205E00A
:104470000A2190FBF1F080B200222521FCF757F9C8
:10448000B6F95800BA4650450ADA0122262180B210
:10449000FCF74DF9B6F858000122242180B20EE055
:1044A0000A2790FBF7F080B200222621FCF73FF9A3
:1044B000B6F95800002290FBF7F080B22421FCF7F7
:1044C00036F9B5F91C005646B04209DA01227D21C1
:1044D00080B2FCF72CF9A88B01227D2180B20EE07E
:1044E0000A2790FBF7F080B200227D21FCF71FF92C
:1044F000B5F91C00002290FBF7F080B27D2101E0AD
:104500002DE04DE0FCF713F9B5F91A00B04209DAD5
:1045100001227B2180B2FCF70AF9688B012240213D
:1045200080B20EE00A2690FBF6F080B200227B21DA
:10453000FCF7FDF8B5F91A00002290FBF6F080B206
:104540004021FCF7F4F898F90400022822DC4E46DA
:10455000FFF742BA6FF00202742173A00CE4714DB0
:104560003C264C3D0022286B90FBF6F106FB110027
:1045700080B27321FCF7DBF8286B002290FBF6F089
:1045800090FBF6F106FB110080B25421FCF7CFF846
:10459000296B3DE599F803004E4602287CD033E5AF
:1045A00008433FF4CEABFFF7B2BB5E4D3C264C3D1B
:1045B0000022686B90FBF6F106FB110080B27321BC
:1045C000FCF7B5F8686B002290FBF6F090FBF6F173
:1045D00006FB110080B25421FCF7A9F8696B17E5BE
:1045E000AFF2DC4702975EB3012B01D0E3B134E0B8
:1045F00041B1012909D002290AD003290BD004298D
:104600000CD01BE0AFF2D04726E0AFF2BC4723E06E
:10461000AFF2AC4720E0AFF298471DE0AFF2884719
:104620001AE0AFF6404717E059B101290CD0022932
:104630003FF45AA803290AD004290BD00529F0D049
:104640000BE0AFF2944707E0AFF2844704E0AFF22B
:10465000704701E0AFF260470297AFF24C47039713
:10466000AFF6A8270497B8F1020F08D1AFF69C2740
:104670000497BEF1000F02D0AFF690270497AFF277
:1046800054470597B8F1010F0AD0AFF608410691DB
:10469000AEB3012B1CD000E0AFE1AFF600414EE01D
:1046A000AFF6F037069756B3012B01D0E3B147E0E0
:1046B00041B1012909D002290AD003290BD00429CC
:1046C0000CD01AE0AFF6E43139E0AFF6D03136E085
:1046D000AFF6C03133E0AFF6AC3130E0AFF69C312D
:1046E0002DE0AFF660412AE051B101290BD002293B
:1046F000D1D003291ED004291FD00529F1D01FE0F5
:10470000AFF6A8311BE0AFF6943118E0202020204E
:104710002020202020202020202020202020202099
:104720000000000000020010EDE5EFF0E5F0FBE214
:10473000EDEE0000AFF6AC3101E0AFF69831069136
:10474000AFF618510791AFF68C31E1460891B8F1F8
:10475000010F08D1AFF684310891BEF1000F02D0ED
:10476000AFF678310891AFF624510991AFF66C316C
:104770000A91AFF230510B91AFF660310C91AFF668
:104780004C310D91AFF63C310E91AFF628310F91BF
:10479000AFF61831DFF814841091032A03DD009975
:1047A00088F8041003E0A84201DA88F80400FF4DFD
:1047B0000198CC3D0F280ADDAFF62833AFF614324E
:1047C000AFF60031AFF6EC20FCF7CFF81BE09CF819
:1047D0000760052E08D298F9046004EB8600001DDE
:1047E0000EC854F8260009E098F9040004EB800094
:1047F000001D0EC80AEB860050F8140CFCF7B5F843
:104800000020FCF74EF8B5F8560010B1B5F8580086
:1048100028B900225E21AFF62430FCF7D6F8B5F9AE
:104820004C004FF47A77B84203DA01222B2180B290
:1048300005E00A2190FBF1F080B200222B21FBF76A
:1048400076FFBBF95A00BA465E4650450ADA0122A5
:10485000232180B2FBF76BFFB6F85A000122232117
:1048600080B20EE00A2790FBF7F080B200222321ED
:10487000FBF75DFFB6F95A00002290FBF7F080B21B
:104880002321FBF754FFB5F94E005746B84203DA2F
:104890000122252180B205E00A2190FBF1F080B2CF
:1048A00000222521FBF743FFB6F95A00BA465045CE
:1048B0000ADA0122232180B2FBF739FFB6F85A0049
:1048C0000122232180B20EE00A2790FBF7F080B28C
:1048D00000222321FBF72BFFB6F95A00002290FBA0
:1048E000F7F080B22321FBF722FFB6F958005045BC
:1048F0000ADA0122262180B2FBF719FFB6F8580028
:104900000122242180B20EE00A2790FBF7F080B24A
:1049100000222621FBF70BFFB6F95800002290FB7E
:10492000F7F080B22421FBF702FFB5F91A005646D2
:10493000B04209DA01227B2180B2FBF7F8FE688BD6
:104940000122402180B20EE00A2790FBF7F080B2EE
:1049500000227B21FBF7EBFEB5F91A00002290FB49
:10496000F7F080B24021FBF7E2FEB5F91C00B0423F
:1049700009DA01227D2180B2FBF7D9FEA88B012242
:104980007D2180B20EE00A2690FBF6F080B2002274
:104990007D21FBF7CCFEB5F91C00002290FBF6F060
:1049A00080B27D21FBF7C3FE98F9040002283FF78F
:1049B000CEAD99F803004E4602281ED0288C002860
:1049C0007FF4C8AD794E3C254C3E0022706B90FBC5
:1049D000F5F105FB110080B27321FBF7A8FE706BA7
:1049E000002290FBF5F090FBF5F105FB110080B281
:1049F0005421FBF79CFE716BCBE5B5F92200B5F9AC
:104A00002010CDE56A4942F21076B8F1010F07D0C7
:104A1000A8F102080F4640453BDBAFF6E85339E00A
:104A2000AFF21833AFF6F45262A168A0FBF79DFF16
:104A3000002301211A460846FBF794FD694DA86939
:104A4000B04202DA80B2012304E00A2190FBF1F0C7
:104A500080B2002306220121FBF784FD286A01238E
:104A600080B20B221946FBF77DFD686A002380B2F5
:104A70000F220121FBF776FD95F83E00132201215C
:104A8000FBF7C0FE49490120423181F8280003F0BC
:104A900062BA48A347A247A14CA0FBF766FF9AF968
:104AA00001004FF00003062800F1010080B20ADB8C
:104AB00001221146FBF756FD9AF901000023801CE4
:104AC00080B2012209E000220121FBF74BFD9AF997
:104AD0000100801C002380B21A460221FBF742FD30
:104AE0009AF901003F4DC0EBC00000EB400005EB20
:104AF00080008069B04202DA80B2012304E00A211A
:104B000090FBF1F080B2002306220121FBF72AFD81
:104B10009AF90100C0EBC00000EB400005EB8000FB
:104B2000C06EB04202DA80B2012304E00A2190FB99
:104B3000F1F080B2002306220221FBF713FD9AF95F
:104B400001000123C0EBC00000EB400005EB80003A
:104B50000B22006A194680B2FBF704FD9AF90100A6
:104B60000123C0EBC00000EB400005EB80000B22EE
:104B7000406F022180B2FBF7F5FC9AF90100002397
:104B8000C0EBC00000EB400005EB80000F22406A44
:104B9000012180B2FBF7E6FC9AF90100C0EBC000EE
:104BA00000EB400005EB8000806F1DE0000200106C
:104BB0003400001020202020202E202020202E2015
:104BC0002020202020202020000000004E20202037
:104BD000552CC22020492C41202074B04320202095
:104BE0000000000084E3072080B200230F2202218E
:104BF000FBF7B8FC9AF902001322C0EBC00000EBEF
:104C0000400005EB8000012190F83E00FBF7FAFD23
:104C10009AF902001322C0EBC00000EB400005EB44
:104C20008000022190F89200FBF7ECFDB7F95610D6
:104C30009AF90100891E884253DA062800F1030020
:104C400080B24FF0000301DB012200E000220321CB
:104C5000FBF788FC9AF90100C0EBC00000EB4000B4
:104C600005EB8000D0F8C000B04202DA80B2012328
:104C700004E00A2190FBF1F080B200230622032118
:104C8000FBF770FC9AF901000123C0EBC00000EBB8
:104C9000400005EB80000B22D0F8C800032180B251
:104CA000FBF760FC9AF901000023C0EBC00000EBA9
:104CB000400005EB80000F22D0F8CC00032180B229
:104CC000FBF750FC9AF902001322C0EBC00000EB86
:104CD000400005EB8000032190F8E600FBF792FD11
:104CE000D5E6CE48012180F83C10D0E6CC4BCDA2D1
:104CF000D2A1D8A0FBF739FEC84901200BF1580515
:104D000081F83C00024628885B2180B2FBF70FFD4A
:104D100001225D2102F016BBD4A00290D9A003901D
:104D2000DE480490D6E9012354F82510DCA0FBF7F7
:104D30001CFE0120FBF7B5FD0BF17A054FF00002D8
:104D4000A8884FF0210100EB800080B2FBF7EFFC58
:104D500028880022232180B2FBF7E9FC2888002262
:104D600000EB80002D3080B2402103F0F2B8D24E2B
:104D7000B9F1000F01D0D1A100E0D6A10291DBA1D1
:104D80000391E0A10491E5A10591EAA10691EFA1AB
:104D90000791F4A10891F9A10991C0490A91022A49
:104DA00002DD8AF8043003E0A84201DA8AF8040040
:104DB0009AF9040004EB8001D1E9012354F8201092
:104DC000F4A0FBF7D2FD0120FBF76BFD36F95A0F7B
:104DD0003C2590FBF5F105FB110080B200225B2120
:104DE000FBF7A5FCB6F90000002290FBF5F090FB64
:104DF000F5F105FB110080B27D21FBF798FCB6F9B7
:104E000000004FF4616790FBF7F080B200227B2135
:104E1000FBF78DFCB6F90200002290FBF5F105FBD3
:104E2000110080B25D21FBF782FCB6F9020000227E
:104E300090FBF5F090FBF5F105FB110080B2292104
:104E4000FBF775FCB6F90200002290FBF7F080B288
:104E50002821FBF76CFCB6F90400002290FBF5F169
:104E600005FB110080B23E21FBF761FCB6F904009E
:104E7000002290FBF5F090FBF5F105FB110080B2EC
:104E80003C21FBF754FCF0880122212180B2FBF782
:104E90004EFC30890122402180B2FBF748FC70892A
:104EA0000122232180B2FBF742FC0122B089242198
:104EB00080B25AE7BDA00290C2A00390C7A00490A0
:104EC000CCA00590D1A00690D6A00790DBA00890BA
:104ED000E0A00990E5A00A90EAA00B90EFA00C904A
:104EE000F4A00D90F9A00E90FE486C49B0F95C005A
:104EF00004EB80004160AFF2EC718160AFF2F471BD
:104F0000361DC1600ECE0298FBF72FFD9AF9010005
:104F10009AF90410421A022A01DD801E01E088423B
:104F200001DA8AF804000120FBF7BBFCEE4D28787B
:104F3000012867D06FF003022121ECA0FBF745FDAB
:104F4000687801285FD06FF003024021E7A000BF1E
:104F5000FBF73BFDA878012856D06FF00302232110
:104F6000E2A000BFFBF731FDE87801284DD06FF0DB
:104F700003022421DDA000BFFBF727FD28790128CB
:104F800044D06FF003022521D8A000BFFBF71DFD20
:104F9000687901283BD06FF003025E21D3A000BFE7
:104FA000FBF713FDA879012832D06FF00302262108
:104FB000CEA000BFFBF709FDE879012829D06FF0EA
:104FC00003022A21C9A000BFFBF7FFFC287A0128B1
:104FD00020D06FF003022821C4A000BFFBF7F5FC2E
:104FE000687A012817D06FF003022921BFA000BF03
:104FF000FBF7EBFCA87A01280ED06FF003022B21FF
:10500000BAA077E182E186E18AE18EE192E196E160
:105010009AE19EE1A2E1A6E1AAE1000042020010AD
:10502000F59701002049EDE0E3F0203D202020200D
:10503000205DC02020202020000000002055EDE051
:10504000E3F0203D20202020205BC22020202020D3
:1050500000000000202020202020CDC0C3D0D3C7D6
:10506000CAC0202020202020000000002046E2E5C9
:10507000EDF22EF2E5EAF3F92E2020202020212562
:10508000000000002046E2E5EDF22E6D61782E2052
:10509000282020402529202300000000343C000067
:1050A0002020202020C2C5CDD2C8CBDFD2CED02038
:1050B00020202020000000003401001020C2EAEB74
:1050C000FEF7E5ED20202020202020202020202099
:1050D0000000000020C2FBEAEBFEF7E5ED202020F7
:1050E0002020202020202020000000002054EFF06D
:1050F000FFEC2E2020202020307B3A307D3A305BA0
:105100000000000020D2EEE1F02E20202020202000
:1051100030283A30293A305D0000000020D2EFE517
:10512000F0E5EAEB2E202020202020303C3A303ED3
:10513000000000002049F1F22EEFF02E2020202068
:1051400020202020202021C0000000002049F1F272
:105150002EEEE1F02E20202020202020202040C014
:10516000000000002055F1F22EEFF02E202020202C
:105170002020202020202342000000002055F1F2B2
:105180002EEEE1F02E20202020202020202024427E
:10519000000000002020202020C0C2D2CED0C5C2F6
:1051A000C5D0D12020202020000000002020C0C237
:1051B000D2CECCC0D2DB20CDC0C3D0D3C7CECA2084
:1051C0000000000020C0E2F2EEECE0F220B9312055
:1051D00020202020202021200000000020C0E2F21A
:1051E000EEECE0F220B932202020202020204020C8
:1051F0000000000020C0E2F2EEECE0F220B9332023
:1052000020202020202023200000000020C0E2F2E7
:10521000EEECE0F220B934202020202020202420B1
:105220000000000020C0E2F2EEECE0F220B93520F0
:1052300020202020202025200000000020C0E2F2B5
:10524000EEECE0F220B936202020202020205E2045
:105250000000000020C0E2F2EEECE0F220B93720BE
:1052600020202020202026200000000020C0E2F284
:10527000EEECE0F220B938202020202020202A2047
:105280000000000020C0E2F2EEECE0F220B939208C
:1052900020202020202028200000000020C0E2F252
:1052A000EEECE0F220B9313020202020202029200F
:1052B0000000000020C0E2F2EEECE0F220B9313153
:1052C0002020202020202B200000000020C0E2F21F
:1052D000EEECE0F220B931322020202020203D20C9
:1052E000000000003400001022F20720C2DBCACB0D
:1052F0002E000000FBF769FBE87A01283DD06FF033
:1053000003023D21AFF21C0001F0F6BC6FF0020277
:105310002121C9A012E66FF002024021C6A017E6C3
:105320006FF002022321C4A01CE66FF002022421C8
:10533000C1A021E66FF002022521BFA026E66FF092
:1053400002025E21BCA02BE66FF002022621BAA069
:1053500030E66FF002022A21B7A035E66FF00202B4
:105360002821B5A03AE66FF002022921B2A03FE65B
:105370006FF002022B21B0A043E66FF002023D2144
:10538000ADA0C1E7AEA00290B3A00390B8A0049076
:10539000BDA00590C2A00690C7480790AFF6944004
:1053A0000890AFF69840361D09900ECE0298FBF794
:1053B000DCFA9AF901009AF90410421A022A01DD76
:1053C000801E01E0884201DA8AF804000120FBF720
:1053D00068FA0BF17805002223212888FBF7A7F94A
:1053E000B648002224214088FBF7A1F9B3480222E5
:1053F0005C382521C06AFBF714F800225E21A888DA
:1054000056E58FA00290AEA00390B3A00490B8A080
:105410000590BDA00690C2A00790C7A008909AA0D2
:1054200009909FA00A90A4480B90AFF620500C90D2
:10543000AFF62850361D0D900ECE0298FBF795FA68
:105440009AF901009AF90410421A022A01DD801E1D
:1054500001E0884201DA8AF804000120FBF721FA12
:10546000964D0022AD1D21212888FBF760F9688840
:1054700000224021FBF75BF9A88800222321FBF7DB
:1054800056F9AD1D002228882621FBF750F96888BF
:1054900000222921FBF74BF9A88800222821FBF7DD
:1054A00046F9A5F1680003222521C06AFAF7B9FF81
:1054B00000225E21BBF87C00FAE4A549C95D5529AC
:1054C00012D0A4A10291A9A10391AEA10491B3A10C
:1054D0000591B8A10691BDA10791C2490891012A81
:1054E00004DD8AF804C005E0BFA1EBE7A84201DAB9
:1054F0008AF804009AF9040004EB800154F8202093
:105500004B68BFA1C4A0FBF730FA0220FBF7C9F932
:105510009AF902000022401C80B25E21FBF707F9D5
:1055200066499AF902004C39002231F81000212115
:10553000FBF7FDF861499AF902004839002231F978
:105540001010A848493800EB81004021FBF73DFAD4
:105550005A499AF902004439002231F810002321F7
:10556000FBF7E5F855499AF902004039002231F875
:1055700010002421FBF7DBF850499AF902003C396E
:10558000002231F81000252193E4964BA8A0153B8A
:105590001A461146FBF7E9F9484D0023643D0822FD
:1055A00095F90000012180B2FAF7DCFF95F90100BE
:1055B000002380B209220121FAF7D4FF95F90200F5
:1055C000002380B20A220121FAF7CCFF96F90120CC
:1055D00005F1C600A421115402F0BDBC9AA10291AC
:1055E0009FA10391A4A10491A9A10591AEA1069147
:1055F000A7A10791B2A10891B7A10991BCA10A91F5
:10560000C1A10B91C6A10C91CBA10D91D0A10E917E
:10561000D5A10F91DAA11091DFA11191E4A112910E
:10562000E9A11391EEA11491F3A11591F8A116919E
:10563000FDA1179104E20000C2CACB2E00000000B9
:105640002020DDCBC5CAD2D0CED1CDC0C1C6C5CDFC
:10565000C8C520200000000020C2E2EEE420202087
:105660002020202023C22020202020200000000015
:1056700020CFDDD1202020202020202024C2202067
:1056800020202020000000002050F1F3ECEC2E2020
:1056900020202020202025EAC2F22AF70000000066
:1056A0002050F2E5EAF3F92E2020202020205EC2CF
:1056B000F220202000000000343C00001002001006
:1056C00020C2E2EEE420F42E412020202021C2203E
:1056D000202020200000000020C2E2EEE420F42E72
:1056E000422020202040C220202020200000000056
:1056F00020C2E2EEE420F42E432020202023C2200A
:10570000202020200000000020CFDDD12020F42E1A
:10571000412020202026C220202020200000000040
:1057200020CFDDD12020F42E422020202029C220AD
:10573000202020200000000020CFDDD12020F42EEA
:10574000432020202028C22020202020000000000C
:105750009200001020C2FBE2E5E4E5EDE0203021FC
:105760002F4020202F3023200000000020CDEEEC21
:10577000E8ED2EE5ECEA2E202020202024412AF717
:105780000000000020CDE0F0E0E1EEF2EAE02020B1
:105790002020202025F72E200000000020CAEEED5A
:1057A000F2F0EEEBFC20E5ECEAEEF1F2E82020204E
:1057B0000000000020C2FBF0E0E2EDE8E2E0FEF9CC
:1057C000E8E920E7E0F0FFE40000000020D0E0E797
:1057D000F0FFE4FB2020202020202020202020207B
:1057E00000000000F597010020C2E2E5E4E5EDE0ED
:1057F000202030212F4020202F30232000000000C7
:105800002020202020C1C0D2C0D0C5DF204E5E2085
:10581000202020200000000020C1C0D2C0D0C5C977
:10582000CDDBC920C6D3D0CDC0CB202000000000E6
:105830002020C2E2E5E4E8F2E52020EFE0F0EEEB24
:10584000FC2020200000000020C8F1F2EEF7EDE877
:10585000EAEEE2202020202020202021000000006D
:1058600020CCE0EAF1E8ECE0EBFCEDE0FF20E4EB3B
:10587000E8F22D200000000020F1F2FC20EFF0EE15
:10588000F6E5F1F1E02020305B3A305D00000000E9
:1058900020CEF2EEE1F0E0E6E5EDE8E520E2F0E52D
:1058A000ECE5EDE80000000020EFF0EEF6E5F1F1A8
:1058B000E020202020202020202020400000000088
:1058C00020EDE020EFF3EBFCF2E52020202020206B
:1058D000202020230000000020C8E7ECE5F0E5EDE3
:1058E000E8E520F2EEEAE020202020200000000081
:1058F00020EDE0E3F0F3E7EAE8202020202020205C
:10590000202020240000000020D0E5E6E8EC20E381
:10591000EBE0E2EDEEE3EE20ECE5EDFE0000000052
:105920002020202020202020202020202020202077
:10593000202020250000000020D4E8EAF1E8F0EE65
:10594000E2E0EDEDFBE5202020202020000000001B
:105950002020202020202020202020EDE0F1F2F047
:10596000EEE9EAE80000000020D0E5EBE520202089
:1059700020202020202020202020202000000000A7
:1059800020F2EEEAEEEEE3F0E0EDE8F7E5EDE8FF19
:10599000202020200000000020D0E5EBE520EAEEEA
:1059A000EDF2F0EEEBFF2020202020200000000090
:1059B00020EDE0EFF0FFE6E5EDE8FF2020202020DD
:1059C000202020200000000020D0E5F1F2E0F0F2DD
:1059D00020202020202020202020205E0000000009
:1059E0002045746865726E65742020202020202078
:1059F0002020202000000000204D4F44425553201D
:105A000041445245535320202020203C00000000F8
:105A1000204D4F4442555320424155445241544534
:105A200020202020000000002020202020202020F6
:105A3000202020202020202020203E3000000000B8
:105A4000BBA11891C0A11991C5A11A91CAA11B911E
:105A5000CFA11C91D4A11D91D9A11E91DEA11F91AE
:105A6000D7A12091E2A12191E7A12291D4A1239174
:105A7000EBA12491F0A12591F5492691F5A127915B
:105A8000FAA12891FF492991022A01DD337102E030
:105A9000A84200DA30719AF9041004EB8100D0E9D1
:105AA000012354F82110F8A0FAF75FFF0120FAF75C
:105AB000F8FEFB4D00222121B5F8560080B2FAF71E
:105AC00036FE05F5C0763C20B16B91FBF0F191FB01
:105AD000F0F200FB121080B200225D21FAF727FEDF
