:020000040000FA
:1000000020280820E1000000E5000000E7000000D3
:10001000E9000000EB000000ED000000000000001F
:10002000000000000000000000000000EF000000E1
:10003000F100000000000000F30000000BB600001B
:10004000F700000035D0000061D00000F70000008C
:10005000F700000067EE0000F7000000F700000066
:10006000F7000000F7000000F7000000F7000000B4
:10007000F7000000F7000000F7000000F7000000A4
:10008000F7000000F7000000F7000000F700000094
:10009000F7000000F700000035230000F700000023
:1000A000F70000003BEC0000F7000000F700000044
:1000B00081030100F7000000F7000000F7000000D6
:1000C000F7000000F7000000F7000000DFF80CD098
:1000D00010F01EFA0048004789B7000020280820C9
:1000E00005480047FEE7FEE7FEE7FEE7FEE7FEE71E
:1000F000FEE7FEE7FEE7FEE7CD000000FEE710B5F5
:1001000012F0B6F812F042F912F034F912F0C2F817
:10011000AFF30080BDE8104012F0FEB810B512F049
:100120000FFF13F051FC12F063FFBDE8104013F015
:10013000DBB812F023BE12F0EBBB09B10020704710
:1001400011F040B90020704770B5374A0020A2F185
:100150001401064601F10A030C5C54B11D5CAC426B
:1001600007D1145C2CB1641E14F0FF04145400D1A8
:100170000E540C5C1C54401CC0B20A28ECD370BD59
:1001800070B5294D0024143D641CE4B22E5D1EB1EF
:10019000864201D00A2CF7D3285523480C3040F86A
:1001A0002410283040F824203438035570BD1E4AEE
:1001B0000021143A491CC9B2535C834201D00A2978
:1001C000F8D3DBB2834210D117480C3050F82130FD
:1001D00016480360144B343353F821304360002039
:1001E0005054114A505401207047002070470E4A65
:1001F0000021143A491CC9B2535C834201D00A2938
:10020000F8D3DAB282420CD107480C3050F82120E2
:1002100006480260044A343252F82110416001203D
:100220007047002070470000DCE107204800001004
:100230000A4BDA6018705970704708490881704796
:100240000648B0F90810002907D0491E09B20181FB
:10025000002902D1084600F061BB704714C0072096
:1002600090F900308B4200DA027090F9003093422E
:1002700000DD0170704790F900308B4200DA0170A8
:1002800090F90010914200DD02707047B0F9003023
:100290008B4200DA0180B0F90010914200DD02804B
:1002A0007047B0F900308B4200DA0280B0F90030BC
:1002B000934200DD0180704703688B4201DB1946E1
:1002C00000E00160914200DD0260704701460020BD
:1002D00000E0401C0A5C002AFBD1704710B50022E8
:1002E00000E0521C835C8C5CA34201D1002BF8D14E
:1002F000D8B2E1B2401A10BD70477047FFFFFFFF50
:100300000020FB4A20211154401CC0B2C828FAD357
:1003100070470146F64A0020401CC0B2135C8B4275
:1003200001D0C828F8D3704710B50021F14C0A223B
:10033000B0FBF2F302FB13006054491CC9B218462B
:100340000529F5D310BDF0B5EB4B0121202719701D
:100350000521E84A002601E01C7844B1541814F83D
:10036000015C25B9814202D904F8017C05E05418EA
:1003700014F8015D303525701E70491E11F0FF0123
:10038000EAD1F0BDFEB52B23002802DA404200B2CC
:100390002D2300250A266C4690FBF6F706FB170076
:1003A00060556D1C6DB238B20A2DF5DB01260025B3
:1003B0000920202700E046B114F800C0BCF1000F6E
:1003C00003D1904201DD275405E0265C30362654E7
:1003D00000266D1CEDB2401E40B20028EBDA2D2B3A
:1003E00002D163556D1CEDB26AB168B205E0231805
:1003F00013F8013C2354401E40B29042F7DC2E20FB
:100400006D1CA054EDB20846FFF783FF0021B84AE7
:1004100004E0635C461A491C935549B2A942F8DBD3
:10042000FEBDFEB52B23002801DA40422D23002516
:100430000A266C46074690FBF6F006FB10776755D8
:100440006D1C6DB20A2DF5DB012600250920202741
:1004500000E046B114F800C0BCF1000F03D1904297
:1004600001DD275405E0265C3036265400266D1C3D
:10047000EDB2401E40B20028EBDA2D2B02D16355BD
:100480006D1CEDB26AB168B205E0231813F8013CA7
:100490002354401E40B29042F7DC2E206D1CA05425
:1004A000EDB20846FFF735FF0021914A04E0635C96
:1004B000461A491C935549B2A942F8DBFEBDFEB568
:1004C0002B26002801DA40422D2600240A276D46FB
:1004D000844690FBF7F007FB10CC05F804C0641CC1
:1004E00064B20A2CF4DB0127002009244FF0200C11
:1004F00000E04FB115F804E0BEF1000F04D19C42BA
:1005000002DD05F804C005E02F5D30372F550027C8
:10051000401CC0B2641E64B2002CEADA2D2E02D157
:100520002E54401CC0B26BB144B205E02E1916F82F
:10053000016C2E55641E64B29C42F7DC2E24401CD4
:10054000EC54C0B201EB810102EB8101CAB200217F
:10055000674B04E06C5C561A491C9C5549B28142B9
:10056000F8DBFEBD70B50D4616461C46FFF7DCFEF7
:10057000601CC0B2FFF7E7FE05EB850006EB8000CC
:10058000C1B25C4A5A4B0020A04201D2155C5D54B6
:1005900006D3155C202D03D04CB15E1806F8015C23
:1005A000491E401CC0B2C9B20528EDD370BD5D54D0
:1005B000F6E770B50446084615461E46FFF7A9FE45
:1005C0004B4B0146FF2804D106E01A54641C401C22
:1005D000C0B22278002AF8D148480078002804D018
:1005E000002E02D029445F20585470BD2DE9FF4FE2
:1005F0008146DDE90D048A469346FFF78AFE2022F4
:10060000DFF8F8803A490A234FF0640C012C09D135
:1006100098F8005035B10D18A5F10E05AA706A7052
:100620002A7020E099FBF3F603FB16970D1830377C
:10063000A5F10E05022CAF7096FBF3F703FB1766CE
:1006400006F130066E7099FBFCF606F1300605F8EF
:100650000E6B08D198F800602EB1A5F10A05AA70BA
:100660006A702A7021E09AFBF3F603FB16A70D18B7
:100670003037A5F10A05032CAF7096FBF3F703FBA7
:10068000176606F130066E709AFBFCF606F130062E
:10069000674605F80A6B08D198F800602EB1A5F1FD
:1006A0000605AA706A702A702AE09BFBF3F603FB2A
:1006B00016B70D183037A5F10605042CAF7096FB60
:1006C000F3F703FB176606F130066E709BFBFCF632
:1006D00006F13006674605F8066B11D198F8004020
:1006E00074B1A5F102050A546A702A70BDE8FF8F43
:1006F0004C020010C8030010CD030010820000104F
:10070000039C94FBF3F203FB124430340C5492FB31
:10071000F3F403FB14220844A0F1020030324270CB
:10072000039991FBF7F101F130010170DEE770B53B
:100730000D461446FFF7F8FD601CC0B2FFF703FE3C
:100740002846FFF7E6FDB44BB44A002124B95D5CAE
:10075000202D01D015540FE0A14201D25D5CF9E7D4
:1007600004D14FF02E0515545D5C02E05D5C202D38
:1007700002D0161806F8015C401E491CC9B2C0B26E
:100780000529E3D370BD17B501EB810002EB8000B2
:10079000C2B29DF80030A24803F00F0100EB131322
:1007A000445C9E498C54521ED2B21B788B549DF8E7
:1007B0000130521E03F00F04D2B2045D8C54521E5D
:1007C00000EB1313D2B21B788B549DF80230521EEB
:1007D00003F00F04D2B2045D8C54521E00EB1313CD
:1007E000D2B21B788B549DF80330521E03F00F04D5
:1007F000D2B2045D8C54521E00EB1310D2B20078BA
:1008000088541EBD01EB810102EB8101844A10B5C1
:1008100000F00F03C9B2D45C804B02EB10105C54A3
:10082000491EC9B20078585410BD01EB810102EB9A
:100830008101CBB27A4910B500F001028C5C774A95
:10084000D45444085B1E04F00100DBB2085CD054B1
:100850005B1ED8B2630803F001045B080C5D1454FE
:10086000401E03F00104C0B20C5D14545B08401E2E
:1008700003F00104C0B20C5D14545B08401E03F089
:100880000104C0B20C5D14545B08401E03F0010467
:10089000C0B20C5D1454401EC4B25808085C105518
:1008A00010BD30B55F4901235C4D91F9012091F9EC
:1008B000041000EB80048A4202D105F8243030BDD8
:1008C000564D4C1C00EB800005EB8000A24201D18C
:1008D000037530BD8C1CA24202D180F8283030BD97
:1008E000CC1CA24202D180F83C3030BD0C1DA2428B
:1008F00002D180F8503030BD4C1DA24202D180F8A8
:10090000643030BD8C1DA24202D180F8783030BDF9
:10091000C91D8A42FBD180F88C3030BD424B1A8809
:10092000521E104400B21880404A00EB800002447E
:100930003C48136803601279027142781144417097
:100940007047F0B5384D394FB5F9004004EB8406D7
:10095000641C2C80334C3E44256835602579357104
:10096000207061702271A370F0BDF0B505460E468F
:100970001746FFF7C5FC294C5FF00000401C15F836
:10098000011BC0B204F8011B1428F7D35FF000006C
:10099000401C16F8011BC0B204F8011B1428F7D341
:1009A0005FF00000401C17F8011BC0B204F8011BE7
:1009B0001428F7D35FF00000401C13F8011BC0B2ED
:1009C00004F8011B1428F7D3F0BD30B504460846DF
:1009D0001546FFF79EFCFF2809D0104A2178002910
:1009E00005D04319641C401CD154C0B2F6E730BD99
:1009F00010B5029CFFF7B9FF0A48C37882784178A6
:100A00006420FFF79EFF642094FBF0F0BDE81040E7
:100A1000C0B2FFF712BC0000C80300104C02001067
:100A20002A49010004020010A2000010AAEB0720CE
:100A300010B5FF4C082200212088401C2080204651
:100A4000FFF72FFCFB48B4F9001000EB410142888E
:100A50000A84B0F84E00A1F86C0010BDF64A30B41C
:100A6000F649B2F90A4040F6AC53B1F900009C4295
:100A700003DCB2F914209A4203DD142804DA401C86
:100A800001E008B1401E0880142230BC0021EB4870
:100A9000FFF7FCBBF0B5E848E9494FF42F72B0F915
:100AA0000000B1F90010E74B484390FBF2F01880CA
:100AB000E14842F210732030B0F90000484390FB47
:100AC000F2F0E149E44A0880E149E048B1F9004028
:100AD000E0490088B1F90010001B484390FBF3F097
:100AE0001080001B484390FBF3F0DC49DE4C08808B
:100AF000DB480188DB48B0F9003071B900210846B5
:100B000008E000BF00EB800504EB0515401C2D6AD2
:100B1000C0B229449842F5DB1180B2F900000021EF
:100B2000002800DA1180002202EB820004EB0010A2
:100B3000C578192D1BD28579C67905EB0626066284
:100B4000067A477A06EB0726C661867AC77A06EBED
:100B500007268661067B466280F84E50857B80F8CA
:100B60003E50057C467C05EB0625856406E08161E8
:100B70000162C161416280F83E108164521CD2B2B0
:100B80000C2AD1D3B948BA49008858430880B948DB
:100B9000B949008858430880F0BDB848416821F43D
:100BA000402141F480214160416821F4403141F409
:100BB00080314160416821F4404141F4804141600D
:100BC000416C21F4402141F400214164416C21F445
:100BD000403141F400314164416C21F4404141F421
:100BE00000414164A648016821F0E06101600168AC
:100BF00041F400110160016821F480310160016855
:100C000021F47F4141F4807101608115C1609D48EC
:100C10008903016070472DE9F0419B4C6088218871
:100C2000401A00B201F042FBA51D2880A08861880F
:100C3000401A00B201F03AFB6880A0882188401A6F
:100C400000B201F033FB4FF49672A880A4F11E01AC
:100C5000904201DAA0880AE0B5F90200904201DA78
:100C6000608804E0B5F90000904201DA208808822B
:100C70004C7800231CB37048B1F91020403005684F
:100C800015440560456815444560856815448560D0
:100C9000C5682A44C2600A8B521C12B20A83B2F59C
:100CA000805F00DB0B83B1F91820950535D19212D6
:100CB00050F822502D12CD8140F822302DE0734F94
:100CC000887891F803C007EBC012B1F910E042F840
:100CD0002CE05FEA8C7212D100252A4607EBC01681
:100CE00056F82270521CD2B23D44202AF8D36A1121
:100CF000514D25F8102005F1200222F810E0401C8B
:100D0000C0B28870102808D30CF1010C0CF0FF0061
:100D10008B70C870202800D3CB70641C0B7014F04B
:100D20000100574A487005D0106820F0FF00001DF0
:100D3000106034E0897808070028106820F0FF0070
:100D400002DB00F1010001E000F1020010605048F8
:100D5000036843F080530360036A43F080430362F7
:100D6000036E43F080630366CB07436908D043F00A
:100D7000805343618B07436B05D423F0804304E029
:100D800023F08053F5E743F0804343634907416F05
:100D900002D421F0806101E041F080614167106878
:100DA00040F080701060BDE8F08110B50021D020C7
:100DB0000CF00FFF0021BDE81040D4200CF009BF5B
:100DC0002DE9F05FDFF8CC80DFF8CCB0334D98F838
:100DD0000000334FDFF8CC90012600244FF4167A40
:100DE000012823D130480168491C91FBFAF20160C7
:100DF0000AFB121030B92D480078012802D1D0200A
:100E00000CF0E7FED9F80010484609B1491E016010
:100E100008462749B1F90010084303D188F800407B
:100E2000FFF7C3FF2348008800B145E07AE00000E7
:100E3000C403001038E207202C6500104E0100109A
:100E40002AC007202A01001078C00720D6E007201A
:100E5000D203001084C007202C010010C60300102C
:100E600078010010C2000010D0E2072054010010E9
:100E700074010010560100107601001000C00240FD
:100E80000040034000E100E0280000102C5D00104D
:100E900000C009206F0000109A01001071000010BE
:100EA000A0010010FC010010F801001099000010D2
:100EB0006C01001098010010BBF8000090B3FF4BCC
:100EC0001888401C01B2FE481980027832B1012A0C
:100ED0000CD0022A14D0032A1BD023E0F94A2E702A
:100EE000B2F9002091421DDB06701AE031B12C707E
:100EF000B7F90020914215DB022108E02E70F7E7D8
:100F0000F14A2C70B2F9002091420BDB03210170F1
:100F100007E0A9B185F80060B7F90020914201DB34
:100F200004701C8098F80000022854D1E74801683A
:100F3000491C91FBFAF201600AFB121010B108E0A3
:100F40002C70E9E7E2480078012802D1D4200CF0A7
:100F500040FED9F80010484609B1491E0160084614
:100F6000DC49B1F90010084303D188F80040FFF7CD
:100F70001CFFD948008800282DD0BBF800000028AD
:100F800029D0CE480188491C0AB2CD4902800B788D
:100F900073B1012B14D0022B1FD0032B1BD12AB30A
:100FA00085F80060B7F900309A4214DB0C7011E04C
:100FB000C44B2E70B3F900309A420CDB0E7009E07E
:100FC00032B12C70B7F900309A4204DB02220BE0F8
:100FD0002E70F7E70480BDE8F09FBB4B2C70B3F98F
:100FE00000309A42F7DB03220A70F3E72C70D9E74E
:100FF00070B5BA480078032843D1B949B9480A689E
:10100000521C0A60B0F90050B748B0F900002B1824
:10101000B648B0F900001C18B548B0F90000261811
:101020000020964204DCB34E08603288521C3280A5
:101030000968B14E0122A94201DB327000E0307034
:10104000AE4D8B4203DC8C4201DD2A7000E028703B
:10105000AB490A88521C12B20A80B2F5167F10DB27
:101060000880A8490A88521C12B20A803C2A08DB70
:101070000880A5490A88521C12B20A80182A00DB8F
:10108000088070BD0121D0200CF0A3BD0121D42027
:101090000CF09FBD70B591480125002405708B4868
:1010A0009B490460994800680860FFF7EBFF994886
:1010B000C571047288480088002809D096480088C5
:1010C000002805D07D4804807D4804709348057051
:1010D00070BD824910B5022008707C4800248C49FC
:1010E00004608F4800680860FFF7D0FF894901203D
:1010F000C8710C7278490988002909D08649098885
:10110000002905D06D490C806D490C708349087029
:1011100010BD7249032008707047704900200870A4
:1011200070476E490020087070476C4900200870B5
:101130006B4908606F4908807149088071490880CF
:101140007149088070476549002008702DE62DE937
:10115000F04106464FF4FA75002728460CF042FC91
:10116000B04202DB0020804629E005EB47000CF08E
:1011700039FCB04200DC3C460A373FB2C82FF4DDF0
:10118000C82C0FDA04F10A0709E000BF05EB4400A0
:101190000CF028FCB04200DCA046641C24B2BC4227
:1011A000F4DB0CE05FF0C80405EB44000CF01AFC23
:1011B000B04200DCA046641C24B2CA2CF4DD4046D8
:1011C000F1E52DE9F04106464FF47A7500272846EF
:1011D0000CF008FCB04202DB0020804629E005EB61
:1011E00047000CF0FFFBB04200DC3C460A373FB240
:1011F000C82FF4DDC82C0FDA04F10A0709E000BF9C
:1012000005EB44000CF0EEFBB04200DCA046641C91
:1012100024B2BC42F4DB0CE05FF0C80405EB4400F0
:101220000CF0E0FBB04200DCA046641C24B2CA2CE7
:10123000F4DD4046B7E52DE9F05FDFF8E8903A4F7E
:101240003A4E99F800003A4C322542F2ED784FF0D0
:10125000000A40F2FE3B45282AD1307801286FD1A0
:101260002088401C00B22080404509DB86F800A0A1
:101270003049AC200CF073FC00210846FFF74EFB10
:101280002D49A1F800B0B4F9001091FBF5F005FB71
:10129000101100EB80023A80312909D14FF4FA7124
:1012A00001EB4000254900B2B1F900100CF057FCE9
:1012B00099F80000442843D1307842E098C00720D4
:1012C000720000109C0100109E010010F801001037
:1012D000990000106E010010980100106F000010BE
:1012E00000020010AA010010AC010010AE010010B5
:1012F000B0010010B60100109CC00720EC030010E4
:10130000E80300109AC00720EA030010EC01001067
:10131000FC0100100A0000109A010010710000107A
:10132000F0010010040200104001001070000010D5
:10133000A4000010CDABFFFF420100102A010010F5
:101340002BE0012829D12088401C00B22080404594
:1013500009DB86F800A0FA49AE200CF000FC002161
:101360000846FFF7DBFAA7F800B0B4F90010F54B18
:1013700091FBF5F005FB101100EB80021A8031297A
:101380000BD14FF47A7101EB4000EF4900B2B1F993
:101390000010BDE8F05F0CF0E2BB1CE62DE9F05F49
:1013A000EA48DFF8AC93DFF8AC83008830B3EA4852
:1013B000008818B3E94899F80030B0F90010E848FF
:1013C000012B007807D0E74A022BB2F900200CD09D
:1013D000A8F8002003E0012801D018B124E0E24879
:1013E000018021E0E1480188F9E7012801D018B126
:1013F0001AE0A8F8002017E0DD4812E0DD48B0F957
:101400000000022857D0012857D0DB480188D64871
:101410000180DA48B0F90000022850D0012850D0ED
:10142000D7480188A8F80010D648B0F90020D6485F
:10143000B0F90010CC48FEF729FFD448B0F90020DD
:10144000D348B0F90010C348FEF720FFD14E002565
:101450004FF0010A70790A2807D2401CC0B270719F
:101460000A2802D3757186F806A0CB49CB48CC4A2E
:101470000B78CC4CCC4F302B25D02B2B7ED0CB49AE
:10148000B04A332B74D0DFF828C3452B71D0442BDE
:1014900070D099F80010DFF8B092DFF818B3012986
:1014A00069D0022968D0032967D00570002053460F
:1014B000B7F90020BFE3C048A8E7C048A6E7C04886
:1014C000AFE7C048ADE791F9011039B101291CD04F
:1014D0000570E562256384F828A08AE240F2FE31B7
:1014E0007181B18180F800A00020B7F9002009E0E7
:1014F00000EB800304EB0313401CD962196383F8EB
:101500002850C0B29042F3DB73E2117811B1012987
:1015100015D06EE27581B581057000205346B7F98C
:10152000002009E000EB800104EB0111401CCD62BA
:101530000D6381F82830C0B29042F3DB59E240F2EB
:10154000FE317181B18180F800A00020B7F9002040
:101550000AE000BF00EB800304EB0313401CD962D8
:10156000196383F82850C0B29042F3DBFCE305E036
:10157000B1E0C6E035E160E13CE2F7E291F901302B
:1015800013B1032B57D05DE040F2FE337381B3817A
:1015900080F800A0E562256384F828A0E567C4F818
:1015A000805084F878A0C4F8CC50C4F8D05084F8A7
:1015B000C8A0C4F81C51C4F8205184F818A1C4F87C
:1015C0006C51C4F8705184F868A1C4F8BC515246FB
:1015D000C4F8C05184F8B821C4F80C52C4F81052B1
:1015E00084F80822C4F85C52C4F8605284F8582287
:1015F000C4F8AC52C4F8B05284F8A822C4F8FC5223
:10160000C4F8005384F8F822C4F84C53C4F850537B
:1016100084F84823C4F89C53C4F8A05384F8982352
:1016200091F9020000EB800004EB0010C362036339
:1016300080F8285098E3127812B1012AA4D093E3DD
:101640007581B581057004F1280450466560A56078
:1016500084F800A06565A56584F850A0C4F8A4507E
:10166000C4F8A85084F8A0A0C4F8F450C4F8F85006
:1016700084F8F0A0C4F84451C4F8485184F840A15B
:10168000C4F89451C4F8985184F890A1C4F8E45176
:10169000C4F8E85184F8E001C4F83452C4F8385270
:1016A00084F83002C4F88452C4F8885284F8800266
:1016B000C4F8D452C4F8D85284F8D002C4F82453E1
:1016C000C4F8285384F82003C4F87453C4F878533A
:1016D00084F8700348E30020B1F90010B2F900204B
:1016E000B7F900300AE000BF00EB800704EB0717F2
:1016F000401CC7E90B1287F82850C0B29842F3DBB0
:1017000032E39CF8000001284FF0000011D040F2B5
:10171000FE31B7F9002009E000EB800304EB03136E
:10172000401CD962196383F82850C0B29042F3DBA1
:101730001AE3B1F90010B2F90020B7F900304DE01A
:10174000CDABFFFF420100102C01001098010010EA
:101750006F000010900100109A010010A20100100B
:1017600071000010A60100108E010010A4010010ED
:10177000A8010010920100105C01001094010010FB
:101780006201001074010010760100105001001079
:10179000520100100A00001004020010780300102B
:1017A00086000010D0E20720C200001040010010A7
:1017B0007000001082C00720600100105E01001060
:1017C000660100106401001000EB800704EB0717AE
:1017D000401CC7E90B1287F82850C0B29842F3DBCF
:1017E000C2E29CF8000001284FF0000011D040F246
:1017F000FE31B7F9002009E000EB800304EB03138E
:10180000401CD962196383F82850C0B29042F3DBC0
:10181000AAE2B1F90010B2F90020B7F9003009E0EE
:1018200000EB800704EB0717401CC7E90B1287F891
:101830002850C0B29842F3DB96E2FF48B0F90000AE
:1018400068B1FE490968814209DADFF8F4C3BCF8DF
:1018500000204A4311B291FBF0F0ACF80000B079DF
:10186000D0B3F848008840B1F748008828B1F7485D
:101870000078012847D0032845D0F148B9F9001075
:10188000B0F90000814204DAF148018801F1010158
:1018900004E004DDEE480188A1F101010180A3F21A
:1018A000FE30404202B2584201B2E948FEF7EEFC77
:1018B0006FF0310932224946E548FEF7E7FCE5487A
:1018C000B0F90010E448B0F90000814205DABBF835
:1018D000001001F1010105E015E005DDBBF8001085
:1018E000A1F10101ABF80010A8F2FE30404202B2B3
:1018F000C8F1000001B2D648FEF7C8FC32224946C2
:10190000D648FEF7C3FCD448D549B0F90000B1F978
:101910000010C0EB4020400090FBF1F08146C84829
:10192000D049B0F90000B1F90010C0EB40204000F0
:1019300090FBF1F08046AC200CF054F8A0F52B4160
:10194000CD3907D1C448B0F90000FFF700FC00EB27
:1019500080008146AE200CF045F8A0F52B41CD3932
:1019600007D1B748B0F90000FFF72BFC00EB80006F
:1019700080460020B7F9003039E0B249098841B10A
:10198000B149098829B1B149097801290ED0032943
:101990000CD0BBF900100FFA89F2521800EB80014D
:1019A00004EB0111CA620AD5CD620DE000EB8001A3
:1019B00004EB0111CD620D6381F828A015E040F21F
:1019C000FE37BA4200DDCF62A14A0FFA88F7B2F9BA
:1019D0000020BA180A6301D50D6304E040F2FE3717
:1019E000BA4200DD0F6381F82850401CC0B2984213
:1019F000C3DBB9E19C48B0F90000052802DD86F898
:101A000008A000E03572F571B07990B3307A80B3F8
:101A10009648B9F90010B0F90000814204DA8C4808
:101A2000018801F1010104E004DD89480188A1F188
:101A3000010101806FF03109322249468448FEF7E6
:101A400025FC8948B8F90010B0F90000884204DA92
:101A5000BBF8001001F1010104E005DDBBF8001046
:101A6000A1F10101ABF80010322249467B48FEF794
:101A70000DFCB8F900004FF4617148437849C14644
:101A8000B1F9001090FBF1F032308046AC200BF041
:101A9000A9FFA0F52B41CD3906D1B9F90000FFF718
:101AA00056FB00EB8000804670486E49B0F900009C
:101AB000B1F90010C0EB4020400090FBF1F08146EE
:101AC000AE200BF08FFFA0F52B41CD3907D1674831
:101AD000B0F90000FFF775FB00EB800081460020A5
:101AE000B7F9003039E05749098841B156490988AA
:101AF00029B15649097801290ED003290CD0BBF928
:101B000000100FFA88F2521800EB800104EB01116B
:101B1000CA620AD5CD620DE000EB800104EB011131
:101B2000CD620D6381F828A015E040F2FE37BA427D
:101B300000DDCF62464A0FFA89F7B2F90020BA18E1
:101B40000A6301D50D6304E040F2FE37BA4200DDBE
:101B50000F6381F82850401CC0B29842C3DB44494F
:101B6000A1F800804349E06A0880FDE0B179B9B38B
:101B700041490978A1BB4149B9F90020B1F90010E8
:101B800001EB8101B2EB410F04DA31490A8802F11D
:101B9000010204E004DD2E490A88A2F101020A8054
:101BA000A0F2FE3149420AB2404201B22848FEF793
:101BB0006DFB6FF03109322249462548FEF766FB7E
:101BC0002F48B0F9000000EB80012248B0F9000076
:101BD000B0EB410F05DABBF8001001F1010105E09F
:101BE00015E005DDBBF80010A1F10101ABF8001014
:101BF000A8F2FE30404202B2C8F1000001B214481F
:101C0000FEF744FB322249461448FEF73FFB1C48CE
:101C100042F2EC71B0F9000048431149B1F90010EB
:101C200090FBF1F08146154842F2EC71B0F90000EA
:101C300048430C4926E091E028010010F80100100B
:101C40008E010010980100109A010010720000101F
:101C5000D00300102A0100106801001082C0072084
:101C6000500100107401001078C007206A010010B4
:101C7000D80300108CC007209CC00720B4010010BE
:101C8000B2010010B1F9001090FBF1F08046AC20D9
:101C90000BF0A8FEA0F52B41CD390AD1D848008819
:101CA00000EB8000400000B2FFF751FA00EB80002B
:101CB0008146AE200BF096FEA0F52B41CD390AD11E
:101CC000D048008800EB8000400000B2FFF779FAAE
:101CD00000EB800080460020B7F9002030E0CA49C0
:101CE000097841B100EB800104EB0111CD620D6375
:101CF00081F828A022E0BBF900100FFA89F35B18E5
:101D000000EB800104EB0111CB6201D5CD6204E050
:101D100040F2FE37BB4200DDCF62BC4B0FFA88F7C2
:101D2000B3F90030FB180B6301D50D6304E040F2FA
:101D3000FE37BB4200DD0F6381F82850401CC0B263
:101D40009042CCDB10E000BF00EB800104EB0111FE
:101D5000401CCD620D6381F82830C0B29042F3DBA5
:101D6000AA480580ABF80050B571BDE8F09F00EBC4
:101D70008001A74810B500EB01100178032972D14A
:101D800090F83E108A07B0F942200CD54FF49663C4
:101D90009A420DDA521C12B2A0F842209A4207DB96
:101DA000A0F8423004E01AB1A2F10102A0F84220EA
:101DB0000A07B0F944204FF00A034FF000040AD597
:101DC0000A2A13DA521C12B2A0F844200A2A0DDBA8
:101DD000A0F844300AE0002A05DDA2F1010212B2A7
:101DE000A0F8442002E001DAA0F84440CA06B0F9A5
:101DF00046200AD50A2A0DDA521C12B2A0F8462053
:101E00000A2A07DBA0F8463004E01AB1521E12B2CB
:101E1000A0F846204278120701D004210FE07D4A45
:101E2000127822B1C278142A01D9052107E0890667
:101E300001D5022103E0C178142901D2012181706A
:101E4000C1780A2990F8281002D341F0800101E0FE
:101E500001F07F0180F828106F49B1F90A20C262B1
:101E6000B1F90C10016310BD2DE9F05F6B48DFF88C
:101E7000B481DFF8B4B101786948DFF8B0A16C4DE6
:101E8000B0F900006B4E00276B4C022911D00129DC
:101E900025D0278069492868B1F90010884243DDC0
:101EA00067493068B1F9001088423DDA2088401C4B
:101EB0003CE0DFF89091B9F80010401A00B200F051
:101EC000F5F9C8F8000064214843B9F90010DFF8BB
:101ED000788190FBF1F02860BBF8001014E0DFF887
:101EE0006C91B9F80010401A00B200F0DFF9C8F8A0
:101EF000000064214843B9F90010DFF8548190FBD9
:101F0000F1F02860BBF80010B8F80000081A00B221
:101F100000F0CCF96421CAF800004843B8F9001079
:101F200090FBF1F03060B5E72088401E494D2080DD
:101F30000A21288800EB800001EB400002B200215A
:101F40003D48FEF7A3F93548007800B9278042489C
:101F500042490068B1F90020414990420ADBB5F9D5
:101F60000030B4F9006003EB8303B6EB430F01DDEF
:101F700001230B70904208DBB5F90000B4F9002092
:101F800000EB8000B2EB400F00DC0F7035480268B8
:101F900022F4406202603448026842F0200202608B
:101FA000324A12782AB10978012A01D009B105E034
:101FB00021B1416941F020014161D6E6416921F03A
:101FC0002001F9E72748016821F4407101602648A3
:101FD000016841F01001016010490978032903D01C
:101FE0002349097819B107E02249097821B14169EB
:101FF00021F0100141617047416941F01001F9E79A
:10200000B2010010B40100109CC00720D0030010E2
:10201000D0E207207AC007200A0000106F000010ED
:102020002A010010DC0300102C010010E003001056
:1020300090C0072094C00720E60300107E01001026
:1020400080010010620100106A0100106801001098
:102050008E0100107C010010F80100107A010010C0
:10206000E403001000C0024000C009209A000010E4
:1020700071000010EC0300102DE9E84E07465426CD
:1020800059B1012904D0022904D0032904D004E065
:10209000552602E0752600E04C268348DFF80492BE
:1020A00007EB87034FF0000A00EB0310012A01D071
:1020B000EAB3F3E031B1012908D002290AD003299B
:1020C0000CD00FE0427842F001020AE0427842F080
:1020D000020206E0427842F0040202E0427842F056
:1020E0000802427080F84F1053208DF800008DF8E0
:1020F00001708DF8026056468DF803A069462046AF
:102100000BF0A9FD6946201D00960BF0A4FDB9F85F
:102110003C0009F120058DF80000287E8DF80100B3
:10212000287B8DF802008DF80360694600E02FE0FF
:1021300004F108000BF08FFD287A8DF80000287953
:102140008DF8010028788DF802008DF8036069464B
:1021500004F10C000BF07FFD41258DF800508DF847
:1021600001508DF802508DF80350694604F11000BB
:102170000BF071FD8DF800508DF801508DF8025074
:102180008DF80350694604F114000BF064FD6BE018
:1021900031B1012908D0022913D0032915D007E055
:1021A000417821F0010102E0417821F00201417003
:1021B00004F110004FEA000B9DF8000053282CD1C9
:1021C00007E0417821F00401F1E7417821F00801AE
:1021D000EDE79DF80100B8421FD19DF80200B04222
:1021E0001BD1694658460BF07AFC9DF80000412847
:1021F00013D106E06D1EADB200E03F254545DBD1B1
:102200004CE09DF80100412807D19DF802004128CB
:1022100003D19DF80300412802D0002DEDD0E9E75D
:10222000B9F83C0009F120058DF80000287E8DF8F2
:102230000100287B8DF8020056468DF803A0694600
:1022400058460BF008FD287A8DF8000028798DF8A3
:10225000010028788DF802008DF80360694604F1CA
:1022600014000BF0F8FC42258DF800508DF8015059
:102270008DF802508DF80350694604F118000BF0F8
:10228000EAFC8DF800508DF801508DF802508DF861
:102290000350694604F11C000BF0DDFC00BFBDE8F3
:1022A000E88E000000400240D0E20720002801DA5A
:1022B000404200B2704710B540F2D4700BF092FB70
:1022C000F94C207040F2D6700BF08CFB60704FF42C
:1022D000FB600BF087FBA07040F2DA700BF082FB22
:1022E000E07040F2DC700BF07DFB207240F2DE709B
:1022F0000BF078FB60724FF4FC600BF073FBA07284
:1023000040F2E2700BF06EFBE0724FF401600BF0F4
:1023100069FB207140F612000BF064FB607140F61F
:1023200014000BF05FFBA07140F616000BF05AFB97
:10233000E07110BDDD4810B5016821F0E061016079
:102340004168DC4AC1F30B13D94C117824F81130E1
:10235000491CC9B21170032903D2016841F0807190
:10236000016010BD2DE9F041D34DD44E01272888DE
:10237000D34C401C00B228800A280DDB06200BF04D
:1023800031FB48B93068C00706D1A07820B90121D7
:1023900006200BF0E4FBA770B5F90000B0F5967FBE
:1023A0000EDB06200BF01EFB012809D13068C007A8
:1023B00006D1A07820B9012106200BF0D0FBA77030
:1023C000B4F93400B0F5B47F0AD306200BF00AFB51
:1023D000002805D0BDE8F041002106200BF0BFBB6E
:1023E000BDE8F0812DE9FF41B54900258031A1F11B
:1023F0005E04B1F9640000EB400202EBC0000A2267
:1024000090FBF2F0E084E085032020852078401CDA
:10241000C0B204F82209182802D384F8225001E03F
:102420000F2843D82120FDF7E2FE50B1A5480088CF
:10243000222806D1A44894F8221090F9020088427C
:1024400032D094F82B00A14D98B994F8220000EBFB
:10245000800105EB011202F128021179577A167AF0
:1024600053798DE8CA0013784FF0ED0201460BF066
:1024700028FE94F822000F2816D200EB800005EB0E
:102480000010C1783C2905D2491CC9B2C17003298A
:1024900002D207E03C21C1700179032902D24179BF
:1024A000491C4171C1780171BDE8FF81844B11283D
:1024B00093F82B3019D01228F6D1002BF4D1B1F9B2
:1024C0006800814990FBF2F0AA39C0B24B780C78D1
:1024D000891E4A78CDE90230CDE900240B78292203
:1024E000FF2108460BF0EDFDDEE7002BDCD1744840
:1024F00050304178027808384378CDE90032CDE990
:10250000021503786222EBE76F4900204C3908700E
:10251000487088704C31487070472DE9F04F68481A
:102520004FF03C0E90F82C20803000F5807700F1C1
:10253000800BF968B0F93E4091FBFEF609B289467E
:102540003969B0F9405091FBFEF70FFA81F85C4908
:102550003FB2BA46CF78BBF90430BBF9061036B2A9
:102560008AB1012A3BD1B0F876C0ABF81CC0B0F8F4
:102570007E00ABF82000ABF81A40ABF81E50BBF958
:1025800002207AB92DE0B0F87CC0ABF81CC0B0F8DE
:102590007000ABF82000ABF81A40ABF81E50BBF946
:1025A000002012B14FF0FF3020E047481838006893
:1025B0001AE000BF90FBFEF018E000BFABF8166019
:1025C0000AE000BFABF8169006E000BFABF816A01B
:1025D00002E000BFABF81680394880F83070BDE8E3
:1025E000F08F3948183840680029E3D1ABF818005B
:1025F000134302D00029E5D0E0E70029EAD0E5E75F
:10260000F0B50020324A01464FF4F4731154401CD7
:1026100000B29842FADBDFF8B0E000200EF1480E7D
:1026200014277A21414300EB80039B0000EB8004D8
:102630001BB207EB84051EE01EF803405E2C21D080
:10264000244E04EB440416F814C002F801C006EB53
:102650004404491C66785654491CA6785654491CB3
:10266000E6785654491C26795654491C64795454CA
:10267000491C5B1C1BB29D42DEDC401C00B20428DE
:10268000CFDBF0BD4FF07E0C02F801C0491C4224A4
:102690005454491C5A265654491C5654491C5454E7
:1026A000491C02F801C0E3E7E8670010004003405E
:1026B000280000100A000010F0E007205000001071
:1026C0006C0000104800001004020010D0E2072047
:1026D00080E70720AC4201002DE9F04FFD48ADB086
:1026E000B0F9561000910170017A491CC9B201720B
:1026F000142908D300210172C279521CD2B2C271CE
:10270000052A00D3C171F449F34BF34891F9045001
:1027100091F90110DFF8BCA34A1B983B0078B3F98C
:102720002E304FF00A0B9E460AF1800A02ACE8B345
:10273000E94F0D2801F07F82212801F06D833B468F
:102740006B2893F9043004EB8303994601F07A83F4
:102750003B465B789B1E5BB26C2801F09F836E2822
:1027600001F03E846A2801F0A186692801F0DE8626
:102770003E4696F902807678761E4FFA86FC6728E8
:1027800001F031870F2801F096871028FBD004282C
:1027900001F0BA87CF4EDFF844E33E28B67E02F060
:1027A0008F826F2802F01083332800E043E002F0AC
:1027B0007A86702802F0B286712802F004875A28BF
:1027C00002F03D875E2803F0ED805F28FBD0612892
:1027D00003F0FB80622803F04A81632803F09C81A8
:1027E000122803F0ED81432803F01E82B94F4528DB
:1027F0003F7903F03382442803F06F82B64F3028CC
:1028000003F0E083722803F0F5834FF0090B2E28C4
:1028100003F04484412803F01C852C2803F023870F
:102820002B2803F05987582804F0B0816D2804F054
:10283000D68104F01DBAA74890F803C0BCF1030F7D
:102840002CD090F82C70A4484078C01E40B281462D
:10285000A0488030002FB0F9620000909D4800F53C
:10286000807390F80680B3F92C604379C07E7ED0E7
:10287000012F7DD0DFF85C82022F7AD0BCF1020FED
:1028800000F0878796A70297002E00F0BB87BEF165
:10289000000F00F0788798A700F0B3BF9CA00290CB
:1028A000A1A00390A6A00490ABA002AD03460590A2
:1028B00007CDFEF75AF8DFF82082A8F11808A8F132
:1028C0008005D8F81400B5F93E10884203DA0022DA
:1028D0002121A7A019E0B5F940201144814203DD70
:1028E00000222121A3A010E0B5F942201144814229
:1028F00003DD00222121A0A007E0B5F94420114406
:10290000814204DD002221219CA0FEF75EF805F142
:102910004605002268882B2180B2FDF708FF288831
:102920000022402180B2FDF702FFBAF940005E4666
:1029300090FBF6F0574680B200222321FDF7F7FE08
:10294000B7F93E00002290FBF6F080B22421FDF79B
:10295000EEFEA8880022401C5E2180B2FDF7E7FE53
:10296000D8F81400454690FBF6F13C2002E014E054
:10297000FBE2EFE391FBF0F200FB121080B20022C9
:102980007321FDF7D4FE68694FF4167190FBF1F0E6
:10299000002280B2542101F033B9BCF1010F0ED0F6
:1029A00077A00290002E49D0BEF1000F01D074A094
:1029B00043E0012B28D0002B40D177A03DE07CA73D
:1029C0000297002E3AD0BEF1000F05D0B8F1010FEA
:1029D00006D0B8F1030F03D0012B07D0D3B12DE0FF
:1029E000800701D578A028E071A026E040B1012839
:1029F00008D0022808D0032808D0042808D012E004
:102A000077A01AE07CA018E081A016E086A014E070
:102A10008BA012E050B101280AD00228CDD00328A3
:102A200008D0042808D00528C1D007E08AA004E017
:102A30008FA002E094A000E099A002903AA0039039
:102A40009DA0244F0490BCF1010F01D1A0A00490DF
:102A50003BA00590A4A00690A9A00790AEA0089066
:102A6000B3A009901C48032A02DD80F8049002E01C
:102A7000A94200DA0171009955460F2906DDB2A37B
:102A8000B7A2BDA1C2A0FDF770FF0CE090F90460F1
:102A900004EB8600001D0EC854F82600FDF765FF04
:102AA0000020FDF7FEFE0C4E983EB08D08B1F08D73
:102AB00020B900225E21BCA0FDF787FFB046B6F921
:102AC00022004FF47A76B04203DA01222B2180B241
:102AD00071E16BE16C00001004020010E04801009D
:102AE00020C8F1F2EEF7EDE8EA20EDE0EFF02E205D
:102AF0005E2020200000000020C8F1F2EEF7EDE893
:102B0000EA20EDE0EFF02E205E3E3E3E00000000A9
:102B1000202020C8D1CFDBD2C0CDC8C520D4C0C7AB
:102B2000C0202120000000002049F3202020202B7D
:102B3000C020556D61782020202040420000000018
:102B40002049202020202023C02055202020202084
:102B5000202024420000000020D6E8EAEB204E208E
:102B600020205E20202030543A30732000000000E6
:102B7000410000004200000043000000440000004B
:102B800020C8F1F2EEF7EDE8EA20F2EEEAE02020CC
:102B90005E2020200000000020C8F1F2EEF7EDE8F2
:102BA000EA20F2EEEAE020205E3C3C3C000000001F
:102BB00020C8F1F2EEF7EDE8EA20F2EEEAE020209C
:102BC000202020200000000020C8F1F2EEF7EDE800
:102BD000EA20F2EEEAE020205E203C3E0000000009
:102BE00020C8F1F2EEF7EDE8EA20F2EEEAE020206C
:102BF0005E3E20200000000020C8F1F2EEF7EDE874
:102C0000EA20F2EEEAE020205E3E3E2000000000D6
:102C100020C8F1F2EEF7EDE8EA20F2EEEAE020203B
:102C20005E3E3E3E0000000020C8F1F2EEF7EDE807
:102C3000EA20F2EEEAE020205E203E3E00000000A6
:102C400020C8F1F2EEF7EDE8EA20F2EEEAE020200B
:102C50005E20203E0000000020C8F1F2EEF7EDE813
:102C6000EA20F2EEEAE020205E20203C0000000096
:102C700020C8F1F2EEF7EDE8EA20F2EEEAE02020DB
:102C80005E203C3C0000000020C8F1F2EEF7EDE8C9
:102C9000EA20F2EEEAE020205E3C3C20000000004A
:102CA00020C8F1F2EEF7EDE8EA20F2EEEAE02020AB
:102CB0005E3C20200000000020C4EBE8F22DF1F281
:102CC000FC2E202030743A30543A3073000000005B
:102CD00020202020202030743A30543A30732020B5
:102CE00020202020000000002055EC61782EE8F123
:102CF000F22EF2EEEAE0202020207BC2000000004D
:102D000020C2FBF5EEE420202020202020202020DF
:102D1000202020200000000020D3F1F2E0EDEEE2C0
:102D2000EAE8202020202020202020200000000091
:102D300020C2FBEFF0FFECE8F2E5EBE820202020DA
:102D4000202020200000000020E8EBE820EDE5F145
:102D5000EAEEEBFCEAEE20F4E0E72E2000000000B3
:102D60002020CEF2F1F3F2F1F2E2F3E5F220EEE40C
:102D7000EDE0202000000000202020202020F1E5B0
:102D8000F2E8212121212020202020200000000025
:102D90002020C0E2E0F0E8FF20EFE8F2E0FEF9E5F5
:102DA000E9202020000000002000000090FBFBF044
:102DB00080B200222B21FDF7BAFCB5F94000B042E9
:102DC00003DA0122232180B204E090FBFBF080B201
:102DD00000222321FDF7ABFCB5F93E00B04203DA37
:102DE0000122242180B204E090FBFBF080B200229B
:102DF0002421FDF79CFCB5F97C00B0420ADA0122DF
:102E00007B2180B2FDF793FCB5F87C0001224021C4
:102E100080B20EE05E4690FBF6F080B200227B218D
:102E2000FDF785FCB5F97C00002290FBF6F080B23E
:102E30004021FDF77CFCF878B946012809D0B8F8A4
:102E40000000F0B36FF002027421FBA0FDF7BDFD9E
:102E500072E0B8F90410B8F90000FA4E014318D036
:102E6000F0683C2790FBF7F107FB110080B20022CD
:102E70007321FDF75CFCF068002290FBF7F090FBFB
:102E8000F7F107FB110080B25421FDF750FCF16807
:102E900019E030693C2790FBF7F107FB110080B285
:102EA00000227321FDF743FC3069002290FBF7F00C
:102EB00090FBF7F107FB110080B25421FDF737FCBE
:102EC00000E017E031694FF4616091FBF0F080B2EF
:102ED00000227421FDF72BFC99F8160060B3002244
:102EE0003A21AFF23C10FDF770FD00223A21AFF21B
:102EF0004810ABE7D34E3C270022306890FBF7F137
:102F000007FB110080B27321FDF711FC306800222D
:102F100090FBF7F090FBF7F107FB110080B2542112
:102F2000FDF705FC31684FF4616091FBF0F080B271
:102F300000227421FDF7FBFBC24800230422C06875
:102F4000194680B2FDF70EFBA88F0023092219460F
:102F500080B2FDF707FBB8F8220000230E221946C5
:102F600080B2FDF7FFFA00F04DBEBCF1020F10D0A9
:102F7000AFF294400290002E4AD0BEF1000F02D072
:102F8000AFF2A44043E0012B27D0002B40D1AEA0EC
:102F90003DE0B3A7029796B3BEF1000F05D0B8F19C
:102FA000010F06D0B8F1030F03D0012B07D0DBB11E
:102FB0002EE0800701D5B0A029E0A9A027E040B10C
:102FC000012808D0022808D0032809D0042809D0F5
:102FD00013E0AFA01BE0B4A019E0AFF2E44016E0AC
:102FE000B7A014E0BCA012E050B101280AD002281A
:102FF000CDD0032808D0042808D00528C0D007E089
:10300000BBA004E0C0A002E0C5A000E0CAA00290FE
:10301000CFA00390AFF26030DFF84C830490BCF196
:10302000020F02D1AFF258300490D0A00590D5A085
:103030000690AFF234300790AFF224300890AFF230
:10304000103009907F481830032A02DD80F8049080
:1030500002E0A94200DA0171009955460F290ADD04
:10306000AFF21C33AFF20832AFF2F421AFF2E0203E
:10307000FDF77BFC0CE090F9046004EB8600001D7A
:103080000EC854F82600FDF770FC0020FDF709FC7F
:103090006C4E803EB08D08B1F08D28B900225E21C3
:1030A000AFF2FC20FDF791FCB6F924004FF47A77DB
:1030B000B84203DA0122252180B204E090FBFBF044
:1030C00080B200222521FDF732FBB5F93E00B8425F
:1030D00003DA0122262180B204E090FBFBF080B2EB
:1030E00000222621FDF723FBB5F94000B84203DAA0
:1030F00001222A2180B204E090FBFBF080B2002282
:103100002A21FDF714FBB5F97E00B8420ADA012244
:103110007D2180B2FDF70BFBB5F87E0001227D21F9
:1031200080B20EE05F4690FBF7F080B200227D2176
:10313000FDF7FDFAB5F97E00002290FBF7F080B2B2
:103140007D21FDF7F4FA98F803004746022802D0E3
:103150007088F7E322E1B6F90400B6F90210EDE257
:10316000384D3C260022E86890FBF6F106FB110082
:1031700080B27321FDF7DBFAE868002290FBF6F0DD
:1031800090FBF6F106FB110080B25421FDF7CFFA57
:10319000E96818E02B4D3C260022286990FBF6F1E7
:1031A00006FB110080B27321FDF7C1FA28690022E5
:1031B00090FBF6F090FBF6F106FB110080B2542173
:1031C000FDF7B5FA29694FF4616091FBF0F080B228
:1031D00000227421FDF7ABFAB87D00282BD0002225
:1031E0003A21AFF23C40FDF7F0FB00223A21AFF26A
:1031F000484003E06FF0020274210FA0FDF7E5FBE9
:10320000B1E6104D3C260022686890FBF6F106FB03
:10321000110080B27321FDF78AFA6868002290FBE2
:10322000F6F090FBF6F106FB110080B25421FDF799
:103230007EFA69687DE2F2E3EDE5EFF0E5F0FBE2AE
:10324000EDEE0000EC01001020C8F1F2EEF7EDE821
:10325000EA20EDE0EFF02E205E3C3C3C0000000058
:1032600020C8F1F2EEF7EDE8EA20EDE0EFF02E20D5
:10327000202020200000000020C8F1F2EEF7EDE849
:10328000EA20EDE0EFF02E205E203C3E0000000042
:1032900020C8F1F2EEF7EDE8EA20EDE0EFF02E20A5
:1032A0005E3E20200000000020C8F1F2EEF7EDE8BD
:1032B000EA20EDE0EFF02E205E3E3E200000000010
:1032C00020C8F1F2EEF7EDE8EA20EDE0EFF02E2075
:1032D0005E203E3E0000000020C8F1F2EEF7EDE86F
:1032E000EA20EDE0EFF02E205E20203E00000000FE
:1032F00020C8F1F2EEF7EDE8EA20EDE0EFF02E2045
:103300005E20203C0000000020C8F1F2EEF7EDE85E
:10331000EA20EDE0EFF02E205E203C3C00000000B3
:1033200020C8F1F2EEF7EDE8EA20EDE0EFF02E2014
:103330005E3C3C200000000020C8F1F2EEF7EDE812
:10334000EA20EDE0EFF02E205E3C2020000000009F
:103350002055F320202020254220496D617820202F
:1033600020207D41000000006C000010205520202E
:1033700020202026422049202020202020202A41D1
:10338000000000002049EC61782EE8F1F22EEDE01B
:10339000EFF02E2020207D4100000000BCF1010F45
:1033A0000ED0AFF624070297B6B3BEF1000F02D0DD
:1033B000AFF2A4773CE0012BFAD0AFF6240737E058
:1033C000AFF6140702973EB3012B01D0CBB130E02A
:1033D00040B1012809D00228EAD0032808D00428E7
:1033E00009D017E0AFF6080722E0AFF2F4771FE04C
:1033F000AFF2CC771CE0AFF2B87719E0AFF68007F8
:1034000016E050B101280BD00228D6D003280AD0EC
:1034100004280BD00528F1D00BE0AFF2C47707E009
:10342000AFF2B47704E0AFF2A07701E0AFF29077AB
:103430000297AFF60C170397AFF284770497BCF1AD
:10344000010F02D1AFF278770497AFF60C1705970A
:10345000BCF1020F0FD0AFF67810069096B3BEF114
:10346000000F02D0AFF6701003E0012BFAD0AFF2DC
:103470002820069026E0AFF218270697FEB1012B10
:1034800001D04BB31BE040B1012809D002280BD07A
:1034900003280CD004280DD00FE0AFF20C2001E07F
:1034A000AFF2FC1006900AE0AFF6B410FAE7AFF204
:1034B000F010F7E7AFF2E010F4E7052824D098F811
:1034C000140020B3AFF278100790AFF61400089004
:1034D000BCF1020F1DD01FE050B101280BD0022813
:1034E0000CD003280DD00428E7D1AFF2B410D9E7EF
:1034F000AFF20420D6E7AFF2F010D3E7AFF2B82076
:10350000D0E7AFF2E410CDE7AFF62C20CAE7FCA07D
:10351000AFE7AFF644000890AFF2B0100990AFF6F5
:1035200038000A90AFF2A4100B90AFF62C000C906C
:10353000AFF61C000D90AFF60800DFF8DC830E90AC
:10354000032A02DD88F8049003E0A94201DA88F832
:103550000410009855460F280ADDAFF61403AFF6A5
:103560000002AFF2EC71AFF2D870FDF7FEF90CE09B
:1035700098F9046004EB8600001D0EC854F826007C
:10358000FDF7F3F90020FDF78CF9E34E983EB08D7E
:1035900008B1F08D28B900225E21AFF2F470FDF77A
:1035A00014FAB6F922004FF47A77B84203DA01220E
:1035B0002B2180B204E090FBFBF080B200222B2193
:1035C000FDF7B5F8B5F94000B94648450ADA0122D9
:1035D000232180B2FDF7ABF8B5F8400001222A2183
:1035E00080B20EE05F4690FBF7F080B2002223210C
:1035F000FDF79DF8B5F94000002290FBF7F080B28E
:103600002A21FDF794F8B6F924004F46B84203DAB0
:103610000122252180B204E090FBFBF080B2002261
:103620002521FDF784F8B5F93E00B946484509DA89
:103630000122262180B2FDF77AF8E88F01222421A9
:1036400080B20EE05F4690FBF7F080B200222621A8
:10365000FDF76DF8B5F93E00002290FBF7F080B25F
:103660002421FDF764F8B5F97E0048450ADA012205
:103670007D2180B2FDF75BF8B5F87E0001227D2147
:1036800080B20EE05F4690FBF7F080B200227D2111
:10369000FDF74DF8B5F97E00002290FBF7F080B2FF
:1036A0007D21FDF744F8B5F97C0048450ADA01228E
:1036B0007B2180B2FDF73BF8B5F87C000122402168
:1036C00080B20EE05F4690FBF7F080B200227B21D3
:1036D000FDF72DF8B5F97C00002290FBF7F080B2E1
:1036E0004021FDF724F898F904008C4F0228F8785F
:1036F00028DC01281ED0308800287FF47BAD07F538
:10370000C0763C253068002290FBF5F105FB1100E6
:1037100080B27321FDF70BF83068002290FBF5F0C2
:1037200090FBF5F105FB110080B25421FCF7FFFF7F
:1037300031685EE2B6F90400B6F9001008433FF4C0
:1037400029AD0DE502283FF406AD70880028D4D1DC
:10375000714E3C25183E0022706890FBF5F105FB88
:10376000110080B27321FCF7E2FF7068002290FB29
:10377000F5F090FBF5F105FB110080B25421FCF748
:10378000D6FF716835E2012B3FF485A8AFF24857A8
:1037900037E0AFF2345702973EB3012B01D0CBB1E3
:1037A00030E040B1012809D00228EDD0032808D02C
:1037B000042809D017E0AFF2285722E0AFF21857DB
:1037C0001FE0AFF204571CE0AFF2F44719E0AFF688
:1037D000F04716E050B101280BD00228D6D00328BC
:1037E0000AD004280BD00528F1D00BE0AFF2005727
:1037F00007E0AFF2EC4704E0AFF2DC4701E0AFF2E4
:10380000C8470297AFF2B8470397AFF6543704970B
:10381000BCF1020F02D1AFF648370497AFF2B447BC
:103820000597BCF1010F0ED0AFF6AC400690B6B3D1
:10383000BEF1000F02D0AFF628403CE0012BFAD0D9
:10384000AFF6AC4037E0AFF6984706973EB3012B92
:1038500001D0CBB130E040B1012809D00228EAD034
:10386000032808D0042809D017E0AFF68C4022E0E6
:10387000AFF67C401FE0AFF650401CE0AFF6404092
:1038800019E0AFF6045016E050B101280BD0022821
:10389000D6D003280AD004280BD00528F1D00BE09D
:1038A000AFF64C4007E0AFF6384004E0AFF62840F2
:1038B00001E0AFF614400690AFF694500790AFF6D3
:1038C00008400890BCF1010F02D1AFF6FC3008901F
:1038D000AFF694500990AFF6F0300A90AFF25C501A
:1038E0000B90AFF6E4300C90AFF6D4300D90AFF6FD
:1038F000C0300E900848032A12DD80F8049012E0D0
:1039000020202020202020202020202020202020B7
:103910002020202000000000040200106C00001095
:10392000A94200DA0171009855460F280BDDAFF669
:10393000E833AFF6D432AFF6C031AFF6AC30FDF7B6
:1039400014F80EE0E7E0FF4890F9046004EB86000D
:10395000001D0EC854F82600FDF707F80020FCF7FC
:10396000A0FFF84E983EB08D08B1F08D28B9002226
:103970005E21AFF6CC30FDF728F8B6F922004FF4FF
:103980007A77B84203DA01222B2180B204E090FB5F
:10399000FBF080B200222B21FCF7C9FEB5F94000F4
:1039A000B94648450ADA0122232180B2FCF7BFFE5E
:1039B000B5F8400001222A2180B20EE05F4690FB5C
:1039C000F7F080B200222321FCF7B1FEB5F94000E8
:1039D000002290FBF7F080B22A21FCF7A8FEB04647
:1039E000B6F924004E46B04203DA0122252180B206
:1039F00004E090FBFBF080B200222521FCF797FE4B
:103A0000B5F94000B0420BDA0122232180B2FCF765
:103A10008EFEB5F8400001222A2180B20FE0F1E0CD
:103A20005F4690FBF7F080B200222321FCF77FFE77
:103A3000B5F94000002290FBF7F080B22A21FCF794
:103A400076FEB5F93E00B04209DA0122262180B2A5
:103A5000FCF76DFEE88F0122242180B20EE05F4664
:103A600090FBF7F080B200222621FCF760FEB5F94A
:103A70003E00002290FBF7F080B22421FCF757FEB5
:103A8000B5F97C00B0420ADA01227B2180B2FCF752
:103A90004EFEB5F87C000122402180B20EE05F4668
:103AA00090FBF7F080B200227B21FCF740FEB5F9D5
:103AB0007C00002290FBF7F080B24021FCF737FE3B
:103AC000B5F97E00B0420ADA01227D2180B2FCF70E
:103AD0002EFEB5F87E0001227D2180B20EE05E460A
:103AE00090FBF6F080B200227D21FCF720FEB5F9B4
:103AF0007E00002290FBF6F080B27D21FCF717FEDD
:103B0000904890F90400022851DC8F4EF07802288A
:103B100006D0B8F8020000283FF473ABFFF76ABB89
:103B2000B8F90410B8F9020001431AD0854D3C27BA
:103B3000183D0022E86890FBF7F107FB110080B206
:103B40007321FCF7F4FDE868002290FBF7F090FB8E
:103B5000F7F107FB110080B25421FCF7E8FDE9689A
:103B600019E0784F3C25183F0022386990FBF5F1A9
:103B700005FB110080B27321FCF7D9FD38690022E2
:103B800090FBF5F090FBF5F105FB110080B254219C
:103B9000FCF7CDFD39694FF4616091FBF0F080B224
:103BA00000227421FCF7C3FDB07DFFF716BB664F02
:103BB000F878012837D0B8F800000028AED107F512
:103BC000C0753C262868002290FBF6F106FB110028
:103BD00080B27321FCF7ABFD2868002290FBF6F061
:103BE00090FBF6F106FB110080B25421FCF79FFD1B
:103BF00029684FF4616091FBF0F080B200227421DB
:103C0000FCF795FD5048C078012806D04D4A0021A8
:103C1000983A0228D18403F02B804A490020983931
:103C2000088503F025B8B8F90410B8F9000001437D
:103C30003FF4B0AA85E50098434E801E814202D130
:103C4000AFF6447300E041A340A240A145A0FCF7B9
:103C50008CFE97F901000023401C80B21A46012116
:103C6000FCF780FC97F901000023801C80B21A4603
:103C70000221FCF777FC97F90100404D00EB800032
:103C800005EB001001238069062280B21946FCF77B
:103C900069FC97F90100012300EB800005EB00109F
:103CA0000622806E022180B2FCF75CFC97F90100CD
:103CB000012300EB800005EB00100B22006A19467F
:103CC00080B2FCF74FFC97F90100012300EB800064
:103CD00005EB00100B22006F022180B2FCF742FCC2
:103CE00097F90100002300EB800005EB00100F2284
:103CF000406A012180B2FCF735FC97F901000023EE
:103D000000EB800005EB00100F22406F022180B213
:103D1000FCF728FC97F90200132200EB800005EB6A
:103D20000010012190F83E00FCF76CFD97F90200AD
:103D3000132200EB800005EB0010022190F88E00AA
:103D40001EE00000040200106C0000102020202063
:103D5000202E202020202E20202020202020202047
:103D6000000000004E202020552CC22020492C416C
:103D7000202074B04320202000000000D0E2072063
:103D8000FCF740FDB6F9561097F90100891E8842EC
:103D90003DDAC01C002380B21A460321FCF7E2FB87
:103DA00097F90100012300EB800005EB00100622CB
:103DB000D0F8B800032180B2FCF7D4FB97F90100DA
:103DC000012300EB800005EB00100B22D0F8C000AF
:103DD000032180B2FCF7C6FB97F90100002300EB3A
:103DE000800005EB00100F22D0F8C400032180B240
:103DF000FCF7B8FB97F90200132200EB800005EBFB
:103E00000010032190F8DE00FCF7FCFC09E7CF4826
:103E1000012180F83C1004E7CD4BCEA2D3A1D9A05C
:103E2000FCF7A3FDC94801210A4680F83C10BAF806
:103E30003E005B21554680B2FCF779FC01225D21F2
:103E400002F0D4B8D5A00290DAA00390DF48049025
:103E50009B6854F82510DEA0D9F80420FCF785FDF6
:103E60000120FCF71EFD0AF15A054FF00002E88818
:103E70004FF0210100EB800080B2FCF758FC28884D
:103E80000022232180B2FCF752FC2888002200EB9C
:103E900080002D3080B2402102F0E8BEAB4EE03E03
:103EA000BEF1000F01D0D0A000E0D5A00290DAA0B2
:103EB0000390DFA00490E4A00590E9A00690EEA096
:103EC0000790F3A00890F8A00990C0480A90022A31
:103ED00001DD3B7102E0A94200DA397197F9041063
:103EE00004EB8100D0E9012354F82110F4A0FCF781
:103EF0003CFD0120FCF7D5FCB6F930003C2590FBD9
:103F0000F5F105FB110080B200225B21FCF70FFCEC
:103F1000B6F93000002290FBF5F090FBF5F105FBBF
:103F2000110080B27D21FCF702FCB6F930004FF49D
:103F3000616790FBF7F080B200227B21FCF7F7FB72
:103F4000B6F93200002290FBF5F105FB110080B2BA
:103F50005D21FCF7ECFBB6F93200002290FBF5F096
:103F600090FBF5F105FB110080B22921FCF7DFFB86
:103F7000B6F93200002290FBF7F080B22821FCF75E
:103F8000D6FBB6F93400002290FBF5F105FB1100D9
:103F900080B23E21FCF7CBFBB6F93400002290FB47
:103FA000F5F090FBF5F105FB110080B23C21FCF728
:103FB000BEFBF08E0122212180B2FCF7B8FB308FCE
:103FC0000122402180B2FCF7B2FB708F0122232135
:103FD00080B2FCF7ACFB0122B08F242180B25BE7FA
:103FE000BDA00290C2A00390C7A00490CCA00590F1
:103FF000D1A00690D6A00790DBA00890E0A0099081
:10400000E5A00A90EAA00B90EFA00C90F4A00D9010
:10401000F9A00E90FE486D49B0F95C0004EB8000F9
:104020004160AFF224718160AFF22C7109F1040993
:10403000C160B9E80E000298FCF797FC97F90100FF
:1040400097F90410421A022A01DD801E01E088421D
:1040500000DA38710120FCF724FCEE4D28780128A5
:1040600068D06FF003022121EBA000BFFCF7ADFC8C
:10407000687801285FD06FF003024021E6A000BFFE
:10408000FCF7A3FCA878012856D06FF00302232187
:10409000E1A000BFFCF799FCE87801284DD06FF053
:1040A00003022421DCA000BFFCF78FFC2879012843
:1040B00044D06FF003022521D7A000BFFCF785FC98
:1040C000687901283BD06FF003025E21D2A000BFC7
:1040D000FCF77BFCA879012832D06FF0030226217F
:1040E000CDA000BFFCF771FCE879012829D06FF062
:1040F00003022A21C8A000BFFCF767FC287A012828
:1041000020D06FF003022821C3A000BFFCF75DFCA4
:10411000687A012817D06FF003022921BEA000BFE2
:10412000FCF753FCA87A01280ED06FF003022B2174
:10413000B9A075E17DE181E185E189E18DE191E160
:1041400095E199E19DE1A1E1A5E100004C0200109B
:10415000F54801002049EDE0E3F0203D202020203B
:10416000205DC02020202020000000002055EDE030
:10417000E3F0203D20202020205BC22020202020B2
:1041800000000000202020202020CDC0C3D0D3C7B5
:10419000CAC0202020202020000000002046E2E5A8
:1041A000EDF22EF2E5EAF3F92E2020202020212541
:1041B000000000002046E2E5EDF22E6D61782E2031
:1041C000282020402529202300000000002D000089
:1041D0002020202020C2C5CDD2C8CBDFD2CED02017
:1041E000202020200000000020C2EAEBFEF7E5EDD1
:1041F000202020202020202020202020000000003F
:1042000020C2FBEAEBFEF7E5ED2020202020202055
:1042100020202020000000002054EFF0FFEC2E2092
:1042200020202020307B3A307D3A305B00000000B7
:1042300020D2EEE1F02E20202020202030283A301D
:10424000293A305D0000000020D2EFE5F0E5EAEB0E
:104250002E202020202020303C3A303E000000005C
:104260002049F1F22EEFF02E2020202020202020C7
:10427000202021C0000000002049F1F22EEEE1F0E4
:104280002E20202020202020202040C000000000E0
:104290002055F1F22EEFF02E20202020202020208B
:1042A00020202342000000002055F1F22EEEE1F024
:1042B0002E2020202020202020202442000000004A
:1042C0002020202020C0C2D2CED0C5C2C5D0D1204F
:1042D00020202020000000002020C0C2D2CECCC070
:1042E000D2DB20CDC0C3D0D3C7CECA20000000008F
:1042F00020C0E2F2EEECE0F220B9312020202020B4
:10430000202021200000000020C0E2F2EEECE0F2CC
:1043100020B9322020202020202040200000000052
:1043200020C0E2F2EEECE0F220B933202020202081
:10433000202023200000000020C0E2F2EEECE0F29A
:1043400020B934202020202020202420000000003C
:1043500020C0E2F2EEECE0F220B93520202020204F
:10436000202025200000000020C0E2F2EEECE0F268
:1043700020B936202020202020205E2000000000D0
:1043800020C0E2F2EEECE0F220B93720202020201D
:10439000202026200000000020C0E2F2EEECE0F237
:1043A00020B938202020202020202A2000000000D2
:1043B00020C0E2F2EEECE0F220B9392020202020EB
:1043C000202028200000000020C0E2F2EEECE0F205
:1043D00020B931302020202020202920000000009A
:1043E00020C0E2F2EEECE0F220B9313120202020B2
:1043F00020202B200000000020C0E2F2EEECE0F2D2
:1044000020B931322020202020203D200000000053
:104410006C0000109EEB0720C2DBCACB2E00000010
:10442000FCF7D3FAE87A01283AD06FF003023D2175
:10443000EFE36FF002022121CAA017E66FF002023B
:104440004021C8A01CE66FF002022321C5A021E68E
:104450006FF002022421C3A026E66FF0020225219C
:10446000C0A02BE66FF002025E21BEA030E66FF026
:1044700002022621BBA035E66FF002022A21B9A074
:104480003AE66FF002022821B6A03FE66FF0020282
:104490002921B4A044E66FF002022B21B1A048E626
:1044A0006FF002023D21AFA001F0BBBBAFA00290B4
:1044B000B4A00390B9A00490BEA00590C3A006903C
:1044C000C8480790AFF6C8300890AFF6CC3009F175
:1044D00004090990B9E80E000298FCF746FA97F92A
:1044E000010097F90410421A022A01DD801E01E042
:1044F000884200DA38710120FCF7D3F90AF1580537
:10450000002223212888FCF712F9B7480022242131
:104510004088FCF70CF9B4480222AE382521C06F60
:10452000FBF77FFF00225E21E88857E58FA002900D
:10453000AEA00390B3A00490B8A00590BDA00690D3
:10454000C2A00790C7A008909AA009909FA00A90C7
:10455000A4480B90AFF658400C90AFF65C4009F1C0
:1045600004090D90B9E80E000298FCF7FEF997F9DE
:10457000010097F90410421A022A01DD801E01E0B1
:10458000884200DA38710120FCF78BF9964D002241
:10459000AD1D21212888FCF7CAF868880022402137
:1045A000FCF7C5F8A88800222321FCF7C0F8AD1D50
:1045B000002228882621FCF7BAF8688800222921E1
:1045C000FCF7B5F8A88800222821FCF7B0F8A5F17F
:1045D000BA0003222521C06FFBF723FF00225E21D2
:1045E000BAF85E00FAE4A54810F80800552812D081
:1045F000A3A00290A8A00390ADA00490B2A0059043
:10460000B7A00690BCA00790C1480890012A04DD1D
:1046100087F804C004E0BFA0EBE7A94200DA3971D3
:1046200097F9040004EB800154F820204B68BFA1E7
:10463000C4A0FCF79AF90220FCF733F997F90200BD
:104640000022401C80B25E21FCF771F8664997F9A0
:1046500002004E39002231F810002121FCF767F8E2
:10466000614997F902004A39002231F91000A8493E
:10467000493901EB80004021FCF7A7F95A4997F925
:1046800002004639002231F810002321FCF74FF8D0
:10469000554997F902004239002231F810002421CF
:1046A000FCF745F8504997F902003E39002231F8ED
:1046B0001000252193E4964BA8A0153B1A461146FD
:1046C000FCF753F9484D0023623D082295F900009C
:1046D000012180B2FBF746FF95F90100002380B26B
:1046E00009220121FBF73EFF95F90200002380B269
:1046F0000A220121FBF736FF97F9012005F1C400DA
:10470000A421115402F0B4BA9AA002909FA0039081
:10471000A4A00490A9A00590AEA00690A7A0079021
:10472000B2A00890B7A00990BCA00A90C1A00B90BD
:10473000C6A00C90CBA00D90CFA00E90D3A00F9050
:10474000D8A01090DDA01190E2A01290E7A01390E5
:10475000ECA01490F1A01590F6A01690FBA0179075
:1047600000E20000C2CACB2E000000002020DDCBFA
:10477000C5CAD2D0CED1CDC0C1C6C5CDC8C52020F6
:104780000000000020C2E2EEE420202020202020B3
:1047900023C22020202020200000000020CFDDD1D7
:1047A000202020202020202024C220202020202063
:1047B000000000002050F1F3ECEC2E2020202020FF
:1047C000202025EAC2F22AF7000000002050F2E57E
:1047D000EAF3F92E2020202020205EC2F2202020A3
:1047E00000000000002D00001A02001020C2E2EEBE
:1047F000E420F42E412020202021C220202020204F
:104800000000000020C2E2EEE420F42E422020202E
:104810002040C220202020200000000020C2E2EE24
:10482000E420F42E432020202023C220202020201A
:104830000000000020CFDDD12020F42E41202020D8
:104840002026C220202020200000000020CFDDD123
:104850002020F42E422020202029C22020202020A9
:104860000000000020CFDDD12020F42E43202020A6
:104870002028C2202020202000000000CA000010B4
:1048800020C2FBE2E5E4E5EDE02030212F402020CE
:104890002F3023200000000020CDEEECE8ED2EE5C7
:1048A000ECEA2E202020202024412AF700000000DE
:1048B00020CDE0F0E0E1EEF2EAE020202020202010
:1048C00025F72E200000000020CAEEEDF2F0EEEBFE
:1048D000FC20E5ECEAEEF1F2E820202000000000E8
:1048E00020C2FBF0E0E2EDE8E2E0FEF9E8E920E7D3
:1048F000E0F0FFE40000000020D0E0E7F0FFE4FB80
:104900002020202020202020202020200000000027
:10491000F548010020C2E2E5E4E5EDE02020302189
:104920002F4020202F3023200000000020202020B6
:1049300020C1C0D2C0D0C5DF204E5E202020202064
:104940000000000020C1C0D2C0D0C5C9CDDBC92045
:10495000C6D3D0CDC0CB2020000000002020C2E272
:10496000E5E4E8F2E52020EFE0F0EEEBFC2020208B
:104970000000000020C8F1F2EEF7EDE8EAEEE220D8
:1049800020202020202020210000000020CCE0EA70
:10499000F1E8ECE0EBFCEDE0FF20E4EBE8F22D20A9
:1049A0000000000020F1F2FC20EFF0EEF6E5F1F15E
:1049B000E02020305B3A305D0000000020CEF2EEB7
:1049C000E1F0E0E6E5EDE8E520E2F0E5ECE5EDE834
:1049D0000000000020EFF0EEF6E5F1F1E0202020ED
:1049E00020202020202020400000000020EDE0209A
:1049F000EFF3EBFCF2E520202020202020202023D4
:104A00000000000020C8E7ECE5F0E5EDE8E520F265
:104A1000EEEAE020202020200000000020EDE0E36E
:104A2000F0F3E7EAE8202020202020202020202486
:104A30000000000020D0E5E6E8EC20E3EBE0E2ED4A
:104A4000EEE3EE20ECE5EDFE00000000202020204B
:104A50002020202020202020202020202020202551
:104A60000000000020D4E8EAF1E8F0EEE2E0EDED2D
:104A7000FBE52020202020002020202020202020B6
:104A80002020EDE0F1F2F0EEE9EAE80020D0E5EBDD
:104A9000E520E8EDE4E8EAE0F6E8E8202020202040
:104AA0000000000020F2EEEAEEEEE3F0E0EDE8F7C1
:104AB000E5EDE8FF202020200000000020D0E5F1F7
:104AC000F2E0F0F220202020202020202020205E74
:104AD000000000002045746865726E657420202017
:104AE000202020202020202000000000204D4F44C6
:104AF0004255532041445245535320202020203C0E
:104B000000000000204D4F4442555320424155447F
:104B10005241544520202020000000002020202069
:104B200020202020202020202020202020203E3057
:104B30000000000020C0E2F2EEF0E5E2E5F0F12036
:104B400020202020202020200000000020CFEBE0AB
:104B5000E2EDEEE520EDE0F0E0F1F2E0EDE8E52059
:104B600000000000DFA01890E4481990E4A01A901B
:104B7000E9A01B90EE481C901D90022A01DD3B71BC
:104B800002E0A94200DA397197F9040004EB8001D0
:104B9000D1E9012354F82010E6A0FBF7E6FE01203E
:104BA000FBF77FFEE94D00222121B5F8560080B2C7
:104BB000FBF7BDFD05F5C0763C20B16891FBF0F137
:104BC00091FBF0F200FB121080B200225D21FBF796
:104BD000AEFDB1684FF4616091FBF0F080B200224D
:104BE0005B21FBF7A4FD803E6FF00607B08818B18B
:104BF000BA1C4021D6A002E03A464021D6A0FBF7DD
:104C0000E4FEF0886FF003024FF0230110B1D5A04D
:104C100001E052E0D5A0FBF7D8FEB08920B16FF0DB
:104C200002022421D3A002E03A462421D3A0FBF7BC
:104C3000CCFE95F82C0058B301282ED06FF010024E
:104C400002284FF025012DD0CFA000BFFBF7BDFEFD
:104C500095F82D00012827D06FF003025E21AFF6F2
:104C6000480000BFFBF7B1FEBAF8380000223C2133
:104C7000554680B2FBF75BFD688F00223E2180B273
:104C8000FBF755FDB5F93C00A0B1002228214CE40A
:104C90006FF00B022521C1A0D8E76FF0110225218A
:104CA000C2A0D3E7C6A0D1E76FF002025E21AFF247
:104CB0004C50D7E76FF002022821AFF6A400EFE3D3
:104CC000A24D687A401CC0B268720F2807D300203A
:104CD000761CF1B26872A976032900D3A876BD4884
:104CE000CDE9020EA87E20B1012804D0022818D0F8
:104CF00003E0B9A000E0BEA004907246C2A0049BED
:104D00000299FBF732FE97F9010060B101280FD03C
:104D1000022812D0032815D0042818D005281BD04B
:104D20001EE0BFA0E8E7C4495E2081F82A0017E032
:104D3000C1495E2081F82D0012E0BF495E2081F854
:104D400030000DE0BC495E2081F8330008E0BA492C
:104D50005E2081F8360003E0B7495E2081F83A0012
:104D6000B64E30784FF000024FF02601FBF7DFFC23
:104D7000307900225E21FBF7DAFC307A002225210F
:104D8000FBF7D5FC307B00223C21FBF7D0FC307ECA
:104D9000904900225E3901EB80003E21FBF715FEB1
:104DA000B08B00227B21FBF7C2FCA87D002801F01C
:104DB0005F873A20FBF7ADFA9F4D20262E543A200C
:104DC000FBF7A7FA2E549DE4824A2AAB16325F4DB8
:104DD00007CA07C39AA002909FA00390A4A00490C2
:104DE000A9A00590AEA00690B3A00790B8A0089027
:104DF000BDA00990C2A00A90C7A00B90CCA00C90B7
:104E0000D1A00D90D6A00E90DBA00F90E0A0109046
:104E1000E5A01190EAA01290EFA01390F4A01490D6
:104E2000F9A01590FEA0169034481790B5F87000C0
:104E300040F6180718B1384608F0D4FD20B12F48C5
:104E400003903B48049005907B4E483E96F9010044
:104E500096F90410884201DA307104E0411A0229FF
:104E600001DD801EF8E796F9040004EB8001D1E92A
:104E7000012354F82010F0A0FBF777FD0120FBF789
:104E800010FDB5F8700050B1384608F0ABFD0128B0
:104E900005D06FF002022121AFF2387004E06FF00C
:104EA00003022121AFF69020FBF78FFDB5F87200C9
:104EB00028B16FF002024021AFF2587004E06FF0A9
:104EC00003024021AFF6B020FBF77FFD717823206D
:104ED000022906D05FF00001CDE90001B5F97A3072
:104EE000B6E1F6E120F2EEEAE020202020202020AA
:104EF00020202028F1E5EA2E00000000002D00000F
:104F000020CAE0EBE8E1F0EEE2EAE02020202020F9
:104F1000202020200000000020D2E5F1F220D8C897
:104F2000CC20202020202020202020200000000055
:104F3000003900002020202020D3D1D2C0CDCEC205
:104F4000CAC8202020202020000000006C00001093
:104F5000EFF0FFECEEE50000EEE1F0E0F2EDEEE563
:104F600000000000F7F73AECEC000000ECEC3AF13E
:104F7000F1000000F8F3EDF200000000F1F3ECECBA
:104F800049E1EFF100000000E8F1F22EEDE0EFF072
:104F90002E2DE8F1F22EF2EEEAE00000E8F1F2EE5A
:104FA000F7EDE8EA20F2EEEAE0000000E8F1F2EEC8
:104FB000F7EDE8EA20EDE0EFF0FFE6E5EDE8FF00D1
:104FC000E8F1F22EF2EEEAE02DE8F1F22EEDE0EF5C
:104FD000F02E00000A49010020202020203C3E2025
:104FE0002D20E2FBE1EEF020202020200000000038
:104FF0002020205E76202D20F3F1F2E0EDEEE2EAB3
:10500000E02020200000000020D3D1D2C0CDCEC2AD
:10501000CAC02020C2D0C5CCC5CDC8200000000029
:105020002020202020A420202D20E2FBF5EEE420EB
:1050300020202020000000004C02001020400240F0
:105040002045746865726E65742020202020202021
:1050500020202120000000002044484350EAEBE8D3
:10506000E5EDF2202020202020204020000000003C
:10507000204950E0E4F0E5F12020202020202020ED
:10508000202020200000000020203030302E303042
:10509000302E3030302E3030232020200000000011
:1050A00020CCE0F1EAE020EFEEE4F1E5F2E82020A8
:1050B000202020200000000020203030302E303012
:1050C000302E3030302E30302420202000000000E0
:1050D00020D8EBFEE72020202020202020202020A8
:1050E000202020200000000020203030302E3030E2
:1050F000302E3030302E30302920202000000000AB
:1051000020CFEEF0F22EF7F2E5EDE8FF2020202090
:105110002020205B0000000020CFEEF0F22EE7E020
:10512000EFE8F1E8202020202020205D0000000092
:1051300020436F6D6D756E697479203C20202020AE
:10514000202020200000000020C0E4F0E5F1E0F283
:1051500020E4EBFF2054524150204E31000000006B
:1051600020203030302E3030302E3030302E303065
:10517000252020200000000020C0E4F0E5F1E0F24E
:1051800020E4EBFF2054524150204E32000000003A
:1051900020203030302E3030302E3030302E303035
:1051A0005E2020200000000020C0E4F0E5F1E0F2E5
:1051B00020E4EBFF2054524150204E330000000009
:1051C00020203030302E3030302E3030302E303005
:1051D000262020200000000020C0E4F0E5F1E0F2ED
:1051E00020E4EBFF2054524150204E3400000000D8
:1051F00020203030302E3030302E3030302E3030D5
:105200002A2020200000000020C0E4F0E5F1E0F2B8
:1052100020E4EBFF2054524150204E3500000000A6
:1052200020203030302E3030302E3030302E3030A4
:10523000282020200000000020D3D1D2C0CDCEC233
:10524000CAC82045746865726E657420000000004D
:10525000B5F97820B5F97610B5F97400FBF7C6F901
:1052600071782420042938D05FF00001CDE90001D5
:10527000BAF90230BAF90020B5F97E10B5F97C0010
:10528000FBF7B4F97178292006292AD05FF00001D4
:10529000CDE90001BAF93630BAF93420BAF9321042
:1052A000BAF93000FBF7A2F9BAF82C0000225B2112
:1052B000554680B2FBF73BFAE88D00225D2180B2B3
:1052C000FBF735FAB5F904006FF00D07FF280CD095
:1052D00014E0B178491CC9B2FEE5B178491CC9B2E5
:1052E000C4E7B178491CC9B2D2E7E988FF2905D1E2
:1052F0002989FF2902D16989FF2914D072782521D3
:105300000B2A16D05FF00002CDE90012B5F90A3081
:10531000B5F90820B5F90610FBF768F9B5F90C00E6
:10532000FF280AD012E03A462521FDA0FBF74DFBED
:10533000F4E7B278521CD2B2E6E7E989FF2905D139
:10534000298AFF2902D1698AFF2914D071780D2991
:1053500017D000225E21CDE9001200BFB5F912304E
:10536000B5F91020B5F90E10FBF740F9B5F91400A6
:10537000FF280DD015E03A465E21E9A0FBF725FB9A
:10538000F4E7B178491CC9B25E22CDE90021E5E716
:10539000E98AFF2905D1298BFF2902D1698BFF29D1
:1053A00013D0727826210F2A15D00022CDE90012E1
:1053B000B5F91A30B5F91820B5F91610FBF716F93A
:1053C000B5F91C00FF280AD012E03A462621D4A0E5
:1053D000FBF7FBFAF4E7B278521CD2B2E6E7E98BAE
:1053E000FF2905D1298CFF2902D1698CFF2914D00E
:1053F00072782A21112A16D05FF00002CDE900123E
:10540000B5F92230B5F92020B5F91E10FBF7EEF8FA
:10541000B5F92400FF280AD012E03A462A21C0A09C
:10542000FBF7D3FAF4E7B278521CD2B2E6E7E98C84
:10543000FF2905D1298DFF2902D1698DFF2925D0AA
:1054400072782821132A27D05FF00002CDE90012DC
:10545000B5F92A30B5F92820B5F92610FBF7C6F8BA
:10546000B44A00202AA9135C0B54401CC0B209287E
:10547000F9D300208DF8B1007078B2780A2810D0E6
:1054800000233C212AA8FBF794F89CE43A46282103
:10549000A3A0FBF79AFAE3E7B278521CD2B2D5E7A1
:1054A00078E20123EDE7A4A00290A9A00390AEA0AA
:1054B0000490B348059000F5406006900790A9421B
:1054C00001DA397102E0022A00DD3B7197F904101C
:1054D00004EB8100D0E9012354F82110A9A0FBF7C7
:1054E00044FA0120FBF7DDF9BAF83E0001225B2106
:1054F0000AF13E0580B2FBF71AF9688801225D21A6
:1055000080B2FBF714F9E88A0022282180B2FBF769
:105510000EF900222921288BFEF760BD9FA0029082
:10552000A4A00390A9A00490AEA00590B3A00690FB
:105530009348079000F5406008900990A94201DA6D
:10554000397103E0012A01DD87F804C097F90400EE
:1055500004EB800154F820204B68AEA1AFF22C6020
:10556000FBF703FA0220FBF79CF9B04890F82E00F5
:1055700030B16FF00502012807D0022808D00BE0F7
:105580006FF002022121AA4804E02121A9A001E034
:105590002121ABA0FBF719FAAC4D00224021E8898C
:1055A00080B2FBF7C4F8288A0022232180B2FBF7DF
:1055B000BEF8688A00223C2180B2FBF7B8F80022CE
:1055C0003E21A88AA8E7A2A00290A7A00390ACA0C1
:1055D0000490B1A005906A48069000F540600890DC
:1055E0000990A94201DA397103E0012A01DD87F847
:1055F00004C097F9040004EB800154F820204B68A4
:10560000ABA1B1A0FBF7B1F90220FBF74AF90AF10F
:1056100072050122E888212180B2FBF788F82889E9
:105620000122402180B2FBF782F828880122232141
:1056300080B2FBF77CF80122242168886CE7A8A0DF
:105640000290ADA00390B2A00490B7A00590774857
:105650004B4EA942B0F95A0044F8206004EB800098
:1056600006F5406646608660C66001DA397102E080
:10567000022A00DD3B7197F9040004EB8001D1E9B7
:10568000012354F82010AFF25470E6E2397102E0C1
:10569000022A00DD3B7197F9040004EB8001D1E997
:1056A000012354F82010A6A0FBF75FF90120FBF7B7
:1056B000F8F897F902000022401C80B22121FBF784
:1056C00036F8624897F9021054304FF00002405CFF
:1056D0004FF04001012801D09FA000E0A0A0FBF7FF
:1056E00074F95A4897F90210C0304FF0000230F8B0
:1056F00011004FF0230180B19BA000BFFBF765F9BB
:10570000524897F90210D0306FF0010230F81100C2
:105710004FF05D0110B196A02FE153E12CE10000A4
:1057200020202020EDE5E0EAF2E8E2E5ED2020206F
:10573000200000000200001020553D202020205BAA
:10574000C22020493D202020205DC0200000000014
:1057500020D8C8CC20EDE0EFF0FFE62E3D20202041
:10576000202028200000000020D8C8CC20F2EEEA3B
:10577000E03D2020202020202020292000000000C3
:10578000002D0000202020202020D2C5D1D220D8FA
:10579000C8CC2020202020200000000020D1E8E3F9
:1057A000EDE0EB20202020202020202020202120A0
:1057B000000000002054E7E0E42EE2EAEB2E202077
:1057C0002020202040F1E5EA000000002054E7E01E
:1057D000E42EF1F0E0E12E202020202023F1E5EA64
:1057E00000000000206455202020202020202020C0
:1057F000202020203C25202000000000206449209B
:105800002020202020202020202020203E25202075
:1058100000000000D0C5CBC520D2CECACECEC3D0AA
:10582000C0CDC8D7C5CDC8DF000000006C00001097
:1058300018440000C2CACB2E28CDC72900000000A2
:10584000C2CACB2E28CDD029000000006C01001068
:105850002055322020202020202020202021C2205E
:105860002020202000000000205533202020202070
:10587000202020202040C2202020202000000000E6
:1058800020493209202020202020202020234120D0
:105890002020202000000000204933092020202063
:1058A0002020202020244120202020200000000053
:1058B0002020202020CDC0D1D2D0CEC9CAC82020DF
:1058C0002020202000000000202020D4C8CAD1C8F9
:1058D000D0CEC2C0CDCDDBC52020202000000000EE
:1058E00020D1F3F5EEE920EAEEEDF2E0EAF220B99C
:1058F000312020200000000020D1F3F5EEE920EA5D
:10590000EEEDF2E0EAF220B93220202000000000A3
:1059100020D1F3F5EEE920EAEEEDF2E0EAF220B96B
:10592000332020200000000020D1F3F5EEE920EA2A
:10593000EEEDF2E0EAF220B9342020200000000071
:105940002020D1D3D5CEC920CACECDD2C0CAD22034
:105950004E21202000000000F0E0E7EEECEA2E00EF
:10596000E7E0ECEAEDF3F200EDE5E7E0ECEA2E002B
:10597000E2FBEAEB2E000000EDA0FBF726F897F91A
:105980000210ED4830F811000EE100BF6FF0010287
:105990002821E7A045E100BF6FF001022821AFF206
:1059A00030003EE1E5A00290EAA00390EFA0049051
:1059B000F4A00590F9A00690FE480790A942BFF612
:1059C00067AE63E6AFF2680098E6DCA00290E1A063
:1059D0000390E6A00490F8A00590F0A00690F5488A
:1059E0000790A94201DA397102E0022A00DD3B7119
:1059F00097F9041004EB8100D0E9012354F8211039
:105A0000F3A0FAF7B2FF0120FAF74BFFCA484FF0B4
:105A1000000284384FF04001407801281AD0AFF2DC
:105A2000C80000BFFAF7D1FFC3484FF00002183892
:105A30004FF02301408880B1AFF2D400FAF7C5FFE0
:105A4000BD486FF0010210384FF05B01408838B15B
:105A5000B7A007E0AFF2F800E4E7AFF2FC00EDE733
:105A6000AFF2F400FAF7B1FFB348408850E0B3A0BA
:105A70000290B8A00390BDA00490CFA00590C7A04D
:105A80000690CC480790A94201DA397102E0022A57
:105A900000DD3B7197F9041004EB8100D0E901238C
:105AA00054F82110D0A0FAF760FF0120FAF7F9FEB0
:105AB000A1484FF0000284384FF04001807801285F
:105AC0001AD0AFF26C1000BFFAF77FFF9A484FF080
:105AD000000218384FF02301808880B1AFF27810AF
