:020000040000FA
:1000000020310820E1000000E5000000E7000000CA
:10001000E9000000EB000000ED000000000000001F
:10002000000000000000000000000000EF000000E1
:10003000F100000000000000F300000019D60000ED
:10004000F700000085F30000B1F30000F7000000A6
:10005000F700000023100100F7000000F700000087
:10006000F7000000F7000000F7000000F7000000B4
:10007000F7000000F7000000F7000000F7000000A4
:10008000F7000000F7000000F7000000F700000094
:10009000F7000000F70000009D2B0000F7000000B3
:1000A000F7000000FB0D0100F7000000F700000062
:1000B00075500100F7000000F7000000F700000095
:1000C000F7000000F7000000F7000000DFF80CD098
:1000D00015F0AEF800480047A3D7000020310820F3
:1000E00005480047FEE7FEE7FEE7FEE7FEE7FEE71E
:1000F000FEE7FEE7FEE7FEE7CD000000FEE710B5F5
:1001000016F042FF16F0CEFF16F0C0FF16F04EFFBD
:10011000AFF30080BDE8104016F08ABF10B517F0AD
:100120009BFD18F0DDFA17F0EFFDBDE8104017F069
:1001300067BF17F0AFBC17F077BA09B1002070475E
:1001400015F0CCBF0020704770B5374A0020A2F1EF
:100150001401064601F10A030C5C54B11D5CAC426B
:1001600007D1145C2CB1641E14F0FF04145400D1A8
:100170000E540C5C1C54401CC0B20A28ECD370BD59
:1001800070B5294D0024143D641CE4B22E5D1EB1EF
:10019000864201D00A2CF7D3285523480C3040F86A
:1001A0002410283040F824203438035570BD1E4AEE
:1001B0000021143A491CC9B2535C834201D00A2978
:1001C000F8D3DBB2834210D117480C3050F82130FD
:1001D00016480360144B343353F821304360002039
:1001E0005054114A505401207047002070470E4A65
:1001F0000021143A491CC9B2535C834201D00A2938
:10020000F8D3DAB282420CD107480C3050F82120E2
:1002100006480260044A343252F82110416001203D
:100220007047002070470000E46D001008000010C7
:100230000A4BDA6018705970704708490881704796
:100240000648B0F90810002907D0491E09B20181FB
:10025000002902D1084600F01BBB704710000010B7
:1002600090F900308B4200DA027090F9003093422E
:1002700000DD0170704790F900308B4200DA0170A8
:1002800090F90010914200DD02707047B0F9003023
:100290008B4200DA0180B0F90010914200DD02804B
:1002A0007047B0F900308B4200DA0280B0F90030BC
:1002B000934200DD0180704703888B4200D20180A9
:1002C0000188914200D90280704740EA01039B07F0
:1002D00003D009E008C9121F08C0042AFAD203E0BB
:1002E00011F8013B00F8013B521EF9D270470000A3
:1002F00000487047309D010070477047FFFFFFFFC7
:10030000002801DA404200B270470020FF4A202155
:100310001154401CC0B2C828FAD370470146FB4AAA
:100320000020401CC0B2135C8B4201D0C828F8D317
:10033000704710B50021F64C0A2200BFB0FBF2F363
:1003400002FB13006054491CC9B218460529F5D3B5
:1003500010BDF0B5EF4B0121202719700521EC4AA3
:10036000002601E01C7844B1541814F8015C25B94A
:10037000814202D904F8017C05E0541814F8015DAB
:10038000303525701E70491E11F0FF01EAD1F0BD15
:10039000FEB52B23002801DA40422D2300250A2632
:1003A0006C46074690FBF6F006FB107767556D1C10
:1003B0006DB20A2DF5DB012600250920202700E07B
:1003C00046B114F800C0BCF1000F03D1904201DD2A
:1003D000275405E0265C3036265400266D1CEDB20D
:1003E000401E40B20028EBDA2D2B02D163556D1C64
:1003F000EDB26AB168B205E0231813F8013C23544A
:10040000401E40B29042F7DC2E206D1CA054EDB28D
:100410000846FFF783FF0021BC4A04E0635C461AEC
:10042000491C935549B2A942F8DBFEBDFEB52B2607
:10043000002801DA40422D2600240A276D46844612
:1004400090FBF7F007FB10CC05F804C0641C64B205
:100450000A2CF4DB0127002009244FF0200C00E0D7
:100460004FB115F804E0BEF1000F04D19C4202DD4B
:1004700005F804C005E02F5D30372F550027401CDC
:10048000C0B2641E64B2002CEADA2D2E02D12E54C2
:10049000401CC0B26BB144B205E02E1916F8016CD5
:1004A0002E55641E64B29C42F7DC2E24401CEC5492
:1004B000C0B201EB810102EB8101CAB20021934B72
:1004C00004E06C5C561A491C9C5549B28142F8DB29
:1004D000FEBD70B50D4616461C46FFF72AFF601C90
:1004E000C0B2FFF736FF05EB850006EB8000C1B216
:1004F000874A864B0020A04201D2155C5D5406D38A
:10050000155C202D03D04CB15E1806F8015C491E25
:10051000401CC0B2C9B20528EDD370BD5D54F6E7EA
:1005200070B50446084615461E46FFF7F7FE774BA2
:100530000146FF2804D106E01A54641C401CC0B2D6
:100540002278002AF8D174480078002804D0002EC0
:1005500002D029445F20585470BD2DE9FF4F8146D9
:10056000DDE90D048A469346FFF7D8FE2022DFF826
:10057000A88166490A234FF0640C012C09D198F830
:10058000005035B10D18A5F10E05AA706A702A70D9
:1005900020E099FBF3F603FB16970D183037A5F111
:1005A0000E05022CAF7096FBF3F703FB176606F1FE
:1005B00030066E7099FBFCF606F1300605F80E6BFE
:1005C00008D198F800602EB1A5F10A05AA706A70EA
:1005D0002A7021E09AFBF3F603FB16A70D183037BB
:1005E000A5F10A05032CAF7096FBF3F703FB176622
:1005F00006F130066E709AFBFCF606F1300667468F
:1006000005F80A6B08D198F800602EB1A5F106052F
:10061000AA706A702A7022E09BFBF3F603FB16B700
:100620000D183037A5F10605042CAF7096FBF3F7D3
:1006300003FB176606F130066E709BFBFCF606F1B5
:100640003006674605F8066B09D198F8004034B1CA
:10065000A5F102050A546A702A70BDE8FF8F039C59
:1006600094FBF3F203FB124430340C5492FBF3F48A
:1006700003FB14220844A0F10200303242700399B7
:1006800091FBF7F101F130010170E6E770B50D461D
:100690001446FFF74EFE601CC0B2FFF75AFE284614
:1006A000FFF73CFE1A4B194A002124B95D5C202D4E
:1006B00001D015540FE0A14201D25D5CF9E704D1ED
:1006C0004FF02E0515545D5C02E05D5C202D02D0DC
:1006D000161806F8015C401E491CC9B2C0B20529B3
:1006E000E3D370BD17B501EB810002EB8000C2B20D
:1006F0009DF80030094803F00F0100EB1313445C30
:1007000002498C54521ED2B21B7809E02E0200100E
:10071000C2C00720C7C007203A000010429601005F
:100720008B549DF80130521E03F00F04D2B2045DC9
:100730008C54521E00EB1313D2B21B788B549DF8CD
:100740000230521E03F00F04D2B2045D8C54521ECC
:1007500000EB1313D2B21B788B549DF80330521E5A
:1007600003F00F04D2B2045D8C54521E00EB131040
:10077000D2B2007888541EBD01EB810102EB8101E9
:10078000824A10B500F00F03C9B2D45C804B02EB73
:1007900010105C54491EC9B20078585410BD01EBCA
:1007A000810102EB8101CBB2784910B500F0010262
:1007B0008C5C774AD45444085B1E04F00100DBB221
:1007C000085CD0545B1ED8B2630803F001045B08D8
:1007D0000C5D1454401E03F00104C0B20C5D1454AF
:1007E0005B08401E03F00104C0B20C5D14545B08AA
:1007F000401E03F00104C0B20C5D14545B08401E9F
:1008000003F00104C0B20C5D1454401EC4B2580879
:10081000085C105510BD30B55E4901235C4D91F95F
:10082000012091F9041000EB80048A4202D105F8FE
:10083000243030BD564D4C1C00EB800005EB800091
:10084000A24201D1037530BD8C1CA24202D180F8B6
:10085000283030BDCC1CA24202D180F83C3030BDE3
:100860000C1DA24202D180F8503030BD4C1DA24276
:1008700002D180F8643030BD8C1DA24202D180F8D4
:10088000783030BDC91D8A42FBD180F88C3030BD34
:10089000414B1A88521E104400B218803F4A00EBA8
:1008A000800002443B481368036012790271427869
:1008B000114441707047F0B5374D384FB5F90040DD
:1008C00004EB8406641C2C80324C3E442568356061
:1008D00025793571207061702271A370F0BDF0B57B
:1008E00005460E461746FFF710FD294C5FF0000045
:1008F000401C15F8011BC0B204F8011B1428F7D3E3
:100900005FF00000401C16F8011BC0B204F8011B88
:100910001428F7D35FF00000401C17F8011BC0B289
:1009200004F8011B1428F7D35FF00000401C13F8F3
:10093000011BC0B204F8011B1428F7D3F0BD30B579
:10094000044608461546FFF7E9FCFF2809D0104A7F
:100950002178002905D04319641C401CD154C0B231
:10096000F6E730BD10B5029CFFF7B9FF0948C37820
:10097000827841786520FFF79EFF642094FBF0F0B9
:10098000BDE81040C0B2FFF758BC0000429601001D
:100990002E020010EC0100105A000010406E0010F2
:1009A000F0B5FD48FD494FF4FA72B0F90000B1F915
:1009B0000010FB4B484390FBF2F01880F64841F2E0
:1009C00088332030FC4DB0F90000484390FBF2F032
:1009D000F449F84A0880F549F3480C68F44900885E
:1009E000B1F90010001B484390FBF3F01080001B8E
:1009F000484390FBF3F02880F048F24B0188F04820
:100A0000B0F9004081B90020014609E0C1EBC10600
:100A100006EB460603EB8606491C366AC9B230442B
:100A2000A142F3DB10802880B2F9000000210028E9
:100A300000DA11805FF00002C2EBC20000EB400060
:100A400003EB8000C578192D1BD28579C67905EB9B
:100A500006260662067A477A06EB0726C661867A7C
:100A6000C77A06EB07268661067B466280F84E5001
:100A7000857B80F83E50057C467C05EB0625856429
:100A800006E081610162C161416280F83E108164CB
:100A9000521CD2B2202ACFD3CB48CC490088604325
:100AA0000880CB48CB49008860430880F0BDCA4825
:100AB000416821F4402141F480214160416821F4E2
:100AC000403141F480314160416821F4404141F4BA
:100AD00080414160416C21F4402141F40021416496
:100AE000416C21F4403141F400314164416C21F406
:100AF000404141F400414164B848016821F0E0619F
:100B00000160016841F400110160016821F4803145
:100B10000160016821F47F4141F480710160811519
:100B2000C160AF48890301607047F0B59A4DAD4888
:100B3000AD49B5F9147040F6AC5690F90F2000237A
:100B40000C684FF0010CB74207DA142A02DA02F1FE
:100B5000010204E004DDC3730DE062B1521EC273F2
:100B600090F90F20132A04DB80F811C024F0010251
:100B700004E0022A03DC437444F001020A60994A4B
:100B8000B5F90A4092F91020B44207DA142A02DAC1
:100B900002F1010204E004DD03740EE06AB1521EAA
:100BA000027490F91020132A05DB80F812C008683F
:100BB00020F0020005E0022A04DC8374086840F09B
:100BC00002000860F0BD2DE9F041864C36346088A3
:100BD0002188401A00B201F09DFFA51D2880A08841
:100BE0006188401A00B201F095FF6880A0882188D2
:100BF000401A00B201F08EFF4FF496727949A88036
:100C0000904201DAA0880AE0B5F90200904201DAC8
:100C1000608804E0B5F90000904201DA208848833A
:100C20004C7800231CB35C48B1F91A2040300568A9
:100C30001544056045681544456085681544856020
:100C4000C5682A44C2604A8C521C12B24A84B2F56A
:100C5000805F00DB4B84B1F92220950535D19212DB
:100C600050F822502D120D8340F822302DE05F4FB6
:100C7000887891F803C007EBC012B1F91AE042F886
:100C80002CE05FEA8C7212D100252A4607EBC016D1
:100C900056F82270521CD2B23D44202AF8D36A1171
:100CA0003D4D25F8102005F1200222F810E0401CEF
:100CB000C0B28870102808D30CF1010C0CF0FF00B2
:100CC0008B70C870202800D3CB70641C0B7014F09C
:100CD0000100424A487005D0106820F0FF00001D56
:100CE000106034E0897808070028106820F0FF00C1
:100CF00002DB00F1010001E000F1020010603C485D
:100D0000036843F080530360036A43F08043036247
:100D1000036E43F080630366CB07436908D043F05A
:100D2000805343618B07436B05D423F0804304E079
:100D300023F08053F5E743F0804343634907416F55
:100D400002D421F0806101E041F0806141671068C8
:100D500040F080701060BDE8F0812DE9F04F25492A
:100D6000B1F9000018B1A0F101000880E5E00A2007
:100D7000088021490023DFF884B0DFF884800B70FD
:100D800064208BF8000088F800000D481A46B0F97E
:100D900000400C4844E00000706D00106203001039
:100DA000FC000010C0C0072076230010B403001020
:100DB000D2C00720FE000010AC0300104E0100104E
:100DC0007A000010A8E30720280100104A01001053
:100DD0002A0100104C01001000C0024000400340F6
:100DE00000E100E010C00720AC01001070650010A9
:100DF00000C0092078C00720FCC00720E5030010D0
:100E0000FDC00720C2EBC20505EB450500EB8505DB
:100E1000ED78142D02D20D786D1C0D70521CD2B2DB
:100E2000A242EFDB09788A4602294CD3F849897A35
:100E3000002948D0F74A41F28831DFF8DCC311605D
:100E4000F64DCCF8003000212B601FE0C1EBC1064D
:100E500006EB460600EB8606B778012F14D1366AFA
:100E6000DCF80070B146BE4203DDCCF8009088F893
:100E700000101768B94503DAC2F800908BF800102B
:100E80002F6809EB07062E60491CC9B2A142DDDBC1
:100E90002E6896FBFAF5E24E35601668012506B914
:100EA0001560DCF80060642712687E4396FBF2F25E
:100EB000DFF870C3DC4EA02ACCF8002000DD3570CE
:100EC000782A01DA337038E03278012A35D1D74AEE
:100ED0001678EEB1137098F80020A24209DAC2EB3E
:100EE000C20202EB420200EB820232F8503F5B1E6C
:100EF0001380C1EBC10101EB410100EB81006FF0F8
:100F00003102B0F95010914211DAA0F8502014E0EB
:100F100015709BF80020A242EBDAC2EBC20202EB92
:100F2000420200EB820232F8503F5B1CE0E73229BC
:100F300003DD4FF03201A0F8501000BFBDE8F08F84
:100F400010B50021D0200EF09AFF0021BDE810401E
:100F5000D4200EF094BF70B5B54CB648002521786A
:100F600051B3B549098839B3B44A0168B2F90020D0
:100F700011440160B1F5616F1FDBB14EA1F56161F4
:100F80000160316840F61C40491C31600EF077FF6B
:100F9000AC493068B1F9001088420EDB2570FFF7CC
:100FA000CFFF00231A4601217A20FFF784FCBDE819
:100FB00070400020FFF741B9056070BD70B59C4CD2
:100FC000A14AA24825780021F5B3A14B1B88DBB3C9
:100FD000A04EB0F90030B6F90060B34202DA5B1CF3
:100FE000038070BD0020012D02D0022D02D004E04C
:100FF000994800E09948B0F90000994BB3F90030E6
:101000005843642390FBF3F0964B00B218808B4B4F
:10101000B3F90030834216DA1088401C00B2108009
:10102000914AB2F900209042DBDB2170FFF788FF84
:1010300000231A4602217A20FFF73DFCBDE87040EC
:101040000020FFF7FAB800E001E0118070BD0180D8
:10105000F9E72DE9F05FDFF8D881DFF810B2844DB1
:1010600098F80000DFF80CA20126834F00244FF40B
:101070001679012862D181480168491C91FBF9F277
:10108000016009FB121030B97D480078012802D1B7
:10109000D0200EF0F4FEDAF80010504609B1491ED7
:1010A000016008467749B1F9001008430CD188F86F
:1010B0000040FFF745FF00231A4619467A20FFF744
:1010C000FAFB0020FFF7B9F86F48008888B3BBF837
:1010D000000070B36D4B1888401C01B26C48198039
:1010E000027832B1012A0BD0022A14D0032A1AD076
:1010F00024E0684A2E70128891421FDB06701CE0C3
:10110000B7F90020914201DA2E7000E02C7015DB57
:101110004FF0020105E0604A2C70128891420DDB0D
:101120000321017009E0B7F90020914202DA2C7026
:1011300001E003E02E7001DB04701C8098F80000D1
:10114000022857D14D480168491C91FBF9F2016012
:1011500009FB121030B94A480078012802D1D42086
:101160000EF08DFEDAF80010504609B1491E0160FC
:1011700008464A49B1F9001008430CD188F80040EC
:10118000FFF7DEFE00231A4619467A20FFF793FB8D
:101190000020FFF752F83C48008800282AD0BBF80E
:1011A0000000002826D039480188491C0AB2384975
:1011B00002800B785BB1012B10D0022B1CD0032BCB
:1011C00018D1B7F900309A421EDA2C701DE0314B6D
:1011D0002E701B889A420DDB0E700AE0B7F90030C2
:1011E0009A4201DA2E7000E02C7003DB4FF002020D
:1011F00008E00480BDE8F09F274B2C701B889A42C2
:10120000F8DB03220A70F4E72E70F3DB0C70F0E7D2
:1012100010C00720F4C00720D8030010DC03001022
:10122000F8C00720E0030010E4030010E6030010FC
:1012300027000010ECC00720E6000010FE000010A0
:10124000E8010010E8000010F0C00720D4030010EF
:10125000EA000010F0000010700100103E010010C4
:10126000EC000010F2C00720F20000107C0100101A
:1012700029000010E001001082010010DC010010C4
:1012800050000010400100107A010010E6C0072055
:101290002A0000107E0100108001001042010010A1
:1012A00070B5F8480078032843D1F749F7480A6831
:1012B000521C0A60B0F90050F548B0F900002B1834
:1012C000F448B0F900001C18F348B0F900002618E3
:1012D0000020964204DCF14E08603288521C3280B5
:1012E0000968EF4E0122A94201DB327000E0307044
:1012F000EC4D8B4203DC8C4201DD2A7000E028704B
:10130000E9490A88521C12B20A80B2F5167F10DB36
:101310000880E6490A88521C12B20A803C2A08DB7F
:101320000880E3490A88521C12B20A80182A00DB9E
:10133000088070BD0121D0200EF0A1BD0121D42074
:101340000EF09DBD70B5DB48008802280AD1DA484E
:101350000188DA48B0F9000011B1012829D001E074
:10136000401C26D0C748012500240570D448D64922
:101370000460D44800680860FFF7DCFFD3480572BA
:1013800044728472D248008840B1D248008828B1A3
:10139000D1480480D1480470D1480570D148214615
:1013A0000460D1480460BDE8704040F61C400EF077
:1013B00066BD70BDBF4810B5008802280AD1BE487E
:1013C0000188BE48B0F9000011B101282AD001E01F
:1013D000401C27D0AB49022000240870B848BA4905
:1013E0000460C24800680860FFF7A8FFB748012101
:1013F000017244728472B648008840B1B5480088D2
:1014000028B1B5480480B5480470B5480170B548A6
:1014100021460460B4480460BDE8104040F61C401A
:101420000EF02DBD10BD97490320087070479549F7
:101430000020087070479349002008707047AC483E
:10144000B0F9001011B1491E01807047A949002070
:101450000880A949088070478A49002008708A4995
:1014600008608E490880904908809049088090491A
:101470000880704783490020087061E52DE9F0413C
:10148000002406464FF4FA75A046274628460EF07B
:10149000FFFBB04229DA00BF05EB47000EF0F8FB76
:1014A000B04200DC3C460A373FB2C82FF4DDC82CFE
:1014B0000EDA04F10A0708E005EB44000EF0E8FB41
:1014C000B04200DCA046641C24B2BC42F4DB0CE059
:1014D0005FF0C80405EB44000EF0DAFBB04200DC1C
:1014E000A046641C24B2CA2CF4DD404633E42DE946
:1014F000F041002406464FF47A75A0462746284658
:101500000EF0C6FBB04228DA05EB47000EF0C0FB38
:10151000B04200DC3C460A373FB2C82FF4DDC82C8D
:101520000EDA04F10A0708E005EB44000EF0B0FB08
:10153000B04200DCA046641C24B2BC42F4DB0CE0E8
:101540005FF0C80405EB44000EF0A2FBB04200DCE3
:10155000A046641C24B2CA2CF4DD4046C6E72DE93F
:10156000F05FDFF89891664F664E99F80000664C80
:10157000322542F2ED784FF0000A40F2FE3B462859
:101580002AD13078012858D12088401C00B2208010
:10159000404509DB86F800A05C49AC200EF035FC24
:1015A00000210846FFF774F95949A1F800B0B4F9D1
:1015B000001091FBF5F005FB101100EB80023A8062
:1015C000312909D14FF4FA7101EB4000514900B2C1
:1015D000B1F900100EF019FC99F8000045282CD143
:1015E0003078012829D12088401C00B22080404555
:1015F00009DB86F800A04549AE200EF006FC00216C
:101600000846FFF745F9A7F800B0B4F90010404BC1
:1016100091FBF5F005FB101100EB80021A803129D7
:101620000BD14FF47A7101EB40003B4900B2B1F9A4
:101630000010BDE8F05F0EF0E8BBDBE52DE9FC5FD4
:101640002348DFF840A00088C8B122480088B0B124
:1016500032489AF80030B0F900102148012B007888
:1016600007D02F4A022BB2F9002062D02D48028009
:1016700003E0012801D018B17AE02B4877E061E05F
:1016800054E056E027000010E40100108E01001025
:101690009001001092010010940100109A010010B6
:1016A000D2030010EAC00720CE030010E8C00720D4
:1016B000D0030010E2000010E4000010160100103A
:1016C000DC010010D4010010E001001010C0072060
:1016D0007A0100107C010010E6C007202A000010EB
:1016E00029000010ECC00720E8010010D80100100C
:1016F000FEC00720BC030010D8C00720EC0100107A
:1017000010010010280000105C000010CDABFFFF9E
:1017100012010010FC000010FE00001084010010F7
:10172000880100107201001070010010FA48018851
:10173000A3E7012801D018B11AE0F848028017E0A9
:10174000F74812E0F748B0F90000022868D00128F5
:1017500068D0F5480188F5480180F548B0F90000E7
:10176000022861D0012861D0F2480188EB4801804D
:10177000F1480021B0F90020EC48FEF787FDEF4862
:101780000021B0F90020E548FEF780FDEC4E002571
:101790004FF0010970790A2812D2401CC0B2707152
:1017A0000A280DD3757186F80690F1794846052907
:1017B00006D2491CC9B2F171052901D3F571F07245
:1017C000E048E14BE14990F800C0E14CE14F40F2C4
:1017D000FE38BCF1310F2BD0BCF12B0F74D0BCF113
:1017E0002C0F71D0DC4ADD49BCF1340F6DD0DC48E0
:1017F000BCF1460F6AD0BCF1450F68D09AF80000E2
:10180000DFF860A3DFF860B3012870D002286FD042
:1018100003286ED01D7000204B46B7F90010F3E38B
:10182000D24897E7D24895E7D2489EE7D2489CE74E
:1018300090F9010038B101281FD01D70E5622563C1
:1018400084F828900CE2A6F81480A6F8168083F895
:10185000009040460021B7F900200BE0C1EBC10326
:1018600003EB430304EB8303491CD862186383F83A
:101870002850C9B29142F1DBF2E1087810B1012899
:1018800017D0EDE1B582F5821D7000204B46B7F907
:1018900000100BE0C0EBC00202EB420204EB82023C
:1018A000401CD562156382F82830C0B28842F1DB53
:1018B000D6E1A6F81480A6F8168083F8009040467A
:1018C0000021B7F900200FE014E057E16DE19AE143
:1018D000C1EBC10303EB430304EB8303491CD86250
:1018E000186383F82850C9B29142F1DBB8E1B8E13E
:1018F00083E274E390F9012022B1032A02D0062A80
:101900005BD061E0A6F81480A6F8168004F12804E4
:1019100083F800906560A56084F80090A565E56592
:1019200084F85490C4F8AC50C4F8B05084F8A8902F
:10193000C4F80051C4F8045184F8FC90C4F8545120
:101940004A46C4F8585184F85021C4F8A851C4F844
:10195000AC5184F8A421C4F8FC51C4F8005284F8B6
:10196000F821C4F85052C4F8545284F84C22C4F8F8
:10197000A452C4F8A85284F8A022C4F8F852C4F8BB
:10198000FC5284F8F422C4F84C53C4F8505384F841
:101990004823C4F8A053C4F8A45384F89C2390F9B6
:1019A0000200A4F12804C0EBC00000EB400004EBEF
:1019B00080004146C1620163ABE0097811B10129A1
:1019C0004DD04DE1B582F58204F128041D706560AB
:1019D000A56084F80090A565E56584F85490C4F886
:1019E000AC50C4F8B05084F8A890C4F80051C4F8C2
:1019F000045184F8FC90C4F85451C4F8585184F848
:101A00005091C4F8A851C4F8AC5184F8A491C4F81A
:101A1000FC514846C4F8005284F8F801C4F850520A
:101A2000C4F8545284F84C02C4F8A452C4F8A85222
:101A300084F8A002C4F8F852C4F8FC5284F8F40206
:101A4000C4F84C53C4F8505384F84803C4F8A05366
:101A5000C4F8A45384F89C03A4F12804BEE3A6F8B8
:101A60001480A6F8168004F1280483F800906560BD
:101A7000A56084F80090A565E56584F85490C4F8E5
:101A8000AC50C4F8B05084F8A890C4F80051C4F821
:101A9000045184F8FC90C4F854514946C4F8585194
:101AA00084F85011C4F8A851C4F8AC5184F8A411BA
:101AB000C4F8FC51C4F8005284F8F811C4F850522C
:101AC000C4F8545284F84C12C4F8A452C4F8A85272
:101AD00084F8A012C4F8F852C4F8FC5284F8F41246
:101AE000C4F84C53C4F8505384F84813C4F8A053B6
:101AF000C4F8A45384F89C1390F90200A4F12804BC
:101B0000C0EBC00000EB400004EB80004246C26224
:101B1000026380F8285061E3860100107201001012
:101B20008A010010740100103001001070010010D3
:101B300076010010360100104A0100102401001047
:101B400010C00720EC01001076C007203E000010F6
:101B5000A8E307207A000010100100101201001005
:101B600028000010B2030010D0C00720340100107C
:101B7000320100103A01001038010010B1F900C024
:101B80000020B2F90020B7F900100BE0C0EBC00351
:101B900003EB430304EB8303401CC3E90B2C83F8E2
:101BA0002850C0B28842F1DB18E3007801284FF0DA
:101BB000000012D04146B7F900200BE0C0EBC00393
:101BC00003EB430304EB8303401CD962196383F8DE
:101BD0002850C0B29042F1DB00E3B1F900C0B2F985
:101BE0000020B7F900100BE0C0EBC00303EB430388
:101BF00004EB8303401CC3E90B2C83F82850C0B2CC
:101C00008842F1DBEAE2007801284FF0000012D0B0
:101C10004146B7F900200BE0C0EBC00303EB4303E0
:101C200004EB8303401CD962196383F82850C0B2C7
:101C30009042F1DBD2E2B1F900C0B2F90020B7F96D
:101C400000100BE0C0EBC00303EB430304EB830382
:101C5000401CC3E90B2C83F82850C0B28842F1DB4A
:101C6000BCE2FB48B0F9001051B1FA4803688B425E
:101C700006DAF94AB2F90000584390FBF1F01080FF
:101C8000B07998B3F548008840B1F548008828B18C
:101C9000F4480078012836D0032834D0F248B0F94F
:101CA0000010ED48B0F90000814206DABBF80010E0
:101CB00001F10101ABF8001006E005DDBBF8000002
:101CC000A0F10100ABF8000032225142E748FEF7D4
:101CD000DDFAE748B0F90010E648B0F900008142AB
:101CE00005DABAF8001001F1010105E00BE005DDAD
:101CF000BAF80010A1F10101AAF8001032225142F5
:101D0000DD48FEF7C3FADB48DC49B0F90000B1F961
:101D10000010C0EB4020400090FBF1F00090CE4856
:101D2000D749B0F90000B1F90010C0EB40204000E5
:101D300090FBF1F08046AC200DF0AAFFA0F52B41FE
:101D4000CD3907D1CB48B0F90000FFF797FB00EB86
:101D500080000090AE200DF09BFFA0F52B41CD3907
:101D600007D1BD48B0F90000FFF7C1FB00EB8000D0
:101D700080460020B7F900C03CE0B849098841B16D
:101D8000B749098829B1B7490978012910D0032931
:101D90000ED000990AB2BAF900105218C0EBC00177
:101DA00001EB410104EB8101CA620CD5CD620FE069
:101DB000C0EBC00101EB410104EB8101CD620D6379
:101DC00081F8289014E040F2FE339A4200DDCB62A5
:101DD000BBF900200FFA88F39A180A6301D50D6346
:101DE00004E040F2FE339A4200DD0B6381F8285094
:101DF000401CC0B26045C0DBF0E1A24BB3F900006B
:101E0000052802DD86F8099000E07572DFF878C2D7
:101E10006422BCF9001091FBF2F20092002A01DC6E
:101E200001220092401A00B2FEF76AFA009909B244
:101E3000884202DA86F80A9000E0B5723572B07A0C
:101E400078B1F07AB0B38F48F572B0F900108E48CF
:101E5000B0F90000814229DB2EDC31E0AAF8001045
:101E60002EE0B07930B3707A20B37F48B0F900101B
:101E70008648B0F90000814204DABBF8001001F195
:101E8000010104E005DDBBF80010A1F10101ABF890
:101E90000010322251427548FEF7F8F97948B0F93E
:101EA00000107948B0F90000814204DABAF8001055
:101EB000491CD3E709E003DDBAF80010491ECDE75D
:101EC000322251426C48FEF7E1F96F484FF46171DC
:101ED000B0F9000048436949B1F9001090FBF1F0F6
:101EE00032300090AC200DF0D3FEA0F52B41CD395F
:101EF00007D16548B0F90000FFF7C0FA00EB800099
:101F00000090DFF888815E49B8F90000B1F900104F
:101F1000C0EB4020400090FBF1F00190AE200DF0AE
:101F2000B7FEA0F52B41CD3906D1B8F90000FFF777
:101F3000DEFA00EB800001900020B7F9008045E058
:101F40004649098841B14649098829B14549097876
:101F5000012915D0032913D0C0EBC00101EB4101C9
:101F600004EB810C0099BCF950200BB2BAF90010B7
:101F700019445118CCF82C100DD5CCF82C5010E089
:101F8000C0EBC00101EB410104EB8101CD620D63A7
:101F900081F8289018E040F2FE32914201DDCCF841
:101FA0002C2001990AB2BBF900105118CCF830105E
:101FB00002D5CCF8305005E040F2FE32914201DD0E
:101FC000CCF830208CF82850401CC0B24045B7DB1C
:101FD0002F49009808802F49E06A0880FEE0B07918
:101FE000A0B32D48007888BB2C48B0F9000000EB66
:101FF00080011D48B0F90000B0EB410F05DABBF8D5
:10200000001001F1010105E0E2E005DDBBF8001080
:10201000A1F10101ABF80010424629461348FEF732
:1020200035F9322251421148FEF730F91C48B0F917
:10203000000000EB80010E48B0F90000B0EB410F4A
:1020400030DABAF8001001F1010130E03BE00000A5
:10205000E0000010DC010010700100107A01001097
:102060007C0100102A000010FE000010D0C00720E4
:10207000FC0000103C010010B2030010240100100D
:102080004A010010C0C00720720100103E0100107C
:10209000C0030010DAC00720D2030010980100101E
:1020A0009601001005DDBAF80010A1F10101AAF8AF
:1020B000001042462946F848FEF7E8F8322251421D
:1020C000F648FEF7E3F8F64842F2EC71B0F900008A
:1020D0004843F449B1F9001090FBF1F00090F24848
:1020E00042F2EC71B0F900004843F049B1F9001038
:1020F00090FBF1F00190AC200DF0CAFDA0F52B4152
:10210000CD390AD1E648008800EB8000400000B2DB
:10211000FFF7B4F900EB80000090AE200DF0B8FDA1
:10212000A0F52B41CD390AD1DF48008800EB8000B3
:10213000400000B2FFF7DBF900EB800001900020C7
:10214000B7F9001035E0DA4A127852B1C0EBC0029C
:1021500002EB420204EB8202D562156382F82890FA
:1021600025E0009A13B2BAF900209A18C0EBC00318
:1021700003EB430304EB830CCCF82C2002D5CCF802
:102180002C5003E0424501DDCCF82C80019A13B2BB
:10219000BBF900209A18CCF8302002D5CCF830508A
:1021A00003E0424501DDCCF830808CF82850401C1B
:1021B000C0B28842C7DB11E0C0EBC00202EB4202B2
:1021C00004EB8202401CD562156382F82830C0B24D
:1021D0008842F1DBABF80050AAF80050B549B1F9DC
:1021E0000000E8B1401E00B20880B34AB34908B904
:1021F00015800D80B1F900C00020B2F90020B7F9B8
:1022000000100BE0C0EBC00303EB430304EB8303BC
:10221000401CC3E90B2C83F82850C0B28842F1DB84
:1022200000204B46B7F9001010E000BFC0EBC00221
:1022300002EB420204EB8202577817F08F0F03D0B3
:10224000D562156382F82830401CC0B28842EDDBAD
:10225000B571BDE8FC9FC0EBC00000EB40019848A1
:1022600010B510F82120032A7ED100EB81004FF039
:102270000A0190F83E209307B0F942300DD50A2BA1
:1022800016DA5B1C1BB2A0F842300A2B10DBA0F858
:102290004210437843F0010309E04BB1A3F101037D
:1022A0001BB2A0F842301BB9437823F001034370FE
:1022B0001307B0F944304FF000040DD50A2B1BDA98
:1022C0005B1C1BB2A0F844300A2B15DBA0F84410AD
:1022D000437843F002030AE0002B0ADDA3F1010377
:1022E0001BB2A0F844303BB9437823F0020343709B
:1022F00002E001DAA0F84440D3060FD5B0F9463029
:102300000A2B17DA5B1C1BB2A0F846300A2B11DB34
:10231000A0F84610417841F004010AE0B0F94610F7
:1023200041B1491E09B2A0F8461019B9417821F00F
:102330000401417063490B78012B01D0022B34D189
:102340006149098861B36149022BB1F9001002D1DA
:102350005F49B1F900105F4BB3F900306433594362
:10236000642391FBF3F100E050E05B4B09B219806C
:1023700083698B4290F8521013DD584BB3F900304B
:1023800003EB8303B1EB430F0FDA491CC9B280F8AA
:102390005210B1EB430F08DB417841F080014170EE
:1023A00003E011B1491E80F85210417811F08F0FEF
:1023B00001D004220FE04A4B1B7823B1C378142BC1
:1023C00001D9052207E0920601D5022203E0C27876
:1023D000142A01D201228270C2780A2A90F8282099
:1023E00006D342F0800280F8282041F0080105E081
:1023F00002F07F0280F8282021F00801417039495D
:10240000B1F91420C262B1F91610016310BD2DE9B3
:10241000F0472C48344E334C0078002510B3B6F901
:10242000000000EB8001B4F92800B0EB410F01DAA5
:10243000401C20852D48DFF8B88047F2305AB0F9AB
:10244000000000EB8001B8F90000B0EB410F0BDD9C
:10245000608D5246401C6085224800212A30FDF7DD
:1024600015FF02E02585E5E76585DFF888900127FF
:10247000B9F9000000EB8001B4F92A00B0EB410F7C
:102480003ADBB6F90010B4F9282001EB8101B2EB78
:10249000410F31DB277331E0D0C00720B2030010B9
:1024A0009601001024010010980100104A0100104C
:1024B000D203001002C1072000C10720EC03001066
:1024C000A8E3072027000010F40000103C010010D2
:1024D00072010010F6000010EA030010F80000106E
:1024E000AE03001010C00720580100106201001058
:1024F000FC0000105A01001000B92573D248B0F951
:10250000000000EB8001B8F90000B0EB410F08DAE1
:10251000A08D5246401CA0850021CC48FDF7B6FE98
:1025200000E0A585B9F9000000EB8001B4F92C00AA
:10253000B0EB410F0ADBB6F90010B4F9282001EB2B
:102540008101B2EB410F01DB677302E030B1607BC8
:1025500028B1207B18B1A773BDE8F0876573A57318
:10256000FAE72DE9F05FBA48DFF8EC82DFF8ECB269
:102570000178B848DFF8E8A2BA4DB0F90000BA4EC9
:102580000027BA4C022911D0012925D02780B8494B
:102590002868B1F90010884243DDB6493068B1F9C6
:1025A000001088423DDA2088401C3CE0DFF8C892E9
:1025B000B9F80010401A00B200F0ACFAC8F80000F8
:1025C00064214843B9F90010DFF8B08290FBF1F0C4
:1025D0002860BBF8001014E0DFF8A492B9F80010EE
:1025E000401A00B200F096FAC8F80000642148438F
:1025F000B9F90010DFF88C8290FBF1F02860BBF88D
:102600000010B8F80000081A00B200F083FA642144
:10261000CAF800004843B8F9001090FBF1F03060B0
:10262000B5E72088401E984D20800A21288800EBBD
:10263000800001EB400002B200218C48FDF726FE2D
:102640008348007800B9278090489149914A0068F2
:10265000B1F9001088420ADBB5F90030B4F9006026
:1026600003EB8303B6EB430F01DD012313708842B4
:1026700008DBB5F90000B4F9001000EB8000B1EB05
:10268000400F00DC1770BDE8F09F2DE9F04F704857
:10269000DFF8B8E1824B90F800C07F480EF1060EDB
:1026A000B3F9006000787F4B82467C48BEF9004059
:1026B00001220078B3F9003083467648002105787E
:1026C000AEF13200877B90F80D80007B8146AEF141
:1026D000040024B3012C0AD0022C13D0032C19D0EF
:1026E000042C1FD0052C29D0062C33D039E0BCF1A6
:1026F000030F03D0BBF1000F32D02FE0BAF1000F6F
:102700002ED12BE016B1012E02D02AE00DB327E026
:102710002DB123E013B1012B02D022E0CFB11FE095
:10272000F7B11BE013B1012B04D01AE0B8F1000F90
:1027300014D015E0B8F1000F12D00FE013B1012B47
:1027400004D00EE0B9F1000F08D009E0B9F1000F94
:1027500006D003E03D4C241D24780CB1027000E04B
:102760000170BEF902407CB1012C10D0022C1AD0AD
:10277000032C21D0042C28D0052C31D0062C04D1D8
:10278000324B1B1D5B7843B94170BDE8F08FBCF143
:10279000030F04D0BBF1000FF6D04270F5E7BAF199
:1027A000000FF1D1F9E726B1012EEED1002DF4D1C1
:1027B000EAE7002DF1D0E7E723B1012BE5D1002FA7
:1027C000EBD1E1E7002FE8D0DEE72BB1012BDCD124
:1027D000B8F1000FE1D1D7E7B8F1000FDDD0D3E7B2
:1027E0002BB1012BD1D1B9F1000FD6D1CCE7B9F182
:1027F000000FD2D0C8E72C49086820F44040086098
:102800002A48026842F080020260104A921C137843
:10281000012B436912D043F0800343610B6823F41A
:1028200040630B60016841F020010160517801298B
:10283000416906D041F020014161704723F08003D7
:10284000EBE721F02001F7E7600100103CC0072012
:1028500027000010FC000010DCC00720FE00001064
:10286000E0C00720C4030010C8030010CC03001010
:102870005C0100105E010010360100103E010010E6
:102880003C0100107001001056010010DC01001026
:1028900054010010E4C00720EAC0072029000010FE
:1028A000500100105201001000C0024000C0092079
:1028B0002DE9F84F07460020804605460446542679
:1028C00059B1012904D0022904D0032904D004E01D
:1028D000552602E0752600E04C268D48C7EBC7035D
:1028E000DFF8289203EB43034FF0000A00EB83006C
:1028F000012A02D0002A7ED003E131B1012908D09B
:1029000002290AD003290CD00FE0427842F00102DC
:102910000AE0427842F0020206E0427842F0040205
:1029200002E0427842F00802427080F84F105320D3
:102930008DF800008DF801708DF8026055468DF815
:1029400003A0694628460DF0DCFA6946042000958C
:102950000DF0D7FAB9F83C0009F120048DF8000019
:10296000207E8DF80100207B8DF802008DF8035049
:1029700069464FF008000DF0C4FA207A8DF8000087
:1029800020798DF8010020788DF802008DF8035031
:1029900069460C200DF0B5FA41248DF800408DF801
:1029A00001408DF802408DF80340694610200DF07B
:1029B000A8FA8DF800408DF801408DF802408DF89E
:1029C0000340694614200DF09CFA8DF800408DF804
:1029D00001408DF802408DF80340694618200DF043
:1029E00090FA8DF800408DF801408DF802408DF886
:1029F0000340694600E001E01C2080E031B101297C
:102A000008D0022913D0032915D007E0417821F01E
:102A1000010102E0417821F00201417005F110004E
:102A20004FEA000B9DF80000532818D107E04178C9
:102A300021F00401F1E7417821F00801EDE79DF86C
:102A40000100B8420BD19DF80200B04207D169469F
:102A500058460DF09AF99DF80000412805D0F4B3CE
:102A6000641EA4B24445DDD14BE09DF8010041282D
:102A7000F5D19DF802004128F1D19DF803004128CD
:102A8000EDD1B9F83C0009F120048DF80000207E5A
:102A90008DF80100207B8DF8020056468DF803A0CA
:102AA000694658460DF02DFA207A8DF800002079FD
:102AB0008DF8010020788DF802008DF803606946DA
:102AC00005F114000DF01DFA42248DF800408DF838
:102AD00001408DF802408DF80340694600E013E0A4
:102AE00005F118000DF00DFA8DF800408DF8014049
:102AF0008DF802408DF80340694605F11C000DF089
:102B000000FA00BFBDE8F88F3F248BE70040024089
:102B1000A8E30720002801DA404200B2704710B550
:102B200040F2D4700DF0B4F8FF4C207040F2D67033
:102B30000DF0AEF860704FF4FB600DF0A9F8A070D6
:102B400040F2DA700DF0A4F8E07040F2DC700DF0A5
:102B50009FF8207240F2DE700DF09AF860724FF428
:102B6000FC600DF095F8A07240F2E2700DF090F864
:102B7000E0724FF401600DF08BF8207140F6120006
:102B80000DF086F8607140F614000DF081F8A07128
:102B900040F616000DF07CF8E07110BDE34810B56A
:102BA000016821F0E06101604168E24AC1F30B1362
:102BB000DF4C117824F81130491CC9B21170032977
:102BC00003D2016841F08071016010BD2DE9FF4121
:102BD000D94C0022E08CE085032020852078401C21
:102BE000C0B204F82209232802D384F8222001E08D
:102BF000202847D82120FDF7FAFA50B1CF480088A5
:102C0000222806D1CE4894F8221090F9020088427A
:102C100036D094F82A00CB4DA8B994F82200C0EB26
:102C2000C00101EB410105EB810202F1280211799B
:102C3000577A167A53798DE8CA0013784FF0ED026F
:102C4000014610F0F5FB94F82200202818D2C0EBC2
:102C5000C00000EB400005EB8000C1783C2905D2A4
:102C6000491CC9B2C170032902D207E03C21C170DE
:102C70000179032902D24179491C4171C17801715E
:102C8000BDE8FF81AC492239212891F82A101CD0D7
:102C90002228F5D10029F3D1A9480A21C838B0F972
:102CA000040090FBF1F0A649C0B2BE394A780B7817
:102CB000891E4C7800940390CDE901320B782922CB
:102CC000FF21084610F0B4FBDAE70029D8D19A4872
:102CD0002E30417803780838447803920094CDE987
:102CE000013103786222EBE79549002050390870E2
:102CF000487088705031487070472DE9F04FDFF808
:102D000038E24FF03C0BAEF1220E0EF1800101F1E2
:102D1000800AB1F95830B1F95A4001F580719EF836
:102D20002B008E6BC96B96FBFBF591FBFBF70FFA43
:102D300081F87146BAF9222091F803C03FB2BAF97E
:102D400024102DB236B2B946B0B101283ED10AF1F5
:102D50001200BAF812708786BAF81A70078743868D
:102D6000C486BAF91E70504697B300BF4FF6FF7085
:102D70005346AAF8420018E00AF10C00BAF818709D
:102D80004787BAF80C70C78703878487BAF91C7025
:102D90005046002FEAD103466948A0F14800006B75
:102DA0001BE000BF90FBFBF019E03A431AD011B1D1
:102DB000A3F8405008E0A3F8406005E0A3F8409075
:102DC00002E000BFA3F840808EF82EC0BDE8F08F6F
:102DD000FFE703465A484838406B0029E2D1A3F880
:102DE0004200E2E70029EDD0E8E7F0B50020564ABE
:102DF00001464FF4F4731154401C00B29842FADBC0
:102E0000DFF83CE100200EF1420E14277A21414305
:102E100000EB80039B0000EB80041BB207EB8405F2
:102E20001FE000BF1EF803405E2C21D0474E04EB8C
:102E3000440416F814C002F801C006EB4404491C0F
:102E400066785654491CA6785654491CE678565460
:102E5000491C26795654491C64795454491C5B1CFE
:102E60001BB29D42DEDC401C00B20428CEDBF0BD6C
:102E70004FF07E0C02F801C0491C42245454491CF6
:102E80005A265654491C5654491C5454491C02F89D
:102E900001C0E3E72DE9F04F2D4AD5B005211278A6
:102EA00000200DF1A80E1AB92AA02A9001200621AF
:102EB0002E4A127842B92EA34EF8203000F10100BC
:102EC00001F10101C0B2C9B21E4A53781B060ED5EA
:102ED0002DA44EF8204000F10100C0B230A44EF8FD
:102EE000204000F1010001F10201C0B2C9B292F824
:102EF00055301B060ED530A44EF8204000F10100DD
:102F0000C0B227A44EF8204000F1010001F10201F7
:102F1000C0B2C9B292F8A9301B0670D52CA44EF8E5
:102F2000204000F101005FE0E42808200040034059
:102F300046C0072010C007204600001008000010FF
:102F4000EC010010A8E3072028EE0720C48F010041
:102F500021C0072020CEF2F1F3F2F1F2E2F3E5F224
:102F600020F4E0E7E02042200000000022C007201B
:102F700020CEF2F1F3F2F1F2E2F3E5F220F4E0E731
:102F8000E02043200000000020C1CFD1204E31209E
:102F9000E7E0E1EBEEEAE8F0EEE2E0ED0000000051
:102FA0002020EFEE20EFF0E5E2FBF8E5EDE8FE2073
:102FB00055E2FBF50000000020C1CFD1204E3220A9
:102FC000E7E0E1EBEEEAE8F0EEE2E0ED0000000021
:102FD00020C1CFD1204E3320E7E0E1EBEEEAE8F06C
:102FE000EEE2E0ED00000000C0B2AFF24C044EF89B
:102FF000204000F1010001F10201C0B2C9B292F813
:10300000FD301B060FD5FFA44EF8204000F1010053
:10301000C0B2AFF274044EF8204000F1010001F19B
:103020000201C0B2C9B292F851311B060FD5FBA400
:103030004EF8204000F10100C0B2AFF29C044EF8FF
:10304000204000F1010001F10201C0B2C9B292F8C2
:10305000A5311B060FD5F7A44EF8204000F1010062
:10306000C0B2AFF2C4044EF8204000F1010001F1FB
:103070000201C0B2C9B292F8F9311B060FD5F3A410
:103080004EF8204000F10100C0B2AFF2EC044EF85F
:10309000204000F1010001F10201C0B2C9B292F872
:1030A0004D321B060FD5EFA44EF8204000F1010071
:1030B000C0B2AFF214144EF8204000F1010001F14B
:1030C0000201C0B2C9B292F8A1321B060FD5EBA41F
:1030D0004EF8204000F10100C0B2AFF23C144EF8AF
:1030E000204000F1010001F10201C0B2C9B292F822
:1030F000F5321B060FD5E7A44EF8204000F1010081
:10310000C0B2AFF264144EF8204000F1010001F1AA
:103110000201C0B2C9B292F849331B060FD5E3A42D
:103120004EF8204000F10100C0B2AFF28C144EF80E
:10313000204000F1010001F10201C0B2C9B292F8D1
:103140009D331B060FD5DFA44EF8204000F101008F
:10315000C0B2AFF2B4144EF8204000F1010001F10A
:103160000201C0B2C9B292F8F1331B060FD5DBA43D
:103170004EF8204000F10100C0B2AFF2DC144EF86E
:10318000204000F1010001F10201C0B2C9B292F881
:1031900045341B060FD5D7A44EF8204000F101009E
:1031A000C0B2AFF204244EF8204000F1010001F15A
:1031B0000201C0B2C9B292F899341B060FD5D3A44C
:1031C0004EF8204000F10100C0B2AFF22C244EF8BE
:1031D000204000F1010001F10201C0B2C9B292F831
:1031E000ED341B060FD5CFA44EF8204000F10100AE
:1031F000C0B2AFF254244EF8204000F1010001F1BA
:103200000201C0B2C9B292F841351B060FD5CBA45A
:103210004EF8204000F10100C0B2AFF27C244EF81D
:10322000204000F1010001F10201C0B2C9B292F8E0
:1032300095351B060FD5C7A44EF8204000F10100BC
:10324000C0B2AFF2A4244EF8204000F1010001F119
:103250000201C0B2C9B292F8E9351B060FD5C3A46A
:103260004EF8204000F10100C0B2AFF2CC244EF87D
:10327000204000F1010001F10201C0B2C9B2C14A0F
:1032800092F83D2612060AD5BFA34EF82030401C06
:10329000C0B2AFF2F423891C4EF82030C9B2C04846
:1032A000B0F9562000920270027A521CD2B2027219
:1032B000142A08D300230372C279521CD2B2C271FD
:1032C0008A4200D3C371B748DFF8D8B202AC0178A4
:1032D000C838ABF1480BB0F95880C830ABF5807AEC
:1032E00090F9045090F90100421BE9B3DFF8B49261
:1032F0000D2901F03883212901F0AA844B466C295D
:1033000093F9043004EB830601F0B8844B465B78F4
:103310009B1E5BB26D2901F0DC846F2901F0718581
:103320006B2901F0D7876A2902F012804E4696F980
:1033300002707678761E4FFA86FC682902F0638068
:103340004E460F2902F0C7801029FBD0042902F055
:10335000EB80934EDFF850924FF05E08B67E402926
:1033600002F0E783702900E02BE102F06884DFF8C7
:103370003482362903F06980342903F0AF8075293F
:1033800003F0E780762903F03281722903F07B8114
:10339000712903F07D81732903F0B4815B2903F067
:1033A000D1835F465F2903F0F683602903F04A84E6
:1033B000622903F07F84632903F0C984642903F040
:1033C00015854FF0030E122903F06285442903F09E
:1033D000AA86734F46293F7903F0C186452903F039
:1033E000FC864746312903F04187742903F053874F
:1033F0002D2903F0A08709234FF00F082B2904F093
:103400000482D3E020C1CFD1204E3420E7E0E1EBAD
:10341000EEEAE8F0EEE2E0ED0000000020C1CFD1DE
:10342000204E3520E7E0E1EBEEEAE8F0EEE2E0EDF9
:103430000000000020C1CFD1204E3620E7E0E1EBB4
:10344000EEEAE8F0EEE2E0ED0000000020C1CFD1AE
:10345000204E3720E7E0E1EBEEEAE8F0EEE2E0EDC7
:103460000000000020C1CFD1204E3820E7E0E1EB82
:10347000EEEAE8F0EEE2E0ED0000000020C1CFD17E
:10348000204E3920E7E0E1EBEEEAE8F0EEE2E0ED95
:103490000000000020C1CFD1204E313020E7E0E114
:1034A000EBEEEAE8F0EEE2E0ED00000020C1CFD163
:1034B000204E313120E7E0E1EBEEEAE8F0EEE2E029
:1034C000ED00000020C1CFD1204E313220E7E0E1F5
:1034D000EBEEEAE8F0EEE2E0ED00000020C1CFD133
:1034E000204E313320E7E0E1EBEEEAE8F0EEE2E0F7
:1034F000ED00000020C1CFD1204E313420E7E0E1C3
:10350000EBEEEAE8F0EEE2E0ED00000020C1CFD102
:10351000204E313520E7E0E1EBEEEAE8F0EEE2E0C4
:10352000ED00000020C1CFD1204E313620E7E0E190
:10353000EBEEEAE8F0EEE2E0ED00000020C1CFD1D2
:10354000204E313720E7E0E1EBEEEAE8F0EEE2E092
:10355000ED00000020C1CFD1204E313820E7E0E15E
:10356000EBEEEAE8F0EEE2E0ED00000020C1CFD1A2
:10357000204E313920E7E0E1EBEEEAE8F0EEE2E060
:10358000ED000000A8E3072020C1CFD1204E32304B
:1035900020E7E0E1EBEEEAE8F0EEE2E0ED0000002B
:1035A00024000010EC010010F89501002C2904F013
:1035B0003582592904F02F846E2904F0568404F0D2
:1035C0009DBCD449C9788946032930D0D149D14B13
:1035D00091F82B7001F5E47180334978C91E49B226
:1035E0000091B3F97E100191CA49B3F9423001F557
:1035F000807691F806C0B6F9566052934B79C97E31
:10360000002F7ED0012F7DD0DFF808C3022F7AD0A3
:10361000B9F1020F00F07C87BFA70297002E00F0DF
:10362000B587012B00F08D87C1A700F0AEBFC6A003
:103630000290CBA00390D0A00490D5A002AD034689
:10364000059007CDFDF74BF9D74DDBF84000B5F9F4
:103650006A10884203DA00222121D4A019E0B5F9CA
:103660006C201144814203DD00222121D0A010E012
:10367000B5F96E201144814203DD00222121CDA045
:1036800007E0B5F970201144814204DD00222121B8
:10369000C9A0FDF754F905F17205002268882B21B5
:1036A00080B2FCF7F3FF28880022402180B2FCF7AB
:1036B000EDFFBAF95A000A2690FBF6F0574680B2A1
:1036C00000222321FCF7E2FFB7F95800002290FB0B
:1036D000F6F080B22421FCF7D9FFA8880022401C14
:1036E0005E2180B2FCF7D2FFDBF840005D4690FB24
:1036F000F6F23C2092FBF0F100FB112080B2002298
:1037000002E00EE0D9E2F9E37321FCF7BFFF286C79
:103710004FF4167190FBF1F0002280B2542100F0BA
:10372000C7BEB9F1010F09D0A4A10291002E46D065
:10373000012B28D0002B42D1A6A13FE0ABA70297D6
:10374000002E3CD0B8F1000F05D0BCF1010F06D01F
:10375000BCF1030F03D0012B07D0E3B12FE08907A1
:1037600001D5A8A12AE0A1A128E041B1012908D0F2
:10377000022908D0032908D0042908D014E0A7A101
:103780001CE0ACA11AE0B1A118E0B6A116E0BBA103
:1037900014E08AA112E051B101290AD00229CBD04C
:1037A000032908D0042908D00529F2D007E0B9A1DF
:1037B00004E0BEA102E0C3A100E0C8A1029168A19B
:1037C0000391CCA1534E0491B9F1010F05D1CFA1C2
:1037D0000491529909B1D3A1049167A10591D7A190
:1037E0000691DCA10791E1A10891E6A10991EBA165
:1037F0000A91F0A10B916C49C831032A01DD0098B0
:1038000001E0A84200DA0871019857460F2806DD4A
:10381000EEA3F4A2F9A1FFA0FDF761F81AE0F07998
:10382000052808D291F9045004EB8500001D0EC84C
:1038300054F8250009E091F904100EEB800004EB28
:103840008101091D50F8140C0EC9FDF748F800203D
:10385000FCF7E1FF544DB5F8560010B1B5F858002B
:1038600020B900225E21F1A0FDF769F8B5F94C00FE
:103870004FF47A78404503DA01222B2180B205E02B
:103880000A2190FBF1F080B200222B21FCF7FEFE12
:10389000B7F95A00404503DA0122232180B205E03E
:1038A0000A2190FBF1F080B200222321FCF7EEFE0A
:1038B000B7F958004746B84203DA0122242180B202
:1038C00005E00A2190FBF1F080B200222421FCF7F0
:1038D000DDFEB5F91800B84209DA01227B2180B279
:1038E000FCF7D4FE288B0122402180B20EE00A278B
:1038F00090FBF7F080B200227B21FCF7C7FEB5F900
:103900001800002290FBF7F080B24021FCF7BEFEC9
:10391000F0788DE12400001020C8F1F2EEF7EDE818
:10392000EA20EDE0EFF02E205E20202000000000D5
:1039300020C8F1F2EEF7EDE8EA20EDE0EFF02E20FE
:103940005E3C3C3C00000000202020C8D1CFDBD2F0
:10395000C0CDC8C520D4C0C7C020212000000000B1
:103960002049F3202020202BC020556D6178202095
:103970002020404200000000204920202020202359
:10398000C0205520202020202020244200000000BC
:1039900020D6E8EAEB204E2020205E202020305464
:1039A0003A307320000000002401001041000000A4
:1039B00042000000430000004400000020C8F1F273
:1039C000EEF7EDE8EA20F2EEEAE020205E2020208B
:1039D0000000000020C8F1F2EEF7EDE8EA20F2EE78
:1039E000EAE020205E3C3C3C0000000020C8F1F2F0
:1039F000EEF7EDE8EA20F2EEEAE020202020202099
:103A00000000000020C8F1F2EEF7EDE8EA20F2EE47
:103A1000EAE020205E203C3E0000000020C8F1F2D9
:103A2000EEF7EDE8EA20F2EEEAE020205E3E20200C
:103A30000000000020C8F1F2EEF7EDE8EA20F2EE17
:103A4000EAE020205E3E3E200000000020C8F1F2A7
:103A5000EEF7EDE8EA20F2EEEAE020205E3E3E3EA0
:103A60000000000020C8F1F2EEF7EDE8EA20F2EEE7
:103A7000EAE020205E203E3E0000000020C8F1F277
:103A8000EEF7EDE8EA20F2EEEAE020205E20203EAC
:103A90000000000020C8F1F2EEF7EDE8EA20F2EEB7
:103AA000EAE020205E20203C0000000020C8F1F267
:103AB000EEF7EDE8EA20F2EEEAE020205E203C3C62
:103AC0000000000020C8F1F2EEF7EDE8EA20F2EE87
:103AD000EAE020205E3C3C200000000020C8F1F21B
:103AE000EEF7EDE8EA20F2EEEAE020205E3C20204E
:103AF0000000000020C4EBE8F22DF1F2FC2E2020A3
:103B000030743A30543A30730000000020202020F6
:103B1000202030743A30543A307320202020202066
:103B2000000000002030743A30543A3073202020D6
:103B300020202071C02AF720000000002055EC61F1
:103B4000782EE8F1F22EF2EEEAE0202020207BC26F
:103B50000000000020C0E2E0F0E8E8202020202063
:103B600020202020202020200000000020C2FBF583
:103B7000EEE42020202020202020202020202020B3
:103B80000000000020D3F1F2E0EDEEE2EAE82020B0
:103B900020202020202020200000000020C2FBEF59
:103BA000F0FFECE8F2E5EBE82020202020202020A8
:103BB0000000000020C2E5F0F1E8FF20CFCE202079
:103BC00020202020202020200000000020E8EBE81A
:103BD00020EDE5F1EAEEEBFCEAEE20F4E0E72E2042
:103BE000000000002020CEF2F1F3F2F1F2E2F3E562
:103BF000F220EEE4EDE02020000000002020202054
:103C00002020F1E5F2E82121212120202020202080
:103C1000000000002020C0E2E0F0E8FF20EFE8F222
:103C2000E0FEF9E5E920202000000000200000006F
:103C300001283AD1B5F92200B5F91C104FE1DBF8A3
:103C400038003C2790FBF7F107FB11005D4680B27E
:103C500000227321FCF71AFDA86B002290FBF7F0FD
:103C600090FBF7F107FB110080B25421FCF70EFD29
:103C7000A96BFDE3DBF83C003C2790FBF7F107FB69
:103C800011005D4680B200227321FCF7FFFCE86B57
:103C9000002290FBF7F090FBF7F107FB110080B2D8
:103CA0005421FCF7F3FCE96BF0E3A88B00287DD1ED
:103CB000AEE300BFFCF743FEF4E3B9F1020F0BD013
:103CC000AFF2AC310291002E47D0012B28D0002B4F
:103CD00043D1AFF2A4313FE0D6A70297A6B3B8F123
:103CE000000F05D0BCF1010F06D0BCF1030F03D0CB
:103CF000012B07D0EBB130E0890701D5D3A12BE030
:103D0000CCA129E041B1012908D0022908D003291A
:103D100008D0042908D015E0D2A11DE0D7A11BE0EE
:103D2000DCA119E0E1A117E0E6A115E0AFF218412E
:103D300012E051B101290AD00229CAD0032908D0C2
:103D4000042908D00529F1D007E0E4A104E0E9A1A5
:103D500002E0EEA100E0F3A10291F8A10391AFF21D
:103D60006C21FC4E0491B9F1020F07D1AFF264212E
:103D70000491529911B1AFF254210491F6A1059129
:103D8000FBA10691AFF234210791AFF220210891F7
:103D9000AFF210210991AFF2FC110A91AFF2EC11D0
:103DA0000B91F949032A02DD009802E010E1A842D4
:103DB00000DA0871019857460F280ADDAFF2F413B4
:103DC000AFF2E012AFF2CC11AFF2B810FCF787FD02
:103DD0001AE0F079052808D291F9045004EB850027
:103DE000001D0EC854F8250009E091F904100EEBEF
:103DF000800004EB8101091D50F8140C0EC9FCF77A
:103E00006EFD0020FCF707FDDF4DC83DB5F85600FC
:103E100010B1B5F8580028B900225E21AFF2F410B5
:103E2000FCF78DFDB5F94E004FF47A78404503DA82
:103E30000122252180B205E00A2190FBF1F080B239
:103E400000222521FCF722FCB7F95800404503DA8F
:103E50000122262180B205E00A2190FBF1F080B218
:103E600000222621FCF712FCB7F95A004746B84257
:103E700003DA0122232180B205E00A2190FBF1F050
:103E800080B200222321FCF701FCB5F91A00B842E8
:103E900009DA01227D2180B2FCF7F8FB688B012250
:103EA0007D2180B20EE00A2790FBF7F080B200225D
:103EB0007D21FCF7EBFBB5F91A00002290FBF7F02F
:103EC00080B27D21FCF7E2FBF078022803D0E88B7A
:103ED00000287DD1FEE3B5F92200B5F91E10084394
:103EE0003FF4C8AEABE600BF4FF4616091FBF0F069
:103EF00080B200227421FCF7C9FBD3E2FFE7B9F1DD
:103F0000010F08D0AFF24C5702979EB3012B1AD085
:103F1000AFF240573AE0AFF22C57029756B3012B5D
:103F200001D0E3B133E041B1012909D002290AD01F
:103F300003290BD004290CD01AE0AFF2205725E05A
:103F4000AFF2105722E0AFF2FC471FE0AFF2EC47B0
:103F50001CE0AFF2D84719E0AFF2A05716E051B11C
:103F600001290BD00229D3D003290AD004290BD070
:103F70000529F1D00BE0AFF2E44707E0AFF2D447F8
:103F800004E0AFF2C04701E0AFF2B0470297AFF2F2
:103F900030670397AFF2A4470497B9F1010F07D137
:103FA000AFF298470497529F17B1AFF28847049732
:103FB000AFF23C670597B9F1020F0CD0AFF2A861E0
:103FC00006914EB3012B04D0AFF29C61069123E021
:103FD0000EE230A1FAE717A70697D6B1012B01D060
:103FE0001BB316E041B1012908D0022909D00329E9
:103FF00009D0042909D00AE01AA100E01FA1069106
:1040000007E024A1FBE729A1F9E72EA1F7E705299D
:104010000DD09CF8141049B148A10791AFF22C5172
:104020000891B9F1020F03D0D6E0AFE0CAE0C6E0D4
:10403000CAE0000020C8F1F2EEF7EDE8EA20EDE07A
:10404000EFF02E20202020200000000020C8F1F2F8
:10405000EEF7EDE8EA20EDE0EFF02E205E203C3EAA
:104060000000000020C8F1F2EEF7EDE8EA20EDE0F4
:10407000EFF02E205E3E20200000000020C8F1F26C
:10408000EEF7EDE8EA20EDE0EFF02E205E3E3E2078
:104090000000000020C8F1F2EEF7EDE8EA20EDE0C4
:1040A000EFF02E205E3E3E3E0000000020C8F1F200
:1040B000EEF7EDE8EA20EDE0EFF02E205E203E3E48
:1040C0000000000020C8F1F2EEF7EDE8EA20EDE094
:1040D000EFF02E205E20203E0000000020C8F1F20C
:1040E000EEF7EDE8EA20EDE0EFF02E205E20203C38
:1040F0000000000020C8F1F2EEF7EDE8EA20EDE064
:10410000EFF02E205E203C3C0000000020C8F1F2C1
:10411000EEF7EDE8EA20EDE0EFF02E205E3C3C20EB
:104120000000000020C8F1F2EEF7EDE8EA20EDE033
:10413000EFF02E205E3C2020000000002055F320F0
:10414000202020254220496D6178202020207D41BB
:1041500000000000240000102055202020202026F0
:104160004220492020202020202023410000000060
:104170002049EC61782EE8F1F22EEDE0EFF02E20F0
:1041800020207D4100000000EC01001059B1012900
:104190000CD002290DD003290ED004297FF42BAFB7
:1041A000AFF280012BE7AFF2CC0128E7AFF2BC0100
:1041B00025E7AFF6840122E7AFF2B0011FE7AFF6C3
:1041C000A8011CE7FFA101E7AFF2C0610891529975
:1041D00011B1AFF2B0610891AFF284010991AFF271
:1041E000A4610A91AFF278010B91AFF298610C9142
:1041F000AFF288610D91AFF274610E91AFF264611C
:104200000F91AFF25061DFF8D4831091032A03DDE0
:10421000009988F8041003E0A84201DA88F8040045
:10422000019856460F280ADDAFF26063AFF24C6288
:10423000AFF23861AFF22460FCF751FB1BE0E848B5
:10424000C579052D08D298F9045004EB8500001DAE
:104250000EC854F8250009E098F9040004EB80002A
:10426000001D0EC80EEB850050F8140CFCF737FB50
:104270000020FCF7D0FAD94DC83DB5F8560010B172
:10428000B5F8580028B900225E21AFF26060FCF753
:1042900056FBB5F94C004FF47A77B84203DA0122A5
:1042A0002B2180B205E00A2190FBF1F080B20022C0
:1042B0002B21FCF7EBF9B6F95A00B94648450ADA62
:1042C0000122232180B2FCF7E1F9B6F85A0001225D
:1042D000232180B20EE00A2790FBF7F080B2002283
:1042E0002321FCF7D3F9B6F95A00002290FBF7F02E
:1042F00080B22321FCF7CAF9B5F94E004F46B84207
:1043000003DA0122252180B205E00A2190FBF1F0B9
:1043100080B200222521FCF7B9F9B6F95800B94658
:1043200048450ADA0122262180B2FCF7AFF9B6F837
:1043300058000122242180B20EE00A2790FBF7F0FA
:1043400080B200222621FCF7A1F9B6F9580000221C
:1043500090FBF7F080B22421FCF798F9B5F91A0028
:104360004E46B04209DA01227D2180B2FCF78EF977
:10437000688B01227D2180B20EE00A2790FBF7F0C6
:1043800080B200227D21FCF781F9B5F91A000022E4
:1043900090FBF7F080B27D21FCF778F9B5F91800B1
:1043A000B04209DA01227B2180B2FCF76FF9288B39
:1043B0000122402180B20EE00A2690FBF6F080B286
:1043C00000227B21FCF762F9B5F91800002290FB6E
:1043D000F6F080B24021FCF759F998F90400804EBC
:1043E00002287FF795AAF07802282CD0E88BF0B34A
:1043F0006FF0020274217BA05CE400223A21AFF24C
:10440000D470FCF79CFA00223A21AFF2E07051E43C
:10441000DBF830003C2690FBF6F106FB11005D4610
:1044200080B200227321FCF731F9286B002290FB47
:10443000F6F090FBF6F106FB110080B25421FCF778
:1044400025F9296B50E5B5F92200B5F91E1008438E
:1044500070D0DBF838003C2590FBF5F105FB11002E
:104460005F4680B200227321FCF710F901E034E0CE
:104470000CE0B86B002290FBF5F090FBF5F105FB2A
:10448000110080B25421FCF701F9B96B4FF461605F
:1044900091FBF0F080B200227421FCF7F7F8B07DB8
:1044A0000028AAD1DBF84400012271211FFA80F014
:1044B000FCF7ECF84A48C078012807D0474A0021A9
:1044C000C83A0228A2F8501003F01885434900208A
:1044D000C839A1F8520003F011BDDBF834003C26C6
:1044E00090FBF6F106FB11005D4680B200227321BD
:1044F000FCF7CCF8686B002290FBF6F090FBF6F12D
:1045000006FB110080B25421FCF7C0F8696BEBE4A4
:10451000AFF2E047029766B3012B01D0EBB135E073
:1045200049B101290AD002290BD003290CD0042952
:104530000DD01CE0E1E1AFF2D44726E0AFF2C44772
:1045400023E0AFF2B04720E0AFF2A0471DE0AFF2AA
:104550008C471AE0AFF6404717E059B101290CD05B
:1045600002293FF461A803290AD004290BD00529A8
:10457000F0D00BE0AFF29C4707E0AFF2884704E0D1
:10458000AFF2784701E0AFF264470297AFF25447C9
:104590000397AFF6A0270497B9F1020F07D1AFF642
:1045A00094270497529F17B1AFF688270497AFF26C
:1045B00058470597B9F1010F1FD0AFF6004106919A
:1045C00016B315E0202020202020202020202020AD
:1045D000202020202020202000000000EC010010DE
:1045E00024000010EDE5EFF0E5F0FBE2EDEE000059
:1045F000012B1AD0AFF624413AE0AFF610470697E8
:1046000016B1012B01D0E3B133E041B1012909D04A
:1046100002290AD003290BD004290CD01AE0AFF6E6
:10462000044125E0AFF6F43122E0AFF6E0311FE0BF
:10463000AFF6D0311CE0AFF6BC3119E0AFF68441E3
:1046400016E051B101290BD00229D3D003290AD099
:1046500004290BD00529F1D00BE0AFF6C83107E0F3
:10466000AFF6B83104E0AFF6A43101E0AFF6943113
:104670000691AFF614510791AFF688310891B9F160
:10468000010F07D1AFF67C310891529911B1AFF605
:104690006C310891AFF620510991AFF660310A9163
:1046A000AFF234510B91AFF654310C91AFF6443167
:1046B0000D91AFF630310E91AFF620310F91AFF67C
:1046C0000C31DFF834841091032A04DD009988F856
:1046D000041004E02CE1A84201DA88F804000198F3
:1046E00056460F280ADDAFF61C33AFF60832AFF698
:1046F000F421AFF6E020FCF7F2F81BE0FF48C579A3
:10470000052D08D298F9045004EB8500001D0EC851
:1047100054F8250009E098F9040004EB8000001D1E
:104720000EC80EEB850050F8140CFCF7D8F80020EA
:10473000FCF771F8F04DC83DB5F8560010B1B5F86A
:10474000580028B900225E21AFF62030FCF7F7F8B8
:10475000B5F94C004FF47A77B84203DA01222B21E5
:1047600080B205E00A2190FBF1F080B200222B21FB
:10477000FBF78CFFB6F95A00B94648450ADA012220
:10478000232180B2FBF782FFB6F85A0001222321D1
:1047900080B20EE00A2790FBF7F080B200222321BE
:1047A000FBF774FFB6F95A00002290FBF7F080B2D5
:1047B0002321FBF76BFFB5F94E004F46B84203DAF1
:1047C0000122252180B205E00A2190FBF1F080B2A0
:1047D00000222521FBF75AFFB6F95A00B946484591
:1047E0000ADA0122232180B2FBF750FFB6F85A0003
:1047F0000122232180B20EE00A2790FBF7F080B25D
:1048000000222321FBF742FFB6F95A00002290FB59
:10481000F7F080B22321FBF739FFB6F9580048457D
:104820000ADA0122262180B2FBF730FFB6F85800E1
:104830000122242180B20EE00A2790FBF7F080B21B
:1048400000222621FBF722FFB6F95800002290FB38
:10485000F7F080B22421FBF719FFB5F918004E4696
:10486000B04209DA01227B2180B2FBF70FFF288BCF
:104870000122402180B20EE00A2790FBF7F080B2BF
:1048800000227B21FBF702FFB5F91800002290FB04
:10489000F7F080B24021FBF7F9FEB5F91A00B042FB
:1048A00009DA01227D2180B2FBF7F0FE688B01223C
:1048B0007D2180B20EE00A2690FBF6F080B2002245
:1048C0007D21FBF7E3FEB5F91A00002290FBF6F01C
:1048D00080B27D21FBF7DAFE98F90400874E0228AA
:1048E0007FF7F2AAF07801287FF4DFA9B5F922005A
:1048F000B5F91C1008437FF4A2A9DBF83C003C2565
:1049000090FBF5F105FB11005F4680B20022732198
:10491000FBF7BCFEF86B002290FBF5F090FBF5F185
:1049200005FB110080B25421FBF7B0FEF96BADE539
:10493000DBF834003C2590FBF5F105FB11005E46E9
:1049400080B200227321FBF7A1FE706B002290FB66
:10495000F5F090FBF5F105FB110080B25421FBF757
:1049600095FE716B6EE5009A644942F21076012A59
:1049700006D08846911E88423ADBAFF6106338E0D5
:10498000AFF2C033AFF61C625DA163A0FBF7A7FFD7
:10499000002301211A460846FBF79BFD644DA869D8
:1049A000B04202DA80B2012304E00A2190FBF1F068
:1049B00080B2002306220121FBF78BFD286A012328
:1049C00080B20B221946FBF784FD686A002380B28F
:1049D0000F220121FBF77DFD95F83E0013220121F6
:1049E000FBF7CAFE44490120423181F8280072E5F4
:1049F00043A343A242A148A0FBF771FF99F901002C
:104A00004FF00003062800F1010080B20ADB01220A
:104A10001146FBF75EFD99F901000023801C80B26E
:104A2000012209E000220121FBF753FD99F9010061
:104A3000801C002380B21A460221FBF74AFD99F937
:104A400001003B4DC0EBC00000EB400005EB8000D7
:104A50008069B04202DA80B2012304E00A2190FBAF
:104A6000F1F080B2002306220121FBF732FD99F913
:104A700001003746C0EBC00000EB400005EB8000B2
:104A8000C06EB04202DA80B2012304E00A2190FB3A
:104A9000F1F080B2002306220221FBF71AFD99F9FA
:104AA00001000123C0EBC00000EB400005EB8000DB
:104AB0000B22006A194680B2FBF70BFD99F9010041
:104AC0000123C0EBC00000EB400005EB80000B228F
:104AD000406F022180B2FBF7FCFC99F90100002332
:104AE000C0EBC00000EB400005EB80000F22406AE5
:104AF000012180B21EE00000EC0100102400001033
:104B000020202020202E202020202E202020202089
:104B100020202020000000004E202020552CC22004
:104B200020492C41202074B04320202000000000A8
:104B3000A8E30720FBF7CDFC99F901000023C0EBA7
:104B4000C00000EB400005EB80000F22806F0221C7
:104B500080B2FBF7BEFC99F902001322C0EBC00043
:104B600000EB400005EB8000012190F83E00FBF7D0
:104B700003FE99F902001322C0EBC00000EB4000D5
:104B800005EB8000022190F89200FBF7F5FDB8F9E3
:104B9000561099F90100891E884254DA062800F15E
:104BA000030080B24FF0000301DB012200E000228D
:104BB0000321FBF78EFC99F901004E46C0EBC000C3
:104BC00000EB400005EB8000D0F8C000B84202DAEC
:104BD00080B2012304E00A2190FBF1F080B20023AF
:104BE00006220321FBF775FC96F901000123C0EBB7
:104BF000C00000EB400005EB80000B22D0F8C8009D
:104C0000032180B2FBF765FC96F901000023C0EB9D
:104C1000C00000EB400005EB80000F22D0F8CC0074
:104C2000032180B2FBF755FC96F902001322C0EB7A
:104C3000C00000EB400005EB8000032190F8E60087
:104C4000FBF79AFD47E4C949012081F83C0042E4A2
:104C5000C74BC8A2CDA1D3A0FBF741FEC348012199
:104C60000AF1580580F83C1028880A465B2180B27A
:104C7000FBF70CFD01225D2102F00BBBCFA00290DF
:104C8000D4A00390D9480490D6E9012354F8251004
:104C9000D7A0FBF724FE0120FBF7BDFD0AF1780544
:104CA0004FF00002A8884FF0210100EB800080B295
:104CB000FBF7ECFC28880022232180B2FBF7E6FCFE
:104CC0002888002200EB80002D3080B2402103F0C4
:104CD00013B9CD4EB8F1000F01D0CCA100E0D1A1A5
:104CE0000291D6A10391DBA10491E0A10591E5A178
:104CF0000691EAA10791EFA10891F4A10991BB499E
:104D00000A91022A02DD89F8043003E0A84201DAA0
:104D100089F8040099F9040004EB8001D1E901232A
:104D200054F82010EFA0FBF7DAFD0120FBF773FD2C
:104D300036F85A0F3C25B0FBF5F105FB11000022B7
:104D40005B21FBF7A3FC30880022B0FBF5F0B0FB41
:104D5000F5F105FB11007D21FBF798FC30884FF43D
:104D60006167B0FBF7F000227B21FBF78FFC7088B6
:104D70000022B0FBF5F105FB11005D21FBF786FC7D
:104D800070880022B0FBF5F0B0FBF5F105FB1100D7
:104D90002921FBF77BFC70880022B0FBF7F028216B
:104DA000FBF774FCB6F90400002290FBF5F105FB5B
:104DB000110080B23E21FBF769FCB6F90400002225
:104DC00090FBF5F090FBF5F105FB110080B23C2162
:104DD000FBF75CFCF0880122212180B2FBF756FC36
:104DE00030890122402180B2FBF750FC70890122FA
:104DF000232180B2FBF74AFC0122B089242180B232
:104E000065E7BEA00290C3A00390C8A00490CDA007
:104E10000590D2A00690D7A00790DCA00890E1A052
:104E20000990E6A00A90EBA00B90F0A00C90F5A0E2
:104E30000D90FAA00E90FF486C49B0F95C0004EBAD
:104E400080004160AFF684018160AFF68801361DB5
:104E5000C1600ECE0298FBF742FD99F9010099F965
:104E60000410421A022A01DD801E01E0884201DAA4
:104E700089F804000120FBF7CEFCEF4D28780128CB
:104E800068D06FF003022121ECA000BFFBF757FDB3
:104E9000687801285FD06FF003024021E7A000BFCF
:104EA000FBF74DFDA878012856D06FF003022321AF
:104EB000E2A000BFFBF743FDE87801284DD06FF07A
:104EC00003022421DDA000BFFBF739FD287901286A
:104ED00044D06FF003022521D8A000BFFBF72FFDBF
:104EE000687901283BD06FF003025E21D3A000BF98
:104EF000FBF725FDA879012832D06FF003022621A7
:104F0000CEA000BFFBF71BFDE879012829D06FF088
:104F100003022A21C9A000BFFBF711FD287A01284E
:104F200020D06FF003022821C4A000BFFBF707FDCB
:104F3000687A012817D06FF003022921BFA000BFB3
:104F4000FBF7FDFCA87A01280ED06FF003022B219D
:104F5000BAA077E182E186E18AE18EE192E196E111
:104F60009AE19EE1A2E1A6E1AAE100002E02001072
:104F70000D9601002049EDE0E3F0203D20202020A7
:104F8000205DC02020202020000000002055EDE002
:104F9000E3F0203D20202020205BC2202020202084
:104FA00000000000202020202020CDC0C3D0D3C787
:104FB000CAC0202020202020000000002046E2E57A
:104FC000EDF22EF2E5EAF3F92E2020202020212513
:104FD000000000002046E2E5EDF22E6D61782E2003
:104FE0002820204025292023000000006C3B0000E1
:104FF0002020202020C2C5CDD2C8CBDFD2CED020E9
:1050000020202020000000002401001020C2EAEB34
:10501000FEF7E5ED20202020202020202020202049
:105020000000000020C2FBEAEBFEF7E5ED202020A7
:105030002020202020202020000000002054EFF01D
:10504000FFEC2E2020202020307B3A307D3A305B50
:105050000000000020D2EEE1F02E202020202020B1
:1050600030283A30293A305D0000000020D2EFE5C8
:10507000F0E5EAEB2E202020202020303C3A303E84
:10508000000000002049F1F22EEFF02E2020202019
:1050900020202020202021C0000000002049F1F223
:1050A0002EEEE1F02E20202020202020202040C0C5
:1050B000000000002055F1F22EEFF02E20202020DD
:1050C0002020202020202342000000002055F1F263
:1050D0002EEEE1F02E20202020202020202024422F
:1050E000000000002020202020C0C2D2CED0C5C2A7
:1050F000C5D0D12020202020000000002020C0C2E8
:10510000D2CECCC0D2DB20CDC0C3D0D3C7CECA2034
:105110000000000020C0E2F2EEECE0F220B9312005
:1051200020202020202021200000000020C0E2F2CA
:10513000EEECE0F220B93220202020202020402078
:105140000000000020C0E2F2EEECE0F220B93320D3
:1051500020202020202023200000000020C0E2F298
:10516000EEECE0F220B93420202020202020242062
:105170000000000020C0E2F2EEECE0F220B93520A1
:1051800020202020202025200000000020C0E2F266
:10519000EEECE0F220B936202020202020205E20F6
:1051A0000000000020C0E2F2EEECE0F220B937206F
:1051B00020202020202026200000000020C0E2F235
:1051C000EEECE0F220B938202020202020202A20F8
:1051D0000000000020C0E2F2EEECE0F220B939203D
:1051E00020202020202028200000000020C0E2F203
:1051F000EEECE0F220B931302020202020202920C0
:105200000000000020C0E2F2EEECE0F220B9313103
:105210002020202020202B200000000020C0E2F2CF
:10522000EEECE0F220B931322020202020203D2079
:10523000000000002400001046F20720C2DBCACBA9
:105240002E000000FBF77BFBE87A01283DD06FF0D1
:1052500003023D21AFF21C0001F0F0BC6FF002022E
:105260002121C8A012E66FF002024021C5A017E676
:105270006FF002022321C3A01CE66FF0020224217A
:10528000C0A021E66FF002022521BEA026E66FF045
:1052900002025E21BBA02BE66FF002022621B9A01C
:1052A00030E66FF002022A21B6A035E66FF0020266
:1052B0002821B4A03AE66FF002022921B1A03FE60E
:1052C0006FF002022B21AFA043E66FF002023D21F6
:1052D000ACA0C1E7ADA00290B2A00390B7A004902B
:1052E000BCA00590C1A00690C6480790AFF62C5010
:1052F0000890AFF63050361D09900ECE0298FBF79D
:10530000EEFA99F9010099F90410421A022A01DD16
:10531000801E01E0884201DA89F804000120FBF7D1
:105320007AFA0AF17605002223212888FBF7AEF9E4
:10533000B548002224214088FBF7A8F90222252144
:10534000DBF82C00FBF724F800225E21A88856E544
:105350008EA00290ADA00390B2A00490B7A00590DB
:10536000BCA00690C1A00790C6A0089099A0099083
:105370009EA00A90A3480B90AFF6B8500C90AFF6E1
:10538000BC50361D0D900ECE0298FBF7A8FA99F985
:10539000010099F90410421A022A01DD801E01E081
:1053A000884201DA89F804000120FBF734FA964DAF
:1053B0000022AD1D21212888FBF768F968880022AA
:1053C0004021FBF763F9A88800222321FBF75EF94F
:1053D000AD1D002228882621FBF758F96888002295
:1053E0002921FBF753F9A88800222821FBF74EF961
:1053F00003222521DBF82C00FAF7CAFF00225E21E8
:10540000BAF87A00FBE4A549C95D552912D0A4A1D8
:105410000291A9A10391AEA10491B3A10591B8A1F4
:105420000691BDA10791C2490891012A04DD89F8BE
:1054300004C005E0BFA1EBE7A84201DA89F8040047
:1054400099F9040004EB800154F820204B68BFA1B7
:10545000C4A0FBF744FA0220FBF7DDF999F902003A
:105460000022401C80B25E21FBF710F9664999F9D1
:1054700002004839002231F810002121FBF706F91B
:10548000614999F902004439002231F91010A84805
:10549000493800EB81004021FBF751FA5A4999F94C
:1054A00002004039002231F810002321FBF7EEF80A
:1054B000554999F902003C39002231F810002421A5
:1054C000FBF7E4F8504999F902003839002231F825
:1054D0001000252194E4964BA8A0153B1A461146CE
:1054E000FBF7FDF9484D0023603D082295F90000C7
:1054F000012180B2FAF7EDFF95F90100002380B297
:1055000009220121FAF7E5FF95F90200002380B294
:105510000A220121FAF7DDFF96F9012005F1C20008
:10552000A421115402F0EABC9AA102919FA1039117
:10553000A4A10491A9A10591AEA10691A7A10791EB
:10554000B2A10891B7A10991BCA10A91C1A10B9187
:10555000C6A10C91CBA10D91D0A10E91D5A10F9117
:10556000DAA11091DFA11191E4A11291E9A11391A7
:10557000EEA11491F3A11591F8A11691FDA1179137
:1055800004E20000C2CACB2E000000002020DDCBC8
:10559000C5CAD2D0CED1CDC0C1C6C5CDC8C52020C8
:1055A0000000000020C2E2EEE42020202020202085
:1055B00023C22020202020200000000020CFDDD1A9
:1055C000202020202020202024C220202020202035
:1055D000000000002050F1F3ECEC2E2020202020D1
:1055E000202025EAC2F22AF7000000002050F2E550
:1055F000EAF3F92E2020202020205EC2F220202075
:10560000000000006C3B0000FC01001020C2E2EE34
:10561000E420F42E412020202021C2202020202020
:105620000000000020C2E2EEE420F42E4220202000
:105630002040C220202020200000000020C2E2EEF6
:10564000E420F42E432020202023C22020202020EC
:105650000000000020CFDDD12020F42E41202020AA
:105660002026C220202020200000000020CFDDD1F5
:105670002020F42E422020202029C220202020207B
:105680000000000020CFDDD12020F42E4320202078
:105690002028C220202020200000000082000010CE
:1056A00020C2FBE2E5E4E5EDE02030212F402020A0
:1056B0002F3023200000000020CDEEECE8ED2EE599
:1056C000ECEA2E202020202024412AF700000000B0
:1056D00020CDE0F0E0E1EEF2EAE0202020202020E2
:1056E00025F72E200000000020CAEEEDF2F0EEEBD0
:1056F000FC20E5ECEAEEF1F2E820202000000000BA
:1057000020C2FBF0E0E2EDE8E2E0FEF9E8E920E7A4
:10571000E0F0FFE40000000020D0E0E7F0FFE4FB51
:1057200020202020202020202020202000000000F9
:105730000D96010020C2E2E5E4E5EDE020203021F5
:105740002F4020202F302320000000002020202088
:1057500020C1C0D2C0D0C5DF204E5E202020202036
:105760000000000020C1C0D2C0D0C5C9CDDBC92017
:10577000C6D3D0CDC0CB2020000000002020C2E244
:10578000E5E4E8F2E52020EFE0F0EEEBFC2020205D
:105790000000000020C8F1F2EEF7EDE8EAEEE220AA
:1057A00020202020202020210000000020CCE0EA42
:1057B000F1E8ECE0EBFCEDE0FF20E4EBE8F22D207B
:1057C0000000000020F1F2FC20EFF0EEF6E5F1F130
:1057D000E02020305B3A305D0000000020CEF2EE89
:1057E000E1F0E0E6E5EDE8E520E2F0E5ECE5EDE806
:1057F0000000000020EFF0EEF6E5F1F1E0202020BF
:1058000020202020202020400000000020EDE0206B
:10581000EFF3EBFCF2E520202020202020202023A5
:105820000000000020C8E7ECE5F0E5EDE8E520F237
:10583000EEEAE020202020200000000020EDE0E340
:10584000F0F3E7EAE8202020202020202020202458
:105850000000000020D0E5E6E8EC20E3EBE0E2ED1C
:10586000EEE3EE20ECE5EDFE00000000202020201D
:105870002020202020202020202020202020202523
:105880000000000020D4E8EAF1E8F0EEE2E0EDEDFF
:10589000FBE52020202020200000000020202020E8
:1058A00020202020202020EDE0F1F2F0EEE9EAE8CF
:1058B0000000000020D0E5EBE52020202020202063
:1058C00020202020202020200000000020F2EEEAEE
:1058D000EEEEE3F0E0EDE8F7E5EDE8FF2020202034
:1058E0000000000020D0E5EBE520EAEEEDF2F0EE5E
:1058F000EBFF2020202020200000000020EDE0EF22
:10590000F0FFE6E5EDE8FF202020202020202020E9
:105910000000000020D0E5F1F2E0F0F2202020208D
:10592000202020202020205E0000000020457468F8
:1059300065726E65742020202020202020202020E9
:1059400000000000204D4F44425553204144524531
:10595000535320202020203C00000000204D4F44C5
:105960004255532042415544524154452020202065
:1059700000000000202020202020202020202020A7
:105980002020202020203E3000000000BBA11891E4
:10599000C0A11991C5A11A91CAA11B91CFA11C91B7
:1059A000D4A11D91D9A11E91DEA11F91D7A1209153
:1059B000E2A12191E7A12291D4A12391EBA124910D
:1059C000F0A12591F5492691F5A12791FAA12891F9
:1059D000FF492991022A01DD337102E0A84200DA71
:1059E000307199F9040004EB8001D1E9012354F8E6
:1059F0002010F8A0FAF773FF0120FAF70CFFFB4E16
:105A000000222121B6F8560080B2FAF73FFE06F5D3
:105A100080753C20298CB1FBF0F1B1FBF0F200FB6A
:105A2000121000225D21FAF731FE298C4FF46160DB
:105A3000B1FBF0F000225B21FAF728FE688C6FF0D2
:105A4000060718B1BA1C4021E9A002E03A464021FD
:105A5000E9A0FAF774FFA88C6FF003024FF023015E
:105A600008B1E8A000E0E9A0FAF769FF688D20B16D
:105A70006FF002022421E7A002E03A462421E7A0C9
:105A8000FAF75DFF96F82B00D8B301283FD06FF0EE
:105A9000100202284FF025013ED0E3A0FAF74FFF95
:105AA00096F82C00012839D06FF003025E21AFF682
:105AB000740000BFFAF743FFBAF8380000223C2117
:105AC000574680B2FAF7E2FD788F00223E2180B27D
:105AD000FAF7DCFDB7F93C004FF000024FF0280167
