:020000040000FA
:1000000028280820E1000000E5000000E7000000CB
:10001000E9000000EB000000ED000000000000001F
:10002000000000000000000000000000EF000000E1
:10003000F100000000000000F300000069BE0000B5
:10004000F700000025D9000051D90000F70000009A
:10005000F700000057F70000F7000000F70000006D
:10006000F7000000F7000000F7000000F7000000B4
:10007000F7000000F7000000F7000000F7000000A4
:10008000F7000000F7000000F7000000F700000094
:10009000F7000000F70000007D250000F7000000D9
:1000A000F70000002BF50000F7000000F70000004B
:1000B000710C0100F7000000F7000000F7000000DD
:1000C000F7000000F7000000F7000000DFF80CD098
:1000D00010F096FE00480047CFBF000028280820F7
:1000E00005480047FEE7FEE7FEE7FEE7FEE7FEE71E
:1000F000FEE7FEE7FEE7FEE7CD000000FEE710B5F5
:1001000012F02EFD12F0BAFD12F0ACFD12F03AFD25
:10011000AFF30080BDE8104012F076BD10B513F0CB
:1001200087FB14F0C9F813F0DBFBBDE8104013F0B7
:1001300053BD13F09BBA13F063B809B100207047A8
:1001400011F0B8BD0020704770B5374A0020A2F109
:100150001401064601F10A030C5C54B11D5CAC426B
:1001600007D1145C2CB1641E14F0FF04145400D1A8
:100170000E540C5C1C54401CC0B20A28ECD370BD59
:1001800070B5294D0024143D641CE4B22E5D1EB1EF
:10019000864201D00A2CF7D3285523480C3040F86A
:1001A0002410283040F824203438035570BD1E4AEE
:1001B0000021143A491CC9B2535C834201D00A2978
:1001C000F8D3DBB2834210D117480C3050F82130FD
:1001D00016480360144B343353F821304360002039
:1001E0005054114A505401207047002070470E4A65
:1001F0000021143A491CC9B2535C834201D00A2938
:10020000F8D3DAB282420CD107480C3050F82120E2
:1002100006480260044A343252F82110416001203D
:100220007047002070470000FCE1072048C007200D
:100230000A4BDA6018705970704708490881704796
:100240000648B0F90810002907D0491E09B20181FB
:10025000002902D1084600F061BB704750C007205A
:1002600090F900308B4200DA027090F9003093422E
:1002700000DD0170704790F900308B4200DA0170A8
:1002800090F90010914200DD02707047B0F9003023
:100290008B4200DA0180B0F90010914200DD02804B
:1002A0007047B0F900308B4200DA0280B0F90030BC
:1002B000934200DD0180704703688B4201DB1946E1
:1002C00000E00160914200DD0260704701460020BD
:1002D00000E0401C0A5C002AFBD1704710B50022E8
:1002E00000E0521C835C8C5CA34201D1002BF8D14E
:1002F000D8B2E1B2401A10BD70477047FFFFFFFF50
:100300000020FB4A20211154401CC0B2C828FAD357
:1003100070470146F64A0020401CC0B2135C8B4275
:1003200001D0C828F8D3704710B50021F14C0A223B
:10033000B0FBF2F302FB13006054491CC9B218462B
:100340000529F5D310BDF0B5EB4B0121202719701D
:100350000521E84A002601E01C7844B1541814F83D
:10036000015C25B9814202D904F8017C05E05418EA
:1003700014F8015D303525701E70491E11F0FF0123
:10038000EAD1F0BDFEB52B23002802DA404200B2CC
:100390002D2300250A266C4690FBF6F706FB170076
:1003A00060556D1C6DB238B20A2DF5DB01260025B3
:1003B0000920202700E046B114F800C0BCF1000F6E
:1003C00003D1904201DD275405E0265C30362654E7
:1003D00000266D1CEDB2401E40B20028EBDA2D2B3A
:1003E00002D163556D1CEDB26AB168B205E0231805
:1003F00013F8013C2354401E40B29042F7DC2E20FB
:100400006D1CA054EDB20846FFF783FF0021B84AE7
:1004100004E0635C461A491C935549B2A942F8DBD3
:10042000FEBDFEB52B23002801DA40422D23002516
:100430000A266C46074690FBF6F006FB10776755D8
:100440006D1C6DB20A2DF5DB012600250920202741
:1004500000E046B114F800C0BCF1000F03D1904297
:1004600001DD275405E0265C3036265400266D1C3D
:10047000EDB2401E40B20028EBDA2D2B02D16355BD
:100480006D1CEDB26AB168B205E0231813F8013CA7
:100490002354401E40B29042F7DC2E206D1CA05425
:1004A000EDB20846FFF735FF0021914A04E0635C96
:1004B000461A491C935549B2A942F8DBFEBDFEB568
:1004C0002B26002801DA40422D2600240A276D46FB
:1004D000844690FBF7F007FB10CC05F804C0641CC1
:1004E00064B20A2CF4DB0127002009244FF0200C11
:1004F00000E04FB115F804E0BEF1000F04D19C42BA
:1005000002DD05F804C005E02F5D30372F550027C8
:10051000401CC0B2641E64B2002CEADA2D2E02D157
:100520002E54401CC0B26BB144B205E02E1916F82F
:10053000016C2E55641E64B29C42F7DC2E24401CD4
:10054000EC54C0B201EB810102EB8101CAB200217F
:10055000674B04E06C5C561A491C9C5549B28142B9
:10056000F8DBFEBD70B50D4616461C46FFF7DCFEF7
:10057000601CC0B2FFF7E7FE05EB850006EB8000CC
:10058000C1B25C4A5A4B0020A04201D2155C5D54B6
:1005900006D3155C202D03D04CB15E1806F8015C23
:1005A000491E401CC0B2C9B20528EDD370BD5D54D0
:1005B000F6E770B50446084615461E46FFF7A9FE45
:1005C0004B4B0146FF2804D106E01A54641C401C22
:1005D000C0B22278002AF8D148480078002804D018
:1005E000002E02D029445F20585470BD2DE9FF4FE2
:1005F0008146DDE90D048A469346FFF78AFE2022F4
:10060000DFF8F8803A490A234FF0640C012C09D135
:1006100098F8005035B10D18A5F10E05AA706A7052
:100620002A7020E099FBF3F603FB16970D1830377C
:10063000A5F10E05022CAF7096FBF3F703FB1766CE
:1006400006F130066E7099FBFCF606F1300605F8EF
:100650000E6B08D198F800602EB1A5F10A05AA70BA
:100660006A702A7021E09AFBF3F603FB16A70D18B7
:100670003037A5F10A05032CAF7096FBF3F703FBA7
:10068000176606F130066E709AFBFCF606F130062E
:10069000674605F80A6B08D198F800602EB1A5F1FD
:1006A0000605AA706A702A702AE09BFBF3F603FB2A
:1006B00016B70D183037A5F10605042CAF7096FB60
:1006C000F3F703FB176606F130066E709BFBFCF632
:1006D00006F13006674605F8066B11D198F8004020
:1006E00074B1A5F102050A546A702A70BDE8FF8F43
:1006F0002C020010B4C00720B9C007204A00001027
:10070000039C94FBF3F203FB124430340C5492FB31
:10071000F3F403FB14220844A0F1020030324270CB
:10072000039991FBF7F101F130010170DEE770B53B
:100730000D461446FFF7F8FD601CC0B2FFF703FE3C
:100740002846FFF7E6FDB44BB44A002124B95D5CAE
:10075000202D01D015540FE0A14201D25D5CF9E7D4
:1007600004D14FF02E0515545D5C02E05D5C202D38
:1007700002D0161806F8015C401E491CC9B2C0B26E
:100780000529E3D370BD17B501EB810002EB8000B2
:10079000C2B29DF80030A24803F00F0100EB131322
:1007A000445C9E498C54521ED2B21B788B549DF8E7
:1007B0000130521E03F00F04D2B2045D8C54521E5D
:1007C00000EB1313D2B21B788B549DF80230521EEB
:1007D00003F00F04D2B2045D8C54521E00EB1313CD
:1007E000D2B21B788B549DF80330521E03F00F04D5
:1007F000D2B2045D8C54521E00EB1310D2B20078BA
:1008000088541EBD01EB810102EB8101844A10B5C1
:1008100000F00F03C9B2D45C804B02EB10105C54A3
:10082000491EC9B20078585410BD01EB810102EB9A
:100830008101CBB27A4910B500F001028C5C774A95
:10084000D45444085B1E04F00100DBB2085CD054B1
:100850005B1ED8B2630803F001045B080C5D1454FE
:10086000401E03F00104C0B20C5D14545B08401E2E
:1008700003F00104C0B20C5D14545B08401E03F089
:100880000104C0B20C5D14545B08401E03F0010467
:10089000C0B20C5D1454401EC4B25808085C105518
:1008A00010BD30B55F4901235C4D91F9012091F9EC
:1008B000041000EB80048A4202D105F8243030BDD8
:1008C000564D4C1C00EB800005EB8000A24201D18C
:1008D000037530BD8C1CA24202D180F8283030BD97
:1008E000CC1CA24202D180F83C3030BD0C1DA2428B
:1008F00002D180F8503030BD4C1DA24202D180F8A8
:10090000643030BD8C1DA24202D180F8783030BDF9
:10091000C91D8A42FBD180F88C3030BD424B1A8809
:10092000521E104400B21880404A00EB800002447E
:100930003C48136803601279027142781144417097
:100940007047F0B5384D394FB5F9004004EB8406D7
:10095000641C2C80334C3E44256835602579357104
:10096000207061702271A370F0BDF0B505460E468F
:100970001746FFF7C5FC294C5FF00000401C15F836
:10098000011BC0B204F8011B1428F7D35FF000006C
:10099000401C16F8011BC0B204F8011B1428F7D341
:1009A0005FF00000401C17F8011BC0B204F8011BE7
:1009B0001428F7D35FF00000401C13F8011BC0B2ED
:1009C00004F8011B1428F7D3F0BD30B504460846DF
:1009D0001546FFF79EFCFF2809D0104A2178002910
:1009E00005D04319641C401CD154C0B2F6E730BD99
:1009F00010B5029CFFF7B9FF0A48C37882784178A6
:100A00006520FFF79EFF642094FBF0F0BDE81040E6
:100A1000C0B2FFF712BC0000B4C007202C020010C7
:100A20001A520100E40100106800001084650010F3
:100A300010B5FF4C082200212088401C2080204651
:100A4000FFF72FFCFB48B4F9001000EB410142888E
:100A50000A84B0F84E00A1F86C0010BDF64A30B41C
:100A6000F649B2F90A4040F6AC53B1F900009C4295
:100A700003DCB2F914209A4203DD142804DA401C86
:100A800001E008B1401E0880142230BC0021EB4870
:100A9000FFF7FCBBF0B5E848E9494FF42F72B0F915
:100AA0000000B1F90010E74B484390FBF2F01880CA
:100AB000E14842F210732030B0F90000484390FB47
:100AC000F2F0E149E44A0880E149E048B1F9004028
:100AD000E0490088B1F90010001B484390FBF3F097
:100AE0001080001B484390FBF3F0DC49DE4C08808B
:100AF000DB480188DB48B0F9003071B900210846B5
:100B000008E000BF00EB800504EB0515401C2D6AD2
:100B1000C0B229449842F5DB1180B2F900000021EF
:100B2000002800DA1180002202EB820004EB0010A2
:100B3000C578192D1BD28579C67905EB0626066284
:100B4000067A477A06EB0726C661867AC77A06EBED
:100B500007268661067B466280F84E50857B80F8CA
:100B60003E50057C467C05EB0625856406E08161E8
:100B70000162C161416280F83E108164521CD2B2B0
:100B80000C2AD1D3B948BA49008858430880B948DB
:100B9000B949008858430880F0BDB848416821F43D
:100BA000402141F480214160416821F4403141F409
:100BB00080314160416821F4404141F4804141600D
:100BC000416C21F4402141F400214164416C21F445
:100BD000403141F400314164416C21F4404141F421
:100BE00000414164A648016821F0E06101600168AC
:100BF00041F400110160016821F480310160016855
:100C000021F47F4141F4807101608115C1609D48EC
:100C10008903016070472DE9F0419B4C6088218871
:100C2000401A00B201F066FCA51D2880A0886188EA
:100C3000401A00B201F05EFC6880A0882188401A4A
:100C400000B201F057FC4FF49672A880A4F128017D
:100C5000904201DAA0880AE0B5F90200904201DA78
:100C6000608804E0B5F90000904201DA20884882EB
:100C70004C7800231CB37048B1F91220403005684D
:100C800015440560456815444560856815448560D0
:100C9000C5682A44C2604A8B521C12B24A83B2F51C
:100CA000805F00DB4B83B1F91A20950535D1921294
:100CB00050F822502D120D8240F822302DE0734F53
:100CC000887891F803C007EBC012B1F912E042F83E
:100CD0002CE05FEA8C7212D100252A4607EBC01681
:100CE00056F82270521CD2B23D44202AF8D36A1121
:100CF000514D25F8102005F1200222F810E0401C8B
:100D0000C0B28870102808D30CF1010C0CF0FF0061
:100D10008B70C870202800D3CB70641C0B7014F04B
:100D20000100574A487005D0106820F0FF00001DF0
:100D3000106034E0897808070028106820F0FF0070
:100D400002DB00F1010001E000F1020010605048F8
:100D5000036843F080530360036A43F080430362F7
:100D6000036E43F080630366CB07436908D043F00A
:100D7000805343618B07436B05D423F0804304E029
:100D800023F08053F5E743F0804343634907416F05
:100D900002D421F0806101E041F080614167106878
:100DA00040F080701060BDE8F08110B50021D020C7
:100DB0000DF087FB0021BDE81040D4200DF081BB71
:100DC0002DE9F05FDFF8CC80DFF8CCB0334D98F838
:100DD0000000334FDFF8CC90012600244FF4167A40
:100DE000012823D130480168491C91FBFAF20160C7
:100DF0000AFB121030B92D480078012802D1D0200A
:100E00000DF05FFBD9F80010484609B1491E01609A
:100E100008462749B1F90010084303D188F800407B
:100E2000FFF7C3FF2348008800B145E07AE00000E7
:100E3000B0C0072058E20720246500101E010010F2
:100E40005A030010F4000010A80300100AE1072064
:100E5000C4C00720B0030010F6000010B2C0072085
:100E60004801001088000010F0E207202401001063
:100E700044010010260100104601001000C002408D
:100E80000040034000E100E030C00720245D001076
:100E900000C0092037000010760100103900001052
:100EA0007C010010D8010010D40100106100001076
:100EB0003C01001074010010BBF8000090B3FF4B20
:100EC0001888401C01B2FE481980027832B1012A0C
:100ED0000CD0022A14D0032A1BD023E0F94A2E702A
:100EE000B2F9002091421DDB06701AE031B12C707E
:100EF000B7F90020914215DB022108E02E70F7E7D8
:100F0000F14A2C70B2F9002091420BDB03210170F1
:100F100007E0A9B185F80060B7F90020914201DB34
:100F200004701C8098F80000022854D1E74801683A
:100F3000491C91FBFAF201600AFB121010B108E0A3
:100F40002C70E9E7E2480078012802D1D4200DF0A6
:100F5000B8FAD9F80010484609B1491E01600846A0
:100F6000DC49B1F90010084303D188F80040FFF7CD
:100F70001CFFD948008800282DD0BBF800000028AD
:100F800029D0CE480188491C0AB2CD4902800B788D
:100F900073B1012B14D0022B1FD0032B1BD12AB30A
:100FA00085F80060B7F900309A4214DB0C7011E04C
:100FB000C44B2E70B3F900309A420CDB0E7009E07E
:100FC00032B12C70B7F900309A4204DB02220BE0F8
:100FD0002E70F7E70480BDE8F09FBB4B2C70B3F98F
:100FE00000309A42F7DB03220A70F3E72C70D9E74E
:100FF00070B5BA480078032843D1B949B9480A689E
:10100000521C0A60B0F90050B748B0F900002B1824
:10101000B648B0F900001C18B548B0F90000261811
:101020000020964204DCB34E08603288521C3280A5
:101030000968B14E0122A94201DB327000E0307034
:10104000AE4D8B4203DC8C4201DD2A7000E028703B
:10105000AB490A88521C12B20A80B2F5167F10DB27
:101060000880A8490A88521C12B20A803C2A08DB70
:101070000880A5490A88521C12B20A80182A00DB8F
:10108000088070BD0121D0200DF01BBA0121D420B1
:101090000DF017BA70B591480125002405708B48F2
:1010A0009B490460994800680860FFF7EBFF994886
:1010B000C571047288480088002809D096480088C5
:1010C000002805D07D4804807D4804709348057051
:1010D00070BD824910B5022008707C4800248C49FC
:1010E00004608F4800680860FFF7D0FF894901203D
:1010F000C8710C7278490988002909D08649098885
:10110000002905D06D490C806D490C708349087029
:1011100010BD7249032008707047704900200870A4
:1011200070476E490020087070476C4900200870B5
:101130006B4908606F4908807149088071490880CF
:101140007149088070476549002008702DE62DE937
:10115000F04106464FF4FA75002728460DF0BAF81C
:10116000B04202DB0020804629E005EB47000DF08D
:10117000B1F8B04200DC3C460A373FB2C82FF4DD7C
:10118000C82C0FDA04F10A0709E000BF05EB4400A0
:101190000DF0A0F8B04200DCA046641C24B2BC42B2
:1011A000F4DB0CE05FF0C80405EB44000DF092F8AE
:1011B000B04200DCA046641C24B2CA2CF4DD4046D8
:1011C000F1E52DE9F04106464FF47A7500272846EF
:1011D0000DF080F8B04202DB0020804629E005EBEC
:1011E00047000DF077F8B04200DC3C460A373FB2CA
:1011F000C82FF4DDC82C0FDA04F10A0709E000BF9C
:1012000005EB44000DF066F8B04200DCA046641C1B
:1012100024B2BC42F4DB0CE05FF0C80405EB4400F0
:101220000DF058F8B04200DCA046641C24B2CA2C71
:10123000F4DD4046B7E52DE9F05FDFF8E8903A4F7E
:101240003A4E99F800003A4C322542F2ED784FF0D0
:10125000000A40F2FE3B46282AD1307801286FD19F
:101260002088401C00B22080404509DB86F800A0A1
:101270003049AC200DF0EBF800210846FFF74EFB9B
:101280002D49A1F800B0B4F9001091FBF5F005FB71
:10129000101100EB80023A80312909D14FF4FA7124
:1012A00001EB4000254900B2B1F900100DF0CFF874
:1012B00099F80000452843D1307842E0C40300107B
:1012C0003A000010780100107A010010D4010010DB
:1012D000610000103E010010740100103700001082
:1012E000DC01001086010010880100108A01001046
:1012F0008C01001092010010C8030010DCC0072010
:10130000D8C00720C6030010DAC00720C8010010AB
:10131000D801001008C00720760100103900001025
:10132000CC010010E40100100A0100103800001088
:101330006A000010CDABFFFF0C010010F40000109C
:101340002BE0012829D12088401C00B22080404594
:1013500009DB86F800A0FA49AE200DF078F80021EC
:101360000846FFF7DBFAA7F800B0B4F90010F54B18
:1013700091FBF5F005FB101100EB80021A8031297A
:101380000BD14FF47A7101EB4000EF4900B2B1F993
:101390000010BDE8F05F0DF05AB81CE62DE9F05FD3
:1013A000EA48DFF8AC93DFF8AC83008830B3EA4852
:1013B000008818B3E94899F80030B0F90010E848FF
:1013C000012B007807D0E74A022BB2F900200CD09D
:1013D000A8F8002003E0012801D018B124E0E24879
:1013E000018021E0E1480188F9E7012801D018B126
:1013F0001AE0A8F8002017E0DD4812E0DD48B0F957
:101400000000022857D0012857D0DB480188D64871
:101410000180DA48B0F90000022850D0012850D0ED
:10142000D7480188A8F80010D648B0F90020D6485F
:10143000B0F90010CC48FEF729FFD448B0F90020DD
:10144000D348B0F90010C348FEF720FFD14E002565
:101450004FF0010A70790A2807D2401CC0B270719F
:101460000A2802D3757186F806A0CB49CB48CC4A2E
:101470000B78CC4CCC4F302B25D02B2B7ED0CB49AE
:10148000B04A332B74D0DFF828C3462B71D0452BDC
:1014900070D099F80010DFF8B092DFF818B3012986
:1014A00069D0022968D0032967D00570002053460F
:1014B000B7F90020BFE3C048A8E7C048A6E7C04886
:1014C000AFE7C048ADE791F9011039B101291CD04F
:1014D0000570E562256384F828A08AE240F2FE31B7
:1014E000B181F18180F800A00020B7F9002009E067
:1014F00000EB800304EB0313401CD962196383F8EB
:101500002850C0B29042F3DB73E2117811B1012987
:1015100015D06EE2B581F581057000205346B7F90C
:10152000002009E000EB800104EB0111401CCD62BA
:101530000D6381F82830C0B29042F3DB59E240F2EB
:10154000FE31B181F18180F800A00020B7F90020C0
:101550000AE000BF00EB800304EB0313401CD962D8
:10156000196383F82850C0B29042F3DBFCE305E036
:10157000B1E0C6E035E160E13CE2F7E291F901302B
:1015800013B1032B57D05DE040F2FE33B381F381FA
:1015900080F800A0E562256384F828A0E567C4F818
:1015A000805084F878A0C4F8CC50C4F8D05084F8A7
:1015B000C8A0C4F81C51C4F8205184F818A1C4F87C
:1015C0006C51C4F8705184F868A1C4F8BC515246FB
:1015D000C4F8C05184F8B821C4F80C52C4F81052B1
:1015E00084F80822C4F85C52C4F8605284F8582287
:1015F000C4F8AC52C4F8B05284F8A822C4F8FC5223
:10160000C4F8005384F8F822C4F84C53C4F850537B
:1016100084F84823C4F89C53C4F8A05384F8982352
:1016200091F9020000EB800004EB0010C362036339
:1016300080F8285098E3127812B1012AA4D093E3DD
:10164000B581F581057004F1280450466560A560F8
:1016500084F800A06565A56584F850A0C4F8A4507E
:10166000C4F8A85084F8A0A0C4F8F450C4F8F85006
:1016700084F8F0A0C4F84451C4F8485184F840A15B
:10168000C4F89451C4F8985184F890A1C4F8E45176
:10169000C4F8E85184F8E001C4F83452C4F8385270
:1016A00084F83002C4F88452C4F8885284F8800266
:1016B000C4F8D452C4F8D85284F8D002C4F82453E1
:1016C000C4F8285384F82003C4F87453C4F878533A
:1016D00084F8700348E30020B1F90010B2F900204B
:1016E000B7F900300AE000BF00EB800704EB0717F2
:1016F000401CC7E90B1287F82850C0B29842F3DBB0
:1017000032E39CF8000001284FF0000011D040F2B5
:10171000FE31B7F9002009E000EB800304EB03136E
:10172000401CD962196383F82850C0B29042F3DBA1
:101730001AE3B1F90010B2F90020B7F900304DE01A
:10174000CDABFFFF0C010010F6000010740100107B
:10175000370000106C010010760100107E010010AF
:1017600039000010820100106A0100108001001091
:10177000840100106E0100102C0100107001001097
:101780003201001044010010460100102001001039
:101790002201001008C00720E401001064C00720E7
:1017A0004E000010F0E20720880000100A0100102F
:1017B00038000010AE030010300100102E010010A0
:1017C000360100103401001000EB800704EB07170E
:1017D000401CC7E90B1287F82850C0B29842F3DBCF
:1017E000C2E29CF8000001284FF0000011D040F246
:1017F000FE31B7F9002009E000EB800304EB03138E
:10180000401CD962196383F82850C0B29042F3DBC0
:10181000AAE2B1F90010B2F90020B7F9003009E0EE
:1018200000EB800704EB0717401CC7E90B1287F891
:101830002850C0B29842F3DB96E2FF48B0F90000AE
:1018400068B1FE490968814209DADFF8F4C3BCF8DF
:1018500000204A4311B291FBF0F0ACF80000B079DF
:10186000D0B3F848008840B1F748008828B1F7485D
:101870000078012847D0032845D0F148B9F9001075
:10188000B0F90000814204DAF148018801F1010158
:1018900004E004DDEE480188A1F101010180A3F21A
:1018A000FE30404202B2584201B2E948FEF7EEFC77
:1018B0006FF0310932224946E548FEF7E7FCE5487A
:1018C000B0F90010E448B0F90000814205DABBF835
:1018D000001001F1010105E015E005DDBBF8001085
:1018E000A1F10101ABF80010A8F2FE30404202B2B3
:1018F000C8F1000001B2D648FEF7C8FC32224946C2
:10190000D648FEF7C3FCD448D549B0F90000B1F978
:101910000010C0EB4020400090FBF1F08146C84829
:10192000D049B0F90000B1F90010C0EB40204000F0
:1019300090FBF1F08046AC200CF0CCFCA0F52B41E4
:10194000CD3907D1C448B0F90000FFF700FC00EB27
:1019500080008146AE200CF0BDFCA0F52B41CD39B6
:1019600007D1B748B0F90000FFF72BFC00EB80006F
:1019700080460020B7F9003039E0B249098841B10A
:10198000B149098829B1B149097801290ED0032943
:101990000CD0BBF900100FFA89F2521800EB80014D
:1019A00004EB0111CA620AD5CD620DE000EB8001A3
:1019B00004EB0111CD620D6381F828A015E040F21F
:1019C000FE37BA4200DDCF62A14A0FFA88F7B2F9BA
:1019D0000020BA180A6301D50D6304E040F2FE3717
:1019E000BA4200DD0F6381F82850401CC0B2984213
:1019F000C3DBB9E19C48B0F90000052802DD86F898
:101A000008A000E03572F571B07990B3307A80B3F8
:101A10009648B9F90010B0F90000814204DA8C4808
:101A2000018801F1010104E004DD89480188A1F188
:101A3000010101806FF03109322249468448FEF7E6
:101A400025FC8948B8F90010B0F90000884204DA92
:101A5000BBF8001001F1010104E005DDBBF8001046
:101A6000A1F10101ABF80010322249467B48FEF794
:101A70000DFCB8F900004FF4617148437849C14644
:101A8000B1F9001090FBF1F032308046AC200CF040
:101A900021FCA0F52B41CD3906D1B9F90000FFF7A3
:101AA00056FB00EB8000804670486E49B0F900009C
:101AB000B1F90010C0EB4020400090FBF1F08146EE
:101AC000AE200CF007FCA0F52B41CD3907D16748BB
:101AD000B0F90000FFF775FB00EB800081460020A5
:101AE000B7F9003039E05749098841B156490988AA
:101AF00029B15649097801290ED003290CD0BBF928
:101B000000100FFA88F2521800EB800104EB01116B
:101B1000CA620AD5CD620DE000EB800104EB011131
:101B2000CD620D6381F828A015E040F2FE37BA427D
:101B300000DDCF62464A0FFA89F7B2F90020BA18E1
:101B40000A6301D50D6304E040F2FE37BA4200DDBE
:101B50000F6381F82850401CC0B29842C3DB44494F
:101B6000A1F800804349E06A0880FDE0B179B9B38B
:101B700041490978A1BB4149B9F90020B1F90010E8
:101B800001EB8101B2EB410F04DA31490A8802F11D
:101B9000010204E004DD2E490A88A2F101020A8054
:101BA000A0F2FE3149420AB2404201B22848FEF793
:101BB0006DFB6FF03109322249462548FEF766FB7E
:101BC0002F48B0F9000000EB80012248B0F9000076
:101BD000B0EB410F05DABBF8001001F1010105E09F
:101BE00015E005DDBBF80010A1F10101ABF8001014
:101BF000A8F2FE30404202B2C8F1000001B214481F
:101C0000FEF744FB322249461448FEF73FFB1C48CE
:101C100042F2EC71B0F9000048431149B1F90010EB
:101C200090FBF1F08146154842F2EC71B0F90000EA
:101C300048430C4926E091E0EE000010D40100106A
:101C40006A01001074010010760100103A000010C3
:101C5000C2C00720F400001038010010AE030010CD
:101C60002001001044010010A80300103A010010E8
:101C7000CAC00720B8030010C8030010900100106C
:101C80008E010010B1F9001090FBF1F08046AC20FD
:101C90000CF020FBA0F52B41CD390AD1F948008882
:101CA00000EB8000400000B2FFF751FA00EB80002B
:101CB0008146AE200CF00EFBA0F52B41CD390AD1A8
:101CC000F148008800EB8000400000B2FFF779FA8D
:101CD00000EB800080460020B7F9002030E0EB499F
:101CE000097841B100EB800104EB0111CD620D6375
:101CF00081F828A022E0BBF900100FFA89F35B18E5
:101D000000EB800104EB0111CB6201D5CD6204E050
:101D100040F2FE37BB4200DDCF62DD4B0FFA88F7A1
:101D2000B3F90030FB180B6301D50D6304E040F2FA
:101D3000FE37BB4200DD0F6381F82850401CC0B263
:101D40009042CCDB10E000BF00EB800104EB0111FE
:101D5000401CCD620D6381F82830C0B29042F3DBA5
:101D6000CB480580ABF80050B571BDE8F09F00EBA3
:101D70008001C84810B500EB01100178032972D129
:101D800090F83E108A07B0F942200CD54FF49663C4
:101D90009A420DDA521C12B2A0F842209A4207DB96
:101DA000A0F8423004E01AB1A2F10102A0F84220EA
:101DB0000A07B0F944204FF00A034FF000040AD597
:101DC0000A2A13DA521C12B2A0F844200A2A0DDBA8
:101DD000A0F844300AE0002A05DDA2F1010212B2A7
:101DE000A0F8442002E001DAA0F84440CA06B0F9A5
:101DF00046200AD50A2A0DDA521C12B2A0F8462053
:101E00000A2A07DBA0F8463004E01AB1521E12B2CB
:101E1000A0F846204278120701D004210FE09E4A24
:101E2000127822B1C278142A01D9052107E0890667
:101E300001D5022103E0C178142901D2012181706A
:101E4000C1780A2990F8281002D341F0800101E0FE
:101E500001F07F0180F828109049B1F90C20C2628E
:101E6000B1F90E10016310BD2DE9F0478C488B4C81
:101E70000025007818B38B4EB6F9000000EB800106
:101E8000B4F92000B0EB410F01DA401C20848648F1
:101E9000DFF8188247F2305AB0F9000000EB8001F9
:101EA000B8F90000B0EB410F0CDD608C5246401CCD
:101EB00060847A4800212230FEF7E8F903E02584A7
:101EC000BDE8F0876584DFF8E8910127B9F90000E3
:101ED00000EB8001B4F92200B0EB410F0ADBB6F948
:101EE0000010B4F9202001EB8101B2EB410F01DBBE
:101EF000677201E000B965726E48B0F9000000EB4E
:101F00008001B8F90000B0EB410F09DAA08C52460D
:101F1000401CA084614800212430FEF7B7F900E09E
:101F2000A584B9F9000000EB8001B4F92400B0EBFE
:101F3000410F0ADBB6F90010B4F9202001EB810152
:101F4000B2EB410F01DBA77202E028B1A07A20B109
:101F5000607A10B1E772B3E7A572E572B0E72DE9D8
:101F6000F05F4F48DFF85081DFF850B101784F48FB
:101F7000DFF84CA1534DB0F90000534E0027534CED
:101F8000022911D0012925D0278051492868B1F9AB
:101F90000010884243DD4F493068B1F90010884293
:101FA0003DDA2088401C3CE0DFF82C91B9F80010A5
:101FB000401A00B200F09EFAC8F8000064214843BD
:101FC000B9F90010DFF8148190FBF1F02860BBF83C
:101FD000001014E0DFF80891B9F80010401A00B2C0
:101FE00000F088FAC8F8000064214843B9F90010ED
:101FF000DFF8F08090FBF1F02860BBF80010B8F833
:102000000000081A00B200F075FA6421CAF8000056
:102010004843B8F9001090FBF1F03060B5E7208834
:10202000401E314D20800A21288800EB800001EB02
:10203000400002B200212548FEF728F91848007830
:1020400000B9278029482A492A4A0068B1F90010B6
:1020500088420ADBB5F90030B4F9006003EB830372
:10206000B6EB430F01DD01231370884208DBB5F99D
:102070000000B4F9001000EB8000B1EB400F00DC71
:10208000177072E68E01001090010010C803001056
:10209000C2C00720F0E20720AA03001008C00720F2
:1020A00037000010520100105C010010F400001015
:1020B000540100105A010010BC030010F60000107B
:1020C000C0030010CCC00720D0C00720D6C0072016
:1020D0005601001058010010320100103A010010A2
:1020E000380100106A01001050010010D4010010E6
:1020F0004E010010D4C007202DE9F04F67486C4B0B
:10210000DFF894E190F800C06548B3F90060694BCE
:102110000078BEF90040824662480021B3F90030E1
:1021200000788346604805786048C77A90F80A804E
:10213000407A81465D482630012214B3012C08D034
:10214000022C11D0032C17D0042C1DD0052C27D025
:1021500032E0BCF1030F03D0BBF1000F40D02AE006
:10216000BAF1000F3CD126E016B1012E02D023E0D7
:102170000DB335E02DB11EE013B1012B02D01BE0F1
:10218000CFB12DE067B316E013B1012B04D013E0FB
:10219000B8F1000F0FD023E0B8F1000F20D00AE013
:1021A00013B1012B04D007E0B9F1000F03D017E001
:1021B000B9F1000F14D00270BEF9024094B1012CA5
:1021C00013D0022C1DD0032C24D0042C2BD0052C92
:1021D00009D17BB3012B06D1B9F1000F0BD101E07E
:1021E0000170E9E74170BDE8F08FBCF1030F04D046
:1021F000BBF1000FF6D04270F5E7BAF1000FF1D154
:10220000F9E726B1012EEED1002DF4D1EAE7002D39
:10221000F1D0E7E723B1012BE5D1002FEBD1E1E7C6
:10222000002FE8D0DEE733B1012BDCD1B8F1000F8D
:10223000E1D1D7E703E0B8F1000FDCD0D2E7B9F184
:10224000000FD8D0CEE71C49086820F44070086021
:102250001A48026842F0100202600A6822F44062E2
:102260000A60016841F020010160104926310A78B6
:10227000012A42690AD042F01002426149780129DC
:10228000416906D041F020014161704722F01002FF
:10229000F3E721F02001F7E7E0010010370000101C
:1022A000DCC0072039000010D4C0072008C0072078
:1022B0004A0100104C01001000C0024000C009207B
:1022C0002DE9E84E0746542659B1012904D00229C8
:1022D00004D0032904D004E0552602E0752600E06E
:1022E0004C268348DFF8049207EB87034FF0000A7F
:1022F00000EB0310012A01D0EAB3F3E031B1012968
:1023000008D002290AD003290CD00FE0427842F00D
:1023100001020AE0427842F0020206E0427842F00E
:10232000040202E0427842F00802427080F84F1046
:1023300053208DF800008DF801708DF8026056462C
:102340008DF803A0694620460CF0FDF86946201D73
:1023500000960CF0F8F8B9F83C0009F120058DF86A
:102360000000287E8DF80100287B8DF802008DF892
:102370000360694600E02FE004F108000CF0E3F888
:10238000287A8DF8000028798DF8010028788DF8DA
:1023900002008DF80360694604F10C000CF0D3F8DC
:1023A00041258DF800508DF801508DF802508DF8C0
:1023B0000350694604F110000CF0C5F88DF8005088
:1023C0008DF801508DF802508DF80350694604F1E4
:1023D00014000CF0B8F86BE031B1012908D00229E3
:1023E00013D0032915D007E0417821F0010102E064
:1023F000417821F00201417004F110004FEA000B16
:102400009DF8000053282CD107E0417821F0040109
:10241000F1E7417821F00801EDE79DF80100B842AD
:102420001FD19DF80200B0421BD1694658460BF0FF
:10243000CEFF9DF80000412813D106E06D1EADB21D
:1024400000E03F254545DBD14CE09DF801004128E7
:1024500007D19DF80200412803D19DF803004128CF
:1024600002D0002DEDD0E9E7B9F83C0009F12005D4
:102470008DF80000287E8DF80100287B8DF8020081
:1024800056468DF803A0694658460CF05CF8287A49
:102490008DF8000028798DF8010028788DF8020069
:1024A0008DF80360694604F114000CF04CF84225E5
:1024B0008DF800508DF801508DF802508DF80350C2
:1024C000694604F118000CF03EF88DF800508DF8C4
:1024D00001508DF802508DF80350694604F11C003C
:1024E0000CF031F800BFBDE8E88E0000004002406B
:1024F000F0E20720002801DA404200B2704710B530
:1025000040F2D4700BF0E6FEFA4C207040F2D67028
:102510000BF0E0FE60704FF4FB600BF0DBFEA07090
:1025200040F2DA700BF0D6FEE07040F2DC700BF097
:10253000D1FE207240F2DE700BF0CCFE60724FF4E0
:10254000FC600BF0C7FEA07240F2E2700BF0C2FE1E
:10255000E0724FF401600BF0BDFE207140F61200F6
:102560000BF0B8FE607140F614000BF0B3FEA071E2
:1025700040F616000BF0AEFEE07110BDDE4810B55F
:10258000016821F0E06101604168DD4AC1F30B138D
:10259000DA4C117824F81130491CC9B211700329A2
:1025A00003D2016841F08071016010BD2DE9F04156
:1025B000D44DD54E01272888D44C401C00B2288029
:1025C0000A280DDB06200BF085FE48B93068C007ED
:1025D00006D1A07820B9012106200BF038FFA770A2
:1025E000B5F90000B0F5967F0EDB06200BF072FE09
:1025F000012809D13068C00706D1A07820B901218F
:1026000006200BF024FFA770B4F93200B0F5B47FB8
:102610000AD306200BF05EFE002805D0BDE8F0418D
:10262000002106200BF013BFBDE8F0812DE9FF412A
:10263000B64900258031A1F15E04B1F96C0000EBD0
:10264000400202EBC0000A2290FBF2F0A084A085B9
:102650000320E0842078401CC0B204F82209182826
:1026600002D384F8225001E00F2843D82120FDF73F
:10267000BEFD50B1A6480088222806D1A54894F88E
:10268000221090F90200884232D094F82B00A24D1B
:1026900098B994F8220000EB800105EB011202F1D9
:1026A00028021179577A167A53798DE8CA0013787F
:1026B0004FF0ED0201460CF07CF994F822000F284F
:1026C00016D200EB800005EB0010C1783C2905D242
:1026D000491CC9B2C170032902D207E03C21C17074
:1026E0000179032902D24179491C4171C1780171F4
:1026F000BDE8FF81854B112893F82B3019D01228A3
:10270000F6D1002BF4D1B1F97000824990FBF2F0C0
:10271000BA39C0B24B780C78891E4A78CDE90230BC
:10272000CDE900240B782922FF2108460CF041F95D
:10273000DEE7002BDCD175484E304178027808384E
:102740004378CDE90032CDE9021503786222EBE748
:1027500070490020503908704870887050314870B6
:1027600070472DE9F04F69484FF03C0E00F5C077F7
:1027700090F82C1000F1800200F5807B386AB2F9E5
:10278000404090FBFEF636B2B24606B2786AB2F925
:10279000425090FBFEF73FB2B94607B25B48BBF927
:1027A0000C3090F80380BBF90E00B1B1DFF85CC1CA
:1027B000012941D1B2F87E20ABF83020BBF80620C9
:1027C000ABF83420ABF82E40ABF83250BBF90A50CE
:1027D00059469DB34FF0FF3237E0BBF804C0ABF869
:1027E00030C0B2F87820ABF83420ABF82E40ABF80C
:1027F0003250BBF90820594622B14FF0FF31ABF8F7
:102800002C1007E00D4643493039496908B191FB66
:10281000FEF1A985134306D010B1ABF82AA008E059
:10282000ABF82A6005E010B1ABF82A9001E0ABF8F4
:102830002A70364880F82F80BDE8F08FFFE7354AD0
:10284000303A926908B192FBFEF28A852B4306D09A
:1028500010B1ABF82AA008E0ABF82A6005E010B18F
:10286000ABF82A9001E0ABF82A708CF82F80E3E7F0
:10287000F0B50020294A01464FF4F4731154401C6E
:1028800000B29842FADBDFF88CE000200EF1480E2F
:1028900014277A21414300EB80039B0000EB800466
:1028A0001BB207EB84051EE01EF803405E2C39D0F6
:1028B0001B4E04EB440416F814C002F801C006EBEA
:1028C0004404491C66785654491CA6785654491C41
:1028D000E6785654491C26795654491C6479545458
:1028E000491C5B1C1BB29D42DEDC401C00B204286C
:1028F000CFDBF0BDF46700100040034030C007207C
:1029000008C00720341A001018000010340000100E
:1029100048C00720E4010010F0E20720A0E70720EC
:102920009C4B01004FF07E0C02F801C0491C422470
:102930005454491C5A265654491C5654491C545444
:10294000491C02F801C0CBE72DE9F04FFF48ADB0BC
:10295000B0F9541000910170017A491CC9B201729A
:10296000142908D300220272C179491CC9B2C1716D
:10297000052900D3C271F648F54BDFF8D0A30178E2
:1029800090F9045090F901004FF00A0B421BB03B44
:102990000AF1800AB3F9423002AC9E46E9B3EC4F2B
:1029A0000D2901F09981212901F069823B466C29AA
:1029B00093F9043004EB8303994601F077823B4698
:1029C0005B789B1E5BB26D2901F006836F2901F0D5
:1029D000A4836B2901F092846A2901F030863E4677
:1029E00096F902807678761E4FFA86FC682901F007
:1029F00086860F2901F0EB861029FBD0042901F00F
:102A00000F87D24EDFF84CE33F29B67E02F0EE810D
:102A1000702902F06F82352900E050E002F0D8857D
:102A2000332902F00986752902F04086762902F0E2
:102A30008A86722902F0D386712902F0D68673291C
:102A400003F08E805B2903F0C7805F2903F0EB80E1
:102A5000602903F03A81622903F06F81632903F052
:102A6000BA81642903F00882122903F0698344299A
:102A700003F09B83B54F46293F7903F0B083452986
:102A800003F0EB83B24F302903F03184742903F053
:102A900044844FF0090B2E2903F09284422903F05D
:102AA00043872C2903F0CE872B2904F00480592971
:102AB00004F07B826E2904F0A28204F0E9BAA349F3
:102AC000CE78032E2CD091F82C70A1494978C91EDC
:102AD00049B289469D498031002FB1F96A100091B1
:102AE0009A4901F5807391F80680B3F940C04B799B
:102AF000C97E7ED0012F7DD0DFF85082022F7AD0A0
:102B0000022E00F0F48694A70297BCF1000F00F0AB
:102B10002B87BEF1000F00F0E48695A700F023BFDD
:102B200099A002909EA00390A3A00490A8A002AD3B
:102B30000346059007CDFDF718FFDFF81482A8F1D2
:102B40003008A8F18005D8F82800B5F9521088425D
:102B500003DA00222121A4A019E0B5F95420114480
:102B6000814203DD00222121A0A010E0B5F956200A
:102B70001144814203DD002221219DA007E0B5F927
:102B800058201144814204DD0022212199A0FDF743
:102B90001CFF05F15A05002268882B2180B2FDF741
:102BA000C6FD28880022402180B2FDF7C0FDBAF999
:102BB00042005E4690FBF6F0574680B20022232189
:102BC000FDF7B5FDB7F94000002290FBF6F080B2AA
:102BD0002421FDF7ACFDA8880022401C5E2180B2B4
:102BE000FDF7A5FDD8F82800454690FBF6F13C20FE
:102BF00002E013E09FE2C6E391FBF0F200FB12104B
:102C000080B200227321FDF792FDA86A4FF416717D
:102C100090FBF1F0002280B25421A1E3012E0FD0ED
:102C200075A10291BCF1000F4AD0BEF1000F01D096
:102C300071A144E0012B29D0002B41D174A13EE0C9
:102C400079A70297BCF1000F3AD0BEF1000F05D072
:102C5000B8F1010F06D0B8F1030F03D0012B07D054
:102C6000D3B12DE0890701D575A128E06EA126E03A
:102C700041B1012908D0022908D0032908D004292C
:102C800008D012E074A11AE079A118E07EA116E044
:102C900083A114E088A112E051B101290AD00229D0
:102CA000CCD0032908D0042908D00529C0D007E0DA
:102CB00087A104E08CA102E091A100E096A102911D
:102CC00037A103919AA1DFF884800491012E01D1EC
:102CD0009DA1049138A10591A1A10691A6A10791FA
:102CE000ABA10891B0A109911949032A02DD81F82D
:102CF000049002E0A84200DA0871009857460F28B5
:102D000006DDAFA3B4A2BAA1BFA0FDF72EFE0CE072
:102D100091F9045004EB8500001D0EC854F82500FD
:102D2000FDF723FE0020FDF7BCFD094DB03DB5F8D1
:102D3000400010B1B5F8420020B900225E21B8A0D1
:102D4000FDF743FEB5F936006CE1000034000010D9
:102D5000E4010010D051010020C8F1F2EEF7EDE8D7
:102D6000EA20EDE0EFF02E205E20202000000000A1
:102D700020C8F1F2EEF7EDE8EA20EDE0EFF02E20CA
:102D80005E3E3E3E00000000202020C8D1CFDBD2B6
:102D9000C0CDC8C520D4C0C7C0202120000000007D
:102DA0002049F3202020202BC020556D6178202061
:102DB0002020404200000000204920202020202325
:102DC000C020552020202020202024420000000088
:102DD00020D6E8EAEB204E2020205E202020305430
:102DE0003A30732000000000410000004200000063
:102DF000430000004400000020C8F1F2EEF7EDE8C7
:102E0000EA20F2EEEAE020205E2020200000000010
:102E100020C8F1F2EEF7EDE8EA20F2EEEAE0202039
:102E20005E3C3C3C0000000020C8F1F2EEF7EDE80B
:102E3000EA20F2EEEAE0202020202020000000001E
:102E400020C8F1F2EEF7EDE8EA20F2EEEAE0202009
:102E50005E203C3E0000000020C8F1F2EEF7EDE8F5
:102E6000EA20F2EEEAE020205E3E20200000000092
:102E700020C8F1F2EEF7EDE8EA20F2EEEAE02020D9
:102E80005E3E3E200000000020C8F1F2EEF7EDE8C3
:102E9000EA20F2EEEAE020205E3E3E3E0000000026
:102EA00020C8F1F2EEF7EDE8EA20F2EEEAE02020A9
:102EB0005E203E3E0000000020C8F1F2EEF7EDE893
:102EC000EA20F2EEEAE020205E20203E0000000032
:102ED00020C8F1F2EEF7EDE8EA20F2EEEAE0202079
:102EE0005E20203C0000000020C8F1F2EEF7EDE883
:102EF000EA20F2EEEAE020205E203C3C00000000E8
:102F000020C8F1F2EEF7EDE8EA20F2EEEAE0202048
:102F10005E3C3C200000000020C8F1F2EEF7EDE836
:102F2000EA20F2EEEAE020205E3C202000000000D3
:102F300020C4EBE8F22DF1F2FC2E202030743A3060
:102F4000543A3073000000002020202020203074EC
:102F50003A30543A30732020202020200000000016
:102F60002055EC61782EE8F1F22EF2EEEAE0202016
:102F700020207BC20000000020C2FBF5EEE42020F0
:102F800020202020202020202020202000000000C1
:102F900020D3F1F2E0EDEEE2EAE82020202020202C
:102FA000202020200000000020C2FBEFF0FFECE812
:102FB000F2E5EBE820202020202020200000000067
:102FC00020E8EBE820EDE5F1EAEEEBFCEAEE20F498
:102FD000E0E72E20000000002020CEF2F1F3F2F115
:102FE000F2E2F3E5F220EEE4EDE020200000000044
:102FF000202020202020F1E5F2E82121212120209D
:1030000020202020000000002020C0E2E0F0E8FFA7
:1030100020EFE8F2E0FEF9E5E920202000000000C2
:10302000200000004FF47A76B04203DA01222B210F
:1030300080B204E090FBFBF080B200222B21FDF770
:1030400076FBB7F94200B04203DA0122232180B2B5
:1030500004E090FBFBF080B200222321FDF767FB28
:10306000B7F94000B04203DA0122242180B204E023
:1030700090FBFBF080B200222421FDF758FBB5F94C
:103080000400B04209DA01227B2180B2FDF74FFB38
:10309000A8880122402180B20EE05E4690FBF6F047
:1030A00080B200227B21FDF742FBB5F9040000222B
:1030B00090FBF6F080B24021FDF739FB464600F068
:1030C000E3BD00BF4FF4616091FBF0F080B20022DD
:1030D0007421FDF72CFBB07D002811D000223A218D
:1030E000AFF2C400FDF771FC00223A21AFF2D0002C
:1030F00004E000BF6FF002027421E7A0FDF765FC59
:1031000030E1E84D3C260022686990FBF6F106FBB1
:10311000110080B27321FDF70AFB6869002290FB61
:10312000F6F090FBF6F106FB110080B25421FDF79A
:10313000FEFA69690DE1022E11D0AFF2E43102917D
:10314000BCF1000F4CD0BEF1000F02D0AFF2F8314D
:1031500045E0012B29D0002B42D1D3A13FE0D8A7D5
:103160000297BCF1000F3BD0BEF1000F05D0B8F1C3
:10317000010F06D0B8F1030F03D0012B07D0DBB14C
:103180002EE0890701D5D4A129E0CDA127E041B1E6
:10319000012908D0022908D0032909D0042909D01F
:1031A00013E0D3A11BE0D8A119E0AFF23C4116E037
:1031B000DBA114E0E0A112E051B101290AD00229FB
:1031C000CBD0032908D0042908D00529BED007E0B8
:1031D000DFA104E0E4A102E0E9A100E0EEA1029198
:1031E000F3A10391AFF2B821DFF8DC830491022E42
:1031F00002D1AFF2AC210491F4A10591F9A106919D
:10320000AFF28C210791AFF278210891AFF26821DB
:103210000991A4493031032A02DD81F8049002E0CB
:10322000A84200DA0871009857460F280ADDAFF26D
:103230007023AFF25C22AFF24821AFF23420FDF7E9
:1032400094FB0CE091F9045004EB8500001D0EC8BE
:1032500054F82500FDF789FB0020FDF722FB914D76
:10326000803DB5F8400010B1B5F8420028B9002201
:103270005E21AFF25420FDF7A8FBB5F938004FF4FA
:103280007A76B04203DA0122252180B204E090FB75
:10329000FBF080B200222521FDF749FAB7F9400082
:1032A000B04203DA0122262180B204E090FBFBF059
:1032B00080B200222621FDF73AFAB7F94200B04267
:1032C00003DA01222A2180B204E090FBFBF080B2F5
:1032D00000222A21FDF72BFAB5F90600B04209DADF
:1032E00001227D2180B2FDF722FAE88801227D21AA
:1032F00080B20EE05E4690FBF6F080B200227D21A7
:10330000FDF715FAB5F90600002290FBF6F080B241
:103310007D21FDF70CFA4646DBE2084375D1FEE35A
:10332000604D3C260022A86990FBF6F106FB1100D7
:1033300080B27321FDF7FBF9A869002290FBF6F03B
:1033400090FBF6F106FB110080B25421FDF7EFF976
:10335000A9694FF4616091FBF0F080B20022742102
:10336000FDF7E5F99848C078012806D04D4A0021BC
:10337000803A0228518703F08B864A490020803921
:10338000888703F085BE012E10D0AFF294570297C4
:10339000BCF1000F46D0BEF1000F02D0AFF21857BB
:1033A0003FE0012BFAD0AFF298573AE0AFF28857DE
:1033B0000297BCF1000F35D0012B01D0CBB131E029
:1033C00041B1012909D00229E8D0032908D00429F4
:1033D00009D017E0AFF2805723E0AFF26C5720E03E
:1033E000AFF244571DE0AFF230571AE0AFF2F85792
:1033F00017E059B101290CD00229D4D003290BD0F0
:1034000004290CD00529F1D00CE02CE2AFF2405792
:1034100007E0AFF22C5704E0AFF21C5701E0AFF227
:1034200008570297AFF288670397AFF2FC470497FB
:10343000012E02D1AFF2F0470497AFF284670597EF
:10344000022E10D0AFF2F0610691BCF1000F09D04E
:10345000BEF1000F02D0AFF2E86102E0012BFAD01A
:1034600011A10691DFE016A70697BCF1000F02D06C
:10347000012B01D053B1D3E049B1012908D0022971
:1034800007D0032906D0042905D0C7E0D4E0B5E071
:10349000B7E0BAE0BCE0BEE0EDE5EFF0E5F0FBE25E
:1034A000EDEE0000B401001020C8F1F2EEF7EDE8F7
:1034B000EA20EDE0EFF02E205E3C3C3C00000000F6
:1034C00020C8F1F2EEF7EDE8EA20EDE0EFF02E2073
:1034D000202020200000000020C8F1F2EEF7EDE8E7
:1034E000EA20EDE0EFF02E205E203C3E00000000E0
:1034F00020C8F1F2EEF7EDE8EA20EDE0EFF02E2043
:103500005E3E20200000000020C8F1F2EEF7EDE85A
:10351000EA20EDE0EFF02E205E3E3E2000000000AD
:1035200020C8F1F2EEF7EDE8EA20EDE0EFF02E2012
:103530005E203E3E0000000020C8F1F2EEF7EDE80C
:10354000EA20EDE0EFF02E205E20203E000000009B
:1035500020C8F1F2EEF7EDE8EA20EDE0EFF02E20E2
:103560005E20203C0000000020C8F1F2EEF7EDE8FC
:10357000EA20EDE0EFF02E205E203C3C0000000051
:1035800020C8F1F2EEF7EDE8EA20EDE0EFF02E20B2
:103590005E3C3C200000000020C8F1F2EEF7EDE8B0
:1035A000EA20EDE0EFF02E205E3C2020000000003D
:1035B0002055F320202020254220496D61782020CD
:1035C00020207D4100000000340000102055202004
:1035D00020202026422049202020202020202A416F
:1035E000000000002049EC61782EE8F1F22EEDE0B9
:1035F000EFF02E2020207D4100000000AFF21011DE
:1036000001E0AFF2FC0106910AE0AFF69C01FAE797
:10361000AFF2F401F7E7AFF2E001F4E7052923D0B8
:1036200098F8141019B3AFF278010791AFF2007156
:103630000891022E1DD01FE051B101290BD00229A3
:103640000CD003290DD00429E8D1AFF2B401DAE798
:10365000AFF20411D7E7AFF2F001D4E7AFF2B8113F
:10366000D1E7AFF2E401CEE7AFF61411CBE7FFA14B
:10367000F7E6AFF22C710891AFF2B0010991AFF209
:1036800020710A91AFF2A4010B91AFF214710C9169
:10369000AFF204710D91AFF2F061DFF8E8830E91A3
:1036A000032A02DD88F8049003E0A84201DA88F8D2
:1036B0000400009856460F280ADDAFF2FC63AFF213
:1036C000E862AFF2D461AFF2C060FDF74EF90CE0F2
:1036D00098F9045004EB8500001D0EC854F825002D
:1036E000FDF743F90020FDF7DCF8E64DB03DB5F8F5
:1036F000400010B1B5F8420028B900225E21AFF2B7
:10370000E060FDF762F9B5F936004FF47A77B84218
:1037100003DA01222B2180B204E090FBFBF080B29F
:1037200000222B21FDF703F8B6F94200B9464845BF
:103730000ADA0122232180B2FCF7F9FFB6F8420031
:1037400001222A2180B20EE05F4690FBF7F080B2A2
:1037500000222321FCF7EBFFB6F94200002290FB88
:10376000F7F080B22A21FCF7E2FFB5F938004F46A6
:10377000B84203DA0122252180B204E090FBFBF07D
:1037800080B200222521FCF7D2FFB6F94000B946ED
:1037900048450ADA0122262180B2FCF7C8FFB6F8B4
:1037A00040000122242180B20EE05F4690FBF7F03A
:1037B00080B200222621FCF7BAFFB6F940000022B1
:1037C00090FBF7F080B22421FCF7B1FFB5F90600B9
:1037D0004E46B04209DA01227D2180B2FCF7A7FFF4
:1037E000E88801227D2180B20EE05F4690FBF7F071
:1037F00080B200227D21FCF79AFFB5F90600002275
:1038000090FBF7F080B27D21FCF791FFB5F9040041
:10381000B04209DA01227B2180B2FCF788FFA88838
:103820000122402180B20EE05E4690FBF6F080B2AD
:1038300000227B21FCF77BFFB5F90400002290FBFE
:10384000F6F080B24021FCF772FF98F904000228DC
:1038500070DC8D4EF07801286DD1B5F90C00B5F90A
:10386000081008431AD0874D3C27303D0022286AB3
:1038700090FBF7F107FB110080B27321FCF757FFB3
:10388000286A002290FBF7F090FBF7F107FB11008C
:1038900080B25421FCF74BFF296A13E4794F3C2591
:1038A000303F0022786A90FBF5F105FB110080B2F1
:1038B0007321FCF73CFF786A002290FBF5F090FB47
:1038C000F5F105FB110080B25421FCF730FF796A55
:1038D000E3E7F078022872D0688900283FF420AD31
:1038E00008E4012B3FF419A9AFF244473BE0AFF2E3
:1038F00030470297BCF1000F36D0012B01D0DBB16D
:1039000032E041B1012909D00229EBD0032908D0C6
:10391000042909D019E0AFF2284724E0AFF2184794
:1039200021E0AFF204471EE0AFF2F4371BE0AFF640
:10393000D83718E09FE1AAE151B101290BD0022943
:10394000D2D003290AD004290BD00529EFD00BE0EF
:10395000AFF2044707E0AFF2F03704E0AFF2E03730
:1039600001E0AFF2CC370297AFF2BC370397AFF666
:1039700040270497022E02D1AFF634270497AFF206
:10398000B4370597012E10D0AFF694310691BCF1F3
:10399000000F46D0BEF1000F02D0AFF614313FE069
:1039A000012BFAD0AFF698313AE0AFF6843706979C
:1039B000BCF1000F35D0012B02D0D3B131E05CE176
:1039C00041B1012909D00229E7D0032908D00429EF
:1039D00009D017E0AFF6803122E0AFF66C311FE07E
:1039E000AFF644311CE0AFF6303119E0AFF6F831F4
:1039F00016E051B101290BD00229D3D003290AD0F6
:103A000004290BD00529F1D00BE0AFF63C3107E0DB
:103A1000AFF62C3104E0AFF6183101E0AFF6083113
:103A20000691AFF684410791AFF6FC210891012E73
:103A300002D1AFF6EC210891AFF684410991AFF6BF
:103A4000E0210A91AFF264410B91AFF6D4210C91C1
:103A5000AFF6C4210D91AFF6B021DFF828800E91AA
:103A6000032A13DD88F8049014E0000020202020B1
:103A70002020202020202020202020202020202046
:103A800000000000E401001034000010A84201DA38
:103A900088F80400009856460F280ADDAFF6E023A8
:103AA000AFF6CC22AFF6B821AFF6A420FCF75DFF4D
:103AB0000CE098F9045004EB8500001D0EC854F882
:103AC0002500FCF752FF0020FCF7EBFEFF4DB5F898
:103AD000400010B1B5F8420028B900225E21AFF6CF
:103AE000C020FCF772FFB5F936004FF47A77B84280
:103AF00003DA01222B2180B204E090FBFBF080B2BC
:103B000000222B21FCF713FEB6F94200B9464845C6
:103B10000CDA0122232180B2FCF709FE00E0C0E0AC
:103B2000B6F8420001222A2180B20EE05F4690FBE7
:103B3000F7F080B200222321FCF7F9FDB6F942002C
:103B4000002290FBF7F080B22A21FCF7F0FDB5F9D6
:103B500038004F46B84203DA0122252180B204E042
:103B600090FBFBF080B200222521FCF7E0FDB6F9C6
:103B70004200B94648450ADA0122232180B2FCF707
:103B8000D6FDB6F8420001222A2180B20EE05F463F
:103B900090FBF7F080B200222321FCF7C8FDB6F9B4
:103BA0004200002290FBF7F080B22A21FCF7BFFD13
:103BB000B6F9400048450ADA0122262180B2FCF716
:103BC000B6FDB6F840000122242180B20EE05F4627
:103BD00090FBF7F080B200222621FCF7A8FDB6F991
:103BE0004000002290FBF7F080B22421FCF79FFDFB
:103BF000B5F904004E46B04209DA01227B2180B2B9
:103C0000FCF795FDA8880122402180B20EE05F46B6
:103C100090FBF7F080B200227B21FCF788FDB5F91C
:103C20000400002290FBF7F080B24021FCF77FFDFA
:103C3000B5F90600B04209DA01227D2180B2FCF715
:103C400076FDE88801227D2180B20EE05E4690FB81
:103C5000F6F080B200227D21FCF769FDB5F906007F
:103C6000002290FBF6F080B27D21FCF760FD98F910
:103C70000400022807DC964E2BE6B5F90C00B5F9D6
:103C80000A10FFF74ABB924EF078012804D0288929
:103C900000283FF436AA23E6B5F90C00B5F9081060
:103CA000EFE78A4D3C2780350022686A90FBF7F1E8
:103CB00007FB110080B27321FCF739FD686A00220E
:103CC00090FBF7F090FBF7F107FB110080B2542155
:103CD000FCF72DFD696AE0E500997D4E891E88425A
:103CE00002D1AFF66C5300E07AA37AA279A17FA04B
:103CF000FCF73BFE97F901000023401C80B21A46F6
:103D00000121FCF72FFC97F901000023801C80B2F1
:103D10001A460221FCF726FC97F90100794D00EBC9
:103D2000800005EB001001238069062280B219464D
:103D3000FCF718FC97F90100012300EB800005EB6C
:103D400000100622806E022180B2FCF70BFC97F96E
:103D50000100012300EB800005EB00100B22006A3C
:103D6000194680B2FCF7FEFB97F90100012300EB36
:103D7000800005EB00100B22006F022180B2FCF7DF
:103D8000F1FB97F90100002300EB800005EB001028
:103D90000F22406A012180B2FCF7E4FB97F9010091
:103DA000002300EB800005EB00100F22406F022182
:103DB00080B2FCF7D7FB97F90200132200EB8000DA
:103DC00005EB0010012190F83E00FCF71BFD97F970
:103DD0000200132200EB800005EB0010022190F896
:103DE0008E00FCF70FFDB6F9541097F90100891EFB
:103DF00088423EDAC01C002380B21A460321FCF739
:103E0000B1FB97F90100012300EB800005EB0010E6
:103E10000622D0F8B800032180B2FCF7A3FB97F983
:103E20000100012300EB800005EB00100B22D0F80D
:103E3000C000032180B2FCF795FB97F90100002335
:103E400000EB800005EB00100F22D0F8C400032126
:103E500080B2FCF787FB97F90200132200EB800089
:103E600005EB0010032190F8DE00FCF7CBFC03F01B
:103E70000FB916480121F83080F83C10F7E7224BC3
:103E800022A228A12DA0FCF770FD10480121F830D6
:103E90000AF1400580F83C1028880A465B2180B270
:103EA000FCF745FC01225D2102F034BA29A0029002
:103EB0002EA00390AFF6407004909B6854F8251034
:103EC00030A0D9F80420FCF750FD67E03401001061
:103ED0003400001020202020202E202020202E2002
:103EE0002020202020202020000000004E20202024
:103EF000552CC22020492C41202074B04320202082
:103F000000000000F0E20720E55101002049EDE04B
:103F1000E3F0203D20202020205DC0202020202014
:103F2000000000002055EDE0E3F0203D202020209F
:103F3000205BC22020202020000000002020202024
:103F40002020CDC0C3D0D3C7CAC02020202020202D
:103F5000000000002046E2E5EDF22EF2E5EAF3F97A
:103F60002E20202020202125000000002046E2E510
:103F7000EDF22E6D61782E20282020402529202367
:103F8000000000002020202020C2C5CDD2C8CBDFF9
:103F9000D2CED02020202020000000000120FCF7FD
:103FA00080FC0AF162054FF00002E8884FF0210121
:103FB00000EB800080B2FCF7BAFB288800222321A6
:103FC00080B2FCF7B4FB2888002200EB80002D3083
:103FD00080B2402103F05AB8D14EBEF1000F01D09B
:103FE000D0A100E0D5A10291DAA10391DFA1049153
:103FF000E4A10591E9A10691EEA10791F3A1089131
:10400000F8A10991FD490A91022A01DD3B7102E004
:10401000A84200DA387197F9041004EB8100D0E966
:10402000012354F82110F6A0FCF79FFC0120FCF7B7
:1040300038FC36F9440F3C2590FBF5F105FB1100E7
:1040400080B200225B21FCF772FBB6F9000000226F
:1040500090FBF5F090FBF5F105FB110080B27D219E
:10406000FCF765FBB6F900004FF4616790FBF7F0D1
:1040700080B200227B21FCF75AFBB6F90200002235
:1040800090FBF5F105FB110080B25D21FCF74FFBC1
:10409000B6F90200002290FBF5F090FBF5F105FB6C
:1040A000110080B22921FCF742FBB6F90200002280
:1040B00090FBF7F080B22821FCF739FBB6F9040039
:1040C000002290FBF5F105FB110080B23E21FCF7C8
:1040D0002EFBB6F90400002290FBF5F090FBF5F101
:1040E00005FB110080B23C21FCF721FBF088012286
:1040F000212180B2FCF71BFB30890122402180B2D4
:10410000FCF715FB70890122232180B2FCF70FFB1D
:104110000122B089242180B25CE7BFA00290C4A034
:104120000390C9A00490CEA00590D3A00690D8A07B
:104130000790DDA00890E2A00990E7A00A90ECA00B
:104140000B90F1A00C90F6A00D90FBA0AB490E9047
:10415000FF48B0F95A0004EB80004160AFF2F4610F
:104160008160AFF2F86109F10409C160B9E80E009D
:104170000298FCF7FAFB97F9010097F90410421A2C
:10418000022A01DD801E01E0884200DA3871012038
:10419000FCF787FBEF4D2878012872D06FF00302FF
:1041A0002121EDA0FCF711FC687801286ED06FF09A
:1041B00003024021E8A000BFFCF707FCA878012813
:1041C00069D06FF003022321E3A000BFFCF7FDFBE1
:1041D000E878012864D06FF003022421DEA000BF3C
:1041E000FCF7F3FB287901285FD06FF0030225214B
:1041F000D9A000BFFCF7E9FB687901285AD06FF01D
:1042000003025E21D4A000BFFCF7DFFBA8790128E0
:1042100055D06FF003022621CFA000BFFCF7D5FBDD
:10422000E879012850D06FF003022A21CAA000BF0C
:10423000FCF7CBFB287A01284BD06FF00302282132
:10424000C5A000BFFCF7C1FB687A012846D06FF01B
:1042500003022921C0A000BFFCF7B7FBA87A012800
:1042600041D06FF003022B21BBA000BFFCF7ADFBD8
:10427000E87A01283CD06FF003023D2107E300E01B
:1042800004E06FF002022121B5A08BE76FF002027B
:104290004021B3A090E76FF002022321B0A095E780
:1042A0006FF002022421AEA09AE76FF002022521EE
:1042B000ABA09FE76FF002025E21A9A0A4E76FF018
:1042C00002022621A6A0A9E76FF002022A21A4A0DB
:1042D000AEE76FF002022821A1A0B3E76FF002025F
:1042E00029219FA0B8E76FF002022B219CA0BDE717
:1042F0006FF002023D219AA001F054BF9AA00290F3
:104300009FA00390A4A00490A9A00590AEA0069041
:104310003A480790AFF6AC000890AFF6B0005FE106
:104320003401001020C2EAEBFEF7E5ED202020204A
:1043300020202020202020200000000020C2FBEAB6
:10434000EBFEF7E5ED20202020202020202020205B
:10435000000000002054EFF0FFEC2E202020202051
:10436000307B3A307D3A305B0000000020D2EEE135
:10437000F02E20202020202030283A30293A305DAD
:104380000000000020D2EFE5F0E5EAEB2E2020202F
:10439000202020303C3A303E000000002049F1F25D
:1043A0002EEFF02E2020202020202020202021C0B1
:1043B000000000002049F1F22EEEE1F02E20202036
:1043C00020202020202040C0000000002055F1F2D5
:1043D0002EEFF02E202020202020202020202342FD
:1043E000000000002055F1F22EEEE1F02E202020FA
:1043F000202020202020244200000000782F0000F0
:104400002020202020C0C2D2CED0C5C2C5D0D1200D
:1044100020202020000000002020C0C2D2CECCC02E
:10442000D2DB20CDC0C3D0D3C7CECA20000000004D
:1044300020C0E2F2EEECE0F220B931202020202072
:10444000202021200000000020C0E2F2EEECE0F28B
:1044500020B9322020202020202040200000000011
:1044600020C0E2F2EEECE0F220B933202020202040
:10447000202023200000000020C0E2F2EEECE0F259
:1044800020B93420202020202020242000000000FB
:1044900020C0E2F2EEECE0F220B93520202020200E
:1044A000202025200000000020C0E2F2EEECE0F227
:1044B00020B936202020202020205E20000000008F
:1044C00020C0E2F2EEECE0F220B9372020202020DC
:1044D000202026200000000020C0E2F2EEECE0F2F6
:1044E00020B938202020202020202A200000000091
:1044F00020C0E2F2EEECE0F220B9392020202020AA
:10450000202028200000000020C0E2F2EEECE0F2C3
:1045100020B9313020202020202029200000000058
:1045200020C0E2F2EEECE0F220B931312020202070
:1045300020202B200000000020C0E2F2EEECE0F290
:1045400020B931322020202020203D200000000012
:1045500034000010BEEB0720C2DBCACB2E000000E7
:10456000C2CACB2E000000002020DDCBC5CAD2D0AD
:10457000CED1CDC0C1C6C5CDC8C520200000000029
:1045800020C2E2EEE42020202020202023C2202090
:10459000202020200000000020CFDDD1202020207E
:1045A0002020202024C220202020202000000000E5
:1045B0002050F1F3ECEC2E2020202020202025EAB2
:1045C000C2F22AF7000000002050F2E5EAF3F92ECB
:1045D0002020202020205EC2F220202000000000A9
:1045E00009F104090990B9E80E000298FCF7BDF939
:1045F00097F9010097F90410421A022A01DD801E82
:1046000001E0884200DA38710120FCF74AF90AF12A
:104610006005002223212888FCF789F89C480022A5
:1046200024214088FCF783F8994802224638252146
:104630000069FBF7F6FE00225E21E8886BE5AFF229
:10464000D800029093A0039098A004909DA005909C
:10465000A2A00690A7A00790ACA00890AFF2B0006F
:104660000990AFF29C000A90AE480B90AFF6044060
:104670000C90AFF6084009F104090D90B9E80E005E
:104680000298FCF772F997F9010097F90410421AA1
:10469000022A01DD801E01E0884200DA3871012023
:1046A000FCF7FFF87A4D0022AD1D21212888FCF788
:1046B0003EF8688800224021FCF739F8A8880022DB
:1046C0002321FCF734F8AD1D002228882621FCF7B1
:1046D0002EF8688800222921FCF729F8A8880022F2
:1046E0002821FCF724F8A5F15200032225210069B6
:1046F000FBF797FE00225E21BAF866000BE58A49B7
:1047000011F80810552912D088A102918DA10391AA
:1047100092A1049197A105919CA10691A1A1079155
:10472000A6490891012A04DD87F804C004E0A4A189
:10473000EBE7A84200DA387197F9040004EB800136
:1047400054F820204B68A4A1A9A0FCF70EF9022080
:10475000FCF7A7F897F902000022401C80B25E2106
:10476000FBF7E5FF4A4997F902005239002231F878
:1047700010002121FBF7DBFF454997F902004E3974
:10478000002231F910108D48493800EB810040219A
:10479000FCF71BF93E4997F902004A39002231F82B
:1047A00010002321FBF7C3FF394997F9020046396E
:1047B000002231F810002421FBF7B9FF344997F9A2
:1047C00002004239002231F810002521A4E47B4B7D
:1047D0008DA0153B1A461146FCF7C7F82C4D002357
:1047E000663D082295F90000012180B2FBF7BAFE70
:1047F00095F90100002380B209220121FBF7B2FEE6
:1048000095F90200002380B20A220121FBF7AAFEDB
:1048100097F9012005F1C800A421115402F038BC19
:104820007FA1029184A1039189A104918EA1059198
:1048300093A106918CA1079197A108919CA1099140
:10484000A1A10A91A6A10B91ABA10C91B0A10D91D0
:10485000B5A10E91BAA10F91BFA11091C4A1119160
:10486000C9A11291CEA11391D3A11491D8A11591F0
:10487000DDA11691E2A11791E7A11891ECA1199180
:10488000F1A11A91F6A11B91FBA11C9100E296E205
:10489000FA01001020C2E2EEE420F42E4120202094
:1048A0002021C220202020200000000020C2E2EEB3
:1048B000E420F42E422020202040C220202020206E
:1048C0000000000020C2E2EEE420F42E432020206D
:1048D0002023C220202020200000000020CFDDD196
:1048E0002020F42E412020202026C220202020201D
:1048F0000000000020CFDDD12020F42E4220202017
:104900002029C220202020200000000020CFDDD15F
:104910002020F42E432020202028C22020202020E8
:1049200000000000782F00009000001020C2FBE281
:10493000E5E4E5EDE02030212F4020202F3023203A
:104940000000000020CDEEECE8ED2EE5ECEA2E2094
:104950002020202024412AF70000000020CDE0F094
:10496000E0E1EEF2EAE020202020202025F72E20B2
:104970000000000020CAEEEDF2F0EEEBFC20E5ECCA
:10498000EAEEF1F2E82020200000000020C2FBF057
:10499000E0E2EDE8E2E0FEF9E8E920E7E0F0FFE43C
:1049A0000000000020D0E0E7F0FFE4FB2020202002
:1049B000202020202020202000000000E5510100C0
:1049C00020C2E2E5E4E5EDE0202030212F40202068
:1049D0002F302320000000002020202020C1C0D242
:1049E000C0D0C5DF204E5E20202020200000000027
:1049F00020C1C0D2C0D0C5C9CDDBC920C6D3D0CD5F
:104A0000C0CB2020000000002020C2E2E5E4E8F254
:104A1000E52020EFE0F0EEEBFC202020000000007D
:104A200020C8F1F2EEF7EDE8EAEEE22020202020A7
:104A3000202020210000000020CCE0EAF1E8ECE09A
:104A4000EBFCEDE0FF20E4EBE8F22D20000000009D
:104A500020F1F2FC20EFF0EEF6E5F1F1E02020305D
:104A60005B3A305D0000000020CEF2EEE1F0E0E6BF
:104A7000E5EDE8E520E2F0E5ECE5EDE8000000001A
:104A800020EFF0EEF6E5F1F1E020202020202020BC
:104A9000202020400000000020EDE020EFF3EBFCA0
:104AA000F2E52020202020202020202300000000EC
:104AB00020C8E7ECE5F0E5EDE8E520F2EEEAE020DD
:104AC000202020200000000020EDE0E3F0F3E7EAE2
:104AD000E82020202020202020202024000000008A
:104AE00020D0E5E6E8EC20E3EBE0E2EDEEE3EE20BB
:104AF000ECE5EDFE000000002020202020202020FA
:104B00002020202020202020202020250000000020
:104B100020D4E8EAF1E8F0EEE2E0EDEDFBE520205C
:104B20002020202000000000202020202020202005
:104B3000202020EDE0F1F2F0EEE9EAE800000000CC
:104B400020D0E5EBE5202020202020202020202060
:104B5000202020200000000020F2EEEAEEEEE3F03C
:104B6000E0EDE8F7E5EDE8FF202020200000000060
:104B700020D0E5EBE520EAEEEDF2F0EEEBFF2020B1
:104B8000202020200000000020EDE0EFF0FFE6E50F
:104B9000EDE8FF2020202020202020200000000021
:104BA00020D0E5F1F2E0F0F220202020202020208B
:104BB0002020205E000000002045746865726E654C
:104BC0007420202020202020202020200000000011
:104BD000204D4F44425553204144524553532020C9
:104BE0002020203C00000000204D4F44425553201F
:104BF00042415544524154452020202000000000ED
:104C000020202020202020202020202020202020A4
:104C100020203E300000000020C0E2F2EEF0E5E28D
:104C2000E5F0F1202020202020202020000000009E
:104C300020CFEBE0E2EDEEE520EDE0F0E0F1F2E098
:104C4000EDE8E5200000000020F2EEEAE020202060
:104C50002020202020202028F1E5EA2E000000005E
:104C600020D3EFF0E0E2EBE5EDE8E520F1F3F5E845
:104C7000EC2020200000000020EAEEEDF2E0EAF255
:104C8000EEEC20202020202020202020000000000A
:104C9000DFA11D91E4491E91E4A11F91E9A120919A
:104CA000EE4921912291022A01DD3B7102E0A842E6
:104CB00000DA387197F9041004EB8100D0E9012380
:104CC00054F82110E6A0FBF750FE0120FBF7E9FDA8
:104CD000E94D00222121B5F8540080B2FBF727FDF1
:104CE00005F5C0763C20F16991FBF0F191FBF0F203
:104CF00000FB121080B200225D21FBF718FDF16964
:104D00004FF4616091FBF0F080B200225B21FBF771
:104D10000EFD803E6FF00607B08918B1BA1C402125
:104D2000D6A002E03A464021D6A0FBF74EFEF0891D
:104D30006FF003024FF0230108B1D5A000E0D6A028
:104D4000FBF743FEB08A20B16FF002022421D4A009
:104D500002E03A462421D4A0FBF737FE95F82C0058
:104D600088B3012835D06FF0100202284FF02501DA
:104D700034D0D0A0FBF729FE95F82D0001282FD0C4
:104D80006FF003025E21AFF6300000BFFBF71DFE9F
:104D9000BAF8360000223C21554680B2FBF7C7FC2A
:104DA000288F00223E2180B2FBF7C1FCB5F93A0002
:104DB0004FF000024FF0280100287FF43FACAFF61F
:104DC000680001F0EFB9FFE76FF00B022521BEA0EC
:104DD000D0E76FF011022521BFA0CBE7C3A0C9E740
:104DE0006FF002025E21AFF68800CFE7A24D687A2D
:104DF000401CC0B268720F2807D30020761CF1B2A5
:104E00006872A976032900D3A876BD48CDE9020EC1
:104E1000A87E20B1012804D0022818D003E0B9A050
:104E200000E0BEA004907246C2A0049B0299FBF76A
:104E30009CFD97F9010060B101280FD0022812D023
:104E4000032815D0042818D005281BD01EE0BFA0C9
:104E5000E8E7C4495E2081F82A0017E0C1495E20D6
:104E600081F82D0012E0BF495E2081F830000DE08E
:104E7000BC495E2081F8330008E0BA495E2081F821
:104E8000360003E0B7495E2081F83A00B64E30782C
:104E90004FF000024FF02601FBF749FC3079002269
:104EA0005E21FBF744FC307A00222521FBF73FFC12
:104EB000307B00223C21FBF73AFC317E90480022F7
:104EC0005E3800EB81003E21FBF77FFDB08B0022B6
:104ED0007B21FBF72CFCA87D002802F0D9803A202A
:104EE000FBF717FA9F4D20262E543A20FBF711FAB4
:104EF0002E5493E4824A2AAB16325F4D07CA07C389
:104F00009AA002909FA00390A4A00490A9A005904D
:104F1000AEA00690B3A00790B8A00890BDA00990DD
:104F2000C2A00A90C7A00B90CCA00C90D1A00D906D
:104F3000D6A00E90DBA00F90E0A01090E5A01190FD
:104F4000EAA01290EFA01390F4A01490F9A015908D
:104F5000FEA0169034481790B5F86E0040F618077A
:104F600018B1384609F0B6F920B12F4803903B48F4
:104F7000049005907B4E483E96F9010096F9041086
:104F8000884201DA307104E0411A022901DD801EF5
:104F9000F8E796F9040004EB8001D1E9012354F805
:104FA0002010F0A0FBF7E1FC0120FBF77AFCB5F83C
:104FB0006E0050B1384609F08DF9012805D06FF028
:104FC00002022121AFF6682004E06FF003022121E4
:104FD000AFF67C20FBF7F9FCB5F8700028B16FF054
:104FE00002024021AFF6882004E06FF00302402166
:104FF000AFF69C20FBF7E9FC71782320022906D04C
:105000005FF00001CDE90001B5F97830B6E1F6E1D5
:1050100020CDE0F1F2F0EEE9EAE020F0E5EBE5206A
:105020002020202000000000782F000020CAE0EBA4
:10503000E8E1F0EEE2EAE0202020202020202020FD
:105040000000000020D2E5F1F220D8C8CC202020BA
:105050002020202020202020000000006C3A0000AA
:105060002020202020D3D1D2C0CDCEC2CAC820203B
:10507000202020200000000034000010EFF0FFECA2
:10508000EEE50000EEE1F0E0F2EDEEE500000000FC
:10509000F7F73AECEC000000ECEC3AF1F10000001C
:1050A000F8F3EDF200000000F1F3ECEC49E1EFF170
:1050B00000000000E8F1F22EEDE0EFF02E2DE8F117
:1050C000F22EF2EEEAE00000E8F1F2EEF7EDE8EAA7
:1050D00020F2EEEAE0000000E8F1F2EEF7EDE8EA97
:1050E00020EDE0EFF0FFE6E5EDE8FF00E8F1F22E5D
:1050F000F2EEEAE02DE8F1F22EEDE0EFF02E000006
:10510000FA51010020202020203C3E202D20E2FBEF
:10511000E1EEF02020202020000000002020205E72
:1051200076202D20F3F1F2E0EDEEE2EAE0202020FF
:105130000000000020D3D1D2C0CDCEC2CAC02020F2
:10514000C2D0C5CCC5CDC820000000002020202042
:1051500020A420202D20E2FBF5EEE42020202020BA
:10516000000000002C02001020400240204574681E
:1051700065726E65742020202020202020202120B0
:10518000000000002044484350EAEBE8E5EDF2203F
:10519000202020202020402000000000204950E056
:1051A000E4F0E5F1202020202020202020202020D5
:1051B0000000000020203030302E3030302E3030D3
:1051C000302E3030232020200000000020CCE0F1E1
:1051D000EAE020EFEEE4F1E5F2E8202020202020B4
:1051E0000000000020203030302E3030302E3030A3
:1051F000302E3030242020200000000020D8EBFE8C
:10520000E7202020202020202020202020202020D7
:105210000000000020203030302E3030302E303072
:10522000302E3030292020200000000020CFEEF06A
:10523000F22EF7F2E5EDE8FF202020202020205B71
:105240000000000020CFEEF0F22EE7E0EFE8F1E8FA
:10525000202020202020205D0000000020436F6DD2
:105260006D756E697479203C20202020202020203C
:105270000000000020C0E4F0E5F1E0F220E4EBFFE4
:105280002054524150204E31000000002020303088
:10529000302E3030302E3030302E3030252020204F
:1052A0000000000020C0E4F0E5F1E0F220E4EBFFB4
:1052B0002054524150204E32000000002020303057
:1052C000302E3030302E3030302E30305E202020E6
:1052D0000000000020C0E4F0E5F1E0F220E4EBFF84
:1052E0002054524150204E33000000002020303026
:1052F000302E3030302E3030302E303026202020EE
:105300000000000020C0E4F0E5F1E0F220E4EBFF53
:105310002054524150204E340000000020203030F4
:10532000302E3030302E3030302E30302A202020B9
:105330000000000020C0E4F0E5F1E0F220E4EBFF23
:105340002054524150204E350000000020203030C3
:10535000302E3030302E3030302E3030282020208B
:105360000000000020D3D1D2C0CDCEC2CAC8204593
:10537000746865726E65742000000000B5F97620CF
:10538000B5F97410B5F97200FBF730F97178242083
:10539000042938D05FF00001CDE90001BAF90030EE
:1053A000B5F97E20B5F97C10B5F97A00FBF71EF946
:1053B0007178292006292AD05FF00001CDE900018B
:1053C000BAF93430BAF93220BAF93010BAF92E00ED
:1053D000FBF70CF9BAF82A0000225B21554680B28F
:1053E000FBF7A5F9A88D00225D2180B2FBF79FF99C
:1053F000B5F902006FF00D07FF280CD014E0B1786A
:10540000491CC9B2FEE5B178491CC9B2C4E7B178FC
:10541000491CC9B2D2E7A988FF2905D1E988FF292B
:1054200002D12989FF2914D0727825210B2A16D0A0
:105430005FF00002CDE90012B5F90830B5F9062099
:10544000B5F90410FBF7D2F8B5F90A00FF280AD025
:1054500012E03A462521FFA0FBF7B7FAF4E7B2784D
:10546000521CD2B2E6E7A989FF2905D1E989FF29B3
:1054700002D1298AFF2914D071780D2917D0002272
:105480005E21CDE9001200BFB5F91030B5F90E204C
:10549000B5F90C10FBF7AAF8B5F91200FF280DD0EA
:1054A00015E03A465E21EBA0FBF78FFAF4E7B178FE
:1054B000491CC9B25E22CDE90021E5E7A98AFF298E
:1054C00005D1E98AFF2902D1298BFF2913D07278EF
:1054D00026210F2A15D00022CDE90012B5F9183087
:1054E000B5F91620B5F91410FBF780F8B5F91A00D4
:1054F000FF280AD012E03A462621D6A0FBF765FA2B
:10550000F4E7B278521CD2B2E6E7A98BFF2905D1A5
:10551000E98BFF2902D1298CFF2914D072782A2126
:10552000112A16D05FF00002CDE90012B5F9203043
:10553000B5F91E20B5F91C10FBF758F8B5F9220093
:10554000FF280AD012E03A462A21C2A0FBF73DFA12
:10555000F4E7B278521CD2B2E6E7A98CFF2905D154
:10556000E98CFF2902D1298DFF2925D072782821C5
:10557000132A27D05FF00002CDE90012B5F92830D8
:10558000B5F92620B5F92410FBF730F8B64A00200B
:105590002AA9135C0B54401CC0B20928F9D300207F
:1055A0008DF8B1007078B2780A280FD000233C2122
:1055B0002AA8FAF7FEFF9CE43A462821A5A0FBF7AB
:1055C00004FAE3E7B278521CD2B2D5E70123EEE742
:1055D000BAF83C10564601290DD0A4A10291A9A108
:1055E0000391AE49049101F6F42105910691A84278
:1055F00003DA387105E0AAA1F0E7012A01DD87F896
:1056000004C097F9040004EB800154F820204B6893
:10561000A9A1AFA0FBF7A9F90220FBF742F9F08F8F
:10562000012804D06FF004022121AFA046E36FF0FF
:1056300002022121AFA0F9E7B0A10291B5A1039127
:10564000BAA104919549059101F6F42106910791BB
:10565000A84201DA387102E0022A00DD3B7197F9B5
:10566000040004EB8001D1E9012354F82010B5A017
:10567000FBF77BF90120FBF714F90AF14005012241
:1056800028885B2180B2FBF752F8688801225D21EF
:1056900080B2FBF74CF8E88A0022282180B2FBF7A1
:1056A00046F800222921288BFEF735BDABA10291D7
:1056B000B0A10391B5A10491BAA10591BFA1069132
:1056C0007649079101F6F42108910991A84201DA7F
:1056D000387103E0012A01DD87F804C097F904005E
:1056E00004EB800154F820204B68BAA1AFF290601F
:1056F000FBF73BF90220FBF7D4F8BC4DE88A012800
:105700001CD06FF004022121B9A000BFFBF75DF9A6
:10571000688B0022402180B2FBF709F8A88B002299
:10572000232180B2FBF703F8688C00223C2180B271
:10573000FAF7FDFF00223E21A88CB5E76FF00302C7
:105740002121ADA0E2E785A102918AA103918FA159
:105750000491ABA10591B0A106915049079101F6C2
:10576000F42108910991A84201DA387103E0012A75
:1057700001DD87F804C097F9040004EB800154F8B8
:1057800020204B68AAA1B0A0FBF7EFF80220FBF79E
:1057900088F8964D288B01281CD06FF00402212137
:1057A00093A000BFFBF711F9E88B0022402180B2E3
:1057B000FAF7BDFF288C0022232180B2FAF7B7FF49
:1057C000E88C00223C2180B2FAF7B1FF00223E2192
:1057D000288D69E76FF00302212187A0E2E72F4BB4
:1057E0009FA2A5A1AAA001F060B9AFA10291B4A1A6
:1057F0000391B9A10491BEA10591C3A10691C8A1CD
:1058000007912649089101F6F4210991CA49897D39
:1058100031B1764EC949AC3636F9186044F82610D5
:10582000A84201DA387102E0022A00DD3B7197F9E3
:10583000041004EB8100D0E9012354F82110C0A02A
:10584000FBF793F80120FBF72CF897F90200401CB6
:1058500080B281E120202020EDE5E0EAF2E8E2E5F7
:10586000ED2020202000000000C0072020CDE5E032
:10587000EAF2E8E2EDEE2020202020202020202067
:105880000000000020C2EAEBFEF7E5EDE8E520208D
:10589000202020202021202000000000782F000060
:1058A00020C0EAF2E8E2EDEE202020202020202097
:1058B0002020202000000000202020D1D3D5C8CCFB
:1058C00020CACECDD2C0CAD2CECC2020000000004B
:1058D0002020202020D3CFD0C0C2CBC5CDC8C5202A
:1058E0002020202000000000D0C0C7CECCCACD2E82
:1058F00000000000C7C0CCCACD2E000020553D20BE
:105900002020205BC22020493D202020205DC02097
:105910000000000020D8C8CC20EDE0EFF0FFE62E1C
:105920003D202020202028200000000020D8C8CCC6
:1059300020F2EEEAE03D2020202020202020292017
:1059400000000000202020202020D2C5D1D220D865
:10595000C8CC2020202020200000000020C0EAF237
:10596000E8E22E20F1E8E3ED2E2020202020202167
:10597000000000002054E7E0E42EE2EAEB2E2020B5
:105980002020202040F1E5EA000000002054E7E05C
:10599000E42EF1F0E0E12E202020202023F1E5EAA2
:1059A00000000000206455202020202020202020FE
:1059B000202020203C2520200000000020644920D9
:1059C0002020202020202020202020203E252020B4
:1059D00000000000D0C5CBC520D2CECACECEC3D0E9
:1059E000C0CDC8D7C5CDC8DF00000000340100100D
:1059F000D0C7CCCACD2E0000C7CCCACD2E00000027
:105A000020556D617820202020202020202020207B
:105A10003CC220200000000020556D696E2020202F
:105A200020202020202020203EC220200000000036
:105A3000CACECDD2D0CECBDF20CDC0CFD0DFC6C531
:105A4000CDC8DF2000000000202020D3D1D2C0CD5F
:105A5000CEC2CAC820D0C5CBC5202020000000007F
:105A600020D0E5EBE532202020202020202020201F
:105A7000202020200000000020D0E5EBE531202090
:105A80002020202020202020202020200000000096
:105A9000202020CDC0D1D2D0CEC9CAC020D0C5CB05
:105AA000C52020200000000020C2FBEAEBFEF7E545
:105AB000EDEE2020202020202020202000000000CB
:105AC00020D0E5E2E5F0F120202020202020202039
:105AD000202020200000000020D2EEEAEEEEE3F0CD
