:020000040000FA
:10000000206B0010E1000000E5000000E7000000A8
:10001000E9000000EB000000ED000000000000001F
:10002000000000000000000000000000EF000000E1
:10003000F100000000000000F3000000E7BF000036
:10004000F7000000DDDA000009DB0000F700000027
:10005000F700000087F70000F7000000F70000003D
:10006000F7000000F7000000F7000000F7000000B4
:10007000F7000000F7000000F7000000F7000000A4
:10008000F7000000F7000000F7000000F700000094
:10009000F7000000F7000000DD250000F700000079
:1000A000F70000005FF50000F7000000F700000017
:1000B0007D1A0100F7000000F7000000F7000000C3
:1000C000F7000000F7000000F7000000DFF80CD098
:1000D00011F0B2FD004800476FC10000206B001016
:1000E00005480047FEE7FEE7FEE7FEE7FEE7FEE71E
:1000F000FEE7FEE7FEE7FEE7CD000000FEE710B5F5
:1001000013F046FC13F0D2FC13F0C4FC13F052FCC5
:10011000AFF30080BDE8104013F08EBC10B514F0B2
:100120009FFA14F0E1FF14F0F3FABDE8104014F068
:100130006BBC14F0B3B913F07BBF09B1002070475A
:1001400012F0D0BC0020704770B5374A0020A2F1F1
:100150001401064601F10A030C5C54B11D5CAC426B
:1001600007D1145C2CB1641E14F0FF04145400D1A8
:100170000E540C5C1C54401CC0B20A28ECD370BD59
:1001800070B5294D0024143D641CE4B22E5D1EB1EF
:10019000864201D00A2CF7D3285523480C3040F86A
:1001A0002410283040F824203438035570BD1E4AEE
:1001B0000021143A491CC9B2535C834201D00A2978
:1001C000F8D3DBB2834210D117480C3050F82130FD
:1001D00016480360144B343353F821304360002039
:1001E0005054114A505401207047002070470E4A65
:1001F0000021143A491CC9B2535C834201D00A2938
:10020000F8D3DAB282420CD107480C3050F82120E2
:1002100006480260044A343252F82110416001203D
:1002200070470020704700003C5800105400001038
:100230000A4BDA6018705970704708490881704796
:100240000648B0F90810002907D0491E09B20181FB
:10025000002902D1084600F015BB70475C00001071
:1002600090F900308B4200DA027090F9003093422E
:1002700000DD0170704790F900308B4200DA0170A8
:1002800090F90010914200DD02707047B0F9003023
:100290008B4200DA0180B0F90010914200DD02804B
:1002A0007047B0F900308B4200DA0280B0F90030BC
:1002B000934200DD0180704703688B4201DB1946E1
:1002C00000E00160914200DD0260704740EA0103F6
:1002D0009B0703D009E008C9121F08C0042AFAD2FC
:1002E00003E011F8013B00F8013B521EF9D27047C0
:1002F000004870472C67010070477047FFFFFFFF01
:1003000000202021FF4A1154401CC0B2C828FAD353
:1003100070470146FB4A0020401CC0B2135C8B4270
:1003200001D0C828F8D3704710B50021F64C0A2236
:10033000B0FBF2F302FB13006054491CC9B218462B
:100340000529F5D310BDF0B5F04B01212027197018
:100350000521ED4A002601E01C7844B1541814F838
:10036000015C25B9814202D904F8017C05E05418EA
:1003700014F8015D303525701E70491E11F0FF0123
:10038000EAD1F0BDFEB52B23002801DA40422D232F
:1003900000250A266C46074690FBF6F006FB107710
:1003A00067556D1C6DB20A2DF5DB0126002509206D
:1003B000202700E046B114F800C0BCF1000F03D1C3
:1003C000904201DD275405E0265C30362654002695
:1003D0006D1CEDB2401E40B20028EBDA2D2B02D18D
:1003E00063556D1CEDB26AB168B205E0231813F8CD
:1003F000013C2354401E40B29042F7DC2E206D1C7D
:10040000A054EDB20846FFF784FF0021BD4A04E086
:10041000635C461A491C935549B2A942F8DBFEBDFC
:10042000FEB52B26002801DA40422D2600240A279B
:100430006D46844690FBF7F007FB10CC05F804C02E
:10044000641C64B20A2CF4DB0127002009244FF05D
:10045000200C00E04FB115F804E0BEF1000F04D10C
:100460009C4202DD05F804C005E02F5D30372F55B2
:100470000027401CC0B2641E64B2002CEADA2D2EA4
:1004800002D12E54401CC0B26BB144B205E02E190B
:1004900016F8016C2E55641E64B29C42F7DC2E24C3
:1004A000401CEC54C0B201EB810102EB8101CAB2E5
:1004B0000021944B04E06C5C561A491C9C5549B2CF
:1004C0008142F8DBFEBD70B50D4616461C46FFF7AF
:1004D0002BFF601CC0B2FFF736FF05EB850006EB73
:1004E0008000C1B2884A874B0020A04201D2155C2F
:1004F0005D5406D3155C202D03D04CB15E1806F870
:10050000015C491E401CC0B2C9B20528EDD370BDC4
:100510005D54F6E770B50446084615461E46FFF7DB
:10052000F8FE784B0146FF2804D106E01A54641CFB
:10053000401CC0B22278002AF8D175480078002803
:1005400004D0002E02D029445F20585470BD2DE9FC
:10055000FF4F8146DDE90D048A469346FFF7D9FE39
:100560002022DFF8AC8167490A234FF0640C012C8C
:1005700009D198F8005035B10D18A5F10E05AA70F3
:100580006A702A7020E099FBF3F603FB16970D18AA
:100590003037A5F10E05022CAF7096FBF3F703FB85
:1005A000176606F130066E7099FBFCF606F1300610
:1005B00005F80E6B08D198F800602EB1A5F10A0578
:1005C000AA706A702A7021E09AFBF3F603FB16A763
:1005D0000D183037A5F10A05032CAF7096FBF3F721
:1005E00003FB176606F130066E709AFBFCF606F107
:1005F0003006674605F80A6B08D198F800602EB1FE
:10060000A5F10605AA706A702A7022E09BFBF3F63A
:1006100003FB16B70D183037A5F10605042CAF7093
:1006200096FBF3F703FB176606F130066E709BFB33
:10063000FCF606F13006674605F8066B09D198F816
:10064000004034B1A5F102050A546A702A70BDE871
:10065000FF8F039C94FBF3F203FB124430340C54E1
:1006600092FBF3F403FB14220844A0F102003032A1
:100670004270039991FBF7F101F130010170E6E757
:1006800070B50D461446FFF74FFE601CC0B2FFF771
:100690005AFE2846FFF73DFE1B4B1A4A002124B99B
:1006A0005D5C202D01D015540FE0A14201D25D5CAC
:1006B000F9E704D14FF02E0515545D5C02E05D5C56
:1006C000202D02D0161806F8015C401E491CC9B244
:1006D000C0B20529E3D370BD17B501EB810002EB71
:1006E0008000C2B29DF800300A4803F00F0100EB11
:1006F0001313445C03498C54521ED2B21B788B54A2
:10070000521E09E012C20720D2000010D7000010CC
:1007100026C007204A6001009DF80130D2B203F0E4
:100720000F0400EB1313045D8C54521ED2B21B78DD
:100730008B549DF80230521E03F00F04D2B2045DB8
:100740008C54521E00EB1313D2B21B788B549DF8BD
:100750000330521E03F00F04D2B2045D8C54521EBB
:1007600000EB1310D2B2007888541EBD01EB81015A
:1007700002EB8101824A10B500F00F03C9B2D45CCC
:10078000804B02EB10105C54491EC9B200785854DB
:1007900010BD01EB810102EB8101CBB2784910B5AC
:1007A00000F001028C5C774AD45444085B1E04F0CC
:1007B0000100DBB2085CD0545B1ED8B2630803F0C2
:1007C00001045B080C5D1454401E03F00104C0B228
:1007D0000C5D14545B08401E03F00104C0B20C5DB4
:1007E00014545B08401E03F00104C0B20C5D1454A5
:1007F0005B08401E03F00104C0B20C5D1454401E9F
:10080000C4B25808085C105510BD30B55E490123CC
:100810005C4D91F9012091F9041000EB80048A42AB
:1008200002D105F8243030BD564D4C1C00EB800041
:1008300005EB8000A24201D1037530BD8C1CA242A1
:1008400002D180F8283030BDCC1CA24202D180F801
:100850003C3030BD0C1DA24202D180F8503030BD7A
:100860004C1DA24202D180F8643030BD8C1DA242E2
:1008700002D180F8783030BDC91D8A42FBD180F8A2
:100880008C3030BD414B1A88521E104400B2188083
:100890003F4A00EB800002443B4813680360127932
:1008A00002714278114441707047F0B5374D384FAE
:1008B000B5F9004004EB8406641C2C80324C3E44A5
:1008C0002568356025793571207061702271A370BB
:1008D000F0BDF0B505460E461746FFF711FD294C51
:1008E0005FF00000401C15F8011BC0B204F8011BAA
:1008F0001428F7D35FF00000401C16F8011BC0B2AB
:1009000004F8011B1428F7D35FF00000401C17F80F
:10091000011BC0B204F8011B1428F7D35FF00000DC
:10092000401C13F8011BC0B204F8011B1428F7D3B4
:10093000F0BD30B5044608461546FFF7EAFCFF282F
:1009400009D0104A2178002905D04319641C401CA5
:10095000D154C0B2F6E730BD10B5029CFFF7B9FF25
:100960000948C378827841786420FFF79EFF6420AD
:1009700094FBF0F0BDE81040C0B2FFF75EBC000091
:100980004A60010012C20720D0C1072044C00720DE
:10099000DAFD0720FC4A30B4FC49B2F90A4040F6BF
:1009A000AC53B1F900009C4203DCB2F914209A4226
:1009B00003DD142804DA401C01E008B1401E088061
:1009C000142230BC0021F148FFF760BCF0B5EE48BE
:1009D000EF494FF42F72B0F90000B1F90010ED4B60
:1009E000484390FBF2F01880E74842F21073203041
:1009F000B0F90000484390FBF2F0E749EA4A08806A
:100A0000E749E648B1F90040E6490088B1F900102D
:100A1000001B484390FBF3F01080001B484390FB01
:100A2000F3F0E249E44C0880E1480188E148B0F97C
:100A3000003071B90021084608E000BF00EB8005D6
:100A400004EB0515401C2D6AC0B229449842F5DB21
:100A50001180B2F900000021002800DA1180002284
:100A600002EB820004EB0010C578192D1BD28579AA
:100A7000C67905EB06260662067A477A06EB072654
:100A8000C661867AC77A06EB07268661067B4662D0
:100A900080F84E50857B80F83E50057C467C05EB07
:100AA0000625856406E081610162C161416280F8CA
:100AB0003E108164521CD2B2202AD1D3BF48C04913
:100AC000008858430880BF48BF49008858430880C1
:100AD000F0BDBE48416821F4402141F480214160CD
:100AE000416821F4403141F480314160416821F492
:100AF000404141F480414160416C21F4402141F486
:100B000000214164416C21F4403141F400314164E1
:100B1000416C21F4404141F400414164AC4801681A
:100B200021F0E0610160016841F400110160016899
:100B300021F480310160016821F47F4141F480712A
:100B400001608115C160A3488903016070472DE9E8
:100B5000F041A14C60882188401A00B201F0FAFCF3
:100B6000A51D2880A0886188401A00B201F0F2FC1F
:100B70006880A0882188401A00B201F0EBFC4FF495
:100B80009672A880A4F12801904201DAA0880AE0B8
:100B9000B5F90200904201DA608804E0B5F900007E
:100BA000904201DA208848824C7800231CB37648B2
:100BB000B1F91220403005681544056045681544B8
:100BC0004560856815448560C5682A44C2604A8BC3
:100BD000521C12B24A83B2F5805F00DB4B83B1F93D
:100BE0001A20950535D1921250F822502D120D82FF
:100BF00040F822302DE0794F887891F803C007EB58
:100C0000C012B1F912E042F82CE05FEA8C7212D106
:100C100000252A4607EBC01656F82270521CD2B2A5
:100C20003D44202AF8D36A11574D25F8102005F1CC
:100C3000200222F810E0401CC0B28870102808D3AF
:100C40000CF1010C0CF0FF008B70C870202800D351
:100C5000CB70641C0B7014F001005D4A487005D025
:100C6000106820F0FF00001D106034E0897808074C
:100C70000028106820F0FF0002DB00F1010001E015
:100C800000F1020010605648036843F0805303608F
:100C9000036A43F080430362036E43F0806303669C
:100CA000CB07436908D043F0805343618B07436B04
:100CB00005D423F0804304E023F08053F5E743F0AC
:100CC000804343634907416F02D421F0806101E012
:100CD00041F080614167106840F080701060BDE8AD
:100CE000F08110B50021D0200DF075FC0021BDE889
:100CF0001040D4200DF06FBC70B53A4C3A48002536
:100D0000217851B33949098839B3274A0168B2F9C2
:100D1000002011440160B1F5616F1FDB344EA1F575
:100D20006161016031684FF49E70491C31600DF0C3
:100D300052FC30493068B1F9001088420EDB257052
:100D4000FFF7CFFF00231A4601217820FFF7ADFD02
:100D5000BDE870400020FFF770BA056070BD70B547
:100D6000204C254A25482578002165B1244B1B8855
:100D70004BB1244EB0F90030B6F90060B34243DA0B
:100D80005B1C038070BD72E050EF072006C1072096
:100D900046C30720DEC00720D00000104E17001009
:100DA000DE000010A0C30720E0C0072094C3072086
:100DB00030C1072064C00720B0EF07200CC1072016
:100DC0002CC107200EC107202EC1072000C0024001
:100DD0000040034000E100E03600001050E707202B
:100DE00000C0092013C00720FC000010D0C007205D
:100DF000C8C10720D2C00720BAC3072000010010D5
:100E0000D4C00720DAC007200020012D02D0022D17
:100E100002D004E0FC4800E0FC48B0F90000FC4BC4
:100E2000B3F900305843642390FBF3F0F94B00B260
:100E30001880F94BB3F90030834216DA1088401C51
:100E400000B21080F54AB2F9002090429ADB21707E
:100E5000FFF747FF00231A4602217820FFF725FD00
:100E6000BDE870400020FFF7E8B911808AE70180F3
:100E7000FBE72DE9F05FDFF8A883DFF8A8B3EA4DC0
:100E800098F80000E94FDFF8A893012600244FF4FA
:100E9000167A012862D1E7480168491C91FBFAF2F1
:100EA00001600AFB121030B9E3480078012802D132
:100EB000D0200DF090FBD9F80010484609B1491E2A
:100EC00001600846DD49B1F9001008430CD188F8EB
:100ED0000040FFF706FF00231A4619467820FFF767
:100EE000E4FC0020FFF7A9F9D5480088B0B3BBF8AF
:100EF000000098B3D34B1888401C01B2D248198027
:100F0000027832B1012A0CD0022A15D0032A1CD053
:100F100024E0CE4A2E70B2F9002091421EDB06700A
:100F20001BE039B185F80040B7F90020914215DB8C
:100F3000022108E02E70F7E7C54A2C70B2F90020B4
:100F400091420BDB0321017007E0A9B185F8006035
:100F5000B7F90020914201DB04701C8098F8000072
:100F600002285CD1B3480168491C91FBFAF2016088
:100F70000AFB121010B108E02C70E9E7AE480078C7
:100F8000012802D1D4200DF026FBD9F800104846E4
:100F900009B1491E01600846AE49B1F90010084385
:100FA0000CD188F80040FFF79CFE00231A46194632
:100FB0007820FFF77AFC0020FFF73FF9A04800886F
:100FC00000282CD0BBF80000002828D09D480188BC
:100FD000491C0AB29C4902800B786BB1012B13D0DB
:100FE000022B1ED0032B1AD122B32E70B7F900307A
:100FF0009A4214DB0C7011E0944B2E70B3F9003060
:101000009A420CDB0E7009E032B12C70B7F9003057
:101010009A4204DB02220BE02E70F7E70480BDE861
:10102000F09F8B4B2C70B3F900309A42F7DB032210
:101030000A70F3E72C70D9E770B579480078032877
:1010400043D1854985480A68521C0A60B0F90050AE
:101050008348B0F900002B188248B0F900001C1832
:101060008148B0F9000026180020964204DC7F4E2B
:1010700008603288521C328009687D4E0122A942E4
:1010800001DB327000E030707A4D8B4203DC8C4221
:1010900001DD2A7000E0287077490A88521C12B2DC
:1010A0000A80B2F5167F10DB088074490A88521C4A
:1010B00012B20A803C2A08DB088071490A88521C57
:1010C00012B20A80182A00DB08805BE60121D020DA
:1010D0000DF081BA0121D4200DF07DBA70B55048D1
:1010E0000125002405705348514904606548006893
:1010F0000860FFF7EBFF6448C57104725048008830
:1011000040B14848008828B14E4804804E480470D9
:10111000454805705D48214604605D480460BDE8AF
:1011200070404FF49E700DF056BA3D4910B5022044
:101130000870404800243E49046056480068086032
:10114000FFF7C8FF50490120C8710C723C4909885B
:1011500041B13449098829B13A490C803A490C70A7
:101160003149087049482146046049480460BDE897
:1011700010404FF49E700DF02EBA294903200870DC
:1011800070472749002008707047254900200870E3
:1011900070472349002008702F49086033490880B0
:1011A00035490880354908803549088070471C4911
:1011B0000020087095E52DE9F041002406464FF423
:1011C000FA75A046274628460DF00EF9B04270DAAF
:1011D00005EB47000DF008F9B04200DC3C460A3749
:1011E0003FB2C82FF4DDC82C56DA04F10A0708E034
:1011F00005EB44000DF0F8F8B04200DCA046641C9A
:1012000024B2BC42F4DB54E052C1072022C10720C3
:10121000D6C00720BCC30720E0C00720DCC00720E1
:1012200013C007205EC1072015C0072064C1072036
:10123000C0C10720BCC107203DC0072024C1072032
:101240005CC10720B4C3072016C0072060C1072077
:1012500062C1072026C10720C4C107206EC1072034
:1012600070C1072072C1072074C107207AC107200E
:10127000B8C30720F8000010F4000010B6C3072020
:10128000F6000010B0C107200E000010FC00001096
:10129000C8C10720B4C107205FF0C80405EB4400B3
:1012A0000DF0A2F8B04200DCA046641C24B2CA2CA7
:1012B000F4DD404613E52DE9F041002406464FF4E5
:1012C0007A75A046274628460DF08EF8B04228DAF7
:1012D00005EB47000DF088F8B04200DC3C460A37C9
:1012E0003FB2C82FF4DDC82C0EDA04F10A0708E07B
:1012F00005EB44000DF078F8B04200DCA046641C19
:1013000024B2BC42F4DB0CE05FF0C80405EB4400FF
:101310000DF06AF8B04200DCA046641C24B2CA2C6E
:10132000F4DD4046DBE42DE9F05FDFF8089442F29B
:10133000ED784FF0000A99F8000040F2FE3BFE4FB6
:10134000FE4EFF4C322545282AD13078012858D14D
:101350002088401C00B22080404509DB86F800A0B0
:10136000F849AC200DF0FDF800210846FFF78AFA95
:10137000F549A1F800B0B4F9001091FBF5F005FBB8
:10138000101100EB80023A80312909D14FF4FA7133
:1013900001EB4000ED4900B2B1F900100DF0E1F8A9
:1013A00099F8000044282CD13078012829D12088D0
:1013B000401C00B22080404509DB86F800A0E149CE
:1013C000AE200DF0CEF800210846FFF75BFAA7F833
:1013D00000B0B4F90010DC4B91FBF5F005FB1011E7
:1013E00000EB80021A8031290BD14FF47A7101EBA6
:1013F0004000D74900B2B1F90010BDE8F05F0DF030
:10140000B0B80CE62DE9FC5FD248DFF84CA30088A9
:1014100038B3D248008820B3D1489AF80030B0F9E8
:101420000010D048012B007807D0CF4A022BB2F928
:1014300000200DD0CD48028003E0012801D010B17A
:1014400025E0CB4822E0CB48C949008808801EE04F
:10145000012801D018B11AE0C448028017E0C6483C
:1014600012E0C648B0F9000002285AD001285AD02C
:10147000C3480188BE480180C248B0F90000022874
:1014800053D0012853D0C0480188B8480180BF48D4
:10149000B0F90020BE48B0F90010B548FEF7F6FEDE
:1014A000BC48B0F90020BC48B0F90010AF48FEF7C6
:1014B000EDFEBA4E00254FF0010870790A2807D2D8
:1014C000401CC0B270710A2802D3757186F806807C
:1014D0009848B349B34A0378B34CB44F40F2FE394D
:1014E000302B26D02B2B7AD09348974A332B77D0AA
:1014F000DFF848C2452B74D0442B73D09AF80020F3
:101500009348DFF8ACA2DFF8ACB2012A6BD0022A14
:101510006AD0032A69D00D7000204346B7F9002035
:10152000F2E3A548A5E7A548A3E7A548ACE7A54889
:10153000AAE790F9010038B101281ED00D70E562CC
:10154000256384F828807EE2A6F80C90A6F80E9019
:1015500081F800804A460020B7F900100AE000BF79
:1015600000EB800304EB0313401CDA621A6383F878
:101570002850C0B28842F3DB65E2107810B1012830
:1015800015D060E2B581F5810D7000204346B7F9B2
:10159000002009E000EB800104EB0111401CCD624A
:1015A0000D6381F82830C0B29042F3DBFCE3A6F86B
:1015B0000C90A6F80E9081F800804A460020B7F9FA
:1015C000001009E000EB800304EB0313401CDA6217
:1015D0001A6383F82850C0B28842F3DBE4E305E0E5
:1015E000FDE012E13DE168E12EE2E9E290F901302F
:1015F00013B1032B58D05EE0A6F80C90A6F80E901D
:1016000081F80080E562256384F82880E567C4F8E6
:10161000805084F87880C4F8CC50C4F8D05084F856
:10162000C880C4F81C51C4F8205184F81881C4F84B
:101630006C51C4F8705184F86881C4F8BC514246BA
:10164000C4F8C05184F8B821C4F80C52C4F8105240
:1016500084F80822C4F85C52C4F8605284F8582216
:10166000C4F8AC52C4F8B05284F8A822C4F8FC52B2
:10167000C4F8005384F8F822C4F84C53C4F850530B
:1016800084F84823C4F89C53C4F8A05384F89823E2
:1016900090F902004B4600EB800004EB0010C3629F
:1016A000036380F828507FE3127812B1012AA3D097
:1016B0007AE3B581F58104F128040D706560A560B9
:1016C00084F800806565A56584F85080C4F8A4504E
:1016D000C4F8A85084F8A080C4F8F450C4F8F850B6
:1016E00084F8F080C4F84451C4F8485184F840812B
:1016F000C4F89451C4F8985184F89081C4F8E45126
:101700004046C4F8E85184F8E001C4F83452C4F803
:10171000385284F83002C4F88452C4F8885284F8ED
:101720008002C4F8D452C4F8D85284F8D002C4F865
:10173000245349E0D0C10720F4C0072014C007207B
:1017400046C00720CDABFFFFF6C00720DEC0072054
:10175000E0C007205CC1072013C007205EC107203E
:1017600066C1072015C007206AC1072054C10720A1
:1017700052C1072068C107206CC1072056C107204D
:1017800014C1072058C107201AC107202CC1072007
:101790002EC1072008C107200AC107200E00001033
:1017A0008A0000102AC00720B0EF072064C007207D
:1017B0009EC30720DC00001018C1072016C10720B7
:1017C0001EC107201CC10720C4F8285384F8200339
:1017D000C4F87453C4F8785384F87003E4E2002129
:1017E000B0F90000B2F90020B7F900300AE000BFFC
:1017F00001EB810704EB0717491CC7E90B0287F8C7
:101800002850C9B29942F3DBCEE29CF800100129BE
:1018100011D000204946B7F9002009E000EB800311
:1018200004EB0313401CD962196383F82850C0B23B
:101830009042F3DBB8E20021B0F90000B2F90020D9
:10184000B7F900300AE000BF01EB810704EB07178E
:10185000491CC7E90B0287F82850C9B29942F3DB4B
:10186000A2E29CF80010012911D000204946B7F9E6
:10187000002009E000EB800304EB0313401CD96255
:10188000196383F82850C0B29042F3DB8CE2002148
:10189000B0F90000B2F90020B7F900300AE000BF4B
:1018A00001EB810704EB0717491CC7E90B0287F816
:1018B0002850C9B29942F3DB76E2FF49B1F9002022
:1018C00062B1FE490B68934208DADFF8F4C3BCF951
:1018D0000010594391FBF2F1ACF80010B17981B3DB
:1018E000F849098841B1F849098829B1F7490978C7
:1018F000012933D0032931D0B0F90010F048B0F9F4
:101900000000814204DABBF8001001F1010104E09B
:1019100005DDBBF80010A1F10101ABF80010322287
:101920005142EB48FEF7B2FCEA48B0F90010EA4831
:10193000B0F90000814205DABAF8001001F10101A6
:1019400005E00BE005DDBAF80010A1F10101AAF8ED
:10195000001032225142E148FEF798FCDE48E0498F
:10196000B0F90000B1F90010C0EB4020400090FB3E
:10197000F1F00090D248DB49B0F90000B1F9001055
:10198000C0EB4020400090FBF1F08146AC200CF011
:101990002BFDA0F52B41CD3907D1CF48B0F9000080
:1019A000FFF709FC00EB80000090AE200CF01CFD5E
:1019B000A0F52B41CD3907D1C148B0F90000FFF7A0
:1019C0007AFC00EB800081460020B7F9003038E057
:1019D000BC49098841B1BC49098829B1BB4909788A
:1019E00001290ED003290CD000990AB2BAF90010CF
:1019F000521800EB800104EB0111CA620AD5CD62D6
:101A00000DE000EB800104EB0111CD620D6381F864
:101A1000288014E040F2FE37BA4200DDCF62BBF905
:101A200000200FFA89F7BA180A6301D50D6304E0A4
:101A300040F2FE37BA4200DD0F6381F82850401CA7
:101A4000C0B29842C4DBAFE1A749B1F90010052943
:101A500002DD86F8088000E03572F571B17991B346
:101A6000317A81B3B0F90010A048B0F9000081428A
:101A700004DABBF8001001F1010104E005DDBBF858
:101A80000010A1F10101ABF8001032225142904840
:101A9000FEF7FCFB9448B0F900109548B0F900003F
:101AA000814204DABAF8001001F1010104E005DD19
:101AB000BAF80010A1F10101AAF800103222514237
:101AC0008648FEF7E3FB8A484FF46171B0F90000E5
:101AD00048438349B1F9001090FBF1F03230009097
:101AE000AC200CF081FCA0F52B41CD3907D180480A
:101AF000B0F90000FFF75FFB00EB800000907B482F
:101B00007849B0F90000B1F90010C0EB4020400066
:101B100090FBF1F08146AE200CF066FCA0F52B4165
:101B2000CD3907D17148B0F90000FFF7C4FB00EBD5
:101B3000800081460020B7F9003038E0614909880B
:101B400041B16149098829B16049097801290ED05C
:101B500003290CD000990AB2BAF90010521800EB10
:101B6000800104EB0111CA620AD5CD620DE000EBE1
:101B7000800104EB0111CD620D6381F8288014E02F
:101B800040F2FE37BA4200DDCF62BBF900200FFA07
:101B900089F7BA180A6301D50D6304E040F2FE37F5
:101BA000BA4200DD0F6381F82850401CC0B2984251
:101BB000C4DB5049009808804F49E06A0880F3E090
:101BC000B179A1B34D49097889BB4D49B0F90000FD
:101BD000B1F9001001EB8101B0EB410F06DABBF85F
:101BE000001001F10101ABF8001006E005DDBBF8C3
:101BF0000000A0F10100ABF800004A462946344835
:101C0000FEF744FB322251423148FEF73FFB3D488C
:101C10003049B0F90000B1F9001000EB8000B1EBE1
:101C2000400F05DABAF8001001F1010105E010E0FB
:101C300005DDBAF80010A1F10101AAF800104A462A
:101C400029462348FEF722FB322251422348FEF761
:101C50001DFB2C4842F2EC71B0F9000048432049CA
:101C6000B1F9001090FBF1F00090254842F2EC71C0
:101C7000B0F9000048431B49B1F9001090FBF1F0A6
:101C80000190AC200CF0B0FBA0F52B41CD390AD16E
:101C90001C48008800EB8000400000B2FFF78BFA80
:101CA00000EB80000090AE200CF09EFBA0F52B41D5
:101CB000CD3934D1124828E0CAC00720BCC1072062
:101CC00052C107205CC107205EC1072016C0072053
:101CD000DC000010DEC0072020C107209EC30720C3
:101CE00008C107202CC10720D000001022C1072006
:101CF00054C10720E4000010A8C30720B8C3072080
:101D000078C1072076C1072048E0008800EB8000FA
:101D1000400000B2FFF7CFFA00EB800001900020F6
:101D2000B7F900202DE0FF49097841B100EB8001AF
:101D300004EB0111CD620D6381F828801FE000994A
:101D40000BB2BAF900105B1800EB800104EB011133
:101D5000CB6201D5CD6203E04B4501DDC1F82C908B
:101D6000019B1FB2BBF90030FB180B6301D50D635B
:101D700003E04B4501DDC1F8309081F82850401C4C
:101D8000C0B29042CFDB0FE000EB800104EB011109
:101D9000401CCD620D6381F82830C0B29042F3DB65
:101DA000ABF80050AAF80050B571BDE8FC9F00EBFD
:101DB0008001DD4810B500EB01100178032972D1D4
:101DC00090F83E108A07B0F942200CD54FF4966384
:101DD0009A420DDA521C12B2A0F842209A4207DB56
:101DE000A0F8423004E01AB1A2F10102A0F84220AA
:101DF0000A07B0F944204FF00A034FF000040AD557
:101E00000A2A13DA521C12B2A0F844200A2A0DDB67
:101E1000A0F844300AE0002A05DDA2F1010212B266
:101E2000A0F8442002E001DAA0F84440CA06B0F964
:101E300046200AD50A2A0DDA521C12B2A0F8462012
:101E40000A2A07DBA0F8463004E01AB1521E12B28B
:101E5000A0F846204278120701D004210FE0B34ACF
:101E6000127822B1C278142A01D9052107E0890627
:101E700001D5022103E0C178142901D2012181702A
:101E8000C1780A2990F8281002D341F0800101E0BE
:101E900001F07F0180F82810A549B1F90C20C26239
:101EA000B1F90E10016310BD2DE9F047A148A24E13
:101EB0009F4C0078002510B3B6F9000000EB8001BC
:101EC000B4F92000B0EB410F01DA401C20849B489C
:101ED000DFF86C8247F2305AB0F9000000EB800165
:101EE000B8F90000B0EB410F0BDD608C5246401C8E
:101EF00060848F4800212230FEF7C8F902E0258473
:101F0000E5E76584DFF83C920127B9F9000000EBB2
:101F10008001B4F92200B0EB410F0ADBB6F90010E2
:101F2000B4F9202001EB8101B2EB410F01DB6772B4
:101F300001E000B965728448B0F9000000EB80014F
:101F4000B8F90000B0EB410F09DAA08C5246401CF2
:101F5000A084774800212430FEF798F900E0A5849A
:101F6000B9F9000000EB8001B4F92400B0EB410F97
:101F70000ADBB6F90010B4F9202001EB8101B2EBC5
:101F8000410F01DBA77202E030B1A07A28B1607A7C
:101F900018B1E772BDE8F087A572E572FAE72DE99E
:101FA000F05F6448DFF8A481DFF8A4B101786448E9
:101FB000DFF8A0A1684DB0F90000684E0027684C1A
:101FC000022911D0012925D0278066492868B1F956
:101FD0000010884243DD64493068B1F9001088423E
:101FE0003DDA2088401C3CE0DFF88091B9F8001011
:101FF000401A00B200F0AEFAC8F80000642148436D
:10200000B9F90010DFF8688190FBF1F02860BBF8A7
:10201000001014E0DFF85C91B9F80010401A00B22B
:1020200000F098FAC8F8000064214843B9F900109C
:10203000DFF8448190FBF1F02860BBF80010B8F89D
:102040000000081A00B200F085FA6421CAF8000006
:102050004843B8F9001090FBF1F03060B5E72088F4
:10206000401E464D20800A21288800EB800001EBAD
:10207000400002B200213A48FEF708F92D480078E6
:1020800000B927803E483F493F4A0068B1F9001037
:1020900088420ADBB5F90030B4F9006003EB830332
:1020A000B6EB430F01DD01231370884208DBB5F95D
:1020B0000000B4F9001000EB8000B1EB400F00DC31
:1020C0001770BDE8F09F2DE9F04F1A48324BDFF84A
:1020D000BCE090F800C02E48B3F900602F4B0078A8
:1020E000BEF9004082462B480021B3F90030007849
:1020F0008346254805780E48C77A90F80A80407ACA
:1021000081460B482630012254B1012C48D0022CC4
:1021100051D0032C57D0042C5DD0052C67D072E031
:102120004EE00000B8C30720B0EF072096C3072099
:102130000E00001013C007203AC1072044C1072039
:10214000DEC007203CC1072042C10720E800001084
:10215000E0C00720EC000010ACC30720B0C307208C
:10216000F20000103EC1072040C107201AC107201D
:1021700022C1072020C1072052C1072038C10720F3
:10218000BCC1072036C10720F0000010CCC10720D9
:10219000F800001015C0072032C1072034C1072005
:1021A000BCF1030F03D0BBF1000F41D02AE0BAF11C
:1021B000000F3DD126E016B1012E02D023E00DB371
:1021C00036E0A5B31EE013B1012B02D01BE0CFB166
:1021D0002EE067B316E013B1012B04D013E0B8F181
:1021E000000F0FD024E0B8F1000F21D00AE013B1A6
:1021F000012B04D007E0B9F1000F03D018E0B9F1CA
:10220000000F15D00270BEF902409CB1012C14D011
:10221000022C1ED0032C25D0042C2CD0052C0AD146
:1022200083B3012B07D1B9F1000F0CD102E0FFE716
:102230000170E8E74170BDE8F08FBCF1030F04D0F6
:10224000BBF1000FF6D04270F5E7BAF1000FF1D103
:10225000F9E726B1012EEED1002DF4D1EAE7002DE9
:10226000F1D0E7E723B1012BE5D1002FEBD1E1E776
:10227000002FE8D0DEE733B1012BDCD1B8F1000F3D
:10228000E1D1D7E703E0B8F1000FDCD0D2E7B9F134
:10229000000FD8D0CEE71449086820F44040086009
:1022A0001248026842F080020260114A1378012B42
:1022B000436912D043F0800343610B6823F4406309
:1022C0000B60016841F020010160517801294169EA
:1022D00006D041F020014161704723F08003EBE715
:1022E00021F02001F7E7000000C0024000C00920F3
:1022F000340000102DE9F84F0746002080460546BF
:102300000446542659B1012904D0022904D00329D6
:1023100004D004E0552602E0752600E04C268C48E7
:10232000DFF8289207EB87034FF0000A00EB031059
:10233000012A02D0002A7ED003E131B1012908D060
:1023400002290AD003290CD00FE0427842F00102A2
:102350000AE0427842F0020206E0427842F00402CB
:1023600002E0427842F00802427080F84F10532099
:102370008DF800008DF801708DF8026055468DF8DB
:1023800003A0694628460CF068F9694604200095C8
:102390000CF063F9B9F83C0009F120048DF8000055
:1023A000207E8DF80100207B8DF802008DF803500F
:1023B00069464FF008000CF050F9207A8DF80000C3
:1023C00020798DF8010020788DF802008DF80350F7
:1023D00069460C200CF041F941248DF800408DF83D
:1023E00001408DF802408DF80340694610200CF042
:1023F00034F98DF800408DF801408DF802408DF8D9
:102400000340694614200CF028F98DF800408DF83F
:1024100001408DF802408DF80340694618200CF009
:102420001CF98DF800408DF801408DF802408DF8C0
:102430000340694600E001E01C2080E031B1012941
:1024400008D0022913D0032915D007E0417821F0E4
:10245000010102E0417821F00201417005F1100014
:102460004FEA000B9DF80000532818D107E041788F
:1024700021F00401F1E7417821F00801EDE79DF832
:102480000100B8420BD19DF80200B04207D1694665
:1024900058460CF026F89DF80000412805D0F4B30A
:1024A000641EA4B24445DDD14BE09DF801004128F3
:1024B000F5D19DF802004128F1D19DF80300412893
:1024C000EDD1B9F83C0009F120048DF80000207E20
:1024D0008DF80100207B8DF8020056468DF803A090
:1024E000694658460CF0B9F8207A8DF8000020793A
:1024F0008DF8010020788DF802008DF803606946A0
:1025000005F114000CF0A9F842248DF800408DF874
:1025100001408DF802408DF80340694600E013E069
:1025200005F118000CF099F88DF800408DF8014085
:102530008DF802408DF80340694605F11C000CF04F
:102540008CF800BFBDE8F88F3F248BE700400240C5
:10255000B0EF0720002801DA404200B2704710B502
:1025600040F2D4700BF040FFFF4C207040F2D67068
:102570000BF03AFF60704FF4FB600BF035FFA0707A
:1025800040F2DA700BF030FFE07040F2DC700BF0DC
:102590002BFF207240F2DE700BF026FF60724FF4CA
:1025A000FC600BF021FFA07240F2E2700BF01CFF08
:1025B000E0724FF401600BF017FF207140F612003B
:1025C0000BF012FF607140F614000BF00DFFA071CC
:1025D00040F616000BF008FFE07110BDE34810B59F
:1025E000016821F0E06101604168E24AC1F30B1328
:1025F000DF4C117824F81130491CC9B2117003293D
:1026000003D2016841F08071016010BD2DE9FF41E6
:10261000D9490025A1F15E04B1F9780000EB400230
:1026200002EBC0000A2290FBF2F0A084A0850320F8
:10263000E0842078401CC0B204F82209232802D389
:1026400084F8225001E0202843D82120FDF7CFFD57
:1026500050B1CA480088222806D1C94894F82210EF
:1026600090F90200884232D094F82B00C54D98B9F9
:1026700094F8220000EB800105EB011202F1280220
:102680001179577A167A53798DE8CA0013784FF08A
:10269000ED0201460EF090FE94F82200202816D29A
:1026A00000EB800005EB0010C1783C2905D2491CE5
:1026B000C9B2C170032902D207E03C21C17001797F
:1026C000032902D24179491C4171C1780171BDE8E9
:1026D000FF81A94B803B212893F82B3019D0222869
:1026E000F5D1002BF3D1B1F97C00A34990FBF2F0B6
:1026F0008231C0B24B780C78891E4A78CDE902301D
:10270000CDE900240B782922FF2108460EF054FE63
:10271000DDE7002BDBD19848323841780278083861
:102720004378CDE90032CDE9021503786222EBE768
:1027300093490020543908704870887054314870AB
:1027400070472DE9F04F8C494FF03C0B01F1800AA6
:10275000B1F94E30B1F9504001F58071DFF818E25F
:10276000CE6A096B96FBFBF591FBFBF7AEF1800E91
:102770000FFA81F871469EF82C0091F803C0BAF95F
:1027800018203FB2BAF91A102DB236B2B946B8B114
:1027900001283DD1BAF80A70AAF83C70BAF8127054
:1027A000AAF84070AAF83A30AAF83E40BAF9167072
:1027B00050467FB34FF6FF705346AAF8380018E032
:1027C000BAF81070AAF83C70BAF80470AAF8407011
:1027D000AAF83A30AAF83E40BAF914705046002FD1
:1027E000E8D1034666484038006A18E090FBFBF0E9
:1027F00017E03A4317D009B1DD8607E0DE8605E031
:10280000A3F8369002E000BFA3F836808EF82FC000
:10281000BDE8F08FFFE7034659484038406A002979
:10282000E4D11887E5E70029EED0E9E7F0B500200C
:10283000554A01464FF4F4731154401C00B29842BB
:10284000FADBDFF83CE100200EF1420E14277A217A
:10285000414300EB80039B0000EB80041BB207EBBD
:1028600084051EE01EF803405E2C21D0474E04EB89
:10287000440416F814C002F801C006EB4404491CD5
:1028800066785654491CA6785654491CE678565426
:10289000491C26795654491C64795454491C5B1CC4
:1028A0001BB29D42DEDC401C00B20428CFDBF0BD31
:1028B0004FF07E0C02F801C0491C42245454491CBC
:1028C0005A265654491C5654491C5454491C02F863
:1028D00001C0E3E72DE9F04F2D49ADB000200870AD
:1028E00025488038B0F9548080F80080017A491C6E
:1028F000C9B20172142908D300210172C279521C95
:10290000D2B2C271052A00D3C1711D491A4B1C48AD
:1029100091F9045091F90110DFF864A04A1B80334B
:102920000078B3F94E304FF00A0B9E46AAF1400AE8
:1029300002ACC0B1DFF848900D2801F04182212897
:1029400001F079834B466B2893F9043004EB83063E
:1029500001F086834B465B789B1E5BB26C2801F0CE
:10296000A8836E2816E08CE0E82A08200040034087
:10297000360000100E00001090C007205400001018
:10298000D0C10720B0EF0720B0F90720CC590100D3
:102990004200001001F031846A2801F09486692811
:1029A00001F0CF864E4696F902707678BE46761EC6
:1029B0004FFA86FC672801F021874E460F2801F068
:1029C00086871028FBD0042801F0AA87A9F5E076B5
:1029D0005E27DFF830A4B67E3F2802F093826F288E
:1029E00002F00E834F46352802F0CE86332802F0DF
:1029F0000087742802F0CA87752803F014807128B4
:102A000003F05D80702803F05F80722803F09580EA
:102A10005A2803F0CC804C3F5E2803F04A815F289F
:102A2000FBD0612803F02F83622803F082836328A0
:102A300003F0D8834F464FF0030E122803F02C8486
:102A4000432803F05F84A9F5E07745283F7903F038
:102A50007384442803F0AD844F46302803F0F28499
:102A6000732803F00F862C2803F05F862B2803F0D1
:102A70009386582804F020816D2804F0478104F0E3
:102A80008EB9E148C678032E30D090F82C7000F54E
:102A9000E070DD4B40788033C01E40B20090B3F947
:102AA00076000190D848B3F9403000F5807C994613
:102AB00090F806804379BCF94CC0C07E002F7DD0D1
:102AC000012F7CD0DFF84083022F79D0022E00F056
:102AD0008387CEA70297BCF1000F00F0B987BEF143
:102AE000000F00F07387CFA700F0B1BFD3A0029012
:102AF000D8A00390DDA00490E2A002AD03460590AB
:102B000007CDFDF7E6FEE54DDAF834005646B5F997
:102B10005E10884203DA00222121E1A019E0B5F914
:102B200060201144814203DD00222121DDA010E05C
:102B3000B5F962201144814203DD00222121DAA08F
:102B400007E0B5F964201144814204DD002221210F
:102B5000D6A0FDF7EEFE05F16605002268882B2160
:102B600080B2FDF78DFD28880022402180B2FDF75C
:102B700087FDDFF894825F4608F180080022B8F9EB
:102B80005000232190FBF7F080B2FDF779FDB8F9F2
:102B90004E00002290FBF7F080B22421FDF770FD7B
:102BA000A8880022401C5E2180B2FDF769FD706B91
:102BB00090FBF7F13C2091FBF0F202E011E0D3E250
:102BC000FDE300FB121080B200227321FDF758FDD7
:102BD000706B4FF4167190FBF1F0002280B254211B
:102BE000EEE3012E0FD0B2A00290BCF1000F4AD04C
:102BF000BEF1000F01D0AEA044E0012B29D0002B84
:102C000041D1B1A03EE0B6A70297BCF1000F3AD087
:102C1000BEF1000F05D0B8F1010F06D0B8F1030FD7
:102C200003D0012B07D0D3B12DE0800701D5B2A08E
:102C300028E0ABA026E040B1012808D0022808D047
:102C4000032808D0042808D012E0B1A01AE0B6A0EA
:102C500018E0BBA016E0C0A014E0C5A012E050B17F
:102C600001280AD00228CCD0032808D0042808D094
:102C70000528C0D007E0C4A004E0C9A002E0CEA0AF
:102C800000E0D3A0029073A00390D7A0DFF8788172
:102C90000490012E06D1DAA00490B9F1000F01D002
:102CA000DDA0049071A00590E1A00690E6A0079039
:102CB000EBA00890F0A009907848C030032A01DD0D
:102CC000009901E0A94200DA01714F4F0199803764
:102CD0000F2906DDEEA3F4A2F9A1FFA0FDF7F9FD8F
:102CE0000CE090F9045004EB8500001D0EC854F868
:102CF0002500FDF7EEFD0020FDF787FD674DB5F8D7
:102D00004C0010B1B5F84E0020B900225E21F8A0A9
:102D1000FDF70FFEB5F942004FF47A76B04203DAC0
:102D200001222B2180B204E090FBFBF080B2002254
:102D30002B21FDF7A5FCB7F95000B04203DA0122C0
:102D4000232180B204E090FBFBF080B2002223211B
:102D5000FDF796FCB7F94E00B04203DA01222421B8
:102D600080B204E090FBFBF080B200222421FDF74A
:102D700087FCB5F91000B04209DA01227B2180B24C
:102D8000FDF77EFC288A0122402180B20EE05E46DB
:102D900090FBF6F080B200227B21FDF771FCB5F9C3
:102DA0001000002290FBF6F080B24021FDF768FC95
:102DB00098F803004646012803D0A88A002820D1AD
:102DC000B7E1B5F91800B5F9141086E3DAF82C006C
:102DD0003C2590FBF5F105FB1100574680B200221F
:102DE0007321FDF74DFCF86A002290FBF5F090FB93
:102DF000F5F105FB110080B25421FDF741FCF96AA1
:102E0000CFE224E30060010010C0072020C8F1F2E7
:102E1000EEF7EDE8EA20EDE0EFF02E205E20202036
:102E20000000000020C8F1F2EEF7EDE8EA20EDE046
:102E3000EFF02E205E3E3E3E00000000202020C825
:102E4000D1CFDBD2C0CDC8C520D4C0C7C02021207F
:102E5000000000002049F3202020202BC020556DC9
:102E600061782020202040420000000020492020DE
:102E700020202023C0205520202020202020244254
:102E80000000000020D6E8EAEB204E2020205E2043
:102E9000202030543A3073200000000010C1072079
:102EA0004100000042000000430000004400000018
:102EB00020C8F1F2EEF7EDE8EA20F2EEEAE0202099
:102EC0005E2020200000000020C8F1F2EEF7EDE8BF
:102ED000EA20F2EEEAE020205E3C3C3C00000000EC
:102EE00020C8F1F2EEF7EDE8EA20F2EEEAE0202069
:102EF000202020200000000020C8F1F2EEF7EDE8CD
:102F0000EA20F2EEEAE020205E203C3E00000000D5
:102F100020C8F1F2EEF7EDE8EA20F2EEEAE0202038
:102F20005E3E20200000000020C8F1F2EEF7EDE840
:102F3000EA20F2EEEAE020205E3E3E2000000000A3
:102F400020C8F1F2EEF7EDE8EA20F2EEEAE0202008
:102F50005E3E3E3E0000000020C8F1F2EEF7EDE8D4
:102F6000EA20F2EEEAE020205E203E3E0000000073
:102F700020C8F1F2EEF7EDE8EA20F2EEEAE02020D8
:102F80005E20203E0000000020C8F1F2EEF7EDE8E0
:102F9000EA20F2EEEAE020205E20203C0000000063
:102FA00020C8F1F2EEF7EDE8EA20F2EEEAE02020A8
:102FB0005E203C3C0000000020C8F1F2EEF7EDE896
:102FC000EA20F2EEEAE020205E3C3C200000000017
:102FD00020C8F1F2EEF7EDE8EA20F2EEEAE0202078
:102FE0005E3C20200000000020C4EBE8F22DF1F24E
:102FF000FC2E202030743A30543A30730000000028
:1030000020202020202030743A30543A3073202081
:1030100020202020000000002030743A30543A3044
:103020007320202020202071C02AF72000000000FB
:103030002055EC61782EE8F1F22EF2EEEAE0202045
:1030400020207BC20000000020C2FBF5EEE420201F
:1030500020202020202020202020202000000000F0
:1030600020D3F1F2E0EDEEE2EAE82020202020205B
:10307000202020200000000020C2FBEFF0FFECE841
:10308000F2E5EBE820202020202020200000000096
:1030900020E8EBE820EDE5F1EAEEEBFCEAEE20F4C7
:1030A000E0E72E20000000002020CEF2F1F3F2F144
:1030B000F2E2F3E5F220EEE4EDE020200000000073
:1030C000202020202020F1E5F2E8212121212020CC
:1030D00020202020000000002020C0E2E0F0E8FFD7
:1030E00020EFE8F2E0FEF9E5E920202000000000F2
:1030F00020000000DAF830003C2790FBF7F107FBD6
:103100001100554680B200227321FDF7B9FA286BF1
:10311000002290FBF7F090FBF7F107FB110080B263
:103120005421FDF7ADFA296B3BE100BFFDF701FC2F
:1031300073E1DAF820003C2590FBF5F105FB110066
:10314000564680B200227321FDF79AFA306A0022B7
:1031500090FBF5F090FBF5F105FB110080B25421D6
:10316000FDF78EFA316A4FE1022E11D0AFF26430D2
:103170000290BCF1000F4CD0BEF1000F02D0AFF2B4
:10318000743045E0012B29D0002B42D1D4A03FE080
:10319000D9A70297BCF1000F3BD0BEF1000F05D0BC
:1031A000B8F1010F06D0B8F1030F03D0012B07D0FF
:1031B000DBB12EE0800701D5D5A029E0CEA027E025
:1031C00040B1012808D0022808D0032809D00428DB
:1031D00009D013E0D4A01BE0D9A019E0AFF2BC30B5
:1031E00016E0DDA014E0E2A012E050B101280AD000
:1031F0000228CBD0032808D0042808D00528BED048
:1032000007E0E1A004E0E6A002E0EBA000E0F0A00F
:103210000290F5A00390AFF23020DFF8E483049031
:10322000022E08D1AFF228200490B9F1000F02D08D
:10323000AFF21C200490F3A00590F8A00690AFF226
:10324000F8100790AFF2E8100890AFF2D410099090
:10325000F848032A01DD009901E0A94200DA017172
:10326000E74F019980370F290ADDAFF2DC13AFF287
:10327000C812AFF2B411AFF2A010FDF72AFB0CE0B8
:1032800090F9045004EB8500001D0EC854F8250089
:10329000FDF71FFB0020FDF7B8FAE64DC03DB5F87D
:1032A0004C0010B1B5F84E0028B900225E21AFF2F3
:1032B000C010FDF73EFBB5F944004FF47A76B042FA
:1032C00003DA0122252180B204E090FBFBF080B2FA
:1032D00000222521FDF7D4F9B7F94E00B04203DAF8
:1032E0000122262180B204E090FBFBF080B2002294
:1032F0002621FDF7C5F9B7F95000B04203DA0122E3
:103300002A2180B204E090FBFBF080B200222A2147
:10331000FDF7B6F9B5F91200B04209DA01227D21B4
:1033200080B2FDF7ADF9688A01227D2180B20EE0FE
:103330005E4690FBF6F080B200227D21FDF7A0F9F9
:10334000B5F91200002290FBF6F080B27D21FDF766
:1033500097F998F803004646022803D0E88A002827
:1033600075D137E0B5F91800B5F91610E6E2DAF8CC
:103370002C003C2790FBF7F107FB1100554680B26B
:1033800000227321FDF77CF9E86A002290FBF7F038
:1033900090FBF7F107FB110080B25421FDF770F9A3
:1033A000E96A4FF4616091FBF0F080B20022742171
:1033B000FDF766F9B07D80B300223A2101E047E0D5
:1033C00030E0AFF2D420FDF7B4FA00223A21AFF298
:1033D000E020ABE6DAF824003C2690FBF6F106FB91
:1033E0001100554680B200227321FDF749F9686A41
:1033F000002290FBF6F090FBF6F106FB110080B284
:103400005421FDF73DF9696A4FF4616091FBF0F0DA
:1034100080B200227421FDF733F9DAF83800012276
:10342000712180B2FDF72CF97548C078012807D0CA
:10343000804A0021C03A0228A2F8461003F0AF8467
:103440007C490020C039A1F8480003F0A8BC7AE20A
:10345000012E10D0AFF2A8570297BCF1000F13D085
:10346000BEF1000F02D0AFF22857F0E0012BFAD0E6
:10347000AFF2AC57EBE0AFF298570297BCF1000FF8
:1034800002D0012B01D0CBB1E2E040B1012809D03C
:103490000228E8D0032808D0042809D017E0AFF2AA
:1034A0009057D4E0AFF28057D1E0AFF25457CEE05E
:1034B000AFF24457CBE0AFF20867C8E050B1012843
:1034C00009D00228D4D0032806D0042806D0052825
:1034D000F1D0BDE0B0E0B2E0B4E058E2B5E0000009
:1034E00020C8F1F2EEF7EDE8EA20EDE0EFF02E2053
:1034F0005E3C3C3C0000000020C8F1F2EEF7EDE835
:10350000EA20EDE0EFF02E20202020200000000037
:1035100020C8F1F2EEF7EDE8EA20EDE0EFF02E2022
:103520005E203C3E0000000020C8F1F2EEF7EDE81E
:10353000EA20EDE0EFF02E205E3E202000000000AB
:1035400020C8F1F2EEF7EDE8EA20EDE0EFF02E20F2
:103550005E3E3E200000000020C8F1F2EEF7EDE8EC
:10356000EA20EDE0EFF02E205E203E3E000000005D
:1035700020C8F1F2EEF7EDE8EA20EDE0EFF02E20C2
:103580005E20203E0000000020C8F1F2EEF7EDE8DA
:10359000EA20EDE0EFF02E205E20203C000000004D
:1035A00020C8F1F2EEF7EDE8EA20EDE0EFF02E2092
:1035B0005E203C3C0000000020C8F1F2EEF7EDE890
:1035C000EA20EDE0EFF02E205E3C3C200000000001
:1035D00020C8F1F2EEF7EDE8EA20EDE0EFF02E2062
:1035E0005E3C2020000000002055F32020202025F4
:1035F0004220496D6178202020207D41000000009C
:1036000010C00720205520202020202642204920BD
:103610002020202020202A41000000002049EC61C9
:10362000782EE8F1F22EEDE0EFF02E2020207D4103
:1036300000000000D0C10720AFF2B46707E0AFF28E
:10364000A06704E0AFF2906701E0AFF27C670297F9
:10365000AFF600070397AFF270670497012E08D109
:10366000AFF264670497B9F1000F02D0AFF2586768
:103670000497AFF608070597022E11D0AFF6740035
:103680000690BCF1000F34D0BEF1000F02D0AFF6AF
:103690006C0003E0012BFAD0AFF2BC10069028E0DA
:1036A000AFF2AC170697BCF1000F1FD0012B01D071
:1036B00043B31BE040B1012809D002280BD00328F6
:1036C0000CD004280DD00FE0AFF2A41001E0AFF24F
:1036D000901006900AE0AFF6B400FAE7AFF2881057
:1036E000F7E7AFF27410F4E7052823D098F8140038
:1036F00018B3AFF20C100790AFF214700890022EBE
:103700001DD025E050B101280BD002280CD0032891
:103710000DD00428E8D1AFF24810DAE7AFF29810E4
:10372000D7E7AFF28410D4E7AFF24C20D1E7AFF285
:103730007810CEE7AFF62C10CBE7FFA0AEE7AFF2E4
:1037400040700890B9F1000F02D0AFF234700890C9
:10375000FFA00990AFF228700A90AFF240100B90D2
:10376000AFF21C700C90AFF208700D90AFF2F860E1
:10377000DFF8F4830E90032A01DD009901E0A942ED
:1037800001DA88F804100198F84E0F280ADDAFF22C
:103790000073AFF2EC62AFF2D861AFF2C460FDF734
:1037A00098F80CE098F9045004EB8500001D0EC851
:1037B00054F82500FDF78DF80020FDF726F8EB4DB5
:1037C0008035B5F84C0010B1B5F84E0028B900228C
:1037D0005E21AFF2E460FDF7ACF8B5F942004FF4BA
:1037E0007A77B84203DA01222B2180B204E090FB01
:1037F000FBF080B200222B21FCF742FFB6F950000B
:10380000B94648450ADA0122232180B2FCF738FF85
:10381000B6F850000122232180B20EE05F4690FBF3
:10382000F7F080B200222321FCF72AFFB6F95000FE
:10383000002290FBF7F080B22321FCF721FFB5F9BD
:1038400044004F46B84203DA0122252180B204E049
:1038500090FBFBF080B200222521FCF711FFB6F9A6
:103860004E00B94648450ADA0122262180B2FCF70B
:1038700007FFB6F84E000122242180B20EE05F4619
:1038800090FBF7F080B200222621FCF7F9FEB6F992
:103890004E00002290FBF7F080B22421FCF7F0FEEE
:1038A000B5F912004E46B04209DA01227D2180B2FC
:1038B000FCF7E6FE688A01227D2180B20EE05F46B9
:1038C00090FBF7F080B200227D21FCF7D9FEB5F91C
:1038D0001200002290FBF7F080B27D21FCF7D0FEB1
:1038E000B5F91000B04209DA01227B2180B2FCF761
:1038F000C7FE288A0122402180B20EE05E4690FB7E
:10390000F6F080B200227B21FCF7BAFEB5F9100078
:10391000002290FBF6F080B24021FCF7B1FE98F94E
:10392000040002286FDD914E803EF07802282AD0F4
:1039300036E200BFB5F91800B5F9141008437FF45A
:1039400016ADFFF7D7BB6FF00202742188A040E5E7
:10395000DAF820003C2690FBF6F106FB11005546F4
:1039600080B200227321FCF78BFE286A002290FBB4
:10397000F6F090FBF6F106FB110080B25421FCF743
:103980007FFE296A40E5B5F91800B5F9161008431D
:10399000D7D0FFF71BBADAF824003C2590FBF5F1ED
:1039A00005FB1100564680B200227321FCF768FE29
:1039B000706A002290FBF5F090FBF5F105FB110019
:1039C00080B25421FCF75CFE716A1DE5012B3FF4C7
:1039D0008AA8AFF2F4473AE0AFF2E4470297BCF1AD
:1039E000000F35D0012B01D0D3B131E040B1012817
:1039F0000AD00228EBD0032809D004280AD018E006
:103A0000AFF2DC4723E0D0E1AFF2CC471FE0AFF2EA
:103A1000B8471CE0AFF2A84719E0AFF6104716E030
:103A200050B101280BD00228D3D003280AD0042893
:103A30000BD00528F1D00BE0AFF2B44707E0AFF2AE
:103A4000A04704E0AFF2904701E0AFF27C47029755
:103A5000AFF26C470397AFF670270497022E08D198
:103A6000AFF664270497B9F1000F02D0AFF65827DC
:103A7000049737A70597012E10D0AFF6CC300690EB
:103A8000BCF1000F45D0BEF1000F02D0AFF65030B0
:103A90003EE0012BFAD0AFF6D03039E0AFF6C037B8
:103AA0000697BCF1000F34D0012B01D0CBB130E030
:103AB00040B1012809D00228E8D0032808D0042802
:103AC00009D017E0AFF6B83022E0AFF6A4301FE01F
:103AD000AFF67C301CE0AFF6683019E0AFF630404E
:103AE00016E050B101280BD00228D4D003280AD008
:103AF00004280BD00528F1D00BE0AFF6743007E0B6
:103B0000AFF6643004E0AFF6503001E0AFF640307D
:103B10000690AFF6C0400790AFF634300890012E03
:103B200008D1AFF624300890B9F1000F02D0AFF6FB
:103B30001830089022E000002020202020202020A3
:103B400020202020202020202020202000000000F5
:103B500020552020202020264220492020202020DF
:103B60002020234100000000D0C1072090C0072082
:103B7000EDE5EFF0E5F0FBE2EDEE0000AFF61450FE
:103B80000990AFF654300A90AFF270500B90AFF638
:103B900048300C90AFF638300D90AFF62430DFF897
:103BA00010840E90032A01DD009901E0A94201DA98
:103BB00088F804100198FF4E0F280ADDAFF6303365
:103BC000AFF61C32AFF60831AFF6F420FCF781FEF9
:103BD0000CE098F9045004EB8500001D0EC854F861
:103BE0002500FCF776FE0020FCF70FFEF14D803536
:103BF000B5F84C0010B1B5F84E0028B900225E218E
:103C0000AFF61430FCF795FEB5F942004FF47A7721
:103C1000B84203DA01222B2180B204E090FBFBF0D2
:103C200080B200222B21FCF72BFDB6F95000B946DB
:103C300048450ADA0122232180B2FCF721FDB6F8BB
:103C400050000122232180B20EE05F4690FBF7F086
:103C500080B200222321FCF713FDB6F950000022A8
:103C600090FBF7F080B22321FCF70AFDB5F9440080
:103C70004F46B84203DA0122252180B204E090FBCE
:103C8000FBF080B200222521FCF7FAFCB6F95000C7
:103C9000B94648450ADA0122232180B2FCF7F0FC3C
:103CA000B6F850000122232180B20EE05F4690FB5F
:103CB000F7F080B200222321FCF7E2FCB6F95000B5
:103CC000002290FBF7F080B22321FCF7D9FCB6F973
:103CD0004E0048450ADA0122262180B2FCF7D0FCCA
:103CE000B6F84E000122242180B20EE05F4690FB20
:103CF000F7F080B200222621FCF7C2FCB6F94E0094
:103D0000002290FBF7F080B22421FCF7B9FCB5F952
:103D100010004E46B04209DA01227B2180B2FCF746
:103D2000AFFC288A0122402180B20EE05F4690FB62
:103D3000F7F080B200227B21FCF7A2FCB5F910005D
:103D4000002290FBF7F080B24021FCF799FCB5F916
:103D50001200B04209DA01227D2180B2FCF790FC0A
:103D6000688A01227D2180B20EE05E4690FBF6F06B
:103D700080B200227D21FCF783FCB5F912000022FD
:103D800090FBF6F080B27D21FCF77AFC98F90400F4
:103D900002280ADC874E803EF07802283FF4E2AA2F
:103DA000E88A00283FF4F7ADCDE5824E803EF078FA
:103DB00001283FF4BFADA88A00283FF4C9ADC2E591
:103DC0007C488038B8F1010F07D0A8F102080646F8
:103DD000414533DBAFF6905331E0AFF2A423AFF6A9
:103DE000985275A17AA0FCF774FD002301211A46B0
:103DF0000846FCF768FB7C4D01230622A86919469A
:103E000080B2FCF760FB286A012380B20B221946BE
:103E1000FCF759FB686A002380B20F220121FCF7EE
:103E200052FB95F83E0013220121FCF79FFC6049EC
:103E30000120423181F8280002F0B1BF5EA35EA2EA
:103E40005DA163A0FCF745FD99F901004FF0000367
:103E5000062800F1010080B20ADB01221146FCF7BE
:103E600032FB99F901000023801C80B2012209E095
:103E700000220121FCF727FB99F90100801C002397
:103E800080B21A460221FCF71EFB99F90100564D3B
:103E900000EB800005EB001001238069062280B250
:103EA0001946FCF710FB99F90100012300EB800093
:103EB00005EB00100622806E022180B2FCF703FBA6
:103EC00099F90100012300EB800005EB00100B22A3
:103ED000006A194680B2FCF7F6FA99F9010001234D
:103EE00000EB800005EB00100B22006F022180B276
:103EF000FCF7E9FA99F90100002300EB800005EBDB
:103F000000100F22406A012180B2FCF7DCFA99F917
:103F10000100002300EB800005EB00100F22406F32
:103F2000022180B2FCF7CFFA99F90200132200EBCC
:103F3000800005EB0010012190F83E00FCF716FC14
:103F400099F90200132200EB800005EB001002211A
:103F500090F88E00FCF70AFCB6F9541099F90100AC
:103F6000891E884262DA062800F1030080B24FF011
:103F7000000301DB012200E000220321FCF7A3FA89
:103F800099F90100012300EB800005EB00100622E7
:103F9000D0F8B800032180B2FCF795FA99F9010036
:103FA00000EB800005EB0010D0F8C00080B21DE0EF
:103FB000D0C1072090C0072020202020202E2020C4
:103FC00020202E2020202020202020200000000063
:103FD0004E202020552CC22020492C41202074B096
:103FE0004320202000000000B0EF072001230B2217
:103FF0000321FCF768FA99F90100002300EB800027
:1040000005EB00100F22D0F8C400032180B2FCF7AA
:104010005AFA99F90200132200EB800005EB001018
:10402000032190F8DE00FCF7A1FB05E7D24901204F
:1040300081F83C0000E7D14BD1A2D7A1DCA0FCF76E
:1040400048FCCD490120E04D81F83C00024628881B
:104050005B2180B2FCF714FB01225D2102F062BB00
:10406000DAA00290DFA00390E4480490D6E901238F
:1040700054F82510E2A0FCF72CFC0120FCF7C5FB4E
:10408000D14D002222352121A88800EB800080B28A
:10409000FCF7F6FA28880022232180B2FCF7F0FA18
:1040A0002888002200EB80002D3080B2402102F0F1
:1040B00074BEC54E3236BEF1000F01D0D6A000E06E
:1040C000DBA00290E0A00390E5A00490EAA0059098
:1040D000EFA00690F4A00790F9A00890FEA0099028
:1040E000C6480A90022A02DD89F8043003E0A9429A
:1040F00001DA89F8041099F9041004EB8100D0E981
:10410000012354F82110FAA0FCF7E3FB0120FCF78F
:104110007CFB36F9500F3C2590FBF5F105FB1100B7
:1041200080B200225B21FCF7ABFAB6F90000002256
:1041300090FBF5F090FBF5F105FB110080B27D21BD
:10414000FCF79EFAB6F900004FF4616790FBF7F0B8
:1041500080B200227B21FCF793FAB6F9020000221C
:1041600090FBF5F105FB110080B25D21FCF788FAA8
:10417000B6F90200002290FBF5F090FBF5F105FB8B
:10418000110080B22921FCF77BFAB6F90200002267
:1041900090FBF7F080B22821FCF772FAB6F9040020
:1041A000002290FBF5F105FB110080B23E21FCF7E7
:1041B00067FAB6F90400002290FBF5F090FBF5F1E8
:1041C00005FB110080B23C21FCF75AFAF08801226D
:1041D000212180B2FCF754FA30890122402180B2BB
:1041E000FCF74EFA70890122232180B2FCF748FACD
:1041F0000122B089242180B259E7C3A00290C8A04F
:104200000390CDA00490D2A00590D7A00690DCA08A
:104210000790E1A00890E6A00990EBA00A90F0A01A
:104220000B90F5A00C90FAA00D90FFA00E906648A0
:104230007249CE38B0F95A0004EB80004160AFF209
:1042400008718160AFF21071361DC1600ECE029808
:10425000FCF73FFB99F9010099F90410421A022A70
:1042600001DD801E01E0884201DA89F804000120A6
:10427000FCF7CBFAF24D2878012870D06FF00302DA
:104280002121F0A0FCF755FB6878012868D06FF079
:1042900003024021EBA000BFFCF74BFBA8780128EC
:1042A0005FD06FF003022321E6A000BFFCF741FBC3
:1042B000E878012856D06FF003022421E1A000BF66
:1042C000FCF737FB287901284DD06FF00302252138
:1042D000DCA000BFFCF72DFB6879012844D06FF00B
:1042E00003025E21D7A000BFFCF723FBA8790128B9
:1042F0003BD06FF003022621D2A000BFFCF719FBD0
:10430000E879012832D06FF003022A21CDA000BF46
:10431000FCF70FFB287A012829D06FF0030228212F
:10432000C8A000BFFCF705FB687A012820D06FF019
:1043300003022921C3A000BFFCF7FBFAA87A0128D9
:1043400017D06FF003022B21BEA000BFFCF7F1FADB
:10435000E87A01280ED06FF003023D210DE375E1EC
:1043600079E17DE181E185E189E18DE191E195E10D
:1043700099E19DE1A1E1000012C207201560010052
:104380002049EDE0E3F0203D20202020205DC020EA
:1043900020202020000000002055EDE0E3F0203D2B
:1043A00020202020205BC2202020202000000000B0
:1043B000202020202020CDC0C3D0D3C7CAC02020B9
:1043C0002020202000000000DEC007202046E2E57B
:1043D000EDF22EF2E5EAF3F92E202020202021250F
:1043E000000000002046E2E5EDF22E6D61782E20FF
:1043F000282020402529202300000000483000000C
:104400002020202020C2C5CDD2C8CBDFD2CED020E4
:10441000202020200000000020C2EAEBFEF7E5ED9E
:10442000202020202020202020202020000000000C
:1044300020C2FBEAEBFEF7E5ED2020202020202023
:1044400020202020000000002054EFF0FFEC2E2060
:1044500020202020307B3A307D3A305B0000000085
:1044600020D2EEE1F02E20202020202030283A30EB
:10447000293A305D0000000020D2EFE5F0E5EAEBDC
:104480002E202020202020303C3A303E000000002A
:104490002049F1F22EEFF02E202020202020202095
:1044A000202021C0000000002049F1F22EEEE1F0B2
:1044B0002E20202020202020202040C000000000AE
:1044C0002055F1F22EEFF02E202020202020202059
:1044D00020202342000000002055F1F22EEEE1F0F2
:1044E0002E20202020202020202024420000000018
:1044F0002020202020C0C2D2CED0C5C2C5D0D1201D
:1045000020202020000000002020C0C2D2CECCC03D
:10451000D2DB20CDC0C3D0D3C7CECA20000000005C
:1045200020C0E2F2EEECE0F220B931202020202081
:10453000202021200000000020C0E2F2EEECE0F29A
:1045400020B9322020202020202040200000000020
:1045500020C0E2F2EEECE0F220B93320202020204F
:10456000202023200000000020C0E2F2EEECE0F268
:1045700020B934202020202020202420000000000A
:1045800020C0E2F2EEECE0F220B93520202020201D
:10459000202025200000000020C0E2F2EEECE0F236
:1045A00020B936202020202020205E20000000009E
:1045B00020C0E2F2EEECE0F220B9372020202020EB
:1045C000202026200000000020C0E2F2EEECE0F205
:1045D00020B938202020202020202A2000000000A0
:1045E00020C0E2F2EEECE0F220B9392020202020B9
:1045F000202028200000000020C0E2F2EEECE0F2D3
:1046000020B9313020202020202029200000000067
:1046100020C0E2F2EEECE0F220B93131202020207F
:1046200020202B200000000020C0E2F2EEECE0F29F
:1046300020B931322020202020203D200000000021
:10464000CEFD0720C2DBCACB2E0000006FF00202B5
:104650002121CAA016E66FF002024021C7A01BE686
:104660006FF002022321C5A020E66FF00202242190
:10467000C2A025E66FF002022521C0A02AE66FF055
:1046800002025E21BDA02FE66FF002022621BBA030
:1046900034E66FF002022A21B8A039E66FF0020278
:1046A0002821B6A03EE66FF002022921B3A043E61E
:1046B0006FF002022B21B1A048E66FF002023D210B
:1046C000AEA001F01CBEAFA00290B4A00390B9A0B0
:1046D0000490BEA00590C3A00690C8480790AFF60E
:1046E000A8300890AFF6B030361D09900ECE029873
:1046F000FCF7EFF899F9010099F90410421A022A1F
:1047000001DD801E01E0884201DA89F80400012001
:10471000FCF77BF8BA4D002223212888FBF7B0FF75
:1047200005F1E200002240882421FBF7A9FF0222C4
:104730002521DAF81C00FBF725FE00225E21A8885F
:1047400059E590A00290AFA00390B4A00490B9A046
:104750000590BEA00690C3A00790C8A008909BA09B
:104760000990A0A00A90A5480B90AFF634400C9099
:10477000AFF63C40361D0D900ECE0298FCF7A9F81E
:1047800099F9010099F90410421A022A01DD801EEC
:1047900001E0884201DA89F804000120FCF735F8CD
:1047A000974D0022E83521212888FBF769FF6888AA
:1047B00000224021FBF764FFA88800222321FBF799
:1047C0005FFFAD1D002228882621FBF759FF68886E
:1047D00000222921FBF754FFA88800222821FBF79B
:1047E0004FFF03222521DAF81C00FBF7CBFDA5F5CE
:1047F000AE7000225E21B0F87200FCE4804B923B68
:10480000D85D552812D0A3A00290A8A00390ADA017
:104810000490B2A00590B7A00690BCA00790C14834
:104820000890012A04DD89F804C005E0BEA0EBE78A
:10483000A94201DA89F8041099F9040004EB800117
:1048400054F820204B68BEA1C3A0FCF742F8022018
:10485000FBF7DBFF99F902000022401C80B25E21C9
:10486000FBF70EFF664999F902009231002231F8F8
:1048700010002121FBF704FF614999F902009631EC
:10488000002231F91010A748493800EB810040217F
:10489000FCF74FF85A4999F902009A31002231F891
:1048A00010002321FBF7ECFE554999F902009E31D7
:1048B000002231F810002421FBF7E2FE504999F95B
:1048C0000200A231002231F81000252194E4954B1A
:1048D000A7A0153B1A461146FBF7FBFF484D0023E6
:1048E0007E35082295F90000012180B2FBF7EBFD2F
:1048F00095F90100002380B209220121FBF7E3FDB5
:1049000095F90200002380B20A220121FBF7DBFDAA
:1049100096F9012005F1C600A421115402F03FBA16
:1049200099A002909EA00390A3A00490A8A0059037
:10493000ADA00690A6A00790B1A00890B6A00990DF
:10494000BBA00A90C0A00B90C5A00C90CAA00D906F
:10495000CFA00E90D4A00F90D9A01090DEA01190FF
:10496000E3A01290E8A01390EDA01490F2A015908F
:10497000F7A01690FCA0179002E2ACE2C2CACB2EC0
:10498000000000002020DDCBC5CAD2D0CED1CDC0E2
:10499000C1C6C5CDC8C520200000000020C2E2EE7F
:1049A000E42020202020202023C22020202020209E
:1049B0000000000020CFDDD120202020202020205A
:1049C00024C2202020202020000000002050F1F3ED
:1049D000ECEC2E2020202020202025EAC2F22AF70D
:1049E000000000002050F2E5EAF3F92E20202020FC
:1049F00020205EC2F220202000000000483000008D
:104A0000FEC0072020C2E2EEE420F42E4120202048
:104A10002021C220202020200000000020C2E2EE41
:104A2000E420F42E422020202040C22020202020FC
:104A30000000000020C2E2EEE420F42E43202020FB
:104A40002023C220202020200000000020CFDDD124
:104A50002020F42E412020202026C22020202020AB
:104A60000000000020CFDDD12020F42E42202020A5
:104A70002029C220202020200000000020CFDDD1EE
:104A80002020F42E432020202028C2202020202077
:104A90000000000020C2FBE2E5E4E5EDE02030216B
:104AA0002F4020202F3023200000000020CDEEECEE
:104AB000E8ED2EE5ECEA2E202020202024412AF7E4
:104AC0000000000020CDE0F0E0E1EEF2EAE020207E
:104AD0002020202025F72E200000000020CAEEED27
:104AE000F2F0EEEBFC20E5ECEAEEF1F2E82020201B
:104AF0000000000020C2FBF0E0E2EDE8E2E0FEF999
:104B0000E8E920E7E0F0FFE40000000020D0E0E763
:104B1000F0FFE4FB20202020202020202020202047
:104B2000000000001560010020C2E2E5E4E5EDE0D0
:104B3000202030212F4020202F3023200000000093
:104B40002020202020C1C0D2C0D0C5DF204E5E2052
:104B5000202020200000000020C1C0D2C0D0C5C944
:104B6000CDDBC920C6D3D0CDC0CB202000000000B3
:104B70002020C2E2E5E4E8F2E52020EFE0F0EEEBF1
:104B8000FC2020200000000020C8F1F2EEF7EDE844
:104B9000EAEEE2202020202020202021000000003A
:104BA00020CCE0EAF1E8ECE0EBFCEDE0FF20E4EB08
:104BB000E8F22D200000000020F1F2FC20EFF0EEE2
:104BC000F6E5F1F1E02020305B3A305D00000000B6
:104BD00020CEF2EEE1F0E0E6E5EDE8E520E2F0E5FA
:104BE000ECE5EDE80000000020EFF0EEF6E5F1F175
:104BF000E020202020202020202020400000000055
:104C000020EDE020EFF3EBFCF2E520202020202037
:104C1000202020230000000020C8E7ECE5F0E5EDAF
:104C2000E8E520F2EEEAE02020202020000000004D
:104C300020EDE0E3F0F3E7EAE82020202020202028
:104C4000202020240000000020D0E5E6E8EC20E34E
:104C5000EBE0E2EDEEE3EE20ECE5EDFE000000001F
:104C60002020202020202020202020202020202044
:104C7000202020250000000020D4E8EAF1E8F0EE32
:104C8000E2E0EDEDFBE520202020202000000000E8
:104C90002020202020202020202020EDE0F1F2F014
:104CA000EEE9EAE80000000020D0E5EBE520202056
:104CB0002020202020202020202020200000000074
:104CC00020F2EEEAEEEEE3F0E0EDE8F7E5EDE8FFE6
:104CD000202020200000000020D0E5EBE520EAEEB7
:104CE000EDF2F0EEEBFF202020202020000000005D
:104CF00020EDE0EFF0FFE6E5EDE8FF2020202020AA
:104D0000202020200000000020D0E5F1F2E0F0F2A9
:104D100020202020202020202020205E00000000D5
:104D20002045746865726E65742020202020202044
:104D30002020202000000000204D4F4442555320E9
:104D400041445245535320202020203C00000000C5
:104D5000204D4F4442555320424155445241544501
:104D600020202020000000002020202020202020C3
:104D7000202020202020202020203E300000000085
:104D8000B8A01890BDA01990C2A01A90C7A01B90FF
:104D9000CCA01C90D1A01D90D6A01E90DBA01F908F
:104DA000D4A02090DFA02190E4482290E4A023909A
:104DB000E9A02490EE4825902690022A01DD337167
:104DC00002E0A94200DA317199F9040004EB800194
:104DD000D1E9012354F82010E6A0FBF77AFD012069
:104DE000FBF713FDE94D00222121B5F8540080B2F4
:104DF000FBF746FCDAF828103C2091FBF0F191FB20
:104E0000F0F200FB1210564680B200225D21FBF743
:104E100037FCB16A4FF4616091FBF0F080B2002280
:104E20005B21FBF72DFC05F580766FF00607308BD4
:104E300018B1BA1C4021D6A002E03A464021D6A0C3
:104E4000FBF777FD708B6FF003024FF0230108B181
:104E5000D4A000E0D5A0FBF76CFD308C20B16FF042
:104E600002022421D3A002E03A462421D3A0FBF77A
:104E700060FD95F82C0090B3012836D06FF0100239
:104E800002284FF0250135D0CFA000BFFBF751FD20
:104E900095F82D0001282FD06FF003025E21AFF6A8
:104EA0005C0000BFFBF745FDB84D002280353C217A
:104EB000E88E80B2FBF7E4FB288F00223E2180B20F
:104EC000FBF7DEFBB5F93A004FF000024FF0280186
:104ED00000287FF435ACAFF6940001F010BAFFE77C
:104EE0006FF00B022521BDA0D0E76FF01102252144
:104EF000BEA0CBE7C2A0C9E76FF002025E21AFF20D
:104F00008450CFE7A14D687A401CC0B268720F2868
:104F100007D30020761CF1B26872A976032900D36A
:104F2000A876BC48CDE9020AA87E20B1012804D0A9
:104F3000022818D003E0B8A000E0BDA004905246BB
:104F4000C1A0049B0299FBF7C4FC99F9010060B170
:104F500001280ED0022810D0032812D0042814D023
:104F6000052816D018E0BEA0E8E7C34880F82A70EC
:104F700012E0C14880F82D700EE0BF4880F8307014
:104F80000AE0BD4880F8337006E0BB4880F8367010
:104F900002E0B94880F83A70B84E30784FF000021D
:104FA0004FF02601FBF76CFB307900225E21FBF706
:104FB00067FB307A00222521FBF762FB307B002261
:104FC0003C21FBF75DFB317E924800225E3800EB0E
:104FD00081003E21FBF7ADFCB08B00227B21FBF76B
:104FE0004FFBA87D002801F0DA863A20FBF791F903
:104FF000A14D20262E543A20FBF78BF92E548DE438
:1050000084485E38D0E91D12C06F2A91CDE92B206B
:105010009BA00290A0A00390A5A00490AAA0059038
:10502000AFA00690B4A00790B9A00890BEA00990C8
:10503000C3A00A90C8A00B90CDA00C90D2A00D9058
:10504000D7A00E90DCA00F90E1A01090E6A01190E8
:10505000EBA01290F0A01390F5A01490FAA0159078
:10506000FFA009E220C0E2F2EEF0E5E2E5F0F12077
:1050700020202020202020200000000020CFEBE076
:10508000E2EDEEE520EDE0F0E0F1F2E0EDE8E52024
:105090000000000020F2EEEAE02020202020202066
:1050A00020202028F1E5EA2E0000000020D3EFF0B8
:1050B000E0E2EBE5EDE8E520F1F3F5E8EC20202077
:1050C0000000000020EAEEEDF2E0EAF2EEEC202033
:1050D00020202020202020200000000020CDE0F112
:1050E000F2F0EEE9EAE020F0E5EBE52020202020D8
:1050F0000000000020C2FBEAEBFEF7E5EDE8E5204A
:10510000EFEE2020202020200000000020F1F7E515
:10511000F2F7E8EAF320E0ECEFE5F0F7E0F1EEE299
:105120000000000020F1EDE8E6E5EDE8FE20F2EEFB
:10513000EAE020202020202000000000483000006D
:1051400020CAE0EBE8E1F0EEE2EAE02020202020B7
:10515000202020200000000020D2E5F1F220D8C855
:10516000CC20202020202020202020200000000013
:10517000383B00002020202020D3D1D2C0CDCEC289
:10518000CAC82020202020200000000010C00720D6
:10519000EFF0FFECEEE50000EEE1F0E0F2EDEEE521
:1051A00000000000F7F73AECEC000000ECEC3AF1FC
:1051B000F1000000F8F3EDF200000000F1F3ECEC78
:1051C00049E1EFF100000000E8F1F22EEDE0EFF030
:1051D0002E2DE8F1F22EF2EEEAE00000E8F1F2EE18
:1051E000F7EDE8EA20F2EEEAE0000000E8F1F2EE86
:1051F000F7EDE8EA20EDE0EFF0FFE6E5EDE8FF008F
:10520000E8F1F22EF2EEEAE02DE8F1F22EEDE0EF19
:10521000F02E00002A60010020202020203C3E20AB
:105220002D20E2FBE1EEF0202020202000000000F5
:105230002020205E76202D20F3F1F2E0EDEEE2EA70
:10524000E02020200000000020D3D1D2C0CDCEC26B
:10525000CAC02020C2D0C5CCC5CDC82000000000E7
:105260002020202020A420202D20E2FBF5EEE420A9
:10527000202020200000000012C207202040024011
:105280002045746865726E657420202020202020DF
:1052900020202120000000002044484350EAEBE891
:1052A000E5EDF220202020202020402000000000FA
:1052B000204950E0E4F0E5F12020202020202020AB
:1052C000202020200000000020203030302E303000
:1052D000302E3030302E30302320202000000000CF
:1052E00020CCE0F1EAE020EFEEE4F1E5F2E8202066
:1052F000202020200000000020203030302E3030D0
:10530000302E3030302E303024202020000000009D
:1053100020D8EBFEE7202020202020202020202065
:10532000202020200000000020203030302E30309F
:10533000302E3030302E3030292020200000000068
:1053400020CFEEF0F22EF7F2E5EDE8FF202020204E
:105350002020205B0000000020CFEEF0F22EE7E0DE
:10536000EFE8F1E8202020202020205D0000000050
:1053700020436F6D6D756E697479203C202020206C
:10538000202020200000000020C0E4F0E5F1E0F241
:1053900020E4EBFF2054524150204E310000000029
:1053A00020203030302E3030302E3030302E303023
:1053B000252020200000000020C0E4F0E5F1E0F20C
:1053C00020E4EBFF2054524150204E3200000000F8
:1053D00020203030302E3030302E3030302E3030F3
:1053E0005E2020200000000020C0E4F0E5F1E0F2A3
:1053F00020E4EBFF2054524150204E3300000000C7
:1054000020203030302E3030302E3030302E3030C2
:10541000262020200000000020C0E4F0E5F1E0F2AA
:1054200020E4EBFF2054524150204E340000000095
:1054300020203030302E3030302E3030302E303092
:105440002A2020200000000020C0E4F0E5F1E0F276
:1054500020E4EBFF2054524150204E350000000064
:1054600020203030302E3030302E3030302E303062
:1054700028202020000000001690FC4DFA481790CC
:10548000B5F86E0040F6180818B1404608F0ACFFB9
:1054900028B1F548039000F52F600490059099F924
:1054A000010099F904104E46884201DA307104E097
:1054B000411A022901DD801EF8E796F9040004EB89
:1054C0008001D1E9012354F82010E9A0FBF701FA8B
:1054D0000120FBF79AF9B5F86E0050B1404608F08C
:1054E00083FF012805D06FF002022121AFF674304E
:1054F00004E06FF003022121AFF6B860FBF719FA60
:10550000B5F8700028B16FF002024021AFF6943078
:1055100004E06FF003024021AFF6D860FBF709FA10
:105520007178232002294AD05FF00001CDE9000103
:10553000B5F97830B5F97620B5F97410B5F972007F
:10554000FBF705F87178242004293CD05FF00001B6
:10555000CDE90001C548B5F97E208030B5F97C1051
:10556000B0F90030B5F97A00FAF7F1FF7178292027
:1055700006292CD05FF00001CDE90001BB48803046
:10558000B0F93430B0F93220B0F93010B0F92E0053
:10559000FAF7DDFFB54D002280355B21688D80B2C2
:1055A000FBF76EF8A88D00225D2180B2FBF768F84A
:1055B000B5F902006FF00D08FF280CD014E0B178A7
:1055C000491CC9B2B2E7B178491CC9B2C0E7B17889
:1055D000491CC9B2D0E7A988FF2905D1E988FF296C
:1055E00002D12989FF2914D0727825210B2A16D0DF
:1055F0005FF00002CDE90012B5F90830B5F90620D8
:10560000B5F90410FAF7A3FFB5F90A00FF280AD08C
:1056100012E0424625219CA0FBF78BF9F4E7B27813
:10562000521CD2B2E6E7A989FF2905D1E989FF29F1
:1056300002D1298AFF2912D071780D2915D00021B5
:10564000CDE90071B5F91030B5F90E20B5F90C109F
:10565000FAF77DFFB5F91200FF280AD012E04246A2
:105660005E2189A0FBF765F9F4E7B178491CC9B25E
:10567000E6E7A98AFF2905D1E98AFF2902D1298B0A
:10568000FF2914D0727826210F2A16D05FF000026D
:10569000CDE90012B5F91830B5F91620B5F9141096
:1056A000FAF755FFB5F91A00FF280AD012E0424672
:1056B000262175A0FBF73DF9F4E7B278521CD2B26F
:1056C000E6E7A98BFF2905D1E98BFF2902D1298CB7
:1056D000FF2914D072782A21112A16D05FF0000217
:1056E000CDE90012B5F92030B5F91E20B5F91C102E
:1056F000FAF72DFFB5F92200FF280AD012E0424642
:105700002A2161A0FBF715F9F4E7B278521CD2B256
:10571000E6E7A98CFF2905D1E98CFF2902D1298D63
:10572000FF2925D072782821132A27D05FF00002A4
:10573000CDE90012B5F92830B5F92620B5F92410C5
:10574000FAF705FF554900202AAA0B5C1354401CA8
:10575000C0B20928F9D300208DF8B1007078B27872
:105760000A280FD000233C212AA8FAF7D3FE46E4EA
:105770004246282144A0FBF7DCF8E3E7B278521C4C
:10578000D2B2D5E70123EEE7384E8036B08F01283C
:105790000ED043A0029048A003903348049000F537
:1057A0002F60059006904846A94203DA017105E092
:1057B00047A0EFE7012A01DD80F804C099F9040051
:1057C00004EB800154F820204B6847A14CA0FBF764
:1057D00080F80220FBF719F8F08F012804D06FF051
:1057E000040221214CA05DE26FF0020221214DA0B4
:1057F000F9E74EA0029053A0039058A004901A48D5
:10580000059000F52F6006900790A94201DA3971E2
:1058100002E0022A00DD3B7199F9040004EB8001EB
:10582000D1E9012354F8201052A0FBF752F80120CF
:10583000FAF7EBFF0D4D0122CE355B21288880B2AF
:10584000FAF71EFF688801225D2180B2FAF718FF7F
:10585000E88A0022282180B2FAF712FF00222921CB
:10586000288BFEF7C8BC00004830000010C007209D
:1058700020D3D1D2C0CDCEC2CAC8204574686572CB
:105880006E6574200000000020202020EDE5E0EA95
:10589000F2E8E2E5ED2020202000000006000010E4
:1058A00020CDE5E0EAF2E8E2EDEE20202020202005
:1058B000202020200000000020C2EAEBFEF7E5EDEA
:1058C000E8E52020202020202021202000000000CA
:1058D00020C0EAF2E8E2EDEE202020202020202067
:1058E000202020200000000020D1D3D5C8CC20CA21
:1058F000CECDD2C0CAD2CECC20D1CA310000000059
:105900002020202020D3CFD0C0C2CBC5CDC8C520F9
:105910002020202000000000D0C0C7CECCCACD2E51
:1059200000000000C7C0CCCACD2E000020553D208D
:105930002020205BC22020493D202020205DC02067
:105940000000000020D8C8CC20EDE0EFF0FFE62EEC
:105950003D202020202028200000000020D8C8CC96
:1059600020F2EEEAE03D20202020202020202920E7
:1059700000000000202020202020D2C5D1D220D835
:10598000C8CC20202020202000000000D1A00290C0
:10599000D6A00390DBA00490E0A00590E5A00690BF
:1059A000EA48079000F52F6008900990A94201DAB3
:1059B000397103E0012A01DD87F804C099F9040078
:1059C00004EB800154F820204B68E1A1AFF65C00A5
:1059D000FAF77FFF0220FAF718FFE34D688C0128E1
:1059E0001CD06FF004022121E0A000BFFAF7A1FF54
:1059F000E88C0022402180B2FAF742FE288D002276
:105A0000232180B2FAF73CFEE88D00223C2180B2CF
:105A1000FAF736FE00223E21288E22E76FF00302BD
:105A20002121D4A0E2E7ABA00290B0A00390B5A0E2
:105A30000490D2A00590D7A00690C448079000F526
:105A40002F6008900990A94201DA397103E0012A18
:105A500001DD87F804C099F9040004EB800154F8D3
:105A600020204B68D1A1D7A0FAF733FF0220FAF724
:105A7000CCFEBD4DA88C01281CD06FF00402212162
:105A8000BAA000BFFAF755FF688D0022402180B20E
:105A9000FAF7F6FDA88D0022232180B2FAF7F0FD77
:105AA000688E00223C2180B2FAF7EAFD00223E21F6
:105AB000A88ED6E66FF003022121AEA0E2E7A34B49
:105AC000C6A2CCA1D1A0FAE3D6A00290DBA003909D
:105AD000E0A00490E5A00590EAA00690EFA0079052
