:020000040000FA
:1000000058280820E1000000E5000000E70000009B
:10001000E9000000EB000000ED000000000000001F
:10002000000000000000000000000000EF000000E1
:10003000F100000000000000F300000019C2000001
:10004000F7000000A9DD0000D5DD0000F70000008A
:10005000F7000000DBFB0000F7000000F7000000E5
:10006000F7000000F7000000F7000000F7000000B4
:10007000F7000000F7000000F7000000F7000000A4
:10008000F7000000F7000000F7000000F700000094
:10009000F7000000F700000099260000F7000000BC
:1000A000F7000000AFF90000F7000000F7000000C3
:1000B0009D190100F7000000F7000000F7000000A4
:1000C000F7000000F7000000F7000000DFF80CD098
:1000D00011F02CFD0048004787C300005828082075
:1000E00005480047FEE7FEE7FEE7FEE7FEE7FEE71E
:1000F000FEE7FEE7FEE7FEE7CD000000FEE710B5F5
:1001000013F0C4FB13F050FC13F042FC13F0D0FBCF
:10011000AFF30080BDE8104013F00CBC10B514F034
:100120001DFA14F05FFF14F071FABDE8104014F0EE
:10013000E9BB14F031B913F0F9BE09B100207047E2
:1001400012F04EBC0020704770B5374A0020A2F173
:100150001401064601F10A030C5C54B11D5CAC426B
:1001600007D1145C2CB1641E14F0FF04145400D1A8
:100170000E540C5C1C54401CC0B20A28ECD370BD59
:1001800070B5294D0024143D641CE4B22E5D1EB1EF
:10019000864201D00A2CF7D3285523480C3040F86A
:1001A0002410283040F824203438035570BD1E4AEE
:1001B0000021143A491CC9B2535C834201D00A2978
:1001C000F8D3DBB2834210D117480C3050F82130FD
:1001D00016480360144B343353F821304360002039
:1001E0005054114A505401207047002070470E4A65
:1001F0000021143A491CC9B2535C834201D00A2938
:10020000F8D3DAB282420CD107480C3050F82120E2
:1002100006480260044A343252F82110416001203D
:100220007047002070470000B864001054000010B0
:100230000A4BDA6018705970704708490881704796
:100240000648B0F90810002907D0491E09B20181FB
:10025000002902D1084600F061BB704710C007209A
:1002600090F900308B4200DA027090F9003093422E
:1002700000DD0170704790F900308B4200DA0170A8
:1002800090F90010914200DD02707047B0F9003023
:100290008B4200DA0180B0F90010914200DD02804B
:1002A0007047B0F900308B4200DA0280B0F90030BC
:1002B000934200DD0180704703688B4201DB1946E1
:1002C00000E00160914200DD0260704701460020BD
:1002D00000E0401C0A5C002AFBD1704710B50022E8
:1002E00000E0521C835C8C5CA34201D1002BF8D14E
:1002F000D8B2E1B2401A10BD70477047FFFFFFFF50
:100300000020FB4A20211154401CC0B2C828FAD357
:1003100070470146F64A0020401CC0B2135C8B4275
:1003200001D0C828F8D3704710B50021F14C0A223B
:10033000B0FBF2F302FB13006054491CC9B218462B
:100340000529F5D310BDF0B5EB4B0121202719701D
:100350000521E84A002601E01C7844B1541814F83D
:10036000015C25B9814202D904F8017C05E05418EA
:1003700014F8015D303525701E70491E11F0FF0123
:10038000EAD1F0BDFEB52B23002802DA404200B2CC
:100390002D2300250A266C4690FBF6F706FB170076
:1003A00060556D1C6DB238B20A2DF5DB01260025B3
:1003B0000920202700E046B114F800C0BCF1000F6E
:1003C00003D1904201DD275405E0265C30362654E7
:1003D00000266D1CEDB2401E40B20028EBDA2D2B3A
:1003E00002D163556D1CEDB26AB168B205E0231805
:1003F00013F8013C2354401E40B29042F7DC2E20FB
:100400006D1CA054EDB20846FFF783FF0021B84AE7
:1004100004E0635C461A491C935549B2A942F8DBD3
:10042000FEBDFEB52B23002801DA40422D23002516
:100430000A266C46074690FBF6F006FB10776755D8
:100440006D1C6DB20A2DF5DB012600250920202741
:1004500000E046B114F800C0BCF1000F03D1904297
:1004600001DD275405E0265C3036265400266D1C3D
:10047000EDB2401E40B20028EBDA2D2B02D16355BD
:100480006D1CEDB26AB168B205E0231813F8013CA7
:100490002354401E40B29042F7DC2E206D1CA05425
:1004A000EDB20846FFF735FF0021914A04E0635C96
:1004B000461A491C935549B2A942F8DBFEBDFEB568
:1004C0002B26002801DA40422D2600240A276D46FB
:1004D000844690FBF7F007FB10CC05F804C0641CC1
:1004E00064B20A2CF4DB0127002009244FF0200C11
:1004F00000E04FB115F804E0BEF1000F04D19C42BA
:1005000002DD05F804C005E02F5D30372F550027C8
:10051000401CC0B2641E64B2002CEADA2D2E02D157
:100520002E54401CC0B26BB144B205E02E1916F82F
:10053000016C2E55641E64B29C42F7DC2E24401CD4
:10054000EC54C0B201EB810102EB8101CAB200217F
:10055000674B04E06C5C561A491C9C5549B28142B9
:10056000F8DBFEBD70B50D4616461C46FFF7DCFEF7
:10057000601CC0B2FFF7E7FE05EB850006EB8000CC
:10058000C1B25C4A5A4B0020A04201D2155C5D54B6
:1005900006D3155C202D03D04CB15E1806F8015C23
:1005A000491E401CC0B2C9B20528EDD370BD5D54D0
:1005B000F6E770B50446084615461E46FFF7A9FE45
:1005C0004B4B0146FF2804D106E01A54641C401C22
:1005D000C0B22278002AF8D148480078002804D018
:1005E000002E02D029445F20585470BD2DE9FF4FE2
:1005F0008146DDE90D048A469346FFF78AFE2022F4
:10060000DFF8F8803A490A234FF0640C012C09D135
:1006100098F8005035B10D18A5F10E05AA706A7052
:100620002A7020E099FBF3F603FB16970D1830377C
:10063000A5F10E05022CAF7096FBF3F703FB1766CE
:1006400006F130066E7099FBFCF606F1300605F8EF
:100650000E6B08D198F800602EB1A5F10A05AA70BA
:100660006A702A7021E09AFBF3F603FB16A70D18B7
:100670003037A5F10A05032CAF7096FBF3F703FBA7
:10068000176606F130066E709AFBFCF606F130062E
:10069000674605F80A6B08D198F800602EB1A5F1FD
:1006A0000605AA706A702A702AE09BFBF3F603FB2A
:1006B00016B70D183037A5F10605042CAF7096FB60
:1006C000F3F703FB176606F130066E709BFBFCF632
:1006D00006F13006674605F8066B11D198F8004020
:1006E00074B1A5F102050A546A702A70BDE8FF8F43
:1006F0007A0200107EC00720F00300108E00001068
:10070000039C94FBF3F203FB124430340C5492FB31
:10071000F3F403FB14220844A0F1020030324270CB
:10072000039991FBF7F101F130010170DEE770B53B
:100730000D461446FFF7F8FD601CC0B2FFF703FE3C
:100740002846FFF7E6FDB44BB44A002124B95D5CAE
:10075000202D01D015540FE0A14201D25D5CF9E7D4
:1007600004D14FF02E0515545D5C02E05D5C202D38
:1007700002D0161806F8015C401E491CC9B2C0B26E
:100780000529E3D370BD17B501EB810002EB8000B2
:10079000C2B29DF80030A24803F00F0100EB131322
:1007A000445C9E498C54521ED2B21B788B549DF8E7
:1007B0000130521E03F00F04D2B2045D8C54521E5D
:1007C00000EB1313D2B21B788B549DF80230521EEB
:1007D00003F00F04D2B2045D8C54521E00EB1313CD
:1007E000D2B21B788B549DF80330521E03F00F04D5
:1007F000D2B2045D8C54521E00EB1310D2B20078BA
:1008000088541EBD01EB810102EB8101844A10B5C1
:1008100000F00F03C9B2D45C804B02EB10105C54A3
:10082000491EC9B20078585410BD01EB810102EB9A
:100830008101CBB27A4910B500F001028C5C774A95
:10084000D45444085B1E04F00100DBB2085CD054B1
:100850005B1ED8B2630803F001045B080C5D1454FE
:10086000401E03F00104C0B20C5D14545B08401E2E
:1008700003F00104C0B20C5D14545B08401E03F089
:100880000104C0B20C5D14545B08401E03F0010467
:10089000C0B20C5D1454401EC4B25808085C105518
:1008A00010BD30B55F4901235C4D91F9012091F9EC
:1008B000041000EB80048A4202D105F8243030BDD8
:1008C000564D4C1C00EB800005EB8000A24201D18C
:1008D000037530BD8C1CA24202D180F8283030BD97
:1008E000CC1CA24202D180F83C3030BD0C1DA2428B
:1008F00002D180F8503030BD4C1DA24202D180F8A8
:10090000643030BD8C1DA24202D180F8783030BDF9
:10091000C91D8A42FBD180F88C3030BD424B1A8809
:10092000521E104400B21880404A00EB800002447E
:100930003C48136803601279027142781144417097
:100940007047F0B5384D394FB5F9004004EB8406D7
:10095000641C2C80334C3E44256835602579357104
:10096000207061702271A370F0BDF0B505460E468F
:100970001746FFF7C5FC294C5FF00000401C15F836
:10098000011BC0B204F8011B1428F7D35FF000006C
:10099000401C16F8011BC0B204F8011B1428F7D341
:1009A0005FF00000401C17F8011BC0B204F8011BE7
:1009B0001428F7D35FF00000401C13F8011BC0B2ED
:1009C00004F8011B1428F7D3F0BD30B504460846DF
:1009D0001546FFF79EFCFF2809D0104A2178002910
:1009E00005D04319641C401CD154C0B2F6E730BD99
:1009F00010B5029CFFF7B9FF0A48C37882784178A6
:100A00006520FFF79EFF642094FBF0F0BDE81040E6
:100A1000C0B2FFF712BC00007EC007207A020010AF
:100A2000465F010038020010AC00001062EC0720A5
:100A300010B5FD4C082200212088401C2080204653
:100A4000FFF72FFCF948B4F9001000EB4101428890
:100A50000A84B0F84E00A1F86C0010BDF44A30B41E
:100A6000F449B2F90A4040F6AC53B1F900009C4297
:100A700003DCB2F914209A4203DD142804DA401C86
:100A800001E008B1401E0880142230BC0021E94872
:100A9000FFF7FCBBF0B5E648E7494FF42F72B0F919
:100AA0000000B1F90010E54B484390FBF2F01880CC
:100AB000DF4842F210732030B0F90000484390FB49
:100AC000F2F0DF49E24A0880DF49DE48B1F9004030
:100AD000DE490088B1F90010001B484390FBF3F099
:100AE0001080001B484390FBF3F0DA49DC4C08808F
:100AF000D9480188D948B0F9003071B900210846B9
:100B000008E000BF00EB800504EB0515401C2D6AD2
:100B1000C0B229449842F5DB1180B2F900000021EF
:100B2000002800DA1180002202EB820004EB0010A2
:100B3000C578192D1BD28579C67905EB0626066284
:100B4000067A477A06EB0726C661867AC77A06EBED
:100B500007268661067B466280F84E50857B80F8CA
:100B60003E50057C467C05EB0625856406E08161E8
:100B70000162C161416280F83E108164521CD2B2B0
:100B80000C2AD1D3B748B849008858430880B748E1
:100B9000B749008858430880F0BDB648416821F441
:100BA000402141F480214160416821F4403141F409
:100BB00080314160416821F4404141F4804141600D
:100BC000416C21F4402141F400214164416C21F445
:100BD000403141F400314164416C21F4404141F421
:100BE00000414164A448016821F0E06101600168AE
:100BF00041F400110160016821F480310160016855
:100C000021F47F4141F4807101608115C1609B48EE
:100C10008903016070472DE9F041994C6088218873
:100C2000401A00B201F0F4FCA51D2880A08861885C
:100C3000401A00B201F0ECFC6880A0882188401ABC
:100C400000B201F0E5FC4FF49672A880A4F12801EF
:100C5000904201DAA0880AE0B5F90200904201DA78
:100C6000608804E0B5F90000904201DA20884882EB
:100C70004C7800231CB36E48B1F91220403005684F
:100C800015440560456815444560856815448560D0
:100C9000C5682A44C2604A8B521C12B24A83B2F51C
:100CA000805F00DB4B83B1F91A20950535D1921294
:100CB00050F822502D120D8240F822302DE0714F55
:100CC000887891F803C007EBC012B1F912E042F83E
:100CD0002CE05FEA8C7212D100252A4607EBC01681
:100CE00056F82270521CD2B23D44202AF8D36A1121
:100CF0004F4D25F8102005F1200222F810E0401C8D
:100D0000C0B28870102808D30CF1010C0CF0FF0061
:100D10008B70C870202800D3CB70641C0B7014F04B
:100D20000100554A487005D0106820F0FF00001DF2
:100D3000106034E0897808070028106820F0FF0070
:100D400002DB00F1010001E000F1020010604E48FA
:100D5000036843F080530360036A43F080430362F7
:100D6000036E43F080630366CB07436908D043F00A
:100D7000805343618B07436B05D423F0804304E029
:100D800023F08053F5E743F0804343634907416F05
:100D900002D421F0806101E041F080614167106878
:100DA00040F080701060BDE8F08110B50021D020C7
:100DB0000DF0C9FD0021BDE81040D4200DF0C3BDE9
:100DC00070B5324C32480025217851B33149098839
:100DD00039B31F4A0168B2F9002011440160B1F52E
:100DE000616F1FDB2C4EA1F56161016031684FF42A
:100DF0009E70491C31600DF0A6FD28493068B1F99C
:100E0000001088420EDB2570FFF7CFFF00231A4643
:100E100001217920FFF795FDBDE870400020FFF724
:100E20000CBA056070BD00007AC00720F0E2072010
:100E3000446400106E010010A80300104601001069
:100E4000EE03001046E10720F60300108CC00720D7
:100E5000480100107CC0072098010010CC00001051
:100E600088E307207401001094010010760100103F
:100E70009601001000C002400040034000E100E085
:100E800036000010445C001000C009207B000010F8
:100E90001404001038010010300200103A01001054
:100EA00070B5FC4CFC49FD4A25780020F5B3FC4B9D
:100EB0001B88DBB3FB4EB2F90030B6F90060B342D9
:100EC00002DA5B1C1380ADE7012D02D0022D02D0A7
:100ED00004E0F54A00E0F54AB2F90020F44BB3F91A
:100EE00000305A43642392FBF3F2F24B12B21A80A1
:100EF000F14BB3F90030934216DA0A88521C12B251
:100F00000A80EE49B1F900108A428BDB2070FFF7AE
:100F10004CFF00231A4602217920FFF712FDBDE89D
:100F200070400020FFF789B908807BE7FFE7108059
:100F3000FAE72DE9F05FDFF85C83DFF884B3E14D79
:100F400098F80000E04FDFF88493012600244FF466
:100F5000167A012862D1DE480168491C91FBFAF239
:100F600001600AFB121030B9DA480078012802D17A
:100F7000D0200DF0E8FCD9F80010484609B1491E10
:100F800001600846D449B1F9001008430CD188F833
:100F90000040FFF70AFF00231A4602217920FFF7DD
:100FA000D0FC0020FFF749F9CC480088B0B3BBF86B
:100FB000000098B3CA4B1888401C01B2C948198078
:100FC000027832B1012A0CD0022A15D0032A1CD093
:100FD00024E0C54A2E70B2F9002091421EDB067053
:100FE0001BE039B185F80040B7F90020914215DBCC
:100FF000022108E02E70F7E7BC4A2C70B2F90020FD
:1010000091420BDB0321017007E0A9B185F8006074
:10101000B7F90020914201DB04701C8098F80000B1
:1010200002285CD1AA480168491C91FBFAF20160D0
:101030000AFB121010B108E02C70E9E7A54800780F
:10104000012802D1D4200DF07EFCD9F800104846CA
:1010500009B1491E01600846A549B1F900100843CD
:101060000CD188F80040FFF7A0FE00231A460221A9
:101070007920FFF766FC0020FFF7DFF8974800882B
:1010800000282CD0BBF80000002828D09448018804
:10109000491C0AB2934902800B786BB1012B13D023
:1010A000022B1ED0032B1AD122B32E70B7F90030B9
:1010B0009A4214DB0C7011E08B4B2E70B3F90030A8
:1010C0009A420CDB0E7009E032B12C70B7F9003097
:1010D0009A4204DB02220BE02E70F7E70480BDE8A1
:1010E000F09F824B2C70B3F900309A42F7DB032259
:1010F0000A70F3E72C70D9E770B5664800780328CA
:1011000043D17C497C480A68521C0A60B0F90050FF
:101110007A48B0F900002B187948B0F900001C1883
:101120007848B0F9000026180020964204DC764E7C
:1011300008603288521C32800968744E0122A9422C
:1011400001DB327000E03070714D8B4203DC8C4269
:1011500001DD2A7000E028706E490A88521C12B224
:101160000A80B2F5167F10DB08806B490A88521C92
:1011700012B20A803C2A08DB088068490A88521C9F
:1011800012B20A80182A00DB08804BE60121D02029
:101190000DF0D9BB0121D4200DF0D5BB70B53D4871
:1011A0000125002405704A48484904605C480068ED
:1011B0000860FFF7EBFF5B48C57104724748008881
:1011C00040B13F48008828B1454804804548047034
:1011D0003C48057054482146046054480460BDE80A
:1011E00070404FF49E700DF0AEBB2A4910B502203E
:1011F000087037480024354904604D48006808608D
:10120000FFF7C8FF47490120C8710C7233490988AC
:1012100041B12B49098829B131490C8031490C7001
:101220002849087040482146046040480460BDE8F1
:1012300010404FF49E700DF086BB164903200870D5
:101240007047144900200870704712490020087048
:101250007047104900200870264908602A49088014
:101260002C4908802C4908802C490880704709497E
:101270000020087099E52DE9F04106464FF4FA7513
:10128000002728460DF068FAB04253DB0020804664
:1012900079E000007B000010A6C0072018040010B1
:1012A0003C01001042010010BA0100108A01001038
:1012B0003E010010A8C007204801001044010010A2
:1012C000C60100107D000010CC01001028020010A3
:1012D00024020010A50000108C010010C4010010B1
:1012E000A0C007207E000010C8010010CA01001035
:1012F0008E0100102C020010D6010010D801001041
:10130000DA010010DC010010E2010010A4C0072087
:10131000100400100C040010A2C007200E040010DE
:10132000180200100E00001014040010300200100B
:101330001C02001005EB47000DF00EFAB04200DC75
:101340003C460A373FB2C82FF4DDC82C0EDA04F150
:101350000A0708E005EB44000DF0FEF9B04200DC9E
:10136000A046641C24B2BC42F4DB0CE05FF0C8046D
:1013700005EB44000DF0F0F9B04200DCA046641C1F
:1013800024B2CA2CF4DD40460DE52DE9F0410646B5
:101390004FF47A75002728460DF0DEF9B04202DBE3
:1013A0000020804629E005EB47000DF0D5F9B0425A
:1013B00000DC3C460A373FB2C82FF4DDC82C0FDAF8
:1013C00004F10A0709E000BF05EB44000DF0C4F981
:1013D000B04200DCA046641C24B2BC42F4DB0CE04A
:1013E0005FF0C80405EB44000DF0B6F9B04200DC34
:1013F000A046641C24B2CA2CF4DD4046D3E42DE997
:10140000F05FDFF8089442F2ED784FF0000A99F8A7
:10141000000040F2FE3BFE4FFE4EFF4C32254628B8
:101420002AD13078012858D12088401C00B2208071
:10143000404509DB86F800A0F849AC200DF049FAD8
:1014400000210846FFF76AFAF549A1F800B0B4F99F
:10145000001091FBF5F005FB101100EB80023A80C3
:10146000312909D14FF4FA7101EB4000ED4900B286
:10147000B1F900100DF02DFA99F8000045282CD193
:101480003078012829D12088401C00B220804045B6
:1014900009DB86F800A0E149AE200DF01AFA002120
:1014A0000846FFF73BFAA7F800B0B4F90010DC4B90
:1014B00091FBF5F005FB101100EB80021A80312939
:1014C0000BD14FF47A7101EB4000D74900B2B1F96A
:1014D0000010BDE8F05F0DF0FCB900E62DE9F84F13
:1014E000D248DFF84C83DFF84CA3008830B3D248F1
:1014F000008818B3D1489AF80030B0F90010D048ED
:10150000012B007807D0CF4A022BB2F900200CD073
:10151000CD48028003E0012801D018B124E0A8F8EA
:10152000001021E0C9480188F9E7012801D018B16D
:101530001AE0C548028017E0C54812E0C548B0F976
:101540000000022858D0012858D0C3480188C34859
:10155000A8F80010B0F90000022851D0012851D09D
:10156000BF480188B8480180BE48B0F90020BE4895
:10157000B0F90010AE48FEF789FEBC48B0F9002073
:10158000BB48B0F90010B048FEF780FEB94E002508
:101590004FF0010970790A2807D2401CC0B270715F
:1015A0000A2802D3757186F806909848B249B34A62
:1015B0000378B34CB34F302B26D02B2B79D09448E3
:1015C000974A332B76D0DFF84CC2462B73D0452B8D
:1015D00072D09AF800209448DFF8ACA2DFF8ACB2E1
:1015E000012A6AD0022A69D0032A68D00D7000202F
:1015F0004B46B7F90020CCE3A548A7E7A548A5E7E7
:10160000A548AEE7A548ACE790F9010038B101283C
:101610001DD00D70E562256384F828907EE240F2CB
:10162000FE32B281F28181F800900020B7F90010FB
:101630000AE000BF00EB800304EB0313401CDA62F6
:101640001A6383F82850C0B28842F3DB66E2107850
:1016500010B1012815D061E2B581F5810D7000202F
:101660004B46B7F9002009E000EB800104EB0111C3
:10167000401CCD620D6381F82830C0B29042F3DB8C
:101680004CE240F2FE32B281F28181F800900020FB
:10169000B7F900100AE000BF00EB800304EB03136E
:1016A000401CDA621A6383F82850C0B28842F3DB28
:1016B000EEE305E0FDE012E13FE16CE12FE2EAE25A
:1016C00090F9013013B1032B57D05DE040F2FE33A7
:1016D000B381F38181F80090E562256384F8289056
:1016E000E567C4F8805084F87890C4F8CC50C4F80A
:1016F000D05084F8C890C4F81C51C4F8205184F824
:101700001891C4F86C51C4F8705184F86891C4F809
:10171000BC514A46C4F8C05184F8B821C4F80C52F0
:10172000C4F8105284F80822C4F85C52C4F860521D
:1017300084F85822C4F8AC52C4F8B05284F8A822F5
:10174000C4F8FC52C4F8005384F8F822C4F84C538F
:10175000C4F8505384F84823C4F89C53C4F8A053E9
:1017600084F8982390F9020000EB800004EB00104D
:10177000C362036380F828508AE3127812B1012A09
:10178000A4D085E3B581F58104F128040D7065606E
:10179000A56084F800906565A56584F85090C4F84C
:1017A000A450C4F8A85084F8A090C4F8F450C4F829
:1017B000F85084F8F090C4F84451C4F8485184F8C3
:1017C0004091C4F89451C4F8985184F89091C4F8A9
:1017D000E4514846C4F8E85184F8E001C4F83452B2
:1017E000C4F8385284F83002C4F88452C4F88852DD
:1017F00084F88002C4F8D452C4F8D85284F8D002D5
:10180000C4F82453C4F828534AE0000038020010FA
:101810005C0100107C000010AE000010CDABFFFF9B
:101820005E0100104601001048010010C4010010C4
:10183000BA0100107B000010C6010010CE0100109C
:101840007D000010D2010010BC010010D00100107A
:10185000D4010010BE0100107C010010C001001076
:101860008201001094010010960100107001001018
:10187000720100100E000010A6030010920000106C
:1018800088E30720CC0000108AC00720F403001072
:10189000800100107E0100108601001084010010FC
:1018A00084F82003C4F87453C4F8785384F87003A0
:1018B000EEE20021B0F90000B2F90020B7F90030E3
:1018C0000AE000BF01EB810704EB0717491CC7E9D9
:1018D0000B0287F82850C9B29942F3DBD8E29CF892
:1018E0000010012913D0002040F2FE31B7F900208A
:1018F0000AE000BF00EB800304EB0313401CD96235
:10190000196383F82850C0B29042F3DBC0E2002193
:10191000B0F90000B2F90020B7F900300AE000BFCA
:1019200001EB810704EB0717491CC7E90B0287F895
:101930002850C9B29942F3DBAAE29CF800100129B1
:1019400013D0002040F2FE31B7F900300AE000BFAA
:1019500000EB800204EB0212401CD162116382F89A
:101960002850C0B29842F3DB92E20021B0F90000A7
:10197000B2F90020B7F900300AE000BF01EB81079F
:1019800004EB0717491CC7E90B0287F82850C9B2B6
:101990009942F3DB7CE2FF49B1F9002052B1FE49E4
:1019A0000B68934206DAB8F90010594391FBF2F143
:1019B000A8F80010B17979B3F849098841B1F8491C
:1019C000098829B1F7490978012932D0032930D093
:1019D000B0F90010B8F90000814204DABBF8001039
:1019E00001F1010104E005DDBBF80010A1F10101E6
:1019F000ABF8001032225142EB48FEF747FCEB48AF
:101A0000EB49B0F90000B1F90010884205DABAF8E4
:101A1000001001F1010105E00BE005DDBAF800104E
:101A2000A1F10101AAF8001032225142E148FEF76B
:101A30002DFCDF48E049B0F90000B1F90010C0EB1F
:101A40004020400090FBF1F00090DC48DC49B0F908
:101A50000000B1F90010C0EB4020400090FBF1F015
:101A60008046AC200CF078FEA0F52B41CD3907D193
:101A7000CF48B0F90000FFF7FEFB00EB80000090BC
:101A8000AE200CF069FEA0F52B41CD3907D1CB4833
:101A9000B0F90000FFF779FC00EB800080460020E1
:101AA000B7F9003038E0BD49098841B1BC4909881F
:101AB00029B1BC49097801290ED003290CD000991D
:101AC0000AB2BAF90010521800EB800104EB0111C0
:101AD000CA620AD5CD620DE000EB800104EB011172
:101AE000CD620D6381F8289014E040F2FE37BA42CF
:101AF00000DDCF62BBF900200FFA88F7BA180A633D
:101B000001D50D6304E040F2FE37BA4200DD0F63F9
:101B100081F82850401CC0B29842C4DBB8E1DFF81D
:101B2000A482B8F90010052902DD86F8089000E0CB
:101B30003572F571B17989B3317A79B3B0F90010A2
:101B4000A148B0F90000814204DABBF8001001F1AD
:101B5000010104E005DDBBF80010A1F10101ABF8C3
:101B60000010322251429048FEF790FB9748B8F996
:101B70000010B0F90000814204DABAF8001001F157
:101B8000010104E005DDBAF80010A1F10101AAF895
:101B90000010322251428748FEF778FB8B484FF401
:101BA0006171B0F9000048438349B1F9001090FB1E
:101BB000F1F032308046AC200CF0CEFDA0F52B4188
:101BC000CD3907D18148B0F90000FFF754FB00EB95
:101BD000800080467C487A49B0F90000B1F90010D5
:101BE000C0EB4020400090FBF1F00090AE200CF0E4
:101BF000B3FDA0F52B41CD3907D17348B0F90000F2
:101C0000FFF7C3FB00EB800000900020B7F9003025
:101C100038E06249098841B16149098829B16149BF
:101C2000097801290ED003290CD0BAF900100FFA57
:101C300088F2521800EB800104EB0111CA620AD548
:101C4000CD620DE000EB800104EB0111CD620D636C
:101C500081F8289014E040F2FE37BA4200DDCF62EE
:101C6000009A17B2BBF90020BA180A6301D50D63B8
:101C700004E040F2FE37BA4200DD0F6381F82850DD
:101C8000401CC0B29842C4DB5149A1F800805149C0
:101C9000E06A0880FCE0B279B2B34F4A12789ABB8E
:101CA0004E4AB0F90000B2F9002002EB8202B0EB1C
:101CB000420F04DABBF8002002F1010204E005DD66
:101CC000BBF80020A2F10102ABF80020A1F2FE3027
:101CD000404202B2484201B23348FEF7D7FA3222FC
:101CE00051423148FEF7D2FA3D48B0F9000000EB0E
:101CF00080012E48B0F90000B0EB410F05DABAF8C8
:101D0000001001F1010105E015E005DDBAF8001051
:101D1000A1F10101AAF80010A8F2FE30404202B27F
:101D2000C8F1000001B22048FEF7B0FA3222514259
:101D30002048FEF7ABFA2A4842F2EC71B0F90000F5
:101D400048431D49B1F9001090FBF1F00090234881
:101D500042F2EC71B0F9000048431949B1F90010A2
:101D600090FBF1F08046AC200CF0F6FCA0F52B4186
:101D7000CD390AD11A48008800EB8000400000B23B
:101D8000FFF779FA00EB80000090AE200CF0E4FC45
:101D900028E077E03201001024020010C401001096
:101DA000C60100107E000010F40300104601001070
:101DB000880100108AC0072070010010BA010010CD
:101DC00094010010EE0300108A010010BC01001005
:101DD000FC03001094C00720A4C00720E0010010FD
:101DE000DE010010A0F52B41CD390AD1FF48008853
:101DF00000EB8000400000B2FFF7C7FA00EB800064
:101E000080460020B7F900202FE0F949097841B158
:101E100000EB800104EB0111CD620D6381F8289085
:101E200021E000990BB2BAF900105B1800EB8001B9
:101E300004EB0111CB6201D5CD6204E040F2FE3724
:101E4000BB4200DDCF62BBF900300FFA88F7FB1808
:101E50000B6301D50D6304E040F2FE37BB4200DDA9
:101E60000F6381F82850401CC0B29042CDDB0FE0D8
:101E700000EB800104EB0111401CCD620D6381F881
:101E80002830C0B29042F3DBABF80050AAF8005003
:101E9000B571BDE8F88F00EB8001D64810B500EBB6
:101EA00001100178032972D190F83E108A07B0F929
:101EB00042200CD54FF496639A420DDA521C12B2AE
:101EC000A0F842209A4207DBA0F8423004E01AB1A1
:101ED000A2F10102A0F842200A07B0F944204FF015
:101EE0000A034FF000040AD50A2A13DA521C12B270
:101EF000A0F844200A2A0DDBA0F844300AE0002AAA
:101F000005DDA2F1010212B2A0F8442002E001DADC
:101F1000A0F84440CA06B0F946200AD50A2A0DDACC
:101F2000521C12B2A0F846200A2A07DBA0F846305D
:101F300004E01AB1521E12B2A0F8462042781207ED
:101F400001D004210FE0AC4A127822B1C278142AE1
:101F500001D9052107E0890601D5022103E0C178F6
:101F6000142901D201218170C1780A2990F8281022
:101F700002D341F0800101E001F07F0180F82810D8
:101F80009E49B1F90C20C262B1F90E10016310BD77
:101F90002DE9F0479A489B4E984C0078002510B3E5
:101FA000B6F9000000EB8001B4F92000B0EB410F5E
:101FB00001DA401C20849448DFF8508247F2305AFE
:101FC000B0F9000000EB8001B8F90000B0EB410F60
:101FD0000BDD608C5246401C608488480021223012
:101FE000FEF754F902E02584E5E76584DFF82092E6
:101FF0000127B9F9000000EB8001B4F92200B0EB31
:10200000410F0ADBB6F90010B4F9202001EB810181
:10201000B2EB410F01DB677201E000B965727D48E8
:10202000B0F9000000EB8001B8F90000B0EB410FFF
:1020300009DAA08C5246401CA0847048002124304C
:10204000FEF724F900E0A584B9F9000000EB800157
:10205000B4F92400B0EB410F0ADBB6F90010B4F973
:10206000202001EB8101B2EB410F01DBA77202E0FE
:1020700030B1A07A28B1607A18B1E772BDE8F08774
:10208000A572E572FAE72DE9F05F5D48DFF8888117
:10209000DFF888B101785D48DFF884A1614DB0F9BF
:1020A0000000614E0027614C022911D0012925D082
:1020B00027805F492868B1F90010884243DD5D49F7
:1020C0003068B1F9001088423DDA2088401C3CE0BD
:1020D000DFF86491B9F80010401A00B200F098FAE5
:1020E000C8F8000064214843B9F90010DFF84C81BA
:1020F00090FBF1F02860BBF8001014E0DFF840918D
:10210000B9F80010401A00B200F082FAC8F80000D6
:1021100064214843B9F90010DFF8288190FBF1F001
:102120002860BBF80010B8F80000081A00B200F0F0
:102130006FFA6421CAF800004843B8F9001090FB18
:10214000F1F03060B5E72088401E3F4D20800A2125
:10215000288800EB800001EB400002B200213348E8
:10216000FEF794F82648007800B9278037483849A8
:10217000384A0068B1F9001088420ADBB5F900302E
:10218000B4F9006003EB8303B6EB430F01DD0123D9
:102190001370884208DBB5F90000B4F9001000EBB9
:1021A0008000B1EB400F00DC1770BDE8F09F2DE917
:1021B000F04F1348DFF8A0E02A4B90F800C0274802
:1021C0000021BEF900400078B3F90060824624483F
:1021D000007883461F4805780848C77A90F80A8037
:1021E000407A81460548263001223DE0E00100109A
:1021F000A4C0072088E3072083C007200E0000103A
:102200007B000010A2010010AC010010460100107C
:10221000A4010010AA0100100004001048010010E1
:102220000404001098C007209CC007200A04001076
:10223000A6010010A8010010820100108A01001000
:1022400088010010BA010010A00100102402001043
:102250009E01001008040010340200101004001049
:102260007D0000109A010010584BB3F9003014B3F0
:10227000012C08D0022C11D0032C17D0042C1DD017
:10228000052C27D032E0BCF1030F03D0BBF1000FC7
:1022900040D02AE0BAF1000F3CD126E016B1012E61
:1022A00002D023E00DB335E02DB11EE013B1012BB8
:1022B00002D01BE0CFB12DE067B316E013B1012BC4
:1022C00004D013E0B8F1000F0FD023E0B8F1000FF5
:1022D00020D00AE013B1012B04D007E0B9F1000FC0
:1022E00003D017E0B9F1000F14D00270BEF902401C
:1022F00094B1012C13D0022C1DD0032C24D0042C1B
:102300002BD0052C09D17BB3012B06D1B9F1000FDD
:102310000BD101E00170E9E74170BDE8F08FBCF13D
:10232000030F04D0BBF1000FF6D04270F5E7BAF10D
:10233000000FF1D1F9E726B1012EEED1002DF4D135
:10234000EAE7002DF1D0E7E723B1012BE5D1002F1B
:10235000EBD1E1E7002FE8D0DEE733B1012BDCD190
:10236000B8F1000FE1D1D7E703E0B8F1000FDCD0FE
:10237000D2E7B9F1000FD8D0CEE71549086820F4AC
:10238000404008601348026842F080020260124A2E
:102390001378012B436912D043F0800343610B682B
:1023A00023F440630B60016841F020010160517823
:1023B0000129416906D041F020014161704723F0B5
:1023C0008003EBE721F02001F7E700009C010010FB
:1023D00000C0024000C00920340000102DE9E84E82
:1023E0000746542659B1012904D0022904D00329F3
:1023F00004D004E0552602E0752600E04C26834810
:10240000DFF8049207EB87034FF0000A00EB03109C
:10241000012A01D0EAB3F3E031B1012908D0022941
:102420000AD003290CD00FE0427842F001020AE002
:10243000427842F0020206E0427842F0040202E0F2
:10244000427842F00802427080F84F1053208DF815
:1024500000008DF801708DF8026056468DF803A0DB
:10246000694620460CF0B1FA6946201D00960CF032
:10247000ACFAB9F83C0009F120058DF80000287E7F
:102480008DF80100287B8DF802008DF80360694605
:1024900000E02FE004F108000CF097FA287A8DF89C
:1024A000000028798DF8010028788DF802008DF859
:1024B0000360694604F10C000CF087FA41258DF8A1
:1024C00000508DF801508DF802508DF80350694688
:1024D00004F110000CF079FA8DF800508DF80150DD
:1024E0008DF802508DF80350694604F114000CF089
:1024F0006CFA6BE031B1012908D0022913D003290D
:1025000015D007E0417821F0010102E0417821F087
:102510000201417004F110004FEA000B9DF8000029
:1025200053282CD107E0417821F00401F1E74178EC
:1025300021F00801EDE79DF80100B8421FD19DF898
:102540000200B0421BD1694658460CF082F99DF852
:102550000000412813D106E06D1EADB200E03F251A
:102560004545DBD14CE09DF80100412807D19DF89D
:102570000200412803D19DF80300412802D0002D1C
:10258000EDD0E9E7B9F83C0009F120058DF800002D
:10259000287E8DF80100287B8DF8020056468DF8C4
:1025A00003A0694658460CF010FA287A8DF800000E
:1025B00028798DF8010028788DF802008DF80360E5
:1025C000694604F114000CF000FA42258DF8005021
:1025D0008DF801508DF802508DF80350694604F1D2
:1025E00018000CF0F2F98DF800508DF801508DF8BC
:1025F00002508DF80350694604F11C000CF0E5F917
:1026000000BFBDE8E88E00000040024088E30720DC
:10261000002801DA404200B2704710B540F2D47091
:102620000CF09AF8F94C207040F2D6700CF094F847
:1026300060704FF4FB600CF08FF8A07040F2DA701D
:102640000CF08AF8E07040F2DC700CF085F8207233
:1026500040F2DE700CF080F860724FF4FC600CF019
:102660007BF8A07240F2E2700CF076F8E0724FF462
:1026700001600CF071F8207140F612000CF06CF85B
:10268000607140F614000CF067F8A07140F6160077
:102690000CF062F8E07110BDDD4810B5016821F062
:1026A000E06101604168DC4AC1F30B13D94C117839
:1026B00024F81130491CC9B21170032903D20168F2
:1026C00041F08071016010BD2DE9F041D34DD44E31
:1026D00001272888D34C401C00B2288003280DDB3A
:1026E00006200CF039F848B93068C00706D1A07848
:1026F00020B9012106200CF0ECF8A770B5F9000014
:10270000B0F5967F0EDB06200CF026F8012809D1E3
:102710003068C00706D1A07820B9012106200CF04E
:10272000D8F8A770B4F9320014280ADB06200CF0A0
:1027300013F8002805D0BDE8F041002106200CF078
:10274000C8B8BDE8F0812DE9FF41B64900258031C8
:10275000A1F15E04B1F9780000EB400202EBC00089
:102760000A2290FBF2F0A084A0850320E084207868
:10277000401CC0B204F82209182802D384F8225061
:1027800001E00F2843D82120FDF731FD50B1A648C4
:102790000088222806D1A54894F8221090F902005A
:1027A000884232D094F82B00A14D98B994F82200B9
:1027B00000EB800105EB011202F128021179577A32
:1027C000167A53798DE8CA0013784FF0ED0201466E
:1027D0000CF031FB94F822000F2816D200EB800099
:1027E00005EB0010C1783C2905D2491CC9B2C17063
:1027F000032902D207E03C21C1700179032902D2EA
:102800004179491C4171C1780171BDE8FF81854B57
:10281000112893F82B3019D01228F6D1002BF4D1BF
:10282000B1F97C00814990FBF2F0BE39C0B24B781F
:102830000C78891E4A78CDE90230CDE900240B7866
:102840002922FF2108460CF0F6FADEE7002BDCD146
:1028500074484E304178027808384378CDE9003228
:10286000CDE9021503786222EBE770490020543964
:102870000870487088705431487070472DE9F04FE7
:10288000DFF8A0E14FF03C0B0EF1800101F1800A6E
:10289000B1F94E30B1F9504001F580719EF82C002D
:1028A000CE6A096B96FBFBF591FBFBF70FFA81F8FB
:1028B0007146BAF9182091F803C03FB2BAF91A105C
:1028C0002DB236B2B946B8B101283DD1BAF80A7076
:1028D000AAF83C70BAF81270AAF84070AAF83A3018
:1028E000AAF83E40BAF9167050467FB34FF0FF3059
:1028F0005346AAF8380018E0BAF81070AAF83C70ED
:10290000BAF80470AAF84070AAF83A30AAF83E4023
:10291000BAF914705046002FE8D1034643484038B6
:10292000006A18E090FBFBF017E03A4317D009B1BA
:10293000DD8607E0DE8605E0A3F8369002E000BF02
:10294000A3F836808EF82FC0BDE8F08FFFE703466E
:1029500036484038406A0029E4D11887E5E7002965
:10296000EED0E9E7F0B50020324A01464FF4F473A7
:102970001154401C00B29842FADBDFF8B0E00020AE
:102980000EF1420E14277A21414300EB80039B0095
:1029900000EB80041BB207EB84051EE01EF8034029
:1029A0005E2C21D0244E04EB440416F814C002F827
:1029B00001C006EB4404491C66785654491CA678AD
:1029C0005654491CE6785654491C26795654491CDD
:1029D00064795454491C5B1C1BB29D42DEDC401CD4
:1029E00000B20428CFDBF0BD4FF07E0C02F801C02E
:1029F000491C42245454491C5A265654491C5654C6
:102A0000491C5454491C02F801C0E3E7182008206F
:102A100000400340360000100E000010181A00108D
:102A20005C00001078000010540000103802001004
:102A300088E3072038E80720C85801002DE9F04F47
:102A4000FF48ADB0B0F9541000910170017A491CF3
:102A5000C9B20172142908D300210172C279521C33
:102A6000D2B2C271052A00D3C171F648F54BDFF826
:102A7000D0A3017890F9045090F901004FF00A0BAF
:102A8000421BC03B02ACB3F94E300AF1800A9E46AD
:102A9000E9B3EC4F0D2901F02782212901F03D8394
:102AA0003B466C2993F9043004EB8303994601F00B
:102AB0004A833B465B789B1E5BB26D2901F06F83B6
:102AC0006F2901F0F1846B2901F0E0856A2901F09A
:102AD0001D863E4696F902807678761E4FFA86FC71
:102AE000682901F0A1870F2902F006801029FBD088
:102AF000042902F02A80D24EDFF84CE33F29B67E4B
:102B000002F01283702902F09383352900E04FE030
:102B100002F0D886332902F00987752902F0408730
:102B2000762902F08A87722902F0D387712902F090
:102B3000D687732903F08E815B2903F0C6815F2954
:102B400003F047826029FBD0622903F05482632995
:102B500003F09F82642903F0ED82122903F04F8471
:102B6000442903F08084B64F46293F7903F09584C9
:102B7000452903F0D084B34F302903F0168574291A
:102B800003F027854FF0090B2E2903F076854229A3
:102B900004F028802C2904F0B3802B2904F0E9806C
:102BA000592904F060836E2904F0878304F0CEBBBA
:102BB000A349CE78032E2FD091F82C70A149A04BB9
:102BC00049788033C91E49B20091B3F9761001915A
:102BD0009B49B3F9403001F5807C994691F8068015
:102BE0004B79BCF94CC0C97E002F7ED0012F7DD01F
:102BF000DFF84C82022F7AD0022E00F0978793A73D
:102C00000297BCF1000F00F0CC87BEF1000F00F07E
:102C1000878794A700F0C4BF98A002909DA003905E
:102C2000A2A00490A7A002AD0346059007CDFDF732
:102C30009CFEDFF81082A8F14008A8F18005D8F8C2
:102C40003400B5F95E10884203DA00222121A3A0E6
:102C500019E0B5F960201144814203DD00222121F1
:102C60009FA010E0B5F962201144814203DD0022EB
:102C700021219CA007E0B5F964201144814204DDC4
:102C80000022212198A0FDF7A0FE05F16605002293
:102C900068882B2180B2FDF74AFD28880022402158
:102CA00080B2FDF744FDBAF950005E4690FBF6F0A5
:102CB000574680B200222321FDF739FDB7F94E00B7
:102CC000002290FBF6F080B22421FDF730FDA888A9
:102CD0000022401C5E2180B2FDF729FDD8F83400A7
:102CE000454690FBF6F13C2002E013E0ADE2F1E353
:102CF00091FBF0F200FB121080B200227321FDF76D
:102D000016FD686B4FF4167190FBF1F0002280B253
:102D10005421FEE3012E0FD074A10291BCF1000FEB
:102D20004AD0BEF1000F01D070A144E0012B29D0A0
:102D3000002B41D173A13EE078A70297BCF1000FB0
:102D40003AD0BEF1000F05D0B8F1010F06D0B8F1AE
:102D5000030F03D0012B07D0D3B12DE0890701D594
:102D600074A128E06DA126E041B1012908D0022913
:102D700008D0032908D0042908D012E073A11AE072
:102D800078A118E07DA116E082A114E087A112E0ED
:102D900051B101290AD00229CCD0032908D0042935
:102DA00008D00529C0D007E086A104E08BA102E08D
:102DB00090A100E095A1029136A1039199A1DFF8BD
:102DC00080800491012E06D19CA10491B9F1000FDD
:102DD00001D0A0A1049135A10591A4A10691A9A1BA
:102DE0000791AEA10891B3A109911649032A01DD0B
:102DF000009801E0A84200DA0871019857460F28B0
:102E000006DDB2A3B7A2BDA1C2A0FDF7AEFD0CE0E6
:102E100091F9045004EB8500001D0EC854F82500FC
:102E2000FDF7A3FD0020FDF73CFD064DC03DB5F8C4
:102E30004C0010B1B5F84E0008B9002276E179E1F6
:102E40007800001038020010FC5E010020C8F1F28A
:102E5000EEF7EDE8EA20EDE0EFF02E205E202020F6
:102E60000000000020C8F1F2EEF7EDE8EA20EDE006
:102E7000EFF02E205E3E3E3E00000000202020C8E5
:102E8000D1CFDBD2C0CDC8C520D4C0C7C02021203F
:102E9000000000002049F3202020202BC020556D89
:102EA000617820202020404200000000204920209E
:102EB00020202023C0205520202020202020244214
:102EC0000000000020D6E8EAEB204E2020205E2003
:102ED000202030543A3073200000000041000000F0
:102EE00042000000430000004400000020C8F1F24E
:102EF000EEF7EDE8EA20F2EEEAE020205E20202066
:102F00000000000020C8F1F2EEF7EDE8EA20F2EE52
:102F1000EAE020205E3C3C3C0000000020C8F1F2CA
:102F2000EEF7EDE8EA20F2EEEAE020202020202073
:102F30000000000020C8F1F2EEF7EDE8EA20F2EE22
:102F4000EAE020205E203C3E0000000020C8F1F2B4
:102F5000EEF7EDE8EA20F2EEEAE020205E3E2020E7
:102F60000000000020C8F1F2EEF7EDE8EA20F2EEF2
:102F7000EAE020205E3E3E200000000020C8F1F282
:102F8000EEF7EDE8EA20F2EEEAE020205E3E3E3E7B
:102F90000000000020C8F1F2EEF7EDE8EA20F2EEC2
:102FA000EAE020205E203E3E0000000020C8F1F252
:102FB000EEF7EDE8EA20F2EEEAE020205E20203E87
:102FC0000000000020C8F1F2EEF7EDE8EA20F2EE92
:102FD000EAE020205E20203C0000000020C8F1F242
:102FE000EEF7EDE8EA20F2EEEAE020205E203C3C3D
:102FF0000000000020C8F1F2EEF7EDE8EA20F2EE62
:10300000EAE020205E3C3C200000000020C8F1F2F5
:10301000EEF7EDE8EA20F2EEEAE020205E3C202028
:103020000000000020C4EBE8F22DF1F2FC2E20207D
:1030300030743A30543A30730000000020202020D1
:10304000202030743A30543A307320202020202041
:10305000000000002030743A30543A3073202020B1
:1030600020202071C02AF720000000002055EC61CC
:10307000782EE8F1F22EF2EEEAE0202020207BC24A
:103080000000000020C2FBF5EEE4202020202020DC
:1030900020202020202020200000000020D3F1F25A
:1030A000E0EDEEE2EAE82020202020202020202071
:1030B0000000000020C2FBEFF0FFECE8F2E5EBE8D7
:1030C00020202020202020200000000020E8EBE825
:1030D00020EDE5F1EAEEEBFCEAEE20F4E0E72E204D
:1030E000000000002020CEF2F1F3F2F1F2E2F3E56D
:1030F000F220EEE4EDE0202000000000202020205F
:103100002020F1E5F2E8212121212020202020208B
:10311000000000002020C0E2E0F0E8FF20EFE8F22D
:10312000E0FEF9E5E9202020000000005E21FBA080
:10313000FDF74BFCB5F942004FF47A76B04203DA62
:1031400001222B2180B204E090FBFBF080B2002230
:103150002B21FDF7ECFAB7F95000B04203DA012257
:10316000232180B204E090FBFBF080B200222321F7
:10317000FDF7DDFAB7F94E00B04203DA012224214F
:1031800080B204E090FBFBF080B200222421FDF726
:10319000CEFAB5F91000B04209DA01227B2180B2E3
:1031A000FDF7C5FA288A0122402180B20EE05E4672
:1031B00090FBF6F080B200227B21FDF7B8FAB5F95A
:1031C0001000002290FBF6F080B24021FDF7AFFA2C
:1031D0004646F9E3D24F3C250022F86A90FBF5F110
:1031E00005FB110080B27321FDF7A1FAF86A0022F5
:1031F00090FBF5F090FBF5F105FB110080B2542136
:10320000FDF795FAF96A51E1C54F3C250022386B6C
:1032100090FBF5F105FB110080B27321FDF787FAF1
:10322000386B002290FBF5F090FBF5F105FB1100E7
:1032300080B25421FDF77BFA396B37E1A88A002868
:103240007DD1FEE3FDF7C1FB1BE2022E11D0AFF2F0
:1032500004410291BCF1000F4CD0BEF1000F02D02E
:10326000AFF2184145E0012B29D0002B42D1ADA18E
:103270003FE0B2A70297BCF1000F3BD0BEF1000FB8
:1032800005D0B8F1010F06D0B8F1030F03D0012B20
:1032900007D0DBB12EE0890701D5AEA129E0A7A1B7
:1032A00027E041B1012908D0022908D0032909D01B
:1032B000042909D013E0ADA11BE0B2A119E0AFF2DF
:1032C0005C4116E0B5A114E0BAA112E051B10129A8
:1032D0000AD00229CBD0032908D0042908D0052917
:1032E000BED007E0B9A104E0BEA102E0C3A100E0A6
:1032F000C8A10291CDA10391AFF2D821DFF8448398
:103300000491022E08D1AFF2CC210491B9F1000F43
:1033100002D0AFF2C0210491CBA10591D0A10691BA
:10332000AFF2A0210791AFF28C210891AFF27C217E
:1033300009917B494031032A02DD009802E0EBE06D
:10334000A84200DA0871019857460F280ADDAFF24B
:103350008423AFF27022AFF25C21AFF24820FDF778
:1033600004FB0CE091F9045004EB8500001D0EC82D
:1033700054F82500FDF7F9FA0020FDF792FA684DA0
:10338000803DB5F84C0010B1B5F84E0020B90022D0
:103390005E2162A0FDF719FBB5F944004FF47A767F
:1033A000B04203DA0122252180B204E090FBFBF059
:1033B00080B200222521FDF7BAF9B7F94E00B042DC
:1033C00003DA0122262180B204E090FBFBF080B2F8
:1033D00000222621FDF7ABF9B7F95000B04203DA1D
:1033E00001222A2180B204E090FBFBF080B200228F
:1033F0002A21FDF79CF9B5F91200B04209DA012241
:103400007D2180B2FDF793F9688A01227D2180B287
:103410000EE05E4690FBF6F080B200227D21FDF7C3
:1034200086F9B5F91200002290FBF6F080B27D21FA
:10343000FDF77DF998F80300464602286AD0E88A2D
:10344000002869D147E0364D3C270022E86A90FB0E
:10345000F7F107FB110080B27321FDF768F9E86A04
:10346000002290FBF7F090FBF7F107FB110080B210
:103470005421FDF75CF9E96A18E0294D3C27002248
:10348000286B90FBF7F107FB110080B27321FDF769
:103490004EF9286B002290FBF7F090FBF7F107FB49
:1034A000110080B25421FDF742F9296B4FF461609D
:1034B00091FBF0F080B200227421FDF738F9B07D65
:1034C00048B300223A2115A0FDF77FFA00223A21E5
:1034D00012A0B7E6EFE0124E3C250022706A90FB86
:1034E000F5F105FB110080B27321FDF720F9706A38
:1034F000002290FBF5F090FBF5F105FB110080B286
:103500005421FDF714F9716A4FF4616091FBF0F0FA
:10351000B2E0BBE0E2E2B4E09BE200002000000089
:10352000F801001020C8F1F2EEF7EDE8EA20EDE036
:10353000EFF02E205E3C3C3C0000000020C8F1F281
:10354000EEF7EDE8EA20EDE0EFF02E20202020203D
:103550000000000020C8F1F2EEF7EDE8EA20EDE00F
:10356000EFF02E205E203C3E0000000020C8F1F26B
:10357000EEF7EDE8EA20EDE0EFF02E205E3E2020B1
:103580000000000020C8F1F2EEF7EDE8EA20EDE0DF
:10359000EFF02E205E3E3E200000000020C8F1F239
:1035A000EEF7EDE8EA20EDE0EFF02E205E203E3E63
:1035B0000000000020C8F1F2EEF7EDE8EA20EDE0AF
:1035C000EFF02E205E20203E0000000020C8F1F227
:1035D000EEF7EDE8EA20EDE0EFF02E205E20203C53
:1035E0000000000020C8F1F2EEF7EDE8EA20EDE07F
:1035F000EFF02E205E203C3C0000000020C8F1F2DD
:10360000EEF7EDE8EA20EDE0EFF02E205E3C3C2006
:103610000000000020C8F1F2EEF7EDE8EA20EDE04E
:10362000EFF02E205E3C2020000000002055F3200B
:10363000202020254220496D6178202020207D41D6
:1036400000000000780000102055202020202026B7
:10365000422049202020202020202A410000000074
:103660002049EC61782EE8F1F22EEDE0EFF02E200B
:1036700020207D410000000080B200227421FDF76F
:1036800056F801227121FF48806B80B2FDF74FF898
:10369000FD48C078012807D0FA4A0021803A022864
:1036A000A2F8461003F05286F64900208039A1F8AE
:1036B000480003F04BBE012E10D0AFF2D077029736
:1036C000BCF1000F45D0BEF1000F02D0AFF254772D
:1036D0003EE0012BFAD0AFF2D47739E0AFF2C477F5
:1036E0000297BCF1000F34D0012B01D0CBB130E0F8
:1036F00041B1012909D00229E8D0032908D00429C1
:1037000009D017E0AFF2BC7722E0AFF2A8771FE054
:10371000AFF280771CE0AFF26C7719E0AFF63407B8
:1037200016E051B101290BD00229D4D003290AD0C7
:1037300004290BD00529F1D00BE0AFF2787707E030
:10374000AFF2687704E0AFF2547701E0AFF244776C
:103750000297AFF6C0070397AFF238770497012EB0
:1037600008D1AFF228770497B9F1000F02D0AFF279
:103770001C770497AFF6CC070597022E11D0AFF651
:1037800034110691BCF1000F34D0BEF1000F02D00D
:10379000AFF6301103E0012BFAD0AFF27821069199
:1037A00028E0AFF268270697BCF1000F1FD0012B6D
:1037B00001D043B31BE041B1012909D002290BD04C
:1037C00003290CD004290DD00FE0AFF2602101E0F5
:1037D000AFF2502106910AE0AFF67811FAE7AFF2A6
:1037E0004421F7E7AFF23421F4E7052923D098F814
:1037F000141019B3AFF2CC110791AFF2D871089140
:10380000022E1DD025E051B101290BD002290CD088
:1038100003290DD00429E8D1AFF20821DAE7AFF28D
:103820005421D7E7AFF24421D4E7AFF20831D1E712
:10383000AFF23821CEE7AFF6EC11CBE793A1AEE7BC
:10384000AFF608010891B9F1000F02D0AFF2FC7198
:10385000089194A10991AFF2EC710A91AFF20021A5
:103860000B91AFF2E0710C91AFF2D0710D91AFF20C
:10387000BC71DFF810820E9108F14008032A03DDC5
:10388000009988F8041003E0A84201DA88F80400DF
:10389000019856460F280ADDAFF2D073AFF2BC7222
:1038A000AFF2A871AFF29470FDF75FF80CE098F9F1
:1038B000045004EB8500001D0EC854F82500FDF7E8
:1038C00054F80020FCF7EDFF6E4D803DB5F84C003C
:1038D00010B1B5F84E0028B900225E21AFF2C43015
:1038E000FDF773F8B5F942004FF47A77B84203DA7E
:1038F00001222B2180B204E090FBFBF080B2002279
:103900002B21FCF714FFB6F95000B94648450ADAF6
:103910000122232180B2FCF70AFFB6F850000122F1
:10392000232180B20EE05F4690FBF7F080B20022C8
:103930002321FCF7FCFEB6F95000002290FBF7F0C3
:1039400080B22321FCF7F3FEB5F944004F46B8429C
:1039500003DA0122252180B204E090FBFBF080B263
:1039600000222521FCF7E3FEB6F94E00B946484592
:103970000ADA0122262180B2FCF7D9FEB6F84E0001
:103980000122242180B20EE05F4690FBF7F080B266
:1039900000222621FCF7CBFEB6F94E00002290FB58
:1039A000F7F080B22421FCF7C2FEB5F912004E46B2
:1039B000B0420ADA01227D2180B2FCF7B8FE688AA3
:1039C00001227D2180B20FE034E05F4690FBF7F0EA
:1039D00080B200227D21FCF7AAFEB5F91200002278
:1039E00090FBF7F080B27D21FCF7A1FEB5F9100045
:1039F000B04209DA01227B2180B2FCF798FE288AC6
:103A00000122402180B20EE05E4690FBF6F080B2CB
:103A100000227B21FCF78BFEB5F91000002290FB01
:103A2000F6F080B24021FCF782FE98F90400164EB1
:103A3000022850DCF07801287FF400ACB5F91800BA
:103A400000E00BE0B5F9141008433FF4DDABFFF7DD
:103A5000C1BB6FF00202742118A03AE5094E3C2563
:103A60000022306A90FBF5F105FB110080B2732152
:103A7000FCF75DFE306A90FBF5F090FBF5F105FB7D
:103A8000110021E0F8010010780000102020202013
:103A90002020202020202020202020202020202026
:103AA0000000000020552020202020264220492010
:103AB000202020202020234100000000EDE5EFF031
:103AC000E5F0FBE2EDEE000080B200225421FCF7AD
:103AD0002EFE316A18E5F07802287ED1B5F918007B
:103AE000B5F9161008433FF4C8ACACE4FC4D3C26D5
:103AF0000022686A90FBF6F106FB110080B2732188
:103B0000FCF715FE686A002290FBF6F090FBF6F1D8
:103B100006FB110080B25421FCF709FE696AF3E448
:103B2000012B3FF476A8AFF2046739E0AFF2F45707
:103B30000297BCF1000F34D0012B01D0CBB130E0A3
:103B400041B1012909D00229EBD0032908D0042969
:103B500009D017E0AFF2EC5722E0AFF2D8571FE0E0
:103B6000AFF2C8571CE0AFF2B45719E0AFF62457D4
:103B700016E051B101290BD00229D4D003290AD073
:103B800004290BD00529F1D00BE0AFF2C05707E0B4
:103B9000AFF2B05704E0AFF29C5701E0AFF28C57A0
:103BA0000297AFF278570397AFF688370497022E43
:103BB00008D1AFF678370497B9F1000F02D0AFF60D
:103BC0006C370497AFF224170597012E12D0AFF689
:103BD000E4410691BCF1000F00E06BE145D0BEF17D
:103BE000000F02D0AFF66C413EE0012BFAD0AFF6E9
:103BF000EC4139E0AFF6DC470697BCF1000F34D05A
:103C0000012B01D0CBB130E041B1012909D002290B
:103C1000E8D0032908D0042909D017E0AFF6D44131
:103C200022E0AFF6C0411FE0AFF698411CE0AFF6CE
:103C3000844119E0AFF64C5116E051B101290BD087
:103C40000229D4D003290AD004290BD00529F1D0A8
:103C50000BE0AFF6904107E0AFF6804104E0AFF62D
:103C60006C4101E0AFF65C410691AFF6D851079187
:103C7000AFF650410891012E08D1AFF640410891AE
:103C8000B9F1000F02D0AFF634410891AFF6E4511C
:103C90000991AFF628410A91AFF23C610B91AFF662
:103CA0001C410C91AFF60C410D91AFF6F831DFF8E5
:103CB00030820E9108F14008032A03DD009988F84C
:103CC000041003E0A84201DA88F80400019856467F
:103CD0000F280ADDAFF60C43AFF6F832AFF6E43149
:103CE000AFF6D030FCF741FE0CE098F9045004EB3D
:103CF0008500001D0EC854F82500FCF736FE002094
:103D0000FCF7CFFD764D803DB5F84C0010B1B5F80D
:103D10004E0028B900225E21AFF60000FCF755FEE8
:103D2000B5F942004FF47A77B84203DA01222B2129
:103D300080B204E090FBFBF080B200222B21FCF764
:103D4000F6FCB6F95000B94648450ADA01222321AB
:103D500080B2FCF7ECFCB6F850000122232180B2BF
:103D60000EE05F4690FBF7F080B200222321FCF7C3
:103D7000DEFCB6F95000002290FBF7F080B2232160
:103D8000FCF7D5FCB5F944004F46B84203DA0122EE
:103D9000252180B204E090FBFBF080B200222521B7
:103DA000FCF7C5FCB6F95000B94648450ADA0122CD
:103DB000232180B2FCF7BBFCB6F85000012223217E
:103DC00080B20EE05F4690FBF7F080B20022232124
:103DD000FCF7ADFCB6F95000002290FBF7F080B282
:103DE0002321FCF7A4FCB6F94E0048450ADA01226B
:103DF000262180B2FCF79BFCB6F84E00012224215C
:103E000080B20EE05F4690FBF7F080B200222621E0
:103E1000FCF78DFCB6F94E00002290FBF7F080B263
:103E20002421FCF784FCB5F910004E46B04209DAB3
:103E300001227B2180B2FCF77AFC288A01224021F2
:103E400080B20EE05F4690FBF7F080B200227B214B
:103E5000FCF76DFCB5F91000002290FBF7F080B282
:103E60004021FCF764FCB5F91200B04209DA0122E6
:103E70007D2180B2FCF75BFC688A01227D2180B243
:103E80000EE05E4690FBF6F080B200227D21FCF74A
:103E90004EFCB5F91200002290FBF6F080B27D21B5
:103EA000FCF745FC98F904000E4E0228F0780BDC74
:103EB000022804D0E88A00283FF418AEC9E5B5F915
:103EC0001800B5F9161006E001287FF4B7A9B5F976
:103ED0001800B5F9141008433FF4CFAAB7E5000065
:103EE000F801001078000010009AFD49012A06D060
:103EF0000E46911E884232DBAFF6786330E0AFF2B7
:103F00007443AFF68062F7A1FCA0FCF72EFD0023FE
:103F100001211A460846FCF725FBFE4D0123062227
:103F2000A869194680B2FCF71DFB286A012380B2FC
:103F30000B221946FCF716FB686A002380B20F2299
:103F40000121FCF70FFB95F83E0013220121FCF73D
:103F500059FCF149012081F8280003F0F7B9E1A3E9
:103F6000E0A2E0A1E5A0FCF700FD97F901004FF009
:103F70000003062800F1010080B20ADB012211468D
:103F8000FCF7F0FA97F901000023801C80B20122AF
:103F900009E000220121FCF7E5FA97F90100801CF5
:103FA000002380B21A460221FCF7DCFA97F90100DF
:103FB000D84D00EB800005EB00100123806906223C
:103FC00080B21946FCF7CEFA97F90100012300EB05
:103FD000800005EB00100622806E022180B2FCF703
:103FE000C1FA97F90100012300EB800005EB0010F6
:103FF0000B22006A194680B2FCF7B4FA97F9010067
:10400000012300EB800005EB00100B22006F022162
:1040100080B2FCF7A7FA97F90100002300EB8000BB
:1040200005EB00100F22406A012180B2FCF79AFADA
:1040300097F90100002300EB800005EB00100F2230
:10404000406F022180B2FCF78DFA97F9020013222B
:1040500000EB800005EB0010012190F83E00FCF71A
:10406000D1FB97F90200132200EB800005EB001052
:10407000022190F88E00FCF7C5FBB6F9541097F9B1
:104080000100891E884243DA062800F1030080B24D
:104090004FF0000301DB012200E000220321FCF7C6
:1040A00061FA97F90100012300EB800005EB001095
:1040B0000622D0F8B800032180B2FCF753FA97F932
:1040C0000100012300EB800005EB00100B22D0F86B
:1040D000C000032180B2FCF745FA97F901000023E4
:1040E00000EB800005EB00100F22D0F8C400032184
:1040F00080B2FCF737FA97F90200132200EB800038
:1041000005EB0010032190F8DE00FCF77BFB24E7B1
:104110008149012081F83C001FE7804B80A286A1E5
:104120008BA0FCF722FC7C4901200AF14E0581F8A6
:104130003C00024628885B2180B2FCF7F8FA012295
:104140005D2102F098BA88A002908DA00390924859
:1041500004909B6854F8251090A0D9F80420FCF72F
:1041600004FC0120FCF79DFB0AF170054FF00002F2
:10417000A8884FF0210100EB800080B2FCF7D7FA4D
:1041800028880022232180B2FCF7D1FA2888002257
:1041900000EB80002D3080B2402103F0D5B8854E71
:1041A000BEF1000F01D084A100E089A102918EA18F
:1041B000039193A1049198A105919DA10691A2A1BB
:1041C0000791A7A10891ACA1099173490A91022A0C
:1041D00001DD3B7102E0A84200DA387197F9041062
:1041E00004EB8100D0E9012354F82110A8A0FCF7CA
:1041F000BCFB0120FCF755FB36F9500F3C2590FB2A
:10420000F5F105FB110080B200225B21FCF78FFA6B
:10421000B6F90000002290FBF5F191FBF5F005FBEB
:10422000101080B27D21FCF782FAB6F900004FF43D
:10423000616790FBF7F080B200227B21FCF777FAF0
:10424000B6F90200002290FBF5F105FB110080B2E7
:104250005D21FCF76CFAB6F90200002290FBF5F044
:1042600090FBF5F105FB110080B22921FCF75FFA04
:10427000B6F90200002290FBF7F080B22821FCF78B
:1042800056FAB6F90400002290FBF5F105FB110087
:1042900080B23E21FCF74BFAB6F90400002290FBF5
:1042A000F5F090FBF5F105FB110080B23C21FCF725
:1042B0003EFAF0880122212180B2FCF738FA3089D9
:1042C0000122402180B2FCF732FA708901222321B9
:1042D00080B2FCF72CFA0122B089242180B25CE77D
:1042E0007800001020202020202E202020202E20AA
:1042F0002020202020202020000000004E20202010
:10430000552CC22020492C41202074B0432020206D
:104310000000000088E307207A020010115F01000E
:104320002049EDE0E3F0203D20202020205DC0204A
:1043300020202020000000002055EDE0E3F0203D8B
:1043400020202020205BC220202020200000000010
:10435000202020202020CDC0C3D0D3C7CAC0202019
:1043600020202020000000002046E2E5EDF22EF2A1
:10437000E5EAF3F92E20202020202125000000006E
:104380002046E2E5EDF22E6D61782E2028202040B7
:104390002529202300000000843000002020202058
:1043A00020C2C5CDD2C8CBDFD2CED0202020202045
:1043B000000000007801001020C2EAEBFEF7E5EDF6
:1043C000202020202020202020202020000000006D
:1043D00020C2FBEAEBFEF7E5ED2020202020202084
:1043E00020202020000000002054EFF0FFEC2E20C1
:1043F00020202020307B3A307D3A305B00000000E6
:1044000020D2EEE1F02E20202020202030283A304B
:10441000293A305D0000000020D2EFE5F0E5EAEB3C
:104420002E202020202020303C3A303E000000008A
:104430002049F1F22EEFF02E2020202020202020F5
:10444000202021C0000000002049F1F22EEEE1F012
:104450002E20202020202020202040C0000000000E
:104460002055F1F22EEFF02E2020202020202020B9
:1044700020202342000000002055F1F22EEEE1F052
:104480002E20202020202020202024420000000078
:104490002020202020C0C2D2CED0C5C2C5D0D1207D
:1044A0002020202000000000BDA00290C2A00390A8
:1044B000C7A00490CCA00590D1A00690D6A00790EC
:1044C000DBA00890E0A00990E5A00A90EAA00B907C
:1044D000EFA00C90F4A00D90F9A00E90FF48FE49BB
:1044E000B0F95A0004EB80004160AFF660218160B2
:1044F000AFF6682109F10409C160B9E80E0002981D
:10450000FCF733FA97F9010097F90410421A022ACE
:1045100001DD801E01E0884200DA38710120FCF7DD
:10452000C0F9EF4D2878012873D06FF003022121E4
:10453000ECA000BFFCF749FA687801286ED06FF054
:1045400003024021E7A000BFFCF73FFAA87801284A
:1045500069D06FF003022321E2A000BFFCF735FA17
:10456000E878012864D06FF003022421DDA000BFA9
:10457000FCF72BFA287901285FD06FF00302252180
:10458000D8A000BFFCF721FA687901285AD06FF053
:1045900003025E21D3A000BFFCF717FAA879012817
:1045A00055D06FF003022621CEA000BFFCF70DFA14
:1045B000E879012850D06FF003022A21C9A000BF7A
:1045C000FCF703FA287A01284BD06FF00302282168
:1045D000C4A000BFFCF7F9F9687A012846D06FF053
:1045E00003022921BFA000BFFCF7EFF9A87A012838
:1045F00041D06FF003022B21BAA000BFFCF7E5F910
:10460000E87A01283CD06FF003023D21E4E200E0AB
:1046100004E06FF002022121B4A08BE76FF00202E8
:104620004021B2A090E76FF002022321AFA095E7EE
:104630006FF002022421ADA09AE76FF0020225215B
:10464000AAA09FE76FF002025E21A8A0A4E76FF086
:1046500002022621A5A0A9E76FF002022A21A3A049
:10466000AEE76FF002022821A0A0B3E76FF00202CC
:1046700029219EA0B8E76FF002022B219BA0BDE785
:104680006FF002023D2199A001F0EABE99A00290CC
:104690009EA00390A3A00490A8A00590ADA00690B2
:1046A0008D480790AFF61C400890AFF6204009F106
:1046B00004090990B9E80E000298FCF756F997F939
:1046C000010097F90410421A022A01DD801E01E060
:1046D000884200DA38710120FCF7E3F80AF16E0530
:1046E000002223212888FCF722F8A0480022242158
:1046F0004088FCF71CF89D48022250382521C069EB
:10470000FBF78FFE00225E21A888E7E579A00290E2
:1047100097A003909CA00490A1A00590A6A006904D
:10472000ABA00790B0A0089084A0099089A00A903F
:1047300069480B90AFF6AC400C90AFF6B04009F171
:1047400004090D90B9E80E000298FCF70EF997F9EC
:10475000010097F90410421A022A01DD801E01E0CF
:10476000884200DA38710120FCF79BF87F4D002267
:10477000AD1D21212888FBF7DAFF6888002240213F
:10478000FBF7D5FFA88800222321FBF7D0FFAD1D42
:10479000002228882621FBF7CAFF688800222FE123
:1047A0002020C0C2D2CECCC0D2DB20CDC0C3D0D35B
:1047B000C7CECA200000000020C0E2F2EEECE0F21A
:1047C00020B93120202020202020212000000000BE
:1047D00020C0E2F2EEECE0F220B9322020202020CE
:1047E000202040200000000020C0E2F2EEECE0F2C9
:1047F00020B933202020202020202320000000008A
:1048000020C0E2F2EEECE0F220B93420202020209B
:10481000202024200000000020C0E2F2EEECE0F2B4
:1048200020B9352020202020202025200000000055
:1048300020C0E2F2EEECE0F220B936202020202069
:1048400020205E200000000020C0E2F2EEECE0F24A
:1048500020B9372020202020202026200000000022
:1048600020C0E2F2EEECE0F220B938202020202037
:1048700020202A200000000020C0E2F2EEECE0F24E
:1048800020B93920202020202020282000000000EE
:1048900020C0E2F2EEECE0F220B9313020202020FE
:1048A000202029200000000020C0E2F2EEECE0F21F
:1048B00020B931312020202020202B2000000000B2
:1048C00020C0E2F2EEECE0F220B9313220202020CC
:1048D00020203D20000000008430000078000010FF
:1048E00056EC0720C2DBCACB2E000000C2CACB2E7A
:1048F000000000002020DDCBC5CAD2D0CED1CDC073
:10490000C1C6C5CDC8C520200000000020C2E2EE0F
:10491000E42020202020202023C22020202020202E
:104920000000000020CFDDD12020202020202020EA
:1049300024C2202020202020000000002050F1F37D
:10494000ECEC2E2020202020202025EAC2F22AF79D
:10495000000000002050F2E5EAF3F92E202020208C
:1049600020205EC2F220202000000000480200103B
:1049700020C2E2EEE420F42E412020202021C2209B
:10498000202020200000000020C2E2EEE420F42ECF
:10499000422020202040C2202020202000000000B3
:1049A00020C2E2EEE420F42E432020202023C22067
:1049B000202020200000000020CFDDD12020F42E78
:1049C000412020202026C22020202020000000009E
:1049D00020CFDDD12020F42E422020202029C2200B
:1049E000202020200000000020CFDDD12020F42E48
:1049F000432020202028C22020202020000000006A
:104A00002921FBF794FEA88800222821FBF78FFEBE
:104A1000A5F15C0003222521C069FBF702FD0022FD
:104A20005E21BAF8720059E46C4911F80810552952
:104A300012D06BA1029170A1039175A104917AA18A
:104A400005917FA1069184A1079189490891012AC6
:104A500004DD87F804C004E086A1EBE7A84200DA91
:104A6000387197F9040004EB800154F820204B685A
:104A700086A18CA0FBF779FF0220FBF712FF97F9C4
:104A800002000022401C80B25E21FBF750FE97F925
:104A900002008A49002231F810002121FBF747FE6D
:104AA000864997F90200091D002231F9100070496A
:104AB000493901EB80004021FBF787FF7F4997F9D7
:104AC00002000831002231F810002321FBF72FFEED
:104AD0007A4997F902000C31002231F810002421A4
:104AE000FBF725FE754997F902001031002231F8D5
:104AF0001000252102F028BC5D4B71A0153B1A4621
:104B00001146FBF732FF6D4D0023143D082295F945
:104B10000000012180B2FBF725FD95F9010000237B
:104B200080B209220121FBF71DFD95F90200002347
:104B300080B20A220121FBF715FD97F9012005F14A
:104B4000C600A421115402F001BC63A1029168A126
:104B500003916DA1049172A1059177A1069170A1B5
:104B600007917BA1089180A1099185A10A918AA151
:104B70000B918FA10C9194A10D9199A10E919EA1E1
:104B80000F91A3A11091A8A11191ADA11291B2A171
:104B90001391B7A11491BCA11591C1A11691C6A101
:104BA0001791CBA11891D0A11991D5A11A91DAA191
:104BB0001B91DFA11C91E4A11D91E9A11E91EEA121
:104BC0001F91E7A12091F2A12191F7492291F7A12C
:104BD0002391FCA1249101E28FE20000D400001097
:104BE00020C2FBE2E5E4E5EDE02030212F4020206B
:104BF0002F3023200000000020CDEEECE8ED2EE564
:104C0000ECEA2E202020202024412AF7000000007A
:104C100020CDE0F0E0E1EEF2EAE0202020202020AC
:104C200025F72E200000000020CAEEEDF2F0EEEB9A
:104C3000FC20E5ECEAEEF1F2E82020200000000084
:104C400020C2FBF0E0E2EDE8E2E0FEF9E8E920E76F
:104C5000E0F0FFE40000000020D0E0E7F0FFE4FB1C
:104C600020202020202020202020202000000000C4
:104C7000115F010020C2E2E5E4E5EDE020203021F3
:104C80002F4020202F302320000000002020202053
:104C900020C1C0D2C0D0C5DF204E5E202020202001
:104CA0000000000020C1C0D2C0D0C5C9CDDBC920E2
:104CB000C6D3D0CDC0CB202000000000F8010010EA
:104CC0002020C2E2E5E4E8F2E52020EFE0F0EEEBA0
:104CD000FC2020200000000020C8F1F2EEF7EDE8F3
:104CE000EAEEE220202020202020202100000000E9
:104CF00020CCE0EAF1E8ECE0EBFCEDE0FF20E4EBB7
:104D0000E8F22D200000000020F1F2FC20EFF0EE90
:104D1000F6E5F1F1E02020305B3A305D0000000064
:104D200020CEF2EEE1F0E0E6E5EDE8E520E2F0E5A8
:104D3000ECE5EDE80000000020EFF0EEF6E5F1F123
:104D4000E020202020202020202020400000000003
:104D500020EDE020EFF3EBFCF2E5202020202020E6
:104D6000202020230000000020C8E7ECE5F0E5ED5E
:104D7000E8E520F2EEEAE0202020202000000000FC
:104D800020EDE0E3F0F3E7EAE820202020202020D7
:104D9000202020240000000020D0E5E6E8EC20E3FD
:104DA000EBE0E2EDEEE3EE20ECE5EDFE00000000CE
:104DB00020202020202020202020202020202020F3
:104DC000202020250000000020D4E8EAF1E8F0EEE1
:104DD000E2E0EDEDFBE52020202020200000000097
:104DE0002020202020202020202020EDE0F1F2F0C3
:104DF000EEE9EAE80000000020D0E5EBE520202005
:104E00002020202020202020202020200000000022
:104E100020F2EEEAEEEEE3F0E0EDE8F7E5EDE8FF94
:104E2000202020200000000020D0E5EBE520EAEE65
:104E3000EDF2F0EEEBFF202020202020000000000B
:104E400020EDE0EFF0FFE6E5EDE8FF202020202058
:104E5000202020200000000020D0E5F1F2E0F0F258
:104E600020202020202020202020205E0000000084
:104E70002045746865726E657420202020202020F3
:104E80002020202000000000204D4F444255532098
:104E900041445245535320202020203C0000000074
:104EA000204D4F44425553204241554452415445B0
:104EB0002020202000000000202020202020202072
:104EC000202020202020202020203E300000000034
:104ED00020C0E2F2EEF0E5E2E5F0F1202020202013
:104EE000202020200000000020CFEBE0E2EDEEE5E6
:104EF00020EDE0F0E0F1F2E0EDE8E5200000000058
:104F000020F2EEEAE020202020202020202020286F
:104F1000F1E5EA2E0000000020D3EFF0E0E2EBE53F
:104F2000EDE8E520F1F3F5E8EC202020000000009A
:104F300020EAEEEDF2E0EAF2EEEC20202020202044
:104F4000202020200000000020CDE0F1F2F0EEE96A
:104F5000EAE020F0E5EBE520202020200000000022
:104F600020C2FBEAEBFEF7E5EDE8E520EFEE2020BE
:104F7000202020200000000020F1F7E5F2F7E8EA09
:104F8000F320E0ECEFE5F0F7E0F1EEE200000000E6
:104F900020F1EDE8E6E5EDE8FE20F2EEEAE0202083
:104FA00020202020000000008430000020CAE0EB18
:104FB000E8E1F0EEE2EAE02020202020202020207E
:104FC0000000000020D2E5F1F220D8C8CC2020203B
:104FD000202020202020202000000000E9492591E9
:104FE0002691022A01DD3B7102E0A84200DA387105
:104FF00097F9041004EB8100D0E9012354F8211043
:10500000E1A0FBF7B2FC0120FBF74BFCE44E0022D1
:105010002121B6F8540080B2FBF789FB06F5C07574
:105020003C20A96A91FBF0F191FBF0F200FB121019
:1050300080B200225D21FBF77AFBA96A4FF4616020
:1050400091FBF0F080B200225B21FBF770FB803D0A
:105050006FF00607288B18B1BA1C4021D1A002E0DE
:105060003A464021D1A0FBF7B0FC688B6FF00302F9
:105070004FF0230108B1D0A000E0D1A0FBF7A5FCC0
:10508000288C20B16FF002022421CFA002E03A4622
:105090002421CFA0FBF799FC96F82C0088B30128B7
:1050A00035D06FF0100202284FF0250134D0CBA08C
:1050B000FBF78BFC96F82D0001282FD06FF0030230
:1050C0005E21AFF2E07000BFFBF77FFCBAF836005C
:1050D00000223C21554680B2FBF729FB288F002295
:1050E0003E2180B2FBF723FBB5F93A004FF00002F6
:1050F0004FF0280100287FF496ACAFF6180001F0BD
:10510000AFB9FFE76FF00B022521B9A0D0E76FF030
:1051100011022521BAA0CBE7BEA0C9E76FF00202B9
:105120005E21AFF63800CFE79D4D687A401CC0B2D3
:1051300068720F2807D30020761CF1B26872A97636
:10514000032900D3A876B848CDE9020EA87E20B185
:10515000012804D0022818D003E0B4A000E0B9A0D0
:1051600004907246BDA0049B0299FBF7FEFB97F9E1
:10517000010060B101280FD0022812D0032815D0F9
:10518000042818D005281BD01EE0BAA0E8E7BF49C4
:105190005E2081F82A0017E0BC495E2081F82D00CE
:1051A00012E0BA495E2081F830000DE0B7495E2078
:1051B00081F8330008E0B5495E2081F8360003E04D
:1051C000B2495E2081F83A00B14E30784FF00002CB
:1051D0004FF02601FBF7ABFA307900225E21FBF796
:1051E000A6FA307A00222521FBF7A1FA307B0022B3
:1051F0003C21FBF79CFA307E8B4900225E3901EBA3
:1052000080003E21FBF7E1FBB08B00227B21FBF706
:105210008EFAA87D002802F099803A20FBF779F8F1
:105220009A4D20262E543A20FBF773F82E548AE428
:105230007D4A2AAB16325A4D07CA07C395A0029081
:105240009AA003909FA00490A4A00590A9A0069006
:10525000AEA00790B3A00890B8A00990BDA00A9096
:10526000C2A00B90C7A00C90CCA00D90D1A00E9026
:10527000D6A00F90DBA01090E0A01190E5A01290B6
:10528000EAA01390EFA01490F4A01590F9A0169046
:10529000FE481790B5F86E0040F6180718B138466A
:1052A00009F05AFA20B1F948039036480490059065
:1052B000764E423E96F9010096F90410884201DAD2
:1052C000307104E0411A022901DD801EF8E796F9E9
:1052D000040004EB8001D1E9012354F82010ECA074
:1052E000FBF743FB0120FBF7DCFAB5F86E0050B189
:1052F000384609F031FA012805D06FF00202212169
:10530000AFF6182004E06FF003022121AFF62C2045
:10531000FBF75BFBB5F8700028B16FF0020240218B
:10532000AFF6382004E06FF003024021AFF64C20C6
:10533000FBF74BFB71782320022921D05FF000019D
:10534000CDE90001B5F97830B5F97620B5F97410DA
:10535000B5F97200FBF74AF971782420042910D0BE
:105360005FF00001CDE90001BAF90030B5F97E2007
:10537000B5F97C10B5F97A00FBF738F9717893E14B
:10538000B7E1BAE18C3A00002020202020D3D1D20E
:10539000C0CDCEC2CAC8202020202020000000009E
:1053A00078000010EFF0FFECEEE50000EEE1F0E039
:1053B000F2EDEEE500000000F7F73AECEC0000003B
:1053C000ECEC3AF1F1000000F8F3EDF2000000001F
:1053D000F1F3ECEC49E1EFF100000000E8F1F22E0E
:1053E000EDE0EFF02E2DE8F1F22EF2EEEAE0000013
:1053F000E8F1F2EEF7EDE8EA20F2EEEAE000000074
:10540000E8F1F2EEF7EDE8EA20EDE0EFF0FFE6E597
:10541000EDE8FF00E8F1F22EF2EEEAE02DE8F1F21D
:105420002EEDE0EFF02E0000265F0100202020206E
:10543000203C3E202D20E2FBE1EEF0202020202029
:10544000000000002020205E76202D20F3F1F2E005
:10545000EDEEE2EAE02020200000000020D3D1D2CF
:10546000C0CDCEC2CAC02020C2D0C5CCC5CDC820B8
:10547000000000002020202020A420202D20E2FB7E
:10548000F5EEE42020202020000000007A02001029
:10549000204002402045746865726E6574202020AB
:1054A000202020202020212000000000204448430C
:1054B00050EAEBE8E5EDF2202020202020204020DB
:1054C00000000000204950E0E4F0E5F12020202019
:1054D000202020202020202000000000202030302C
:1054E000302E3030302E3030302E303023202020FF
:1054F0000000000020CCE0F1EAE020EFEEE4F1E56E
:10550000F2E8202020202020000000002020303061
:10551000302E3030302E3030302E303024202020CD
:105520000000000020D8EBFEE720202020202020D3
:1055300020202020202020200000000020203030CB
:10554000302E3030302E3030302E30302920202098
:105550000000000020CFEEF0F22EF7F2E5EDE8FFBC
:10556000202020202020205B0000000020CFEEF033
:10557000F22EE7E0EFE8F1E8202020202020205D57
:105580000000000020436F6D6D756E697479203CDA
:1055900020202020202020200000000020C0E4F057
:1055A000E5F1E0F220E4EBFF2054524150204E316F
:1055B0000000000020203030302E3030302E3030CF
:1055C000302E3030252020200000000020C0E4F0E4
:1055D000E5F1E0F220E4EBFF2054524150204E323E
:1055E0000000000020203030302E3030302E30309F
:1055F000302E30305E2020200000000020C0E4F07B
:10560000E5F1E0F220E4EBFF2054524150204E330C
:105610000000000020203030302E3030302E30306E
:10562000302E3030262020200000000020C0E4F082
:10563000E5F1E0F220E4EBFF2054524150204E34DB
:105640000000000020203030302E3030302E30303E
:10565000302E30302A2020200000000020C0E4F04E
:10566000E5F1E0F220E4EBFF2054524150204E35AA
:105670000000000020203030302E3030302E30300E
:10568000302E303028202020000000008430000020
:1056900020D3D1D2C0CDCEC2CAC8204574686572AD
:1056A0006E657420000000002920062929D0002101
:1056B000CDE90001BAF93430BAF93220BAF9301024
:1056C000BAF92E00FAF792FFBAF82A0000225B21FD
:1056D000554680B2FBF72BF8A88D00225D2180B2E1
:1056E000FBF725F8B5F902006FF00D07FF280CD085
:1056F00014E0B178491CC9B222E6B178491CC9B29C
:1057000030E6B178491CC9B2D2E7A988FF2905D192
:10571000E988FF2902D12989FF2914D0727825212F
:105720000B2A16D05FF00002CDE90012B5F908305F
:10573000B5F90620B5F90410FAF758FFB5F90A00D3
:10574000FF280AD012E03A462521FFA0FBF73DF9D9
:10575000F4E7B278521CD2B2E6E7A989FF2905D155
:10576000E989FF2902D1298AFF2914D071780D29EE
:1057700017D000225E21CDE9001200BFB5F910302C
:10578000B5F90E20B5F90C10FAF730FFB5F9120093
:10579000FF280DD015E03A465E21EBA0FBF715F986
:1057A000F4E7B178491CC9B25E22CDE90021E5E7F2
:1057B000A98AFF2905D1E98AFF2902D1298BFF296E
:1057C00013D0727826210F2A15D00022CDE90012BD
:1057D000B5F91830B5F91620B5F91410FAF706FF27
:1057E000B5F91A00FF280AD012E03A462621D6A0C1
:1057F000FBF7EBF8F4E7B278521CD2B2E6E7A98BDC
:10580000FF2905D1E98BFF2902D1298CFF2914D06A
:1058100072782A21112A16D05FF00002CDE9001219
:10582000B5F92030B5F91E20B5F91C10FAF7DEFEE7
:10583000B5F92200FF280AD012E03A462A21C2A078
:10584000FBF7C3F8F4E7B278521CD2B2E6E7A98CB2
:10585000FF2905D1E98CFF2902D1298DFF2925D007
:1058600072782821132A27D05FF00002CDE90012B8
:10587000B5F92830B5F92620B5F92410FAF7B6FEA7
:10588000B64A00202AA9135C0B54401CC0B2092858
:10589000F9D300208DF8B1007078B2780A280FD0C3
:1058A00000233C212AA8FAF784FEC0E43A462821C6
:1058B000A5A0FBF78AF8E3E7B278521CD2B2D5E78D
:1058C0000123EEE7BAF83C10564601290DD0A4A1F9
:1058D0000291A9A10391AE49049101F60821059115
:1058E0000691A84203DA387105E0AAA1F0E7012A7F
:1058F00001DD87F804C097F9040004EB800154F837
:1059000020204B68A9A1AFA0FBF72FF80220FAF7DF
:10591000C8FFF08F012804D06FF004022121AFA04E
:1059200050E36FF002022121AFA0F9E7B0A102918C
:10593000B5A10391BAA104919549059101F60821F9
:1059400006910791A84201DA387102E0022A00DDCF
:105950003B7197F9041004EB8100D0E9012354F85E
:105960002110B5A0FBF701F80120FAF79AFF0AF120
:105970004E05012228885B2180B2FAF7D8FE68889C
:1059800001225D2180B2FAF7D2FEE88A00222821A6
:1059900080B2FAF7CCFE00222921288BFEF79EBCAC
:1059A000ABA10291B0A10391B5A10491BAA1059157
:1059B000BFA106917649079101F608210891099146
:1059C000A84201DA387103E0012A01DD87F804C03A
:1059D00097F9040004EB800154F820204B68BAA129
:1059E000AFF25C60FAF7C1FF0220FAF75AFFBC4D34
:1059F000688C01281CD06FF004022121B9A000BFDF
:105A0000FAF7E3FFE88C0022402180B2FAF78FFE1C
:105A1000288D0022232180B2FAF789FEE88D00222A
:105A20003C2180B2FAF783FE00223E21288EB5E7A2
:105A30006FF003022121ADA0E2E785A102918AA1C6
:105A400003918FA10491ABA10591B0A1069150499A
:105A5000079101F6082108910991A84201DA3871ED
:105A600003E0012A01DD87F804C097F9040004EB84
:105A7000800154F820204B68AAA1B0A0FAF775FF66
:105A80000220FAF70EFF964DA88C01281CD06FF06B
:105A90000402212193A000BFFAF797FF688D00222E
:105AA000402180B2FAF743FEA88D0022232180B264
:105AB000FAF73DFE688E00223C2180B2FAF737FEED
:105AC00000223E21A88E69E76FF00302212187A002
:105AD000E2E72F4B9FA2A5A1AAA001F044B9AFA174
