:020000040000FA
:10000000F0280820E1000000E5000000E700000003
:10001000E9000000EB000000ED000000000000001F
:10002000000000000000000000000000EF000000E1
:10003000F100000000000000F3000000B7C3000062
:10004000F7000000F9DE000025DF0000F7000000E7
:10005000F700000047FC0000F7000000F700000078
:10006000F7000000F7000000F7000000F7000000B4
:10007000F7000000F7000000F7000000F7000000A4
:10008000F7000000F7000000F7000000F700000094
:10009000F7000000F7000000B5260000F7000000A0
:1000A000F70000001FFA0000F7000000F700000052
:1000B0003D1F0100F7000000F7000000F7000000FE
:1000C000F7000000F7000000F7000000DFF80CD098
:1000D00012F012F80048004725C50000F02808205B
:1000E00005480047FEE7FEE7FEE7FEE7FEE7FEE71E
:1000F000FEE7FEE7FEE7FEE7CD000000FEE710B5F5
:1001000013F0A6FE13F032FF13F024FF13F0B2FE3B
:10011000AFF30080BDE8104013F0EEBE10B514F050
:10012000FFFC15F041FA14F053FDBDE8104014F047
:10013000CBBE14F013BC14F0DBB909B1002070473A
:1001400012F030BF0020704770B5374A0020A2F18E
:100150001401064601F10A030C5C54B11D5CAC426B
:1001600007D1145C2CB1641E14F0FF04145400D1A8
:100170000E540C5C1C54401CC0B20A28ECD370BD59
:1001800070B5294D0024143D641CE4B22E5D1EB1EF
:10019000864201D00A2CF7D3285523480C3040F86A
:1001A0002410283040F824203438035570BD1E4AEE
:1001B0000021143A491CC9B2535C834201D00A2978
:1001C000F8D3DBB2834210D117480C3050F82130FD
:1001D00016480360144B343353F821304360002039
:1001E0005054114A505401207047002070470E4A65
:1001F0000021143A491CC9B2535C834201D00A2938
:10020000F8D3DAB282420CD107480C3050F82120E2
:1002100006480260044A343252F82110416001203D
:100220007047002070470000FC65001014C00720D4
:100230000A4BDA6018705970704708490881704796
:100240000648B0F90810002907D0491E09B20181FB
:10025000002902D1084600F061BB70471CC007208E
:1002600090F900308B4200DA027090F9003093422E
:1002700000DD0170704790F900308B4200DA0170A8
:1002800090F90010914200DD02707047B0F9003023
:100290008B4200DA0180B0F90010914200DD02804B
:1002A0007047B0F900308B4200DA0280B0F90030BC
:1002B000934200DD0180704703688B4201DB1946E1
:1002C00000E00160914200DD0260704740EA0103F6
:1002D0009B0703D009E008C9121F08C0042AFAD2FC
:1002E00003E011F8013B00F8013B521EF9D27047C0
:1002F00000487047EC6B010070477047FFFFFFFF3D
:100300000020FB4A20211154401CC0B2C828FAD357
:1003100070470146F64A0020401CC0B2135C8B4275
:1003200001D0C828F8D3704710B50021F14C0A223B
:10033000B0FBF2F302FB13006054491CC9B218462B
:100340000529F5D310BDF0B5EB4B0121202719701D
:100350000521E84A002601E01C7844B1541814F83D
:10036000015C25B9814202D904F8017C05E05418EA
:1003700014F8015D303525701E70491E11F0FF0123
:10038000EAD1F0BDFEB52B23002802DA404200B2CC
:100390002D2300250A266C4690FBF6F706FB170076
:1003A00060556D1C6DB238B20A2DF5DB01260025B3
:1003B0000920202700E046B114F800C0BCF1000F6E
:1003C00003D1904201DD275405E0265C30362654E7
:1003D00000266D1CEDB2401E40B20028EBDA2D2B3A
:1003E00002D163556D1CEDB26AB168B205E0231805
:1003F00013F8013C2354401E40B29042F7DC2E20FB
:100400006D1CA054EDB20846FFF783FF0021B84AE7
:1004100004E0635C461A491C935549B2A942F8DBD3
:10042000FEBDFEB52B23002801DA40422D23002516
:100430000A266C46074690FBF6F006FB10776755D8
:100440006D1C6DB20A2DF5DB012600250920202741
:1004500000E046B114F800C0BCF1000F03D1904297
:1004600001DD275405E0265C3036265400266D1C3D
:10047000EDB2401E40B20028EBDA2D2B02D16355BD
:100480006D1CEDB26AB168B205E0231813F8013CA7
:100490002354401E40B29042F7DC2E206D1CA05425
:1004A000EDB20846FFF735FF0021914A04E0635C96
:1004B000461A491C935549B2A942F8DBFEBDFEB568
:1004C0002B26002801DA40422D2600240A276D46FB
:1004D000844690FBF7F007FB10CC05F804C0641CC1
:1004E00064B20A2CF4DB0127002009244FF0200C11
:1004F00000E04FB115F804E0BEF1000F04D19C42BA
:1005000002DD05F804C005E02F5D30372F550027C8
:10051000401CC0B2641E64B2002CEADA2D2E02D157
:100520002E54401CC0B26BB144B205E02E1916F82F
:10053000016C2E55641E64B29C42F7DC2E24401CD4
:10054000EC54C0B201EB810102EB8101CAB200217F
:10055000674B04E06C5C561A491C9C5549B28142B9
:10056000F8DBFEBD70B50D4616461C46FFF7DCFEF7
:10057000601CC0B2FFF7E7FE05EB850006EB8000CC
:10058000C1B25C4A5A4B0020A04201D2155C5D54B6
:1005900006D3155C202D03D04CB15E1806F8015C23
:1005A000491E401CC0B2C9B20528EDD370BD5D54D0
:1005B000F6E770B50446084615461E46FFF7A9FE45
:1005C0004B4B0146FF2804D106E01A54641C401C22
:1005D000C0B22278002AF8D148480078002804D018
:1005E000002E02D029445F20585470BD2DE9FF4FE2
:1005F0008146DDE90D048A469346FFF78AFE2022F4
:10060000DFF8F8803A490A234FF0640C012C09D135
:1006100098F8005035B10D18A5F10E05AA706A7052
:100620002A7020E099FBF3F603FB16970D1830377C
:10063000A5F10E05022CAF7096FBF3F703FB1766CE
:1006400006F130066E7099FBFCF606F1300605F8EF
:100650000E6B08D198F800602EB1A5F10A05AA70BA
:100660006A702A7021E09AFBF3F603FB16A70D18B7
:100670003037A5F10A05032CAF7096FBF3F703FBA7
:10068000176606F130066E709AFBFCF606F130062E
:10069000674605F80A6B08D198F800602EB1A5F1FD
:1006A0000605AA706A702A702AE09BFBF3F603FB2A
:1006B00016B70D183037A5F10605042CAF7096FB60
:1006C000F3F703FB176606F130066E709BFBFCF632
:1006D00006F13006674605F8066B11D198F8004020
:1006E00074B1A5F102050A546A702A70BDE8FF8F43
:1006F0004E02001096C00720D003001062000010C8
:10070000039C94FBF3F203FB124430340C5492FB31
:10071000F3F403FB14220844A0F1020030324270CB
:10072000039991FBF7F101F130010170DEE770B53B
:100730000D461446FFF7F8FD601CC0B2FFF703FE3C
:100740002846FFF7E6FDB44BB44A002124B95D5CAE
:10075000202D01D015540FE0A14201D25D5CF9E7D4
:1007600004D14FF02E0515545D5C02E05D5C202D38
:1007700002D0161806F8015C401E491CC9B2C0B26E
:100780000529E3D370BD17B501EB810002EB8000B2
:10079000C2B29DF80030A24803F00F0100EB131322
:1007A000445C9E498C54521ED2B21B788B549DF8E7
:1007B0000130521E03F00F04D2B2045D8C54521E5D
:1007C00000EB1313D2B21B788B549DF80230521EEB
:1007D00003F00F04D2B2045D8C54521E00EB1313CD
:1007E000D2B21B788B549DF80330521E03F00F04D5
:1007F000D2B2045D8C54521E00EB1310D2B20078BA
:1008000088541EBD01EB810102EB8101844A10B5C1
:1008100000F00F03C9B2D45C804B02EB10105C54A3
:10082000491EC9B20078585410BD01EB810102EB9A
:100830008101CBB27A4910B500F001028C5C774A95
:10084000D45444085B1E04F00100DBB2085CD054B1
:100850005B1ED8B2630803F001045B080C5D1454FE
:10086000401E03F00104C0B20C5D14545B08401E2E
:1008700003F00104C0B20C5D14545B08401E03F089
:100880000104C0B20C5D14545B08401E03F0010467
:10089000C0B20C5D1454401EC4B25808085C105518
:1008A00010BD30B55F4901235C4D91F9012091F9EC
:1008B000041000EB80048A4202D105F8243030BDD8
:1008C000564D4C1C00EB800005EB8000A24201D18C
:1008D000037530BD8C1CA24202D180F8283030BD97
:1008E000CC1CA24202D180F83C3030BD0C1DA2428B
:1008F00002D180F8503030BD4C1DA24202D180F8A8
:10090000643030BD8C1DA24202D180F8783030BDF9
:10091000C91D8A42FBD180F88C3030BD424B1A8809
:10092000521E104400B21880404A00EB800002447E
:100930003C48136803601279027142781144417097
:100940007047F0B5384D394FB5F9004004EB8406D7
:10095000641C2C80334C3E44256835602579357104
:10096000207061702271A370F0BDF0B505460E468F
:100970001746FFF7C5FC294C5FF00000401C15F836
:10098000011BC0B204F8011B1428F7D35FF000006C
:10099000401C16F8011BC0B204F8011B1428F7D341
:1009A0005FF00000401C17F8011BC0B204F8011BE7
:1009B0001428F7D35FF00000401C13F8011BC0B2ED
:1009C00004F8011B1428F7D3F0BD30B504460846DF
:1009D0001546FFF79EFCFF2809D0104A2178002910
:1009E00005D04319641C401CD154C0B2F6E730BD99
:1009F00010B5029CFFF7B9FF0A48C37882784178A6
:100A00006420FFF79EFF642094FBF0F0BDE81040E7
:100A1000C0B2FFF712BC000096C007204E020010C3
:100A20000A6501000C02001080000010B2EB0720E4
:100A300010B5FD4C082200212088401C2080204653
:100A4000FFF72FFCF948B4F9001000EB4101428890
:100A50000A84B0F84E00A1F86C0010BDF44A30B41E
:100A6000F449B2F90A4040F6AC53B1F900009C4297
:100A700003DCB2F914209A4203DD142804DA401C86
:100A800001E008B1401E0880142230BC0021E94872
:100A9000FFF7FCBBF0B5E648E7494FF42F72B0F919
:100AA0000000B1F90010E54B484390FBF2F01880CC
:100AB000DF4842F210732030B0F90000484390FB49
:100AC000F2F0DF49E24A0880DF49DE48B1F9004030
:100AD000DE490088B1F90010001B484390FBF3F099
:100AE0001080001B484390FBF3F0DA49DC4C08808F
:100AF000D9480188D948B0F9003071B900210846B9
:100B000008E000BF00EB800504EB0515401C2D6AD2
:100B1000C0B229449842F5DB1180B2F900000021EF
:100B2000002800DA1180002202EB820004EB0010A2
:100B3000C578192D1BD28579C67905EB0626066284
:100B4000067A477A06EB0726C661867AC77A06EBED
:100B500007268661067B466280F84E50857B80F8CA
:100B60003E50057C467C05EB0625856406E08161E8
:100B70000162C161416280F83E108164521CD2B2B0
:100B80000C2AD1D3B748B849008858430880B748E1
:100B9000B749008858430880F0BDB648416821F441
:100BA000402141F480214160416821F4403141F409
:100BB00080314160416821F4404141F4804141600D
:100BC000416C21F4402141F400214164416C21F445
:100BD000403141F400314164416C21F4404141F421
:100BE00000414164A448016821F0E06101600168AE
:100BF00041F400110160016821F480310160016855
:100C000021F47F4141F4807101608115C1609B48EE
:100C10008903016070472DE9F041994C6088218873
:100C2000401A00B201F002FDA51D2880A08861884D
:100C3000401A00B201F0FAFC6880A0882188401AAE
:100C400000B201F0F3FC4FF49672A880A4F12801E1
:100C5000904201DAA0880AE0B5F90200904201DA78
:100C6000608804E0B5F90000904201DA20884882EB
:100C70004C7800231CB36E48B1F91220403005684F
:100C800015440560456815444560856815448560D0
:100C9000C5682A44C2604A8B521C12B24A83B2F51C
:100CA000805F00DB4B83B1F91A20950535D1921294
:100CB00050F822502D120D8240F822302DE0714F55
:100CC000887891F803C007EBC012B1F912E042F83E
:100CD0002CE05FEA8C7212D100252A4607EBC01681
:100CE00056F82270521CD2B23D44202AF8D36A1121
:100CF0004F4D25F8102005F1200222F810E0401C8D
:100D0000C0B28870102808D30CF1010C0CF0FF0061
:100D10008B70C870202800D3CB70641C0B7014F04B
:100D20000100554A487005D0106820F0FF00001DF2
:100D3000106034E0897808070028106820F0FF0070
:100D400002DB00F1010001E000F1020010604E48FA
:100D5000036843F080530360036A43F080430362F7
:100D6000036E43F080630366CB07436908D043F00A
:100D7000805343618B07436B05D423F0804304E029
:100D800023F08053F5E743F0804343634907416F05
:100D900002D421F0806101E041F080614167106878
:100DA00040F080701060BDE8F08110B50021D020C7
:100DB0000DF071FE0021BDE81040D4200DF06BBE97
:100DC00070B5324C32480025217851B33149098839
:100DD00039B31F4A0168B2F9002011440160B1F52E
:100DE000616F1FDB2C4EA1F56161016031684FF42A
:100DF0009E70491C31600DF04EFE28493068B1F9F3
:100E0000001088420EDB2570FFF7CFFF00231A4643
:100E100001217820FFF795FDBDE870400020FFF725
:100E20000CBA056070BD0000CC030010F0E1072093
:100E300088650010420100104CC007201A01001004
:100E400094C0072056E10720A0C00720DE03001051
:100E50001C010010CE0300106C010010A000001057
:100E600088E2072048010010680100104A010010C4
:100E70006A01001000C002400040034000E100E0B1
:100E800030000010885D001000C009204F000010E5
:100E9000BCC007200C010010040200100E0100105D
:100EA00070B5FF4CFF4A00212578FF48F5B3FF4B92
:100EB0001B88DBB3FE4EB0F90030B6F90060B342D8
:100EC00002DA5B1C0380ADE70020012D02D0022D69
:100ED00002D004E0F74800E0F748B0F90000F74B13
:100EE000B3F900305843642390FBF3F0F44B00B2A5
:100EF0001880F44BB3F90030834216DA1088401C96
:100F000000B21080F04AB2F9002090428ADB2170D2
:100F1000FFF74BFF00231A4602217820FFF711FD4F
:100F2000BDE870400020FFF788B900E001E01180C3
:100F300078E70180F9E72DE9F05FDFF86483DFF8F7
:100F40008CB3E34D98F80000E24FDFF88C93012654
:100F500000244FF4167A012862D1E0480168491C48
:100F600091FBFAF201600AFB121030B9DC480078FC
:100F7000012802D1D0200DF08EFDD9F8001048468E
:100F800009B1491E01600846D649B1F9001008436D
:100F90000CD188F80040FFF708FF00231A461946D5
:100FA0007820FFF7CEFC0020FFF747F9CE480088F5
:100FB000B0B3BBF8000098B3CC4B1888401C01B20A
:100FC000CB481980027832B1012A0CD0022A15D000
:100FD000032A1CD024E0C74A2E70B2F900209142A7
:100FE0001EDB06701BE039B185F80040B7F9002020
:100FF000914215DB022108E02E70F7E7BE4A2C7003
:10100000B2F9002091420BDB0321017007E0A9B186
:1010100085F80060B7F90020914201DB04701C8064
:1010200098F8000002285CD1AC480168491C91FB8B
:10103000FAF201600AFB121010B108E02C70E9E727
:10104000A7480078012802D1D4200DF024FDD9F85A
:101050000010484609B1491E01600846A749B1F988
:10106000001008430CD188F80040FFF79EFE0023D3
:101070001A4619467820FFF764FC0020FFF7DDF8D8
:101080009948008800282CD0BBF80000002828D000
:1010900096480188491C0AB2954902800B786BB1C9
:1010A000012B13D0022B1ED0032B1AD122B32E708A
:1010B000B7F900309A4214DB0C7011E08D4B2E70A2
:1010C000B3F900309A420CDB0E7009E032B12C709B
:1010D000B7F900309A4204DB02220BE02E70F7E7EA
:1010E0000480BDE8F09F844B2C70B3F900309A4225
:1010F000F7DB03220A70F3E72C70D9E770B5684874
:101100000078032843D17E497E480A68521C0A6051
:10111000B0F900507C48B0F900002B187B48B0F9BA
:1011200000001C187A48B0F90000261800209642EA
:1011300004DC784E08603288521C32800968764E92
:101140000122A94201DB327000E03070734D8B4206
:1011500003DC8C4201DD2A7000E0287070490A88A7
:10116000521C12B20A80B2F5167F10DB08806D495E
:101170000A88521C12B20A803C2A08DB08806A499D
:101180000A88521C12B20A80182A00DB088049E63D
:101190000121D0200DF07FBC0121D4200DF07BBCBB
:1011A00070B53F480125002405704C484A49046049
:1011B0005E4800680860FFF7EBFF5D48C571047288
:1011C0004948008840B14148008828B14748048018
:1011D000474804703E48057056482146046056480A
:1011E0000460BDE870404FF49E700DF054BC2C4973
:1011F00010B50220087039480024374904604F4870
:1012000000680860FFF7C8FF49490120C8710C72E7
:101210003549098841B12D49098829B133490C80E4
:1012200033490C702A4908704248214604604248FC
:101230000460BDE810404FF49E700DF02CBC1849BE
:101240000320087070471649002008707047144941
:101250000020087070471249002008702849086073
:101260002C4908802E4908802E4908802E49088084
:1012700070470B490020087097E52DE9F0410024E4
:1012800006464FF4FA75A046274628460DF00CFB9B
:10129000B0427ADA05EB47000DF006FBB0424FE0B2
:1012A0004F000010F8030010C0C00720100100100C
:1012B000160100108E0100105E01001012010010D6
:1012C000FA0300101C010010180100109A01001010
:1012D00051000010A0010010FC010010F8010010E6
:1012E000790000106001001098010010F203001056
:1012F000520000109C0100109E01001062010010BD
:1013000000020010AA010010AC010010AE01001094
:10131000B0010010B6010010BAC00720F60300109B
:10132000B6C00720F4030010B8C00720EC0100107D
:1013300008000010BCC0072004020010F0010010DB
:1013400000DC3C460A373FB2C82FA3DDC82C0FDAB9
:1013500004F10A0709E000BF05EB44000DF0A4FA10
:10136000B04200DCA046641C24B2BC42F4DB0CE0BA
:101370005FF0C80405EB44000DF096FAB04200DCC3
:10138000A046641C24B2CA2CF4DD40460BE52DE9CE
:10139000F041002406464FF47A75A04627462846B9
:1013A0000DF082FAB04228DA05EB47000DF07CFA26
:1013B000B04200DC3C460A373FB2C82FF4DDC82CEF
:1013C0000EDA04F10A0708E005EB44000DF06CFAB0
:1013D000B04200DCA046641C24B2BC42F4DB0CE04A
:1013E0005FF0C80405EB44000DF05EFAB04200DC8B
:1013F000A046641C24B2CA2CF4DD4046D3E42DE997
:10140000F05FDFF8089442F2ED784FF0000A99F8A7
:10141000000040F2FE3BFE4FFE4EFF4C32254528B9
:101420002AD13078012858D12088401C00B2208071
:10143000404509DB86F800A0F849AC200DF0F1FA30
:1014400000210846FFF76AFAF549A1F800B0B4F99F
:10145000001091FBF5F005FB101100EB80023A80C3
:10146000312909D14FF4FA7101EB4000ED4900B286
:10147000B1F900100DF0D5FA99F8000044282CD1EC
:101480003078012829D12088401C00B220804045B6
:1014900009DB86F800A0E149AE200DF0C2FA002178
:1014A0000846FFF73BFAA7F800B0B4F90010DC4B90
:1014B00091FBF5F005FB101100EB80021A80312939
:1014C0000BD14FF47A7101EB4000D74900B2B1F96A
:1014D0000010BDE8F05F0DF0A4BA02E62DE9FC5F54
:1014E000D248DFF84CA3008838B3D248008820B334
:1014F000D1489AF80030B0F90010D048012B00789C
:1015000007D0CF4A022BB2F900200DD0CD4802807F
:1015100003E0012801D010B125E0CB4822E0CB4800
:10152000C949008808801EE0012801D018B11AE0DE
:10153000C448028017E0C64812E0C648B0F900006F
:1015400002285AD001285AD0C3480188BE480180D9
:10155000C248B0F90000022853D0012853D0C04837
:101560000188B8480180BF48B0F90020BE48B0F9F2
:101570000010B548FEF78AFEBC48B0F90020BC4810
:10158000B0F90010AF48FEF781FEBA4E00254FF0CB
:10159000010870790A2807D2401CC0B270710A286D
:1015A00002D3757186F806809848B349B34A037828
:1015B000B34CB44F40F2FE39302B26D02B2B7AD0CF
:1015C0009348974A332B77D0DFF848C2452B74D025
:1015D000442B73D09AF800209348DFF8ACA2DFF8D0
:1015E000ACB2012A6BD0022A6AD0032A69D00D70EE
:1015F00000204346B7F90020F2E3A548A5E7A54837
:10160000A3E7A548ACE7A548AAE790F9010038B1DF
:1016100001281ED00D70E562256384F828807EE2E3
:10162000A6F80C90A6F80E9081F800804A4600209B
:10163000B7F900100AE000BF00EB800304EB0313CE
:10164000401CDA621A6383F82850C0B28842F3DB88
:1016500065E2107810B1012815D060E2B581F581FE
:101660000D7000204346B7F9002009E000EB80012F
:1016700004EB0111401CCD620D6381F82830C0B22B
:101680009042F3DBFCE3A6F80C90A6F80E9081F8EC
:1016900000804A460020B7F9001009E000EB800303
:1016A00004EB0313401CDA621A6383F82850C0B2BB
:1016B0008842F3DBE4E305E0FDE012E13DE168E1AF
:1016C0002EE2E9E290F9013013B1032B58D05EE02D
:1016D000A6F80C90A6F80E9081F80080E5622563CC
:1016E00084F82880E567C4F8805084F87880C4F8CE
:1016F000CC50C4F8D05084F8C880C4F81C51C4F849
:10170000205184F81881C4F86C51C4F8705184F8E1
:101710006881C4F8BC514246C4F8C05184F8B8216D
:10172000C4F80C52C4F8105284F80822C4F85C5271
:10173000C4F8605284F85822C4F8AC52C4F8B052CD
:1017400084F8A822C4F8FC52C4F8005384F8F822A4
:10175000C4F84C53C4F8505384F84823C4F89C533D
:10176000C4F8A05384F8982390F902004B4600EB8C
:10177000800004EB0010C362036380F828507FE30D
:10178000127812B1012AA3D07AE3B581F58104F170
:1017900028040D706560A56084F800806565A56506
:1017A00084F85080C4F8A450C4F8A85084F8A080ED
:1017B000C4F8F450C4F8F85084F8F080C4F84451E8
:1017C000C4F8485184F84081C4F89451C4F8985141
:1017D00084F89081C4F8E4514046C4F8E85184F894
:1017E000E001C4F83452C4F8385284F83002C4F826
:1017F0008452C4F8885284F88002C4F8D452C4F8E1
:10180000D85284F8D002C4F8245349E00C020010E6
:10181000300100105000001082000010CDABFFFF1F
:10182000320100101A0100101C0100109801001074
:101830004F0000109A010010A2010010510000108A
:10184000A6010010900100108E010010A4010010EC
:10185000A801001092010010500100109401001026
:1018600056010010680100106A01001044010010C8
:1018700046010010080000107A03001066000010F6
:1018800088E20720A0000010DC0300109EC00720A3
:1018900054010010520100105A01001058010010AC
:1018A000C4F8285384F82003C4F87453C4F8785358
:1018B00084F87003E4E20021B0F90000B2F90020DE
:1018C000B7F900300AE000BF01EB810704EB07170E
:1018D000491CC7E90B0287F82850C9B29942F3DBCB
:1018E000CEE29CF80010012911D000204946B7F93A
:1018F000002009E000EB800304EB0313401CD962D5
:10190000196383F82850C0B29042F3DBB8E200219B
:10191000B0F90000B2F90020B7F900300AE000BFCA
:1019200001EB810704EB0717491CC7E90B0287F895
:101930002850C9B29942F3DBA2E29CF800100129B9
:1019400011D000204946B7F9002009E000EB8003E0
:1019500004EB0313401CD962196383F82850C0B20A
:101960009042F3DB8CE20021B0F90000B2F90020D4
:10197000B7F900300AE000BF01EB810704EB07175D
:10198000491CC7E90B0287F82850C9B29942F3DB1A
:1019900076E2FF49B1F9002062B1FE490B6893423B
:1019A00008DADFF8F4C3BCF90010594391FBF2F1F7
:1019B000ACF80010B17981B3F849098841B1F84910
:1019C000098829B1F7490978012933D0032931D091
:1019D000B0F90010F048B0F90000814204DABBF819
:1019E000001001F1010104E005DDBBF80010A1F1D8
:1019F0000101ABF8001032225142EB48FEF746FCE1
:101A0000EA48B0F90010EA48B0F90000814205DA6E
:101A1000BAF8001001F1010105E00BE005DDBAF8AC
:101A20000010A1F10101AAF8001032225142E14850
:101A3000FEF72CFCDE48E049B0F90000B1F90010D7
:101A4000C0EB4020400090FBF1F00090D248DB4911
:101A5000B0F90000B1F90010C0EB4020400090FB4D
:101A6000F1F08146AC200CF01FFFA0F52B41CD39E1
:101A700007D1CF48B0F90000FFF7FFFB00EB800073
:101A80000090AE200CF010FFA0F52B41CD3907D10E
:101A9000C148B0F90000FFF77AFC00EB80008146F6
:101AA0000020B7F9003038E0BC49098841B1BC4991
:101AB000098829B1BB49097801290ED003290CD026
:101AC00000990AB2BAF90010521800EB800104EB39
:101AD0000111CA620AD5CD620DE000EB800104EB72
:101AE0000111CD620D6381F8288014E040F2FE37C9
:101AF000BA4200DDCF62BBF900200FFA89F7BA18AD
:101B00000A6301D50D6304E040F2FE37BA4200DDFE
:101B10000F6381F82850401CC0B29842C4DBAFE18B
:101B2000A749B1F90010052902DD86F8088000E018
:101B30003572F571B17991B3317A81B3B0F9001092
:101B4000A048B0F90000814204DABBF8001001F1AE
:101B5000010104E005DDBBF80010A1F10101ABF8C3
:101B60000010322251429048FEF790FB9448B0F9A1
:101B700000109548B0F90000814204DABAF800106C
:101B800001F1010104E005DDBAF80010A1F1010145
:101B9000AAF80010322251428648FEF777FB8A48A5
:101BA0004FF46171B0F9000048438349B1F9001066
:101BB00090FBF1F032300090AC200CF075FEA0F5F7
:101BC0002B41CD3907D18048B0F90000FFF755FB14
:101BD00000EB800000907B487849B0F90000B1F933
:101BE0000010C0EB4020400090FBF1F08146AE2099
:101BF0000CF05AFEA0F52B41CD3907D17148B0F950
:101C00000000FFF7C4FB00EB800081460020B7F91D
:101C1000003038E06149098841B16149098829B13A
:101C20006049097801290ED003290CD000990AB225
:101C3000BAF90010521800EB800104EB0111CA62DE
:101C40000AD5CD620DE000EB800104EB0111CD62FD
:101C50000D6381F8288014E040F2FE37BA4200DDBF
:101C6000CF62BBF900200FFA89F7BA180A6301D5D1
:101C70000D6304E040F2FE37BA4200DD0F6381F8E5
:101C80002850401CC0B29842C4DB504900980880DC
:101C90004F49E06A0880F3E0B179A1B34D49097872
:101CA00089BB4D49B0F90000B1F9001001EB810189
:101CB000B0EB410F06DABBF8001001F10101ABF8FF
:101CC000001006E005DDBBF80000A0F10100ABF854
:101CD00000004A4629463448FEF7D8FA32225142DB
:101CE0003148FEF7D3FA3D483049B0F90000B1F968
:101CF000001000EB8000B1EB400F05DABAF80010DD
:101D000001F1010105E010E005DDBAF80010A1F1D4
:101D10000101AAF800104A4629462348FEF7B6FA00
:101D2000322251422348FEF7B1FA2C4842F2EC71BC
:101D3000B0F9000048432049B1F9001090FBF1F0E0
:101D40000090254842F2EC71B0F9000048431B496D
:101D5000B1F9001090FBF1F00190AC200CF0A4FD63
:101D6000A0F52B41CD390AD11C48008800EB80003A
:101D7000400000B2FFF781FA00EB80000090AE2037
:101D80000CF092FDA0F52B41CD3934D1124828E05A
:101D900006010010F80100108E01001098010010DB
:101DA0009A010010520000109EC007201A01001076
:101DB0005C010010DC0300104401001068010010F9
:101DC00094C007205E01001090010010A8C00720F9
:101DD000E4030010BAC00720B4010010B2010010E3
:101DE00048E0008800EB8000400000B2FFF7CFFA27
:101DF00000EB800001900020B7F900202DE0FF49A2
:101E0000097841B100EB800104EB0111CD620D6353
:101E100081F828801FE000990BB2BAF900105B1816
:101E200000EB800104EB0111CB6201D5CD6203E030
:101E30004B4501DDC1F82C90019B1FB2BBF900306E
:101E4000FB180B6301D50D6303E04B4501DDC1F8C1
:101E5000309081F82850401CC0B29042CFDB0FE098
:101E600000EB800104EB0111401CCD620D6381F891
:101E70002830C0B29042F3DBABF80050AAF8005013
:101E8000B571BDE8FC9F00EB8001DD4810B500EBAB
:101E900001100178032972D190F83E108A07B0F939
:101EA00042200CD54FF496639A420DDA521C12B2BE
:101EB000A0F842209A4207DBA0F8423004E01AB1B1
:101EC000A2F10102A0F842200A07B0F944204FF025
:101ED0000A034FF000040AD50A2A13DA521C12B280
:101EE000A0F844200A2A0DDBA0F844300AE0002ABA
:101EF00005DDA2F1010212B2A0F8442002E001DAED
:101F0000A0F84440CA06B0F946200AD50A2A0DDADC
:101F1000521C12B2A0F846200A2A07DBA0F846306D
:101F200004E01AB1521E12B2A0F8462042781207FD
:101F300001D004210FE0B34A127822B1C278142AEA
:101F400001D9052107E0890601D5022103E0C17806
:101F5000142901D201218170C1780A2990F8281032
:101F600002D341F0800101E001F07F0180F82810E8
:101F7000A549B1F90C20C262B1F90E10016310BD80
:101F80002DE9F047A148A24E9F4C0078002510B3E0
:101F9000B6F9000000EB8001B4F92000B0EB410F6E
:101FA00001DA401C20849B48DFF86C8247F2305AEB
:101FB000B0F9000000EB8001B8F90000B0EB410F70
:101FC0000BDD608C5246401C60848F48002122301B
:101FD000FEF75CF902E02584E5E76584DFF83C92D2
:101FE0000127B9F9000000EB8001B4F92200B0EB41
:101FF000410F0ADBB6F90010B4F9202001EB810192
:10200000B2EB410F01DB677201E000B965728448F1
:10201000B0F9000000EB8001B8F90000B0EB410F0F
:1020200009DAA08C5246401CA08477480021243055
:10203000FEF72CF900E0A584B9F9000000EB80015F
:10204000B4F92400B0EB410F0ADBB6F90010B4F983
:10205000202001EB8101B2EB410F01DBA77202E00E
:1020600030B1A07A28B1607A18B1E772BDE8F08784
:10207000A572E572FAE72DE9F05F6448DFF8A48104
:10208000DFF8A4B101786448DFF8A0A1684DB0F989
:102090000000684E0027684C022911D0012925D084
:1020A000278066492868B1F90010884243DD6449F9
:1020B0003068B1F9001088423DDA2088401C3CE0CD
:1020C000DFF88091B9F80010401A00B200F0AEFAC3
:1020D000C8F8000064214843B9F90010DFF86881AE
:1020E00090FBF1F02860BBF8001014E0DFF85C9181
:1020F000B9F80010401A00B200F098FAC8F80000D1
:1021000064214843B9F90010DFF8448190FBF1F0F5
:102110002860BBF80010B8F80000081A00B200F000
:1021200085FA6421CAF800004843B8F9001090FB12
:10213000F1F03060B5E72088401E464D20800A212E
:10214000288800EB800001EB400002B200213A48F1
:10215000FEF79CF82D48007800B927803E483F499B
:102160003F4A0068B1F9001088420ADBB5F9003037
:10217000B4F9006003EB8303B6EB430F01DD0123E9
:102180001370884208DBB5F90000B4F9001000EBC9
:102190008000B1EB400F00DC1770BDE8F09F2DE927
:1021A000F04F1A48324BDFF8BCE090F800C02E48E0
:1021B000B3F900602F4B0078BEF9004082462B48EF
:1021C0000021B3F9003000788346254805780E4891
:1021D000C77A90F80A80407A81460B48263001225F
:1021E00054B1012C48D0022C51D0032C57D0042CD0
:1021F0005DD0052C67D072E04EE00000BAC0072029
:1022000088E207209BC00720080000104F00001044
:1022100076010010800100101A01001078010010F2
:102220007E010010ACC007201C010010B0C00720C8
:10223000E8030010EC030010B4C007207A0100107E
:102240007C010010560100105E0100105C010010BE
:102250008E01001074010010F801001072010010CE
:10226000F003001008020010F603001051000010E7
:102270006E01001070010010BCF1030F03D0BBF120
:10228000000F41D02AE0BAF1000F3DD126E016B18F
:10229000012E02D023E00DB336E0A5B31EE013B14A
:1022A000012B02D01BE0CFB12EE067B316E013B1D3
:1022B000012B04D013E0B8F1000F0FD024E0B8F1E7
:1022C000000F21D00AE013B1012B04D007E0B9F1CF
:1022D000000F03D018E0B9F1000F15D00270BEF95D
:1022E00002409CB1012C14D0022C1ED0032C25D00E
:1022F000042C2CD0052C0AD183B3012B07D1B9F1C2
:10230000000F0CD102E0FFE70170E8E74170BDE883
:10231000F08FBCF1030F04D0BBF1000FF6D0427078
:10232000F5E7BAF1000FF1D1F9E726B1012EEED1B0
:10233000002DF4D1EAE7002DF1D0E7E723B1012B1E
:10234000E5D1002FEBD1E1E7002FE8D0DEE733B194
:10235000012BDCD1B8F1000FE1D1D7E703E0B8F1F0
:10236000000FDCD0D2E7B9F1000FD8D0CEE7144986
:10237000086820F4404008601248026842F0800279
:102380000260114A1378012B436912D043F0800395
:1023900043610B6823F440630B60016841F0200146
:1023A000016051780129416906D041F02001416165
:1023B000704723F08003EBE721F02001F7E70000EE
:1023C00000C0024000C009202E0000102DE9F84F87
:1023D00007460020804605460446542659B1012987
:1023E00004D0022904D0032904D004E0552602E0D9
:1023F000752600E04C268C48DFF8289207EB87030F
:102400004FF0000A00EB0310012A02D0002A7ED010
:1024100003E131B1012908D002290AD003290CD0E7
:102420000FE0427842F001020AE0427842F00202F4
:1024300006E0427842F0040202E0427842F00802EC
:10244000427080F84F1053208DF800008DF8017015
:102450008DF8026055468DF803A0694628460CF0B9
:102460005CFB6946042000950CF057FBB9F83C0072
:1024700009F120048DF80000207E8DF80100207BFA
:102480008DF802008DF8035069464FF008000CF0FB
:1024900044FB207A8DF8000020798DF80100207827
:1024A0008DF802008DF8035069460C200CF035FBC6
:1024B00041248DF800408DF801408DF802408DF8E0
:1024C0000340694610200CF028FB8DF800408DF881
:1024D00001408DF802408DF80340694614200CF04D
:1024E0001CFB8DF800408DF801408DF802408DF8FE
:1024F0000340694618200CF010FB8DF800408DF861
:1025000001408DF802408DF80340694600E001E08B
:102510001C2080E031B1012908D0022913D0032901
:1025200015D007E0417821F0010102E0417821F067
:102530000201417005F110004FEA000B9DF8000008
:10254000532818D107E0417821F00401F1E74178E0
:1025500021F00801EDE79DF80100B8420BD19DF88C
:102560000200B04207D1694658460CF01AFA9DF8AD
:102570000000412805D0F4B3641EA4B24445DDD167
:102580004BE09DF801004128F5D19DF8020041285B
:10259000F1D19DF803004128EDD1B9F83C0009F1D3
:1025A00020048DF80000207E8DF80100207B8DF83E
:1025B000020056468DF803A0694658460CF0ADFA65
:1025C000207A8DF8000020798DF8010020788DF8B0
:1025D00002008DF80360694605F114000CF09DFAC5
:1025E00042248DF800408DF801408DF802408DF8AE
:1025F0000340694600E013E005F118000CF08DFA85
:102600008DF800408DF801408DF802408DF80340B0
:10261000694605F11C000CF080FA00BFBDE8F88F98
:102620003F248BE70040024088E20720002801DABF
:10263000404200B2704710B540F2D4700CF034F94B
:10264000F94C207040F2D6700CF02EF960704FF407
:10265000FB600CF029F9A07040F2DA700CF024F95C
:10266000E07040F2DC700CF01FF9207240F2DE7076
:102670000CF01AF960724FF4FC600CF015F9A072BE
:1026800040F2E2700CF010F9E0724FF401600CF0CF
:102690000BF9207140F612000CF006F9607140F65B
:1026A00014000CF001F9A07140F616000CF0FCF8D3
:1026B000E07110BDDD4810B5016821F0E0610160F6
:1026C0004168DC4AC1F30B13D94C117824F811305E
:1026D000491CC9B21170032903D2016841F080710D
:1026E000016010BD2DE9F041D34DD44E012728885B
:1026F000D34C401C00B2288003280DDB06200CF0D0
:10270000D3F848B93068C00706D1A07820B90121B4
:1027100006200CF086F9A770B5F90000B0F5967F99
:102720000EDB06200CF0C0F8012809D13068C00784
:1027300006D1A07820B9012106200CF072F9A7700B
:10274000B4F9320014280ADB06200CF0ADF800289A
:1027500005D0BDE8F041002106200CF062B9BDE8CB
:10276000F0812DE9FF41B64900258031A1F15E04D9
:10277000B1F9780000EB400202EBC0000A2290FBA6
:10278000F2F0A084A0850320E0842078401CC0B231
:1027900004F82209182802D384F8225001E00F28F7
:1027A00043D82120FDF723FD50B1A64800882228F8
:1027B00006D1A54894F8221090F90200884232D040
:1027C00094F82B00A14D98B994F8220000EB8001F9
:1027D00005EB011202F128021179577A167A537922
:1027E0008DE8CA0013784FF0ED0201460FF044F86F
:1027F00094F822000F2816D200EB800005EB0010A1
:10280000C1783C2905D2491CC9B2C170032902D242
:1028100007E03C21C1700179032902D24179491CAA
:102820004171C1780171BDE8FF81854B112893F892
:102830002B3019D01228F6D1002BF4D1B1F97C003D
:10284000814990FBF2F0BE39C0B24B780C78891EFA
:102850004A78CDE90230CDE900240B782922FF2106
:1028600008460FF009F8DEE7002BDCD174484E3043
:102870004178027808384378CDE90032CDE9021575
:1028800003786222EBE770490020543908704870E1
:1028900088705431487070472DE9F04FDFF8A0E19F
:1028A0004FF03C0B0EF1800101F1800AB1F94E307E
:1028B000B1F9504001F580719EF82C00CE6A096B89
:1028C00096FBFBF591FBFBF70FFA81F87146BAF91D
:1028D000182091F803C03FB2BAF91A102DB236B2DF
:1028E000B946B8B101283DD1BAF80A70AAF83C70CF
:1028F000BAF81270AAF84070AAF83A30AAF83E4026
:10290000BAF9167050467FB34FF6FF705346AAF8D7
:10291000380018E0BAF81070AAF83C70BAF80470E1
:10292000AAF84070AAF83A30AAF83E40BAF91470F2
:102930005046002FE8D1034643484038006A18E06B
:1029400090FBFBF017E03A4317D009B1DD8607E0B2
:10295000DE8605E0A3F8369002E000BFA3F83680DB
:102960008EF82FC0BDE8F08FFFE7034636484038A9
:10297000406A0029E4D11887E5E70029EED0E9E7AD
:10298000F0B50020324A01464FF4F4731154401C54
:1029900000B29842FADBDFF8B0E000200EF1420E00
:1029A00014277A21414300EB80039B0000EB800455
:1029B0001BB207EB84051EE01EF803405E2C21D0FD
:1029C000244E04EB440416F814C002F801C006EBD0
:1029D0004404491C66785654491CA6785654491C30
:1029E000E6785654491C26795654491C6479545447
:1029F000491C5B1C1BB29D42DEDC401C00B204285B
:102A0000CFDBF0BD4FF07E0C02F801C0491C422420
:102A10005454491C5A265654491C5654491C545463
:102A2000491C02F801C0E3E7B4200820004003403D
:102A3000300000100800001070E1072030C00720AF
:102A40004C00001014C007200C02001088E2072080
:102A500088E707208C5E01002DE9F04FADB0002023
:102A6000FF490870FF48B0F9541000910170017AD5
:102A7000491CC9B20172142908D300210172C2791C
:102A8000521CD2B2C271052A00D3C171F649F64B6D
:102A9000F54891F9045091F90110DFF8C8A34A1BD9
:102AA000C03B0078B3F94E304FF00A0B9E4602ACA3
:102AB0000AF1800AF0B3EC4F0D2801F0EF812128D4
:102AC00001F026833B466B2893F9043004EB830323
:102AD000994601F033833B465B789B1E5BB26C28C2
:102AE00001F058836E2801F0F6836A2801F05A86B7
:102AF000692801F097863E4696F902807678761E20
:102B00004FFA86FC672801F0EA860F2801F04F870C
:102B10001028FBD0042801F07387D24E3F28B67EE0
:102B200002F062826F2802F0E382352802F0948678
:102B3000332800E04BE002F0C386742802F09B8744
:102B4000752802F0E487712803F02D80702803F0C7
:102B50003080722803F065805A2803F09C805E283C
:102B600003F0BF805F2803F0DB82612803F0158348
:102B7000622803F06883632803F0BE83122803F001
:102B80001584432803F04784BE46B64F45283F7955
:102B900003F05B84442803F095847746302803F0E3
:102BA000CF85732803F0E0854FF0090B2E2803F042
:102BB00031862C2803F008872B2804F0038158283D
:102BC00004F018826D2804F03F8204F086BAA5480C
:102BD000C678032E2FD090F82C70A348A14B4078D4
:102BE0008033C01E40B20090B3F9760001909D483A
:102BF000B3F9403000F5807C994690F8068043791F
:102C0000BCF94CC0C07E002F7ED0012F7DD0DFF8F4
:102C10005482022F7AD0022E00F0848793A7029765
:102C2000BCF1000F00F0B987BEF1000F00F074870F
:102C300094A700F0B1BF99A002909EA00390A3A01A
:102C40000490A8A002AD0346059007CDFDF78DFEC8
:102C5000DFF81482A8F14008A8F18005D8F8340004
:102C6000B5F95E10884203DA00222121A3A019E001
:102C7000B5F960201144814203DD00222121A0A08A
:102C800010E0B5F962201144814203DD00222121C8
:102C90009CA007E0B5F964201144814204DD0022C4
:102CA000212199A0FDF791FE05F1660500226888B3
:102CB0002B2180B2FDF73BFD28880022402180B205
:102CC000FDF735FDBAF950005E4690FBF6F0574629
:102CD00080B200222321FDF72AFDB7F94E00002221
:102CE00090FBF6F080B22421FDF721FDA888002298
:102CF000401C5E2180B2FDF71AFDD8F8340045462D
:102D000090FBF6F13C2002E013E0B6E2FEE391FB1B
:102D1000F0F200FB121080B200227321FDF707FDD4
:102D2000686B4FF4167190FBF1F0002280B25421D1
:102D3000FEE3012E0FD075A00290BCF1000F4AD027
:102D4000BEF1000F01D071A044E0012B29D0002B6F
:102D500041D174A03EE079A70297BCF1000F3AD0B0
:102D6000BEF1000F05D0B8F1010F06D0B8F1030F86
:102D700003D0012B07D0D3B12DE0800701D575A07A
:102D800028E06EA026E040B1012808D0022808D033
:102D9000032808D0042808D012E074A01AE079A013
:102DA00018E07EA016E083A014E088A012E050B1E5
:102DB00001280AD00228CCD0032808D0042808D043
:102DC0000528C0D007E087A004E08CA002E091A015
:102DD00000E096A0029037A003909AA0DFF88480CC
:102DE0000490012E06D19DA00490B9F1000F01D0EE
:102DF000A0A0049035A00590A4A00690A9A00790DB
:102E0000AEA00890B3A009901748032A01DD0099ED
:102E100001E0A94200DA0171019957460F2906DD48
:102E2000B2A3B8A2BDA1C3A0FDF79FFD0CE090F92D
:102E3000045004EB8500001D0EC854F82500FDF772
:102E400094FD0020FDF72DFD074DC03DB5F84C0069
:102E500010B1B5F84E0010B900225E2176E178E19C
:102E600007C007204C0000100C02001020C8F1F22F
:102E7000EEF7EDE8EA20EDE0EFF02E205E202020D6
:102E80000000000020C8F1F2EEF7EDE8EA20EDE0E6
:102E9000EFF02E205E3E3E3E00000000202020C8C5
:102EA000D1CFDBD2C0CDC8C520D4C0C7C02021201F
:102EB000000000002049F3202020202BC020556D69
:102EC000617820202020404200000000204920207E
:102ED00020202023C02055202020202020202442F4
:102EE0000000000020D6E8EAEB204E2020205E20E3
:102EF000202030543A3073200000000041000000D0
:102F000042000000430000004400000020C8F1F22D
:102F1000EEF7EDE8EA20F2EEEAE020205E20202045
:102F20000000000020C8F1F2EEF7EDE8EA20F2EE32
:102F3000EAE020205E3C3C3C0000000020C8F1F2AA
:102F4000EEF7EDE8EA20F2EEEAE020202020202053
:102F50000000000020C8F1F2EEF7EDE8EA20F2EE02
:102F6000EAE020205E203C3E0000000020C8F1F294
:102F7000EEF7EDE8EA20F2EEEAE020205E3E2020C7
:102F80000000000020C8F1F2EEF7EDE8EA20F2EED2
:102F9000EAE020205E3E3E200000000020C8F1F262
:102FA000EEF7EDE8EA20F2EEEAE020205E3E3E3E5B
:102FB0000000000020C8F1F2EEF7EDE8EA20F2EEA2
:102FC000EAE020205E203E3E0000000020C8F1F232
:102FD000EEF7EDE8EA20F2EEEAE020205E20203E67
:102FE0000000000020C8F1F2EEF7EDE8EA20F2EE72
:102FF000EAE020205E20203C0000000020C8F1F222
:10300000EEF7EDE8EA20F2EEEAE020205E203C3C1C
:103010000000000020C8F1F2EEF7EDE8EA20F2EE41
:10302000EAE020205E3C3C200000000020C8F1F2D5
:10303000EEF7EDE8EA20F2EEEAE020205E3C202008
:103040000000000020C4EBE8F22DF1F2FC2E20205D
:1030500030743A30543A30730000000020202020B1
:10306000202030743A30543A307320202020202021
:10307000000000002030743A30543A307320202091
:1030800020202071C02AF720000000002055EC61AC
:10309000782EE8F1F22EF2EEEAE0202020207BC22A
:1030A0000000000020C2FBF5EEE4202020202020BC
:1030B00020202020202020200000000020D3F1F23A
:1030C000E0EDEEE2EAE82020202020202020202051
:1030D0000000000020C2FBEFF0FFECE8F2E5EBE8B7
:1030E00020202020202020200000000020E8EBE805
:1030F00020EDE5F1EAEEEBFCEAEE20F4E0E72E202D
:10310000000000002020CEF2F1F3F2F1F2E2F3E54C
:10311000F220EEE4EDE0202000000000202020203E
:103120002020F1E5F2E8212121212020202020206B
:10313000000000002020C0E2E0F0E8FF20EFE8F20D
:10314000E0FEF9E5E920202000000000FFA0FDF7E7
:103150003CFCB5F942004FF47A76B04203DA012222
:103160002B2180B204E090FBFBF080B200222B21E7
:10317000FDF7DDFAB7F95000B04203DA012223214E
:1031800080B204E090FBFBF080B200222321FDF727
:10319000CEFAB7F94E00B04203DA0122242180B200
:1031A00004E090FBFBF080B200222421FDF7BFFA7F
:1031B000B5F91000B04209DA01227B2180B2FDF797
:1031C000B6FA288A0122402180B20EE05E4690FBCA
:1031D000F6F080B200227B21FDF7A9FAB5F91000C4
:1031E000002290FBF6F080B24021FDF7A0FA98F89B
:1031F00003004646012839D1B5F91800B5F9141075
:10320000084319D0D24D3C270022E86A90FBF7F121
:1032100007FB110080B27321FDF789FAE86A0022EA
:1032200090FBF7F090FBF7F107FB110080B25421FF
:10323000FDF77DFAE96A3CE1C54F3C250022386B79
:1032400090FBF5F105FB110080B27321FDF76FFAD9
:10325000386B002290FBF5F090FBF5F105FB1100B7
:1032600080B25421FDF763FA396B22E1A88A002865
:103270007DD1F0E3FDF7A9FB55E1022E11D0AFF2AD
:1032800014400290BCF1000F4CD0BEF1000F02D0F0
:10329000AFF2284045E0012B29D0002B42D1ADA050
:1032A0003FE0B2A70297BCF1000F3BD0BEF1000F88
:1032B00005D0B8F1010F06D0B8F1030F03D0012BF0
:1032C00007D0DBB12EE0800701D5AEA029E0A7A092
:1032D00027E040B1012808D0022808D0032809D0EF
:1032E000042809D013E0ADA01BE0B2A019E0AFF2B2
:1032F0006C4016E0B5A014E0BAA012E050B101286D
:103300000AD00228CBD0032808D0042808D00528EA
:10331000BED007E0B9A004E0BEA002E0C3A000E078
:10332000C8A00290CDA00390AFF2E820DFF844835C
:103330000490022E08D1AFF2DC200490B9F1000F06
:1033400002D0AFF2D0200490CBA00590D0A0069080
:10335000AFF2B0200790AFF29C200890AFF28C2023
:1033600009907B484030032A02DD009902E0EBE03F
:10337000A94200DA0171019957460F290ADDAFF21F
:103380009423AFF28022AFF26C21AFF25820FDF708
:10339000ECFA0CE090F9045004EB8500001D0EC817
:1033A00054F82500FDF7E1FA0020FDF77AFA684DA0
:1033B000803DB5F84C0010B1B5F84E0020B90022A0
:1033C0005E2162A0FDF701FBB5F944004FF47A7667
:1033D000B04203DA0122252180B204E090FBFBF029
:1033E00080B200222521FDF7A2F9B7F94E00B042C4
:1033F00003DA0122262180B204E090FBFBF080B2C8
:1034000000222621FDF793F9B7F95000B04203DA04
:1034100001222A2180B204E090FBFBF080B200225E
:103420002A21FDF784F9B5F91200B04209DA012228
:103430007D2180B2FDF77BF9688A01227D2180B26F
:103440000EE05E4690FBF6F080B200227D21FDF793
:103450006EF9B5F91200002290FBF6F080B27D21E2
:10346000FDF765F998F803004646022803D0E88A7C
:10347000002869D131E0B5F91800B5F91610DFE27E
:10348000334F3C250022F86A90FBF5F105FB110053
:1034900080B27321FDF74BF9F86A002290FBF5F03A
:1034A00090FBF5F105FB110080B25421FDF73FF9C7
:1034B000F96A4FF4616091FBF0F080B20022742150
:1034C000FDF735F9B07D70B300223A211FA0FDF75A
:1034D0007CFA00223A211DA0CCE61D4D3C2600229C
:1034E000686A90FBF6F106FB110080B27321FDF7CC
:1034F0001EF9686A002290FBF6F090FBF6F106FBDD
:10350000110080B25421FDF712F901E0D5E00FE07F
:10351000D5F824104FF4616091FBF0F080B20022E6
:103520007421FDF704F90A4801227121806B80B2F1
:10353000FDF7FDF84F48C078012806D0044A002165
:10354000803AA2F84610AFE07FE2B0E02000000031
:10355000CC01001020C8F1F2EEF7EDE8EA20EDE032
:10356000EFF02E205E3C3C3C0000000020C8F1F251
:10357000EEF7EDE8EA20EDE0EFF02E20202020200D
:103580000000000020C8F1F2EEF7EDE8EA20EDE0DF
:10359000EFF02E205E203C3E0000000020C8F1F23B
:1035A000EEF7EDE8EA20EDE0EFF02E205E3E202081
:1035B0000000000020C8F1F2EEF7EDE8EA20EDE0AF
:1035C000EFF02E205E3E3E200000000020C8F1F209
:1035D000EEF7EDE8EA20EDE0EFF02E205E203E3E33
:1035E0000000000020C8F1F2EEF7EDE8EA20EDE07F
:1035F000EFF02E205E20203E0000000020C8F1F2F7
:10360000EEF7EDE8EA20EDE0EFF02E205E20203C22
:103610000000000020C8F1F2EEF7EDE8EA20EDE04E
:10362000EFF02E205E203C3C0000000020C8F1F2AC
:10363000EEF7EDE8EA20EDE0EFF02E205E3C3C20D6
:103640000000000020C8F1F2EEF7EDE8EA20EDE01E
:10365000EFF02E205E3C2020000000002055F320DB
:10366000202020254220496D6178202020207D41A6
:10367000000000004C0000102055202020202026B3
:10368000422049202020202020202A410000000044
:103690002049EC61782EE8F1F22EEDE0EFF02E20DB
:1036A00020207D4100000000022803F01685002044
:1036B000FF49A1F8480003F010BD012E10D0AFF271
:1036C000B4770297BCF1000F45D0BEF1000F02D0D5
:1036D000AFF238773EE0012BFAD0AFF2B87739E09D
:1036E000AFF2A8770297BCF1000F34D0012B01D0C4
:1036F000CBB130E040B1012809D00228E8D003283E
:1037000008D0042809D017E0AFF2A07722E0AFF28A
:103710008C771FE0AFF264771CE0AFF2507719E0CE
:10372000AFF6180716E050B101280BD00228D4D00C
:1037300003280AD004280BD00528F1D00BE0AFF203
:103740005C7707E0AFF24C7704E0AFF2387701E046
:10375000AFF228770297AFF6A4070397AFF21C7772
:103760000497012E08D1AFF20C770497B9F1000F3E
:1037700002D0AFF200770497AFF6B0070597022E9C
:1037800011D0AFF618100690BCF1000F34D0BEF186
:10379000000F02D0AFF6141003E0012BFAD0AFF205
:1037A0004C20069028E0AFF23C270697BCF1000FB2
:1037B0001FD0012B01D043B31BE040B1012809D039
:1037C00002280BD003280CD004280DD00FE0AFF254
:1037D000342001E0AFF2242006900AE0AFF65C103E
:1037E000FAE7AFF21820F7E7AFF20820F4E7052870
:1037F00023D098F8140018B3AFF2A0100790AFF2DE
:10380000BC700890022E1DD025E050B101280BD0CD
:1038100002280CD003280DD00428E8D1AFF2DC1028
:10382000DAE7AFF22820D7E7AFF21820D4E7AFF2FB
:10383000DC20D1E7AFF20C20CEE7AFF6D010CBE71B
:103840009CA0AEE7AFF2EC700890B9F1000F02D087
:10385000AFF2E07008909DA00990AFF2D0700A908E
:10386000AFF2D4100B90AFF2C4700C90AFF2B47002
:103870000D90AFF2A070DFF838820E9008F1C0080A
:10388000032A01DD009901E0A94201DA88F8041059
:10389000019856460F280ADDAFF2B073AFF29C7262
:1038A000AFF28871AFF27470FDF75FF80CE098F931
:1038B000045004EB8500001D0EC854F82500FDF7E8
:1038C00054F80020FCF7EDFF794DB5F84C0010B12D
:1038D000B5F84E0028B900225E21AFF29030FDF716
:1038E00074F8B5F942004FF47A77B84203DA01224E
:1038F0002B2180B204E090FBFBF080B200222B2150
:10390000FCF715FFB6F95000B94648450ADA01221E
:10391000232180B2FCF70BFFB6F8500001222321CF
:1039200080B20EE05F4690FBF7F080B200222321C8
:10393000FCF7FDFEB6F95000002290FBF7F080B2D4
:103940002321FCF7F4FEB5F944004F46B84203DAF0
:103950000122252180B204E090FBFBF080B200221E
:103960002521FCF7E4FEB6F94E00B94648450ADACF
:103970000122262180B2FCF7DAFEB6F84E000122C1
:10398000242180B20EE05F4690FBF7F080B2002267
:103990002621FCF7CCFEB6F94E00002290FBF7F092
:1039A00080B22421FCF7C3FEB5F912004E46B042A6
:1039B00009DA01227D2180B2FCF7B9FE688A012272
:1039C0007D2180B20EE05F4690FBF7F080B20022CE
:1039D0007D21FCF7ACFEB5F91200002290FBF7F058
:1039E00080B27D21FCF7A3FEB5F91000B04209DAE0
:1039F00001227B2180B2FCF79AFE288A0122402115
:103A000080B20EE05E4690FBF6F080B200227B2191
:103A1000FCF78DFEB5F91000002290FBF6F080B2A5
:103A20004021FCF784FE98F9040002282EDC2D4E7C
:103A3000F07801287FF41AACB5F91800B5F9141024
:103A400008437FF41DADFFF7F7BB6FF0020274214E
:103A500025A00FE4FFE7164E3C2580360022306A91
:103A600090FBF5F105FB110080B27321FCF75FFEBE
:103A7000306A002290FBF5F090FBF5F105FB110098
:103A800080B25421FCF753FE316A43E5154EF078BD
:103A900002283FF4F0ACE88A0028D6D106F5C076BB
:103AA0003C25706A90FBF5F105FB110080B221E026
:103AB0004C01001020202020202020202020202029
:103AC0002020202020202020000000002055202041
:103AD0002020202642204920202020202020234171
:103AE000000000004C000010EDE5EFF0E5F0FBE217
:103AF000EDEE000000227321FCF719FE706A00222F
:103B000090FBF5F090FBF5F105FB110080B254211C
:103B1000FCF70DFE716AFDE4012B3FF489A8AFF2BA
:103B2000CC5739E0AFF2BC570297BCF1000F34D04C
:103B3000012B01D0CBB130E040B1012809D00228DF
:103B4000EBD0032808D0042809D017E0AFF2B4570F
:103B500022E0AFF2A0571FE0AFF290571CE0AFF2A7
:103B60007C5719E0AFF6FC4716E050B101280BD0A6
:103B70000228D4D003280AD004280BD00528F1D07D
:103B80000BE0AFF2885707E0AFF2785704E0AFF2EE
:103B9000645701E0AFF254570297AFF240570397D2
:103BA000AFF660370497022E08D1AFF6503704976E
:103BB000B9F1000F02D0AFF644370497AFF2F40723
:103BC0000597012E10D0AFF6BC400690BCF1000F57
:103BD00045D0BEF1000F02D0AFF640403EE0012BD1
:103BE000FAD0AFF6C04039E0AFF6B0470697BCF167
:103BF000000F34D0012B01D0CBB130E040B101280F
:103C000009D00228E8D0032808D0042809D017E0FA
:103C1000AFF6A84022E0AFF694401FE0AFF66C404C
:103C20001CE0AFF6584019E0AFF6205016E050B156
:103C300001280BD00228D4D003280AD004280BD0A6
:103C40000528F1D00BE0AFF6644007E0AFF6544032
:103C500004E0AFF6404001E0AFF630400690AFF62A
:103C6000AC500790AFF624400890012E08D1AFF673
:103C700014400890B9F1000F02D0AFF60840089048
:103C8000AFF6B8500990AFF6FC300A90AFF2006082
:103C90000B90AFF6F0300C90AFF6E0300D90AFF631
:103CA000CC30DFF830840E90032A01DD009901E06A
:103CB000A94201DA88F80410019856460F280ADD57
:103CC000AFF6D833AFF6C432AFF6B031AFF69C30B2
:103CD000FCF74BFE0CE098F9045004EB8500001D46
:103CE0000EC854F82500FCF740FE0020FCF7D9FD73
:103CF000F84DC03DB5F84C0010B1B5F84E0028B9EC
:103D000000225E21AFF2BC70FCF75FFEB5F9420005
:103D10004FF47A77B84203DA01222B2180B204E013
:103D200090FBFBF080B200222B21FCF700FDB6F9DE
:103D30005000B94648450ADA0122232180B2FCF737
:103D4000F6FCB6F850000122232180B20EE05F4657
:103D500090FBF7F080B200222321FCF7E8FCB6F9D3
:103D60005000002290FBF7F080B22321FCF7DFFC2B
:103D7000B5F944004F46B84203DA0122252180B24A
:103D800004E090FBFBF080B200222521FCF7CFFC81
:103D9000B6F95000B94648450ADA0122232180B21B
:103DA000FCF7C5FCB6F850000122232180B20EE0DA
:103DB0005F4690FBF7F080B200222321FCF7B7FCAE
:103DC000B6F95000002290FBF7F080B22321FCF7F7
:103DD000AEFCB6F94E0048450ADA0122262180B22F
:103DE000FCF7A5FCB6F84E000122242180B20EE0BB
:103DF0005F4690FBF7F080B200222621FCF797FC8B
:103E0000B6F94E00002290FBF7F080B22421FCF7B7
:103E10008EFCB5F910004E46B04209DA01227B2132
:103E200080B2FCF784FC288A0122402180B20EE097
:103E30005F4690FBF7F080B200227B21FCF777FC15
:103E4000B5F91000002290FBF7F080B24021FCF79A
:103E50006EFCB5F91200B04209DA01227D2180B270
:103E6000FCF765FC688A01227D2180B20EE05E4687
:103E700090FBF6F080B200227D21FCF758FCB5F9EA
:103E80001200002290FBF6F080B27D21FCF74FFC7F
:103E900098F9040002287FF7F9ADC8E5009A8E482A
:103EA000012A06D00646901E814233DBAFF60C6332
:103EB00031E0AFF20043AFF6146288A18DA0FCF7A9
:103EC00054FD002301211A460846FCF74BFB8F4D99
:103ED00001230622A869194680B2FCF743FB286A31
:103EE000012380B20B221946FCF73CFB686A0023D1
:103EF00080B20F220121FCF735FB95F83E0013221A
:103F00000121FCF77FFC73490120423181F8280030
:103F100003F0E3B871A371A270A176A0FCF725FDB0
:103F200097F901004FF00003062800F1010080B26C
:103F30000ADB01221146FCF715FB97F9010000236B
:103F4000801C80B2012209E000220121FCF70AFB5B
:103F500097F90100801C002380B21A460221FCF769
:103F600001FB97F90100694D00EB800005EB0010A3
:103F700001238069062280B21946FCF7F3FA97F90B
:103F80000100012300EB800005EB00100622806E8B
:103F9000022180B2FCF7E6FA97F90100012300EB59
:103FA000800005EB00100B22006A194680B2FCF776
:103FB000D9FA97F90100012300EB800005EB00100E
:103FC0000B22006F022180B2FCF7CCFA97F90100B6
:103FD000002300EB800005EB00100F22406A012156
:103FE00080B2FCF7BFFA97F90100002300EB8000D4
:103FF00005EB00100F22406F022180B2FCF7B2FAED
:1040000097F90200132200EB800005EB001001215C
:1040100090F83E00FCF7F6FB97F90200132200EB44
:10402000800005EB0010022190F88E00FCF7EAFBFF
:10403000B6F9541097F90100891E884243DA062820
:1040400000F1030080B24FF0000301DB012200E029
:1040500000220321FCF786FA97F90100012300EB07
:10406000800005EB00100622D0F8B800032180B2D2
:10407000FCF778FA97F90100012300EB800005EBCB
:1040800000100B22D0F8C000032180B2FCF76AFABE
:1040900097F90100002300EB800005EB00100F22D0
:1040A000D0F8C400032180B2FCF75CFA97F9020053
:1040B000132200EB800005EB0010032190F8DE00D6
:1040C000FCF7A0FB24E703490120423181F83C00C2
:1040D0001EE700000C0200104C00001020202020E1
:1040E000202E202020202E202020202020202020B4
:1040F000000000004E202020552CC22020492C41D9
:10410000202074B0432020200000000088E2072017
:10411000CB4BCCA2D1A1D7A0FCF727FCDB490120D7
:104120000AF14E0581F83C00024628885B2180B2E6
:10413000FCF7FDFA01225D2102F069BBD4A00290D8
:10414000D9A00390DE4804909B6854F82510DDA0A8
:10415000D9F80420FCF709FC0120FCF7A2FB0AF1C6
:1041600070054FF00002A8884FF0210100EB80009D
:1041700080B2FCF7DCFA28880022232180B2FCF709
:10418000D6FA2888002200EB80002D3080B2402132
:1041900002F0A1BFD14EBEF1000F01D0D0A000E0CF
:1041A000D5A00290DAA00390DFA00490E4A00590CF
:1041B000E9A00690EEA00790F3A00890F8A009905F
:1041C000BF480A90022A01DD3B7102E0A94200DAF1
:1041D000397197F9040004EB8001D1E9012354F807
:1041E0002010F5A0FCF7C1FB0120FCF75AFB36F9C3
:1041F000500F3C2590FBF5F105FB110080B2002229
:104200005B21FCF794FAB6F90000002290FBF5F070
:1042100090FBF5F105FB110080B27D21FCF787FAD8
:10422000B6F900004FF4616790FBF7F080B200220E
:104230007B21FCF77CFAB6F90200002290FBF5F135
:1042400005FB110080B25D21FCF771FAB6F902009E
:10425000002290FBF5F090FBF5F105FB110080B218
:104260002921FCF764FAB6F90200002290FBF7F06E
:1042700080B22821FCF75BFAB6F90400002290FB1B
:10428000F5F105FB110080B23E21FCF750FAB6F9BA
:104290000400002290FBF5F090FBF5F105FB110006
:1042A00080B23C21FCF743FAF0880122212180B240
:1042B000FCF73DFA30890122402180B2FCF737FA41
:1042C00070890122232180B2FCF731FA0122B089E2
:1042D000242180B25CE7BEA00290C3A00390C8A0D6
:1042E0000490CDA00590D2A00690D7A00790DCA0A6
:1042F0000890E1A00990E6A00A90EBA00B90F0A036
:104300000C90F5A00D90FAA00E90FF486C49B0F902
:104310005A0004EB80004160AFF668018160AFF69F
:104320006C0109F10409C160B9E80E000298FCF7BC
:104330001CFB97F9010097F90410421A022A01DDCB
:10434000801E01E0884200DA38710120FCF7A9FAEA
:10435000EE4D2878012867D06FF003022121ECA0F0
:10436000FCF733FB687801285FD06FF0030240212F
:10437000E7A000BFFCF729FBA878012856D06FF012
:1043800003022321E2A000BFFCF71FFBE87801280D
:104390004DD06FF003022421DDA000BFFCF715FB18
:1043A0002879012844D06FF003022521D8A000BF4E
:1043B000FCF70BFB687901283BD06FF003025E210C
:1043C000D3A000BFFCF701FBA879012832D06FF021
:1043D00003022621CEA000BFFCF7F7FAE8790128F6
:1043E00029D06FF003022A21C9A000BFFCF7EDFA23
:1043F000287A012820D06FF003022821C4A000BF32
:10440000FCF7E3FA687A012817D06FF0030229213C
:10441000BFA000BFFCF7D9FAA87A01280ED06FF030
:1044200003022B21BAA077E17FE183E187E18BE1F1
:104430008FE193E197E19BE19FE1A3E1A7E1000018
:10444000D56401002049EDE0E3F0203D202020204C
:10445000205DC02020202020000000002055EDE03D
:10446000E3F0203D20202020205BC22020202020BF
:1044700000000000202020202020CDC0C3D0D3C7C2
:10448000CAC0202020202020000000004E02001082
:104490002046E2E5EDF22EF2E5EAF3F92E202020A7
:1044A00020202125000000002046E2E5EDF22E6DDF
:1044B00061782E202820204025292023000000009C
:1044C000A43000002020202020C2C5CDD2C8CBDFE0
:1044D000D2CED02020202020000000004C0100106F
:1044E00020C2EAEBFEF7E5ED20202020202020204E
:1044F000202020200000000020C2FBEAEBFEF7E5B0
:10450000ED2020202020202020202020000000005E
:104510002054EFF0FFEC2E2020202020307B3A307A
:104520007D3A305B0000000020D2EEE1F02E20202A
:104530002020202030283A30293A305D0000000049
:1045400020D2EFE5F0E5EAEB2E20202020202030DD
:104550003C3A303E000000002049F1F22EEFF02EF0
:104560002020202020202020202021C0000000002A
:104570002049F1F22EEEE1F02E20202020202020F4
:10458000202040C0000000002055F1F22EEFF02E58
:104590002020202020202020202023420000000076
:1045A0002055F1F22EEEE1F02E20202020202020B8
:1045B00020202442000000002020202020C0C2D261
:1045C000CED0C5C2C5D0D1202020202000000000C0
:1045D0002020C0C2D2CECCC0D2DB20CDC0C3D0D32D
:1045E000C7CECA200000000020C0E2F2EEECE0F2EC
:1045F00020B9312020202020202021200000000090
:1046000020C0E2F2EEECE0F220B93220202020209F
:10461000202040200000000020C0E2F2EEECE0F29A
:1046200020B933202020202020202320000000005B
:1046300020C0E2F2EEECE0F220B93420202020206D
:10464000202024200000000020C0E2F2EEECE0F286
:1046500020B9352020202020202025200000000027
:1046600020C0E2F2EEECE0F220B93620202020203B
:1046700020205E200000000020C0E2F2EEECE0F21C
:1046800020B93720202020202020262000000000F4
:1046900020C0E2F2EEECE0F220B938202020202009
:1046A00020202A200000000020C0E2F2EEECE0F220
:1046B00020B93920202020202020282000000000C0
:1046C00020C0E2F2EEECE0F220B9313020202020D0
:1046D000202029200000000020C0E2F2EEECE0F2F1
:1046E00020B931312020202020202B200000000084
:1046F00020C0E2F2EEECE0F220B93132202020209E
:1047000020203D20000000004C000010A6EB0720F8
:10471000C2DBCACB2E000000FCF757F9E87A01286B
:104720003AD06FF003023D21F8E36FF0020221213D
:10473000CAA015E66FF002024021C8A01AE66FF089
:1047400002022321C5A01FE66FF002022421C3A0AC
:1047500024E66FF002022521C0A029E66FF00202D4
:104760005E21BEA02EE66FF002022621BBA033E63A
:104770006FF002022A21B9A038E66FF00202282168
:10478000B6A03DE66FF002022921B4A042E66FF028
:1047900002022B21B1A046E66FF002023D21AFA03C
:1047A00001F036BEAFA00290B4A00390B9A004906F
:1047B000BEA00590C3A00690C8480790AFF60C5065
:1047C0000890AFF6105009F104090990B9E80E00FD
:1047D0000298FCF7CAF897F9010097F90410421AF9
:1047E000022A01DD801E01E0884200DA38710120D2
:1047F000FCF757F80AF16E05002223212888FBF701
:1048000096FFB748002224214088FBF790FFB44868
:10481000022250382521C069FBF703FE00225E21E9
:10482000A88856E58FA00290AEA00390B3A0049094
:10483000B8A00590BDA00690C2A00790C7A00890A0
:104840009AA009909FA00A90A4480B90AFF69C50A4
:104850000C90AFF6A05009F104090D90B9E80E00D4
:104860000298FCF782F897F9010097F90410421AB0
:10487000022A01DD801E01E0884200DA3871012041
:10488000FCF70FF8964D0022AD1D21212888FBF77B
:104890004EFF688800224021FBF749FFA8880022CC
:1048A0002321FBF744FFAD1D002228882621FBF7BA
:1048B0003EFF688800222921FBF739FFA8880022E3
:1048C0002821FBF734FFA5F15C0003222521C069F4
:1048D000FBF7A7FD00225E21BAF87200F9E4A548B3
:1048E00010F80800552812D0A3A00290A8A00390A9
:1048F000ADA00490B2A00590B7A00690BCA0079010
:10490000C1480890012A04DD87F804C004E0BFA074
:10491000EBE7A94200DA397197F9040004EB800152
:1049200054F820204B68BFA1C4A0FCF71EF8022059
:10493000FBF7B7FF97F902000022401C80B25E210E
:10494000FBF7F5FE664997F902005039002231F86D
:1049500010002121FBF7EBFE614997F902004C3969
:10496000002231F91000A849493901EB80004021AB
:10497000FCF72BF85A4997F902004839002231F820
:1049800010002321FBF7D3FE554997F90200443963
:10499000002231F810002421FBF7C9FE504997F995
:1049A00002004039002231F81000252192E4964B94
:1049B000A8A0153B1A461146FBF7D7FF484D002328
:1049C000643D082295F90000012180B2FBF7CAFD81
:1049D00095F90100002380B209220121FBF7C2FDF5
:1049E00095F90200002380B20A220121FBF7BAFDEB
:1049F00097F9012005F1C600A421115402F06DBB06
:104A00009AA002909FA00390A4A00490A9A0059052
:104A1000AEA00690A7A00790B2A00890B7A00990FA
:104A2000BCA00A90C1A00B90C6A00C90CBA00D908A
:104A3000D0A00E90D5A00F90DAA01090DFA011901A
:104A4000E4A01290E9A01390EEA01490F3A01590AA
:104A5000F8A01690FDA0179004E20000C2CACB2E69
:104A6000000000002020DDCBC5CAD2D0CED1CDC001
:104A7000C1C6C5CDC8C520200000000020C2E2EE9E
:104A8000E42020202020202023C2202020202020BD
:104A90000000000020CFDDD1202020202020202079
:104AA00024C2202020202020000000002050F1F30C
:104AB000ECEC2E2020202020202025EAC2F22AF72C
:104AC000000000002050F2E5EAF3F92E202020201B
:104AD00020205EC2F220202000000000A430000050
:104AE0001C02001020C2E2EEE420F42E412020201F
:104AF0002021C220202020200000000020C2E2EE61
:104B0000E420F42E422020202040C220202020201B
:104B10000000000020C2E2EEE420F42E432020201A
:104B20002023C220202020200000000020CFDDD143
:104B30002020F42E412020202026C22020202020CA
:104B40000000000020CFDDD12020F42E42202020C4
:104B50002029C220202020200000000020CFDDD10D
:104B60002020F42E432020202028C2202020202096
:104B700000000000A800001020C2FBE2E5E4E5ED23
:104B8000E02030212F4020202F3023200000000083
:104B900020CDEEECE8ED2EE5ECEA2E2020202020C2
:104BA00024412AF70000000020CDE0F0E0E1EEF221
:104BB000EAE020202020202025F72E200000000001
:104BC00020CAEEEDF2F0EEEBFC20E5ECEAEEF1F2BD
:104BD000E82020200000000020C2FBF0E0E2EDE829
:104BE000E2E0FEF9E8E920E7E0F0FFE40000000081
:104BF00020D0E0E7F0FFE4FB202020202020202030
:104C00002020202000000000D564010020C2E2E541
:104C1000E4E5EDE0202030212F4020202F3023201C
:104C2000000000002020202020C1C0D2C0D0C5DF5D
:104C3000204E5E20202020200000000020C1C0D295
:104C4000C0D0C5C9CDDBC920C6D3D0CDC0CB2020B4
:104C5000000000002020C2E2E5E4E8F2E52020EFB9
:104C6000E0F0EEEBFC2020200000000020C8F1F274
:104C7000EEF7EDE8EAEEE22020202020202020219F
:104C80000000000020CCE0EAF1E8ECE0EBFCEDE015
:104C9000FF20E4EBE8F22D200000000020F1F2FC00
:104CA00020EFF0EEF6E5F1F1E02020305B3A305DE8
:104CB0000000000020CEF2EEE1F0E0E6E5EDE8E5F0
:104CC00020E2F0E5ECE5EDE80000000020EFF0EE7A
:104CD000F6E5F1F1E02020202020202020202040B7
:104CE0000000000020EDE020EFF3EBFCF2E52020D7
:104CF00020202020202020230000000020C8E7ECF6
:104D0000E5F0E5EDE8E520F2EEEAE02020202020C5
:104D10000000000020EDE0E3F0F3E7EAE8202020C7
:104D200020202020202020240000000020D0E5E6C4
:104D3000E8EC20E3EBE0E2EDEEE3EE20ECE5EDFE67
:104D400000000000202020202020202020202020E3
:104D500020202020202020250000000020D4E8EA88
:104D6000F1E8F0EEE2E0EDEDFBE520202020202050
:104D7000000000002020202020202020202020EDE6
:104D8000E0F1F2F0EEE9EAE80000000020D0E5EB07
:104D9000E52020202020202020202020202020204E
:104DA0000000000020F2EEEAEEEEE3F0E0EDE8F7BE
:104DB000E5EDE8FF202020200000000020D0E5EBFA
:104DC000E520EAEEEDF2F0EEEBFF2020202020209F
:104DD0000000000020EDE0EFF0FFE6E5EDE8FF2049
:104DE00020202020202020200000000020D0E5F1FD
:104DF000F2E0F0F220202020202020202020205E41
:104E0000000000002045746865726E6574202020E3
:104E1000202020202020202000000000204D4F4492
:104E20004255532041445245535320202020203CDA
:104E300000000000204D4F4442555320424155444C
:104E40005241544520202020000000002020202036
:104E500020202020202020202020202020203E3024
:104E600000000000B9A01890BEA01990C3A01A902D
:104E7000C8A01B90CDA01C90D2A01D90D7A01E90C2
:104E8000DCA01F90D5A02090E0A02190E5482290C2
:104E9000E5A02390EAA02490EF4825902690022ACE
:104EA00001DD3B7102E0A94200DA397197F9041083
:104EB00004EB8100D0E9012354F82110E7A0FBF7AF
:104EC00054FD0120FBF7EDFCEA4E00222121B6F84B
:104ED000540080B2FBF72BFC06F5C0753C20A96A94
:104EE00091FBF0F191FBF0F200FB121080B2002276
:104EF0005D21FBF71CFCA96A4FF4616091FBF0F0A7
:104F000080B200225B21FBF712FC803D6FF00607A8
:104F1000288B20B1BA1C4021D7A003E04DE03A46CF
:104F20004021D7A0FBF751FD688B6FF003024FF0D3
:104F3000230108B1D5A000E0D6A0FBF746FD288CE0
:104F400020B16FF002022421D4A002E03A462421CD
:104F5000D4A0FBF73AFD96F82C0090B3012836D088
:104F60006FF0100202284FF0250135D0D0A000BF0D
:104F7000FBF72BFD96F82D0001282FD06FF00302D0
:104F80005E21AFF6740000BFFBF71FFDBAF83600D4
:104F900000223C21554680B2FBF7C9FB288F002236
:104FA0003E2180B2FBF7C3FBB5F93A004FF0000297
:104FB0004FF0280100287FF434ACAFF6AC0001F0CC
:104FC00027BAFFE76FF00B022521BEA0D0E76FF0F4
:104FD00011022521BFA0CBE7C3A0C9E76FF00202F1
:104FE0005E21AFF28850CFE7A24D687A401CC0B274
:104FF00068720F2807D30020761CF1B26872A97678
:10500000032900D3A876BD4802902A380390A87ED1
:1050100020B1012804D0022817D003E0B8A000E096
:10502000BDA0049002AEC2A00ECEFBF79EFC97F985
:10503000010060B101280FD0022812D0032815D03A
:10504000042818D005281BD01EE0BFA0E9E7C449FA
:105050005E2081F82A0017E0C1495E2081F82D000A
:1050600012E0BF495E2081F830000DE0BC495E20AF
:1050700081F8330008E0BA495E2081F8360003E089
:10508000B7495E2081F83A00B64E30784FF0000202
:105090004FF02601FBF74BFB307900225E21FBF736
:1050A00046FB307A00222521FBF741FB307B0022B2
:1050B0003C21FBF73CFB307E904900225E3901EB3E
:1050C00080003E21FBF781FCB08B00227B21FBF7A7
:1050D0002EFBA87D002802F000803A20FBF719F98A
:1050E0009F4D20262E543A20FBF713F92E5485E4C9
:1050F000824A2AAB163207CA07C39BA00290A0A01F
:105100000390A5A00490AAA00590AFA00690B4A01B
:105110000790B9A00890BEA00990C3A00A90C8A0AB
:105120000B90CDA00C90D2A00D90D7A00E90DCA03B
:105130000F90E1A01090E6A01190EBA01290F0A0CB
:105140001390F5A01490FAA01590FDE120C0E2F2B2
:10515000EEF0E5E2E5F0F1202020202020202020C4
:105160000000000020CFEBE0E2EDEEE520EDE0F006
:10517000E0F1F2E0EDE8E5200000000020F2EEEAC8
:10518000E02020202020202020202028F1E5EA2EE9
:105190000000000020D3EFF0E0E2EBE5EDE8E520D1
:1051A000F1F3F5E8EC2020200000000020EAEEED0D
:1051B000F2E0EAF2EEEC2020202020202020202027
:1051C0000000000020CDE0F1F2F0EEE9EAE020F08E
:1051D000E5EBE520202020200000000020C2FBEAB3
:1051E000EBFEF7E5EDE8E520EFEE20202020202083
:1051F0000000000020F1F7E5F2F7E8EAF320E0EC28
:10520000EFE5F0F7E0F1EEE20000000020F1EDE85C
:10521000E6E5EDE8FE20F2EEEAE020202020202066
:1052200000000000A430000020CAE0EBE8E1F0EE4E
:10523000E2EAE020202020202020202000000000A2
:1052400020D2E5F1F220D8C8CC2020202020202038
:105250002020202000000000B43A00002020202060
:1052600020D3D1D2C0CDCEC2CAC820202020202039
:10527000000000004C000010EFF0FFECEEE5000035
:10528000EEE1F0E0F2EDEEE500000000F7F73AECB9
:10529000EC000000ECEC3AF1F1000000F8F3EDF264
:1052A00000000000F1F3ECEC49E1EFF10000000038
:1052B000E8F1F22EEDE0EFF02E2DE8F1F22EF2EE15
:1052C000EAE00000E8F1F2EEF7EDE8EA20F2EEEABB
:1052D000E0000000E8F1F2EEF7EDE8EA20EDE0EFA3
:1052E000F0FFE6E5EDE8FF00E8F1F22EF2EEEAE08D
:1052F0002DE8F1F22EEDE0EFF02E0000EA6401005F
:1053000020202020203C3E202D20E2FBE1EEF0205A
:1053100020202020000000002020205E76202D206C
:10532000F3F1F2E0EDEEE2EAE020202000000000E0
:1053300020D3D1D2C0CDCEC2CAC02020C2D0C5CCCD
:10534000C5CDC820000000002020202020A420205F
:105350002D20E2FBF5EEE4202020202000000000BC
:105360004E020010204002402045746865726E6550
:105370007420202020202020202021200000000058
:105380002044484350EAEBE8E5EDF22020202020BD
:105390002020402000000000204950E0E4F0E5F12A
:1053A000202020202020202020202020000000007D
:1053B00020203030302E3030302E3030302E303013
:1053C000232020200000000020CCE0F1EAE020EFC4
:1053D000EEE4F1E5F2E8202020202020000000008B
:1053E00020203030302E3030302E3030302E3030E3
:1053F000242020200000000020D8EBFEE720202001
:10540000202020202020202020202020000000001C
:1054100020203030302E3030302E3030302E3030B2
:10542000292020200000000020CFEEF0F22EF7F21D
:10543000E5EDE8FF202020202020205B0000000078
:1054400020CFEEF0F22EE7E0EFE8F1E82020202078
:105450002020205D0000000020436F6D6D756E6997
:105460007479203C202020202020202000000000F3
:1054700020C0E4F0E5F1E0F220E4EBFF20545241DB
:1054800050204E310000000020203030302E3030CF
:10549000302E3030302E303025202020000000000B
:1054A00020C0E4F0E5F1E0F220E4EBFF20545241AB
:1054B00050204E320000000020203030302E30309E
:1054C000302E3030302E30305E20202000000000A2
:1054D00020C0E4F0E5F1E0F220E4EBFF205452417B
:1054E00050204E330000000020203030302E30306D
:1054F000302E3030302E30302620202000000000AA
:1055000020C0E4F0E5F1E0F220E4EBFF205452414A
:1055100050204E340000000020203030302E30303B
:10552000302E3030302E30302A2020200000000075
:1055300020C0E4F0E5F1E0F220E4EBFF205452411A
:1055400050204E3500000000F9A01690FF4DFE4897
:105550001790B5F86E0040F6180718B1384609F0F4
:10556000A3F928B1F848039000F521600490059054
:10557000F74E96F9010096F90410884201DA30716D
:1055800004E0411A022901DD801EF8E796F90400C3
:1055900004EB8001D1E9012354F82010EDA0FBF7C2
:1055A000E4F90120FBF77DF9B5F86E0050B13846FB
:1055B00009F07AF9012805D06FF002022121AFF637
:1055C000643004E06FF003022121AFF6BC60FBF70A
:1055D000FCF9B5F8700028B16FF002024021AFF677
:1055E000843004E06FF003024021AFF6DC60FBF78B
:1055F000ECF971782320022945D00021CDE9000182
:10560000B5F97830B5F97620B5F97410B5F97200AE
:10561000FAF7ECFF71782420042938D05FF00001FC
:10562000CDE90001BAF90030B5F97E20B5F97C105A
:10563000B5F97A00FAF7DAFF7178292006292AD01D
:105640005FF00001CDE90001BAF93430BAF9322037
:10565000BAF93010BAF92E00FAF7C8FFBAF82A00E2
:1056600000225B21554680B2FBF761F8A88D00222D
:105670005D2180B2FBF75BF8B5F902006FF00D0712
:10568000FF280CD014E0B178491CC9B2B6E7B17854
:10569000491CC9B2C4E7B178491CC9B2D2E7A9888C
:1056A000FF2905D1E988FF2902D12989FF2914D0D2
:1056B000727825210B2A16D05FF00002CDE9001286
:1056C000B5F90830B5F90620B5F90410FAF78EFFE0
:1056D000B5F90A00FF280AD012E03A462521A3A016
:1056E000FBF773F9F4E7B278521CD2B2E6E7A98966
:1056F000FF2905D1E989FF2902D1298AFF2914D080
:1057000071780D2917D000225E21CDE9001200BF6B
:10571000B5F91030B5F90E20B5F90C10FAF766FF9F
:10572000B5F91200FF280DD015E03A465E218FA092
:10573000FBF74BF9F4E7B178491CC9B25E22CDE919
:105740000021E5E7A98AFF2905D1E98AFF2902D1CD
:10575000298BFF2913D0727826210F2A15D0002219
:10576000CDE90012B5F91830B5F91620B5F91410C5
:10577000FAF73CFFB5F91A00FF280AD012E03A46C2
:1057800026217AA0FBF721F9F4E7B278521CD2B2B5
:10579000E6E7A98BFF2905D1E98BFF2902D1298CE6
:1057A000FF2914D072782A21112A16D05FF0000246
:1057B000CDE90012B5F92030B5F91E20B5F91C105D
:1057C000FAF714FFB5F92200FF280AD012E03A4692
:1057D0002A2166A0FBF7F9F8F4E7B278521CD2B29E
:1057E000E6E7A98CFF2905D1E98CFF2902D1298D93
:1057F000FF2925D072782821132A27D05FF00002D4
:10580000CDE90012B5F92830B5F92620B5F92410F4
:10581000FAF7ECFE5A4A00202AA9135C0B54401CEC
:10582000C0B20928F9D300208DF8B1007078B278A1
:105830000A280FD000233C212AA8FAF7BAFE56E422
:105840003A46282149A0FBF7C0F8E3E7B278521C9A
:10585000D2B2D5E70123EEE7BAF83C00564601285C
:105860000DD048A002904DA003903748049000F559
:10587000216005900690A94203DA397105E04DA038
:10588000F0E7012A01DD87F804C097F9040004EB72
:10589000800154F820204B684CA152A0FBF765F81A
:1058A0000220FAF7FEFFF08F012804D06FF0040207
:1058B000212152A05CE26FF00202212152A0F9E7FF
:1058C00053A0029058A003905DA004901E4805903C
:1058D00000F5216006900790A94201DA397102E0D3
:1058E000022A00DD3B7197F9040004EB8001D1E945
:1058F000012354F8201058A0FBF737F80120FAF7DD
:10590000D0FF0AF14E05012228885B2180B2FAF708
:105910000EFF688801225D2180B2FAF708FFE88A4D
:105920000022282180B2FAF702FF002229219FE0FD
:1059300020203030302E3030302E3030302E30308D
:105940002820202000000000A43000004C0000109F
:105950000C02001020D3D1D2C0CDCEC2CAC820457F
:10596000746865726E65742000000000202020209D
:10597000EDE5E0EAF2E8E2E5ED202020200000007D
:1059800000C0072020CDE5E0EAF2E8E2EDEE2020BD
:1059900020202020202020200000000020C2EAEB50
:1059A000FEF7E5EDE8E52020202020202021202022
:1059B0000000000020C0EAF2E8E2EDEE2020202006
:1059C00020202020202020200000000020D1D3D53E
:1059D000C8CC20CACECDD2C0CAD2CECC20D1CA31FA
:1059E000000000002020202020D3CFD0C0C2CBC593
:1059F000CDC8C5202020202000000000D0C0C7CE88
:105A0000CCCACD2E00000000C7C0CCCACD2E0000ED
:105A100020553D202020205BC22020493D20202011
:105A2000205DC0200000000020D8C8CC20EDE0EFB1
:105A3000F0FFE62E3D20202020202820000000003E
:105A400020D8C8CC20F2EEEAE03D20202020202003
:105A50002020292000000000202020202020D2C566
:105A6000D1D220D8C8CC2020202020200000000047
:105A7000288BFEF72EBCBFA00290C4A00390C9A043
:105A80000490CEA00590D3A00690D848079000F5CA
:105A9000216008900990A94201DA397103E0012AD6
:105AA00001DD87F804C097F9040004EB800154F885
:105AB00020204B68CEA1AFF65C00FAF756FF02201B
:105AC000FAF7EFFED04D688C01281BD06FF004026E
:105AD0002121CEA0FAF779FFE88C0022402180B284
