:020000040000FA
:10000000E0600010E1000000E5000000E7000000F3
:10001000E9000000EB000000ED000000000000001F
:10002000000000000000000000000000EF000000E1
:10003000F100000000000000F30000008950010002
:10004000F7000000616801008D680100F700000002
:10005000F7000000F7000000F7000000F7000000C4
:10006000F7000000F7000000F7000000F7000000B4
:10007000F7000000F7000000F7000000F7000000A4
:10008000F7000000F7000000F7000000F700000094
:10009000F7000000F70000007B550000F7000000AB
:1000A000F7000000737D0100F7000000F70000007A
:1000B00027810100F7000000F7000000F7000000B2
:1000C000F7000000F7000000F7000000DFF80CD098
:1000D00018F0FEF8004800479D510100E060001054
:1000E00005480047FEE7FEE7FEE7FEE7FEE7FEE71E
:1000F000FEE7FEE7FEE7FEE7CD000000FEE710B5F5
:1001000019F08CFF1AF01AF81AF00CF819F098FF91
:10011000AFF30080BDE8104019F0D6BF10B51AF05B
:10012000E1FD1BF04BFC1AF033FEBDE810401AF065
:10013000A3BF1AF0EDBC1AF0C5BA09B919F01EB880
:10014000002070470020704770B5374B0020A3F1A6
:100150001402064602F10A04115C51B1255CA94261
:1001600007D1195C29B1491E11F0FF01195400D1C2
:100170001654115C2154401CC0B20A28ECD370BD47
:1001800070B5294E0024143E641CE4B2355D1DB1E7
:10019000854201D00A2CF7D3305523480C3040F863
:1001A0002410283040F824203438035570BD1E4AEE
:1001B0000021143A491CC9B2535C834201D00A2978
:1001C000F8D3535C834210D117480C3050F82130DB
:1001D00016480360144B343353F821304360002039
:1001E0005054114A505401207047002070470E4A65
:1001F0000021143A491CC9B2535C834201D00A2938
:10020000F8D3525C82420CD107480C3050F82120C0
:1002100006480260044A343252F82110416001203D
:10022000704700207047000040EA07200CC00720FC
:100230000D4BDA601870597070470B4A116190705D
:1002400070470949088170470749B1F9080000283B
:1002500008D0401E00B20881002803D100210846C2
:1002600001F058B87047000014C0072090F9003022
:100270008B4200DA027090F90030934200DD017089
:10028000704790F900308B4200DA017090F900104D
:10029000914200DD02707047B0F900308B4200DA05
:1002A0000180B0F90010914200DD02807047B0F982
:1002B00000308B4200DA0280B0F90030934200DD5A
:1002C0000180704740EA01039B070AD102E008C998
:1002D000121F08C0042AFAD203E011F8013B00F80B
:1002E000013B521EF9D270470146002000E0401C3D
:1002F0000A5C002AFBD1704770477047FFFFFFFF81
:10030000002801DA404200B270470020FE4A202156
:100310001154401CC0B2C828FAD370470246FA49AB
:100320000020401CC0B20B5C934201D0C828F8D317
:10033000704710B50021F54C0A23B0FBF3F203FB24
:1003400012006054491CC9B210460529F5D310BDEE
:10035000F0B5EF4C0121217005212027EB4B002542
:1003600001E0227842B15A1812F8016C26B9814294
:1003700002D902F8017C05E05A1812F8016D3036F6
:1003800016702570491E11F0FF01EAD1F0BDFEB5CF
:100390002B26002802DA404200B22D2600230A272D
:1003A0006D4690FBF7F407FB1400E8545B1C5BB24E
:1003B00020B20A2BF5DB012300240920202700E0CE
:1003C00043B115F800C0BCF1000F03D1904201DD2C
:1003D0002F5405E02B5C30332B540023641CE4B213
:1003E000401E40B20028EBDA2D2E02D12E55641C9F
:1003F000E4B26AB160B205E02B1813F8013C2B544B
:10040000401E40B29042F7DC2E20641CA854E4B297
:100410000846FFF783FF0021BB4A04E06B5C461AE5
:10042000491C935549B2A142F8DBFEBDFEB52B260F
:10043000002801DA40422D2600230A246D46074693
:1004400090FBF4F004FB1077EF545B1C5BB20A2BBB
:10045000F5DB012300240920202700E043B115F833
:1004600000C0BCF1000F03D1904201DD2F5405E024
:100470002B5C30332B540023641CE4B2401E40B28A
:100480000028EBDA2D2E02D12E55641CE4B26AB19D
:1004900060B205E02B1813F8013C2B54401E40B20B
:1004A0009042F7DC2E20641CA854E4B20846FFF703
:1004B00035FF0021944A04E06B5C461A491C9355B1
:1004C00049B2A142F8DBFEBDFEB52B26002801DAB9
:1004D00040422D2600244FF00A0C6D4690FBFCF79D
:1004E0000CFB17002855641C64B238460A2CF5DB57
:1004F0000127002409204FF0200C00E04FB115F82F
:1005000000E0BEF1000F04D1984202DD05F800C002
:1005100005E02F5C30372F540027641CE4B2401EE6
:1005200040B20028EADA2D2E02D12E55641CE4B226
:100530006BB160B205E02E1816F8016C2E54401E07
:1005400040B29842F7DC2E20641CE854E4B201EB80
:10055000810002EB8000C1B200206B4A04E02B5CFA
:100560000E1A401C935540B2A042F8DBFEBD70B598
:100570000D4616461C46FFF7DCFE601CC0B2FFF7B6
:10058000E7FE05EB850006EB8000C1B25F4D5E4BD8
:100590000020A04201D22A5C5A5408D32A5C202AA7
:1005A00005D00CB95A5402E05E1806F8012C491E19
:1005B000401CC0B2C9B20528EBD370BD30B50446AB
:1005C00008461546FFF7AAFEFF2809D04E4A04E068
:1005D0004319641C401CD154C0B221780029F7D1C2
:1005E00030BD70B50D461446FFF7A3FE601CC0B2C7
:1005F000FFF7AEFE2846FFF791FE444B424D002127
:1006000024B95A5C202A01D02A540FE0A14201D219
:100610005A5CF9E704D14FF02E022A545A5C02E0EA
:100620005A5C202A02D02E1806F8012C401E491CC4
:10063000C9B2C0B20529E3D370BD801801D5084402
:1006400002E0884200DB401AC0B270472DE9FE4F3D
:1006500004460D464FF4606016F0C4FD624240212E
:10066000FFF7EBFF400100F5806402A9204616F079
:1006700035FE01A904F1080016F030FE694604F1C8
:100680000C0016F02BFE2846FFF748FE04469DF8A6
:10069000080040263027DFF87CB0DFF86CA020256A
:1006A0004FF0210C4FF02309552840D19DF80A0046
:1006B00052280ED1C2200AF80400641CE0B2EA22DB
:1006C0000AF80020401CC0B2EB220AF80020401CAF
:1006D000C4B25046F5E34554491CC9B24754491CBD
:1006E000C9B200F801C0491CC9B24654491CC9B27C
:1006F0004554491CC9B24554491CC9B24754491C08
:10070000C9B200F80190AFE3F4C10720D200001095
:10071000D7000010004002409DF80510FF4800225D
:1007200000EB81004021FFF749FFBDE8FE8FCF229B
:10073000D123502814D10AF80420641CE1B20AF82D
:100740000130491CC9B20AF80150491CC9B20AF863
:100750000150491C5046C9B24554491CC9B2C5E3B1
:1007600042287ED19DF80A0043287BD1C1200AF897
:100770000400641CE0B2E0220AF80020401CC0B271
:10078000F2220AF80020401C9DF80910C0B2092985
:100790000CD231310AF80010401CC0B2C0210AF856
:1007A0000010401CC0B20AF8005022E0A1F109027A
:1007B0005A2A14D2491C0A22B1FBF2F303F1300881
:1007C0000AF8008002FB1311401CC0B230310AF855
:1007D0000010401CC0B2C0210AF8001009E00AF85D
:1007E0000050401CC0B20AF80050401CC0B20AF8C9
:1007F0000050401CC1B20AF80150491C9DF8042069
:10080000BBF83C305046C9B25C469A423CD19DF898
:10081000052094F838309A4236D19DF8062094F895
:100820002C309A4230D14754491CC9B200F801C05B
:10083000491CC9B23A224254491CC9B24754491C06
:10084000C9B24654491CC9B24254491CC9B24754A2
:10085000491CC9B200F80190491CCCB29DF80000B7
:1008600001E017E347E000222121FFF7BAFE9DF8DF
:10087000010000224021FFF7B4FE9DF80200002293
:100880002321FFF7AEFE36E04554491CC9B2475458
:10089000491CC9B200F801C0491CC9B24654491CE0
:1008A000C9B24554491CC9B24554491CC9B2475440
:1008B000491CC9B200F80190491CCCB29DF8060051
:1008C00000222121FFF78DFE9DF804000022232144
:1008D000FFF787FE9DF80500401E0C2802D301207B
:1008E0008DF805009DF805008C49002201EB800081
:1008F0004021FFF763FE9DF80A00532873D1C12001
:100900000AF80400641CE0B2E0220AF80020401C4F
:10091000C0B2F2220AF80020401C9DF809204323AF
:100920005146C0B2092A09D231320A54401CC0B221
:10093000C0220A54401CC0B20B540FE0093A5A2A94
:1009400005D2C0220A54401CC0B20B5403E00D541F
:10095000401CC0B20D54401CC0B20D54401CC0B26B
:100960000D54401C9DF80420BBF83C30C0B25C46DE
:100970009A4239D19DF8052094F838309A4233D103
:100980009DF8062094F82C309A422DD10F54401C2B
:10099000C0B201F800C0401CC0B23A220A54401C48
:1009A000C0B20F54401CC0B20E54401CC0B20A5416
:1009B000401CC0B20F54401CC0B201F80090401C53
:1009C000C4B29DF8000000222121FFF70AFE9DF825
:1009D000010000224021FFF704FE9DF802000022E2
:1009E0002321FFF7FEFD36E00D54401CC0B20F542A
:1009F000401CC0B201F800C0401CC0B20E54401CE4
:100A0000C0B20D54401CC0B20D54401CC0B20F54B3
:100A1000401CC0B201F80090401CC4B29DF8060012
:100A200000222121FFF7DDFD9DF804000022232193
:100A3000FFF7D7FD9DF80500401E0C2802D30120CA
:100A40008DF805009DF805003449002201EB800077
:100A50004021FFF7B3FD9DF80A005A285CD1C2215E
:100A60000AF80410641CE1B2C7220AF80120491CEC
:100A7000C9B20AF80150491CC9B20AF80150491C10
:100A8000C9B20AF80150491C5046C9B24554491C24
:100A9000C9B24554491C9DF80420BBF83C30C9B28A
:100AA0005C469A423CD19DF8052094F838309A4231
:100AB00036D19DF8062094F82C309A4230D1475414
:100AC000491CC9B200F801C0491CC9B23A224254BB
:100AD000491CC9B24754491CC9B24654491CC9B241
:100AE0004254491CC9B24754491CC9B200F801908C
:100AF000491CCCB29DF8000000222121FFF771FDB6
:100B00009DF8010000224021FFF76BFD9DF80200D7
:100B100000222321FFF765FD39E0000034C9010000
:100B20004554491CC9B24754491CC9B200F801C018
:100B3000491CC9B24654491CC9B24554491CC9B2E2
:100B40004554491CC9B24754491CC9B200F8019028
:100B5000491CCCB29DF8060000222121FFF741FD7F
:100B60009DF8040000222321FFF73BFD9DF80500BE
:100B7000401E0C2802D301208DF805009DF80500C9
:100B8000FF49002201EB80004021FFF717FD9DF88F
:100B90000A0057287ED1C1200AF80400641CE0B284
:100BA000E0220AF80020401CC0B2F2220AF800201D
:100BB000401C9DF80940C0B24FF0F00E092C08D23D
:100BC00031340AF80040401CC0B251460AF800E037
:100BD0001FE0A4F109015A2914D2641C4FF00A083D
:100BE000B4FBF8F101F130020AF8002008FB1141D2
:100BF000401CC0B230310AF80010401CC0B20AF8E4
:100C000000E009E00AF80050401CC0B251460AF862
:100C10000050401CC0B20D54401CC1B20AF8015033
:100C2000491C9DF80420BBF83C305046C9B25C46D4
:100C30009A423BD19DF8052094F838309A4235D13C
:100C40009DF8062094F82C309A422FD14754491C25
:100C5000C9B200F801C0491CC9B23A224254491C29
:100C6000C9B24754491CC9B24654491CC9B242547E
:100C7000491CC9B24754491CC9B200F80190491C2B
:100C8000CCB29DF8000000222121FFF7AAFC9DF8BC
:100C9000010000E041E000224021FFF7A2FC9DF8A6
:100CA000020000222321FFF79CFC36E04554491C3A
:100CB000C9B24754491CC9B200F801C0491CC9B2A5
:100CC0004654491CC9B24554491CC9B24554491C33
:100CD000C9B24754491CC9B200F80190491CCCB2B2
:100CE0009DF8060000222121FFF77BFC9DF80400FF
:100CF00000222321FFF775FC9DF80500401E0C28FB
:100D000002D301208DF805009DF805009C490022C2
:100D100001EB80004021FFF751FC9DF80A004B28B1
:100D20007FF403ADC1200AF80400641CE0B2E022A5
:100D30000AF80020401CC0B2F2220AF80020401C31
:100D40009DF80910C0B209290DD231310AF80010FE
:100D5000401CC0B2EA210AF80010401CC0B2E521D4
:100D60000AF8001022E0A1F109025A2A14D2491C03
:100D70000A22B1FBF2F303F130080AF8008002FB0B
:100D80001311401CC0B230310AF80010401CC0B230
:100D9000EA210AF8001009E00AF80050401CC0B22D
:100DA0000AF80050401CC0B20AF80050401CC0B203
:100DB0000AF80050401C9DF80420BBF83C30514616
:100DC000C0B25C469A4237D19DF8052094F838307D
:100DD0009A4231D19DF8062094F82C309A422BD1BA
:100DE0000F54401CC0B201F800C0401CC0B23A22EF
:100DF0000A54401CC0B20F54401CC0B20E54401CD8
:100E0000C0B20A54401CC0B20F54401CC0B201F81A
:100E100000909DF8000000222121FFF7E2FB9DF8E1
:100E2000010000224021FFF7DCFB9DF802000022B8
:100E30002321FFF7D6FB78E40D54401CC0B20F54B9
:100E4000401CC0B201F800C0401CC0B20E54401C8F
:100E5000C0B20D54401CC0B20D54401CC0B20F545F
:100E6000401CC0B201F800909DF80600002221212C
:100E7000FFF7B7FB9DF8040000222321FFF7B1FB29
:100E80009DF80500401E0C28FFF446AC01208DF8AB
:100E9000050041E4532862D1C1210AF80410641C02
:100EA000E1B20AF80120491CC9B20AF80130491C14
:100EB000CCB29DF809105046092903D231310155B1
:100EC00049E047E0A1F109025A2A43D2491C0A220B
:100ED000B1FBF2F303F1300800F8048002FB1311B8
:100EE000641CE4B230310155641CE1B24554491C24
:100EF000C9B24554491C9DF80420BBF83C30C9B226
:100F00005C469A427FF4E7AB9DF8052094F83830B0
:100F10009A42F7D19DF8062094F82C309A42F1D1EC
:100F20004754491CC9B200F801C0491CC9B23A2251
:100F30004254491CC9B24754491CC9B24654491CC1
:100F4000C9B24254491CC9B24754491CC9B200F83D
:100F500001905EE70555641CE1B2FFF7FDBB49282F
:100F60007FF469AFC8200AF80400641CE0B2ED22E7
:100F70000AF80020401C5146C0B2E22202E0000004
:100F800034C901000AF80020401C9DF80920C0B2B5
:100F9000092A02D231320A5412E0A2F109035A2B73
:100FA0000DD2521C0A24B2FBF4F303F130060E54A6
:100FB000401C04FB1322C0B230320A5403E00D542B
:100FC000401CC0B20D54401CC0B20D5433E770B584
:100FD0000446084615461E46FFF7A0F9FB4A03469D
:100FE000FF2807D003E01154641C401CC0B22178D4
:100FF0000029F8D1F6480078002804D0002E02D04D
:101000005F205919505470BD2DE9FF4F8146DDE92D
:101010000D048A469346FFF781F9DFF8B483EB4A63
:101020000A2364274FF0200C012C0AD198F80010F5
:1010300039B1111801F80CCC01F80DCC01F80ECC27
:1010400021E099FBF3F503FB159611183036A1F159
:101050000E018E7095FBF3F603FB165505F1300576
:101060004D7099FBF7F505F1300501F80E5B022C88
:1010700009D198F8005035B101F808CC01F809CC35
:1010800001F80ACC21E09AFBF3F503FB15A6111831
:101090003036A1F10A018E7095FBF3F603FB16556D
:1010A00005F130054D709AFBF7F505F1300501F8B3
:1010B0000A5B032C09D198F8005035B101F804CC33
:1010C00001F805CC01F806CC22E09BFBF3F503FB0D
:1010D00015B611183036A1F106018E7095FBF3F6A6
:1010E00003FB165505F130054D709BFBF7F505F137
:1010F000300501F8065B042C0AD198F800403CB199
:1011000002F800C001F801CC01F802CCBDE8FF8F65
:10111000039991FBF3F403FB14113031115494FB48
:10112000F3F103FB114110443031A0F10200417092
:10113000039991FBF7F101F130010170E6E717B572
:1011400001EB810002EB8000C3B29DF80020A148B2
:1011500002F00F01445C9D4900EB1212CC545B1E5F
:10116000DBB21278CA549DF801205B1E02F00F0416
:10117000DBB2045DCC545B1E00EB1212DBB21278C2
:10118000CA549DF802205B1E02F00F04DBB2045D1E
:10119000CC545B1E00EB1212DBB21278CA549DF8DD
:1011A00003205B1E02F00F04045DDBB2CC545B1E17
:1011B00000EB1210DBB20078C8541EBD01EB8101B8
:1011C00002EB810110B5834B00F00F029C5C7F4A5B
:1011D000C9B25454491E03EB1010C9B200785054E0
:1011E00010BD01EB810102EB810110B5794A00F0DD
:1011F0000F03D45C754BC9B25C54000900F00F04B6
:10120000491EC9B2145D5C540009491E00F00F0468
:10121000C9B2145D5C54491E0009C9B2105C58542F
:1012200010BD01EB810102EB8101CBB210B5694920
:1012300000F001028C5C654A4008D45400F00104BF
:101240005B1EDBB20C5DD454400800F001045B1E51
:10125000DBB20C5DD454400800F001045B1EDBB22D
:101260000C5DD454400800F001045B1EDBB20C5D41
:10127000D454400800F001045B1EDBB20C5DD45472
:1012800040085B1E00F00104DBB20C5DD4545B1E11
:101290004008DBB2085CD05410BD30B54E4A012383
:1012A00092F9011092F90420484D00EB800491421C
:1012B00002D105F8243030BD444D541C00EB8000B1
:1012C00005EB8000A14201D1037530BD941CA14201
:1012D00002D180F8283030BDD41CA14202D180F860
:1012E0003C3030BD141DA14202D180F8503030BDD9
:1012F000541DA14202D180F8643030BD941DA1423A
:1013000002D180F8783030BDD21D9142FBD180F8F7
:101310008C3030BD10B5314A0C461188491E084446
:1013200000B210802E4900EB8000014405222A48BB
:10133000FEF7C8FF284841782144417010BD2DE9CF
:10134000F0411646254A0D46B2F90010044601EB5D
:1013500081001F46491C224B1180184405221E495A
:10136000FEF7B0FF1C480470457006718770BDE839
:10137000F08170B504460D461646FEF7C6FF1348C9
:101380000021491C14F8012BC9B200F8012B1429C3
:10139000F7D30021491C15F8012BC9B200F8012B25
:1013A0001429F7D30021491C16F8012BC9B200F803
:1013B000012B1429F7D30021491C13F8012BC9B2C2
:1013C00000F8012B1429F7D370BD0000F4C10720E9
:1013D0003EC00720B2C9010074C107205CC00720CD
:1013E0000C5B001010B5029CFFF7C3FF4548C378A3
:1013F000827841787520FFF7A2FF642094FBF0F01B
:10140000BDE81040C0B2FEF71CBF2DE9FE4340010D
:101410000D4600F5806402A9204615F05FFF01A982
:1014200004F1080015F05AFF694604F10C0015F0AC
:1014300055FF2846FEF772FF334C20272754401CE7
:10144000C0B24FF0300C04F800C0401CC0B24FF0E6
:10145000210804F80080401CC0B240262654401CDD
:10146000C0B22754401CC0B22754401CC0B204F87C
:1014700000C0401CC0B223212154401CC5B29DF8BD
:10148000060000222121FFF7ACF89DF8040000229D
:101490002321FFF7A6F89DF80500401E0C2802D373
:1014A00001208DF805009DF805001849002201EB88
:1014B00080004021FFF782F867556D1CE8B204F800
:1014C00000C0401CC0B204F80080401CC0B23A21E9
:1014D0002154401CC0B204F800C0401CC0B22654C5
:1014E000401CC5B29DF8000000222121FFF779F8C9
:1014F0009DF8010000224021FFF773F86755BDE811
:10150000FE83000074C10720F4C1072034C9010024
:101510007CB50025FF4C01212576227D022A01D1D0
:1015200021767CBD64222276217500EB4001FA4AC7
:1015300001EB001102EB81066075F849B56131F9E4
:101540001000002115F03FFFF548A5750088F54D06
:10155000401C00F0070006EB4000B0F920000190AD
:10156000A88B00904FF063024FF001016846FEF730
:1015700088FEE84C9DF800007C342070287E0090A6
:101580000C2201216846FEF77CFE9DF80000607089
:10159000287B00901F2201216846FEF772FE9DF80D
:1015A0000000A0709DF80400E070287A00901722D7
:1015B00000216846FEF765FE9DF80000207128793D
:1015C00000903B2200216846FEF75BFE9DF800007C
:1015D0006071287800903B2200216846FEF751FE9A
:1015E0009DF80000A0719DF80500E0717CBD2DE91B
:1015F000F041C84C207D01287DD12146497D4FF026
:101600000108C1F10102A07D08FA02F1C34EC24FE8
:101610000AB290BB1423CA21C820FEF7B1FD1423DF
:101620004FF0FF32CE21CD20FEF7AAFD607D00EB0A
:10163000400101EB001007EB8000B0F90800FEF755
:101640005FFE617D01EB410202EB011207EB8202BA
:101650009369184448F6A0439061984215DBC01A7C
:10166000906136F8110015F0BDFD401C01B2607D9F
:1016700036F9100015F0A7FE07E0FFE7012804D1B6
:101680001423CA21C820FEF77BFD607D002500EBF6
:10169000400101EB001107EB8101B1F90220A249E1
:1016A000B1F9001001EB8101B2EB410F38DAB4F867
:1016B0005410491C09B2A4F854101E2932DB217DB4
:1016C000012921D1A17DF9B936F8100015F08AFD64
:1016D00001B29648627D30F9120015F074FE607D0B
:1016E00036F8100015F07EFD81B2607D03F02DFD0F
:1016F0008F48617D00E02EE030F91100002115F0E7
:1017000062FE32206083A083607D8A49C0F10100BF
:10171000085C552802D184F8168003E0257501E0A5
:10172000A4F85450607D00EB400101EB0011C0F1C2
:10173000010000EB400202EB001007EB810107EB18
:101740008000B1F90210B0F90200814203DBA07DF4
:10175000012800D12575BDE8F0816E4902460B7D58
:101760000020002B07D1022001F8140F8A870020E7
:10177000C88748870120704710B5664C207D022835
:1017800009D104F11404A08F03F096FD00206087B6
:10179000A087E087207010BD70B5624C203C94F8A3
:1017A0003800654D297808440C2803D9A08F401CC7
:1017B00001B201E0B4F93C10B82015F004FE94F831
:1017C0003810287801440C2994F8381001D90C38C5
:1017D000FFE70144B62015F0F6FD94F82C001C2814
:1017E00001D91C2101E094F82C10B42015F0EBFD78
:1017F00004F12004217A4FF0AE0015F0E4FD2179C8
:10180000B02015F0E0FD2178BDE87040B22015F061
:10181000DABD10B548483F4C007838B3414820380D
:10182000818F464A1288914220D190F83810444A5C
:10183000128891421AD190F82C10424A1288914293
:1018400014D190F82810404A128891420ED190F895
:1018500024103E4A1288914208D190F820003C4959
:101860000988884202D10120E07502E0E07D00286D
:101870000BD038480088C0B2FFF76FFF002804D0B3
:101880000020E075BDE8104086E710BD2149087DC5
:1018900002281FD1B1F84E004FF46162904219D274
:1018A000401C80B2A1F84E00904213D30022A1F850
:1018B0004E20B1F8500000280CD0401E0004000C4F
:1018C00021F8500F4B8803F101034B80A1F1500127
:1018D00000D10A7570472DE9F05FDFF838A01F4F7F
:1018E0000AF1420108880C4E00F1010000B20880A4
:1018F00019494FF00109B1F900104FF00005C1EB93
:1019000001110AF148044FF00A08B0EB810F78DBAF
:1019100026E000000C0000109CEA0720A8C201008D
:10192000D00000102040024078C00720C4C201004F
:10193000A4C20100BAC0072043C00720C6C00720C8
:10194000C4C00720C2C00720BCC00720BEC00720FB
:10195000C0C00720C8C007208EC007207EC0072057
:10196000AAF842502570DFF864B465709BF8000057
:10197000552814D1B6F90200502810DDB6F9081028
:10198000B7F900204846914200DB0020FEF7B8FC82
:1019900018B996F83D00C00701D084F800909BF874
:1019A0000100552814D1B6F94E00502810DDB6F9C3
:1019B0005410B7F900204846914200DB0020FEF7A2
:1019C0009FFC18B996F88900C00701D084F80190EF
:1019D000FF48007838B99AF80F00514618B1087DD1
:1019E00020B1022802D02570657008E02078012817
:1019F00002D06078012802D1A1F8448001E0AAF861
:101A000044505146BAF94400DFF8C8A300280AF14F
:101A1000040B5CD0401E00B28946A1F844000528A2
:101A200003DD0F231E22642104E0002815DD0F23AF
:101A30001E226921E120FEF7A3FBB9F84400052826
:101A40000BD1B6F90800FEF75BFCAAF80000B6F966
:101A50005400FEF755FCAAF80200B9F8440000282B
:101A60002DD1B6F90800FEF74BFCABF80000B6F933
:101A70005400FEF745FCABF80200A9F84650BAF94D
:101A80000010BBF900000844B7F90010884202DAE0
:101A9000A9F8468008E0B6F90200C82804DD002154
:101AA0002570084603F03AF8BAF90200BBF90210B3
:101AB0000844B7F90010884203DAA9F84680BDE867
:101AC000F09FB6F94E0062E065700021CBE0B1F9FD
:101AD000460000285ED0401E00B28846A1F84600AD
:101AE000052803DD0F23C822642104E0002815DD4A
:101AF0000F23C8226921E120FEF742FBB8F8460017
:101B000005280BD1B6F90800FEF7FAFBAAF8000089
:101B1000B6F95400FEF7F4FBAAF80200AD485A38B3
:101B2000B0F846000028CAD1B046B6F90800FEF762
:101B3000E7FBABF80000B6F95400FEF7E1FBA54E59
:101B4000ABF802005A3EB573BAF90010BBF90000B9
:101B50000844B7F90010884202DA86F80E9008E0CF
:101B6000B8F90200C82804DD00212570084602F0FB
:101B7000D5FFBAF90210BBF902000844B7F900100A
:101B8000884202DA86F80E9099E7B8F94E00C82824
:101B90009ADC94E7887B8946002890D00F230022A6
:101BA0006E21E120FEF7ECFAB6F90800FEF7A8FB7B
:101BB000B7F90010884207DD2078012804D1002100
:101BC0002570084602F0AAFFB6F95400FEF798FB0C
:101BD000B7F90010884206DD6078012803D16570EE
:101BE000002102F09BFF207818B9607808B989F8C5
:101BF0000E50E620FEF7DBFA18B177480068E728B8
:101C00000AD076487649B0F90000B1F9001000EB2F
:101C10008000B1EB400FB7DA89F80E502078714D93
:101C200001280FD1B7F90000410091FBF8F0B5F998
:101C30000010884206DA96F83D00C00702D1012163
:101C400002F06CFF607801289ED1B7F90000B5F969
:101C50000010400090FBF8F0884295DA96F8890071
:101C6000C00791D10121BDE8F05F012002F056BF0D
:101C700070B5584C5A3CE08E401C00B2E086B0F57E
:101C8000E16F02DB0020E08670BDB0F5DF6F11D997
:101C90000F2301226421D220FEF772FA0F230022C3
:101CA000D821D720FEF76CFA0F230022D821DC20A0
:101CB000FEF766FAB4F93600A0F5E0610739E3D122
:101CC000494D4A4C28882188494E884205D0B4F9AC
:101CD0000010B6F9000015F076FB6888618888422C
:101CE000D2D0B4F90210B6F90200BDE8704015F088
:101CF0006ABB10B53F4C082220880021401C208080
:101D00002046FEF7D4FA3C49B4F900004A8801EBBA
:101D100040000284B1F84E10A0F86C1010BD70B5F0
:101D2000364C3748374AB4F90010B0F9003092F910
:101D30000000994216DA344D0A2809DA401C40B2F4
:101D400010700A2806DB2980012002F05FFB01E009
:101D50000A201070B4F90000B5F90010884200DACA
:101D6000288070BDFDDD0028FBD0401E40B2107001
:101D70000028F6DCBDE87040002002F047BB2DE9EA
:101D8000F05FDFF88890224DB9F90000B5F9001036
:101D90004FF4FA68414391FBF8F1174C1D4B6180F9
:101DA000B9F90810B3F9002040464A4392FBF8F114
:101DB000A180B9F91810B5F902204A4392FBF8F155
:101DC000A4F84E10B9F9021026E00000BAC00720AE
:101DD0004AC00720660000100CC0072078C007200A
:101DE00016C1072018C10720B00000101AE4072010
:101DF000D0C20100D00000109CEA07201CC10720BF
:101E00007AC007204AC3072048C30720ECE907200F
:101E1000AC00001024C30720B3F902204A4392FB10
:101E2000F0F0A4F85000DC20FEF7E1F9B8B9FF4D5E
:101E3000FF4928880A88831AFE4AB2F900005843ED
:101E40004FF47A7390FBF3F0208168884988401A38
:101E5000B2F90210414391FBF3F0A4F85400B9F930
:101E60000C0040F6B733A0F22132012100259A423E
:101E700001D2257300E02173EF4F44F62066B7F9D5
:101E80000020424392FBF6F0A0F211106081B9F9F4
:101E90000E00A0F221329A4202D284F8585001E09A
:101EA00084F85810B7F90220424392FBF6F0A0F2F2
:101EB0001110A4F85600E14AB9F90400B2F9002063
:101EC000504390FBF8F0DE4A1080B9F90A20DD4853
:101ED000A2F221379F4201D2056000E00160DFF8E5
:101EE00068C3DFF868B3BCF90070574397FBF6F29C
:101EF000A2F21112ABF80020B9F91420A2F2213796
:101F00009F4201D2456000E04160BCF90270E246A8
:101F1000574397FBF6F2A2F211120FFA82F8ABF8D0
:101F20000280B9F90620DC46A2F221379F4201D295
:101F3000856000E08160BAF90410C64F514391FBFF
:101F4000F6F1A1F2111109B2ACF80410C04A8946A9
:101F50001388B7F900104FF47A6C594391FBFCF1E8
:101F600089B2BD4BBD4E1980642901D3BC49098893
:101F700031805188B7F9022008F211184A4392FBC8
:101F8000FCF15980B749DFF8E0C2B1F90020BCF993
:101F90000030534341F2707293FBF2F6B34B1E8054
:101FA000B1F90270BCF902607E4396FBF2F65E80E6
:101FB000BCF90470B1F90460DFF8B8C2774397FB4D
:101FC000F2F69E80AA4BB1F90660B3F90070774330
:101FD00097FBF2F6ACF80060B1F90870B3F9026053
:101FE0007E4396FBF2F6ACF80260B1F90A10B3F941
:101FF0000430A14E4B4393FBF2F1ACF804100FFAFE
:1020000088F209F2111132800BB27380416811F02D
:10201000FF0131728068C0B27072984E08D178B9F1
:10202000D01800EBD0706FF4887101EB600019E0FC
:10203000012904D160B9A3F21113338013E029B947
:10204000012810D1A2F2111232800CE001290AD12C
:10205000012808D18A480078052802D289480088DA
:1020600000E014203080884888490278552A05D13C
:10207000B4F90220C82A01DD22894A864078552811
:102080000AD1B4F94E00C82806DDB4F95400B4F9F9
:102090000820904200DD48867D480022DFF8F4C128
:1020A000B0F900102CE002EB82000CEB0010C378BA
:1020B000192B1CD28379C67903EB06230362037ABA
:1020C000467A03EB0623C361837AC67A03EB0623C1
:1020D0008361037B4362437B80F84E30837B80F8CF
:1020E0003E30037C467C03EB0623836406E0856177
:1020F0000562C561456280F83E508564521CD2B2CB
:102100008A42D0DBB4F908200A2092FBF0F2B4F93D
:102110005430614F93FBF0F01044404203B25F4CE7
:102120003B80258000200CE000EB80020CEB0212CB
:10213000D678052E03D2126A268832442280401CAB
:10214000C0B28842F0DB2088184400B238800028F2
:1021500000DA3D80524E0620B0615248B0F900705E
:10216000002F37D00021DFF8408131E098F80000DF
:10217000084400EB80000CEB0010C278192A19D239
:102180008279C37902EB032301EB810206EB021291
:102190001362037A447A03EB0423D361837AC47A0B
:1021A00003EB04239361037B5362807B82F83E0040
:1021B00095700BE001EB810006EB00108561056274
:1021C000C561456280F83E5019228270491CC9B22F
:1021D000B942CBDB73E4354835490278012A0BD18B
:1021E000407848B933480078552805D10878002848
:1021F00001D0401E087070472F480088FAE72F482A
:10220000416821F4402141F480214160416821F47A
:10221000403141F480314160416821F4404141F452
:1022200080414160416C21F4402149E01AE40720DB
:10223000B000001028C30720B400001032C30720EC
:1022400016C10720E4F307202CC30720AEC10720E6
:10225000B4C10720BA000010BAC107202CC1072062
:102260001CC107205CF40720EA000010C0C1072051
:102270005EC30720C6C1072070F4072024C10720D1
:1022800056C0072030C10720BAC007200C0000103C
:10229000ACC0072034EB072018C1072058C3072023
:1022A000F4EE0720AEC0072045C0072074C1072008
:1022B00029C0072044C00720CAC0072000C0024030
:1022C00041F400214164416C21F4403141F400317A
:1022D0004164416C21F4404141F400414164FF48B4
:1022E000016821F0E0610160016841F400110160C2
:1022F000016821F480310160016821F47F4141F4DB
:10230000807101608115C1608803F54908607047DC
:102310002DE9F041F34D68882988401A00B203F096
:10232000E8F8AE1D3080A8886988401A00B203F032
:10233000E0F87080A8882988401A00B203F0D9F824
:102340004FF49671B080A5F16E04884201DAA88836
:102350000AE0B6F90200884201DA688804E0B6F9BA
:102360000000884201DA2888A08494F801C0002582
:10237000BCF1000F22D0DC48B4F9241002680A44F2
:10238000026042680A44426082680A448260C2680D
:102390001144C160A18D491C09B2A185B1F5805FCE
:1023A00000DBA585B4F92C108A052CD1891250F8D0
:1023B00021201212628440F8215024E0CB49A378F6
:1023C000E678B4F9240001EB831242F82600B00746
:1023D0000DD10021084652F82070401CC0B239448B
:1023E0001028F8D30811C049203921F813005B1CCC
:1023F000D8B2A070102806D3761CF0B2A570E07099
:10240000102800D3E5700CF1010C25701CF00101BF
:10241000B7486170B14A016C41F080010164416DBF
:1024200008D041F080014165106820F0FF00001DD8
:10243000106035E021F080014165A1780B07002B89
:10244000136823F0FF0301DB5B1C01E003F10203CF
:102450001360036843F080530360036A43F08043D2
:102460000362036E43F080630366CB07436902D1C6
:1024700023F0805301E043F0805343618B07436BAB
:1024800002D423F0804301E043F0804343634907D3
:10249000416F02D421F0806101E041F08061416729
:1024A000106840F080701060BDE8F081F0B58D4B91
:1024B0006E3BB3F91E0010B1401ED88385E00027A3
:1024C0008D495F7338468B4DB1F900200EE000EB6B
:1024D000800105EB01118C78012C05D1C9781429F4
:1024E00002D2597B491C5973401CC0B29042EEDBAA
:1024F0005E7B022E69D341F2883058871F879F8701
:10250000002116E001EB810005EB00108478012C1E
:102510000DD1006AB3F93840A04200DD1887B3F945
:102520003A40A04200DA58879C8F20449887491C83
:10253000C9B29142E6DBB3F93C0090FBF6F000B281
:10254000D887598F012601B95E87198F64246143AA
:10255000B3F93A4009B291FBF4F109B2A3F8401083
:10256000A02900DD1E73782901DA1F732DE0197B85
:1025700001292AD100236FF0310624E003EB830107
:1025800005EB01118C78012C1BD10C6A844205DD0E
:10259000B1F84C40A4F10104A1F84C4005DAB1F8BF
:1025A0004C4004F10104A1F84C40B1F94C40B44254
:1025B00002DAA1F84C6004E0322C02DD3224A1F8EA
:1025C0004C405B1CDBB29342D8DB00BFF0BD70B562
:1025D0004A4801684A4A11400160454C216841F46B
:1025E0007C712160C16921F44021C161216E41F0FB
:1025F00000712166416821F040614160206840F02F
:102600000050206040483F4A0178404892F83C30F2
:1026100000780B4305D020B1A36943F48073A36114
:1026200003E0E36943F48073E36192F888200A438E
:1026300005D020B1A06940F04000A06103E0E0694E
:1026400040F04000E061D220FDF7D1FD304D40B1B7
:102650006868012804D1A06940F00050A06104E03E
:1026600018B9E06940F00050E061D220FDF7BFFDED
:1026700070B1286866280BD168680CE0A06F40F044
:102680000070A06770BDE06F40F00070E06770BD43
:1026900020480068C0070028F5D1EFE72DE9F05F7A
:1026A000104E00216E3EB07C4FF0010A0A2807D27E
:1026B000401CC0B2B0740A2802D3B17486F813A0CB
:1026C000A6F84A108946A6F84C10CD20FDF78FFDDC
:1026D000084FDFF824B0002874D01DE0004003400C
:1026E00000E100E07A0000100CEA0720ECE507208A
:1026F00000C0092034EB0720ACC0072000C0024016
:10270000FF00F0FF9CEA072021C307202CC0072010
:102710000CC0072094000010FF494FF6FF720868B4
:10272000CE2802D1A6F84C2016E0CF2801D1486867
:1027300010E0D12803D14868A6F84A000CE0D2285E
:1027400002D1A6F84A2007E0D02805D14868A6F8AB
:102750004A00C043A6F84C0000242DE00AFA04F019
:10276000B6F84C108046084207D004EB840007EB13
:102770000010818F491C818705E004EB840107EB81
:102780000111A1F83C9004EB840007EB001505F162
:102790003C0032220021FDF77FFDB5F93C001428F2
:1027A00001DD85F828A0B6F84A1018EA010F01D01B
:1027B00085F82890641CE4B2BBF900008442CDDDAA
:1027C0003DE0FFE7F07C78B3002108465346BBF9B3
:1027D000002007E000EB800407EB0414401C84F8A1
:1027E0002830C0B29042F5DDCC4B0020B3F9005048
:1027F000CC460EE000EB800307EB0314A378022B1A
:1028000001D0012B03D1491C84F828C0C9B2401C57
:10281000C0B2904201DAA942ECDBC148B0F9000035
:102820003C280CDA002008E009E000EB800107EB0F
:102830000111401C81F828C0C0B29042F5DD002093
:102840006323BBF900200BE000EB800107EB0111D3
:102850008C6B1CB181F82830641E8C63401CC0B2A4
:102860009042F1DB86F8139086F80F9000200BE081
:1028700000EB800107EB01118978012902D1F17B7E
:10288000491CF173401CC0B29042F1DBA2E470B568
:10289000044607220121A348FDF7F3FCA24804EBFC
:1028A000840100EB011595F83F0095F83E109F4A12
:1028B000484000D05070014000D0917000EA010300
:1028C000DB071DD0D078401CD07024B901231A46F4
:1028D0000E2197A0E0E0012C04D1012302220E2159
:1028E0009AA0D9E0022C04D1012303220E219EA03C
:1028F000D2E0032C77D1012304220E21A1A0CBE04A
:1029000083071FD58B071DD5D078401CD07024B904
:10291000022301220E21A2A0BEE0012C04D1022339
:102920001A460E21A5A0B7E0022C04D102230322EF
:102930000E21A9A0B0E0032CDCD1022304220E2139
:10294000ACA0A9E043071FD54B071DD5D078401C8C
:10295000D07024B9032301220E21ADA09CE0012CEC
:1029600004D1032302220E21B0A095E0022C04D151
:1029700003231A460E21B4A08EE0032CBAD1032300
:1029800004220E21B7A087E003071FD50B071DD532
:10299000D078401CD07024B9042301220E21B8A0A5
:1029A0007AE0012C04D1042302220E21BDA073E0A1
:1029B000022C04D1042303220E21C3A06CE0032CBB
:1029C0006CD104231A460E21C8A065E0C30620D5A9
:1029D000CB061ED5D078401CD0702CB9052301221F
:1029E0000E21CBA058E059E0012C04D1052302228E
:1029F0000E21D0A050E0022C04D1052303220E2189
:102A0000D5A049E0032C49D1052304220E21DBA0E7
:102A100042E083061FD58B061DD5D078401CD070B0
:102A200024B9062301220E21DDA035E0012C04D1BA
:102A3000062302220E21E3A02EE0022C04D106235D
:102A400003220E21E8A027E0032C27D1062304222D
:102A50000E21EEA020E0002820D000291ED1D07841
:102A6000401CD07024B9002301220E21F0A013E0F5
:102A7000012C04D1002302220E21F2A00CE0022C32
:102A800004D1002303220E21F3A005E0032C05D17D
:102A9000002304220E21F5A013F028F815F83E0FAC
:102AA000687070BD2DE9F0410646F54900EB8000E5
:102AB00001EB0014207803282CD194F83E50A8078D
:102AC000B4F9420010D54FF4966188421ADA401CDE
:102AD00000B2A4F84200884214DBA4F842106078E7
:102AE000C0070FD1012209E060B1401E00B2A4F876
:102AF000420038B96078C00704D000220021304677
:102B000001F0ABFD28074FF00A074FF00001B4F9C0
:102B10004400B7E122E200000CC00720E2000010F0
:102B20005AC0072045C00720F4EE072076000010A9
:102B3000496E766572746F7220233120416C617228
:102B40006D2C206F7665726C6F616400496E7665DE
:102B500072746F7220233220416C61726D2C206F71
:102B60007665726C6F616400496E766572746F721F
:102B700020233320416C61726D2C206F7665726C5E
:102B80006F616400496E766572746F722023342021
:102B9000416C61726D2C206F7665726C6F616400A0
:102BA000496E766572746F7220233120416C6172B8
:102BB0006D2C206F7665726865617400496E76656C
:102BC00072746F7220233220416C61726D2C206F01
:102BD0007665726865617400496E766572746F72AD
:102BE00020233320416C61726D2C206F76657268F2
:102BF00065617400496E766572746F7220233420AB
:102C0000416C61726D2C206F76657268656174002D
:102C1000496E766572746F7220233120416C617247
:102C20006D2C206973207761726D0000496E7665A6
:102C300072746F7220233220416C61726D2C206996
:102C400073207761726D0000496E766572746F72E1
:102C500020233320416C61726D2C206973207761D1
:102C6000726D0000496E766572746F722023342095
:102C7000416C61726D2C206973207761726D000068
:102C8000496E766572746F7220233120416C6172D7
:102C90006D2C20766F6C7461676520697320757088
:102CA00000000000496E766572746F722023322036
:102CB000416C61726D2C20766F6C74616765206960
:102CC0007320757000000000496E766572746F7233
:102CD00020233320416C61726D2C20766F6C7461FF
:102CE000676520697320757000000000496E766585
:102CF00072746F7220233420416C61726D2C2076C7
:102D00006F6C746167652069732075700000000046
:102D1000496E766572746F7220233120416C617246
:102D20006D2C20766F6C7461676520697320646F09
:102D3000776E0000496E766572746F7220233220C0
:102D4000416C61726D2C20766F6C746167652069CF
:102D50007320646F776E0000496E766572746F72CF
:102D600020233320416C61726D2C20766F6C74616E
:102D7000676520697320646F776E0000496E766521
:102D800072746F7220233420416C61726D2C207636
:102D90006F6C7461676520697320646F776E0000E3
:102DA000496E766572746F7220233120416C6172B6
:102DB0006D2C206F7574707574206973206F666652
:102DC00065640000496E766572746F72202332204C
:102DD000416C61726D2C206F75747075742069730D
:102DE000206F666665640000496E766572746F7266
:102DF00020233320416C61726D2C206F75747075C7
:102E000074206973206F666665640000496E76659C
:102E100072746F7220233420416C61726D2C206FAC
:102E20007574707574206973206F66666564000040
:102E3000496E766572746F72202331206973206E3B
:102E40006F726D00496E766572746F722023322046
:102E50006973206E6F726D00496E766572746F7261
:102E6000202333206973206E6F726D00496E766582
:102E700072746F72202334206973206E6F726D003C
:102E800034EB07200ED50A281FDA401C00B2A4F844
:102E900044000A2819DBA4F844706078800714D431
:102EA000012209E000280DDDA0F1010000B2A4F824
:102EB000440050B94FF000024FF00101304601F0DC
:102EC000CCFB02E001DAA4F84410E806B4F94600AD
:102ED0000ED50A2817DA401C00B2A4F846000A28CA
:102EE00011DBA4F84670607840070CD4012206E09C
:102EF00048B1401E00B2A4F8460020B900220221C9
:102F0000304601F0AAFB6078000701D0042011E0F0
:102F1000FF48007820B1A069C82801DA052009E03F
:102F200094F83E00800601D5022003E0E0781428E2
:102F300001D20120A070E0780A2894F8280002D37A
:102F400040F0800001E000F07F0084F82800F149A3
:102F5000B4F94C00B1F91A100844E062BDE8F08100
:102F600070B5ED490020B1F90C20EC4D0123044669
:102F700003FA00F10A4201D02B5400E02C54401C0B
:102F8000C0B20C28F4D3E64E28783178E54C814263
:102F900010D0B4F9001001290CDB012804D1012361
:102FA0001A460B21E0A003E0002301220B21E3A03D
:102FB00012F09CFD71786878814210D0B4F900104D
:102FC00002290CDB012804D1012302220B21E0A0FD
:102FD00003E0002302220B21E2A012F087FDB1786A
:102FE000A878814210D0B4F9001003290CDB012825
:102FF00004D1012303220B21DFA003E000230322DD
:103000000B21E2A012F072FDF178E878814210D035
:10301000B4F9001004290CDB012804D10123042297
:103020000B21DFA003E0002304220B21E1A012F01A
:103030005DFD31792879814210D0B4F9001005295D
:103040000CDB012804D1012305220B21DEA003E0C3
:10305000002305220B21E1A012F048FD7179687967
:10306000814210D0B4F9001006290CDB012804D1EC
:10307000012306220B21DEA003E0002306220B2100
:10308000E0A012F033FDB179A879814210D0B4F9F3
:10309000001007290CDB012804D1012307220B2192
:1030A000DDA003E0002307220B21E0A012F01EFDAB
:1030B000F179E879814210D0B4F9001008290CDBCD
:1030C000012804D1012308220B21DDA003E0002305
:1030D00008220B21DFA012F009FD317A287A814203
:1030E00010D0B4F9001009290CDB012804D1012308
:1030F00009220B21DCA003E0002309220B21DFA021
:1031000012F0F4FC0020295C3154401CC0B20C28A1
:10311000F9D370BD70B5C820FDF769F8DC4B002409
:1031200098B3DC4901260868C92810D1002000EBBB
:10313000400101EB001113F82120322A02D2521C67
:1031400003F82120401CC0B20228F0D328E0CA288E
:103150004FF000001AD14D6806FA00F10D4200EB65
:10316000400109D001EB001213F82210322907D2D6
:10317000491C03F8221003E001EB001103F8214081
:10318000401CC0B20228E7D30AE01EE000EB400179
:1031900001EB0011401CC0B203F821400228F5D316
:1031A000002000EB400101EB001113F8212003EB9C
:1031B0008101142A02D981F83C6001E081F83C4089
:1031C000401CC0B20228ECD370BD00EB400101EB03
:1031D000001103F82140401C03EB8101C0B281F8CB
:1031E0003C400228F1D370BD2DE9F041AA4FAB4815
:1031F000AB4CB7F90010B0F90020B4F900009142CF
:1032000002DD00F1010002E002DAA0F101002080FD
:1032100006220021A248FDF73FF8B4F90000A149B9
:103220000125052800DD0D700024012800DA0C704E
:103230009D49B7F90000B1F900209C49931E9C4EAE
:1032400098420BDA91F900201E2A16DA521C52B26B
:103250000A701E2A11DB3288521E0CE090420BDDF0
:1032600091F900201E2A08DA521C52B20A701E2A56
:1032700003DB3288521C32800C708E49B846B1F99B
:103280000010884201DD142203E08B4800880930D9
:1032900002B200218648FCF7FFFFF020FCF7A7FFF1
:1032A00028B17C480168F12901D140683080B6F925
:1032B00000108248012901DC057000E0047080489C
:1032C000804EB0F90010A1F1320028281BD8B8F9BF
:1032D00000007D4F884202DD3988491C39807B49D6
:1032E000B1F90010884202DA3888401E3880062280
:1032F00000217548FCF7D0FFB7F90000052800DD74
:103300003570012800DA34707148B0F90010E1E03E
:103310004AC007200C0000105CF407208EF4072040
:103320003E5B0010B6C007204176746F6D6174205B
:103330002331206973204F4E200000004176746FC6
:103340006D6174202331206973204F4646000000D0
:103350004176746F6D6174202332206973204F4E63
:10336000200000004176746F6D6174202332206963
:1033700073204F46460000004176746F6D617420E3
:103380002333206973204F4E200000004176746F74
:103390006D6174202333206973204F46460000007E
:1033A0004176746F6D6174202334206973204F4E11
:1033B000200000004176746F6D6174202334206911
:1033C00073204F46460000004176746F6D61742093
:1033D0002335206973204F4E200000004176746F22
:1033E0006D6174202335206973204F46460000002C
:1033F0004176746F6D6174202336206973204F4EBF
:10340000200000004176746F6D61742023362069BE
:1034100073204F46460000004176746F6D61742042
:103420002337206973204F4E200000004176746FCF
:103430006D6174202337206973204F4646000000D9
:103440004176746F6D6174202338206973204F4E6C
:10345000200000004176746F6D617420233820696C
:1034600073204F46460000004176746F6D617420F2
:103470002339206973204F4E200000004176746F7D
:103480006D6174202339206973204F464600000087
:103490009CEA07200CC0072024C107209CC00720FD
:1034A000F000001022C307209EC0072020C3072081
:1034B00034C10720A0C007202EC10720AA00001099
:1034C000A6C0072021C3072064C30720A8C0072087
:1034D000A2C00720A1F13200FF4E1E281BD8B8F968
:1034E0000000FE4F884202DD3988491C3980FC49C2
:1034F000B1F90010884202DA3888401E388006226E
:103500000021F648FCF7C8FEB7F90000052800DDE9
:103510003570012800DA347020E52DE9FC5FF149AF
:10352000054631F9100010B1401E21F81500ED4A92
:10353000121D32F9150010B1401E22F8150005EBDE
:103540004500E94B00EB051003EB8004E74BB4F9B1
:103550000800B3F90030984202DD642321F81530E9
:10356000002802DA642022F81500DE4831F8153010
:103570006238002793B132F815307BB1B0F858307B
:1035800043B94FF41673A0F8583021F8157022F89B
:10359000157003E040F6B831A0F85610A0F8567048
:1035A00094F83E00401CC0B284F83E000A2801D3C3
:1035B00084F83E70DFF83883CE4EB8F80000322829
:1035C0000ED194F83C00F8B9B4F9020050281BDA87
:1035D00094F83D00C00717D10121284601F09EFA5A
:1035E000B8F90000C8280FDDB4F90800FCF788FE20
:1035F000B6F90010884207DD94F83D00C00703D0FB
:103600000021284601F08AFABA48B4F90810B0F946
:1036100000004042814212DD607B0A280CD2401C2F
:10362000C0B260730A286ED3A07B00286BD0A7734A
:10363000284601F0E9F966E00A20607363E062DA87
:10364000607B00285FD0401E10F0FF0060735AD1ED
:10365000A07B002857D10120A073A748A74E00885F
:10366000401C00F0070004EB4000008C0090B08B81
:1036700001904FF063024FF0010101A8FCF701FE39
:103680009DF8040004F11C042076307E01904FF078
:103690000C024FF0010101A8FCF7F3FD9DF80400B6
:1036A0006076307B01901F22012101A8FCF7E9FD23
:1036B0009DF80400A0769DF80000E076307A019035
:1036C0001722002101A8FCF7DCFD9DF804002077FB
:1036D000307901903B22002101A8FCF7D2FD9DF832
:1036E00004006077307801903B22002101A8FCF7AC
:1036F000C8FD9DF80400A0779DF80100E0772780C1
:103700006780A4F11C0494F83E0048F6A049002804
:1037100070D1B4F908106069DFF8E4810844DFF87B
:10372000E4A145F2555B6061484521DB3AF915108B
:103730005046594500D1744830F8156038F81500E6
:1037400013F050FD81B2B1420AD2606901F101016A
:10375000A0F50040A0F54A60606138F9150026E048
:103760002BD938F9150031B213F02DFE484623E06D
:103770006649884221DC3AF915105046594500D176
:10378000614830F8156038F8150013F02BFD81B250
:10379000B14205D938F9150031B213F014FE3146A3
:1037A00049B16069491E4844606138F9150009B2A1
:1037B00013F009FE01E05548606138F8150013F078
:1037C00011FD3AF91510594502D14F4931F915103B
:1037D0004FF47A72504309B9002001E0B0FBF1F0D8
:1037E0000A21B0FBF1F0208204F1100064220021D4
:1037F000FCF752FDA07B012813D1A08B4E46484513
:103800000ED2B4F90800FCF77BFDA18B084480B20E
:10381000A083B04205D3A783E08B401CE08300E087
:10382000A7833B48B4F90A10B0F90000814205DDD6
:10383000207B18B9B4F84000401C02E0B4F8400006
:10384000401EA4F840004FF4167804F140004246B0
:103850000021FCF721FDB4F9400040F24E26B042B1
:1038600005DB94F83F1041F0010184F83F100A286D
:1038700005DC94F83F0020F0010084F83F00254962
:10388000B4F90A00B1F90010884205DD207B18B9AF
:10389000B4F84200401C02E0B4F84200401EA4F814
:1038A000420004F1420042460021FCF7F5FCB4F965
:1038B0004200B04205DB94F83F1041F0020184F869
:1038C0003F100A2805DC94F83F0020F0020084F83D
:1038D0003F004946606C1FE0AB000010F200001092
:1038E000A4C007206E0000109CEA072086C00720B5
:1038F00058C007207EC00720D000001020400240A2
:10390000A4C201005CC1072054C107206073FFFFFF
:1039100098C0072096C00720484510DA401C606414
:1039200088420DDBF94E676436F8150013F05AFC37
:10393000401C01B236F9150013F045FD00E0676444
:10394000F34E3088002854D0F248B0F900004045CA
:10395000B4F9020004DAC11700EB9170801003E0A3
:10396000052190FBF1F000B2A188C1EB400000B24C
:10397000FCF7C6FC00EB8000400000B20C2190FB7D
:10398000F1F000B2E080B6F90010884233DDB4F9FE
:103990000800FCF7B5FCE049B1F9001001EB81012A
:1039A000884228DADD487321B0F9000048436421D9
:1039B00090FBF1F0B4F9021000B288421BDA94F8DF
:1039C0003D00800717D4B4F84800401C00B2A0F5B1
:1039D0003061A4F84800B83903D10121284601F02C
:1039E00086FAB4F9481040F6BD30814201DBA4F8F4
:1039F0004800BDE8FC9FA4F84870FAE7F8B5C84C49
:103A0000002160790A2807D2401CC0B260710A28E0
:103A100002D361710120E071A079052805D2401C14
:103A2000C0B2A071052800D1A171BE20FCF7DFFB58
:103A3000BC4B28B1BC480168BF295AD1406857E047
:103A4000E079002855D0B94D2878552805D06878F8
:103A5000552802D0AF4800884AE00020B44E142711
:103A60006A466FF0130C295C552911D100EB400117
:103A700001EB001106EB810191F80CE0BEF1000FA3
:103A800002D022F8107005E0498922F8101001E0F8
:103A900022F810C0401CC0B20228E4D3BDF90000D7
:103AA000BDF90210A34A884201DD106001E008461A
:103AB0001160A149002802DAB1F9000012E02828BB
:103AC00001DD282010609D481268B0F90050B1F95E
:103AD0000000291A01EB810149005143C82291FBE2
:103AE000F2F10844217D022902D19548B0F9000085
:103AF0001880B3F9000062214143642291FBF2F186
:103B0000904B19806621484390FBF2F08E49088063
:103B1000F8BD2DE9F041824DB5F9200008B1401EF5
:103B200028848A488A4C0088814E2080B6F9080093
:103B30000A27002806DAFCF7E3FB90FBF7F0218860
:103B400008442080B6F95400002806DAFCF7D8FBB8
:103B500090FBF7F02188084420807E48B4F90010DB
:103B6000B0F900007C4A91FBF0F0401CC0B2287410
:103B7000B2F90020794B91FBF2F1491CC9B269748A
:103B8000B3F900203C24904201DD188004E091420A
:103B900003DA288C08B919802C847148018871488F
:103BA00009B101881980B0F90020BDE8F041012178
:103BB0006A48FCF771BB2DE9F05F6B48584CB0F9CF
:103BC0000000A086B4F9561011B1491EA4F8561091
:103BD000B4F9581011B1491EA4F8581054494FF0C7
:103BE0000A0891F83F20920703D191F88B108907BA
:103BF00002D090FBF8F0A086207A4FF000094FF039
:103C0000010A0A2808D2401CC0B220720A2803D335
:103C100084F8089084F809A0E120FCF7E8FA534FF3
:103C2000404D40F2F23B002858D03F4908686428D4
:103C300003D14968A08B084402E1692803D1486890
:103C4000A18B081AFCE06E2813D1608B401E00B2D5
:103C500060831E2806DD3149B7F90000B1F9001074
:103C6000884205DA0A230022E721E620FCF788FAD9
:103C7000E7E0E52801D14868E2E0E628F8D1B7F9A5
:103C80000000B5F90010884212DDA0EB01000A28FF
:103C900005DDB4F91A00002801DD401FD0E0B4F9B9
:103CA0001A0000287ED0617A00297BD0401EC7E030
:103CB00078DA081A0A2807DDB4F91A0040F2F73159
:103CC000884201DA401DBBE0B4F91A00B0F57F7FED
:103CD00068DA617A002965D0401CB1E0607A00287A
:103CE00060D0B4F91C002086B4F93210A28E91FB8A
:103CF000F8F6B6EB420F70DC3FDAC2EB02138B42F0
:103D00003BDAB4F8561099B3401E91E0C0C20100EE
:103D10009AC0072088C007207EC0072078C00720EF
:103D20000C00001026C107200CC00720BAC00720D5
:103D30009CEA072054C307206EC0072070C00720EC
:103D400080C0072050C30720E000001058C30720A0
:103D5000E400001082C0072084C00720E2000010A9
:103D600094C00720ACC0072086C0072016C10720DA
:103D700001E00A385CE0C01E5AE0C2EB02138B423D
:103D800001DD9642C0DCB7F90030B5F90050FF4EB6
:103D9000FF4FAB4232DAB6F90060B7F90070A6EB1C
:103DA000070700E04DE0A5EB07069E4216DD00295F
:103DB0001BDAB4F8561071B90A3039E0B4F856106D
:103DC00049B9801C34E0C2EB421303EB8212B2FB10
:103DD000F8F28A422DDD401C2AE018E0FE1707EBBE
:103DE0009676A5EBA6069E4204DD02EB82038B428B
:103DF000E9DDE3E76D1EAB42E5DB1AE019DDB6F95C
:103E00000010B7F90020891A4A199A4204DAB4F866
:103E100056100029ADD077E7CA1701EB927105EB78
:103E2000A101994218DAB4F856100029F3D1801E86
:103E300020865A460A21D748FCF72EFA208EA08306
:103E4000608384F80B90D54884F80A904D46D24A96
:103E50005346B0F900100DE06D1CAB42E9DD53E7AD
:103E600000EB800602EB0616F6781E2E00D2E372F7
:103E7000401CA072A07A8842F2DBE07A20B94FF4AD
:103E800016706083A0832086C2485A460A211638DD
:103E9000FCF702FA6572BDE8F09F2DE9F05FC24AB7
:103EA0000020BF4CBF4D4FF0010A4FF00A0B0646F1
:103EB000B2F9003021E0BD49BD4F095C37F911105E
:103EC000B1F5FA6F21560CDA0A2907DA491C49B212
:103ED00021540A290FDB05F800A00CE004F800B01B
:103EE00009E0002906DB491E49B22154002902DC01
:103EF0002E5400E02654401CC0B29842DBDB002464
:103F0000DFF8B092AC4FDFF8B4826EE0AC4830F826
:103F100014000028285D02D1012811D100E078B9F1
:103F200019F9040049460A2807DA401C40B208552E
:103F30000A2812DB07F804A00FE001F804B00CE037
:103F400019F904004946002806DB401E40B2085516
:103F5000002802DC3E5500E00E5518F80410385DCC
:103F600081423DD08B4A303AD18D491CD185012800
:103F70001AD124B901231A460F2192A02EE0012C58
:103F800004D1012302220F2191A027E0022C04D1A9
:103F9000012303220F2191A020E0032C20D1012333
:103FA00004220F2190A019E024B9002301220F213F
:103FB00090A013E0012C04D1002302220F2192A033
:103FC0000CE0022C04D1002303220F2193A005E072
:103FD000032C05D1002304220F2195A011F086FDAA
:103FE000395D08F80410641CE4B26F48B0F90000B1
:103FF00084428BDB4FE7934A01209349107008708D
:104000005070487070472DE9F05F9148DFF844C266
:10401000B0F90060BCF900008C4FC0EB0013DFF872
:1040200074816FF09500B7F9025000EB8302A8F19C
:1040300030086FF01D0B0024DFF80892B8F9420039
:104040000BEB8301B54204DC834EB6F90060B54248
:1040500005DA814203DD824201DA89F800407F4DB2
:10406000BA46B7F90860B5F90070774DB6EB470F5F
:1040700003DC7F42B6EB470F04DA814202DD824265
:1040800000DA2C706FF0090101EB83016746814271
:1040900021D198F81400F0B999F8000001281AD13C
:1040A0002878012817D14FF4D676304613F09AF8C5
:1040B0006B49B1F9001088420DD06A48008850B1B0
:1040C0009AF83D00C00706D1304613F07CF96649E6
:1040D0000878401C08705E49BAF90200B1F9001076
:1040E0005646884206DC5C49B6F94E00B1F900102C
:1040F000884211DAB7F90000C0EB0011B8F94200AC
:104100000BEB8102824207DD6FF0950202EB810129
:10411000814201DA89F801405049B6F95400B1F9F9
:104120000010B0EB410F03DC4942B0EB410F10DA55
:10413000B7F90000B8F94210C0EB00100BEB800299
:104140008A4206DD6FF0950202EB8000884200DAB9
:104150006C70B7F900006FF00901C0EB001001EBC3
:104160008000B8F942103C4688420DD198F81400FE
:1041700050B999F80100012806D16878012803D1C7
:104180004FF4E575284671E086E000006EC0072018
:1041900070C007203C00001034EB0720ACC00720A3
:1041A000D80000103BC10720B2C007209FC2010009
:1041B000ECE907204BC307203FC10720DC000010BB
:1041C000CCC10720534B20233120416C61726D001C
:1041D000534B20233220416C61726D00534B2023DE
:1041E0003320416C61726D00534B20233420416CAD
:1041F00061726D00534B20233120416C61726D2040
:104200006973206F66660000534B20233220416C97
:1042100061726D206973206F66660000534B202326
:104220003320416C61726D206973206F66660000F7
:10423000534B20233420416C61726D206973206FD1
:10424000666600005AC30720E60000109CEA0720BB
:10425000E00000108EC0072050C307207EC007205A
:104260005CC10720AAC00720E800001012F0BAFFC6
:104270001249B1F9021088420ED011480088022874
:104280000AD196F88900C00706D1284613F09BF89A
:104290000C490878401C0870B4F900006FF0010167
:1042A000C0EB001001EB8000B8F94210884202D147
:1042B000BDE8F05F9FE6EEE5704700005CC10720B7
:1042C000AAC00720E800001030B5FA48FA4B017880
:1042D000186811B140F0010001E020F00100186001
:1042E0000020F64C012200EB400101EB001104EB31
:1042F000810191F83D10C90706D0451C02FA05F16D
:104300001D688D430D4304E0411C1D6802FA01F154
:104310008D43401CC0B21D600228E4D3E84C00204D
:1043200000EB800104EB0111497831B1C51C02FAA0
:1043300005F11D688D430D4303E0C11C02FA01F134
:104340008D43401CC0B21D600C28E9D3DA4C00201C
:104350001434215C39B100F10F0502FA05F11D6832
:104360008D430D4304E000F10F0102FA01F18D438A
:10437000401CC0B21D600628EBD3D2490020144671
:104380000A5C012A08D100F1190504FA05F21D683A
:10439000954315431D6006E000F1190204FA02F589
:1043A0001A68AA431A60401CC0B20428E8D39C686B
:1043B000186820EA0401D9605A680A43C2495A6061
:1043C0000D8815B122F000725A604A881AB15A68F5
:1043D00022F080625A608A881AB15A6822F000621C
:1043E0005A60C98819B1596821F0805159608443D5
:1043F000E143B64A1961128812B961F001011961ED
:104400001A6959681140C3E9011030BD2DE9F8431C
:10441000A849DFF8BC9200264FF460654FF480672E
:1044200001287ED10870284612F0DCFE441C3F2C87
:1044300000D9002421B2284612F0C5FF40F60268D8
:10444000404612F0CFFE3F2800D0204601B2404641
:1044500012F0B9FF284612F0C5FE07EB40155020B8
:104460008DF800008DF8016041248DF802408DF830
:1044700003606946284612F0E0FF6946281D009651
:1044800012F0DBFFB9F83C0009F120078DF80000BD
:10449000387E8DF80100387B8DF802008DF80360BE
:1044A000694605F1080012F0C8FF387A8DF800005F
:1044B00038798DF8010038788DF802008DF80360A6
:1044C000694605F10C0012F0B8FF8DF800408DF838
:1044D00001408DF802408DF80340694605F1100057
:1044E00012F0ABFF8DF800408DF801408DF80240CE
:1044F0008DF80340694605F1140012F09EFF8DF817
:1045000000408DF801408DF802408DF80340694667
:1045100005F1180012F091FF8DF800408DF8014070
:1045200000E00DE08DF802408DF80340694605F18A
:104530001C0012F082FF00230122022165A087E007
:1045400000283ED15C480E700168B04621F00101A0
:1045500001605E49098819B1416821F0010141609B
:10456000284612F03FFE0646044607EB441569460E
:10457000284612F0B3FE9DF8000050281BD19DF88C
:104580000100C0B99DF80200412814D1694605F127
:10459000100012F0A3FE9DF8000041280BD19DF8F9
:1045A0000100412807D19DF80200412803D19DF860
:1045B0000300412806D00CB1641E00E03F24B44241
:1045C000D3D147E0B9F83C0009F120048DF8000090
:1045D000207E8DF80100207B8DF8020046468DF884
:1045E0000380694605F1100012F027FF207A8DF84C
:1045F000000020798DF8010020788DF802008DF8F8
:104600000360694605F1140012F017FF3648422492
:1046100001788DF8001040788DF801008DF8024087
:104620008DF80340694605F1180012F006FF8DF879
:1046300000408DF801408DF802408DF80340694636
:1046400005F11C0012F0F9FE01231A46022127A0F1
:1046500011F04CFA00BFBDE8F8832DE9F84F05468C
:104660000C004FF054060AD0012C01D1552606E06B
:10467000022C01D1752602E0032C00D14C261049F2
:10468000DFF84CA005EB85034FF0000B4FF46060A2
:104690004FF4806901EB0311012A7DD11CB94A78DE
:1046A00042F0010237E0012C2AD14A7842F002029E
:1046B00031E000004AC00720900000109CEA07206B
:1046C00034EB07203FC10720DCC1072076C007205C
:1046D000004002404D61696E20706F7765722069FD
:1046E00073206F666600000048C307204D61696E45
:1046F00020706F776572206973206F6E0000000074
:10470000022C03D14A7842F0040204E0032C03D1C6
:104710004A7842F008024A7081F84F40804612F011
:1047200061FD401C87B23F2F00D9002739B24046B7
:1047300012F049FE40F6026012F054FD80B23F28AC
:1047400000D0384601B240F6026012F03CFE40460E
:1047500012F048FD09EB401087B253208DF800009D
:104760008DF801508DF80260D8468DF803B0694687
:10477000384612F062FE6946381DCDF8008012F00E
:104780005CFEBAF83C000AF120068DF80000307E8D
:104790008DF80100307B00E0A6E08DF802008DF876
:1047A0000380694607F1080012F047FE307A8DF861
:1047B000000030798DF8010030788DF802008DF816
:1047C0000380694607F10C0012F037FE41268DF890
:1047D00000608DF801608DF802608DF80360694615
:1047E00007F1100012F029FE8DF800608DF80160CD
:1047F0008DF802608DF80360694607F1140012F02D
:104800001CFE8DF800608DF801608DF802608DF857
:104810000360694607F1180012F00FFE8DF8006082
:104820008DF801608DF802608DF80360694607F12C
:104830001C0012F002FE002D1CD124B9002301221D
:104840000421D9A013E0012C04D101231A4604212C
:10485000DBA00CE0022C04D1022301220421DFA002
:1048600005E0032C05D1032301220421E3A011F06C
:104870003DF9C6E0012D1AD124B9002302220421FA
:10488000E6A0F4E7012C04D1012302220421E9A0CF
:10489000EDE7022C04D102231A460421ECA0E6E73E
:1048A000032CE6D1032302220421F1A0DFE7022D2D
:1048B000DFD124B9002303220421F5A0D7E7012C7E
:1048C00004D1012303220421F7A0D0E7022C04D154
:1048D000022303220421FBA0C9E7032CC9D103232F
:1048E0001A460421FFA0C2E7002A4AD11CB94A781F
:1048F00022F0010210E0012C03D14A7822F00202DA
:104900000AE0022C03D14A7822F0040204E0032CCE
:1049100003D14A7822F008024A7012F063FC1FFAB1
:1049200080F8444609EB441087B26946384612F0D5
:10493000D5FC9DF8000053281CD19DF80100A84229
:1049400018D19DF80200B04214D1694607F1100059
:1049500012F0C4FC9DF8000041280BD19DF8010025
:10496000412807D19DF80200412803D19DF803009A
:10497000412807D014B1641EA4B200E03F2444458E
:10498000D0D13EE0BAF83C000AF120048DF80000D6
:10499000207E8DF80100207B8DF802005D468DF8A9
:1049A00003B0694607F1100012F047FD207A8DF838
:1049B000000020798DF8010020788DF802008DF834
:1049C0000350694607F1140012F037FD42248DF8B8
:1049D00000408DF801408DF802408DF80340694693
:1049E00007F1180012F029FD8DF800408DF8014004
:1049F0008DF802408DF80340694607F11C0012F063
:104A00001CFD00BFBDE8F88F2DE9FC41064600EB18
:104A1000400000EB0611BB4800EB8104E08B052849
:104A200079D3B9484FF460670088801D00F0070013
:104A300004EB4000008C0090384612F0D3FB401C81
:104A400085B23F2D00D9002529B2384612F0BBFCB3
:104A500040F60268404612F0C5FB80B23F2800D005
:104A6000284601B2404612F0AEFC384612F0BAFBBE
:104A70004FF4806101EB401085B242208DF80400B4
:104A80008DF8056057208DF8060000268DF8076028
:104A900001A9284612F0D1FCA07F8DF80400E07F28
:104AA0008DF805009DF800008DF806009DF80100C6
:104AB0008DF8070001A9281D12F0BFFC04F1340194
:104AC00005F1080012F0B9FC04F1380105F10C0001
:104AD00012F0B3FC8D4CA08B8DF80400207E8DF875
:104AE0000500207B8DF806008DF8076001A905F10F
:104AF000100012F0A2FC207A8DF8040020798DF8C5
:104B0000050020788DF806008DF8076001A905F1F1
:104B1000140012F092FC00BFBDE8FC812DE9F84FB3
:104B20000646784ADFF8E4B106EB460303EB0613CA
:104B30004FF000094FF0420AABF1200B4FF46060D8
:104B40004FF4806502EB830201292CD112F83D1F3E
:104B5000074641F00101117012F044FB401C84B281
:104B60003F2C00D9002421B2384612F02CFC40F62C
:104B70000268404612F036FB80B23F2800D0204643
:104B800001B2404612F01FFC384612F02BFB05EB39
:104B9000401084B28DF800A08DF8016043208DF89C
:104BA00002004F46B4E025E142505320233120411A
:104BB0006C61726D2C206F7665726865617400009F
:104BC00042505320233120416C61726D2C20766F4E
:104BD0006C746167652069732075700042505320C2
:104BE000233120416C61726D2C20766F6C7461678B
:104BF0006520697320646F776E0000004250532077
:104C0000233120416C61726D2C20636F6E6E656381
:104C100074206973206C6F7374000000425053203D
:104C2000233220416C61726D2C206F76657268654D
:104C30006174000042505320233220416C61726D38
:104C40002C20766F6C746167652069732075700025
:104C500042505320233220416C61726D2C20766FBC
:104C60006C7461676520697320646F776E00000063
:104C700042505320233220416C61726D2C20636FAF
:104C80006E6E656374206973206C6F73740000002E
:104C900042505320233320416C61726D2C206F767B
:104CA00065726865617400004250532023332041CF
:104CB0006C61726D2C20766F6C746167652069730E
:104CC0002075700042505320233320416C61726D77
:104CD0002C20766F6C7461676520697320646F7730
:104CE0006E00000042505320233320416C61726DEE
:104CF0002C20636F6E6E656374206973206C6F7314
:104D0000740000009CEA0720D00000102040024000
:104D10008DF803906946204612F08FFB6946201DEE
:104D2000009712F08AFBBBF83C000BF120058DF8D0
:104D30000000287E8DF80100287B8DF802008DF898
:104D40000370694604F1080012F077FB287A8DF8A9
:104D5000000028798DF8010028788DF802008DF880
:104D60000370694604F10C0012F067FB41258DF8D1
:104D700000508DF801508DF802508DF803506946AF
:104D800004F1100012F059FB8DF800508DF801501D
:104D90008DF802508DF80350694604F1140012F0AA
:104DA0004CFB8DF800508DF801508DF802508DF8B5
:104DB0000350694604F1180012F03FFB8DF80050D3
:104DC0008DF801508DF802508DF80350694604F1BA
:104DD0001C0012F032FB26B901231A460521FEA061
:104DE00005E0012E05D1012302220521FFA010F0CC
:104DF0007DFE7AE0002978D112F83D1F21F00101F3
:104E0000117012F0EFF987B23C46A84608EB441047
:104E100085B26946284612F061FA9DF800004228E2
:104E20001CD19DF80100B04218D19DF80200432822
:104E300014D1694605F1100012F050FA9DF80000F7
:104E400041280BD19DF80100412807D19DF80200AF
:104E5000412803D19DF80300412807D014B1641EF6
:104E6000A4B200E03F24BC42D0D13EE0BBF83C00FD
:104E70000BF120048DF80000207E8DF80100207BCE
:104E80008DF802004E468DF80390694605F110003A
:104E900012F0D3FA207A8DF8000020798DF8010005
:104EA00020788DF802008DF80360694605F1140042
:104EB00012F0C3FA8DF800A08DF801A08DF802A0C1
:104EC00054468DF803A0694605F1180012F0B5FAB2
:104ED0008DF800408DF801408DF802408DF80340B8
:104EE000694605F11C0012F0A8FA00BF8AE52DE919
:104EF000F84F0646DFF808B34FF000094FF0420ABA
:104F00004FF460604FF4806501297ED106EB4601C5
:104F100001EB0612BB49074601EB820111F83D2F58
:104F200042F002020A7012F05DF9401C84B23F2C7C
:104F300000D9002421B2384612F045FA40F6026842
:104F4000404612F04FF980B23F2800D0204601B20F
:104F5000404612F038FA384612F044F905EB40109A
:104F600084B28DF800A08DF8016053208DF8020006
:104F70004F468DF803906946204612F05EFA694666
:104F8000201D009712F059FABBF83C000BF12005E8
:104F90008DF80000287E8DF80100287B8DF8020036
:104FA0008DF80370694604F1080012F046FA287A79
:104FB0008DF8000028798DF8010028788DF802001E
:104FC0008DF80370694604F10C0012F036FA4125A1
:104FD0008DF800508DF801508DF802508DF8035077
:104FE000694604F1100012F028FA8DF800508DF88F
:104FF00001508DF802508DF80350694604F11400F9
:1050000012F01BFA8DF8005000E026E08DF80150F8
:105010008DF802508DF80350694604F1180012F023
:105020000CFA8DF800508DF801508DF802508DF873
:105030000350694604F11C0012F0FFF926B902235F
:105040000122052170A005E0012E7CD102231A4621
:10505000052173A010F04AFD75E0002973D112F00C
:10506000C1F887B23C46A84608EB441085B26946B1
:10507000284612F033F99DF8000042281CD19DF813
:105080000100B04218D19DF80200432814D16946AE
:1050900005F1100012F022F99DF8000041280BD113
:1050A0009DF80100412807D19DF80200412803D155
:1050B0009DF80300412807D014B1641EA4B200E09B
:1050C0003F24BC42D0D13EE0BBF83C000BF12004B1
:1050D0008DF80000207E8DF80100207B8DF8020005
:1050E0004E468DF80390694605F1100012F0A5F9BF
:1050F000207A8DF8000020798DF8010020788DF855
:1051000002008DF80360694605F1140012F095F96C
:105110008DF800A08DF801A08DF802A054468DF8FE
:1051200003A0694605F1180012F087F98DF80040D8
:105130008DF801408DF802408DF80340694605F175
:105140001C0012F07AF900BF5CE4F3B5054600EBF1
:1051500040002C4900EB051001EB8000364983B07C
:10516000B1F900104FF4606600EB4100B0F9220085
:105170000190304612F036F8441C3F2C00D9002430
:1051800021B2304612F01FF940F60267384612F09D
:1051900029F83F2800D0204601B2384612F013F912
:1051A000304612F01FF84FF4806101EB40144220AA
:1051B0008DF808008DF809504B208DF80A00002664
:1051C0008DF80B6002A9204612F037F99DF8100007
:1051D0008DF8080032E0000042415420B9312041EE
:1051E0006C61726D2C206C6F73740000424154200E
:1051F000B93220416C61726D2C206C6F73740000A9
:10520000004002409CEA072042415420B93120412D
:105210006C61726D2C20617373696D6574727900B5
:1052200042415420B93220416C61726D2C2061736F
:1052300073696D6574727900D00000109DF81100DB
:105240008DF809009DF804008DF80A009DF805000E
:105250008DF80B0002A9201D12F0EFF8994904F116
:10526000080012F0EAF8974904F10C00091D12F049
:10527000E4F8954DA88B8DF80800287E8DF809007C
:10528000287B8DF80A008DF80B6002A904F110004C
:1052900012F0D3F8287A8DF8080028798DF80900E3
:1052A00028788DF80A008DF80B6002A904F114002B
:1052B00012F0C3F805B0F0BD2DE9F84F0027DFF874
:1052C00008A23C46B8464FF04209AAF1200A4FF422
:1052D000806601287ED14FF46065284611F082FF78
:1052E000441C3F2C00D9002421B2284612F06BF850
:1052F00040F60267384611F075FF3F2800D020467F
:1053000001B2384612F05FF8284611F06BFF06EB49
:1053100040148DF800908DF801805A208DF802001D
:1053200046468DF803806946204612F086F86946A5
:10533000201D009612F081F8BAF83C000AF1200511
:105340008DF80000287E8DF80100287B8DF8020082
:105350008DF80360694604F1080012F06EF8287AAF
:105360008DF8000028798DF8010028788DF802006A
:105370008DF80360694604F10C0012F05EF84125D7
:105380008DF800508DF801508DF802508DF80350C3
:10539000694604F1100012F050F88DF800508DF8B5
:1053A00001508DF802508DF80350694604F1140045
:1053B00012F043F88DF800508DF801508DF802502E
:1053C0008DF80350694604F1180012F036F88DF894
:1053D000005000E008E08DF801508DF802508DF883
:1053E00003506946204667E0002868D106EB441563
:1053F0006946284611F072FF9DF80000422818D136
:105400009DF802005A2814D1694605F1100011F0E8
:1054100065FF9DF8000041280BD19DF8010041284F
:1054200007D19DF80200412803D19DF803004128CF
:1054300006D00CB1641E00E03F24BC42D6D13EE051
:10544000BAF83C000AF120048DF80000207E8DF8A7
:105450000100207B8DF8020046468DF803806946E6
:1054600005F1100011F0E9FF207A8DF80000207995
:105470008DF8010020788DF802008DF803606946F0
:1054800005F1140011F0D9FF8DF800908DF801900E
:105490008DF802904C468DF80390694605F118008E
:1054A00011F0CBFF8DF800408DF801408DF80240DF
:1054B0008DF80340694628461C3011F0BEFF00BF3E
:1054C00014E500008800001020400240FB4A08203C
:1054D0005077FB49002000EB800301EB03131B789E
:1054E000052B01D150777047401CC0B20828F2D379
:1054F0007047002801DA404200B2704710B54FF4FF
:10550000347011F06FFEEF4C207040F2D22011F099
:1055100069FE60704FF4357011F064FEA07040F2C7
:10552000D62011F05FFEE0704FF4367011F05AFE95
:10553000207240F2DA2011F055FE60724FF437709D
:1055400011F050FEA07240F2DE2011F04BFEE0722E
:105550004FF4437011F046FE207140F20E3011F00E
:1055600041FE60714FF4447011F03CFEA07140F2B6
:10557000123011F037FEE07110BD10B5D249086845
:1055800020F0E06008604868D14AC0F30B13CF4CAC
:10559000107824F81030401CC0B21070032803D2D9
:1055A000086840F08070086010BD2DE9F04705469E
:1055B000DDE909900E4601B2174698469820089CEE
:1055C00011F001FF00219A2011F0FDFE002140F2B0
:1055D0005E2011F0F8FE00214FF4177011F0F3FE79
:1055E0000021762011F0EFFE0121CA2011F0EBFE20
:1055F0003C21C22011F0E7FE29B2782011F0E3FE31
:10560000C821084611F0DFFE31B27A2011F0DBFE2E
:1056100039B27C2011F0D7FE4621C62011F0D3FE0E
:1056200050217E2011F0CFFE0FFA88F1822011F078
:10563000CAFEBB21842011F0C6FE0021862011F095
:10564000C2FE0A21882011F0BEFE40F206418A20E7
:1056500011F0B9FE21B28C2011F0B5FEE0000A2154
:1056600090FBF1F001B28E2011F0ADFE0121A020DF
:1056700011F0A9FE0121A22011F0A5FE0121A42014
:1056800011F0A1FEA021922011F09DFE0FFA89F1E8
:10569000942011F098FE0321962011F094FE3221FF
:1056A000CC2011F090FE2821CE2011F08CFE552147
:1056B000BC2011F088FE1E21BE2011F084FE0121C5
:1056C000802011F080FE4621D02011F07CFE3C218C
:1056D000D42011F078FE1921D22011F074FE50214F
:1056E000D62011F070FE4621D82011F06CFE5B210F
:1056F000DA2011F068FE5021DC2011F064FE754CB8
:105700004FF0FF37B4F90000394611F05CFE724DDE
:105710000021B5F9000011F056FE704E3946B6F979
:10572000000011F050FEB4F90200002111F04BFE10
:10573000B5F90200002111F046FEB6F90200394623
:1057400011F041FEB4F90400002111F03CFEB5F95E
:105750000400002111F037FEB6F90400394611F0BB
:1057600032FE0A214FF4197011F02DFEBDE8F0470A
:105770000B214FF4187011F026BE2DE9FF414F4E5A
:1057800096F82700401CC4B286F82740182C03D393
:10579000002086F8270001E0072C57D896F82750FC
:1057A000474F05EB850007EB001404F1280420792E
:1057B000637A227A61798DE80F0023784FF0ED0249
:1057C0002946284612F058F896F82700072838D2BC
:1057D00000EB800107EB0111CA783C2A33D2521C3E
:1057E000D2B2CA703C2A0FD396F8222062B9497807
:1057F000090709D431498031B1F90410884203DA2C
:1058000001220321FEF729FF96F8270000EB800014
:1058100007EB0010C07803280BD396F8270000EBA5
:10582000800007EB00100179032902D24179491C5D
:10583000417196F8270000EB800007EB0010C1785B
:105840000171BDE8FF813C20C870E6E7082C09D152
:10585000234DF378A8780022E9788DE80F006B7863
:105860002A785BE01548A43045780778092C0CD1DC
:105870000023CDE90053029303935C3080893B46BB
:10588000C2B24BE011F0F8FFDBE70A2C06D100238F
:105890000093019302931A4603933FE00C2C21D10D
:1058A000064800236A3042780178A0F12604607827
:1058B0008DE80F002378622222E0000028C0072034
:1058C00034EB0720A4200820004003407A00001099
:1058D0000C0000100CC3010014C3010024C301001C
:1058E000BAC107200D2C0ED1B6F86200C3B2DD4854
:1058F00042780178841E60788DE80F002378262294
:10590000FF210846BEE70E2C9BD0142C09D10023A2
:1059100000930193029303932B463A462146204677
:10592000B0E7152CB3D0162CB1D0172CAFD088E728
:10593000CC490020C4310870487088703C314870F0
:105940007047F0B50020C84B01464FF4F47219546B
:10595000401C00B29042FADB00214FF0140C7A2078
:1059600001FB00F201EB8100800001EB810400B239
:105970000CEB84071BE0BD4CBD4E245C04EB4404DF
:1059800016F814509D5406EB4404521C65789D543F
:10599000521CA5789D54521CE5789D54521C2579C3
:1059A0009D54521C64799C54521C401C00B2874286
:1059B000E1DC491C09B20429D1DBF0BD2DE9F04F2F
:1059C000AC4A0521127800200126E3B0022A04D156
:1059D000A9A009900120062112E0012A10D1AC4AA9
:1059E00012780AB9ABA302E0012A06D1AFA309AA33
:1059F00042F8203000F10100C0B201F10101C9B24A
:105A0000B04B1A68D40709D0AFA409AD45F82040BF
:105A100000F1010001F10101C0B2C9B2940709D53A
:105A2000AFA409AD45F8204000F1010001F10101EA
:105A3000C0B2C9B2540709D5AFA409AD45F820409A
:105A400000F1010001F10101C0B2C9B2140709D58A
:105A5000AFA409AD45F8204000F1010001F10101BA
:105A6000C0B2C9B2D40609D5AFA509AC44F82050DC
:105A700000F1010001F10101C0B2C9B2940609D5DB
:105A8000AFA509AC44F8205000F1010001F101017B
:105A9000C0B2C9B2540609D5AFA509AC44F820502C
:105AA00000F1010001F10101C0B2C9B2140609D52B
:105AB000AFA409AD45F8204000F1010001F101015A
:105AC000C0B2C9B2D40509D5AFA409AD45F820408C
:105AD00000F1010001F10101C0B2C9B2940509D57C
