:020000040000FA
:10000000F04B0010E1000000E5000000E7000000F8
:10001000E9000000EB000000ED000000000000001F
:10002000000000000000000000000000EF000000E1
:10003000F100000000000000F300000079730000F0
:10004000F7000000A1020000CD020000F700000050
:10005000F70000004B9B0000F7000000F7000000D5
:10006000F7000000F7000000F7000000F7000000B4
:10007000F7000000F7000000F7000000F7000000A4
:10008000F7000000F7000000F7000000F700000094
:10009000F7000000F7000000CB140000F70000009C
:1000A000F70000002B990000F7000000F7000000A7
:1000B0004B9F0000F7000000F7000000F700000071
:1000C000F7000000F7000000F7000000DFF80CD098
:1000D00009F09AFF0048004779740000F04B0010C7
:1000E00005480047FEE7FEE7FEE7FEE7FEE7FEE71E
:1000F000FEE7FEE7FEE7FEE7CD000000FEE710B5F5
:100100000BF01EFD0CF046F8BDE810400BF070BD82
:100110000BF034BC0BF0FCB909B1002070470AF0B9
:1001200093BC00207047000070B5374A0020A2F150
:100130001401064601F10A030C5C54B11D5CAC428B
:1001400007D1145C2CB1641E14F0FF04145400D1C8
:100150000E540C5C1C54401CC0B20A28ECD370BD79
:1001600070B5294D0024143D641CE4B22E5D1EB10F
:10017000864201D00A2CF7D3285523480C3040F88A
:100180002410283040F824203438035570BD1E4A0E
:100190000021143A491CC9B2535C834201D00A2998
:1001A000F8D3DBB2834210D117480C3050F821301D
:1001B00016480360144B343353F821304360002059
:1001C0005054114A505401207047002070470E4A85
:1001D0000021143A491CC9B2535C834201D00A2958
:1001E000F8D3DAB282420CD107480C3050F8212003
:1001F00006480260044A343252F82110416001205E
:100200007047002070470000F442001014000010F6
:100210000C4BDA601870597070470A4A116190707F
:1002200070470849088170470648B0F9081000294E
:1002300007D0491E09B20181002902D1084600F009
:10024000F4BA70471C00001090F900308B4200DABD
:10025000027090F90030934200DD0170704790F910
:1002600000308B4200DA017090F90010914200DDFD
:1002700002707047B0F900308B4200DA0180B0F9AB
:100280000010914200DD02807047B0F900308B42CF
:1002900000DA0280B0F90030934200DD018070473F
:1002A0004FF04021012008600C480168491C0160A2
:1002B0000B49002008700B48016821F0FF01091D5F
:1002C0000160016841F080710160704706490120BA
:1002D000086002484168491C41607047A000001056
:1002E00006C0072000400340008000400146002077
:1002F00000E0401C0A5C002AFBD17047FFFFFFFFB3
:100300000020F94A20211154401CC0B2C828FAD359
:1003100070470146F44A0020401CC0B2135C8B4277
:1003200001D0C828F8D3704710B50021EF4C0A223D
:10033000B0FBF2F302FB13006054491CC9B218462B
:100340000529F5D310BDF0B5E94B0121202719701F
:100350000521E64A002601E01C7844B1541814F83F
:10036000015C25B9814202D904F8017C05E05418EA
:1003700014F8015D303525701E70491E11F0FF0123
:10038000EAD1F0BDFEB52B23002802DA404200B2CC
:100390002D2300250A266C4690FBF6F706FB170076
:1003A00060556D1C6DB238B20A2DF5DB01260025B3
:1003B0000920202700E046B114F800C0BCF1000F6E
:1003C00003D1904201DD275405E0265C30362654E7
:1003D00000266D1CEDB2401E40B20028EBDA2D2B3A
:1003E00002D163556D1CEDB26AB168B205E0231805
:1003F00013F8013C2354401E40B29042F7DC2E20FB
:100400006D1CA054EDB20846FFF783FF0021B64AE9
:1004100004E0635C461A491C935549B2A942F8DBD3
:10042000FEBDFEB52B23002801DA40422D23002516
:100430000A266C46074690FBF6F006FB10776755D8
:100440006D1C6DB20A2DF5DB012600250920202741
:1004500000E046B114F800C0BCF1000F03D1904297
:1004600001DD275405E0265C3036265400266D1C3D
:10047000EDB2401E40B20028EBDA2D2B02D16355BD
:100480006D1CEDB26AB168B205E0231813F8013CA7
:100490002354401E40B29042F7DC2E206D1CA05425
:1004A000EDB20846FFF735FF00218F4A04E0635C98
:1004B000461A491C935549B2A942F8DBFEBDFEB568
:1004C0002B26002801DA40422D2600240A276D46FB
:1004D000844690FBF7F007FB10CC05F804C0641CC1
:1004E00064B20A2CF4DB0127002009244FF0200C11
:1004F00000E04FB115F804E0BEF1000F04D19C42BA
:1005000002DD05F804C005E02F5D30372F550027C8
:10051000401CC0B2641E64B2002CEADA2D2E02D157
:100520002E54401CC0B26BB144B205E02E1916F82F
:10053000016C2E55641E64B29C42F7DC2E24401CD4
:10054000EC54C0B201EB810102EB8101CAB200217F
:10055000654B04E06C5C561A491C9C5549B28142BB
:10056000F8DBFEBD70B50D4616461C46FFF7DCFEF7
:10057000601CC0B2FFF7E7FE05EB850006EB8000CC
:10058000C1B25A4A584B0020A04201D2155C5D54BA
:1005900006D3155C202D03D04CB15E1806F8015C23
:1005A000491E401CC0B2C9B20528EDD370BD5D54D0
:1005B000F6E730B5044608461546FFF7AAFEFF28C1
:1005C00009D0494A2178002905D04319641C401CF0
:1005D000D154C0B2F6E730BD70B50D461446FFF7F2
:1005E000A3FE601CC0B2FFF7AEFE2846FFF791FEE7
:1005F0003E4B3D4A002124B95D5C202D01D01554AD
:100600000FE0A14201D25D5CF9E704D14FF02E0565
:1006100015545D5C02E05D5C202D02D0161806F8D2
:10062000015C401E491CC9B2C0B20529E3D370BDAC
:10063000801801D5084402E0884200DB401AC0B2AD
:10064000704717B501EB810002EB8000C2B29DF844
:100650000030284803F00F0100EB1313445C2249DB
:100660008C54521ED2B21B788B549DF80130521E0E
:1006700003F00F04D2B2045D8C54521E00EB13132E
:10068000D2B21B788B549DF80230521E03F00F0437
:10069000D2B2045D8C54521E00EB1313D2B21B78FD
:1006A0008B549DF80330521E03F00F04D2B2045D48
:1006B0008C54521E00EB1310D2B2007888541EBD29
:1006C00001EB810102EB81010A4A10B500F00F0332
:1006D000C9B2D45C044B02EB10105C54491EC9B281
:1006E0000078585410BD0000A0C1072034C3072073
:1006F00039C30720D3CE000001EB810102EB810159
:10070000CBB27E4910B500F00F028C5C7C4AD45409
:1007100004095B1E04F00F00DBB2085CD0545B1EC2
:10072000D8B2230903F00F040C5D1454401E1B09BA
:10073000C0B2C95C1154D5E701EB810102EB810124
:10074000CBB26E4910B500F001028C5C6C4AD454F7
:1007500044085B1E04F00100DBB2085CD0545B1E51
:10076000D8B2630803F001045B080C5D1454401E0A
:1007700003F00104C0B20C5D14545B08401E03F08A
:100780000104C0B20C5D14545B08401E03F0010468
:10079000C0B20C5D14545B08401E03F00104C0B2EB
:1007A0000C5D1454401EC4B25808085C105599E7FB
:1007B00030B554490123524D91F9012091F90410AB
:1007C00000EB80048A4202D105F8243030BD4C4D44
:1007D0004C1C00EB800005EB8000A24201D10375A8
:1007E00030BD8C1CA24202D180F8283030BDCC1C18
:1007F000A24202D180F83C3030BD0C1DA24202D191
:1008000080F8503030BD4C1DA24202D180F86430D7
:1008100030BD8C1DA24202D180F8783030BDC91D98
:100820008A42FBD180F88C3030BD374B1A88521E7B
:10083000104400B21880354A00EB80000244314871
:100840001368036012790271427811444170704755
:10085000F0B52D4D2D4FB5F9004004EB8406641C16
:100860002C80284C3E4425683560257935712070F0
:1008700061702271A370F0BDF0B505460E461746B3
:10088000FFF73EFD1E4C0020401C15F8011BC0B2B6
:1008900004F8011B1428F7D35FF00000401C16F881
:1008A000011BC0B204F8011B1428F7D35FF000004D
:1008B000401C17F8011BC0B204F8011B1428F7D321
:1008C0005FF00000401C13F8011BC0B204F8011BCC
:1008D0001428F7D3F0BD10B5029CFFF7CDFF0948EF
:1008E000C378827841787820FFF7B2FF642094FBC8
:1008F000F0F0BDE81040C0B2FFF793BCD3CE0000CB
:10090000A0C1072058C1072092C00720C8D60720E1
:1009100010B5FD4C082200212088401C2080204674
:10092000FFF7B3FCF948B4F9001000EB410142882D
:100930000A84B0F84E00A1F86C0010BDF44A30B43F
:10094000F449B2F90A4040F6AC53B1F900009C42B8
:1009500003DCB2F914209A4203DD142804DA401CA7
:1009600001E008B1401E0880142230BC0021E94893
:10097000FFF780BCE648E849B0F90000B1F9001083
:1009800048434FF42F7190FBF1F0E4490880E448AC
:10099000E4490088B1F90010401AE349B1F90010A8
:1009A000484342F2107190FBF1F002B2DF4800219F
:1009B000002A028000DA0180DD48C278192A1AD2A2
:1009C0008179C27901EB02220262027A437A02EB58
:1009D0000322C261827AC37A02EB03228261027B24
:1009E000426280F84E10817B80F83E10017C427C90
:1009F00001EB022105E081610162C161416280F881
:100A00003E1081647047CB48416821F4402141F495
:100A100080214160416821F4403141F480314160DE
:100A2000416821F4404141F480414160416C21F42E
:100A3000402141F400214164416C21F4403141F4F2
:100A400000314164416C21F4404141F40041416472
:100A5000B948016821F0E0610160016841F40011CA
:100A60000160016821F480310160016821F47F4157
:100A700041F4807101608115C160B0488903016053
:100A800070472DE9F041AE4C60882188401A00B2D1
:100A900000F016FDA51D2880A0886188401A00B2CC
:100AA00000F00EFD6880A0882188401A00B200F096
:100AB00007FD4FF49672A880A4F12401904201DA58
:100AC000A0880AE0B5F90200904201DA608804E0EB
:100AD000B5F90000904201DA2088088291F801C03F
:100AE0000023BCF1000F23D08948B1F91020203039
:100AF00004681444046044681444446084681444E2
:100B00008460C4682244C2600A8B521C12B20A83F9
:100B1000B2F5805F00DB0B83B1F9182094052ED16C
:100B2000921250F822402412CC8140F8223026E064
:100B3000844F8878CC7807EBC015B1F9102045F8C0
:100B40002420A2070FD100252A4607EBC01600BFBC
:100B500056F82270521CD2B23D44202AF8D36A11B2
:100B60006B4D25F81020401CC0B28870102806D3A9
:100B7000641CE0B28B70C870202800D3CB700CF1DD
:100B8000010C0B701CF001006B4A487005D0106816
:100B900020F0FF00001D106034E08978080700286D
:100BA000106820F0FF0002DB00F1010001E000F11D
:100BB000020010606448036843F080530360036AD6
:100BC00043F080430362036E43F080630366CB0708
:100BD000436908D043F0805343618B07436B05D4CE
:100BE00023F0804304E023F08053F5E743F0804393
:100BF00043634907416F02D421F0806101E041F075
:100C000080614167106840F080701060BDE8F0813D
:100C10002DE9F05F4A4E0120243E0025F1790A2992
:100C200006D2491CC9B2F1710A2901D3F57130729B
:100C30004649464A474B0F7845493D4C92F90120B9
:100C40001B784FF47A7C362F1CD0312F2BD0434F9A
:100C5000414ADFF8C8B0B7F800C013780CF10102C0
:100C600012B29246314AACF1010CDFF8F490B2F9BD
:100C700000200FFA8CFC6FF03108012B24D0022BDE
:100C800041D014E012B1012A19D010E0A6F80AC030
:100C9000A6F80CC00870C4F82CC0C4F830C0CDE071
:100CA0007581B58103E0002AF0D0032A07D00D70CA
:100CB000E562256384F828003572BDE8F09F002BBB
:100CC000EED0012BE2D0F7E7307AD8B12548B0F961
:100CD0000000824202DAA7F800A002E001DDA7F8D6
:100CE00000C0322241461D48FFF7C4FA1E48BBF936
:100CF0000010B0F90000814238DAB9F8001001F1B3
:100D0000010138E03EE04FE0EEC0072008CD0720AB
:100D1000C8CC07200EC10720CCC20720F0C0072096
:100D20004AC30720980000103EC30720F2C00720E6
:100D3000A0CD072000C002400040034000E100E0D9
:100D40002AC00720C8C4072000C0092058C10720B6
:100D5000300000107BC0072066C0072096000010FE
:100D60003CC307201CC1072020C1072005DDB9F8BE
:100D70000010A1F10101A9F8001032224146834878
:100D8000FFF778FA82484FF47A71B0F900004843CF
:100D90008049B1F9001090FBF1F001B2B9F90000FF
:100DA0000844E0627C483AE0307A38B37B48B0F9D6
:100DB0000000824202DAA7F800A002E001DDA7F8F5
:100DC00000C0322241467648FFF754FA7548BBF915
:100DD0000010B0F90000814204DAB9F8001001F106
:100DE000010104E005DDB9F80010A1F10101A9F845
:100DF0000010322241466548FFF73CFA69484FF43B
:100E00007A71B0F9000048436249B1F9001090FBD3
:100E1000F1F001B2B9F900000844E0625F484FF414
:100E20007A71B0F9000048435F49B1F9001090FBB6
:100E3000F1F0B7F9001000B20844206384F828509C
:100E40003AE72DE9F041074600EB8701574800EBF0
:100E500001142078032871D194F83E50A807B4F902
:100E6000420010D54FF4966188421ADA401C00B255
:100E7000A4F84200884214DBA4F842106078C0074E
:100E80000FD1012209E060B1401E00B2A4F8420077
:100E900038B96078C00704D000220021384600F03D
:100EA000B9F92807B4F944004FF00A064FF00001E1
:100EB0000ED50A281FDA401C00B2A4F844000A2804
:100EC00019DBA4F844606078800714D4012209E09B
:100ED00000280DDDA0F1010000B2A4F8440050B9D3
:100EE0004FF000024FF00101384600F093F902E0A4
:100EF00001DAA4F84410E806B4F946000ED50A2831
:100F000017DA401C00B2A4F846000A2811DBA4F846
:100F10004660607840070CD4012206E048B1401ECC
:100F200000B2A4F8460020B900220221384600F0A1
:100F300071F96078000702D0042012E025E01C4817
:100F4000007820B1E078142801D9052009E094F850
:100F50003E00800601D5022003E0E078142801D28B
:100F60000120A070E0780A2894F8280002D340F00D
:100F7000800001E000F07F0084F828000D48B0F9FF
:100F80000A10E162B0F90C0020633FE63CC3072081
:100F900020C1072010C107201CC1072022C1072043
:100FA000960000101EC1072014C10720A0CD072005
:100FB0007FC0072006C0072070B5F9480278F948BD
:100FC000016812B141F0010101E021F0010101606D
:100FD0000021F54C5FF0010301EB410202EB01122D
:100FE00004EB820292F83D20D20706D04D1C03FA92
:100FF00005F205689543154304E04A1C056803FAA9
:1010000002F29543491CC9B205600229E4D3E74CBA
:10101000002100BF01EB810204EB0212527832B1D1
:10102000CD1C03FA05F205689543154303E0CA1C7D
:1010300003FA02F29543491CC9B205600C29E9D3B1
:101040002946D84D00221435AC5C34B102F10F06AC
:1010500003FA06F4A143214304E002F10F0403FA6A
:1010600004F4A143521CD2B2062AEDD3D04D002283
:101070000160AC5C012C2FD002F1190403FA04F4D6
:10108000A143521CD2B2042AF3D30160836821EA3F
:101090000302C26044681443C64A4460158815B10F
:1010A00024F00074446054881CB1446824F08064C7
:1010B000446094881CB1446824F000644460D28881
:1010C0001AB1426822F0805242608B43DA43BA4B35
:1010D00002611B883BB109E002F1190603FA06F42C
:1010E000A1432143CDE762F0010202610369426836
:1010F0001A40C0E9012170BDF8B54FF4606528467B
:1011000007F0EBFC401C04463F2800D9002421B224
:10111000284607F0D5FD40F60266304607F0DDFCB4
:101120003F2800D0204601B2304607F0C9FD2846CE
:1011300007F0D3FC4FF4806101EB401005465520C9
:101140008DF8000000268DF8016052208DF8020015
:101150008DF803606946284607F02FFE6946281D72
:10116000009607F02AFE954CA08B8DF80000207E9B
:101170008DF80100207B8DF802008DF80360694630
:1011800005F1080007F019FE207A8DF8000020799B
:101190008DF8010020788DF802008DF80360694613
:1011A00005F10C0007F009FE41248DF800408DF890
:1011B00001408DF802408DF80340694605F11000AA
:1011C00007F0FBFD8DF800408DF801408DF80240DE
:1011D0008DF80340694605F1140007F0EEFD8DF827
:1011E00000408DF801408DF802408DF803406946BB
:1011F00005F1180007F0E1FD8DF800408DF8014081
:101200008DF802408DF80340694605F11C0007F097
:10121000D4FDF8BD2DE9F84F8046542559B1012978
:1012200004D0022904D0032904D004E0552502E0AB
:10123000752500E04C25DFF884A15C4C08EB8803A1
:101240004FF0000BAAF1200A4FF460604FF4806663
:1012500004EB0313012A02D0002A7ED02CE131B125
:10126000012908D002290AD003290CD00FE05A78AE
:1012700042F001020AE05A7842F0020206E05A788F
:1012800042F0040202E05A7842F008025A7083F8F1
:101290004F10044607F021FC401C87B23F2F00D9B5
:1012A000002739B2204607F00BFD40F60269484698
:1012B00007F013FC80B23F2800D0384601B2484600
:1012C00007F0FEFC204607F008FC06EB401086B253
:1012D00053208DF800008DF801808DF802505D4696
:1012E0008DF803B06946304607F067FD6946301D4A
:1012F000009507F062FDBAF83C000AF120048DF871
:101300000000207E8DF80100207B8DF802008DF812
:101310000350694606F1080007F04FFD207A8DF86A
:10132000000020798DF8010020788DF802008DF8FA
:101330000350694606F10C0007F03FFD41248DF88B
:1013400000408DF801408DF802408DF80340694659
:1013500006F1100007F031FD00E00DE08DF80040CF
:101360008DF801408DF802408DF80340694606F182
:10137000140007F022FD85E031B1012908D00229CF
:101380000AD003291CD01FE0597821F001011AE08E
:10139000597821F0020116E0597821F0040112E099
:1013A0007FC0072044C0072008CD0720A0CD07201C
:1013B0002BC1072090C107203A00001020400240B6
:1013C000597821F00801597007F087FB87B23C4635
:1013D0004FEA060909EB441086B26946304607F029
:1013E000F8FB9DF80000532824D19DF801104145D9
:1013F00020D19DF80200A8421CD1694606F11000D8
:1014000007F0E7FB9DF80000412813D106E0641EB9
:10141000A4B200E03F24BC42DCD14DE09DF80100C5
:10142000412807D19DF80200412803D19DF803000F
:10143000412802D0002CEDD0E9E7BAF83C000AF1CF
:1014400020048DF80000207E8DF80100207B8DF8AF
:1014500002005D468DF803B0694606F1100007F002
:10146000ACFC207A8DF8000020798DF801002078FE
:101470008DF802008DF80350694606F1140007F05C
:101480009CFC42248DF800408DF801408DF802400C
:101490008DF80340694606F1180007F08EFC8DF8C0
:1014A00000408DF801408DF802408DF803406946F8
:1014B00006F11C0007F081FC00BFBDE8F88F0000BA
:1014C000002801DA404200B2704710B5FF480168B9
:1014D00021F0E06101604168FE4AC1F30B13FC4C4E
:1014E000117824F81130491CC9B21170032903D2B4
:1014F000016841F08071016010BD10B5062007F051
:10150000ECFA002804DB062007F0E7FA022803DDE6
:101510000021062007F0D4FBEF49F04C0878401C6E
:10152000C0B208700A2814D3ED480068C00710D173
:10153000A07870B9062007F0D0FA022809DA062050
:1015400007F0CBFA401C01B2062007F0B9FB0120DE
:10155000A070B4F93000B0F5616F0AD3062007F02F
:10156000BCFA002805D00021BDE81040062007F095
:10157000A7BB10BD2DE9FF41D84C42F210702434B6
:101580000325E083A086A58520780021401CC0B2F9
:1015900004F82409182802D384F8241001E007284D
:1015A00067D82120FEF713FE58B1CE4800882228C4
:1015B00007D1CA4894F82410F83090F90200884204
:1015C00052D094F82B00C84D98B994F8240000EB41
:1015D000800105EB011202F128021179577A167A7F
:1015E00053798DE8CA0013784FF0ED02014607F0F9
:1015F00018FE94F82400072836D200EB800105EB92
:101600000111CA783C2A31D2521CD2B2CA703C2A8B
:101610000CD3E27F52B94978090707D4B4F96E10A8
:10162000884203DA01220321FFF7F4FD94F8240035
:1016300000EB800005EB0010C07803280CD300BF3E
:1016400094F8240000EB800005EB001001790329D9
:1016500002D24179491C417194F8240000EB8000CA
:1016600005EB0010C1780171BDE8FF813C20C87016
:10167000E6E79A4A082892F82B301CD08C320928C9
:101680005478127824D00A280DD00C282FD00D2899
:101690003CD00E28E8D0142846D0152803D01628B0
:1016A00001D01728E0D1002BDED1009101910291E9
:1016B0001A4603913FE0002BD6D18C4AE578D378C7
:1016C000947803950094CDE901315378127832E093
:1016D000002BC9D1CDE90041029103917F49134606
:1016E0008031898DCAB226E007F09BFDBCE7002B54
:1016F000BAD17A4858304378047816384278CDE920
:101700000024CDE90231037862220AE0002BABD13C
:10171000764801AC5438642342780078009125C49F
:101720002622FF210846DFE7002B9DD10091019181
:101730000291234603910146D6E76C4900204A39BD
:10174000087048708870343148707047F0B50020D8
:10175000674A01464FF4F4731154401C00B298429A
:10176000FADB00214FF0140C7A2301FB03F001EBAC
:1017700081039B0001EB81041BB20CEB84041CE091
:101780005A4D5C4F3235ED5C05EB450517F8156099
:10179000165407EB4505401C6E781654401CAE7875
:1017A0001654401CEE781654401C2E791654401CDA
:1017B0006D791554401C5B1C1BB29C42E0DC491C3B
:1017C00009B20429D0DBF0BD2DE9F04FDFF80C9110
:1017D000B1B04846B9F96E100091B9F870201144C3
:1017E00089F8001099F80810491CC9B289F8081046
:1017F000142909D300210172C279521CD2B2C271DC
:10180000052A01D389F807103848344B1638DFF819
:10181000CCA0017890F9044090F901005B7D021B97
:101820000AF1800A4FF0010B01AFE9B30AF1780623
:1018300035464FF0050C95F902800D297DD0212900
:101840007CD02B467F2993F9043007EB830576D0B3
:10185000812975D07E2974D07D2973D03346A6F1B5
:101860007E0E5B785B1E4FFA83FC7B296BD00F29C1
:101870006AD01029FCD02229FAD02329F8D05B297C
:10188000F6D02F29F4D0532975D033465B789B1EB0
:101890005BB2042970D0F83EDFF85CE0F67E4E299A
:1018A00000F07D87292900E067E001F041812D29C2
:1018B00001F05A812B2901F095812C2901F09E819C
:1018C000302901F0A5816D2918E000000040034097
:1018D0002AC0072006C00720B600001060C00720FD
:1018E00044C0072014000010A0CD07206EC10720BF
:1018F00050D2072060C8000094CE000001F0E981BA
:101900006E2901F0FE81722901F01882732901F01D
:101910006B82752901F0A182762901F04484772930
:1019200001F09D84122901F0F684362901F0118519
:10193000832901F02385342907E0A6E03AE14FE14D
:1019400052E3FEE3FEE3FEE3FEE301F06A850AF103
:101950007805512901F0A987A846322902F0308084
:10196000312902F066806C2902F0D982802902F0C8
:10197000FF8202F045BBE9E3EAE3AAA1019199F8ED
:1019800006104D46012902D10BB1ACA60196B1A6B5
:101990000296B6A60396BBA60496022902D10BB105
:1019A000A6A10491BDA10591C2A10691C7A107916D
:1019B000CCA10891D1A10991D6A10A91DB49032AB2
:1019C00001DDC01E01E0A04200DA0871BAF92E0064
:1019D00054460F2806DDD6A3DBA2E1A1E6A0FEF760
:1019E0004BFF0CE091F9040007EB8001091D57F84B
:1019F00020000EC9FEF740FF0020FEF7D9FE04F1DB
:101A000010040122A08D2B2180B2FEF7E5FD208E6F
:101A10000122402180B2FEF7DFFD608801222321F0
:101A200080B2FEF7D9FD20880122242180B2FEF782
:101A3000D3FDE08D0122252180B2FEF7CDFD608E21
:101A400001225E2180B2FEF7C7FD208801222621F7
:101A500080B2FEF7C1FD608801222A2180B2FEF724
:101A6000BBFD208E01223C2180B2FEF7B5FD608EC9
:101A700001223E2180B2FEF7AFFD0023132219465A
:101A800095F82C00FEF76EFD73E789F81CC0C0A125
:101A90002A91C5A12B91CAA12C91CFA12D91D449F6
:101AA0002E91D44D08EB880105EB011291780129A4
:101AB00009D0022911D0032911D091B1042912D0E3
:101AC000052926D02EE0CCA0299092F83E000007F0
:101AD00028D5002B26D0CEA00DE0D3A00BE0D8A0B7
:101AE00009E0DDA007E05178CA0701D0E0A002E0DC
:101AF0008A0702D5E4A0299014E04A0701D5E8A09E
:101B0000F9E709070ED5ECA12991F1A12A914BA182
:101B100004E0F5A12991FAA12A91FFA12B910021BE
:101B200089F81C1029A800EB8401D1E9012350F8A1
:101B30002410FFA0FEF7A0FE96F9010096F904100C
:101B4000421A022A02DD811E317102E0884200DA67
:101B50003071042802DB0120FEF72AFE96F902000C
:101B60000022401C80B22621FEF736FD96F90200C5
:101B7000012200EB800005EB00102821806980B273
:101B8000FEF72AFD96F90200012200EB800005EB2A
:101B900000105B21006A80B2FEF71EFD96F902007C
:101BA000002200EB800005EB00105D21406A00B2CE
:101BB00001F072BE8E4BE4A2E9A1EFA0FEF75CFE3D
:101BC0005A4901224831544681F83CB0BAF8100015
:101BD0005B2180B2FEF700FD01225D2101F0CCBB4C
:101BE000EBA00190F0A0029044A00390D5E901235E
:101BF00057F82410F2A0FEF73FFE0120FEF7D8FDB3
:101C0000BAF82C00544600EB800080B2002221215B
:101C1000FEF7E2FCE08C0022232180B2FEF7DCFC20
:101C2000E08CD9E120C8F1F2EEF7EDE8EA20F2EE1F
:101C3000EAE020202020202000000000202020209A
:101C40002020202020202020202020202020202094
:101C5000000000002049F3202020202BC020556DDB
:101C600061782020202040420000000020492020F0
:101C700020202023C0205520202020202020244266
:101C80000000000020C8F1F2EEF7EDE8EA20EDE0F8
:101C9000EFF0FFE62E202020000000002055F3206A
:101CA000202020254220496D6178202020205E419F
:101CB000000000002055202020202026422049201E
:101CC0002020202020202A41000000002055EC6127
:101CD000782EE8F1F22EF2EEEAE0202020203CC23D
:101CE000000000002049EC61782EE8F1F22EEDE0D2
:101CF000EFF02E2020203E410000000020C2FBF526
:101D0000EEE4202020202020202020202020202041
:101D10000000000020CAE0EBE8E1F0EEE2EAE82093
:101D200020202020202020200000000058C1072073
:101D300020E8EBE820EDE5F1EAEEEBFCEAEE20F43A
:101D4000E0E72E20000000002020CEF2F1F3F2F1B7
:101D5000F2E2F3E5F220EEE4EDE0202000000000E6
:101D6000202020202020F1E5F2E82121212120203F
:101D700020202020000000002020C0E2E0F0E8FF4A
:101D800020EFE8F2E0FEF9E5E92020200000000065
:101D90002055E8F1F2203D2020202020202020287E
:101DA000C2202020000000002049E8F1F2203D2060
:101DB000202020202020205B412020200000000047
:101DC0002074E8F1F2203D20202020202020205DFA
:101DD000B0D120200000000020D1E1F0EEF120E0A1
:101DE000E2E0F0E8E9202020202020200000000090
:101DF000A9CE0000A0CD0720202020202020E22016
:101E0000F0E0E1EEF2E5202020202020000000009C
:101E10002020D1C8CBDCCDDBC920CDC0C3D0C5C20A
:101E20002121212000000000202020202020E2206D
:101E3000F0E5E7E5F0E2E5202020202000000000AA
:101E400020E7E0E1EBEEEAE8F0EEE2E0ED20E8E7A3
:101E5000E2EDE5200000000020202020D0E0E1EEAF
:101E6000F2E0E5F220C0CFC22020202000000000D8
:101E700020C0E2E0F0E8FF202D20EFE5F0E5E3F000
:101E8000E5E2212000000000C0E2E0F0E8FF202DA4
:101E900020E7E0E2FBF82E55E2FBF5210000000010
:101EA000C0E2E0F0E8FF202D20E7E0EDE8E62E5567
:101EB000E2FBF521000000002020C0E2E0F0E8FF96
:101EC000202D20EFEEF2E5F0FFEDE0200000000015
:101ED000202020202020F1E2FFE7FC2121212020EA
:101EE0002020202000000000202020202020C2DB15
:101EF000CACBDED7C5CD2020202020200000000046
:101F00002020202020CEF2F1F3F2F1F2E2F3E5F20C
:101F1000202020200000000020EFE5F0E2E8F7EDAF
:101F2000EEE520EFE8F2E0EDE8E52120000000001A
:101F300020202020202020C1CFD1204E262020206C
:101F400020202020000000002049EDE0E3F0203DAB
:101F500020202020205DC020202020200000000024
:101F60002055EDE0E3F0203D20202020205BC22022
:101F70002020202000000000202020202020CDC094
:101F8000C3D0D3C7CAC020202020202000000000DA
:101F90002046E2E5EDF22EF2E5EAF3F92E202020CC
:101FA00020202125000000002046E2E5EDF22E6D04
:101FB00061782E20282020402529202300000000C1
:101FC0002020202020C2C5CDD2C8CBDFD2CED02049
:101FD000202020200000000000EB80002D30002297
:101FE00080B2402102F00AB8BEA00190C3A00290C6
:101FF000C8A00390CDA00490D2A00590D7A00690D1
:10200000DCA00790E1A00890E6A00990EBA00A9060
:10201000F0A00B90F5A00C90FAA0AFF220310D903B
:10202000B9F9760007EB80004160AFF2F0318160D2
:10203000AFF2F8312D1DC1600ECD0198FEF71CFCEA
:1020400096F9010096F90410421A022A01DD801E59
:1020500001E0884200DA30710120FEF7A9FBEF4C65
:102060006FF002052078012878D06A1E2121ECA0AB
:10207000FEF79FFA6078012874D06FF003024021C8
:10208000E7A000BFFEF795FAA07801286ED06FF0A8
:1020900003022321E2A000BFFEF78BFAE0780128BB
:1020A00068D06FF003022421DDA000BFFEF781FAA3
:1020B0002079012862D06FF003022521D8A000BF4B
:1020C000FEF777FA607901285CD06FF003025E2199
:1020D000D3A000BFFEF76DFAA079012856D06FF0AB
:1020E00003022621CEA000BFFEF763FAE0790128A3
:1020F00050D06FF003022A21C9A000BFFEF759FAA1
:10210000207A01284AD06FF003022821C4A000BF22
:10211000FEF74FFA607A012844D06FF003022921BC
:10212000BFA000BFFEF745FAA07A01283ED06FF0AD
:1021300003022B21BAA000BFFEF73BFAE07A012888
:1021400007E03BE073E0F9E15EE207E083E209E0EB
:10215000B1E22FD06FF003023D21ABE32A462121EB
:10216000B1A085E72A464021AFA08BE72A4623216C
:10217000ADA091E72A462421ABA097E72A46252166
:10218000A9A09DE72A465E21A7A0A3E72A4626210B
:10219000A5A0A9E72A462A21A3A0AFE72A4628211D
:1021A000A1A0B5E72A4629219FA0BBE72A462B21FB
:1021B0009DA0C1E72A463D219BA07CE39CA0019005
:1021C000A1A00290A6A00390ABA00490B0A005909F
:1021D000AFF2D8400690AFF29C500790AFF2A450F7
:1021E0002D1D08900ECD0198FEF746FB96F90100D3
:1021F00096F90410421A022A01DD801E01E088428D
:1022000000DA30710120FEF7D3FA00222321544670
:10221000BAF82400FEF7E0F9A34800222421408800
:10222000FEF7DAF90222252154E080B2DAE680A036
:1022300001909EA00290A3A00390A8A00490ADA03E
:102240000590B2A00690B7A007908BA0089090A030
:102250000990AFF258500A90AFF220600B90AFF2A5
:1022600024602D1D0C900ECD0198FEF705FB96F90C
:10227000010096F90410421A022A01DD801E01E0D5
:10228000884200DA30710120FEF792FA864C002273
:10229000A41D21212088FEF79FF96088002240219B
:1022A000FEF79AF9A08800222321FEF795F9A41DD4
:1022B000002220882621FEF78FF96088002229213C
:1022C000FEF78AF9A08800222821FEF785F903226B
:1022D00025215446606FFEF7A4F800225E21608D30
:1022E000A3E700002020C0C2D2CECCC0D2DB20CDDC
:1022F000C0C3D0D3C7CECA200000000020C0E2F285
:10230000EEECE0F220B931202020202020202120F6
:102310000000000020C0E2F2EEECE0F220B9322032
:1023200020202020202040200000000020C0E2F2D9
:10233000EEECE0F220B933202020202020202320C2
:102340000000000020C0E2F2EEECE0F220B9342000
:1023500020202020202024200000000020C0E2F2C5
:10236000EEECE0F220B9352020202020202025208E
:102370000000000020C0E2F2EEECE0F220B93620CE
:102380002020202020205E200000000020C0E2F25B
:10239000EEECE0F220B9372020202020202026205B
:1023A0000000000020C0E2F2EEECE0F220B938209C
:1023B0002020202020202A200000000020C0E2F25F
:1023C000EEECE0F220B93920202020202020282027
:1023D0000000000020C0E2F2EEECE0F220B9313063
:1023E00020202020202029200000000020C0E2F230
:1023F000EEECE0F220B931312020202020202B20EB
:102400000000000020C0E2F2EEECE0F220B9313230
:102410002020202020203D2000000000BCD60720E6
:10242000C2DBCACB2E000000C2CACB2E00000000C7
:102430002020DDCBC5CAD2D0CED1CDC0C1C6C5CD3E
:10244000C8C520200000000020C2E2EEE4202020C9
:102450002020202023C22020202020200000000057
:1024600020CFDDD1202020202020202024C22020A9
:1024700020202020000000002050F1F3ECEC2E2062
:1024800020202020202025EAC2F22AF700000000A8
:102490002050F2E5EAF3F92E2020202020205EC211
:1024A000F2202020000000006EC1072020C2E2EED2
:1024B000E420F42E412020202021C22020202020B2
:1024C0000000000020C2E2EEE420F42E4220202092
:1024D0002040C220202020200000000020C2E2EE88
:1024E000E420F42E432020202023C220202020207E
:1024F0000000000020CFDDD12020F42E412020203C
:102500002026C220202020200000000020CFDDD186
:102510002020F42E422020202029C220202020200C
:102520000000000020CFDDD12020F42E4320202009
:102530002028C22020202020000000001EF80810C3
:10254000552912D0DCA10191E1A10291E6A10391EC
:10255000EBA10491F0A10591F5A10691FA4907912B
:10256000012A04DD86F804C004E0F8A1EBE7A042EC
:1025700000DA307196F9040007EB800157F820204B
:102580004B68F8A1FDA0FEF777F90220FEF710F9DD
:1025900096F902000022401C80B25E21FEF71CF872
:1025A00096F90200FB49002231F810002121FEF7C4
:1025B00013F8F84996F90200091D002231F91010AC
:1025C000E148493800EB81004021FDF7F2FFF14975
:1025D00096F902000831002231F810002321FDF79E
:1025E000FBFFEC4996F902000C31002231F8100093
:1025F0002421FDF7F1FFE74996F90200103100228E
:1026000031F810002521EDE4CF4BE3A0153B1A462D
:102610001146FEF731F9DF4C0023103C082294F9F3
:102620000000012180B2FDF79DFF94F90100002315
:1026300080B209220121FDF795FF94F902000023E1
:1026400080B20A220121FDF78DFFA42096F9012016
:1026500004F1AC012AE01EF80800552829D0D4A0C6
:10266000B94BD9A1153B1A460190FEF705F9C94CA3
:102670000023103C082294F90000022180B2FDF7EB
:1026800071FF94F90100002380B209220221FDF7B5
:1026900069FF94F90200002380B20A220221FDF7AB
:1026A00061FF96F90120A42004F1C001505401F00B
:1026B000A7BCCBA0D4E7D0A10191D5A10291DAA10A
:1026C0000391DFA10491E4A10591E9A10691EEA196
:1026D0000791AFF6D8110891022A01DD337102E0AB
:1026E000A04200DA307196F9040007EB8001D1E9CD
:1026F000012357F82010EAA0FEF7BEF80120FEF7EC
:1027000057F899F81A004C4655283BD06FF0030251
:102710007921E9A0FDF74DFF04F14404022260880D
:102720006A2180B2FDF758FFA08801225B2180B2A8
:10273000FDF752FFE08801225D2180B2FDF74CFFDA
:10274000208901227B2180B2FDF746FF60890122AA
:102750004A2180B2FDF740FF208A0022712180B219
:10276000FDF73AFF208800227A2180B2FDF734FF7E
:10277000E08A0022622180B2FDF72EFF002258215C
:10278000208B52E56FF007027921CDA0FDF711FFF4
:1027900000227921BAF80A00FDF71EFFBCE799F87C
:1027A00009004C46401CC0B289F809000F2807D325
:1027B0000020761CF1B26072E176032900D3E07646
:1027C00061481530CDE9010EE07E20B1012804D02A
:1027D00002281BD003E0BDA000E0C2A00390724617
:1027E000C6A0039B0199FEF747F86A48243090F988
:1027F00001105E2061B101290FD0022912D00329F6
:1028000015D0042918D005291BD01EE0C1A0E5E78A
:1028100060496C3181F82A0017E05E496C3181F81B
:102820002D0012E05B496C3181F830000DE0594910
:102830006C3181F8330008E056496C3181F836007C
:1028400003E054496C3181F83A00B84D28784FF0D4
:1028500000024FF02601FDF7BFFE287900225E211D
:10286000FDF7BAFE287A00222521FDF7B5FE287B68
:1028700000223C21FDF7B0FE297E33480022493872
:1028800000EB81003E21FDF794FEA88B00227B2106
:10289000FDF7A2FE607D002801F0B2833A20FDF72B
:1028A00038FD3C4C20256C3425543A20FDF731FD91
:1028B0002554FCE6FAE18DE220C2FBE2E5E4E5ED19
:1028C000E02030212F4020202F3023200000000066
:1028D00020CDEEECE8ED2EE5ECEA2E2020202020A5
:1028E00024412AF70000000020CDE0F0E0E1EEF204
:1028F000EAE020202020202025F72E2000000000E4
:1029000020CAEEEDF2F0EEEBFC20E5ECEAEEF1F29F
:10291000E82020200000000020C2FBF0E0E2EDE80B
:10292000E2E0FEF9E8E920E7E0F0FFE40000000063
:1029300020D0E0E7F0FFE4FB202020202020202012
:102940002020202000000000A9CE000020C2E2E5E7
:10295000E4E5EDE0202030212F4020202F302320FF
:10296000000000002020202020C1C0D2C0D0C5DF40
:10297000204E5E20202020200000000020C1C0D278
:10298000C0D0C5C9CDDBC920C6D3D0CDC0CB202097
:102990000000000034C107202020C2E2E5E4E8F294
:1029A000E52020EFE0F0EEEBFC202020000000000E
:1029B000C4EBFF20E2E2E5E4E5EDE8FF20E1E0F230
:1029C000E0F0E5E8000000002020EDE0E1E5F0E8BF
:1029D000F2E520EFE0F0EEEBFC202020000000000C
:1029E000C4EBFF20E2FBE2E5E4E5EDE8FF20E1E0F7
:1029F000F22E2DE80000000020496D61783D202076
:102A00002020202020202020214120200000000024
:102A100020556D61783D202020202020202020207E
:102A200040422020000000002049796D696E3D2061
:102A300020202020202020202341202000000000F2
:102A40002055796D696E3D202020202020202020F7
:102A5000244220200000000020746D61783D202079
:102A6000202020202020202025B04320000000002E
:102A700020C8EDE4E8EA2EE2F0E5ECE5EDE8202000
:102A80002020205E0000000020CAE0EBE8E1F0EE2C
:102A9000E2EAE0202020202020202020000000006A
:102AA0002020202020D3D1D2C0CDCEC2CAC8202021
:102AB0002020202000000000E2FBEAEB2E000000B6
:102AC000F7E5F0E5E72079F12E0000002020202036
:102AD000203C3E202D20E2FBE1EEF02020202020B3
:102AE000000000002020205E76202D20F3F1F2E08F
:102AF000EDEEE2EAE02020200000000020D3D1D259
:102B0000C0CDCEC2CAC02020C2D0C5CCC5CDC82041
:102B1000000000002020202020A420202D20E2FB07
:102B2000F5EEE4202020202000000000204002409C
:102B3000ECA10191F1A10291F6A10391FBA10491F5
:102B4000AFF648610591FF49A04201DA087102E041
:102B5000022A00DD0B7191F9040007EB8001D1E935
:102B6000012357F8201019E0DEA10191E3A10291A1
:102B7000E8A10391F4A10491ECA10591F8A10691BB
:102B800042E0087102E0022A00DD0B7191F90410A5
:102B900007EB8100D0E9012357F82110F7A0FDF7DA
:102BA0006BFE0120FDF704FE09F16C040022208871
:102BB000402180B2FDF710FD60880022212180B203
:102BC000FDF70AFDA08800225E2180B2FDF704FD1A
:102BD000E0880022232180B2FDF7FEFC00222421A0
:102BE0002089CEE5BFA10191C4A10291C9A10391A1
:102BF000CEA10491AFF6FC61059105E0B9A1019168
:102C0000BEA10291D6A10391CE49A042BBDAB8E79A
:102C1000E0A1019199F817104D4601290AD0AFF6AD
:102C20002471CDE9021ECDF810E0CDF814E085F84E
:102C30001CB014E0297E0129DCA1029107D0AFF677
:102C40004471CDE9031E0221CDF814E006E0DDA1B8
:102C50000391AFF65871CDE9041E03212977B949D4
:102C6000A04201DA087102E0022A00DD0B7191F93D
:102C7000040007EB8001D1E9012357F82010D7A009
:102C8000FDF7FAFD0120FDF793FDE87D012810D046
:102C90004FF0FF322121AFF6780000BFFDF789FC2D
:102CA000287E01280AD04FF0FF324021AFF6900075
:102CB00097E000222121AFF69000EFE700224021AB
:102CC000AFF69C00FDF775FC00222321B5F87800D3
:102CD00057E5C8A10191CDA10291D2A10391AFF610
:102CE000E4710491D549059106911EE091F9041013
:102CF00007EB8100D0E9012357F82110AFF26020E3
:102D000026E3CFA10191D4A10291D9A10391DEA123
:102D10000491CA4DB9F97410C03547F8215007EB3A
:102D20008101C03D4D608D60CD608649A04201DAD1
:102D30000871DBE7022AD9DD0B71D7E7D8A1019131
:102D4000DDA10291E2A10391E7A10491ECA105911B
:102D5000F1497C4D0691A04201DA287102E0022A75
:102D600000DD2B7195F9040007EB8001D1E9012307
:102D700057F8201055E0E9A000E0EAA0FDF719FCA3
:102D8000704895F9021028304FF0000230F8110019
:102D90004FF02301C8B3E5A0FDF70BFC694895F996
:102DA000021038306FF0010230F811004FF05D0171
:102DB00010B1AFF2FC2000E0DEA0FDF7FAFB6148A5
:102DC00095F90210403030F8110097E26FF00102DF
:102DD0002821D8A005E000BF6FF001022821AFF242
:102DE0002830FDF7E6FB62E4ADA10191B2A10291AA
:102DF000B7A10391BCA10491C1A10591C649514D50
:102E00000691A04202DA287103E024E0022A00DDE4
:102E10002B7195F9041007EB8100D0E9012357F8D5
:102E20002110C6A0FDF728FD0120FDF7C1FC95F992
:102E300002000022401C80B22121FDF7CDFB414859
:102E400095F9021031384FF00002405C4FF040011C
:102E5000012892D18FE7B1A09EE791A1019196A19F
:102E600002919BA10391BBA10491A5A10591AA493F
:102E700006913449A04201DA087102E0022A00DD1D
:102E80000B7191F9040007EB8001D1E9012357F898
:102E90002010B6A0FDF7F0FC0120FDF789FC2948C1
:102EA0004FF0000231384FF040014078012818D02F
:102EB0009CA000BFFDF77DFB22484FF000022830A8
:102EC0004FF02301408858B198A000BFFDF771FB77
:102ED0001C486FF0010230304FF05B01408851E137
:102EE00057E153E120C1E0F2E0F0E5E920202020A5
:102EF00020202020202020400000000020C8F1F2E7
:102F0000EEF7EDE8EAEEE22020202020202020212C
:102F10000000000020C8EDE2E5F0F2EEF0EEE22065
:102F2000202020202020205E0000000020D1F3F58A
:102F3000E8F520EAEEEDF2E0EAF2EEE220202024CD
:102F40000000000058C1072020C4E0F2F7E8EAEED4
:102F5000E220F2E5ECEFE5F02E2020230000000057
:102F600020C2FBF5EEE4202020202020202020207D
:102F700020202020202020202000000020202020B1
:102F80002020D1D2D0D3CAD2D3D0C020202020201C
:102F90000000000020C0CFC22031E920F3F0EEE2B3
:102FA000E5EDFC20212020200000000020C0CFC241
:102FB0002032E920F3F0EEE2E5EDFC204020202075
:102FC0000000000020CFE5F0E8EEE420C0CFC232E0
:102FD000202020202023F72E00000000202020C0E9
:102FE000CFC220C8D1D2CED7CDC8CACEC2202020D1
:102FF0000000000020C4E0F2F7E8EA20E4E2E5F097
:10300000E8202020202020200000000020C4E0F242
:10301000F7E8EA20E4FBECE020202020202020201C
:103020000000000020C4E0F2F7E8EA20F3E4E0F05A
:10303000E020202020202020000000003C1C000078
:1030400020D1F3F5EEE920EAEEEDF2E0EAF220B964
:10305000312020200000000020D1F3F5EEE920EA25
:10306000EEEDF2E0EAF220B932202020000000006C
:1030700020D1F3F5EEE920EAEEEDF2E0EAF220B934
:10308000332020200000000020D1F3F5EEE920EAF3
:10309000EEEDF2E0EAF220B934202020000000003A
:1030A00020F1EEF1F2EEFFEDE8E5202D20402020AA
:1030B000202020200000000020E0E2E0F0E8E9ED20
:1030C000EEE52020202020202020202000000000ED
:1030D00020F1EEF1F2EEFFEDE8E5202D2023202097
:1030E000202020200000000020C7E2F3EA2020205A
:1030F0002020202020202020205D20200000000013
:1031000020C4E8F1EFEBE5E920202020202020205A
:103110002028202000000000A9CE0000E7E0ECEA13
:10312000EDF3F200F0E0E7EEECEA2E00EDE5E7E08B
:10313000ECEA2E00E2EAEB2E000000002020D1D3C2
:10314000D5CEC920CACECDD2C0CAD2204E21202091
:103150000000000020D0E5EBE520202020202020EA
:1031600020202020205B202000000000202020C400
:10317000C0D2D7C8CA20C4DBCCC020202020202049
:103180000000000040B1AFF2540007E0AFF274005D
:1031900090E6AFF2780099E6AFF2E460FDF709FA45
:1031A000FF48408857E0AFF208110191AFF2F801F3
:1031B0000291AFF2E4010391AFF268010491AFF222
:1031C000C0010591F7490691F5494039A04201DA5D
:1031D000087102E0022A00DD0B7191F9040007EB8F
:1031E0008001D1E9012357F82010EFA0FDF744FB3F
:1031F0000120FDF7DDFAEA484FF0000271384FF088
:103200004001807801281AD0AFF2E800FDF7D1F92B
:10321000E3484FF0000218384FF02301808888B14E
:10322000AFF2F800FDF7C5F9DD486FF00102103884
:103230004FF05B01808840B1AFF2081007E0AFF2B9
:103240002410E3E7AFF22C10ECE7AFF29470FDF737
:10325000B0F9D348808800283FF4BEADB6E5AFF2A0
:10326000C0110191AFF2B0110291AFF29C11039124
:10327000AFF220110491AFF278110591C94906917E
:10328000C7494039A04201DA087102E0022A00DD94
:103290000B7191F9041007EB8100D0E9012357F875
:1032A0002110C7A0FDF7E8FA0120FDF781FABC481C
:1032B0004FF0000271384FF04001C078012821D052
:1032C000AFF2A010FDF775F9B5484FF000021838BD
:1032D0004FF02301C088C0B1AFF2B010FDF769F91B
:1032E000AF486FF0010210384FF05B01C08878B131
:1032F000AFF63C00FDF75DF9A948C08800287FF4CF
:103300006BAD63E5AFF2EC10DCE7AFF2F010E5E790
:10331000AFF2E010EEE7B0A10191B5A10291BAA120
:103320000391BF490491C039059106919C494039E8
:10333000022A01DD0B7102E0A04200DA087191F966
:10334000040007EB8001D1E9012357F82010B5A054
:1033500069E3B34BB9A2BFA1C4A0FDF78DFA012068
:10336000FDF726FABAF8100001224021544680B237
:10337000FDF732F901222121608A32E4C1A10191D5
:10338000C6A10291CBA10391D0A10491D5A1059131
:10339000AFF63C110691A2490791C03908918049C6
:1033A0004039012A02DD81F804C002E0A04200DABF
:1033B000087191F9040007EB800157F820204B6851
:1033C000CEA1D4A0FDF758FA0220FDF7F1F9BAF921
:1033D00030000A2590FBF5F0544680B200222121EE
:1033E000FDF7FAF8B4F93200002290FBF5F080B254
:1033F0004021FDF7F1F8A08E0122232180B2FDF7D4
:10340000EBF8E08E0122242180B2FDF7E5F8208F51
:103410000022252180B2FDF7DFF800223C21608FD9
:1034200056E4C2A00190C7A00290CCA00390D1A006
:103430000490AEB1D5A00590C8A0069008EB480056
:1034400000EB0811DFF85C83554E08EB8100403E2D
:10345000007B48B1D4A00790D9A00890DEA008E076
:10346000E3A00590E8A0E8E7EDA00790F2A008909F
:10347000BAA009906A480A90C0380B900C90D5E920
:10348000012357F82410F2A0FDF7F6F9707890B9EF
:103490000A234FF0FF32CE21CD20FCF761FE96F9D2
:1034A00002000A23C0F101010BFA01F002B2CA21A5
:1034B000C820FCF755FE7078032827D199F81B0027
:1034C00010B101280FD0ECE10A234FF0FF32D021D8
:1034D000CD20FCF745FE0A2301226421D220FCF70F
:1034E0003FFEB1780AE00A234FF0FF32CE21CD2013
:1034F000FCF736FE96F90200C0F101010BFA01F06B
:1035000002B20A23CA21C820FCF72AFE70780928D3
:1035100012D10A234FF0FF32CE21CD20FCF720FE3E
:1035200096F902000A23C0F101010BFA01F002B280
:10353000CA21C820FCF714FE96F9010068B30128DF
:103540002BD0022829D0032828D0042826D00528EB
:1035500024D0062823D0072821D008281FD00920EE
:1035600030710120FDF724F996F902000022401C79
:1035700080B22121FDF730F896F90200444600EBB5
:10358000400101EB001008EB80000122408840213F
:10359000FDF722F896F9020066E180E181E182E11F
:1035A00098C10720A9CE0000202020C4C0D2D7C8CF
:1035B000CA20D3C4C0D0C02020202020000000009A
:1035C000C4C0D2D7C8CA20CFC5D0C5C2CED0C0D7FC
:1035D000C8C22E200000000020CDE0E3F0F3E7EAAF
:1035E000E02020202020202020202020000000009B
:1035F00020C1CFD1202020202020202020202020CA
:10360000202020200000000020CFF0E5E4E5EBFCC6
:10361000EDFBE520EFE0F02E2DF0FB200000000098
:10362000FC1C00002020202020CAC0CBC8C1D0CE66
:10363000C2CAC02020202020000000002049E2FB58
:10364000F53D202020202021412020202020202066
:10365000000000002055E2FBF53D20202020204006
:10366000C2202020202020200000000020CAC0CB43
:10367000C8C1D0CEC2CAC020CDC0C3D0D3C7CAC86B
:10368000000000002055E8F1F22E6D61782E202018
:103690002020202021C22020000000002055E8F139
:1036A000F22E6D696E2E2020202020204042202006
:1036B000000000002049E8F1F22E6D61782E2020F4
:1036C0002020202023412020000000002049E8F194
:1036D000F22E6D696E2E20202020202024412020F3
:1036E000000000002074F1E8E3ED3D2020202020C0
:1036F000202020203CB04320000000002020CFC02C
:10370000D0C0CCC5D2D0DB20D0C0C1CED2DB2020EF
:103710000000000020202020CCC0CAD1CCC0CBDCCF
:10372000CDDBC52020202020000000002055E1E056
:10373000F2203D202020202040C2202020202020D8
:103740000000000020EEF2EAE0EBE8E1F0F3E9F23D
:10375000E52055E1E0F22020000000002020EDE00F
:10376000E6E0F2E8E5EC209A20E8EBE8209C202057
:10377000000000002049E1E0F2203D202020202030
:1037800023C02020202020200000000020EEF2EAAC
:10379000E0EBE8E1F0F3E9F2E52049E1E0F2202096
:1037A0000000000008CD072020C4E0F2F7E8EA207E
:1037B000F2E5ECEFE5F0E0F2F3F0FB2000000000B2
:1037C0002020202020EDE5E8F1EFF0E0E2E5ED201B
:1037D00020202020000000002020E8EBE820EDE57C
:1037E000EFEEE4EAEBFEF7E5ED2E2020000000000E
:1037F000202020EDE0E6ECE8F2E520A420E4EBFF59
:103800002020202000000000EAE0EBE8E1F0EEE2FA
:10381000EAE820EDF3EBFF2049E1E0F200000000D0
:103820002074E1E0F2203D2020202024B04320201D
:10383000202020200000000020EEF2EAE0EBE8E18A
:10384000F0F3E9F2E52074E1E0F22020000000004E
:1038500020CAC0CBC8C1D0CEC2CAC020C1C0D22EDF
:10386000204E21200000000000EB400101EB001081
:1038700004EB80000222B0F908002321FCF782FD4E
:1038800096F90200002200EB400101EB001004EB6E
:1038900080002421B0F90A00FCF774FDB0E3002099
:1038A0005EE603205CE606205AE6CBA10191D0A19A
:1038B0000291AFF258110391D3A10491F6B3D8A1AC
:1038C0000591AFF268110691DBA10791E0A1089183
:1038D000AFF278110991E449CDE90A1ECDF830E044
:1038E00068B3012854D0022852D0032852D00428AB
:1038F00050D005284ED006284ED007284CD0082896
:103900004AD00920287140B207EB8001D1E9012398
:1039100057F82010D5A0FCF7AFFF0120FCF748FFB7
:1039200095F902000022401C80B22121FCF754FED0
:1039300095F90200D34C00EB800001E023E027E082
:1039400004EB001001228069402180B2FCF744FEA4
:1039500095F90200012200EB800004EB0010252104
:10396000006A80B2FCF738FE95F90200002200EBF5
:10397000800004EB00105E21406A80B2FCF72CFE50
:10398000687858B111E0AFF298110591BEA19AE79D
:103990000020B7E70320B5E70620B3E70A234FF47A
:1039A0007A72E521E120FCF7DBFB6878032806D179
:1039B0000A234FF47A72E521E120FCF7D1FB1FE3E3
:1039C000B7A10191BCA10291C1A10391C6A104912B
:1039D000CBA10591D0A10691D5A10791DAA10891BB
:1039E000DFA10991E4A10A91E9A10B91EEA10C914B
:1039F0000099F34D47F821500099C03D07EB810134
:103A0000022A4D608D60414601DD0B7102E0A0424B
:103A100000DA087198F9040007EB8001D1E901236D
:103A200057F82010E7A0FCF727FF0120FCF7C0FEA5
:103A3000E6E2EAA10191EFA10291AFF2E021039148
:103A4000F2A14C460491EEB3F6A10591AFF2F42138
:103A50000691FAA10791FFA10891AFF200310991F7
:103A60008149CDE90A1ECDF830E060B3012879D054
:103A7000022877D0032877D0042875D0052873D082
:103A8000062873D0072871D008286FD009286FD076
:103A90000A286DD00B286BD00C286BD00D2869D06C
:103AA0000E2867D00F20287140B207EB8001D1E9C2
:103AB000012357F82010EDA0FCF7DEFE0120FCF7F3
:103AC00077FE01E046E04DE095F902000022401C3F
:103AD00080B22121FCF780FD95F90200E84E00EB51
:103AE000800006EB001001228069402180B2FCF7C3
:103AF00073FD95F90200012200EB800006EB001037
:103B00002321C06980B2FCF767FDB4F8560001229A
:103B1000242180B2FCF760FD95F90200012200EB40
:103B2000800006EB00102521006A80B2FCF754FDEE
:103B300095F90200002200EB800006EB00105E21E8
:103B4000406A80B2FCF748FD95F90100A0B1032856
:103B500012D027E0AFF268310591CAA178E703E0FF
:103B600004E005E000209EE703209CE706209AE79A
:103B7000092098E70C2096E7A9780A230BFA01F0B0
:103B800002B2D021CD20FCF7EBFA0A230022C92192
:103B9000C820FCF7E5FA0A234FF47A72E521E12008
:103BA000FCF7DEFA6878062814D1A9780A230BFA04
:103BB00001F002B2D021CD20FCF7D2FA2823002256
:103BC000C921C820FCF7CCFA0A23BF21B4F956203A
:103BD000BE2063E16AE100002055E8EDE2203D20CF
:103BE00020202040C2202020202020200000000093
:103BF00020EEF2EAE0EBE8E1F0F3E9F2E52055E847
:103C0000EDE22020000000002049E8EDE2203D2008
:103C10002020202025C0202020202020000000007F
:103C200020EEF2EAE0EBE8E1F0F3E9F2E52049E822
:103C3000EDE22020000000002074E8EDE2203D20AD
:103C400020205EB043202020202020200000000003
:103C500020EEF2EAE0EBE8E1F0F3E9F2E52074E8C7
:103C6000EDE2202000000000A9CE0000CAC0CBC8B1
:103C7000C1D0CEC2CAC020C8CDC2C5D0D2204E212C
:103C80000000000060D10720EAE0EBE8E1F0EEE29E
:103C9000EAE820EDF3EBFF2049E8EDE20000000048
:103CA00020C1CFD1204E31202020202020202020D4
:103CB000202020200000000020C1CFD1204E322043
:103CC0002020202020202020202020200000000074
:103CD00020C1CFD1204E33202020202020202020A2
:103CE000202020200000000020C1CFD1204E342011
:103CF0002020202020202020202020200000000044
:103D000020C1CFD1204E352020202020202020206F
:103D1000202020200000000020C1CFD1204E3620DE
:103D20002020202020202020202020200000000013
:103D300020C1CFD1204E372020202020202020203D
:103D4000202020200000000020C1CFD1204E3820AC
:103D500020202020202020202020202000000000E3
:103D600020C1CFD1204E392020202020202020200B
:103D7000202020200000000020C1CFD1204E313073
:103D800020202020202020202020202000000000B3
:103D900020C1CFD1204E31312020202020202020D2
:103DA000202020200000000020C1CFD1204E313241
:103DB0002020202020202020202020200000000083
:103DC000FC1C00002020CAC0CBC8C1D0CEC2CAC0D3
:103DD00020C1CFD1EEE22020000000002055E8F104
:103DE000F2203D2020202040C22020202020202022
:103DF0000000000020EEF2EAE0EBE8E1F0F3E9F287
:103E0000E52055E8F1F22020000000002049E8F10B
:103E1000F2203D202020202025C02020202020200E
:103E20000000000020EEF2EAE0EBE8E1F0F3E9F256
:103E3000E52049E8F1F22020000000002074E8F1BC
:103E4000F2203D2020205EB0432020202020202092
:103E50000000000020EEF2EAE0EBE8E1F0F3E9F226
:103E6000E52074E8F1F220200000000020CAC0CB59
:103E7000C8C1D0CEC2CAC020C1CFD1204E2120009F
:103E8000A0CD0720EAE0EBE8E1F0EEE2EAE820ED81
:103E9000F3EBFF2049E8F1F200000000FCF760F9C5
:103EA0000A230022E621E120FCF75AF96878092864
:103EB00023D1E07E10B1012809D017E0A9780A23A8
:103EC0000BFA01F0C04302B2D021CD200CE0A9785A
:103ED0000A230BFA01F002B2D021CD20FCF740F901
:103EE0000A230022C921C820FCF73AF90A234FF41B
:103EF0007A72E521E120FCF733F9D720FCF747F986
:103F0000A8B3E3480088D9287AD140F6B8300090A9
:103F1000E0A3E6A2EBA1F1A0FCF7DDFC70E0F5A1C7
:103F20000191FAA10291FF490391C0390491012A3C
:103F300002DD85F804C002E0A04200DA287198F999
:103F4000040007EB800157F820204B68F6A1FCA085
:103F5000FCF792FC0220FCF72BFCFF4C00224021D6
:103F60002088FCF739FB00226088232146E047E0E7
:103F7000FA490191183102911831039118310491D5
:103F8000F7A10591F54978310691E6490791C039C5
:103F90000891012A02DD85F804C002E0A04200DA9F
:103FA000287198F9040007EB800157F820204B682E
:103FB000DDA1E3A0FCF760FC0220FCF7F9FBE64C76
:103FC0000022A41D21212088FCF706FB6088002226
:103FD0004021FCF701FBA08800222321FCF7FCFA1A
:103FE000A41D002220882621FCF7F6FA6088002212
:103FF0002A21FCF7F1FAA08800222821FCF7ECFA2C
:10400000D54CDD4E163CA4F12D0520784F281FD04D
:1040100060287DD01F28FCD026287AD199F8190075
:104020004D46012876D0022875D0032874D0062882
:1040300073D00C2872D0D1A10191D6A10291002891
:104040006DD0DAA10391DFA10491E4490591FEE36B
:1040500094F90100F0B301287DD0E14CE14F022832
:104060007AD0032879D0042878D0052877D006287C
:1040700076D0072875D00828CFD1AA4BC03B1A4666
:1040800011460846FCF7F8FBD74C00230222208893
:104090001946FCF767FA6088002302220121FCF729
:1040A00061FA0222A08800231146FCF75BFAE0883F
:1040B000002302220321FCF755FA0023207A042270
:1040C0001946FCF74FFA607A002304220121FCF71D
:1040D00049FA00E046E0A07A002304220221FCF71E
:1040E00041FAE07A002304220321FCF73BFA002383
:1040F000A08907221946FCF735FAE0890023072238
:104100000121FCF72FFA00230722208A022107E071
:10411000E0E3E4E1DFE3DFE3DFE3DFE3DFE3DFE38B
:10412000FCF720FA608A002307220321FCF71AFA21
:104130000023208B13221946FCF714FA207D00235C
:1041400013220121FCF70EFABAF81E0000231322F5
:10415000032180B2C1E12DE0C4E130E2C1E2FFE21F
:1041600031E397E36F4AA1A3C03A1146A5A0FCF73B
:1041700083FB00230422194640F21B40FCF7F2F9AE
:1041800000230B22194645F27820FCF798F9BAF87B
:104190001E00002304220221544680B2FCF7E2F9FB
:1041A000208D00230522032180B2FCF7DBF96A4C45
:1041B0000C3C96E35B4B99A0C03B1A461146FCF7BA
:1041C0005BFB9C4800231A4619460078FCF7CAF9A5
:1041D0009948002305220068194680B2FCF7C2F90D
:1041E000964800230D220068194680B2FCF7BAF900
:1041F0009348002313220068194680B2FCF7B2F9F5
:1042000094F902000023401C80B21A460121FCF7F9
:10421000A9F994F902000023801C80B21A460221F9
:10422000FCF7A0F994F902000023C01C80B21A46E2
:104230000321FCF797F994F90200824D00EB80000E
:1042400005EB00100023C07802220121FCF78AF957
:1042500094F90200022200EB800005EB001000231D
:1042600090F853001146FCF77DF994F90200002301
:1042700000EB800005EB0010022290F8A300032160
:10428000FCF770F994F9020000EB8000DCE000001C
:104290001400001020202020EFF0EEE8E7E2E5E433
:1042A000E5EDE020202020200000000020E0E2F2E8
:1042B000EEEDEEECEDEEE920F0E0E1EEF2FB202099
:1042C0000000000020202020EDE0EFF0FFE6E5ED0B
:1042D000E8FF2020202020200000000020202020B7
:1042E00020D3F1F2E0EDEEE2EAE0202020202020D1
:1042F000000000002055E2E2EEE43D2020202040B6
:10430000C220202020202020000000002055EFFDAA
:10431000F1203D2020202023C2202020202020200A
:1043200000000000FC1C0000202020D1C8CBCEC221
:10433000DBD520C2C2CEC4CEC220202000000000A7
:10434000202020202020CAC0CBC8C1D0CEC2CAC0E5
:1043500020202020000000006EC10720AC240000B7
:1043600020CFDDD12020F42E42202020202AC22080
:10437000202020200000000044C0072020E2FBEAAB
:10438000EBFEF7E5ED20202020202020202020201B
:104390000000000020C4EBE8F2E5EBFCEDEEF1F2EA
:1043A000FC2020202028F72E0000000020EEF7E55A
:1043B000F0E5E4EDEEE520E2EAEBFEF7E5EDE8E519
:1043C0000000000020203025202026305E202030F4
:1043D000403A30233A30242000000000A9CE0000EB
:1043E00048C0072036C007209ED607202020202066
:1043F00020202A2A2A2A2A2A2A2A2020202020206D
:10440000000000002A303030302A30303030303078
:104410002A2020202020202000000000C120202071
:10442000202020202020202020202020202020208C
:1044300000000000080000100000001038C0072035
:1044400004000010A0CD072005EB00100023006A37
:104450000F2280B20121FCF785F894F902000023B5
:1044600000EB800005EB00100F22006F022180B2EC
:10447000FCF778F894F90200002300EB800005EBCC
:1044800000100F22D0F8C000032180B2FCF76AF8B8
:1044900094F90200002300EB800005EB00101322CA
:1044A000806C012180B2FCF75DF894F902000023D2
:1044B00000EB800005EB00101322D0F898000221D9
:1044C00080B2FCF74FF894F9020000EB800005EB96
:1044D0000010D0F8E80080B2D9E1FCF743F831B021
:1044E000BDE8F08FFF4B1A461146FFA0FCF7C4F958
:1044F00020680722002180B2FCF7FEF80722012184
:104500003878FCF719F90023287813221946FCF7AC
:1045100029F86878002313220121FCF723F8A878F2
:10452000002313220221FCF71DF8F54C0023102272
:104530002088194600F00F00FCF714F8608800236B
:1045400000F00F0010220121FCF70CF8A0880023D6
:1045500000F00F0010220221FCF704F8083C0023B1
:1045600020880A2200F00F001946FBF7FBFF608845
:10457000002300F00F000A220121FBF7F3FFA088BF
:10458000002300F00F000A220221FBF7EBFF183492
:10459000002320880D2200F00F001946FBF7E2FFF0
:1045A0006088002300F00F000D220121FBF7DAFFE5
:1045B000A08800230D2200F00F0002218DE7D1A377
:1045C000D6A2C849DBA0FCF757F9E0480023052232
:1045D00019460078FBF7C6FFDD4800230922008852
:1045E000194680B2FBF7BEFF4FF4F87004F075FA7D
:1045F000002380B20D221946FBF7B4FFD5480023F3
:10460000052201210078FBF7ADFFD34800230922E2
:104610000088012180B2FBF7A5FF4FF4FA7004F087
:104620005CFA80B200230D220121FBF79BFFBAF850
:104630000E0000231322194680B2FBF793FFC74CEC
:1046400000230522A069022180B2FBF78BFFC44D35
:10465000288804F042FA80B200230A220221FBF7E4
:1046600081FF208C00230E220221FBF77BFFB4F98F
:10467000080002225E21FBF785FE606E002380B2F7
:1046800005220321FBF76EFF688804F026FA80B24A
:1046900000230A220321FBF765FFB4F84E00002334
:1046A0000E220321FBF75EFFB4F9540002222621FB
:1046B000FBF768FEAB4800230F2201210078FBF7CF
:1046C00051FFA948002311220088012180B2FBF785
:1046D00049FF4FF4FB7004F000FA002380B213226C
:1046E0006FE0804BA1A01A461146FCF7C5F8B9F857
:1046F0002E0000230722194680B2FBF733FF974DA7
:1047000000230A2295F83D001946FBF72BFF0023F2
:1047100095F889000C221946FBF724FF132200218B
:104720003878FBF7CDFF072201213068FBF789FFBE
:104730009448072202210068FBF783FF0722032128
:104740002068FBF77EFF9048132202210068FBF7E8
:1047500078FF8E48132203210068FBF772FFBEE644
:10476000604B8BA01A461146FCF786F88E48002352
:10477000062219460088FBF7F5FE8C480023062226
:1047800001210088FBF7EEFE894800230622022162
:104790000088FBF7E7FE87480023062203210088F4
:1047A000FBF7E0FE844800230C220088032180B23E
:1047B000FBF7D8FE4FF4F97004F08FF9002380B2B4
:1047C0000A22012189E6474B1A4611460846FCF7A2
:1047D00053F87A4C0023042220881946FBF7C2FEC6
:1047E0000023608809221946FBF7BCFE0023A0883D
:1047F0000E221946FBF7B6FE0023E0881322194665
:10480000FBF7B0FE2089002304220121FBF7AAFE5A
:104810006089002309220121FBF7A4FEA08900235F
:104820000E220121FBF79EFEE089002313220121C5
:10483000FBF798FE208A002304220221FBF792FE58
:10484000608A002309220221FBF78CFE00E088E148
:10485000A08A00230E220221FBF784FEE08A0023B7
:1048600013220221FBF77EFE208B0023042203216A
:10487000FBF778FE608B002309220321FBF772FE11
:10488000A08B00230E220321FBF76CFEE08B00239C
:104890001322B8E0134B4AA01A461146FBF7ECFF6F
:1048A000BAF82C00002313221946544680B2FBF7B5
:1048B00059FE09F15E05002328880222012180B2F9
:1048C000FBF750FE688802220023114680B2FBF7F6
:1048D00049FE81E099E036E138E139E13AE13BE136
:1048E0003CE187E03C1C00004142202020202020A9
:1048F0002020202020202020202020200000000038
:1049000088C10720202020202020202020202020B7
:104910002020202020202026000000002020202011
:104920002020202020202020202020202020205E49
:1049300000000000CAC520202020202020202020A8
:104940002020202020202020000000003CC0072044
:10495000100000100900001042C0072008CD0720F9
:1049600040C800003DC007201200001020C0C2C097
:10497000D0C8C82020202020202020202020202037
:10498000000000004CC0072050C0072054C0072082
:104990002A2A202020202020202020202020202003
:1049A00020202020000000000C0000100A00001051
:1049B0003EC007200E00001040C00720C8CC0720D2
:1049C00037202020202020202020202020202020D0
:1049D0002020202000000000E08B00230222032181
:1049E00080B2FBF7BFFDEC4C00230A222088012196
:1049F000FBF7B8FD608800230A220221FBF7B2FD15
:104A0000A08800230A22032167E5E44B1A461146D9
:104A10000846FBF731FF94F9010058B101281BD07B
:104A2000022819D0C11E0B295BD8811E092926DC5A
:104A3000DBA125E03068D94BC0071A4609D0DEA1BA
:104A4000E3A0FBF719FFBAF8160000225D2180B23F
:104A500044E0E5A1DEA053E00BFA00F13068CF4B53
:104A600001421A4601D0D4A100E0DFA1E4A0FBF787
:104A700003FF94F90100002280B221212EE0E6A17B
:104A80000191EB4900EB800201EB021111F8A11C2E
:104A900031B1012906D0022906D0032906D007E04A
:104AA000E4A104E0E9A102E0EEA100E0F3A102919B
:104AB0000BFA00F13068014201D0BFA000E0CAA0AB
:104AC0000390F44801AD0346049007CDFBF7D4FEF4
:104AD00094F901000022801E80B22B21FBF77CFD9F
:104AE000FDE419280FD01A2817D01B281FD01C2826
:104AF000F6D1E878A94B01281A4622D0BAA1E6A03F
:104B0000FBF7BAFEEBE42878A44B01281A4602D042
:104B1000B5A1E7A0F4E7A8A1FBE768789F4B0128BF
:104B20001A4602D0B0A1E8A0EAE7A3A1FBE7A87863
:104B30009A4B01281A4602D0ABA1E9A0E0E79EA15A
:104B4000FBE79DA1DBE7ECA1FFF776BAF0A1FBE75D
:104B5000F5A1F9E7FAA1F7E7FFA1F5E78F491531CC
:104B6000039194F9011094F90420914201DA217122
:104B700004E08A1A012A01DD4A1E2271022902D1AB
:104B800008B10220207194F9040007EB800157F866
:104B900020204B68F6A1FCA0FBF76EFE0220FBF77D
:104BA00007FE0022402135F87C0FFBF715FD00229F
:104BB00023216888FBF710FD002224215446BAF80F
:104BC0000000FBF709FD002225216088FBF704FDAA
:104BD00000225E21E088FBF7FFFC7048A188343892
:104BE00000EB81006FF001022621FBF7E2FC0022BE
:104BF0002821208972E72DE9F043E948016A41F450
:104C000000110162416B21F400114163016A21F03E
:104C1000F8610162E349CA6CE34B02EA0302CA6429
:104C2000016C41F480710164416D21F48071416532
:104C30004FF0000100BF00BF00BF00BF00BF00BFBA
:104C400000BF00BF491CC9B2C829F3D3016C41F4AD
:104C500080710164416D41F480714165406BDFF802
:104C6000389160F0F860820DA9F18809A9F15F0020
:104C7000C9F86C20494604780D6F41788378A2F515
:104C8000407605F07F074FF001084FF0000CA0F1CF
:104C90002100FF3E01D0AA421BD080F825C0042C81
:104CA00000D231B190F826401CB980F8278080F8F6
:104CB0002050994203D380F8278080F8207080F834
:104CC00026C0142180F8231080F821C080F822C06B
:104CD00020E0641CE4B280F82140042C1AD3491C63
:104CE000C9B280F821C080F82210994212D380F80E
:104CF000207080F822C080F8278080F8268090F805
:104D0000251039B1590880F82310022902D8022150
:104D100080F82310C9F87020BDE8F0832DE9F04F2A
:104D2000A24887B090F82700002802F0F981DFF848
:104D30007CB200250BF1800B9C4AABF82050ABF8FD
:104D40002250BBF80A0050701046B2F9301090F8AB
:104D500020000A2917DAFD2811D07D280FD0FB2862
:104D60000DD07B280BD0F72809D0772807D0EF2863
:104D700005D06F2803D0FE2801D07E2803D18C49AE
:104D80000D808C490D70044B103BF928197802D026
:104D90000126E72810E190E168C1072094CE0000C9
:104DA000202020C0E2E0F0E8FF20C1CFD1204E2B30
:104DB000202020200000000020202020EDE520F30E
:104DC000F1F2F0E0EDE5EDE0202020200000000011
:104DD00020202020C0E2E0F0E8FF2020F1E5F2E80A
:104DE00020202020000000002020202020F3F1F2CD
:104DF000F0E0EDE5EDE02020202020200000000084
:104E0000202020C0E2E0F0E8FF20E1E0F22E204E7A
:104E10002120202000000000202020C0E2E0F0E857
:104E2000FF20C1CFD1204E202B20202000000000E9
:104E3000A0CD07202020202020EFE5F0E5E3F0E5DD
:104E4000E221212120202020000000002020E7E096
:104E5000E2FBF8E5EDEE2055E2FBF52121212020D3
:104E6000000000002020E7E0EDE8E6E5EDEE20554B
:104E7000E2FBF5212121202000000000202020203D
:104E8000EEF2EAEBFEF7E8EBF1FF212121202020F2
:104E9000000000003C1C0000202020C0E2E0F0E800
:104EA000FF20D1CA2E204E342020202000000000F8
:104EB000202020C0E2E0F0E8FF20D1CA2E204E31B1
:104EC0002020202000000000202020C0E2E0F0E8A8
:104ED000FF20D1CA2E204E322020202000000000CA
:104EE000202020C0E2E0F0E8FF20D1CA2E204E337F
:104EF000202020200000000020F0E0E720E220EC4D
:104F0000E5F1FFF6202020202020202000000000D6
:104F100020F0E0E720E2203220ECE5F1FFF6E0208F
:104F2000202020200000000020F0E0E720E22033D5
:104F300020ECE5F1FFF6E02020202020000000001A
:104F400020F0E0E720E220EFEEEBE3EEE4E02020CB
:104F5000202020200000000020F0E0E720E220E3F5
:104F6000EEE420202020202020202020000000002F
:104F7000C2DBD0C0C2CDC8C2C0DED9C8C920C7C03C
:104F8000D0DFC42000000000202020C0C2D2CECC40
:104F9000C0D2C8D7C5D1CAC8C9202020000000008F
:104FA00000C0092000C00240FF0FC0FF60C0072002
:104FB000100000103CC007207DD0792802F0B0809E
:104FC00091467A2878D0A3F178021F4602F178043E
:104FD00092F87C3094F901209446521C52B201920E
:104FE000ACF1010252B296465A1E52B25B1C0092BC
:104FF0005AB2029294F902804F296FD03C460227A0
:105000004FF00A0A00296AD0812969D07E2968D028
:105010007D2967D0FC4C532977D00F29FCD010296B
:10502000FAD02229F8D02329F6D05B29F4D02F29F1
:10503000F2D01A296AD0252969D0792968D0F34A93
:105040007A29B2F914305AB27BD004297AD04E2989
:1050500079D0282978D0122977D0312976D03629ED
:1050600075D0832974D05F2973D07B2972D0DFF883
:105070009C83632908F178086DD06129FCD06529EB
:105080006AD0602969D04FF00B0B3D2972D03A29C4
:1050900071D03C2901F0A6853E2901F02F863F29D9
:1050A00001F0D086592901F0BD8744467C2902F0E1
:1050B0001B8002F035B818E01EE04F2913D0DBF852
:1050C00078100BF17C00CBF87D10017841714FF026
:1050D00000031A4619464FF04F002CE31CE08EE007
:1050E000BFE1DEE1F4E10021EFE353210020CBF842
:1050F000686003F0A9F8DCE792F82B10104641B184
:1051000080F82B5082F82550D3E7FAE162E39EE362
:10511000EBE380F82B60F5E74E46EF281ED0F7282A
:1051200020D03C46BCF1010F26D0BCF1050F44D085
:10513000FD284AD0FB284BD0FE284ED07E2859D0DF
:10514000B7E7D3E3D3E3D3E3D3E3D3E3D3E3D3E3C7
:10515000D3E3D3E3D3E3D3E3D3E3D3E301993846F3
:10516000797002E0384687F801E0057109220021D4
:10517000781CE5E1C7E3F6E3FD2808D1A8F10108B2
:1051800084F8028007220021B81CFBF768F896F823
:105190002000FB2807D1A0780722401CA070002126
:1051A000A01CFBF75CF896F82000FE28A3D17586BA
:1051B00025706570A570E570F1E37E289BD1944859
:1051C000016821F00101016073E70098207100E09F
:1051D000227104220021381D18E30823072206212A
:1051E00005208DE80F00042303220221012004F092
:1051F00018F85EE70321874803F026FE59E7C84602
:10520000FB2820D0FD282AD07E2801F007877F497F
:105210008039BCF1000F8B792FD0BCF1010F36D053
:10522000BCF1030F56D0BCF1040F5AD0BCF1060FED
:105230007CD0BCF1070F7AD0BCF1080F78D0BCF15C
:10524000090F76D035E701986070022802D0052852
:1052500002D00EE0032000E00620607009E07046F6
:1052600084F801E0BEF1020F02D0052803D000E06F
:10527000667009220BE10420EFE7FE2827D018E72B
:1052800089F8066015E700BF89F8065011E75F4905
:105290004F46EF28B1F93C40B1F93420B1F936104E
:1052A00012D06F2810D0F72801D07728E5D15D46BD
:1052B000641E5648AC873C30FAF7DCFFB5F93C1069
:1052C000202003F0FDFCEFE35D46641CF1E7012BB9
:1052D000DAD0D5E7FE284FD0EBE600BF89F806709C
:1052E000E7E64A49EF28B1F93E80B1F93020B1F93B
:1052F00032101FD0DFF814C105246F28BCF93EC05E
:105300009CFBF4F41AD0F72825D0C8467728E1D1C1
:10531000641E04EB8400ABF83E003C485D463E3022
:10532000FAF7A8FFB5F93E10222055E027E058E033
:105330008DE08FE05C4608F101080FE0641C04EB8F
:105340008400ABF83E0031485D463E30FAF792FFEC
:10535000B5F93E100AE05C46A8F101082B48A4F814
:105360003E803E30FAF786FFB4F93E10222003F06B
:10537000A7FC89F825609CE6022BAFD184E7002BBF
:1053800084D1762003F0A9FB00B2ADF8100098F8A4
:105390002010EF2906D06F2906D0F72908D07729E9
:1053A00008D00FE0401C0BE090FBFAF0401C04E03A
:1053B000401E05E090FBFAF0401E00EB800040002C
:1053C000ADF81000BBF93020BBF9321004A8FAF791
:1053D00051FFBDF91010762003F072FC88F82560AB
:1053E00067E6002BC7D1782003F077FB00B2ADF859
:1053F000100098F82010EF290ED06F290ED0F72951
:1054000010D0772910D017E050D60720E0C0072031
:10541000004004405CD80720401C0BE090FBFAF0F1
:10542000401C04E0401E05E090FBFAF0401E00EB3B
:1054300080004000ADF81000BBF93420BBF93610F5
:1054400004A8FAF717FFBDF910107820C4E7FE286A
:1054500079D02EE6FE288ED100231A461946102058
:10546000E7E14FF47A70FAF7DCFE99F82010FD2995
:1054700004D0FB2905D0FE290CD01AE66178491E1C
:1054800001E06178491C6170B9F8760042B20021F0
:10549000601C31E394F90110B9F9760081427ED0A5
:1054A00007E64FF47A70FAF7BCFE99F82000FD2861
:1054B00004D0FB2805D0FE2808D0FAE56078401E0D
:1054C00001E06078401C60700422E0E76078A9E1A8
:1054D0004FF47A70FAF7A5FE99F82000FD2804D061
:1054E000FB2805D0FE2808D0E3E56078401E01E0E7
:1054F0006078401C60700822C9E7607808284ED0A8
:10550000D7E53220FAF78DFE99F82020EF2A0AD04D
:10551000F72A0DD0FC48FD2A16D0FB2A1BD0C8461E
:10552000FE2A23D0C5E5F84834304178491C03E011
:10553000F54834304178491E00F8011F022200214D
:10554000FAF782FEB5E5EFE3EF49343191F9011046
:10555000425C521C05E0EC49343191F90110425C87
:10556000521E4254084409220021E9E790F9011033
:1055700090F9002001EB810102EBC203E24F4900E8
:1055800003EB021290F9020001EB82013437084468
:10559000397880B2532910D00F297CD000E0AEE0DA
:1055A000102979D05B2978D04C2977D02F2976D053
:1055B000232975D0222974D07BE5D34A97F90210AC
:1055C0004A3AD34C565CD14AD24DDFF84C8340F274
:1055D000D223552E75D0984264D132F9110055214D
:1055E00003F06EFBCD4E317897F9020034F91000CC
:1055F00003F066FB317B97F9020035F9100003F0E8
:105600005FFBB6F9101097F9022038F9120003F089
:1056100057FB97F90200C24931F9100045F2555184
:1056200003F04EFB97F90200BE4931F9100000214A
:1056300003F046FB97F90200BB4931F91000002145
:1056400003F03EFB00214FF4797003F002FB0021D0
:105650004FF47E7003F0FDFA00214FF47F7003F0E9
:10566000F8FA002140F2E63003F0F3FA002140F2AC
:10567000FA3003F0EEFA002140F2FE3003F0E9FACE
:10568000002140F2F63003F0E4FA00214FF47D707F
:1056900003F0DFFA33E038E042E04DE05CE064E044
:1056A0007DE088E000210846FBF7BFF84FF47A70F0
:1056B0009E4B00909EA2A4A11846FBF70CF9F8E4BB
:1056C000FFE79842EED132F91100AA2103F0F8FA6F
:1056D000924E317897F9020034F9100003F0F0FA95
:1056E000317B97F9020035F9100003F0E9FAB6F9B9
:1056F000101097F9022038F9120003F0E1FA0021A6
:10570000F0E300BFFAF78DFDD3E4B828CAD1002139
:105710000846FBF78AF800231A461946042054E08D
:10572000A0F540716939BDD10846FBF77EF800232A
:105730001A461946122066E1A0F54071B539B1D17B
:105740000846FBF772F800231A4601215C20FBF79C
:105750007FF888F828A0F2E3A0F580712739A1D15D
:105760007E703D7189F828A0A3E4A0F54071E73967
:1057700098D10846FBF759F800231A4619463E20EF
:10578000FBF766F825706570A570E5702571657189
:10579000A571E5716572A57242F21070B2E77D28BD
:1057A00080D10021BC780846FBF73FF80022234651
:1057B0001146242009E07E2884D100210846FBF709
:1057C00034F800231A4619462520FBF741F84FF418
:1057D0007A7097E74FF47A70FAF723FD99F8200072
:1057E000FD2806D0FB2809D0FE2810D0F72886D047
:1057F0005FE4454834304178491E03E04248343084
:105800004178491C4170042274E1401C74E13E4817
:10581000343090F9010040B101280DD0022810D099
:1058200003280ED00428E2D043E400231A46194688
:105830002220FBF70DF8F1E300231A461946262033
:10584000F7E7801E0022C3B211462320F1E70022B1
:1058500011461046FAF7DCFC99F820104C46FD2959
:105860000BD0FB290ED0284A343292F9010080B1C6
:1058700001282BD0022877D01BE42348343041780C
:10588000491E03E0204834304178491C417002220F
:1058900030E1334800780228AAD0EF2902D0F72956
:1058A00004D008E0B4F85200401C02E0B4F8520002
:1058B000401EA4F852001448182201217238FAF749
:1058C000D9FCB4F95210C0201EE2FEE3244800784F
:1058D00002288DD0162801D0212889D150700522A8
:1058E00001212520FAF794FC05E441E08EE09CE0DC
:1058F000DDE0BAE158E297E2A9E3E7E3E7E3E7E3B3
:10590000E7E3E7E3E7E3E7E324C107204CC800004F
:1059100050C8000054C8000048C800002C40024095
:105920005CC8000058C800003CC800003C1C0000D7
:105930002020202020EDE5E2E5F0EDFBE92121210A
:10594000202020200000000020202020202020CF28
:10595000E0F0EEEBFC2020202020202000000000C2
:105960003CC0072000E0F1E3FE293FF4BCAB2BE490
:1059700000210846FAF751FC002211461046FAF7BA
:1059800047FC99F82000FD280AD0FB280CD07B2882
:1059900013D0F7283FF47EAEFE2811D014E4FEE3C6
:1059A000FA484178491E02E0F8484178491C4170A4
:1059B000BBF81410491C4AB29CE0BBF81400A1E2E9
:1059C000F248BBF9141090F901204B1C9A4214D1F3
:1059D000002140F6026003F03CF900214FF46060C2
:1059E00003F037F900210846FAF71FFFE848056081
:1059F000E8480560E848056024E48A42CAD0437854
:105A0000002211467A20FAF723FF1BE4FD2809D073
:105A1000FB287FF468ABDD48DDF8081000F8041FB0
:105A2000002169E0D9480099F8E74FF47A70FAF755
:105A3000F8FB99F82000FB2804D0FD2824D07B280F
:105A400033D01CE4D1484178491C49B24170072940
:105A50000AD008290AD00B290AD00C290BD02029FA
:105A60000BD022290CD00DE0062107E0092119E016
:105A700080F804A006E00D2114E01F21017101E06F
:105A800023210FE0252235E0C0484178491E49B264
:105A90004170082905D00C29E8D02129F2D1202114
:105AA00000E007214170EDE747E023202AE24F465E
:105AB000EF2817D0F72819D0FE283FF414ABBCF11B
:105AC000000F1CD0BCF1010F3AD0BCF1020F56D030
:105AD000BCF1030F6CD0BCF1040F7ED0BCF1050FFC
